:020000040800F2
:10000000289A0020C1010008F1B5000831860008D7
:10001000B9B4000831130008A14201080000000033
:10002000000000000000000000000000ADDA000841
:10003000831800080000000015C20008A5F300089E
:10004000DB010008DB010008DB010008A1CC00088F
:10005000DB010008DB010008DB010008DB01000810
:10006000DB01000861760008DB010008DB01000805
:10007000DB010008DB010008DB010008DB010008F0
:10008000DB010008DB010008DB010008DB010008E0
:10009000DB010008DB010008DB010008DB010008D0
:1000A000DB010008DB010008DB010008DB010008C0
:1000B0000BF60008DB010008DB010008DB0100088B
:1000C000DB010008DB010008DB010008DB010008A0
:1000D000DB010008CD090108DB0100084D0A010819
:1000E00049760008DB010008DB010008DB0100089D
:1000F000DB010008DB010008DB010008DB01000870
:10010000DB010008DB010008DB010008DB0100085F
:10011000DB010008DB01000821F60008DB01000814
:10012000DB010008DB010008DB010008DB0100083F
:10013000DB010008DB010008DB010008DB0100082F
:10014000DB010008DB010008DB010008DB0100081F
:10015000DB010008DB010008DB010008DB0100080F
:10016000DB010008DB010008DB010008DB010008FF
:10017000DB010008BDB60008DB010008DB01000858
:10018000DB010008DB010008DB010008DB010008DF
:10019000DB010008DB010008DB010008DB010008CF
:1001A000DB010008DB010008DB010008DFF80CD0F0
:1001B00000F0F6FA004800471D630108289A002065
:1001C0000648804706480047FEE7FEE7FEE7FEE7F1
:1001D000FEE7FEE7FEE7FEE7FEE7FEE781F4000844
:1001E000AD01000840EA01039B0703D009E008C9FC
:1001F000121F08C0042AFAD203E011F8013B00F8EC
:10020000013B521EF9D27047D2B201E000F8012B37
:10021000491EFBD270470022F6E710B513460A4686
:1002200004461946FFF7F0FF204610BD10B5002226
:1002300000E0521C835C8C5CA34201D1002BF8D1FE
:10024000D8B2E1B2401A10BD2DE9FE4F804681EAD6
:100250000300C00F0C46009021F0004123F0004540
:10026000B8EB0200A94105D24046214690461C4603
:100270000B46024623F00040104347D0270DC7F33A
:100280000A00C3F30A510290401A019040286BDA29
:10029000C3F3130040F4801B0098924620B1002362
:1002A000D2EB030A63EB0B0B01985946C0F14002F5
:1002B000504600F045F906460D4650465946019A0B
:1002C00000F05DF910EB08006141002487EA11524B
:1002D00084EAE7731A4340D0009A62B3019A012A74
:1002E0004FEA075215DC001B61EB02014FF00042A0
:1002F00002EA0752CDE90042001C41F58011324666
:100300002B4600F05DF903B0BDE8F08F4046214672
:10031000F9E7001B61EB0201001C41F58013001896
:100320005B412018A2F5001747EB030140EAD570A6
:10033000B6196D4111E06D084FEA360645EAC07501
:100340004FEA0752001B61EB0201001C41F58011CE
:1003500049084FEA30000019514132462B4603B09C
:10036000BDE8F04F00F01DB90098012240000023C5
:10037000D0EB020263EBE073009821464FEAE07491
:10038000B8EB000061EB0401E9E783F000435BE7B1
:1003900081F0004158E72DE9F04D81EA030404F0B3
:1003A000004B21F0004514464FF0000A23F00041B5
:1003B00050EA050220D054EA01021DD0C5F30A57C5
:1003C0000246C5F31303C1F31300C1F30A5640F408
:1003D000801543F48013A7EB0608101BD64608F2DD
:1003E000FD3873EB050002D308F1010801E0921813
:1003F0005B41B8F1000F03DA00200146BDE8F08D43
:1004000000204FF48011064684460EE0171B73EB64
:10041000050705D3121B63EB050306434CEA010CE9
:1004200049084FEA300092185B4150EA0107EDD1CC
:1004300052EA030012D082EA040083EA050108436D
:1004400005D0101BAB4106D20122002306E000229A
:100450004FF0004302E06FF0010253101AEB060068
:100460004CEB085110EB0A0041EB0B01BDE8F04DDD
:1004700000F097B80EB5C10F80EAE0700844CA07D3
:10048000002140F233438DE80E000A460B4600F08F
:1004900097F803B000BD0EB540F233410291002140
:1004A000CDE900110A460B4600F08AF803B000BD02
:1004B000C1F30A5210B5C1F3130140F2FF3341F406
:1004C00080119A4201DA002010BD40F233439A4273
:1004D000A2F2334203DC524200F041F810BD9040DA
:1004E00010BD000030B5041E71F1000404DB4FF0B4
:1004F0000044404264EB0101141E73F1000405DB6B
:100500001C464FF00043524263EB04038B4208BF8A
:10051000824230BD30B50B46014600202022012426
:1005200009E021FA02F59D4205D303FA02F5491BC1
:1005300004FA02F52844151EA2F10102F1DC30BDD7
:10054000202A04DB203A00FA02F100207047914093
:10055000C2F1200320FA03F3194390407047202A88
:1005600004DB203A21FA02F00021704721FA02F35D
:10057000D040C2F120029140084319467047202A1A
:1005800006DBCB17203A41FA02F043EAE07306E0BB
:1005900041FA02F3D040C2F12002914008431946CB
:1005A000704710B5141E73F1000408DA401C41F1C5
:1005B000000192185B411A4301D120F0010010BDE7
:1005C0002DE9F04D92469B4611B1B1FA81F202E05D
:1005D000B0FA80F220329046FFF7B2FF04460F4691
:1005E00040EA0A0041EA0B0153465A46084313D039
:1005F000114653EA010019D0C8F140025046FFF7F6
:10060000AEFF05460E46504659464246FFF798FF54
:10061000084305D0012004E020463946BDE8F08DAE
:100620000020054346EAE0762C4337430A986305E9
:10063000E40AA0EB08000022FD0A44EA47540A300D
:1006400002D500200146E9E7010510196941DDE9FD
:10065000084500196941BDE8F04DA2E72DE9FE4FBC
:1006600081EA030404F0004421F0004100944FF0BB
:10067000000B23F0004350EA01045ED052EA030469
:100680005BD0C3F30A54C1F30A552C44A4F2F334EB
:100690000194A0FB0254C1F3130141F48011C3F390
:1006A000130343F4801301FB024400FB034E840A4E
:1006B000970A44EA815447EA8357A4FB07680295E6
:1006C0008D0A05FB07854FEA932C04FB0C54270584
:1006D000029D4FEA065847EA1637B5EB08056EEB60
:1006E000070C870E920E47EA811742EA8312A7FB96
:1006F0000201B6EB0B0164EB00042B0D43EA0C3353
:100700005E1844EB1C50DA465146E7FB0201C5F384
:1007100013044FEA0B3343EA14534FEA0432019CAB
:1007200043EA0603A4F10C040294009CCDE900B452
:10073000FFF746FF03B0BDE8F08F00200146F9E760
:1007400070B521F0004303430CD0C1F30A550024D7
:10075000D5EB040564EB0403D617AD1AB34102DBF5
:100760000020014670BD201841EB025170BD000011
:1007700030B5041E71F1000404DB4FF00044404228
:1007800064EB0101141E73F1000405DB1C464FF0FD
:100790000043524263EB0403994208BF904230BDCC
:1007A000064C074D06E0E06840F0010394E80700BE
:1007B00098471034AC42F6D3FFF7FCFC905208087F
:1007C000B05208082DE9F04D00231A461B1A8A4141
:1007D00003DB00200146BDE8F08DC1F30A52C1F3EE
:1007E000130141F480154FF0000BD10702D100181E
:1007F0006D41521E0027044640F2FF11384601EBBE
:10080000620A3E468046024600204FF48011FFF700
:10081000A6FEC2197141BB1846EB0100B4EB030CF4
:1008200075EB000C04D3E41A65EB000517460E4681
:10083000241908F101006D4180463428E3DDF919DF
:1008400046EB0600091BA84103D24FF0FF321346C6
:1008500001E0002213461BEB070046EB0A51BDE8FE
:10086000F04DFFF79EBE70B58C1810F8015B15F0C7
:10087000070301D110F8013B2A1106D110F8012B12
:1008800003E010F8016B01F8016B5B1EF9D12B0737
:1008900005D40023521E0DD401F8013BFAE710F8ED
:1008A000013BCB1A921C03E013F8015B01F8015BDA
:1008B000521EF9D5A142D8D3002070BD70B50546AF
:1008C0000C4608480560204600F00EF800BF0548B9
:1008D00000680028FBD100214FF080400FF0A7F9FD
:1008E00070BD0000B00100203EB5044600214FF06D
:1008F00080400FF09CF90022012188070FF0DEFAFA
:10090000022C02D10B20019004E0012C02D142F60E
:10091000DF6001900520ADF800000020ADF8080070
:10092000ADF8020069464FF080400FF01DFB012139
:1009300088070FF079F9012188070FF066F9012285
:10094000114690070FF0BAFA012188070FF06FF9EE
:100950003EBD000010B54FF480711448FFF75BFCFA
:1009600001201249087006204870002088700D2070
:10097000C87000200871487188710D4890F85800BF
:10098000C8710821094807F055FE0012074908728E
:100990000821064807F04EFE044948720A21034820
:1009A00013F00AFC01200349087010BD9645002091
:1009B0001C1500204C01002070B504460D46594816
:1009C000594948602CBB59480068642806D2002366
:1009D00007220421184607F06BFE06E05349002366
:1009E00007220868042107F063FE5049002307220C
:1009F0000868042107F05CFE00234D4A8221502044
:100A000014F03AF900234BA28221A02014F034F90B
:100A10001FE0012C1DD145480068642806D2002340
:100A200006220321184607F043FE06E03F49002353
:100A300006220868032107F03BFE00233C4A82217E
:100A4000502014F019F900233AA28221A02014F0BA
:100A500013F99DB93549002307224868042107F09E
:100A600027FE0023324AA021502014F005F900236C
:100A700031A2A021084614F0FFF814E0012D12D194
:100A80002A49002306224868032107F011FE0023AB
:100A9000274AA021502014F0EFF8002326A2A0211D
:100AA000084614F0E9F8214900230622C86803210A
:100AB00007F0FEFD00231E4ABE21502014F0DCF892
:100AC00000231EA2BE21A02014F0D6F8174900234F
:100AD00007228868042107F0EBFD0023144A8221D5
:100AE0004FF48C7014F0C8F8002315A282214FF443
:100AF000B47014F0C1F80D4900230622886F19461E
:100B000007F0D6FD00230A4AA0214FF48C7014F0A0
:100B1000B3F800230BA2A0214FF4B47014F0ACF88A
:100B200070BD00006534340004010020181A002054
:100B3000382400205600000041000000570000004B
:100B4000A6B800006D41480070B586B00020049042
:100B5000002400250126FB490870FB4908704FF06E
:100B6000501008F01DF9002001F0AAFF00200390AA
:100B70000DF032F9B2E3BDF81000401C80B20490D1
:100B8000204606F0FDFDC5B2F0480078012801D1ED
:100B900001262C466FF07F40ED490860ED48007853
:100BA00038B10020EB49087006F0C8F80020EA4987
:100BB0000870EA480078012804D10020E74908704D
:100BC0000CF06EF9012E03D1204601F0EDFC002659
:100BD000DC480078012804D10CF008F90020D9493C
:100BE0000870DF4890F86D0138B9DE4A92F820109D
:100BF00092F82100FFF7E0FE22E0D94890F86D015D
:100C000001281DD10AF05AFC02F064FD6FF07F400C
:100C1000CF490860D44848600023D4A2F1214FF4A2
:100C2000CC7014F029F80220CD4981F86D01CD482F
:100C3000B0F8DC01401CCB49A1F8DC010EF094FBBC
:100C4000CC48007870B1CC480078052805D10DF06B
:100C5000C3F80020C849087004E0C7480078401C69
:100C6000C5490870C5484078012870D1C44800784B
:100C70000028FAD1C14880780028F6D1012607F073
:100C800025FF05909DF81400BE4908709DF81400DA
:100C900000285CD09DF81400202873D2DFE800F013
:100CA00072D0D1D2FCFBD5D4D3D6D7D8FADAD9F9C1
:100CB00063584C31107272F8F789B072F67272F59F
:100CC00014B1012C1AD106E0AF48007810B9062003
:100CD000AE49087013E0AC48007870B90020A14913
:100CE00081F858000DF078F84FF0501008F058F8DF
:100CF000012001F0E5FE0EF037FB00E000BF00BF71
:100D0000EBE214B1012C14D100E013E09E4800780E
:100D100070B90220934981F858000DF05DF84FF04A
:100D2000501008F03DF8012001F0CAFE0EF01CFB47
:100D300000E000BF00BFD0E234B99348007810B99A
:100D400016209249087000E000BF00BFC5E2C5E26E
:100D500034B98D48007810B917208C49087000E02C
:100D600000BF00BFB9E27E4890F86D0188B914B1A8
:100D7000012C0CD107E08448007810B90D2083497C
:100D8000087005E0A8E204207649487000E000BF42
:100D90000EE0734890F86C0150B90020704981F85A
:100DA0006D014FF0501007F0FBFF002001F088FEAE
:100DB00093E26C4890F8580058B9052C02DD201FCA
:100DC000C4B21CE0032C1ADA002C18DD601EC4B279
:100DD00015E0644890F85800022810D1062C01D183
:100DE00002240CE0052C01D1022408E0022C02D1DF
:100DF000601EC4B203E0012C01D1601EC4B26CE2DB
:100E0000584890F8580058B9052C04DA012C02DD36
:100E1000201DC4B213E0022C11DA601CC4B20EE033
:100E2000504890F85800022809D1022C01D106241C
:100E300005E0012C01D1022401E004B901244CE2B7
:100E400000BF00BF00BF00BF00BF00BF00BF00BFAA
:100E500000BF00BFA01E072872D2DFE800F0043DEB
:100E600057FF99C9E4004848007890BB3D4890F886
:100E70005800B8B97620ADF804003020ADF806006F
:100E80004C20ADF8080001A807E00CE11AE122E2CD
:100E9000E7E0E7E00FE107E145E104F064FD3149F7
:100EA000C86512E02F4890F8580002280DD176202E
:100EB000ADF804003020ADF806005020ADF8080071
:100EC00001A804F098FD274988670AF033FC0CF06C
:100ED00083FF0EF049FAC2E02B480078A8B92148F8
:100EE00090F8580068B97620ADF804004620ADF8B7
:100EF00006004C20ADF8080001A804F034FD1949A3
:100F000008660AF017FC0EF02FFAA8E01E480078D9
:100F1000A8B9144890F8580068B97620ADF80400D4
:100F20005C20ADF806004C20ADF8080001A804F0E4
:100F30001AFD0C4948660AF0FDFB0EF015FA8EE02A
:100F40008CE00000590000205B000020FE00002023
:100F50000401002082000020A60000203D000020A7
:100F6000181A00201C15002038003100C8B7C8CF5F
:100F7000000000004C010020BE000020F400002012
:100F8000DC000020BF000020BA0000205D0000202F
:100F9000D648007858BBD64890F8580078B94FF436
:100FA000B870ADF804003020ADF806004C20ADF864
:100FB000080001A804F0EBFDCD49C86613E0CC4859
:100FC00090F8580002280ED14FF4B870ADF8040024
:100FD0003020ADF806004C20ADF8080001A804F060
:100FE000D6FDC349C8670AF0A5FB0EF0BDF936E08F
:100FF000BE480078B0B9BE4890F8580070B94FF4B8
:10100000B870ADF804004620ADF806004C20ADF8ED
:10101000080001A804F0BBFDB54908670AF08AFB87
:101020000EF0A2F91BE0B1480078B0B9B04890F8D2
:10103000580070B94FF4B870ADF804005C20ADF8FA
:1010400006004C20ADF8080001A804F0A0FDA84956
:1010500048670AF06FFB0EF087F900E000BF00BFA1
:101060003BE13AE1A148007890B90320A14908701A
:101070000EF090F90120A04908709FEDA00AA04849
:1010800080ED1D0A0120994908700CF0A5FE09E0C9
:101090000320984908700020944908700CF09CFEC9
:1010A0000EF070F919E118E19048007810B912209B
:1010B0009449087011E18D48007810B906209149D3
:1010C00008700AE1012C2DD1894890F8580090B998
:1010D0008648007830BB0220854981F858000CF022
:1010E0007BFE4FF0501007F05BFE012001F0E8FCA2
:1010F0000EF03AF916E07E4890F85800022811D117
:101100007A48007870B90020794981F858000CF0CD
:1011100063FE4FF0501007F043FE012001F0D0FCB9
:101120000EF022F9D9E0A01E07287CD2DFE800F0FB
:1011300004344ED0689AB5006C48007848BB6C48BF
:1011400090F8580070B97620ADF804003020ADF862
:1011500006004C20ADF8080001A804F004FC644926
:10116000C86512E0624890F8580002280DD1762038
:10117000ADF804003020ADF806005020ADF80800AE
:1011800001A804F038FC5A4988670AF0D3FA0CF039
:1011900023FE0EF0E9F89CE054480078A8B95448C2
:1011A00090F8580068B97620ADF804004620ADF8F4
:1011B00006004C20ADF8080001A804F0D4FB4C490F
:1011C00008660AF0B7FA0EF0CFF882E047480078D8
:1011D000A8B9474890F8580068B97620ADF80400DF
:1011E0005C20ADF806004C20ADF8080001A804F022
:1011F000BAFB3F4948660AF09DFA0EF0B5F868E080
:101200003A48007868BB3A4890F8580088B94FF4DB
:10121000B870ADF804003020ADF806004C20ADF8F1
:10122000080001A800E053E004F0B1FC3049C866B2
:1012300013E02F4890F8580002280ED14FF4B870F0
:10124000ADF804003020ADF806004C20ADF80800E1
:1012500001A804F09CFC2649C8670AF06BFA0EF05E
:1012600083F836E021480078B0B9214890F858005A
:1012700070B94FF4B870ADF804004620ADF8060020
:101280004C20ADF8080001A804F081FC184908675B
:101290000AF050FA0EF068F81BE014480078B0B974
:1012A000134890F8580070B94FF4B870ADF80400C6
:1012B0005C20ADF806004C20ADF8080001A804F051
:1012C00066FC0B4948670AF035FA0EF04DF800E06D
:1012D00000BF00BF01E000E000BF00BF0948007888
:1012E00015283FF448AC06B070BD0000BA000020DD
:1012F0001C150020BD00002034000020000000006C
:10130000181A00205D00002010B54FF480610248DB
:1013100007F00CF810BD00000008024010B54FF4B3
:101320008061024807F004F810BD00000008024088
:1013300000BFFEE710B504464FF480716748FEF722
:101340006AFF0120654908706548007810B90846B1
:10135000847007E062480078012803D104F110008E
:101360005E498870A5205D4948705D480078002876
:101370004BD1012C05D0022C03D0092C01D00A2C12
:101380001BD1601E574951F82000000E5349C87008
:10139000601E544951F82000000C50490871601E2D
:1013A000504931F82000000A4C494871601E4D49EF
:1013B00011F82000494988717EE0601E494951F8C2
:1013C00020000A21B0FBF1F0000E4449C870601EF5
:1013D000444951F820000A21B0FBF1F0000C3F49CC
:1013E0000871601E3F4951F820000A21B0FBF1F05E
:1013F000000A3A494871601E3A4951F820000A2112
:10140000B0FBF1F03549887156E035480078012885
:1014100052D1012C05D0022C03D0032C01D0042C76
:101420001FD104F10F002F4951F82000000E2B4965
:10143000C87004F10F002B4951F82000000C274917
:10144000087104F10F00274931F82000000A2349F0
:10145000487104F10F00234911F820001F498871D9
:101460002AE004F10F001F4951F820000A21B0FBC7
:10147000F1F0000E1949C87004F10F00194951F834
:1014800020000A21B0FBF1F0000C1449087104F1AE
:101490000F00144951F820000A21B0FBF1F0000AB6
:1014A0000E49487104F10F000E4951F820000A213D
:1014B000B0FBF1F0094988710721084807F0BAF834
:1014C00000120649C8710721044807F0B3F8034920
:1014D00008720921014812F06FFE10BD96450020E8
:1014E000C2000020281A002010B50121C8050AF00A
:1014F000ABFF00214FF400000AF0A6FF10BD000072
:1015000001460020034A52680A400AB1012000E067
:101510000020704700B0024070B500210022002377
:101520000024344D2D68344E3540324E35603546FA
:101530002D68066835432F4E356035466D6B25F0B6
:101540000705756335466D6B46683543294E7563EF
:10155000456835B9C5682902058A2A04057D2B0628
:1015600021E04568012D05D1C5682902058A2A04B4
:10157000002318E04568022D05D1C5686901056999
:10158000EA0200230FE04568032D06D1C568690112
:101590000569AA024569EB0305E0C56829010569EB
:1015A0002A0245692B0341EA0205866835431D433B
:1015B000104EB66B35430F4EB5638569F5633546FE
:1015C0002D6C6FF30D05356435462D6CC6693543BA
:1015D000084E3564858C2C0435466D6C05F040450D
:1015E000756435466D6C066A26433543014E756455
:1015F00070BD000000B00240FCE0FCFF0348006842
:1016000040F00100014908607047000000B002404E
:101610000246094B9A4201D2084801E006481038B8
:1016200001F000531BB1064B0B40C36002E0044BBA
:101630000B4083607047000010640240006002406D
:101640007D0F7D0F0246094B9A4201D2084801E006
:101650000648103801F000531BB1064B0B40C36025
:1016600002E0044B0B4083607047000010640240AE
:10167000006002407D0F7D0F21B1026842F001023F
:10168000026003E0026822F001020260704700007D
:10169000016821F001010160002101604160816069
:1016A000C1600161212141614A49884204D13D2143
:1016B000484A103A91608CE046491831884205D179
:1016C0004FF47461434A103A916082E041493031ED
:1016D000884205D14FF474113E4A103A916078E087
:1016E0003C494831884205D14FF07461394A103A7B
:1016F00091606EE037496031884204D13649354AFD
:10170000103AD16065E033497831884204D13349D9
:10171000304A103AD1605CE02E499031884204D1C1
:101720002F492C4A103AD16053E02A49A831884207
:1017300005D14FF03D51274A103AD16049E029497F
:10174000884204D13D21274A083A116041E02549E9
:101750001831884205D14FF47461224A083A116069
:1017600037E020493031884205D14FF474111D4AC9
:10177000083A11602DE01B494831884205D14FF0ED
:101780007461184A083A116023E0164960318842B2
:1017900004D11149134A121F11601AE0114978311E
:1017A000884204D10D490F4A121F116011E00D4902
:1017B0009031884204D10A490A4A121F116008E098
:1017C0000849A831884204D14FF03D51054A121F03
:1017D00011607047106002403D000020400F002063
:1017E00000003D2010640240014600200A6802F01B
:1017F00001020AB1012000E000207047014648685C
:1018000080B2704710B500220268134B1A40CC68B2
:101810000B6823434C6923438C692343CC692343DE
:101820000C6A23434C6A23438C6A23434C6B234347
:101830008C6B23431A430260426922F00702D1E90C
:101840000B3423431A4342610B6943604B68836046
:101850008B68C36010BD00003F801CF04160704782
:101860000021016041608160C1600161416181616D
:10187000C161016241628162C1620163416381634E
:101880007047704710B586B00446012108460AF03B
:10189000CBFD012110200AF017FE07220A2127485C
:1018A00006F018FD07220921244806F013FD002048
:1018B0008DF8160001208DF8170002208DF8140015
:1018C0000002049002208DF8150004A91B4806F0C0
:1018D000B9FC02208DF814004002049004A91748B6
:1018E00006F0B0FC00940020ADF80400ADF806004E
:1018F000ADF80800ADF80C000C20ADF80A00694600
:101900000F480FF057F909F074FE012240F224410C
:101910000B480FF029F9012109480FF0D9F80122ED
:10192000402107480FF0E0F80122802104480FF021
:10193000DBF800F007F806B010BD00000000024020
:101940000010014000B591B0012188050AF06CFD3E
:101950003848FFF79DFE02A8FFF782FF00BF354819
:10196000FFF742FF0028FAD14FF0006002903248A2
:101970000390324804904020059000200690079084
:101980004FF480600890002009900A900B904FF46B
:1019900080300C9000200D9003200E9000200F90BE
:1019A000109002A92348FFF72DFF22487838FFF74F
:1019B0006FFE00BF1F487838FFF716FF0028F9D1E7
:1019C0004FF0006002901C4803901D4804900020D6
:1019D00005904FF480700690002007904FF48060CF
:1019E0000890002009900A900B904FF400300C9062
:1019F00000200D9003200E9000200F90109002A95F
:101A00000C487838FFF7FEFE3A208DF804000D20D0
:101A10008DF8050000208DF8060001208DF80700E4
:101A200001A809F0FBFD012102487838FFF724FEE8
:101A300011B000BDB8640240041001409648002077
:101A4000964700207CB504466FF07F40F749086058
:101A5000012C01D1012000E000200090009820B16D
:101A60004FF47F00F149486003E04FF05010EF4918
:101A70004860EF4900230722D1F8B800042106F09E
:101A800017FE122368221A21582007F0BDF90023FF
:101A9000E84A1A21582013F0EFF80023E64A1A21E9
:101AA000AA2013F0E9F8022C01D1012000E0002067
:101AB0000090009820B14FF47F00DC49486003E0BB
:101AC0004FF05010D9494860D94900230722D1F876
:101AD000BC00042106F0ECFD122368222E215820C0
:101AE00007F092F90023D34A3021582013F0C4F8AC
:101AF0000023D14A3021AA2013F0BEF8032C01D1D3
:101B0000012000E000200090009820B14FF47F00F9
:101B1000C649486003E04FF05010C4494860C449CA
:101B200000230722D1F8C000042106F0C1FD1223D2
:101B300068224621582007F067F90023BD4A462154
:101B4000582013F099F80023BB4A08324621AA20F6
:101B500013F092F8042C01D1012000E00020009045
:101B6000009820B14FF47F00B049486003E04FF087
:101B70005010AE494860AE4900230722D1F8C40096
:101B8000042106F095FD12237A225A21582007F0ED
:101B90003BF90023A74A5C21582013F06DF800237D
:101BA000A54A08325C21AA2013F066F8052C01D161
:101BB000012000E000200090009820B14FF47F0049
:101BC0009A49486003E04FF050109849486098499E
:101BD00000230822D1F8C800042106F069FD122371
:101BE0007A227021582007F00FF90023914A7221C0
:101BF000582013F041F800238F4A10327221B4208C
:101C000013F03AF8062C01D1012000E000200090EA
:101C1000009820B14FF47F008449486003E04FF002
:101C2000501082494860824900230822D1F8CC0034
:101C3000042106F03DFD12237A228621582007F068
:101C4000E3F800237B4A8821582013F015F800237D
:101C5000794A10328821B42013F00EF8072C01D1F4
:101C6000012000E000200090009820B14FF47F0098
:101C70006E49486003E04FF050106C4948606C4872
:101C800090F8D50008B16D4D00E06D4D12237A2219
:101C900018214FF4A97007F0B7F8654890F8D00004
:101CA000C0EBC000421900231A214FF4A97012F0B2
:101CB000E3FF082C01D1012000E0002000900098F3
:101CC00020B14FF47F005949486003E04FF05010B5
:101CD00056494860564890F8D50008B1594D00E083
:101CE000594D12237A222E214FF4A97007F08CF857
:101CF0004F4890F8D100C0EBC000421900233021BA
:101D00004FF4A97012F0B8FF092C01D1012000E0B6
:101D100000200090009820B14FF47F0043494860B4
:101D200003E04FF0501041494860414890F8D50019
:101D300008B1424D00E0424D12237A2244214FF473
:101D4000A97007F061F83A4890F8D200C0EBC000E3
:101D50004219002346214FF4A97012F08DFF0A2C7E
:101D600001D1012000E000200090009820B14FF444
:101D70007F002E49486003E04FF050102B49486027
:101D80002B4890F8D50008B12C4D00E02C4D1223C3
:101D90007A225A214FF4A97007F036F8244890F8B7
:101DA000D300C0EBC000421900235C214FF4A9709E
:101DB00012F062FF0B2C01D1012000E00020009006
:101DC000009820B14FF47F001849486003E04FF0BD
:101DD000501016494860164890F8D50008B1174DC4
:101DE00000E0174D12237A2270214FF4A97007F0FA
:101DF0000BF80F4890F8D400C0EBC0004219002344
:101E000072214FF4A97012F037FF072C22D2DFE8BD
:101E100004F01D0405060708090000BF00BF00BF4D
:101E200000BF00BF022001F09FFC17E0040100206A
:101E30001C15002038240020CC75010842740108CC
:101E4000D27301080A740108E0730108042001F04C
:101E50008BFC03E0072001F087FC00BF00BF01F00E
:101E600039FC0C2C64D2DFE804F0060A0B0C0D0ED2
:101E70000F3810393A3B032000F0DAFE59E000BF7A
:101E800000BF00BF00BF00BF53E06FF07F402A4992
:101E900008602A4848602A4890F8D50008B1294DC2
:101EA00000E0294D0020019013E00199C1EBC10130
:101EB0004A190199C1EB011303EB4111202303EBF4
:101EC000410188B20023F12112F0D6FE0198401C96
:101ED000019001980228E8D32BE000BF00BF00BFAB
:101EE0006FF07F401449086014484860144890F827
:101EF000D50008B1154D00E0154D0020019013E00C
:101F00000199C1EBC1014A190199C1EB011303EB1E
:101F10004111202303EB410188B20023F12112F08B
:101F2000ABFE0198401C019001980228E8D300E024
:101F300000BF00BF7CBD000004010020380031005C
:101F40001C1500200A740108E0730108427401089E
:101F5000D27301087CB504466FF07F40FE490860EB
:101F6000012C01D1012000E000200090009820B158
:101F70004FF47F00F849486003E04FF05010F649F5
:101F80004860F64890F8D50008B1F54D00E0F54DF1
:101F9000122368221A21582006F036FFEF480078F5
:101FA000C0EBC000421900231A21582012F064FE31
:101FB000022C01D1012000E000200090009820B107
:101FC0004FF47F00E449486003E04FF05010E249CD
:101FD0004860E24890F8D50008B1E34D00E0E34DD9
:101FE000122368222E21582006F00EFFDB4890F8BD
:101FF0002000C0EBC000421900233021582012F00D
:102000003BFE032C01D1012000E00020009000984D
:1020100020B14FF47F00D049486003E04FF05010EA
:10202000CD494860CD4890F8D50008B1CE4D00E0CC
:10203000CE4D122368224621582006F0E5FEC748FF
:1020400090F82100C0EBC00042190023462158201F
:1020500012F012FE042C01D1012000E000200090BB
:10206000009820B14FF47F00BB49486003E04FF077
:102070005010B9494860B949486A00230722042131
:1020800006F016FB12237A225A21582006F0BCFED5
:102090000023B74A5C21582012F0EEFD0023B54A18
:1020A0005C21AA2012F0E8FD052C01D1012000E0FE
:1020B00000200090009820B14FF47F00A6494860AE
:1020C00003E04FF05010A4494860A449886A0023F7
:1020D0000722042106F0ECFA12237A2270215820FC
:1020E00006F092FE0023A24A7221582012F0C4FD8D
:1020F0000023A04A7221AA2012F0BEFD062C01D1B5
:10210000012000E000200090009820B14FF47F00F3
:102110009149486003E04FF050108F4948608F4963
:10212000886C00230722042106F0C2FA12237A22C7
:102130008621582006F068FE00238D4A8821582009
:1021400012F09AFD00238CA28821AA2012F094FD9F
:10215000072C01D1012000E000200090009820B160
:102160004FF47F007C49486003E04FF050107A49FB
:1021700048607A48006BE0B17849086B002306227A
:10218000194606F095FA12237A2218214FF4A97005
:1021900006F03AFE0023764A1A214FF4A97012F095
:1021A0006BFD0023764A1A214FF4C77012F064FDCC
:1021B00019E012237A2218214FF4A97006F024FEA8
:1021C000664890F8D50038B900236EA21A214FF462
:1021D000A97012F051FD06E000236CA21A214FF401
:1021E000A97012F049FD082C01D1012000E0002067
:1021F0000090009820B14FF47F005749486003E0F9
:102200004FF0501054494860544890F8D50008B138
:102210005F4D00E05F4D5149486B002307220421C8
:1022200006F046FA12237A222E214FF4A97006F006
:10223000EBFD00234E4A30214FF4A97012F01CFD33
:1022400000234C4A083230214FF4D27012F014FDB2
:10225000092C01D1012000E000200090009820B15D
:102260004FF47F003C49486003E04FF050103A497A
:1022700048603A49886B00230722042106F018FAC7
:1022800012237A2244214FF4A97006F0BDFD0023E9
:10229000374A46214FF4A97012F0EEFC0023354A6C
:1022A00046214FF4D27012F0E7FC0A2C01D1012034
:1022B00000E000200090009820B14FF47F002649F4
:1022C000486003E04FF05010234948602349C86B31
:1022D00000230822042106F0EBF912237A225A2166
:1022E0004FF4A97006F090FD0023214A5C214FF4C1
:1022F000A97012F0C1FC00231E4A10325C214FF479
:10230000D77012F0B9FC0B2C01D1012000E00020A5
:102310000090009820B14FF47F000F49486003E01F
:102320004FF050100C4948600C49086C00230522FE
:10233000042106F0BDF912237A2270214FF4A9700E
:1023400006F062FD00230A4A72214FF4A97012F0D0
:1023500093FC002320E00000040100201C15002055
:1023600042740108D2730108887401087A74010864
:1023700038240020CC75010820562F6D7300000012
:102380007E6D0108B9D8B1D5000000004F46460067
:10239000D27401089674010875A272214FF4D270AC
:1023A00012F06AFC0C2C01D1012000E0002000900A
:1023B000009820B14FF47F006F49486003E04FF070
:1023C00050106D4948606D49486C00230522042176
:1023D00006F06EF912237A2286214FF4A97006F0D6
:1023E00013FD0023664A88214FF4A97012F044FCC3
:1023F00000235FA288214FF4D27012F03DFC0D2C17
:102400001AD2DFE804F019121314070809150A0B91
:102410000C0D0E0000BF00BF00BF00BF00BF00BF1B
:1024200000BF022001F0A0F90AE000BF00BF00BF1A
:10243000072001F099F903E0042001F095F900BFAD
:1024400000BF01F047F90D2C7ED2DFE804F0070B46
:10245000335B85868788898A8B8C8D00022000F00B
:10246000E7FB83E06FF07F404349086045484860E0
:10247000424890F8D50008B1434D00E0434D00209C
:10248000019013E00199C1EBC1014A190199C1EB17
:10249000011303EB4111202303EB410188B2002318
:1024A000F12112F0E9FB0198401C019001980228EB
:1024B000E8D35BE06FF07F402F4908603148486007
:1024C0002E4890F8D50008B1314D00E0314D002084
:1024D000019013E00199C1EBC1014A190199C1EBC7
:1024E000011303EB4111202303EB410188B20023C8
:1024F000F12112F0C1FB0198401C019001980228C3
:10250000E8D333E06FF07F401B4908601D48486006
:102510001A4890F8D50008B11D4D00E01D4D00206F
:10252000019015E00199C1EBC1014A190199C1EB74
:10253000011303EB4111202303EB410188B2002377
:10254000F12112F099FB00E00FE00198401C01908E
:1025500001980228E6D309E000BF00BF00BF00BF1A
:1025600000BF00BF00BF00BF00E000BF00BF7CBDD8
:1025700020412F6D73000000040100201C15002075
:10258000382400203800310042740108D273010859
:10259000887401087A74010810B504F01FFA01F07C
:1025A00099F802F09FFC10BD7CB50446FE4890F8F7
:1025B0005800002872D1012C01D1012000E0002038
:1025C0000090009820B14FF47F00F849486003E084
:1025D0004FF05010F549486014235C2218217620F2
:1025E00006F012FC6FF07F40F0490860EE4890F86A
:1025F000D50060B9EC4890F85800C0EBC000EC4939
:10260000421800231A21762012F036FB0BE0E64830
:1026100090F85800C0EBC000E649421800231A2188
:10262000762012F029FB022C01D1012000E00020CD
:102630000090009820B14FF47F00DC49486003E02F
:102640004FF05010D949486014235C222E21762087
:1026500006F0DAFB6FF07F40D4490860D249C86DBC
:1026600000230722042106F023F80023D24A302158
:10267000762012F001FB0023D04A3021C82012F04E
:10268000FBFA032C01D1012000E00020009000980B
:1026900028B14FF47F00C549486004E0EFE04FF0F7
:1026A0005010C249486014235C224421762006F071
:1026B000ABFB6FF07F40BD490860BB49086E00234B
:1026C0000722042105F0F4FF0023BB4A46217620AF
:1026D00012F0D2FA0023B94A4621C82012F0CCFAEF
:1026E000042C01D1012000E000200090009820B1CE
:1026F0004FF47F00AD49486003E04FF05010AB4904
:10270000486014235C225A21762006F07DFB6FF08E
:102710007F40A6490860A449486E0023072204218F
:1027200005F0C6FF0023A44A5C21762012F0A4FA2B
:102730000023A24A5C21C82012F09EFA062C01D187
:10274000012000E000200090009820B14FF47F00AD
:102750009649486003E04FF05010944948601423B4
:102760005C222E21C80006F04FFB6FF07F408F499E
:1027700008608D49C86E00230722042105F098FFE8
:1027800000238D4A30214FF4B87012F075FA0023FF
:102790008A4A921D30214FF4E17012F06DFA072C35
:1027A00001D1012000E000200090009820B14FF4FA
:1027B0007F007E49486003E04FF050107B4948603D
:1027C00014235C224421900006F01EFB6FF07F4032
:1027D000764908607449086F00230722042105F038
:1027E00067FF0023744A46214FF4B87012F044FA90
:1027F0000023724A921D46214FF4E17012F03CFA18
:10280000082C01D1012000E000200090009820B1A8
:102810004FF47F006549486003E04FF05010634972
:10282000486014235C225A21900006F0EDFA6FF004
:102830007F405E4908605C49486F002307220421FD
:1028400005F036FF00235C4A5C21880012F014FA80
:1028500000235A4A921D5C214FF4E17012F00CFAE9
:10286000012C03D1062000F07FFFC0E01CB903203B
:1028700000F07AFFBBE0082000F076FFB7E04A489E
:1028800090F858000228F0D1012C01D1012000E07D
:1028900000200090009820B14FF47F004349486029
:1028A00003E04FF050104149486014235C22182186
:1028B000762006F0A9FA6FF07F403C4908603A485C
:1028C00090F8D50060B9384890F85800C0EBC000C7
:1028D0003749421800231A21762012F0CDF90BE077
:1028E000314890F85800C0EBC0003249421800232C
:1028F0001A21762012F0C0F9022C01D1012000E04B
:1029000000200090009820B14FF47F0027494860D4
:1029100003E04FF0501025494860142368222E210F
:10292000762006F071FA6FF07F40204908601E495A
:10293000886F00230722012105F0BAFE00231E4AFA
:102940003021762012F098F900231C4A0C323021F5
:10295000C82012F091F9062C01D1012000E00020DE
:102960000090009820B14FF47F001049486003E0C8
:102970004FF050100D49486014235C222E21C800EE
:1029800006F042FA6FF07F40084908600649C86FB8
:1029900000230722042105F08BFE0023064A302184
:1029A0004FF4B8700CE000001C150020040100205A
:1029B0004D730108DD72010838240020666D01089E
:1029C00012F05AF90023354A30214FF4E17012F029
:1029D00053F9012C03D1062000F0C6FE07E01CB914
:1029E000032000F0C1FE02E0082000F0BDFE2C48EC
:1029F00090F86D01B0BB092C3DD2DFE804F0050969
:102A00003435363C37383900002000F011F933E016
:102A100000F060FE6FF07F40224908602248486065
:102A2000224890F8D50008B1214D00E0214D00204A
:102A3000019013E00199C1EBC1014A190199C1EB61
:102A4000011303EB4111202303EB410188B2002362
:102A5000F12112F011F90198401C0190019802280F
:102A6000E8D309E009E000BF00BF00BF00BF00BF1E
:102A700000F030FE00E000BF0EE000F02BFE6FF033
:102A80007F40084908600848486000230AA2F121F5
:102A90004FF4CC7012F0F0F87CBD00006C6D0108B2
:102AA000181A002004010020380031001C150020F5
:102AB000DD720108C8720108C8B7C8CF0000000065
:102AC00070B50646FFF768FD6FF07F404E4908601D
:102AD0004E4848604E4890F8D50008B14D4D00E092
:102AE0004D4D002305F12C020421184612F0C4F8C4
:102AF0006FF07F40444908604FF0501048604448F0
:102B000090F85800F0BB00243AE0042C1BD2404857
:102B100090F8D50000EB400303EB00103F4B03EBB4
:102B2000C00004EB440303EB0413C21804EB44009D
:102B300000EBC4001A2303EB400081B200231846C7
:102B400012F09AF81BE0324890F8D50000EB4003F1
:102B500003EB0010314B03EBC00004EB440303EB29
:102B60000413C218201F00EB400303EBC0001A231C
:102B700003EB400081B20023FA2012F07DF8641CC0
:102B8000082C00E001E0C0D339E0214890F858005B
:102B9000022834D1002430E0042C16D21C4890F8CE
:102BA000D50000EBC0001E4B03EB001000EB04123D
:102BB00004EB440000EBC4001A2303EB400081B295
:102BC0000023184612F058F816E0114890F8D50086
:102BD00000EBC000124B03EB001000EB0412201FAF
:102BE00000EB400303EBC0001A2303EB400081B26B
:102BF0000023FA2012F040F8641C082CCCD316B93C
:102C0000002000F015F870BD040100200352F3000D
:102C10001C150020046F0108126E0108166A0108D5
:102C2000466B010810B5032000F002F810BD00004B
:102C300010B5044600F04EFD002C7CD16FF07F40B3
:102C4000AD490860AD484860AD4890F8D50000280F
:102C500040D00023ABA2E7211C2012F00DF8002386
:102C6000AAA2FB211C2012F007F80023A9A2E72149
:102C70007E2012F001F80023A7A2FB217E2011F094
:102C8000FBFF0023A6A2E721DC2011F0F5FF0023C3
:102C9000A1A2FB21DC2011F0EFFF0023A2A2E7217B
:102CA0004FF49D7011F0E8FF00239BA2FB214FF42D
:102CB0009D7011F0E1FF00239DA2E7214FF4CC703D
:102CC00011F0DAFF00239CA2FB214FF4CC7011F02D
:102CD000D3FF10E1002399A2E7211C2011F0CCFFC3
:102CE000002398A2FB211C2011F0C6FF002397A20D
:102CF000E7217E2011F0C0FF002396A2FB217E2059
:102D000011F0BAFF002395A2E721DC2011F0B4FFF7
:102D1000002390A2FB21DC2011F0AEFF002391A242
:102D2000E7214FF49D7011F0A7FF002389A2FB213A
:102D30004FF49D7000E010E011F09EFF00238BA285
:102D4000E7214FF4CC7011F097FF002389A2FB21FB
:102D50004FF4CC7011F090FFCDE0012C2CD16FF02E
:102D60007F406549086065484860002383A2E721E9
:102D7000662011F081FF002382A2FB21662011F062
:102D80007BFF002381A2E721B62011F075FF00230D
:102D900080A2FB21B62011F06FFF00237FA2E72164
:102DA0004FF4D37011F068FF00237EA2FB214FF493
:102DB000D37011F061FF9EE0022C4DD1504890F885
:102DC000D50020B300234FA2E7211C2011F054FFAF
:102DD00000234EA2FB211C2011F04EFF002354A221
:102DE000E7217E2011F048FF002370A2FB217E2006
:102DF00011F042FF00236FA2E721DC2011F03CFF1D
:102E000000236AA2FB21DC2011F036FF73E00023CF
:102E10004AA2E7211C2011F02FFF002349A2FB2129
:102E20001C2011F029FF002350A2E7217E2011F081
:102E300023FF00234FA2FB217E2011F01DFF002362
:102E40005EA2E721DC2011F017FF002349A2FB213D
:102E5000DC2011F011FF4EE0032C4CD1284890F8F3
:102E6000D50020B3002327A2E7211C2011F004FF86
:102E7000002326A2FB211C2011F0FEFE002321A22C
:102E8000E7217E2011F0F8FE002348A2FB217E20DE
:102E900011F0F2FE002347A2E721DC2011F0ECFE46
:102EA000002342A2FB21DC2011F0E6FE23E00023F8
:102EB00022A2E7211C2011F0DFFE002321A2FB212A
:102EC0001C2011F0D9FE00231CA2E7217E2011F066
:102ED000D3FE002327A2FB217E2011F0CDFE00238C
:102EE00036A2E721DC2011F0C7FE002321A2FB213E
:102EF000DC2011F0C1FE10BD0401002038003100BB
:102F00001C1500204D45415300000000444953501A
:102F1000000000004241540054455354000000009A
:102F200044594E41000000004C4953540000000039
:102F30004C494D495400000053455400B2E2C1BF12
:102F400000000000CFD4CABE00000000B5E7B3D82F
:102F500000000000B2E2CAD400000000B6AFCCAC62
:102F600000000000C1D0B1ED00000000BCABCFDE1E
:102F700000000000C9E8D6C300000000CEC4BCFEBB
:102F800000000000B9DCC0ED00000000B1A3B4E611
:102F900000000000CAFDBEDD00000000B8FCB6E085
:102FA0000000000020322F3200000000534554552D
:102FB000500000002053595300000000CFB5CDB39E
:102FC0000000000011B581B06248007800285DD192
:102FD000009057E09DF804100098401C814204D1F5
:102FE0004FF47F005C49486003E04FF050105A49AD
:102FF000486000980A281FD2009800EB80008000EB
:103000001A3081B214235A22A02005F0FDFE534944
:10301000009A51F8220000230722042105F048FB02
:10302000009800EB800080001A3081B201234C4AE6
:10303000A02011F021FE22E000980A3800EB800069
:1030400080001A3081B214235A224FF4AF7005F079
:10305000DBFE4249009A51F8220000230722042196
:1030600005F026FB00980A3800EB800080001A303B
:1030700081B201233A4A4FF4AF7011F0FDFD009880
:10308000401C009000981028A4D33BE03148007801
:10309000012837D10020009031E09DF804100098FD
:1030A000401C814204D14FF47F002B49486003E06B
:1030B0004FF0501028494860009800EB80008000D5
:1030C0001A3081B214235A22A02005F09DFE234914
:1030D000009A103251F8220000230722042105F043
:1030E000E7FA009800EB800080001A3081B20123DB
:1030F0001B4AA02011F0C0FD0098401C00900098D1
:103100000928CAD34FF050101349486000F0E2FA82
:103110006FF07F401049086012484860124C02204E
:10312000009013E00099C1EBC1010A190099C1EBAD
:10313000011303EB4111202303EB410188B200236B
:10314000F12111F099FD0098401C0090009805288D
:10315000E8D31CBDC200002004010020281A002072
:103160003824002038003100F27201087CB5044692
:10317000012C00D100E000200090009820B14FF415
:103180007F00F849486003E04FF05010F54948606F
:1031900014235C221821762005F036FE6FF07F4064
:1031A000F0490860F04890F8D50060B9EE4890F812
:1031B0008000C0EBC000ED49421800231A217620A0
:1031C00011F05AFD0BE0E84890F88000C0EBC00019
:1031D000E749421800231A21762011F04DFD022CF8
:1031E00001D1012000E000200090009820B14FF4B0
:1031F0007F00DC49486003E04FF05010D949486037
:1032000014235C222E21762005F0FEFD6FF07F4016
:10321000D4490860D449D1F884000023072204214E
:1032200005F046FA0023D34A3021762011F024FD20
:103230000023D14A3021C82011F01EFD032C01D1FA
:10324000012000E000200090009820B14FF47F00A2
:10325000C449486003E04FF05010C249486014234D
:103260005C224421762005F0CFFD6FF07F40BD4900
:103270000860BD49D1F8880000230722042105F029
:1032800017FA0023BB4A4621762011F0F5FC0023F3
:10329000B94A4621C82011F0EFFC042C01D10120CD
:1032A00000E000200090009820B14FF47F00AD496D
:1032B000486003E04FF05010AA494860142364228C
:1032C0005A21762005F0A0FD6FF07F40A5490860E7
:1032D000A549D1F8940000230522042105F0E8F95E
:1032E0000023A44A5C21762011F0C6FC0023A24AE8
:1032F0001E325C21B22011F0BFFC052C01D101204F
:1033000000E000200090009820B14FF47F00954924
:10331000486003E04FF050109249486014235C224B
:103320001821900005F070FD6FF07F408D49086016
:103330008D4890F8D50068B98B4890F89000C0EBA4
:10334000C0008E49421800231A214FF4B87011F0C2
:1033500093FC0CE0844890F89000C0EBC0008849D2
:10336000421800231A214FF4B87011F085FC062C86
:1033700001D1012000E000200090009820B14FF41E
:103380007F007849486003E04FF05010754948606D
:10339000142370222E21C80005F036FD6FF07F4007
:1033A000704908607049D1F88C000023082201217F
:1033B00005F07EF900236F4A30214FF4B87011F008
:1033C0005BFC00236C4A2A3230214FF4E57011F087
:1033D00053FC072C01D1012000E000200090009850
:1033E00020B14FF47F005F49486003E04FF0501078
:1033F0005C4948601423702244214FF4B87005F0F2
:1034000003FD6FF07F40574908605749D1F89C0091
:1034100000230822012105F04BF90023554A4621DB
:103420004FF4B87011F028FC0023534A2A32462189
:103430004FF4E57011F020FC082C01D1012000E0D0
:1034400000200090009820B14FF47F00454948606B
:1034500003E04FF0501043494860142364225A217E
:103460004FF4B87005F0D0FC6FF07F403D49086024
:103470003D49D1F8980000230522042105F018F9F0
:1034800000233C4A5C21880011F0F6FB00233A4AF5
:103490001E325C214FF4D67011F0EEFB394890F8E3
:1034A0006D01002877D124B1012C06D0052C6ED1F6
:1034B0002DE00020FFF7BCFB6CE000F00BF96FF093
:1034C0007F402849086030484860274890F8D50078
:1034D00008B1274D00E0254D0020019013E001992F
:1034E000C1EBC1014A190199C1EB011303EB411171
:1034F000202303EB410188B20023F12111F0BCFB32
:103500000198401C019001980228E8D342E000F0A5
:10351000E1F86FF07F40134908601B48486012488B
:1035200090F8D50008B1164D00E0144D0020019030
:1035300013E00199C1EBC1014A190199C1EB0113D3
:1035400003EB4111202303EB410188B20023F12159
:1035500011F092FB0198401C019001980328E8D3D8
:1035600018E018E0040100201C150020D2730108A7
:103570004274010838240020666D0108187401089F
:103580002D740108181A002038003100FFE700F000
:10359000A1F800BF0EE000F09DF86FF07F400649F3
:1035A000086006484860002305A2F1214FF4CC7062
:1035B00011F062FB7CBD00000401002038003100E6
:1035C000C8B7C8CF0000000070B5FEF7E5FF6FF088
:1035D0007F402449086024484860244890F8D5007A
:1035E00008B1234E00E0234E002306F142020421DD
:1035F000184611F041FB6FF07F401A4908604FF008
:1036000050104860194890F8D50008B91A4D00E0EC
:103610001A4D002420E0042C0ED205EB041204EB1A
:10362000440000EBC4001A2303EB400081B20023E6
:10363000184611F021FB0EE005EB0412201F00EBF1
:10364000400303EBC0001A2303EB400081B20023C8
:10365000FA2011F011FB641C082CDCD30020FFF7CA
:10366000E7FA70BD040100200352F3001C1500208E
:10367000046F0108126E0108666C0108E66C01080F
:103680002DE9F84105468846144600261CE02078BE
:1036900000B91AE02078203800EB8000C00000EB71
:1036A0008000C700F81707EB5070094901EBE000F4
:1036B000A919009088B228231A46414606F0BCF8A2
:1036C000641C06F11C0086B2E1E700BFBDE8F8818A
:1036D0007EE8070810B500243CE0204820494860F7
:1036E000A1000A31C4EB041202EB420201EB4201D9
:1036F00088B22B235A22E42105F086FB1948184989
:1037000048605E2204FB02F10B3188B201235A2289
:10371000E32105F079FBC4EB041101EB44116422B1
:1037200002EB410188B22C230122E32105F06CFB5E
:1037300000200B494860C4EB041101EB44116422E2
:1037400002EB4101491C88B22C230322E32105F03E
:103750005BFB641C052CC0D310BD00003800310099
:10376000040100206843690010B504467F4890F8C2
:10377000D50000287ED1012C0DD17D487D494860BF
:103780004FF47F00086000237BA2CD214FF491709D
:1037900011F072FAE9E0022C0ED14FF05010754989
:1037A00048604FF47F000860002379A2CD214FF4D8
:1037B0009B7011F061FAD8E0032C0AD16C486D4976
:1037C000486014239622CD214FF49B7005F01CFB1A
:1037D000CBE0042C0BD14FF0501066494860142305
:1037E0009622CD214FF49B7005F00EFBBDE0052C19
:1037F0000ED14FF050105F4948604FF47F000860D1
:10380000002368A2CD214FF49B7011F035FAACE093
:10381000062C0DD15648574948604FF47F00086088
:10382000002365A2CD214FF49B7011F025FA9CE096
:10383000072C0ED14FF050104E4948604FF47F00D6
:10384000086000235CA2CD214FF49B7011F014FAA4
:103850008BE0082C9ED14648464948604FF47F00D3
:10386000086000234AA2CD214FF49B7011F004FAA6
:103870007BE0FFE7012C0CD13D483E4948604FF406
:103880007F000860002351A2CD21AA2011F0F4F995
:103890006BE0022C0ED14FF05010364948604FF4C7
:1038A0007F000860002351A2CD214FF48C7011F0ED
:1038B000E3F95AE0032C0AD12D482E49486014231D
:1038C0004FF48072CD21DA2005F09EFA4DE0042CF1
:1038D0000AD14FF05010274948601423A201CD218E
:1038E000DA2005F091FA40E0052C0ED14FF050108F
:1038F000204948604FF47F000860002341A2CD2199
:103900004FF48C7011F0B8F92FE0062C0DD1184847
:10391000184948604FF47F000860002339A2CD2188
:103920004FF48C7011F0A8F91FE0072C0ED14FF066
:103930005010104948604FF47F000860002331A206
:10394000CD214FF48C7011F097F90EE0082C0CD1BA
:103950000748084948604FF47F000860002323A20D
:10396000CD214FF48C7011F087F910BD1C1500208B
:103970006534340004010020C7EBD3C3CAFDD7D699
:10398000BCFCC5CCBBF2D0FDC5A5CAE4C8EB0000A9
:10399000C7EBD3C3CAFDD7D6BCFCC5CCCAE4C8EBC1
:1039A00000000000B0B4CFC2D0FDC5A5C7D0BBBBDE
:1039B000B2BDD6E800000000B0B4CFC2D0FDC5A5AE
:1039C000BFECCBD9D1A1D4F100000000496E7075D5
:1039D000742077697468206B6579626F6172642006
:1039E0006F7220656E636F6465722E00496E70752C
:1039F000742077697468206B6579626F6172642ED8
:103A00000000000050726573732074686520656E55
:103A1000636F6465722E20200000000070B502F014
:103A20000DFC6FF07F40234908602348486023481D
:103A300090F8D50008B1224E00E0224E002306F196
:103A400016020421184611F017F96FF07F4019494A
:103A500008604FF0501048601B4D002424E0022CF9
:103A600010D204EB840005EB400204EB440000EBB1
:103A7000C4001A2303EB400081B20023184611F062
:103A8000FBF810E004EB840005EB4002A01E00EB05
:103A9000400303EBC0001A2303EB400081B2002374
:103AA000FA2011F0E9F8641C032CD8D30020FFF7AA
:103AB000BFF870BD040100200352F3001C15002064
:103AC000046F0108126E0108F86901087CB505460B
:103AD000012D00D100E000200090009820B14FF4AB
:103AE0007F006849486003E04FF050106549486026
:103AF00014235C221821582005F086F96FF07F40CE
:103B0000604908606049C86C00230522032104F065
:103B1000CFFD00235D4A1A21582011F0ADF8022D87
:103B200001D1012000E000200090009820B14FF466
:103B30007F005449486003E04FF0501051494860FD
:103B40001423682218214FF4A97005F05DF96FF075
:103B50007F404C4908604C49486D002305220321F1
:103B600004F0A6FD0023494A1A214FF4A97011F070
:103B700083F8032D01D1012000E00020009000987F
:103B800020B14FF47F003F49486003E04FF05010F0
:103B90003C49486014235C222E21582005F034F95A
:103BA0006FF07F40374908603749086D00230522D0
:103BB000032104F07DFD0023344A3021582011F008
:103BC0005BF825B1012D06D0022D58D12DE0002043
:103BD000FFF72EF854E0FFF77DFD6FF07F40294995
:103BE00008602B484860284890F8D50008B1294C57
:103BF00000E0294C0020019013E00199C1EBC101C4
:103C00000A190199C1EB011303EB4111202303EBC6
:103C1000410188B20023F12111F02EF80198401CD7
:103C2000019001980528E8D32AE0FFF753FD6FF0D3
:103C30007F401449086016484860134890F8D50042
:103C400008B1164C00E0164C0020019013E00199D9
:103C5000C1EBC1010A190199C1EB011303EB411139
:103C6000202303EB410188B20023F12111F004F875
:103C70000198401C019001980028E8D000E000BFA6
:103C800000BF7CBD040100201C150020382400204A
:103C90003800310090720108C271010815750108E1
:103CA0000E75010870B502F0D1FA6FF07F402C4913
:103CB00008602C4848602C4890F8D50008B12B4E7D
:103CC00000E02B4E002306F184020421184610F078
:103CD000D3FF6FF07F40224908604FF050104860DA
:103CE000214890F8D50008B1224D00E0224D002473
:103CF0002FE0062C11D24FF050101949486004EB08
:103D0000840005EB4002162304FB03F01A3081B255
:103D10000023184610F0B0FF1AE0A01F022806D9B1
:103D2000082804D24FF050100D49486003E04FF0CE
:103D300050100B49486004EB840005EB4002A01FC3
:103D4000162358431A3081B20023FA2010F094FF52
:103D5000641C0B2CCDD30320FEF76AFF70BD00005E
:103D6000040100200352F3001C150020046F010819
:103D7000126E010854710108E670010810B502F0D6
:103D80002DFEFFF7A7FC10BD30B595B0054602F03B
:103D9000A9FF01222946684601F0B4F86C469DF857
:103DA00000008DF8380001980F9002981090039849
:103DB00011900498129005981390069814900F98FB
:103DC0004FF47A71B0FBF1F00F900B9818B9002006
:103DD000099008900A900F9815B030BD70B5FFF7A4
:103DE000CDFF6FF07F403D4908603D4848603D4849
:103DF00090F8D50008B13C4D00E03C4D002305F1A2
:103E00006E020421184610F037FF6FF07F403349EF
:103E100008604FF050104860002459E0032C2AD26B
:103E2000304890F8D500012810D1C4EB0410304B75
:103E3000C21804EB440000EBC4001A2303EB40005B
:103E400081B20023184610F017FF40E0254890F893
:103E5000D50030BBC4EB0410264BC21804EB440061
:103E600000EBC4001A2303EB400081B20023184684
:103E700010F002FF2BE01B4890F8D500012811D16B
:103E8000C4EB04101A4BC218E01E00EB400303EB16
:103E9000C0001A2303EB400081B20023FA2010F087
:103EA000EBFE14E00F4890F8D50080B9C4EB041085
:103EB000104BC218E01E00EB400303EBC0001A23B6
:103EC00003EB400081B20023FA2010F0D5FE641C01
:103ED000052CA3D30020FEF7ABFE70BD040100202B
:103EE0000352F3001C150020046F0108126E010834
:103EF00045720108FA71010810B5B048B049086070
:103F00004FF050104860AF4890F8D500F0B900234A
:103F1000ADA25E214FF4967010F0AEFE0023ABA26E
:103F20005E214FF4AF7010F0A7FEA94991F87D1003
:103F3000481C00230222194604F0BAFB0023A54ABC
:103F40005E214FF4A17010F097FE1BE09D4890F8A1
:103F5000D500012816D100239FA25E214FF4967050
:103F600010F08AFE9A4991F87D10481C0023022225
:103F7000194604F09DFB0023964A5E214FF4A97078
:103F800010F07AFE8F4890F8D50080B9904890F8EC
:103F90007D108C48E430405CC0EBC0009049421872
:103FA00000235E214FF4C87010F066FE14E08548CF
:103FB00090F8D50001280FD1854890F87D108148F0
:103FC000E430405CC0EBC0008649421800235E210B
:103FD0004FF4C87010F050FE7A4890F8D500E0B960
:103FE000002381A272214FF4967010F045FE002349
:103FF0007FA288214FF4967010F03EFE00237EA22F
:104000009E214FF4967010F037FE00237CA2B4215D
:104010004FF4967010F030FE20E06A4890F8D5001A
:1040200001281BD1002378A272214FF4967010F062
:1040300023FE002375A288214FF4967010F01CFE19
:10404000002373A29E214FF4967010F015FE0023FA
:1040500070A2B4214FF4967010F00EFE594890F8FB
:10406000210038BB5A480068642806D20023072282
:104070000421184604F01CFB06E0554900230722E2
:104080000868042104F014FB514900230722086842
:10409000042104F00DFB00234E4A72214FF4B4704A
:1040A00010F0EAFD002358A272214FF4DC7010F0EA
:1040B000E3FD24E0434890F8210001281FD1444843
:1040C0000068642806D2002306220321184604F063
:1040D000EFFA06E03E49002306220868032104F0B7
:1040E000E7FA00233B4A72214FF4B47010F0C4FD8C
:1040F000002345A272214FF4DC7010F0BDFD314861
:1041000090F82000A8B9324900230722486804210A
:1041100004F0CEFA00232F4A88214FF4B47010F037
:10412000ABFD00233DA288214FF4DC7010F0A4FD0C
:1041300019E0244890F82000012814D124490023D4
:1041400006224868032104F0B3FA0023214A88219B
:104150004FF4B47010F090FD002330A288214FF48A
:10416000DC7010F089FD1A4900230722C86803217A
:1041700004F09EFA0023174A9E214FF4B47010F009
:104180007BFD002326A29E214FF4DC7010F074FD0D
:104190000F4900230422D1F88000012104F088FA9D
:1041A00000230C4AB421480010F066FD00231DA234
:1041B000B4214FF4DC7010F05FFD10BD00FFFF0074
:1041C000040100201C150020B5DA0000B2BD00007B
:1041D000181A002038240020537465700000000075
:1041E00051790108BA790108B5E7D1B9000000009A
:1041F000B5E7C1F700000000B9A6C2CA0000000080
:10420000CAB1BCE4000000005600000049000000F4
:104210005000000054494D450000000041000000DE
:1042200057000000730000002DE9F0410546012D04
:1042300000D100E00020064626B14FF47F00FD4982
:10424000486003E04FF05010FA49486014235C22A4
:104250001821762004F0D8FD6FF07F40F549086002
:10426000F54991F8D60000230322194604F020FAFC
:104270000023F24A1A21762010F0FEFC022D01D113
:10428000012000E00020064626B14FF47F00E949F6
:10429000486003E04FF05010E649486014235C2268
:1042A0002E21762004F0B0FD6FF07F40E1490860D8
:1042B000E14890F8D50060B9DF4890F8D700C0EB2E
:1042C000C000DF49421800233021762010F0D4FCD2
:1042D0000BE0D94890F8D700C0EBC000D94942188C
:1042E00000233021762010F0C7FC032D01D10120DE
:1042F00000E00020064626B14FF47F00CD4948601B
:1043000003E04FF05010CB49486014235C22442155
:10431000762004F079FDC849D1F8E0000023072297
:10432000042104F0C5F96FF07F40C2490860002302
:10433000C24A4621762010F09FFC0023C24A462143
:10434000C82010F099FC042D01D1012000E00020CC
:10435000064626B14FF47F00B649486003E04FF0AF
:104360005010B449486014235C221821900004F0D6
:104370004BFD6FF07F40AF490860AF4890F8D50023
:1043800068B9AD4890F8D900C0EBC000AF494218F9
:1043900000231A214FF4B87010F06EFC0CE0A64810
:1043A00090F8D900C0EBC000A949421800231A2197
:1043B0004FF4B87010F060FC052D01D1012000E031
:1043C0000020064626B14FF47F009A49486003E07A
:1043D0004FF050109749486014235C222E21C800EA
:1043E00004F012FD6FF07F40924908609249D1F8C5
:1043F000DC0000230722042104F05AF900238F4A2D
:1044000030214FF4B87010F037FC00238E4A302171
:104410004FF4E17010F030FC062D01D1012000E0D6
:104420000020064626B14FF47F008249486003E031
:104430004FF050107F494860102350225E21002029
:1044400004F0E2FC6FF07F407A4908607A4890F807
:10445000D500D8B900237FA25E21184610F00CFCCD
:1044600000237DA25E21322010F006FC7B4991F8EA
:104470007C10481C00230222194604F019F900237D
:104480006E4A5E21162010F0F7FB19E06A4890F89A
:10449000D500012814D1002371A25E21184610F026
:1044A000EBFB6E4991F87C10481C00230222194650
:1044B00004F0FEF80023614A5E21262010F0DCFBA8
:1044C000072D01D1012000E00020064626B14FF45F
:1044D0007F005849486003E04FF05010554948604C
:1044E000102350225E21642004F08EFC524890F884
:1044F000D50078B9594890F87C104F48E430405CBA
:10450000C0EBC0005849421800235E21642010F01F
:10451000B3FB13E0484890F8D50001280ED14F486E
:1045200090F87C104448E430405CC0EBC0004F4938
:10453000421800235E21642010F09EFB4FF05010C3
:104540003C494860454890F87C103B48E430405C6A
:1045500004286ED0384890F8D500F0B9002344A262
:104560007221184610F088FB002344A288211846C7
:1045700010F082FB002343A29E21184610F07CFB22
:10458000002343A2B421184610F076FB002342A278
:10459000CA21184610F070FB22E0274890F8D50099
:1045A00001281DD100233EA27221184610F064FBA1
:1045B00000233DA28821184610F05EFB00233CA298
:1045C0009E21184610F058FB00233BA2B421184648
:1045D00010F052FB00233AA2CA21184610F04CFBFF
:1045E000122314227021C82004F00EFC122314227E
:1045F000B221C82004F008FC12231422C821084666
:1046000004F002FC154890F87C100B48E430405C44
:1046100000EB40000C49891F01EB4002002372218E
:10462000C82010F029FB0D4890F87C102548405C0C
:104630004AE069E1040100201C1500203824002014
:10464000277901083C7901086C6D0108E0730108C5
:104650000A740108B5DA0000B2BD0000181A002083
:10466000537465700000000051790108BA7901089F
:10467000B8BAD4D8B4F3D0A100000000CAB1BCE4E9
:1046800000000000B1C8BDCFC0E0D0CD00000000E8
:10469000C9CFCFDE00000000CFC2CFDE0000000097
:1046A0004C4F41440000000054696D65000000005B
:1046B000436F6D70000000004869676800000000EB
:1046C0004C6F77006A16002000EB4000FE4901EBBA
:1046D00040020023B421C82010F0CEFAFB4890F825
:1046E0007C10FB48405C00EB4000F74901EB4002C6
:1046F0000023CA21C82010F0BFFA0023F5A28821A8
:10470000C82010F0B9FA082D01D1012000E00020E6
:10471000064626B14FF47F00EF49486003E04FF0B2
:104720005010ED49486014235C227021642004F08D
:104730006BFB6FF07F40E8490860E44890F87C101C
:10474000E3486A38405C02280CD1E04991F87C20AB
:10475000DF495A3951F8220000230722012103F0D2
:10476000A7FF0BE0D94991F87C20D9495A3951F873
:10477000220000230822042103F09AFF0023D74AD5
:104780007221642010F078FA092D01D1012000E097
:104790000020064626B14FF47F00CF49486003E071
:1047A0004FF05010CC49486014235C2286216420CD
:1047B00004F02AFB6FF07F40C7490860C34991F8B5
:1047C0007C20C3491E3931F8120000230422012144
:1047D00003F06EFF0023C14A8821642010F04CFAD8
:1047E0000A2D01D1012000E00020064626B14FF439
:1047F0007F00B949486003E04FF05010B649486067
:1048000014235C229C21642004F0FEFA6FF07F40A8
:10481000B1490860B24890F8D50070B9AB4890F83B
:104820007C10AB48405CC0EBC000AE49421800238E
:104830009E21642010F020FA0DE0A44890F87C102E
:10484000A348405C00EBC000A749421800239E210A
:10485000642010F011FA0B2D01D1012000E000209E
:10486000064626B14FF47F009B49486003E04FF0B5
:1048700050109949486014235C22B221642004F04E
:10488000C3FA6FF07F4094490860904991F87C200A
:104890008F49123151F8220000230722042103F02E
:1048A00007FF00238D4AB421642010F0E5F90C2D98
:1048B00001D1012000E00020064626B14FF47F0020
:1048C0008549486003E04FF0501083494860142345
:1048D0005C22C821642004F097FA6FF07F407E4983
:1048E00008607A4991F87C2079494E3151F82200CC
:1048F00000230722042103F0DBFE0023774ACA21AC
:10490000642010F0B9F996E1704890F87C10704876
:104910006A38405C0428F6D1714890F8D50018BB7D
:104920000023AFF2B4227221184610F0A5F900233B
:10493000AFF2B8228821184610F09EF90023AFF29A
:10494000BC229E21184610F097F90023AFF2C02236
:10495000B421184610F090F90023AFF2C422CA2106
:10496000184610F089F927E05D4890F8D500012835
:1049700022D10023AFF2D8227221184610F07CF920
:104980000023AFF2DC228821184610F075F90023CD
:10499000AFF2E4229E21184610F06EF90023AFF228
:1049A000E822B421184610F067F90023AFF2F02294
:1049B000CA21184610F060F9122314227021C82071
:1049C00004F022FA12231422B221C82004F01CFAA7
:1049D00012231422C821084604F016FA00233DA22F
:1049E0008821C82010F048F9072D01D1012000E0EE
:1049F0000020064626B14FF47F003749486003E0A7
:104A00004FF0501034494860304991F87C203049CB
:104A10005A3951F8220000230722042103F048FEEE
:104A200014235C227021642004F0EEF900232B4A49
:104A30007221642010F020F9082D01D1012000E03E
:104A40000020064626B14FF47F002349486003E06A
:104A50004FF050102049486014235C2270216420DC
:104A600004F0D2F96FF07F401B490860174991F8B4
:104A70007C2017495A3951F82200002307220421CB
:104A800003F016FE0023154A7221642010F0F4F89A
:104A9000092D01D1012000E00020064626B14FF487
:104AA0007F000D49486003E04FF050100A4948600C
:104AB00014235C228621642004F0A6F96FF07F4065
:104AC00005490860014911E0966D0108181A002097
:104AD0006A16002073000000040100203824002022
:104AE0001C150020DD7901083F7A010891F87C202F
:104AF000E14931F8120000230422012103F0D8FD1E
:104B00000023DE4A8821642010F0B6F80A2D01D176
:104B1000012000E00020064626B14FF47F00D8496E
:104B2000486003E04FF05010D549486014235C22E0
:104B30009C21642004F068F96FF07F40D049086040
:104B4000D04890F8D50078B9CF4890F87C10CA4882
:104B50001E30405CC0EBC000CC49421800239E21AF
:104B6000642010F089F80EE0C74890F87C10C24825
:104B70001E30405C00EBC000C549421800239E2156
:104B8000642010F079F80B2D01D1012000E0002005
:104B9000064626B14FF47F00B949486003E04FF064
:104BA0005010B749486014235C22B221642004F0FD
:104BB0002BF96FF07F40B2490860B34991F87C202F
:104BC000AD49303151F8220000230722042103F0BF
:104BD0006FFD0023A94AB421642010F04DF80C2D7C
:104BE00001D1012000E00020064626B14FF47F00ED
:104BF000A349486003E04FF05010A14948601423D6
:104C00005C22C821642004F0FFF86FF07F409C49CB
:104C100008609D4991F87C2097496C3151F8220039
:104C200000230722042103F043FD0023934ACA21F5
:104C3000642010F021F80D2D1CD2DFE805F01B07D1
:104C4000141B15081016090A170B0C0000BF00BF33
:104C500000BF00BF00BF0220FEF786FD0EE005206A
:104C6000FEF782FD0AE000BF00BF00BF0720FEF78D
:104C70007BFD03E00420FEF777FD00BF00BF824804
:104C800090F86D0100286ED1FEF724FD8148007870
:104C9000002869D1042D31D003DC3DB1022D77D13C
:104CA00008E0072D4ED00A2D72D172E00020FDF7EA
:104CB000BFFFA7E0FEF70EFD6FF07F407049086070
:104CC000754848606F4890F8D50008B1734F00E010
:104CD000734F00240FE0C4EBC401CA19C4EB0411E4
:104CE00001EB4411202303EB410188B20023F121A1
:104CF0000FF0C2FF641C032CEDD383E0FEF7EAFC47
:104D00006FF07F405E490860634848605D4890F8F6
:104D1000D50008B1634F00E0634F00240FE0C4EBFF
:104D2000C401CA19C4EB041101EB4411202303EBA5
:104D3000410188B20023F1210FF09EFF641C022C78
:104D4000EDD35FE0FEF7C6FC6FF07F404C49086092
:104D5000514848604B4890F8D50008B1534F00E0E7
:104D6000534F002411E076E04DE0C4EBC401CA19B2
:104D7000C4EB041101EB4411202303EB410188B281
:104D80000023F1210FF078FF641C052CEDD339E0EE
:104D900037E0FEF79FFC6FF07F40394908603E48DE
:104DA0004860384890F8D500A8B1002410E004EB22
:104DB000C401374BCA18C4EB041101EB4411202382
:104DC00003EB410188B20023F1210FF055FF641C71
:104DD000042CECD314E0002410E0C4EBC4012B4BF2
:104DE000CA18C4EB041101EB4411202303EB410169
:104DF00088B20023F1210FF03FFF641C042CECD398
:104E000000E000BF36E023480078012832D1FEF7E9
:104E100061FC6FF07F401A4908601F4848601948DC
:104E200090F8D50008B1234F00E0234F00240FE095
:104E3000C4EBC401CA19C4EB041101EB44112023D3
:104E400003EB410188B20023F1210FF015FF641C30
:104E5000052CEDD30EE0FEF73DFC6FF07F400849D6
:104E600008600D484860002314A2F1214FF4CC7073
:104E70000FF002FFBDE8F0814C160020382400201E
:104E8000040100201C150020181A0020DD790108FB
:104E90003F7A010833000020380031003C790108D6
:104EA000277901080A740108E0730108BA7901083A
:104EB000517901081C7A0108F9790108C8B7C8CFEF
:104EC0000000000010B5054805494860962340F2EF
:104ED000DF124C21002003F097FF10BD6534340031
:104EE0000401002010B5054805494860742340F2CC
:104EF000DF126E21002003F087FF10BD65343400FF
:104F0000040100202DE9F04192B005460E461746F7
:104F100001201190F94800780D9001200B9000209D
:104F20000A900990089007900290019003900190D8
:104F30000C9009E020200EA99DF8302088549DF89F
:104F40003000401CC0B20C909DF830000828F1DB06
:104F500000208DF840000FB1082400E00624AFE1E6
:104F6000B8F1010F03D103F0B1FD0D9001E04FF056
:104F700001089DF8340000287ED001200B909DF898
:104F80003400202879D2DFE800F0788291A0F2780E
:104F9000CDBEAFDCF3F0EFEEED787F7E57331078C7
:104FA00078EC78808178787878EB00200390119005
:104FB0009DF81C00A04218DA9DF82800A8B99DF8B9
:104FC0001C0000280CDD2E200EA99DF81C20885402
:104FD0009DF81C0009909DF81C00401CC0B2079071
:104FE0009DF82800401CC0B20A90012004904CE1BA
:104FF00001200390002011909DF81C00A04218DAB7
:105000009DF82800A8B99DF81C0000280CDD2E2072
:105010000EA99DF81C2088549DF81C0009909DF84D
:105020001C00401CC0B207909DF82800401CC0B274
:105030000A900120049028E10220039000201190A2
:105040009DF81C00A0421BDA9DF82800C0B99DF80D
:105050001C0000280CDD2E200EA99DF81C20885471
:105060009DF81C0009909DF81C00401CC0B20790E0
:105070009DF82800401C01E008E105E1C0B20A905B
:105080000120049001E100E1FFE0FEE0FDE09DF879
:105090001C00A04209DA31200EA99DF81C2088547A
:1050A0009DF81C00401CC0B20790EEE09DF81C006B
:1050B000A04209DA32200EA99DF81C2088549DF8E0
:1050C0001C00401CC0B20790DFE09DF81C00A0420D
:1050D00009DA33200EA99DF81C2088549DF81C0085
:1050E000401CC0B20790D0E09DF81C00A04209DA35
:1050F00034200EA99DF81C2088549DF81C00401CEB
:10510000C0B20790C1E09DF81C00A04209DA35202A
:105110000EA99DF81C2088549DF81C00401CC0B2AC
:105120000790B2E09DF81C00A04209DA36200EA9D3
:105130009DF81C2088549DF81C00401CC0B20790AC
:10514000A3E09DF81C00A04209DA37200EA99DF8C3
:105150001C2088549DF81C00401CC0B2079094E0AD
:105160006EE06CE022E030E051E010E000E068E04A
:105170009DF81C00A04209DA38200EA99DF81C20D9
:1051800088549DF81C00401CC0B207907DE09DF83B
:105190001C00A04209DA39200EA99DF81C20885471
:1051A0009DF81C00401CC0B207906EE09DF81C00EA
:1051B000A04209DA30200EA99DF81C2088549DF8E1
:1051C0001C00401CC0B207905FE09DF81C00A0428C
:1051D0001CDA9DF81C00002818DD9DF82800A8B9ED
:1051E0009DF81C0000280CDD2E200EA99DF81C2027
:1051F00088549DF81C0009909DF81C00401CC0B20A
:1052000007909DF82800401CC0B20A903DE09DF830
:105210001C00002812DD9DF81C00401EC0B2079043
:1052200020200EA99DF81C2088549DF824009DF88C
:105230001C10884202D100200A90099025E024E049
:1052400023E00020039011909DF81C00A04218DA82
:105250009DF82800A8B99DF81C0000280CDD2E2020
:105260000EA99DF81C2088549DF81C0009909DF8FB
:105270001C00401CC0B207909DF82800401CC0B222
:105280000A900120049000E000BF00BF9DF82C00B0
:10529000B0B100200B906FF07F40194908604FF4C7
:1052A0007F004860B38810339AB271883088122327
:1052B00003F0AAFD7188308800230EAA0FF0DCFCF1
:1052C0009DF8440000287FF44BAE9DF81C000C9024
:1052D00009E030200EA99DF8302088549DF8300058
:1052E000401CC0B20C909DF830109DF82400401D69
:1052F0008142EEDB00200C903EE00000BF00002069
:10530000040100209DF83800302830DB9DF838007B
:1053100039282CDC0EA89DF83010405C302826DBA4
:105320000EA89DF83010405C392820DC9DF8240040
:105330009DF8301088420DDD019800EB80004000A0
:10534000019001990EA89DF83020805C3038084407
:1053500001900CE0019800EB800040000190019961
:105360000EA89DF83020805C3038084401909DF8EC
:105370003000401CC0B20C909DF830109DF8240005
:10538000401D8142BEDB9DF8240002909DF8000084
:105390002870019868600298A8600398E8600498F3
:1053A0002861059868610698A86112B0BDE8F0818F
:1053B0002DE9F041074688466FF07F40FE490860BE
:1053C0004FF050104860FD4890F86B0150B9FC4810
:1053D00090F8D600052803DCF94890F8D6501DE077
:1053E00005251BE0F54890F86B0101280CD1F44825
:1053F00090F8D6000A2805DCF14890F8D600401F46
:10540000C5B20BE0052509E0EC4890F86B010228D5
:1054100004D1EB4890F8D6000A38C5B2CA2340F24E
:10542000DF125E21002003F0EFFC4FF050116FF00F
:105430007F4004F047F96FF07F40DF494860C5F1D5
:10544000040000EB400101EBC000CA21A1EB4000C9
:105450005D3883B201225E21002003F0D5FCC5F146
:10546000040000EB400101EBC000CA21A1EB4000A9
:105470005D3883B201225E21282003F0C5FCC5F10E
:10548000040000EB400101EBC000CA21A1EB400089
:105490005D3883B201225E21782003F0B5FC01243F
:1054A00015E0C5F1040101EB410202EBC101CA2282
:1054B000A2EB41015D398BB2642204FB02F101F1E0
:1054C000780001225E2103F09FFC601CC4B2042C12
:1054D000E7DB00240CE0162204FB02F000F15E0181
:1054E000012340F2DF12002003F08EFC601CC4B2E6
:1054F000A81C8442EFDB4FF05010AF494860B04821
:1055000090F8D500012826D10023AEA26121032006
:105510000FF0B2FB0023ACA261213F200FF0ACFBE7
:105520000023ABA2612199200FF0A6FB0023A9A2C2
:105530006121FD200FF0A0FB0023A7A2612140F212
:1055400061100FF099FB0023A4A2612140F2B11079
:105550000FF092FB29E09A4890F8D50028BB002371
:105560009FA2612103200FF087FB00239EA26121EF
:105570003F200FF081FB00239DA2612199200FF0B5
:105580007BFB00239CA26121FD200FF075FB002313
:105590009BA2612140F261100FF06EFB00239AA2E2
:1055A000612140F2B1100FF067FBFEF793F86FF046
:1055B0007F408149086096484860814890F8D5004E
:1055C00008B1944E00E0944E00240FE0C4EBC401F7
:1055D0008A19C4EB041101EB4411202303EB4100B1
:1055E0000023F1210FF048FB601CC4B2052CEDDB59
:1055F000002476E14FF050106F4948606F4991F8F0
:105600006B1101EB81012144481C00230222194641
:1056100003F04EF8162204FB02F000F1770100239C
:105620007E4A03200FF028FB644890F86B0100EBE2
:10563000800003196248E430C05CC0EBC000784BC6
:10564000C218162304FB03F000F177010023352074
:105650000FF012FB594890F86B0100EB8000011924
:1056600056488430405C6F4951F820005249086028
:10567000524890F86B0100EB800001196A48405CC9
:10568000C8B94E4991F86B1101EB81010A194B49D8
:10569000943151F8220000230722042103F008F876
:1056A000162204FB02F000F1770100235B4A7B2005
:1056B0000FF0E2FA22E0414890F86B0100EB800025
:1056C00001195948405C012818D13C4991F86B11E7
:1056D00001EB81010A193949943151F82200002364
:1056E0000622032102F0E4FF162204FB02F000F17F
:1056F00077010023494A7B200FF0BEFA2F4890F82B
:105700006B0100EB800001192C488430405C474954
:1057100051F8200028490860284890F86B0100EBF8
:105720008000011940480F30405CC8B9234991F806
:105730006B1101EB81010A193B49783951F82200BC
:1057400000230722042102F0B3FF162204FB02F01B
:1057500000F177010023314ADF200FF08DFA23E0BA
:10576000164890F86B0100EB800001192E480F30AD
:10577000405C012818D1114991F86B1101EB8101AE
:105780000A192949783951F82200002306220321F9
:1057900002F08EFF162204FB02F000F177010023D5
:1057A0001E4ADF200FF068FA044890F86B0100EB06
:1057B0008000011901483BE004010020181A002074
:1057C0001C1500204E4F00004D4F444500000000C6
:1057D00056000000490000005000000052455300F0
:1057E000D0F2BAC500000000CFEEC4BF0000000038
:1057F000B5E7D1B900000000B5E7C1F7000000002F
:10580000B9A6C2CA00000000BDE1B9FB000000005B
:10581000380031001C7A0108F97901083824002089
:105820005179010850680108601B00204068010898
:105830008430405C2D4951F820002D4908602D49E5
:1058400091F86B1101EB81010A192B4951F82200E3
:1058500000230722032102F02BFF162204FB02F093
:1058600000F177010023254A40F243100FF004FABB
:105870006FF07F401E490860214890F8D500B8B904
:105880001C4890F86B0100EB800003191948843024
:10589000C05CC0EBC0001B4BC218162304FB03F016
:1058A00000F17701002340F2A7100FF0E5F916E0B0
:1058B000104890F86B0100EB800003190D4884300C
:1058C000C05CC0EBC000104BC218162304FB03F0F1
:1058D00000F17701002340F2A7100FF0CDF9601C12
:1058E000C4B2AC42FFF686AEBDE8F0816068010844
:1058F00004010020181A0020241B00203824002056
:105900001C150020747901089779010830B595B00D
:105910000546012229466846FFF7F4FA6C469DF8D1
:1059200000008DF8380001980F90029810900398AD
:1059300011900498129005981390069814900F985F
:1059400042F21071B0FBF1F00F900F98FF2801D9CF
:10595000FF200F900B9818B90020099008900A902A
:105960000F9815B030BD30B595B0054601F02CF953
:10597000012229466846FFF7C5FA6C469DF80000EB
:105980008DF8380001980F900298109003981190AC
:105990000498129005981390069814900B9818B9D3
:1059A0000020099008900A900F9815B030BD30B5CE
:1059B00095B0054601F04CF9012229466846FFF7EB
:1059C000A1FA6C469DF800008DF8380001980F9000
:1059D00002981090039811900498129005981390D3
:1059E000069814900B9818B90020099008900A9016
:1059F0000F9815B030BD30B595B0054601F05CF993
:105A0000012229466846FFF77DFA6C469DF80000A2
:105A10008DF8380001980F9002981090039811901B
:105A20000498129005981390069814900F984FF4CC
:105A30007A71B0FBF1F00F900B9818B90020099023
:105A400008900A900F9815B030BD30B595B0054656
:105A500001F0E6F8012229466846FFF753FA6C4642
:105A60009DF800008DF8380001980F900298109072
:105A7000039811900498129005981390069814902A
:105A80000F9842F21071B0FBF1F00F900B9818B91B
:105A90000020099008900A900F9815B030BD30B5DD
:105AA00095B0054601F0A6F8012229466846FFF7A1
:105AB00029FA6C469DF800008DF8380001980F9087
:105AC00002981090039811900498129005981390E2
:105AD000069814900F984FF47A71B0FBF1F00F9084
