:020000040800F2
:1000000060920020C101000821970008776F000866
:10001000BD9600089D120008411E01080000000066
:10002000000000000000000000000000D5B700083C
:10003000A514000800000000FD9B000845CF000843
:10004000DB010008DB010008DB01000821A6000835
:10005000DB010008DB010008DB010008DB01000810
:10006000DB0100080D620008DB010008DB0100086D
:10007000DB010008DB010008DB010008DB010008F0
:10008000DB010008DB010008DB010008DB010008E0
:10009000DB010008DB010008DB010008DB010008D0
:1000A000DB010008DB010008DB010008DB010008C0
:1000B000ABD10008DB010008DB010008DB01000810
:1000C000DB010008DB010008DB010008DB010008A0
:1000D000DB01000889E40008DB010008DB010008FF
:1000E000F5610008DB010008DB010008DB01000806
:1000F000DB010008DB010008DB010008DB01000870
:10010000DB010008DB010008DB010008DB0100085F
:10011000DB010008DB010008C1D10008DB01000899
:10012000DB010008DB010008DB010008DB0100083F
:10013000DB010008DB010008DB010008DB0100082F
:10014000DB010008DB010008DB010008DB0100081F
:10015000DB010008DB010008DB010008DB0100080F
:10016000DB010008DB010008DB010008DB010008FF
:10017000DB010008ED970008DB010008DB01000847
:10018000DB010008DB010008DB010008DB010008DF
:10019000DB010008DB010008DB010008DB010008CF
:1001A000DB010008DB010008DB010008DFF80CD0F0
:1001B00000F0F6FA00480047A541010860920020CF
:1001C0000648804706480047FEE7FEE7FEE7FEE7F1
:1001D000FEE7FEE7FEE7FEE7FEE7FEE721D00008C8
:1001E000AD01000840EA01039B0703D009E008C9FC
:1001F000121F08C0042AFAD203E011F8013B00F8EC
:10020000013B521EF9D27047D2B201E000F8012B37
:10021000491EFBD270470022F6E710B513460A4686
:1002200004461946FFF7F0FF204610BD10B5002226
:1002300000E0521C835C8C5CA34201D1002BF8D1FE
:10024000D8B2E1B2401A10BD2DE9FE4F804681EAD6
:100250000300C00F0C46009021F0004123F0004540
:10026000B8EB0200A94105D24046214690461C4603
:100270000B46024623F00040104347D0270DC7F33A
:100280000A00C3F30A510290401A019040286BDA29
:10029000C3F3130040F4801B0098924620B1002362
:1002A000D2EB030A63EB0B0B01985946C0F14002F5
:1002B000504600F0CFF906460D4650465946019A81
:1002C00000F0E7F910EB08006141002487EA1152C1
:1002D00084EAE7731A4340D0009A62B3019A012A74
:1002E0004FEA075215DC001B61EB02014FF00042A0
:1002F00002EA0752CDE90042001C41F58011324666
:100300002B4600F0E7F903B0BDE8F08F40462146E8
:10031000F9E7001B61EB0201001C41F58013001896
:100320005B412018A2F5001747EB030140EAD570A6
:10033000B6196D4111E06D084FEA360645EAC07501
:100340004FEA0752001B61EB0201001C41F58011CE
:1003500049084FEA30000019514132462B4603B09C
:10036000BDE8F04F00F0A7B900980122400000233B
:10037000D0EB020263EBE073009821464FEAE07491
:10038000B8EB000061EB0401E9E783F000435BE7B1
:1003900081F0004158E72DE9FE4F81EA030404F0A3
:1003A000004421F0004100944FF0000B23F0004383
:1003B00050EA01045ED052EA03045BD0C3F30A544E
:1003C000C1F30A552C44A4F2F3340194A0FB025467
:1003D000C1F3130141F48011C3F3130343F48013F9
:1003E00001FB024400FB034E840A970A44EA81544D
:1003F00047EA8357A4FB076802958D0A05FB07852A
:100400004FEA932C04FB0C542705029D4FEA065833
:1004100047EA1637B5EB08056EEB070C870E920E10
:1004200047EA811742EA8312A7FB0201B6EB0B01F0
:1004300064EB00042B0D43EA0C335E1844EB1C50B4
:10044000DA465146E7FB0201C5F313044FEA0B33CA
:1004500043EA14534FEA0432019C43EA0603A4F131
:100460000C040294009CCDE900B400F033F903B011
:10047000BDE8F08F00200146F9E72DE9F04D81EA53
:10048000030404F0004B21F0004514464FF0000A2D
:1004900023F0004150EA050220D054EA01021DD0A9
:1004A000C5F30A570246C5F31303C1F31300C1F3A2
:1004B0000A5640F4801543F48013A7EB0608101B7E
:1004C000D64608F2FD3873EB050002D308F10108A7
:1004D00001E092185B41B8F1000F03DA00200146F9
:1004E000BDE8F08D00204FF48011064684460EE0F2
:1004F000171B73EB050705D3121B63EB05030643BC
:100500004CEA010C49084FEA300092185B4150EA6E
:100510000107EDD152EA030012D082EA040083EA17
:100520000501084305D0101BAB4106D20122002370
:1005300006E000224FF0004302E06FF0010253108A
:100540001AEB06004CEB085110EB0A0041EB0B01D3
:10055000BDE8F04D00F0AFB80EB5C10F80EAE07015
:100560000844CA07002140F233438DE80E000A46D2
:100570000B4600F0AFF803B000BD0EB540F23341BA
:1005800002910021CDE900110A460B4600F0A2F8C5
:1005900003B000BDC1F30A5210B5C1F3130140F21C
:1005A000FF3341F480119A4201DA002010BD40F27D
:1005B00033439A42A2F2334203DC524200F059F82C
:1005C00010BD904010BD000030B5041E71F1000454
:1005D00004DB4FF00044404264EB0101141E73F150
:1005E000000405DB1C464FF00043524263EB04035A
:1005F0008B4208BF824230BD30B5041E71F1000449
:1006000004DB4FF00044404264EB0101141E73F11F
:10061000000405DB1C464FF00043524263EB040329
:10062000994208BF904230BD30B50B4601460020CC
:100630002022012409E021FA02F59D4205D303FAA4
:1006400002F5491B04FA02F52844151EA2F1010225
:10065000F1DC30BD202A04DB203A00FA02F1002050
:1006600070479140C2F1200320FA03F319439040F0
:100670007047202A04DB203A21FA02F0002170475B
:1006800021FA02F3D040C2F12002914008431946FA
:100690007047202A06DBCB17203A41FA02F043EAE2
:1006A000E07306E041FA02F3D040C2F1200291402B
:1006B00008431946704710B5141E73F1000408DA98
:1006C000401C41F1000192185B411A4301D120F016
:1006D000010010BD2DE9F04D92469B4611B1B1FAD3
:1006E00081F202E0B0FA80F220329046FFF7B2FFCA
:1006F00004460F4640EA0A0041EA0B0153465A46B7
:10070000084313D0114653EA010019D0C8F1400242
:100710005046FFF7AEFF05460E4650465946424644
:10072000FFF798FF084305D0012004E02046394632
:10073000BDE8F08D0020054346EAE0762C433743C0
:100740000A986305E40AA0EB08000022FD0A44EAC7
:1007500047540A3002D500200146E9E70105101987
:100760006941DDE9084500196941BDE8F04DA2E79E
:1007700070B521F0004303430CD0C1F30A550024A7
:10078000D5EB040564EB0403D617AD1AB34102DBC5
:100790000020014670BD201841EB025170BD0000E1
:1007A000064C074D06E0E06840F0010394E80700BE
:1007B00098471034AC42F6D3FFF7FCFCC02F020878
:1007C000E02F02082DE9F04D00231A461B1A8A413A
:1007D00003DB00200146BDE8F08DC1F30A52C1F3EE
:1007E000130141F480154FF0000BD10702D100181E
:1007F0006D41521E0027044640F2FF11384601EBBE
:10080000620A3E468046024600204FF48011FFF700
:1008100030FFC2197141BB1846EB0100B4EB030C69
:1008200075EB000C04D3E41A65EB000517460E4681
:10083000241908F101006D4180463428E3DDF919DF
:1008400046EB0600091BA84103D24FF0FF321346C6
:1008500001E0002213461BEB070046EB0A51BDE8FE
:10086000F04DFFF728BF70B58C1810F8015B15F03C
:10087000070301D110F8013B2A1106D110F8012B12
:1008800003E010F8016B01F8016B5B1EF9D12B0737
:1008900005D40023521E0DD401F8013BFAE710F8ED
:1008A000013BCB1A921C03E013F8015B01F8015BDA
:1008B000521EF9D5A142D8D3002070BD70B50546AF
:1008C0000C4608480560204600F00EF800BF0548B9
:1008D00000680028FBD100214FF080400CF05FFF42
:1008E00070BD0000880100203EB5044600214FF095
:1008F00080400CF054FF0022012188070DF096F88B
:10090000022C02D10B20019004E0012C02D142F60E
:10091000DF6001900520ADF800000020ADF8080070
:10092000ADF8020069464FF080400DF0D5F8012186
:1009300088070CF031FF012188070CF01EFF01220F
:10094000114690070DF072F8012188070CF027FF7F
:100950003EBD000010B5C8211448FFF75CFC012023
:100960001249087006204870002088700D20C87059
:1009700000200871487188710D4890F85800C871BE
:1009800008210A4806F0F9FA0012084908720821FD
:10099000064806F0F2FA054948720A21034811F0A8
:1009A00051FA01200349087010BD000000430020E7
:1009B000BC1300203C01002070B504460D46594888
:1009C000594948602CBB59480068642806D2002366
:1009D00007220421184606F00DFB06E053490023C8
:1009E00007220868042106F005FB5049002307226E
:1009F0000868042106F0FEFA00234D4A82215020A7
:100A000011F0B4FD00234BA28221A02011F0AEFD15
:100A10001FE0012C1DD145480068642806D2002340
:100A200006220321184606F0E5FA06E03F490023B6
:100A300006220868032106F0DDFA00233C4A8221E1
:100A4000502011F093FD00233AA28221A02011F042
:100A50008DFD9DB93549002307224868042106F021
:100A6000C9FA0023324AA021502011F07FFD002353
:100A700031A2A021084611F079FD14E0012D12D118
:100A80002A49002306224868032106F0B3FA00230E
:100A9000274AA021502011F069FD002326A2A021A1
:100AA000084611F063FD214900230622C86803218E
:100AB00006F0A0FA00231E4ABE21502011F056FD78
:100AC00000231EA2BE21A02011F050FD17490023D3
:100AD00007228868042106F08DFA0023144A822137
:100AE0004FF48C7011F042FD002315A282214FF4C7
:100AF000B47011F03BFD0D4900230622C86B194666
:100B000006F078FA00230A4AA0214FF48C7011F005
:100B10002DFD00230BA2A0214FF4B47011F026FD8F
:100B200070BD000065343400F4000020E0170020A0
:100B3000C0210020560000004100000057000000C6
:100B4000A6B800006D41480070B586B00020049042
:100B5000002400250126FE490870FE4908704FF068
:100B6000501006F0BFFD002001F0E6FC00200390CD
:100B70000AF036FF68E3BDF81000401C80B2049014
:100B8000204605F0D3FBC5B2F3480078012801D117
:100B900001262C466FF07F40F0490860F04800784D
:100BA00038B10020EE49087005F016F80020ED4934
:100BB0000870ED480078012804D10020EA49087047
:100BC0000AF03EF8012E03D1204601F069FA002612
:100BD000DF480078012804D109F0C8FD0020DC4975
:100BE0000870E24A92F8201092F82100FFF7E4FE24
:100BF000DF48007870B1DF480078052805D10AF099
:100C0000EFFE0020DB49087004E0DA480078401C61
:100C1000D8490870D84840780128ABD1D748007827
:100C20000028A7D1D44880780028A3D1012606F057
:100C3000EFFB05909DF81400D14908709DF8140051
:100C4000002897D09DF8140020286ED2DFE800F02D
:100C50006DB7B8B9FEFDBCBBBABDBEBFFCC1C0FB21
:100C60005B504C31106D6DFA6D6E946DF96D6DF8D1
:100C700014B1012C1AD106E0C248007810B9062040
:100C8000C149087013E0BF48007870B90020B74927
:100C900081F858000AF0A4FE4FF0501006F022FD33
:100CA000012001F049FC0CF02FF900E000BF00BF6B
:100CB000C9E214B1012C14D100E013E0B14800786E
:100CC00070B90220A94981F858000AF089FE4FF056
:100CD000501006F007FD012001F02EFC0CF014F975
:100CE00000E000BF00BFAEE204B900BF00BFAAE24F
:100CF00034B9A448007810B91720A349087000E05F
:100D000000BF00BF9FE214B1012C0BD106E09D484B
:100D1000007810B90D209C49087004E00420934924
:100D2000487000E000BF00BF8DE28BE28F4890F872
:100D3000580030B9012C01DA08241CE0601EC4B24E
:100D400019E08A4890F85800022814D1062C02D1E4
:100D5000601EC4B20FE0052C01D102240BE0022C6E
:100D600002D1601EC4B206E0012C02D1601EC4B2E2
:100D700001E004B9062466E27C4890F8580030B9D6
:100D8000072C01DD002419E0601CC4B216E077488E
:100D900090F85800022811D1062C01D100240DE052
:100DA000052C01D1062409E0022C01D1052405E01F
:100DB000012C01D1022401E004B9012443E200BF67
:100DC00000BF00BF00BF00BF00BF00BF00BF00BF2B
:100DD00000BFA01E072871D2DFE800F0043C56F7E0
:100DE00071A1DC006748007848BB604890F8580063
:100DF00070B97620ADF804003020ADF806004C2024
:100E0000ADF8080001A803F025FF5849C86512E0B5
:100E1000564890F8580002280DD17620ADF804000D
:100E20003020ADF806005020ADF8080001A803F00E
:100E300059FF4E49886708F015FD0AF0D1FD06E01C
:100E4000E8E0F6E0C4E0C4E0ECE0E4E022E10CF02D
:100E50005BF8BBE04B480078A8B9444890F85800CC
:100E600068B97620ADF804004620ADF806004C20A5
:100E7000ADF8080001A803F0EDFE3C49086608F053
:100E8000F1FC0CF041F8A1E03E480078A8B93748E1
:100E900090F8580068B97620ADF804005C20ADF8F1
:100EA00006004C20ADF8080001A803F0D3FE2F493E
:100EB000486608F0D7FC0CF027F887E085E0314859
:100EC000007858BB294890F8580078B94FF4B870AA
:100ED000ADF804003020ADF806004C20ADF8080055
:100EE00001A803F09BFF2149C86613E01F4890F852
:100EF000580002280ED14FF4B870ADF8040030202D
:100F0000ADF806004C20ADF8080001A803F086FFFC
:100F10001649C86708F0A6FC0BF0F6FF56E0194822
:100F2000007898BB114890F8580070B94FF4B87029
:100F3000ADF804004620ADF806004C20ADF80800DE
:100F400001A803F06BFF0949086708F08BFC1EE05D
:100F50005500002057000020EE000020F400002083
:100F60007E000020A20000203D000020BC130020D5
:100F70003C010020BA000020E4000020CC0000204A
:100F8000BB000020B60000205900002001E00BF05B
:100F9000BBFF1BE0B0480078B0B9B04890F85800EB
:100FA00070B94FF4B870ADF804005C20ADF80600DD
:100FB0004C20ADF8080001A803F030FFA7494867AE
:100FC00008F050FC0BF0A0FF00E000BF00BF3AE1CA
:100FD00039E1A148007890B90320A14908700BF0CD
:100FE000A9FF01209F4908709FED9F0A9F4880ED4F
:100FF0000E0A0120984908700AF0F2FC09E003206B
:10100000974908700020944908700AF0E9FC0BF039
:1010100089FF18E117E19048007810B9122094492F
:10102000087010E18C48007810B9062090490870CB
:1010300009E1012C2DD1894890F8580090B98648D3
:10104000007830BB0220854981F858000AF0C8FCBE
:101050004FF0501006F046FB012001F06DFA0BF046
:1010600053FF16E07D4890F85800022811D17A48C5
:10107000007870B90020794981F858000AF0B0FC76
:101080004FF0501006F02EFB012001F055FA0BF046
:101090003BFFD8E0A01E07287ED2DFE800F0043432
:1010A0004ED0689AB5006C48007848BB6B4890F801
:1010B000580070B97620ADF804003020ADF8060075
:1010C0004C20ADF8080001A803F0C4FD6349C865D1
:1010D00012E0624890F8580002280DD17620ADF851
:1010E00004003020ADF806005020ADF8080001A83B
:1010F00003F0F8FD5949886708F0B4FB0AF070FC6A
:101100000BF002FF9CE054480078A8B9534890F8CF
:10111000580068B97620ADF804004620ADF8060006
:101120004C20ADF8080001A803F094FD4B49086677
:1011300008F098FB0BF0E8FE82E047480078A8B979
:10114000464890F8580068B97620ADF804005C2055
:10115000ADF806004C20ADF8080001A803F07AFDB8
:101160003E49486608F07EFB0BF0CEFE68E03A4848
:10117000007868BB394890F8580088B94FF4B870C7
:10118000ADF804003020ADF806004C20ADF80800A2
:1011900001A803F043FE00E051E03049C86613E0C7
:1011A0002E4890F8580002280ED14FF4B870ADF8D0
:1011B00004003020ADF806004C20ADF8080001A86E
:1011C00003F02CFE2549C86708F04CFB0BF09CFE91
:1011D00036E021480078B0B9204890F8580070B93E
:1011E0004FF4B870ADF804004620ADF806004C206E
:1011F000ADF8080001A803F011FE1849086708F0CF
:1012000031FB0BF081FE1BE013480078B0B91348A6
:1012100090F8580070B94FF4B870ADF804005C2035
:10122000ADF806004C20ADF8080001A803F0F6FD6B
:101230000A49486708F016FB0BF066FE00E000BFA5
:1012400000BF00E000BF00BF0948007815283FF448
:1012500092AC06B070BD0000B6000020BC130020A8
:10126000B90000203400002000000000E01700203A
:101270005900002010B54FF48061024805F0EEFDE2
:1012800010BD00000008024010B54FF48061024814
:1012900005F0E6FD10BD00000008024000BFFEE7BB
:1012A00010B50446C8213348FEF7B5FF0120314987
:1012B000087008468470A5204870012C05D0022CC7
:1012C00003D0062C01D0072C1BD1601E2A4951F8EF
:1012D0002000000E2749C870601E274951F82000E1
:1012E000000C24490871601E234931F82000000ACF
:1012F00020494871601E204911F820001D4988715D
:1013000026E0601E1C4951F820000A21B0FBF1F0D4
:10131000000E1849C870601E174951F820000A21B4
:10132000B0FBF1F0000C13490871601E124951F82E
:1013300020000A21B0FBF1F0000A0E494871601E3E
:101340000D4951F820000A21B0FBF1F009498871DC
:101350000721084805F011FE00120649C87107214F
:10136000044805F00AFE034908720921014810F0FB
:1013700069FD10BD00430020F017002010B50121C9
:10138000C80508F02FFD00214FF4000008F02AFDE9
:1013900010BD000001460020034A52680A400AB10D
:1013A000012000E00020704700B0024070B500212D
:1013B000002200230024344D2D68344E3540324E37
:1013C000356035462D68066835432F4E3560354605
:1013D0006D6B25F00705756335466D6B46683543C3
:1013E000294E7563456835B9C5682902058A2A04FE
:1013F000057D2B0621E04568012D05D1C568290230
:10140000058A2A04002318E04568022D05D1C56825
:1014100069010569EA0200230FE04568032D06D142
:10142000C56869010569AA024569EB0305E0C5685D
:10143000290105692A0245692B0341EA02058668EC
:1014400035431D43104EB66B35430F4EB56385696A
:10145000F56335462D6C6FF30D05356435462D6CFF
:10146000C6693543084E3564858C2C0435466D6C51
:1014700005F04045756435466D6C066A2643354374
:10148000014E756470BD000000B00240FCE0FCFF3E
:101490000348006840F001000149086070470000FF
:1014A00000B002407047000010B586B0044601212C
:1014B000084608F087FC0121102008F0D3FC072221
:1014C0000A21214805F09EFC072209211E4805F04B
:1014D00099FC00208DF8160001208DF817000220DD
:1014E0008DF814000002049002208DF8150004A964
:1014F000154805F03FFC02208DF8140040020490CE
:1015000004A9114805F036FC00940020ADF8040051
:10151000ADF80600ADF80800ADF80C000C20ADF8F1
:101520000A00694609480DF09BF808F0FAF8012214
:1015300040F2255105480DF06DF8012103480DF0EA
:1015400026F806B010BD0000000002400010014067
:101550007CB504466FF07F40F7490860012C01D14B
:10156000012000E000200090009820B14FF47F009F
:10157000F149486003E04FF05010EF494860EF49EF
:1015800000230722D1F8B800042105F033FD12230F
:1015900068221A21582006F0D9F80023E84A1A21B7
:1015A000582010F0E3FF0023E64A1A21AA2010F089
:1015B000DDFF022C01D1012000E000200090009806
:1015C00020B14FF47F00DC49486003E04FF0501039
:1015D000D9494860D94900230722D1F8BC00042129
:1015E00005F008FD122368222E21582006F0AEF8DF
:1015F0000023D34A3021582010F0B8FF0023D14AED
:101600003021AA2010F0B2FF032C01D1012000E00C
:1016100000200090009820B14FF47F00C649486038
:1016200003E04FF05010C4494860C449002307222A
:10163000D1F8C000042105F0DDFC12236822462108
:10164000582006F083F80023BD4A4621582010F0A8
:101650008DFF0023BB4A08324621AA2010F086FFE6
:10166000042C01D1012000E000200090009820B15E
:101670004FF47F00B049486003E04FF05010AE498E
:101680004860AE4900230722D1F8C400042105F0C8
:10169000B1FC12237A225A21582006F057F8002371
:1016A000A74A5C21582010F061FF0023A54A0832A8
:1016B0005C21AA2010F05AFF052C01D1012000E086
:1016C00000200090009820B14FF47F009A494860B4
:1016D00003E04FF0501098494860984900230722D2
:1016E000D1F8C800042105F085FC12237A2270216C
:1016F000582006F02BF80023914A7221582010F050
:1017000035FF00238F4A10327221AA2010F02EFFDD
:10171000062C01D1012000E000200090009820B1AB
:101720004FF47F008449486003E04FF05010824935
:101730004860824900230722D1F8CC00042105F03B
:1017400059FC12237A228621582005F0FFFF00233E
:101750007B4A8821582010F009FF0023794A103273
:101760008821AA2010F002FF072C01D1012000E0FF
:1017700000200090009820B14FF47F006E4948602F
:1017800003E04FF050106C4948606C4890F8D50069
:1017900008B16D4D00E06D4D12237A2218214FF4EF
:1017A000A97005F0D3FF654890F8D000C0EBC000E9
:1017B000421900231A214FF4A97010F0D7FE082C0B
:1017C00001D1012000E000200090009820B14FF4EA
:1017D0007F005949486003E04FF050105649486077
:1017E000564890F8D50008B1594D00E0594D1223E4
:1017F0007A222E214FF4A97005F0A8FF4F4890F8E7
:10180000D100C0EBC0004219002330214FF4A97071
:1018100010F0ACFE092C01D1012000E00020009066
:10182000009820B14FF47F004349486003E04FF037
:10183000501041494860414890F8D50008B1424DE8
:1018400000E0424D12237A2244214FF4A97005F0A2
:101850007DFF3A4890F8D200C0EBC0004219002347
:1018600046214FF4A97010F081FE0A2C01D101200D
:1018700000E000200090009820B14FF47F002E4936
:10188000486003E04FF050102B4948602B4890F817
:10189000D50008B12C4D00E02C4D12237A225A219C
:1018A0004FF4A97005F052FF244890F8D300C0EB24
:1018B000C000421900235C214FF4A97010F056FEBD
:1018C0000B2C01D1012000E000200090009820B1F5
:1018D0004FF47F001849486003E04FF0501016495C
:1018E0004860164890F8D50008B1174D00E0174D34
:1018F00012237A2270214FF4A97005F027FF0F48B8
:1019000090F8D400C0EBC0004219002372214FF4BC
:10191000A97010F02BFE072C22D2DFE804F01D0482
:1019200005060708090000BF00BF00BF00BF00BFD9
:10193000022001F02FFB17E0F4000020BC13002070
:10194000C02100204F510108EF4F0108B04F01089E
:10195000CC4F0108BE4F0108042001F01BFB03E03F
:10196000072001F017FB00BF00BF01F0C9FA0C2CE3
:1019700064D2DFE804F0060A0B0C0D0E0F381039A4
:101980003A3B022000F06AFE59E000BF00BF00BFF2
:1019900000BF00BF53E06FF07F402A4908602A482B
:1019A00048602A4890F8D50008B1294D00E0294D3B
:1019B0000020019013E00199C1EBC1014A1901997E
:1019C000C1EB011303EB4111202303EB410188B26A
:1019D0000023F12110F0CAFD0198401C01900198EC
:1019E0000228E8D32BE000BF00BF00BF6FF07F40AC
:1019F0001449086014484860144890F8D50008B1AC
:101A0000154D00E0154D0020019013E00199C1EB48
:101A1000C1014A190199C1EB011303EB41112023C4
:101A200003EB410188B20023F12110F09FFD0198E2
:101A3000401C019001980228E8D300E000BF00BFDD
:101A40007CBD0000F400002038003100BC130020F1
:101A5000CC4F0108BE4F0108EF4F0108B04F0108FD
:101A60007CB504466FF07F40FC490860012C01D131
:101A7000012000E000200090009820B14FF47F008A
:101A8000F649486003E04FF05010F4494860F448CC
:101A900090F8F80108B1F34D00E0F34D12236822ED
:101AA0001A21582005F052FEF0480078C0EBC00023
:101AB000421900231A21582010F058FD022C01D1A0
:101AC000012000E000200090009820B14FF47F003A
:101AD000E249486003E04FF05010E0494860E048B8
:101AE00090F8F80108B1E24D00E0E24D12236822BF
:101AF0002E21582005F02AFEDC4890F82000C0EB8B
:101B0000C000421900233021582010F02FFD032C73
:101B100001D1012000E000200090009820B14FF496
:101B20007F00CE49486003E04FF05010CB49486039
:101B3000CB4890F8F80108B1CD4D00E0CD4D12230F
:101B400068224621582005F001FEC84890F821007F
:101B5000C0EBC000421900234621582010F006FDBA
:101B6000042C01D1012000E000200090009820B159
:101B70004FF47F00B949486003E04FF05010B74977
:101B80004860BA49486A00230722042105F032FA66
:101B900012237A225A21582005F0D8FD0023B64A94
:101BA0005C21582010F0E2FC0023B44A5C21AA20FA
:101BB00010F0DCFC052C01D1012000E00020009099
:101BC000009820B14FF47F00A449486003E04FF033
:101BD0005010A2494860A549886A002307220421C1
:101BE00005F008FA12237A227021582005F0AEFD84
:101BF0000023A14A7221582010F0B8FC00239F4A0C
:101C00007221AA2010F0B2FC062C01D1012000E0C4
:101C100000200090009820B14FF47F008F49486069
:101C200003E04FF050108D4948609049886C0023C4
:101C30000722042105F0DEF912237A22862158209A
:101C400005F084FD00238C4A8821582010F08EFC7A
:101C500000238BA28821AA2010F088FC072C01D138
:101C6000012000E000200090009820B14FF47F0098
:101C70007A49486003E04FF05010784948607B484B
:101C8000006BE0B17949086B00230622194605F084
:101C9000B1F912237A2218214FF4A97005F056FDEC
:101CA0000023754A1A214FF4A97010F05FFC00233D
:101CB000754A1A214FF4C77010F058FC0DE012233A
:101CC0007A2218214FF4A97005F040FD00236FA27D
:101CD0001A214FF4A97010F049FC082C01D1012001
:101CE00000E000200090009820B14FF47F005B4995
:101CF000486003E04FF0501058494860584890F849
:101D0000F80108B1634D00E0634D5849486B00236A
:101D10000722042105F06EF912237A222E214FF4B6
:101D2000A97005F013FD0023534A30214FF4A97028
:101D300010F01CFC0023514A083230214FF4D270BD
:101D400010F014FC092C01D1012000E000200090CB
:101D5000009820B14FF47F004049486003E04FF005
:101D600050103E4948604149886B002307220421F6
:101D700005F040F912237A2244214FF4A97005F0AE
:101D8000E5FC00233C4A46214FF4A97010F0EEFB1D
:101D900000233A4A46214FF4D27010F0E7FB0A2C98
:101DA00001D1012000E000200090009820B14FF404
:101DB0007F002A49486003E04FF0501027494860EF
:101DC0002A49C86B00230722042105F013F91223C6
:101DD0007A225A214FF4A97005F0B8FC0023264A54
:101DE0005C214FF4A97010F0C1FB0023234A10328C
:101DF0005C214FF4D27010F0B9FB0B2C01D1012003
:101E000000E000200090009820B14FF47F001349BB
:101E1000486003E04FF05010104948601349086CC7
:101E200000230522042105F0E5F812237A2270210F
:101E30004FF4A97005F08AFC00230F4A72214FF479
:101E4000A97010F093FB002314A272214FF4D270FA
:101E500010F08CFB0C2C25D1012024E0F400002094
:101E6000A0150020EF4F0108B04F0108BC1300205F
:101E70000B500108FD4F0108C02100204F510108FF
:101E800020562F6D73000000F3490108B9D8B1D571
:101E900000000000555001081950010820412F6D25
:101EA0007300000000200090009820B14FF47F00E4
:101EB0006E49486003E04FF050106C4948606C492F
:101EC000486C00230522042105F094F812237A229D
:101ED00086214FF4A97005F039FC0023654A88215A
:101EE0004FF4A97010F042FB0023AFF2500288219A
:101EF0004FF4D27010F03AFB0D2C1AD2DFE804F048
:101F000019121314070809150A0B0C0D0E0000BF57
:101F100000BF00BF00BF00BF00BF00BF022001F034
:101F200039F80AE000BF00BF00BF072001F032F817
:101F300003E0042001F02EF800BF00BF00F0E0FF36
:101F40000D2C7CD2DFE804F0070B335B8586878895
:101F5000898A8B8C8D00022000F080FB83E06FF07B
:101F60007F404249086044484860444890F8F8017E
:101F700008B1434D00E0434D0020019013E001996A
:101F8000C1EBC1014A190199C1EB011303EB4111E6
:101F9000202303EB410188B20023F12110F0E6FA7F
:101FA0000198401C019001980228E8D35BE06FF093
:101FB0007F402E49086030484860304890F8F8016A
:101FC00008B1314D00E0314D0020019013E001993E
:101FD000C1EBC1014A190199C1EB011303EB411196
:101FE000202303EB410188B20023F12110F0BEFA57
:101FF0000198401C019001980228E8D333E06FF06B
:102000007F401A4908601C4848601C4890F8F80155
:1020100008B11D4D00E01D4D0020019015E0019913
:10202000C1EBC1014A190199C1EB011303EB411145
:10203000202303EB410188B20023F12100E011E0ED
:1020400010F094FA0198401C019001980228E6D300
:1020500009E000BF00BF00BF00BF00BF00BF00BF5E
:1020600000BF00E000BF00BF7CBD0000F400002006
:10207000BC130020C021002038003100A015002032
:10208000EF4F0108B04F01080B500108FD4F010848
:1020900010B503F0B3FC00F033FF02F06DF910BD92
:1020A0007CB50446F74890F8580000287ED1012CF2
:1020B00001D1012000E000200090009820B14FF4F1
:1020C0007F00F149486003E04FF05010EE4948604E
:1020D00014235C221821762005F038FB6FF07F4036
:1020E000E9490860E74890F85800C0EBC000E749AC
:1020F000421800231A21762010F038FA022C01D160
:10210000012000E000200090009820B14FF47F00F3
:10211000DD49486003E04FF05010DB49486014236C
:102120005C222E21762005F011FB6FF07F40D6490E
:102130000860D449C86D00230722042104F05AFF27
:102140000023D34A3021762010F010FA0023D14A20
:102150003021C82010F00AFA032C01D1012000E040
:1021600000200090009820B14FF47F00C6494860DD
:1021700003E04FF05010C449486014235C2244210E
:10218000762005F0E3FA6FF07F40BF490860BD4953
:10219000086E00230722042104F02CFF0023BC4A10
:1021A0004621762010F0E2F9002300E0D3E0B94A9E
:1021B0004621C82010F0DAF9042C01D1012000E0FA
:1021C00000200090009820B14FF47F00AE49486095
:1021D00003E04FF05010AC49486014235C225A21B0
:1021E000762005F0B3FA6FF07F40A7490860A54953
:1021F000486E00230722042104F0FCFE0023A44AB9
:102200005C21762010F0B2F90023A24A5C21C8209C
:1022100010F0ACF9062C01D1012000E00020009064
:10222000009820B14FF47F009749486003E04FF0D9
:1022300050109549486014235C222E21C80005F0F7
:1022400085FA6FF07F40904908608E49C86E002380
:102250000722042104F0CEFE00238D4A30214FF4E2
:10226000B87010F083F900238A4A921D30214FF490
:10227000E17010F07BF9072C01D1012000E0002073
:102280000090009820B14FF47F007F49486003E040
:102290004FF050107C49486014235C224421900088
:1022A00005F054FA6FF07F40774908607549086F70
:1022B00000230722042104F09DFE0023744A4621D6
:1022C0004FF4B87010F052F90023724A921D462163
:1022D0004FF4E17010F04AF9082C01D1012000E020
:1022E00000200090009820B14FF47F0066494860BC
:1022F00003E04FF050106449486014235C225A21D7
:10230000900005F023FA6FF07F405F4908605D4957
:10231000486F00230722042104F06CFE00235C4A6E
:102320005C21880010F022F900235A4A921D5C219A
:102330004FF4E17010F01AF9012C03D1062000F0DF
:1023400029FEACE01CB9032000F024FEA7E0012028
:1023500000F020FEA3E04B4890F858000228F0D18E
:10236000012C01D1012000E000200090009820B154
:102370004FF47F004449486003E04FF05010424959
:10238000486014235C221821762005F0DFF96FF0F5
:102390007F403D4908603B4890F85800C0EBC000C2
:1023A0003A49421800231A21762010F0DFF8022C57
:1023B00001D1012000E000200090009820B14FF4EE
:1023C0007F003149486003E04FF050102E494860CB
:1023D000142368222E21762005F0B8F96FF07F4093
:1023E000294908602749886F00230722042104F047
:1023F00001FE0023264A3021762010F0B7F8002392
:10240000244A0C323021C82010F0B0F8062C01D13B
:10241000012000E000200090009820B14FF47F00E0
:102420001949486003E04FF05010174948601423E1
:102430005C222E21C80005F089F96FF07F40124917
:1024400008601049C86F00230722042104F0D2FD60
:1024500000230F4A30214FF4B87010F087F80023A2
:102460000C4A921D30214FF4E17010F07FF8012CDE
:1024700003D1062000F08EFD11E06CB9032000F0BE
:1024800089FD0CE0BC130020F40000202B4F010854
:10249000C0210020DB490108012000F07BFD092C50
:1024A0003CD2DFE804F005093334353B36373800D9
:1024B000002000F0D3F832E000F022FD6FF07F4002
:1024C0001849086018484860184890F8F80108B1A1
:1024D000174D00E0174D0020019013E00199C1EB6A
:1024E000C1014A190199C1EB011303EB41112023EA
:1024F00003EB410188B20023F12110F037F8019875
:10250000401C019001980228E8D308E000BF00BFFA
:1025100000BF00BF00BF00F0F3FC00E000BF00BF41
:102520007CBD0000F400002038003100A015002020
:102530009F4E0108BB4E01082DE9F0410746FFF709
:10254000A7FD6FF07F403A4908603A4848603A4832
:1025500090F8F80108B1394E00E0394E002306F139
:102560002C020421184610F001F86FF07F4030492A
:1025700008604FF050104860324890F8580030BB67
:10258000314D002420E0042C0ED205EB041204EBA4
:10259000440000EBC4001A2303EB400081B2002387
:1025A00018460FF0E3FF0EE005EB0412201F00EBCE
:1025B000400303EBC0001A2303EB400081B2002369
:1025C000FA200FF0D3FF641C082CDCD32AE01D484E
:1025D00090F85800022825D11C4D002420E0042C3E
:1025E0000ED205EB041204EB440000EBC4001A23E6
:1025F00003EB400081B2002318460FF0B7FF0EE056
:1026000005EB0412201F00EB400303EBC0001A236C
:1026100003EB400081B20023FA200FF0A7FF641CF7
:10262000082CDCD317B9002000F018F8BDE8F081C1
:10263000F40000200352F300A01500205B4B0108BA
:10264000694A0108BC1300205B480108DB48010807
:1026500010B5002000F002F810BD000010B50446CF
:1026600000F04EFC002C7CD16FF07F408649086062
:1026700086484860864890F8F801002840D000233A
:1026800084A2E7211C200FF071FF002383A2FB210D
:102690001C200FF06BFF002382A2E7217E200FF0A9
:1026A00065FF002380A2FB217E200FF05FFF002347
:1026B0007FA2E721DC200FF059FF00237AA2FB2143
:1026C000DC200FF053FF00237BA2E7214FF49D7025
:1026D0000FF04CFF002374A2FB214FF49D700FF00C
:1026E00045FF002376A2E7214FF4CC700FF03EFFA8
:1026F000002375A2FB214FF4CC700FF037FFC2E02E
:10270000002372A2E7211C200FF030FF002371A2EA
:10271000FB211C200FF02AFF002370A2E7217E205E
:102720000FF024FF00236FA2FB217E200FF01EFF7D
:1027300000236EA2E721DC200FF018FF002369A21E
:10274000FB21DC200FF012FF00236AA2E7214FF4E7
:102750009D700FF00BFF002362A2FB214FF49D70D0
:1027600000E010E00FF002FF002364A2E7214FF425
:10277000CC700FF0FBFE002362A2FB214FF4CC7063
:102780000FF0F4FE7FE0012C2CD16FF07F403E492A
:1027900008603E48486000235CA2E72166200FF0F5
:1027A000E5FE00235BA2FB2166200FF0DFFE002385
:1027B0005AA2E721B6200FF0D9FE002359A2FB212F
:1027C000B6200FF0D3FE002358A2E7214FF4D370B8
:1027D0000FF0CCFE002357A2FB214FF4D3700FF073
:1027E000C5FE50E0022C4ED1294890F8F80130B3D4
:1027F000002328A2E7217E200FF0B8FE002327A2A5
:10280000FB217E200FF0B2FE002322A2E721DC2074
:102810000FF0ACFE002349A2FB21DC200FF0A6FE46
:10282000002348A2E7214FF49D700FF09FFE002384
:1028300042A2FB214FF49D700FF098FE23E000238D
:1028400022A2E7211C200FF091FE002321A2FB21F0
:102850001C200FF08BFE00231CA2E7217E200FF02E
:1028600085FE002327A2FB217E200FF07FFE0023A0
:1028700036A2E721DC200FF079FE002321A2FB2104
:10288000DC200FF073FE10BDF40000203800310092
:10289000A01500204D45415300000000444953500D
:1028A0000000000042415400544553540000000011
:1028B0002044594E410000004C4953540000000090
:1028C0004C494D495400000053455400B2E2C1BF89
:1028D00000000000CFD4CABE00000000B5E7B3D8A6
:1028E00000000000B2E2CAD400000000B6AFCCACD9
:1028F00000000000C1D0B1ED00000000BCABCFDE95
:1029000000000000C9E8D6C300000000CEC4BCFE31
:1029100000000000B9DCC0ED00000000B1A3B4E687
:1029200000000000CAFDBEDD00000000B8FCB6E0FB
:102930000000000020322F320000000053455455A3
:10294000500000002053595300000000CFB5CDB314
:102950000000000011B581B00020009030E09DF82B
:1029600004100098401C814204D14FF47F002A4992
:10297000486003E04FF0501027494860009800EB92
:10298000800080001A3081B214235A22A02004F063
:10299000DDFE2249009A51F822000023072204217B
:1029A00004F028FB009800EB800080001A3081B210
:1029B00001231B4AA0200FF0D9FD0098401C009075
:1029C00000980A28CBD34FF050101349486000F00C
:1029D00097FA6FF07F401049086012484860124C27
:1029E0000220009013E00099C1EBC1010A1900997F
:1029F000C1EB011303EB4111202303EB410188B22A
:102A00000023F1210FF0B2FD0098401C00900098C7
:102A10000528E8D31CBD0000F4000020F0170020BA
:102A2000C021002038003100D04E01087CB504469A
:102A3000012C00D100E000200090009820B14FF45C
:102A40007F00E749486003E04FF05010E4494860D8
:102A500014235C221821762004F078FE6FF07F406A
:102A6000DF490860DF4890F88000C0EBC000DE4915
:102A7000421800231A2176200FF078FD022C01D194
:102A8000012000E000200090009820B14FF47F006A
:102A9000D349486003E04FF05010D14948601423F7
:102AA0005C222E21762004F051FE6FF07F40CC494D
:102AB0000860CC49D1F8840000230522032104F0EA
:102AC00099FA0023C94A302176200FF04FFD0023E8
:102AD000C74A3021B2200FF049FD032C01D101205B
:102AE00000E000200090009820B14FF47F00BC4926
:102AF000486003E04FF05010B949486014235C224D
:102B00004421762004F022FE6FF07F40B449086033
:102B1000B449D1F8880000230522032104F06AFAA1
:102B20000023B24A462176200FF020FD0023B04A50
:102B30004621B2200FF01AFD042C01D1012000E043
:102B400000200090009820B14FF47F00A449486015
:102B500003E04FF05010A249486014235C225A2130
:102B6000762004F0F3FD6FF07F409D4908609D4999
:102B7000D1F88C0000230522042104F03BFA002345
:102B80009A4A5C2176200FF0F1FC0023984A1E320D
:102B90005C21B2200FF0EAFC052C01D1012000E0FD
:102BA00000200090009820B14FF47F008C494860CD
:102BB00003E04FF050108A49486014235C2218212A
:102BC000900004F0C3FD6FF07F408549086085499F
:102BD00091F8900000230222194604F00BFA814874
:102BE00090F89000C0EBC0008249421800231A21DF
:102BF0004FF4B8700FF0BAFC062C01D1012000E0B0
:102C000000200090009820B14FF47F007449486084
:102C100003E04FF050107249486014235C222E21CB
:102C2000C80004F093FD6FF07F406D4908606D4966
:102C3000D1F8940000230522032104F0DBF90023DE
:102C40006A4A30214FF4B8700FF090FC0023684AB4
:102C500030214FF4D6700FF089FC072C01D10120F0
:102C600000E000200090009820B14FF47F005C4904
:102C7000486003E04FF050105949486014235C222B
:102C80004421900004F062FD6FF07F4054490860D9
:102C90005449D1F8980000230522032104F0AAF931
:102CA0000023524A46214FF4B8700FF05FFC002316
:102CB0004F4A46214FF4D6700FF058FC082C01D132
:102CC000012000E000200090009820B14FF47F0028
:102CD0004349486003E04FF05010414948601423D5
:102CE0005C225A21900004F031FD6FF07F403C4996
:102CF00008603C49D1F89C0000230522042104F01F
:102D000079F90023394A5C2188000FF02FFC002359
:102D1000374A1E325C214FF4D6700FF027FC24B1E5
:102D2000012C06D0052C58D12DE00020FFF796FC91
:102D300054E000F0E5F86FF07F40294908602E4824
:102D400048602E4890F8F80108B12D4D00E0264D5E
:102D50000020019013E00199C1EBC1014A190199CA
:102D6000C1EB011303EB4111202303EB410188B2B6
:102D70000023F1210FF0FAFB0198401C019001980B
:102D80000228E8D32AE000F0BBF86FF07F40144936
:102D9000086019484860194890F8F80108B1154DC5
:102DA00000E0144D0020019013E00199C1EBC10136
:102DB0004A190199C1EB011303EB4111202303EBE5
:102DC000410188B20023F1210FF0D0FB0198401C93
:102DD000019001980328E8D300E000BF00BF7CBD4C
:102DE000F4000020BC130020B04F0108C0210020D7
:102DF000DB490108DA4F010838003100A015002036
:102E0000EF4F010870B5FFF743F96FF07F4021499C
:102E1000086021484860214890F8F80108B1204E28
:102E200000E0204E002306F14202042118460FF074
:102E30009DFB6FF07F40174908604FF050104860CD
:102E4000194D002420E0042C0ED205EB041204EBF3
:102E5000440000EBC4001A2303EB400081B20023BE
:102E600018460FF083FB0EE005EB0412201F00EB69
:102E7000400303EBC0001A2303EB400081B20023A0
:102E8000FA200FF073FB641C082CDCD30020FFF742
:102E9000E5FB70BDF40000200352F300A0150020F4
:102EA0005B4B0108694A01085B4901082DE9F841BB
:102EB00005468846144600261CE0207800B91AE032
:102EC0002078203800EB8000C00000EB8000C700B5
:102ED000F81707EB5070094901EBE000A9190090C1
:102EE00088B228231A46414605F024F8641C06F1EE
:102EF0001C0086B2E1E700BFBDE8F881ACC501085F
:102F000010B500243CE0204820494860A1000A3167
:102F1000C4EB041202EB420201EB420188B22B2304
:102F20005A22E42104F012FC1948184948605E2234
:102F300004FB02F10B3188B201235A22E32104F091
:102F400005FCC4EB041101EB4411642202EB4101C6
:102F500088B22C230122E32104F0F8FB00200B4966
:102F60004860C4EB041101EB4411642202EB4101FF
:102F7000491C88B22C230322E32104F0E7FB641CE4
:102F8000052CC0D310BD000038003100F400002033
:102F90006843690010B50446012C0DD13548364907
:102FA00048604FF47F000860002334A2CD214FF425
:102FB0009B700FF0DBFA5CE0022C0ED14FF050104A
:102FC0002D4948604FF47F00086000232BA2CD21DB
:102FD0004FF49B700FF0CAFA4BE0032C0AD125483E
:102FE0002549486014239622CD214FF49B7004F0AC
:102FF000ADFB3EE0042C0BD14FF050101E49486051
:1030000014239622CD214FF49B7004F09FFB30E0F7
:10301000052C0ED14FF05010174948604FF47F0037
:10302000086000231AA2CD214FF49B700FF09EFA86
:103030001FE0062C0DD10F480F4948604FF47F0068
:103040000860002317A2CD214FF49B700FF08EFA79
:103050000FE0072C0DD14FF05010074948604FF496
:103060007F00086000230FA2CD214FF49B700FF06A
:103070007DFA10BD65343400F4000020C7EBD3C3E3
:10308000CAFDD7D6BCFCC5CCCAE4C8EB0000000022
:10309000B0B4CFC2D0FDC5A5C7D0BBBBB2BDD6E8CA
:1030A00000000000B0B4CFC2D0FDC5A5BFECCBD9A5
:1030B000D1A1D4F10000000070B502F01DFA6FF04C
:1030C0007F402349086023484860234890F8F8016E
:1030D00008B1224E00E0224E002306F11602042120
:1030E00018460FF043FA6FF07F40194908604FF01F
:1030F000501048601B4D002424E0022C10D204EB39
:10310000840005EB400204EB440000EBC4001A23EA
:1031100003EB400081B2002318460FF027FA10E0BD
:1031200004EB840005EB4002A01E00EB400303EB20
:10313000C0001A2303EB400081B20023FA200FF0F5
:1031400015FA641C032CD8D30020FFF787FA70BD52
:10315000F40000200352F300A01500205B4B01088F
:10316000694A01083D4801087CB50546012D00D19A
:1031700000E000200090009820B14FF47F006849E3
:10318000486003E04FF050106549486014235C220A
:103190001821582004F0DAFA6FF07F406049086087
:1031A0006049C86C00230522032103F023FF00239C
:1031B0005D4A1A2158200FF0D9F9022D01D10120C2
:1031C00000E000200090009820B14FF47F005449A7
:1031D000486003E04FF050105149486014236822C2
:1031E00018214FF4A97004F0B1FA6FF07F404C49F8
:1031F00008604C49486D00230522032103F0FAFEC4
:103200000023494A1A214FF4A9700FF0AFF9032D9A
:1032100001D1012000E000200090009820B14FF47F
:103220007F003F49486003E04FF050103C49486040
:1032300014235C222E21582004F088FA6FF07F407E
:10324000374908603749086D00230522032103F040
:10325000D1FE0023344A302158200FF087F925B1E0
:10326000012D06D0022D58D12DE00020FFF7F6F9F0
:1032700054E0FFF745FE6FF07F40294908602B4876
:1032800048602B4890F8F80108B12A4C00E02A4C1D
:103290000020019013E00199C1EBC1010A190199C5
:1032A000C1EB011303EB4111202303EB410188B271
:1032B0000023F1210FF05AF90198401C0190019868
:1032C0000528E8D32AE0FFF71BFE6FF07F40144982
:1032D000086016484860164890F8F80108B1174C85
:1032E00000E0174C0020019013E00199C1EBC101EF
:1032F0000A190199C1EB011303EB4111202303EBE0
:10330000410188B20023F1210FF030F90198401CEF
:10331000019001980028E8D000E000BF00BF7CBD0C
:10332000F4000020BC130020C02100203800310030
:10333000A01500209F4E0108E74D01089850010894
:103340009150010870B502F0DFF86FF07F402C4912
:1033500008602C4848602C4890F8F80108B12B4EC2
:1033600000E02B4E002306F18402042118460FF0E2
:10337000FDF86FF07F40224908604FF05010486020
:10338000214890F8F80108B1224D00E0214D0024B9
:103390002FE0062C11D24FF050101949486004EB71
:1033A000840005EB4002162304FB03F01A3081B2BF
:1033B000002318460FF0DAF81AE0A01F022806D9F9
:1033C000082804D24FF050100D49486003E04FF038
:1033D00050100B49486004EB840005EB4002A01F2D
:1033E000162358431A3081B20023FA200FF0BEF89A
:1033F000641C0B2CCDD30020FFF730F970BD00000A
:10340000F40000200352F300A01500205B4B0108DC
:10341000694A0108C54C010810B502F0EFFAFFF740
:103420006FFD10BD30B595B0054602F05FFB01227F
:103430002946684600F0B0FF6C469DF800008DF804
:10344000380001980F9002981090039811900498FA
:10345000129005981390069814900F984FF47A7173
:10346000B0FBF1F00F900B9818B90020099008906C
:103470000A900F9815B030BD70B5FFF7CDFF6FF013
:103480007F403D4908603D4848603D4890F8F8015C
:1034900008B13C4D00E03C4D002305F16E020421D3
:1034A00018460FF063F86FF07F40334908604FF023
:1034B00050104860002459E0032C2AD2334890F879
:1034C000D500012810D1C4EB0410314BC21804EB15
:1034D000440000EBC4001A2303EB400081B2002338
:1034E00018460FF043F840E0284890F8D50030BB6C
:1034F000C4EB0410274BC21804EB440000EBC400DB
:103500001A2303EB400081B2002318460FF02EF877
:103510002BE01E4890F8D500012811D1C4EB04100F
:103520001B4BC218E01E00EB400303EBC0001A2344
:1035300003EB400081B20023FA200FF017F814E0EB
:10354000124890F8D50080B9C4EB0410114BC21892
:10355000E01E00EB400303EBC0001A2303EB400026
:1035600081B20023FA200FF001F8641C052CA3D3CC
:103570000020FFF773F870BDF40000200352F30041
:10358000A01500205B4B0108694A0108BC1300200C
:10359000634E0108184E010810B59B489B4908600E
:1035A0004FF0501048609A4890F8D500F0B90023C9
:1035B00098A25E214FF496700EF0D8FF002396A2D9
:1035C0005E214FF4AF700EF0D1FF944991F8411095
:1035D000481C00230222194603F00CFD0023904AE8
:1035E0005E214FF4A1700EF0C1FF1BE0884890F8F7
:1035F000D500012816D100238AA25E214FF49670CF
:103600000EF0B4FF854991F84110481C00230222B6
:10361000194603F0EFFC0023814A5E214FF4A970A4
:103620000EF0A4FF7A4890F8D500E0B900237FA2FD
:1036300072214FF496700EF099FF00237DA288212D
:103640004FF496700EF092FF00237CA29E214FF45F
:1036500096700EF08BFF00237AA2B4214FF496707F
:103660000EF084FF20E06A4890F8D50001281BD1B5
:10367000002376A272214FF496700EF077FF00239C
:1036800073A288214FF496700EF070FF002371A290
:103690009E214FF496700EF069FF00236EA2B421B4
:1036A0004FF496700EF062FF594890F8210038BB35
:1036B0005A480068642806D20023072204211846CD
:1036C00003F098FC06E0554900230722086804210E
:1036D00003F090FC5149002307220868042103F0FD
:1036E00089FC00234E4A72214FF4B4700EF03EFF65
:1036F000002356A272214FF4DC700EF037FF24E055
:10370000434890F8210001281FD1444800686428EC
:1037100006D2002306220321184603F06BFC06E0C4
:103720003E49002307220868042103F063FC0023BC
:103730003B4A72214FF4B4700EF018FF002343A2ED
:1037400072214FF4DC700EF011FF314890F8200028
:10375000A8B93249002307224868042103F04AFC33
:1037600000232F4A88214FF4B4700EF0FFFE00238F
:103770003BA288214FF4DC700EF0F8FE19E02448DB
:1037800090F82000012814D124490023062248681B
:10379000032103F02FFC0023214A88214FF4B47049
:1037A0000EF0E4FE00232EA288214FF4DC700EF010
:1037B000DDFE1A4900230722C868032103F01AFC22
:1037C0000023174A9E214FF4B4700EF0CFFE002361
:1037D00024A29E214FF4DC700EF0C8FE0F49002396
:1037E0000422486C012103F005FC00230C4AB4219B
:1037F00048000EF0BBFE00231BA2B4214FF4DC7086
:103800000EF0B4FE10BD000000FFFF00F400002029
:10381000BC130020B5DA0000B2BD0000E0170020A4
:10382000C02100205374657000000000B5E7D1B9D5
:1038300000000000B5E7C1F700000000B9A6C2CA49
:1038400000000000CAB1BCE4000000005600000007
:10385000490000005000000054494D4500000000A0
:103860004100000057000000730000002DE9F04106
:103870000546012D00D100E00020074627B14FF496
:103880007F00FD49486003E04FF05010FA4948605E
:1038900014235C221821762003F058FF6FF07F403C
:1038A000F5490860F54991F8D6000023032219462E
:1038B00003F0A0FB0023F24A1A2176200EF056FEF8
:1038C000022D01D1012000E00020074627B14FF46E
:1038D0007F00E949486003E04FF05010E649486036
:1038E00014235C222E21762003F030FF6FF07F40FE
:1038F000E1490860E14890F8D700C0EBC000E14919
:1039000042180023302176200EF030FE042D01D124
:10391000012000E00020074627B14FF47F00D64980
:10392000486003E04FF05010D349486014235C22F4
:103930001821900003F00AFF6FF07F40CE49086025
:10394000CE4890F8D900C0EBC000CF494218002300
:103950001A214FF4B8700EF009FE052D01D1012097
:1039600000E00020074627B14FF47F00C2494860BD
:1039700003E04FF05010C049486014235C222E2110
:10398000C80003F0E3FE6FF07F40BB490860BB490D
:10399000D1F8DC0000230722042103F02BFB0023D5
:1039A000B74A30214FF4B8700EF0E0FD0023B74A5B
:1039B00030214FF4E1700EF0D9FD062D01D1012028
:1039C00000E00020074627B14FF47F00AA49486075
:1039D00003E04FF05010A8494860102350225E21A8
:1039E000002003F0B3FE6FF07F40A3490860A348B6
:1039F00090F8D500D8B90023A5A25E2118460EF094
:103A0000B5FD0023A3A25E2132200EF0AFFDA24936
:103A100091F84010481C00230222194603F0EAFAEC
:103A20000023974A5E2116200EF0A0FD19E093486E
:103A300090F8D500012814D1002398A25E211846E1
:103A40000EF094FD944991F84010481C0023022286
:103A5000194603F0CFFA0023894A5E2126200EF092
:103A600085FD072D01D1012000E00020074627B188
:103A70004FF47F008049486003E04FF050107E49CA
:103A80004860102350225E21642003F05FFE7B48D3
:103A900090F8D50078B9804890F840107748E03029
:103AA000405CC0EBC0007F49421800235E216420C7
:103AB0000EF05CFD13E0714890F8D50001280ED19E
:103AC000754890F840106D48E030405CC0EBC00095
:103AD0007549421800235E2164200EF047FD4FF027
:103AE0005010654948606C4890F840106348E030D9
:103AF000405C04287ED0614890F8D500F0B90023DE
:103B00006AA2722118460EF031FD00236AA28821B4
:103B100018460EF02BFD002369A29E2118460EF0D8
:103B200025FD002369A2B42118460EF01FFD0023D5
:103B300068A2CA2118460EF019FD22E04F4890F8FD
:103B4000D50001281DD1002364A2722118460EF071
:103B50000DFD002363A2882118460EF007FD002307
:103B600062A2882118460EF001FD002361A288217F
:103B700018460EF0FBFC002360A2882118460EF0C8
:103B8000F5FC122314227021C82003F0DFFD424807
:103B900090F840103948E030405C00EB40003B4971
:103BA000891F01EB400200237221C8200EF0DEFCC9
:103BB000002353A28821C8200EF0D8FC082D01D183
:103BC000012000E00020074627B14FF47F002A497A
:103BD000486003E04FF050102749486014235C22EE
:103BE0007021642003F0B2FD6FF07F40224908602D
:103BF000294900E005E191F840202049F03151F8D1
:103C0000220000230722042103F0F4F900231C4AB8
:103C1000722164200EF0AAFC092D01D1012000E0E0
:103C20000020074627B14FF47F001349486003E0A6
:103C30004FF050101049486014235C228621642004
:103C400003F084FD6FF07F400B490860124991F842
:103C500040202C4931F8120000230422012103F0F6
:103C6000C9F90023064A882164200EF07FFC0A2D42
:103C70004AD1012049E00000F4000020BC130020DC
:103C8000C021002094540108BE4F0108E1490108F9
:103C9000B5DA0000B2BD0000E01700205374657073
:103CA00000000000B0540108F6540108B8BAD4D896
:103CB000B4F3D0A100000000CAB1BCE400000000D1
:103CC000B1C8BDCFC0E0D0CD00000000C9CFCFDE6D
:103CD00000000000CFC2CFDE000000004C4F414486
:103CE0000000000054696D6500000000436F6D70B6
:103CF0000000000048696768000000004C6F770012
:103D000073000000E81400200020074627B14FF49C
:103D10007F00F849486003E04FF05010F5494860D3
:103D200014235C229C21642003F010FD6FF07F407F
:103D3000F0490860F04890F84010F048405CC0EB53
:103D4000C000EF49421800239E2164200EF00EFCB3
:103D50000B2D01D1012000E00020074627B14FF4D0
:103D60007F00E449486003E04FF05010E1494860AB
:103D700014235C22B221642003F0E8FC6FF07F4042
:103D8000DC490860DC4991F84020DC49123151F8E7
:103D9000220000230722042103F02CF90023D94A32
:103DA000B42164200EF0E2FB0C2D01D1012000E0D3
:103DB0000020074627B14FF47F00CE49486003E05A
:103DC0004FF05010CB49486014235C22C821642076
:103DD00003F0BCFC6FF07F40C6490860C64991F80B
:103DE0004020C6494E3151F8220000230722042109
:103DF00003F000F90023C34ACA2164200EF0B6FB89
:103E000064E1BD4890F84010BC486A38405C042822
:103E1000F6D1BD4890F8D50018BB0023AFF274125C
:103E2000722118460EF0A2FB0023AFF27412882113
:103E300018460EF09BFB0023AFF27C129E21184621
:103E40000EF094FB0023AFF27C12B42118460EF062
:103E50008DFB0023AFF28412CA2118460EF086FBB8
:103E600027E0A94890F8D500012822D10023AFF21D
:103E70009412722118460EF079FB0023AFF29C12C7
:103E8000882118460EF072FB0023AFF2A0128821A1
:103E900018460EF06BFB0023AFF2A81288211846DB
:103EA0000EF064FB0023AFF2AC12882118460EF02E
:103EB0005DFB122314227021C82003F047FC00236D
:103EC000AFF2C4128821C8200EF050FB072D01D19B
:103ED000012000E00020074627B14FF47F0085490C
:103EE000486003E04FF0501082494860824991F8E1
:103EF000402082495A3951F8220000230722042128
:103F000003F078F814235C227021642003F01EFC77
:103F100000237C4A722164200EF028FB082D01D179
:103F2000012000E00020074627B14FF47F007149CF
:103F3000486003E04FF050106E49486014235C2243
:103F40007021642003F002FC6FF07F406949086033
:103F5000694991F8402069495A3951F822000023F3
:103F60000722042103F046F80023664A72216420E8
:103F70000EF0FCFA092D01D1012000E000200746D7
:103F800027B14FF47F005B49486003E04FF05010C9
:103F90005849486014235C228621642003F0D6FB34
:103FA0006FF07F4053490860534991F840205349CE
:103FB0001E3931F8120000230422012103F01AF8FF
:103FC0000023504A882164200EF0D0FA0A2D01D136
:103FD000012000E00020074627B14FF47F0045494B
:103FE000486003E04FF050104249486014235C22BF
:103FF0009C21642003F0AAFB6FF07F403D490860DC
:104000003D4890F840103D48405CC0EBC0003C4942
:10401000421800239E2164200EF0A8FA0B2D01D136
:10402000012000E00020074627B14FF47F0031490E
:10403000486003E04FF050102E49486014235C2282
:10404000B221642003F082FB6FF07F4029490860B1
:10405000294991F840202949123151F822000023C2
:104060000722042102F0C6FF0023264AB42164205F
:104070000EF07CFA0C2D01D1012000E00020074653
:1040800027B14FF47F001B49486003E04FF0501008
:104090001849486014235C22C821642003F056FBB1
:1040A0006FF07F4013490860134991F8402013498D
:1040B0004E3151F8220000230722042102F09AFF1A
:1040C0000023104ACA2164200EF050FA0D2D28D288
:1040D000DFE805F02707202721081C22090A230B07
:1040E0000C0000BF00BF00BF00BF00BF0220FEF7F2
:1040F00051FF1AE0F4000020E01700200615002010
:1041000019550108C0210020BC1300200520FEF72E
:1041100041FF0AE000BF00BF00BF0720FEF73AFFE3
:1041200003E00420FEF736FF00BF00BFFEF7E8FE05
:1041300079480078002879D10B2D78D2DFE805F096
:1041400006C00A2E52C0C078C0C09C000020FEF7F6
:1041500085FAB6E0FEF7D4FE6FF07F406F49086045
:104160006F4848606F4890F8F80108B16E4E00E063
:104170006E4E00240FE0C4EBC4018A19C4EB041195
:1041800001EB4411202303EB410188B20023F1210C
:104190000EF0ECF9641C022CEDD392E0FEF7B0FEB9
:1041A0006FF07F405D4908605D4848605D4890F869
:1041B000F80108B15E4E00E05E4E00240FE0C4EB53
:1041C000C4018A19C4EB041101EB4411202303EB51
:1041D000410188B20023F1210EF0C8F9641C022CC1
:1041E000EDD36EE0FEF78CFE6FF07F404B49086028
:1041F0004B4848604B4890F8F80108B14E4E00E03B
:104200004E4E00240FE0C4EBC4018A19C4EB041124
:1042100001EB4411202303EB410188B20023F1217B
:104220000EF0A4F9641C022CEDD34AE04AE047E00A
:10423000FEF766FE6FF07F403849086038484860F6
:10424000384890F8F80108B13D4E00E03D4E00249A
:104250000FE0C4EBC4018A19C4EB041101EB441153
:10426000202303EB410188B20023F1210EF07EF9F7
:10427000641C052CEDD324E0FEF742FE6FF07F4076
:104280002649086026484860264890F8F80108B199
:104290002D4E00E02D4E00240FE0C4EBC4018A191E
:1042A000C4EB041101EB4411202303EB410188B25C
:1042B0000023F1210EF05AF9641C042CEDD300E028
:1042C00000BF26E014480078012822D1FEF718FE2E
:1042D0006FF07F401149086011484860114890F81C
:1042E000F80108B11A4E00E01A4E00240FE0C4EBAA
:1042F000C4018A19C4EB041101EB4411202303EB20
:10430000410188B20023F1210EF030F9641C052C24
:10431000EDD3BDE8F081000033000020F400002060
:1043200038003100A0150020A2540108945401085F
:10433000EF4F0108B04F0108CC4F0108BE4F0108F4
:10434000F6540108B05401087B55010819550108BD
:10435000585501083555010810B50548054948600C
:10436000962340F2DF124C21002003F0EFF910BD3C
:1043700065343400F400002010B505480549486054
:10438000742340F2DF126E21002003F0DFF910BD2C
:1043900065343400F40000202DE9F04192B0054668
:1043A0000E46174601201190F94800780D90012023
:1043B0000B9000200A9009900890079002900190BD
:1043C000039001900C9009E020200EA99DF8302068
:1043D00088549DF83000401CC0B20C909DF830000D
:1043E0000828F1DB00208DF840000FB1082400E020
:1043F0000624AFE1B8F1010F03D103F009F80D90E5
:1044000001E04FF001089DF8340000287ED0012023
:104410000B909DF83400202879D2DFE800F07882F4
:1044200091A0F278CDBEAFDCF3F0EFEEED787F7EB9
:104430005733107878EC78808178787878EB0020A2
:10444000039011909DF81C00A04218DA9DF82800F6
:10445000A8B99DF81C0000280CDD2E200EA99DF89F
:104460001C2088549DF81C0009909DF81C00401CDD
:10447000C0B207909DF82800401CC0B20A900120ED
:1044800004904CE101200390002011909DF81C0045
:10449000A04218DA9DF82800A8B99DF81C00002851
:1044A0000CDD2E200EA99DF81C2088549DF81C00C0
:1044B00009909DF81C00401CC0B207909DF8280090
:1044C000401CC0B20A900120049028E10220039011
:1044D000002011909DF81C00A0421BDA9DF82800D6
:1044E000C0B99DF81C0000280CDD2E200EA99DF8F7
:1044F0001C2088549DF81C0009909DF81C00401C4D
:10450000C0B207909DF82800401C01E008E105E1D9
:10451000C0B20A900120049001E100E1FFE0FEE05A
:10452000FDE09DF81C00A04209DA31200EA99DF89B
:104530001C2088549DF81C00401CC0B20790EEE07F
:104540009DF81C00A04209DA32200EA99DF81C201B
:1045500088549DF81C00401CC0B20790DFE09DF815
:104560001C00A04209DA33200EA99DF81C208854B3
:104570009DF81C00401CC0B20790D0E09DF81C00C4
:10458000A04209DA34200EA99DF81C2088549DF819
:104590001C00401CC0B20790C1E09DF81C00A04266
:1045A00009DA35200EA99DF81C2088549DF81C00BE
:1045B000401CC0B20790B2E09DF81C00A04209DA8E
:1045C00036200EA99DF81C2088549DF81C00401C24
:1045D000C0B20790A3E09DF81C00A04209DA372082
:1045E0000EA99DF81C2088549DF81C00401CC0B2E8
:1045F000079094E06EE06CE022E030E051E010E0E3
:1046000000E068E09DF81C00A04209DA38200EA9FD
:104610009DF81C2088549DF81C00401CC0B20790D7
:104620007DE09DF81C00A04209DA39200EA99DF812
:104630001C2088549DF81C00401CC0B207906EE0FE
:104640009DF81C00A04209DA30200EA99DF81C201C
:1046500088549DF81C00401CC0B207905FE09DF894
:104660001C00A0421CDA9DF81C00002818DD9DF8F3
:104670002800A8B99DF81C0000280CDD2E200EA9EA
:104680009DF81C2088549DF81C0009909DF81C0082
:10469000401CC0B207909DF82800401CC0B20A9090
:1046A0003DE09DF81C00002812DD9DF81C00401E16
:1046B000C0B2079020200EA99DF81C2088549DF8B8
:1046C00024009DF81C10884202D100200A90099015
:1046D00025E024E023E00020039011909DF81C00C9
:1046E000A04218DA9DF82800A8B99DF81C000028FF
:1046F0000CDD2E200EA99DF81C2088549DF81C006E
:1047000009909DF81C00401CC0B207909DF828003D
:10471000401CC0B20A900120049000E000BF00BF1E
:104720009DF82C00B0B100200B906FF07F4019492C
:1047300008604FF47F004860B38810339AB27188E4
:104740003088122303F002F87188308800230EAA03
:104750000DF00CFF9DF8440000287FF44BAE9DF84F
:104760001C000C9009E030200EA99DF830208854E0
:104770009DF83000401CC0B20C909DF830109DF8A0
:104780002400401D8142EEDB00200C903EE0000042
:10479000BB000020F40000209DF83800302830DBFA
:1047A0009DF8380039282CDC0EA89DF83010405CAC
:1047B000302826DB0EA89DF83010405C392820DC1C
:1047C0009DF824009DF8301088420DDD019800EB23
:1047D00080004000019001990EA89DF83020805C77
:1047E0003038084401900CE0019800EB8000400054
:1047F000019001990EA89DF83020805C3038084463
:1048000001909DF83000401CC0B20C909DF8301013
:104810009DF82400401D8142BEDB9DF824000290DB
:104820009DF800002870019868600298A8600398BD
:10483000E86004982861059868610698A86112B03C
:10484000BDE8F08170B505466FF07F40DD49086036
:104850004FF050104860CA2340F2DF125E21002062
:1048600002F074FF4FF050116FF07F4003F0A8FA90
:104870006FF07F40D3494860C5F1040000EB400170
:1048800001EBC000CA21A1EB40005D3883B20122D8
:104890005E21002002F05AFFC5F1040000EB400148
:1048A00001EBC000CA21A1EB40005D3883B20122B8
:1048B0005E21282002F04AFFC5F1040000EB400110
:1048C00001EBC000CA21A1EB40005D3883B2012298
:1048D0005E21782002F03AFF012415E0C5F10401C1
:1048E00001EB410202EBC101CA22A2EB41015D3999
:1048F0008BB2642204FB02F101F1780001225E21F7
:1049000002F024FF601CC4B2042CE7DB00240CE09E
:10491000162204FB02F000F15E01012340F2DF12D7
:10492000002002F013FF601CC4B2A81C8442EFDB1D
:104930004FF05010A3494860A34890F8D5000128D3
:1049400026D10023A1A25E2103200DF00FFE00233B
:104950009FA249212B200DF009FE00239EA2492190
:1049600053200DF003FE00239DA24921B7200DF036
:10497000FDFD00239CA2492140F21B100DF0F6FD25
:1049800000239BA2492140F27F100DF0EFFD29E0AA
:104990008D4890F8D50028BB002397A26121032001
:1049A0000DF0E4FD002396A261213F200DF0DEFD15
:1049B000002395A2612199200DF0D8FD002394A237
:1049C0006121FD200DF0D2FD002393A2612140F270
:1049D00061100DF0CBFD002391A2612140F2B110D6
:1049E0000DF0C4FDFEF78CFA6FF07F40754908604A
:1049F0008D4848608D4890F8F80108B18C4E00E071
:104A00008C4E00240FE0C4EBC4018A19C4EB0411DE
:104A100001EB4411202303EB41000023F1210DF0B1
:104A2000A5FD601CC4B2052CEDDB0024C2E04FF0F4
:104A3000501064494860002302221946601C02F0AD
:104A4000D9FA162204FB02F000F1770100237A4A1A
:104A500003200DF08BFD5C48E030005DC0EBC00032
:104A6000764BC218162304FB03F000F177010023F4
:104A700035200DF07BFD7248005D724951F8200031
:104A8000504908606E48C430005D98B96C491031D7
:104A900051F8240000230722042102F0ABFA162269
:104AA00004FB02F000F177010023634A7B200DF044
:104AB0005DFD17E06248C430005D012812D16049F5
:104AC000103151F8240000230622032102F092FA4B
:104AD000162204FB02F000F177010023564A7B20E6
:104AE0000DF044FD5648005D574951F82000354906
:104AF00008605348D330005D98B951494C3151F8A2
:104B0000240000230722042102F074FA162204FB79
:104B100002F000F177010023474ADF200DF026FD67
:104B200017E04748D330005D012812D144494C3189
:104B300051F8240000230622032102F05BFA16221A
:104B400004FB02F000F1770100233B4ADF200DF067
:104B50000DFD3B48005D3D4951F8200019490860B2
:104B60003749883151F8240000230722032102F03D
:104B700041FA162204FB02F000F1770100232E4ACD
:104B800040F243100DF0F2FC6FF07F400D490860D9
:104B90002B48005DC0EBC0002D4BC218162304FB50
:104BA00003F000F17701002340F2A7100DF0DEFCC6
:104BB000601CC4B2044890F8D600A0423FF737AF5B
:104BC00070BD0000F4000020BC1300204E4F000018
:104BD0004D4F44450000000050415241310000005B
:104BE0005041524132000000524553310000000054
:104BF0005245533200000000D0F2BAC50000000058
:104C0000CFEEC4BF00000000B5E7D1B9000000003E
:104C1000B5E7C1F700000000B9A6C2CA0000000055
:104C2000BDE1B9FB0000000038003100A0150020F4
:104C30005855010835550108C0210020B05401081D
:104C4000281800205847010848470108684701080C
:104C5000D354010830B595B0054600F019FF012284
:104C600029466846FFF798FB6C469DF800008DF8D2
:104C7000380001980F9002981090039811900498B2
:104C8000129005981390069814900B9818B900206C
:104C9000099008900A900F9815B030BD30B595B0C6
:104CA000054600F023FF012229466846FFF774FB02
:104CB0006C469DF800008DF8380001980F9002981E
:104CC00010900398119004981290059813900698EC
:104CD00014900B9818B90020099008900A900F982A
:104CE00015B030BD30B595B0054600F033FF012258
:104CF00029466846FFF750FB6C469DF800008DF88A
:104D0000380001980F900298109003981190049821
:104D1000129005981390069814900B9818B90020DB
:104D2000099008900A900F9815B030BD30B595B035
:104D3000054600F0C3FE012229466846FFF72CFB1A
:104D40006C469DF800008DF8380001980F9002988D
:104D5000109003981190049812900598139006985B
:104D600014900F9842F21071B0FBF1F00F900B9875
:104D700018B90020099008900A900F9815B030BD1E
:104D800030B595B0054600F0CFFE012229466846B1
:104D9000FFF702FB6C469DF800008DF83800019883
:104DA0000F90029810900398119004981290059813
:104DB0001390069814900B9818B900200990089049
:104DC0000A900F9815B030BD30B595B0054600F08B
:104DD000D7FE012229466846FFF7DEFA6C469DF8A9
:104DE00000008DF8380001980F90029810900398F9
:104DF00011900498129005981390069814900F98AB
:104E000042F21071B0FBF1F00F900B9818B900202E
:104E1000099008900A900F9815B030BD30B595B044
:104E2000054600F0C3FE012229466846FFF7B4FAA2
:104E30006C469DF800008DF8380001980F9002989C
:104E4000109003981190049812900598139006986A
:104E500014900B9818B90020099008900A900F98A8
:104E600015B030BD10B500240FE0601C00EB40020F
:104E700002EBC0001A2202EB4000801E81B2012327
:104E800064225A2002F062FC641C072CEDD310BD92
:104E900070B500F04BF86FF07F401D4908601D4869
:104EA00048601D4890F8F80108B11C4E00E01C4E07
:104EB000002306F1B002042118460DF057FB6FF0F5
:104EC0007F40134908604FF050104860124890F836
:104ED000F80108B1134D00E0134D00240EE004EB7F
:104EE000440000EBC4004219162304FB03F01A30FF
:104EF00081B2002318460DF039FB641C072CEED359
:104F00006FF07F4002494860FFF7ACFF70BD0000C2
:104F1000F40000200352F300A01500205B4B0108B1
:104F2000694A0108F7510108AA51010810B500F0BB
:104F300065FDFDF7E5FF10BD7FB5044600208DF847
:104F40000700012C01D1012000E00020029002980E
:104F500020B14FF47F00F849486003E04FF0501053
:104F6000F5494860F54890F8F80108B1F44D00E0C3
:104F7000F44D122366221A215A2002F0E7FBEF4873
:104F800090F8F401C0EBC000421900231C215A2004
:104F90000DF0ECFA022C01D1012000E0002002907B
:104FA000029820B14FF47F00E349486003E04FF0DE
:104FB0005010E14948601223662230215A2002F045
:104FC000C5FBDE4890F8F501C0EBC000DE49421891
:104FD000002332215A200DF0C9FA032C01D10120FF
:104FE00000E000200290029820B14FF47F00D249E7
:104FF000486003E04FF05010CF494860CF4890F828
:10500000F80108B1CE4D00E0CE4D122366224621B4
:105010005A2002F09BFBC94890F8F601C0EBC00093
:105020004219002348215A200DF0A0FA042C01D186
:10503000012000E000200290029820B14FF47F0090
:10504000BD49486003E04FF05010BB494860BB4881
:1050500090F8F80108B1BA4D00E0BA4D122366226B
:105060005C215A2002F072FBB44890F8F701C0EBC3
:10507000C000421900235E215A200DF077FA052C5A
:1050800001D1012000E000200290029820B14FF4ED
:105090007F00A949486003E04FF05010A6494860DE
:1050A0001223662272215A2002F050FBA34890F886
:1050B000F801A64901EBC002002374215A200DF02B
:1050C00055FA01A9002005F0D3F86946002005F043
:1050D00095F8062C01D1012000E0002002900298F2
:1050E00020B14FF47F009449486003E04FF0501026
:1050F0009149486012231A4688215A2002F026FB63
:105100009DF8032092A193480DF0A6FA0023914A3E
:105110008A215A200DF02AFA4FF050108649486033
:1051200000238DA28A216E200DF020FA072C01D1D8
:10513000012000E000200290029820B14FF47F008F
:105140007D49486003E04FF050107B4948601223CE
:105150001A468821782002F0F9FA9DF801207CA1F6
:105160007C480DF079FA00237A4A8A2178200DF0E4
:10517000FDF94FF0501070494860002376A28A2153
:105180008C200DF0F3F9082C01D1012000E0002063
:105190000290029820B14FF47F006749486003E015
:1051A0004FF050106449486012231A468821982015
:1051B00002F0CCFA9DF8022065A166480DF04CFA89
:1051C0000023644A8A2198200DF0D0F9092C01D1DE
:1051D000012000E000200290029820B14FF47F00EF
:1051E0005549486003E04FF050105349486012237E
:1051F0001A469E215A2002F0A9FA9DF8042054A1D3
:1052000054480DF029FA0023524AA0215A200DF0EB
:10521000ADF94FF050104849486000234FA2A0213B
:105220006E200DF0A3F90A2C01D1012000E000202E
:105230000290029820B14FF47F003F49486003E09C
:105240004FF050103C49486012231A469E217820A6
:1052500002F07CFA9DF805203DA13E480DF0FCF9D6
:1052600000233C4AA02178200DF080F94FF0501027
:1052700031494860002339A2A0218C200DF076F935
:105280000B2C01D1012000E000200290029820B1F7
:105290004FF47F002849486003E04FF05010264942
:1052A000486012231A469E21982002F04FFA9DF87A
:1052B000062027A127480DF0CFF90023254AA02179
:1052C00098200DF053F90C2C01D1012000E00020B2
:1052D0000290029820B14FF47F001749486003E024
:1052E0004FF050101449486012236622B4215A200E
:1052F00002F02CFA00231A4AB6215A200DF036F992
:10530000FDF7FEFD6FF07F400B49086015484860CF
:105310000C2C7DD2DFE804F00609446084A6C1C2EB
:10532000C3C4C5C6FDF794F9D8E0044890F8F80165
:10533000D0B1034D19E00000F4000020A0150020BA
:10534000EF4F0108B04F0108445201087C52010898
:1053500025326400C02100202D0000003A0000002A
:1053600099170020380031005D4D0020039013E0B4
:105370000399C1EBC1014A190399C1EB011303EB76
:105380004111202303EB410188B20023F1210DF0EC
:10539000EDF80398401C039003980228E8D39DE0A1
:1053A0000020039014E00399C1EBC1014D4BCA18D2
:1053B0000399C1EB011303EB4111202303EB4101DE
:1053C00088B20023F1210DF0D1F80398401C03901E
:1053D00003980528E7D381E0434890F8F80108B125
:1053E000424D00E03E4D0020039015E00399C1EBD3
:1053F000C1014A190399C1EB011303EB41112023A9
:1054000003EB410188B20023F1210DF0AFF800E079
:1054100063E00398401C039003980228E6D35DE004
:10542000314890F8F80108B1304D00E02C4D0020D3
:10543000039013E00399C1EBC1014A190399C1EB31
:10544000011303EB4111202303EB410188B2002338
:10545000F1210DF08BF80398401C0390039802286B
:10546000E8D33BE00020039013E02149039B01EBCC
:10547000C3021946C3EB011303EB4111202303EBD5
:10548000410188B20023F1210DF070F80398401C0F
:10549000039003980228E8D320E000BF00BF00BFBC
:1054A00000BF00BF0020039013E01249039B01EBF3
:1054B000C3021946C3EB011303EB4111202303EB95
:1054C000410188B20023F1210DF050F80398401CEF
:1054D000039003980228E8D300E000BF00BF7FBD1F
:1054E000B04F010844520108A0150020EF4F0108F9
:1054F0007C5201088C52010810B500F07FFAFDF7CC
:10550000FFFCFEF729FF10BD10B500F077FAFDF79C
:10551000F7FC10BD70B5FFF7EFFF6FF07F4040491B
:10552000086040484860404890F8F80108B13F4E94
:1055300000E03F4E00233246042118460DF016F8D5
:105540006FF07F40364908604FF050104860364891
:1055500090F8F80108B1374D00E0374D002424E001
:10556000022C10D204EB840005EB400204EB440053
:1055700000EBC4001A2303EB400081B2002318465D
:105580000CF0F4FF10E004EB840005EB4002E01E99
:1055900000EB400303EBC0001A2303EB400081B291
:1055A0000023FA200CF0E2FF641C002CD8D0234822
:1055B0001B49086022484860224890F8D000012822
:1055C00029D1002320A250214FF49B700CF0CEFF74
:1055D00000231EA264214FF49B700CF0C7FF002330
:1055E0001BA278214FF49B700CF0C0FF002319A27E
:1055F0008C214FF49B700CF0B9FF002316A2A02160
:105600004FF49B700CF0B2FF002314A2B4214FF4AE
:105610009B700CF0ABFF0020FDF720F870BD000080
:10562000F40000200352F300A01500205B4B01089A
:10563000694A0108054A010829480108C0C0C0009C
:1056400065343400BC13002056483A00564C3A00EA
:1056500043483A00434C3A0050483A00504C3A0014
:1056600070B5FFF751FF6FF07F4030490860304858
:105670004860304890F8F80108B12F4E00E02F4EF6
:10568000002306F15802042118460CF06FFF6FF05A
:105690007F40264908604FF050104860254890F838
:1056A000F80108B1264D00E0264D002438E0062C14
:1056B0001AD2022C06D9082C04D24FF050101B49E4
:1056C000486003E04FF050101849486004EB840034
:1056D00005EB4002162304FB03F01A3081B20023CD
:1056E00018460CF043FF1AE0A01F022806D908282C
:1056F00004D24FF050100D49486003E04FF05010B5
:105700000A49486004EB840005EB4002A01F162301
:1057100058431A3081B20023FA200CF027FF641C92
:105720000C2CC4D30020FCF799FF70BDF4000020BE
:105730000352F300A01500205B4B0108694A0108E1
:10574000334D01084D4C01087CB504469E48407815
:1057500004280FDA4FF050109C4948609A4840786E
:1057600000EB80009A4901EB400200231A21FA2045
:105770000CF0FCFE974890F8F80108B1964D00E057
:10578000964D012C01D1012000E0002000900098EE
:1057900020B14FF47F008D49486003E04FF0501076
:1057A0008A49486014235C221821582001F0CEFF5A
:1057B0006FF07F408549086083484078C0EBC000A7
:1057C000421900231A2158200CF0D0FE022C01D1DE
:1057D000012000E000200090009820B14FF47F00ED
:1057E0007A49486003E04FF050107849486014232C
:1057F0006E2218214FF4A87001F0A8FF009858B34A
:1058000077480078012827D1764870494860764863
:10581000007805280EDA7449097801EB81014FF40C
:10582000D172A2EB410188B2022308222A2101F0A1
:105830008DFF0DE06C49097801EB81014FF4CC72CA
:10584000A2EB410188B2022308222A2101F07EFF47
:105850004FF47F005D4948606FF07F405B4908600E
:105860005948407838B958498868002307220421EC
:1058700001F0C0FB22E054484078012807D152498A
:10588000486800230722042101F0B4FB16E04E48CB
:105890004078022807D14C49C86800230722042118
:1058A00001F0A8FB0AE048484078032806D14649A1
:1058B000086900230722042101F09CFB00234B4AC6
:1058C0001A214FF4A9700CF051FE3F484078484926
:1058D00001EB800200231A214FF4D2700CF046FE37
:1058E00042480078202807D140484078202803D13A
:1058F00005204049087016E03C480078202807D170
:105900003A484078202803D006203A4908700AE037
:1059100036480078202806D034484078202802D025
:10592000072034490870022C03D10120FDF732FB17
:1059300008E0012C03D10620FDF72CFB02E0032038
:10594000FDF728FB24B1012C06D0022C39D135E01B
:105950000020FCF783FE35E0FDF7D2FA6FF07F40C0
:105960001A490860244848601A4890F8F80108B1BC
:10597000194D00E0194D0020019013E00199C1EB91
:10598000C1014A190199C1EB011303EB4111202315
:1059900003EB410188B20023F1210CF0E7FD0198EF
:1059A000401C019001980428E8D3002305F12A0245
:1059B000F1214FF4CC700CF0D9FD03E0FDF7A0FA13
:1059C00000BF00BF00BF7CBDBC130020F40000205E
:1059D000414A0108A01500209F4E0108E74D01082B
:1059E000BC00002000FFFF00B7000020C021002005
:1059F00063510108B80000203800310010B5054897
:105A0000054948601623AA220021084601F09EFE9F
:105A100010BD00000352F300F400002010B500F0A8
:105A200031F86FF07F401349086013484860002345
:105A3000124A042118460CF099FD6FF07F400D4981
:105A400008604FF05010486000240FE004EB840021
:105A500000EBC4000A4BC21804EB840080001A302B
:105A600081B2002318460CF081FD641C0A2CEDD392
:105A700010BD0000F40000200352F300D74A0108D3
:105A8000A747010810B5FFF7B9FFFDF739FA10BDB8
:105A900010B5FDF735FA0648064948606FF07F40BB
:105AA00008600023044AF12120200CF05FFD10BDA6
:105AB00038003100F4000020DB49010810B5FDF783
:105AC0001FFA074C0748084948606FF07F4008609C
:105AD000002304F12402F12120200CF047FD10BD29
