:020000040800F2
:10000000C8E30020C101000839B10008D38000080E
:1000100005B0000851130008413F0108000000002E
:10002000000000000000000000000000E1D3000814
:100030003116000800000000CDBB00082DEF0008BD
:10004000DB010008DB010008DB01000835C6000801
:10005000DB010008DB010008DB010008DB01000810
:10006000DB010008D5720008DB010008DB01000895
:10007000DB010008DB010008DB010008DB010008F0
:10008000DB010008DB010008DB010008DB010008E0
:10009000DB010008DB010008DB010008DB010008D0
:1000A000DB010008DB010008DB010008DB010008C0
:1000B00093F10008DB010008DB010008DB01000808
:1000C000DB010008DB010008DB010008DB010008A0
:1000D000DB01000879050108DB010008DB010008ED
:1000E000BD720008DB010008DB010008DB0100082D
:1000F000DB010008DB010008DB010008DB01000870
:10010000DB010008DB010008DB010008DB0100085F
:10011000DB010008DB010008A9F10008DB01000891
:10012000DB010008DB010008DB010008DB0100083F
:10013000DB010008DB010008DB010008DB0100082F
:10014000DB010008DB010008DB010008DB0100081F
:10015000DB010008DB010008DB010008DB0100080F
:10016000DB010008DB010008DB010008DB010008FF
:10017000DB01000805B20008DB010008DB01000814
:10018000DB010008DB010008DB010008DB010008DF
:10019000DB010008DB010008DB010008DB010008CF
:1001A000DB010008DB010008DB010008DFF80CD0F0
:1001B00000F0F6FA00480047B1760108C8E30020D5
:1001C0000648804706480047FEE7FEE7FEE7FEE7F1
:1001D000FEE7FEE7FEE7FEE7FEE7FEE709F00008C0
:1001E000AD01000840EA01039B0703D009E008C9FC
:1001F000121F08C0042AFAD203E011F8013B00F8EC
:10020000013B521EF9D27047D2B201E000F8012B37
:10021000491EFBD270470022F6E710B513460A4686
:1002200004461946FFF7F0FF204610BD10B5002226
:1002300000E0521C835C8C5CA34201D1002BF8D1FE
:10024000D8B2E1B2401A10BD2DE9FE4F804681EAD6
:100250000300C00F0C46009021F0004123F0004540
:10026000B8EB0200A94105D24046214690461C4603
:100270000B46024623F00040104347D0270DC7F33A
:100280000A00C3F30A510290401A019040286BDA29
:10029000C3F3130040F4801B0098924620B1002362
:1002A000D2EB030A63EB0B0B01985946C0F14002F5
:1002B000504600F0B7F906460D4650465946019A99
:1002C00000F0CFF910EB08006141002487EA1152D9
:1002D00084EAE7731A4340D0009A62B3019A012A74
:1002E0004FEA075215DC001B61EB02014FF00042A0
:1002F00002EA0752CDE90042001C41F58011324666
:100300002B4600F0CFF903B0BDE8F08F4046214600
:10031000F9E7001B61EB0201001C41F58013001896
:100320005B412018A2F5001747EB030140EAD570A6
:10033000B6196D4111E06D084FEA360645EAC07501
:100340004FEA0752001B61EB0201001C41F58011CE
:1003500049084FEA30000019514132462B4603B09C
:10036000BDE8F04F00F08FB9009801224000002353
:10037000D0EB020263EBE073009821464FEAE07491
:10038000B8EB000061EB0401E9E783F000435BE7B1
:1003900081F0004158E72DE9FE4F81EA030404F0A3
:1003A000004421F0004100944FF0000B23F0004383
:1003B00050EA01045ED052EA03045BD0C3F30A544E
:1003C000C1F30A552C44A4F2F3340194A0FB025467
:1003D000C1F3130141F48011C3F3130343F48013F9
:1003E00001FB024400FB034E840A970A44EA81544D
:1003F00047EA8357A4FB076802958D0A05FB07852A
:100400004FEA932C04FB0C542705029D4FEA065833
:1004100047EA1637B5EB08056EEB070C870E920E10
:1004200047EA811742EA8312A7FB0201B6EB0B01F0
:1004300064EB00042B0D43EA0C335E1844EB1C50B4
:10044000DA465146E7FB0201C5F313044FEA0B33CA
:1004500043EA14534FEA0432019C43EA0603A4F131
:100460000C040294009CCDE900B400F01BF903B029
:10047000BDE8F08F00200146F9E72DE9F04D81EA53
:10048000030404F0004B21F0004514464FF0000A2D
:1004900023F0004150EA050220D054EA01021DD0A9
:1004A000C5F30A570246C5F31303C1F31300C1F3A2
:1004B0000A5640F4801543F48013A7EB0608101B7E
:1004C000D64608F2FD3873EB050002D308F10108A7
:1004D00001E092185B41B8F1000F03DA00200146F9
:1004E000BDE8F08D00204FF48011064684460EE0F2
:1004F000171B73EB050705D3121B63EB05030643BC
:100500004CEA010C49084FEA300092185B4150EA6E
:100510000107EDD152EA030012D082EA040083EA17
:100520000501084305D0101BAB4106D20122002370
:1005300006E000224FF0004302E06FF0010253108A
:100540001AEB06004CEB085110EB0A0041EB0B01D3
:10055000BDE8F04D00F097B80EB5C10F80EAE0702D
:100560000844CA07002140F233438DE80E000A46D2
:100570000B4600F097F803B000BD0EB540F23341D2
:1005800002910021CDE900110A460B4600F08AF8DD
:1005900003B000BDC1F30A5210B5C1F3130140F21C
:1005A000FF3341F480119A4201DA002010BD40F27D
:1005B00033439A42A2F2334203DC524200F041F844
:1005C00010BD904010BD000030B5041E71F1000454
:1005D00004DB4FF00044404264EB0101141E73F150
:1005E000000405DB1C464FF00043524263EB04035A
:1005F0008B4208BF824230BD30B50B460146002019
:100600002022012409E021FA02F59D4205D303FAD4
:1006100002F5491B04FA02F52844151EA2F1010255
:10062000F1DC30BD202A04DB203A00FA02F1002080
:1006300070479140C2F1200320FA03F31943904020
:100640007047202A04DB203A21FA02F0002170478B
:1006500021FA02F3D040C2F120029140084319462A
:100660007047202A06DBCB17203A41FA02F043EA12
:10067000E07306E041FA02F3D040C2F1200291405B
:1006800008431946704710B5141E73F1000408DAC8
:10069000401C41F1000192185B411A4301D120F046
:1006A000010010BD2DE9F04D92469B4611B1B1FA03
:1006B00081F202E0B0FA80F220329046FFF7B2FFFA
:1006C00004460F4640EA0A0041EA0B0153465A46E7
:1006D000084313D0114653EA010019D0C8F1400273
:1006E0005046FFF7AEFF05460E4650465946424675
:1006F000FFF798FF084305D0012004E02046394663
:10070000BDE8F08D0020054346EAE0762C433743F0
:100710000A986305E40AA0EB08000022FD0A44EAF7
:1007200047540A3002D500200146E9E701051019B7
:100730006941DDE9084500196941BDE8F04DA2E7CE
:1007400070B521F0004303430CD0C1F30A550024D7
:10075000D5EB040564EB0403D617AD1AB34102DBF5
:100760000020014670BD201841EB025170BD000011
:1007700030B5041E71F1000404DB4FF00044404228
:1007800064EB0101141E73F1000405DB1C464FF0FD
:100790000043524263EB0403994208BF904230BDCC
:1007A000064C074D06E0E06840F0010394E80700BE
:1007B00098471034AC42F6D3FFF7FCFC88160B08C0
:1007C000A8160B082DE9F04D00231A461B1A8A4182
:1007D00003DB00200146BDE8F08DC1F30A52C1F3EE
:1007E000130141F480154FF0000BD10702D100181E
:1007F0006D41521E0027044640F2FF11384601EBBE
:10080000620A3E468046024600204FF48011FFF700
:1008100018FFC2197141BB1846EB0100B4EB030C81
:1008200075EB000C04D3E41A65EB000517460E4681
:10083000241908F101006D4180463428E3DDF919DF
:1008400046EB0600091BA84103D24FF0FF321346C6
:1008500001E0002213461BEB070046EB0A51BDE8FE
:10086000F04DFFF710BF70B58C1810F8015B15F054
:10087000070301D110F8013B2A1106D110F8012B12
:1008800003E010F8016B01F8016B5B1EF9D12B0737
:1008900005D40023521E0DD401F8013BFAE710F8ED
:1008A000013BCB1A921C03E013F8015B01F8015BDA
:1008B000521EF9D5A142D8D3002070BD70B50546AF
:1008C0000C4608480560204600F00EF800BF0548B9
:1008D00000680028FBD100214FF080400EF06BFF34
:1008E00070BD0000B80100203EB5044600214FF065
:1008F00080400EF060FF0022012188070FF0A2F86F
:10090000022C02D10B20019004E0012C02D142F60E
:10091000DF6001900520ADF800000020ADF8080070
:10092000ADF8020069464FF080400FF0E1F8012178
:1009300088070EF03DFF012188070EF02AFF0122F3
:10094000114690070FF07EF8012188070EF033FF63
:100950003EBD000010B5C8211448FFF75CFC012023
:100960001249087006204870002088700D20C87059
:1009700000200871487188710D4890F85800C871BE
:1009800008210A4807F0A7FB00120849087208214D
:10099000064807F0A0FB054948720A21034813F0F6
:1009A000D1FA01200349087010BD00006244002004
:1009B000EC1300204801002070B504460D4659484C
:1009C000594948602CBB59480068642806D2002366
:1009D00007220421184607F0BBFB06E05349002319
:1009E00007220868042107F0B3FB504900230722BF
:1009F0000868042107F0ACFB00234D4A82215020F7
:100A000013F09CFF00234BA28221A02013F096FF3D
:100A10001FE0012C1DD145480068642806D2002340
:100A200006220321184607F093FB06E03F49002306
:100A300006220868032107F08BFB00233C4A822131
:100A4000502013F07BFF00233AA28221A02013F054
:100A500075FF9DB93549002307224868042107F036
:100A600077FB0023324AA021502013F067FF0023B8
:100A700031A2A021084613F061FF14E0012D12D12C
:100A80002A49002306224868032107F061FB00235E
:100A9000274AA021502013F051FF002326A2A021B5
:100AA000084613F04BFF214900230622C8680321A2
:100AB00007F04EFB00231E4ABE21502013F03EFFDC
:100AC00000231EA2BE21A02013F038FF17490023E7
:100AD00007228868042107F03BFB0023144A822187
:100AE0004FF48C7013F02AFF002315A282214FF4DB
:100AF000B47013F023FF0D4900230622886F1946B6
:100B000007F026FB00230A4AA0214FF48C7013F053
:100B100015FF00230BA2A0214FF4B47013F00EFFB9
:100B200070BD00006534340000010020E41800208E
:100B30000423002056000000410000005700000080
:100B4000A6B800006D41480070B586B00020049042
:100B5000002400250126FB490870FB4908704FF06E
:100B6000501007F06DFE002001F0F6FD002003900C
:100B70000CF0DEFEBEE3BDF81000401C80B2049015
:100B8000204606F037FCC5B2F0480078012801D1B4
:100B900001262C466FF07F40ED490860ED48007853
:100BA00038B10020EB49087005F0F2FE0020EA4958
:100BB0000870EA480078012804D10020E74908704D
:100BC0000BF010FE012E03D1204601F039FB002668
:100BD000DC480078012804D10BF0D2FD0020D9496F
:100BE0000870DF4890F86D0138B9DE4A92F820109D
:100BF00092F82100FFF7E0FE22E0D94890F86D015D
:100C000001281DD10AF000FA02F0B0FB6FF07F401E
:100C1000CF490860D44848600023D4A2F1214FF4A2
:100C2000CC7013F08BFE0220CD4981F86D01CD48C8
:100C3000B0F8DC01401CCB49A1F8DC010EF058F9FA
:100C4000CC48007870B1CC480078052805D10CF06C
:100C50006FFE0020C849087004E0C7480078401CB7
:100C6000C5490870C5484078012870D1C44800784B
:100C70000028FAD1C14880780028F6D1012607F073
:100C800075FC05909DF81400BE4908709DF814008D
:100C900000285CD09DF81400202873D2DFE800F013
:100CA00072D0D1D2FCFBD5D4D3D6D7D8FADAD9F9C1
:100CB00063584C31107272F8F789B072F67272F59F
:100CC00014B1012C1AD106E0AF48007810B9062003
:100CD000AE49087013E0AC48007870B90020A14913
:100CE00081F858000CF024FE4FF0501007F0A8FDDA
:100CF000012001F031FD0EF0FBF800E000BF00BF65
:100D0000F7E214B1012C14D100E013E09E48007802
:100D100070B90220934981F858000CF009FE4FF099
:100D2000501007F08DFD012001F016FD0EF0E0F8E7
:100D300000E000BF00BFDCE234B99348007810B98E
:100D400016209249087000E000BF00BFD1E2D1E256
:100D500034B98D48007810B917208C49087000E02C
:100D600000BF00BFC5E27E4890F86D0188B914B19C
:100D7000012C0CD107E08448007810B90D2083497C
:100D8000087005E0B4E204207649487000E000BF36
:100D90000EE0734890F86C0150B90020704981F85A
:100DA0006D014FF0501007F04BFD002001F0D4FC16
:100DB0009FE26C4890F8580058B9052C02DD201FBE
:100DC000C4B21CE0032C1ADA002C18DD601EC4B279
:100DD00015E0644890F85800022810D1062C01D183
:100DE00002240CE0052C01D1022408E0022C02D1DF
:100DF000601EC4B203E0012C01D1601EC4B278E2CF
:100E0000584890F8580058B9052C04DA012C02DD36
:100E1000201DC4B213E0022C11DA601CC4B20EE033
:100E2000504890F85800022809D1022C01D106241C
:100E300005E0012C01D1022401E004B9012458E2AB
:100E400000BF00BF00BF00BF00BF00BF00BF00BFAA
:100E500000BF00BFA01E072872D2DFE800F0043DEB
:100E600057FF99C9E4004848007890BB3D4890F886
:100E70005800B8B97620ADF804003020ADF806006F
:100E80004C20ADF8080001A807E00CE11AE122E2CD
:100E9000E7E0E7E00FE107E145E104F0B0FB3149AD
:100EA000C86512E02F4890F8580002280DD176202E
:100EB000ADF804003020ADF806005020ADF8080071
:100EC00001A804F0E4FB274988670AF0D7F90CF081
:100ED0002FFD0EF00DF8C2E02B480078A8B921488C
:100EE00090F8580068B97620ADF804004620ADF8B7
:100EF00006004C20ADF8080001A804F080FB194959
:100F000008660AF0BBF90DF0F3FFA8E01E48007870
:100F1000A8B9144890F8580068B97620ADF80400D4
:100F20005C20ADF806004C20ADF8080001A804F0E4
:100F300066FB0C4948660AF0A1F90DF0D9FF8EE076
:100F40008CE000005500002057000020FA0000202F
:100F5000000100207E000020A20000203D000020B3
:100F6000E4180020EC13002038003100C8B7C8CFC7
:100F70000000000048010020BA000020F00000201E
:100F8000D8000020BB000020B6000020590000203F
:100F9000DC48007858BBDC4890F8580078B94FF42A
:100FA000B870ADF804003020ADF806004C20ADF864
:100FB000080001A804F037FCD349C86613E0D24802
:100FC00090F8580002280ED14FF4B870ADF8040024
:100FD0003020ADF806004C20ADF8080001A804F060
:100FE00022FCC949C8670AF049F90DF081FF36E0D3
:100FF000C4480078B0B9C44890F8580070B94FF4AC
:10100000B870ADF804004620ADF806004C20ADF8ED
:10101000080001A804F007FCBB4908670AF02EF994
:101020000DF066FF1BE0B7480078B0B9B64890F8FD
:10103000580070B94FF4B870ADF804005C20ADF8FA
:1010400006004C20ADF8080001A804F0ECFBAE4906
:1010500048670AF013F90DF04BFF00E000BF00BF36
:1010600047E146E1A748007890B90320A7490870F6
:101070000DF054FF0120A64908709FEDA60AA6486E
:1010800080ED1D0A01209F4908700CF051FC09E019
:1010900003209E49087000209A4908700CF048FC13
:1010A0000DF034FF25E124E19648007810B91220B4
:1010B0009A4908701DE19348007810B906209749B5
:1010C000087016E1012C2DD18F4890F8580090B986
:1010D0008C48007830BB02208B4981F858000CF016
:1010E00027FC4FF0501007F0ABFB012001F034FB60
:1010F0000DF0FEFE16E0844890F85800022811D149
:101100008048007870B900207F4981F858000CF0C1
:101110000FFC4FF0501007F093FB012001F01CFB77
:101120000DF0E6FEE5E0A01E07287CD2DFE800F027
:1011300004344ED0689AB5007248007848BB7248B3
:1011400090F8580070B97620ADF804003020ADF862
:1011500006004C20ADF8080001A804F050FA6A49D6
:10116000C86512E0684890F8580002280DD1762032
:10117000ADF804003020ADF806005020ADF80800AE
:1011800001A804F084FA604988670AF077F80CF047
:10119000CFFB0DF0ADFE9CE05A480078A8B95A4844
:1011A00090F8580068B97620ADF804004620ADF8F4
:1011B00006004C20ADF8080001A804F020FA5249BE
:1011C00008660AF05BF80DF093FE82E04D48007867
:1011D000A8B94D4890F8580068B97620ADF80400D9
:1011E0005C20ADF806004C20ADF8080001A804F022
:1011F00006FA454948660AF041F80DF079FE68E0C4
:101200004048007868BB404890F8580088B94FF4CF
:10121000B870ADF804003020ADF806004C20ADF8F1
:10122000080001A800E053E004F0FDFA3649C86662
:1012300013E0354890F8580002280ED14FF4B870EA
:10124000ADF804003020ADF806004C20ADF80800E1
:1012500001A804F0E8FA2C49C8670AF00FF80DF06D
:1012600047FE36E027480078B0B9274890F8580084
:1012700070B94FF4B870ADF804004620ADF8060020
:101280004C20ADF8080001A804F0CDFA1E4908670B
:1012900009F0F4FF0DF02CFE1BE01A480078B0B9FD
:1012A000194890F8580070B94FF4B870ADF80400C0
:1012B0005C20ADF806004C20ADF8080001A804F051
:1012C000B2FA1149486709F0D9FF0DF011FE00E0AC
:1012D00000BF00BF0DE012484FF488734FF4F07266
:1012E0000021009008460CF07DF80E49087000E0DF
:1012F00000BF00BF0948007815283FF43CAC06B099
:1013000070BD0000B6000020EC130020B9000020E2
:101310003400002000000000E418002059000020E4
:1013200044440020B200002010B54FF48061024810
:1013300006F042FE10BD00000008024010B54FF458
:101340008061024806F03AFE10BD0000000802402D
:1013500000BFFEE710B50446C8216848FEF75BFFF2
:101360000120664908706648007810B90846847004
:1013700007E063480078012803D104F110005F49B9
:101380008870A5205D4948705D48007800284BD1E1
:10139000012C05D0022C03D0092C01D00A2C1BD122
:1013A000601E584951F82000000E5449C870601E54
:1013B000544951F82000000C50490871601E5149F1
:1013C00031F82000000A4D494871601E4D4911F85E
:1013D00020004A4988717EE0601E4A4951F8200089
:1013E0000A21B0FBF1F0000E4449C870601E454967
:1013F00051F820000A21B0FBF1F0000C3F490871C0
:10140000601E404951F820000A21B0FBF1F0000AAB
:101410003A494871601E3B4951F820000A21B0FB4F
:10142000F1F03649887156E035480078012852D1EC
:10143000012C05D0022C03D0032C01D0042C1FD189
:1014400004F10F002F4951F82000000E2B49C870FD
:1014500004F10F002B4951F82000000C27490871B6
:1014600004F10F00274931F82000000A2349487190
:1014700004F10F00234911F82000204988712AE067
:1014800004F10F001F4951F820000A21B0FBF1F0D0
:10149000000E1A49C87004F10F001A4951F82000D3
:1014A0000A21B0FBF1F0000C1449087104F10F009F
:1014B000144951F820000A21B0FBF1F0000A0F494D
:1014C000487104F10F000F4951F820000A21B0FBC8
:1014D000F1F00A4988710721084806F0FCFD001266
:1014E0000649C8710721054806F0F5FD0349087251
:1014F0000921024812F026FD10BD000062440020C0
:10150000BE000020F418002010B50121C8050AF023
:1015100073FC00214FF400000AF06EFC10BD0000C7
:1015200001460020034A52680A400AB1012000E047
:101530000020704700B0024070B500210022002357
:101540000024344D2D68344E3540324E35603546DA
:101550002D68066835432F4E356035466D6B25F096
:101560000705756335466D6B46683543294E7563CF
:10157000456835B9C5682902058A2A04057D2B0608
:1015800021E04568012D05D1C5682902058A2A0494
:10159000002318E04568022D05D1C5686901056979
:1015A000EA0200230FE04568032D06D1C5686901F2
:1015B0000569AA024569EB0305E0C56829010569CB
:1015C0002A0245692B0341EA0205866835431D431B
:1015D000104EB66B35430F4EB5638569F5633546DE
:1015E0002D6C6FF30D05356435462D6CC66935439A
:1015F000084E3564858C2C0435466D6C05F04045ED
:10160000756435466D6C066A26433543014E756434
:1016100070BD000000B00240FCE0FCFF0348006821
:1016200040F00100014908607047000000B002402E
:101630007047000010B586B00446012108460AF044
:10164000CBFB012110200AF017FC07220A212148B8
:1016500006F086FC072209211E4806F081FC0020C6
:101660008DF8160001208DF8170002208DF8140067
:101670000002049002208DF8150004A9154806F018
:1016800027FC02208DF814004002049004A91148A0
:1016900006F01EFC00940020ADF80400ADF8060032
:1016A000ADF80800ADF80C000C20ADF80A00694652
:1016B00009480FF04DF809F040FD012240F2255194
:1016C00005480FF01FF8012103480EF0D8FF06B0BF
:1016D00010BD000000000240001001407CB504462F
:1016E0006FF07F40F7490860012C01D1012000E034
:1016F00000200090009820B14FF47F00F14948602D
:1017000003E04FF05010EF494860EF4900230722F3
:10171000D1F8B800042106F01BFD122368221A211B
:10172000582007F0C1F80023E84A1A21582013F086
:1017300005F90023E64A1A21AA2013F0FFF8022C2B
:1017400001D1012000E000200090009820B14FF46A
:101750007F00DC49486003E04FF05010D9494860F1
:10176000D94900230722D1F8BC00042106F0F0FC7F
:10177000122368222E21582007F096F80023D34A1E
:101780003021582013F0DAF80023D14A3021AA2062
:1017900013F0D4F8032C01D1012000E000200090C8
:1017A000009820B14FF47F00C649486003E04FF035
:1017B0005010C4494860C44900230722D1F8C00032
:1017C000042106F0C5FC122368224621582007F0A8
:1017D0006BF80023BD4A4621582013F0AFF80023D0
:1017E000BB4A08324621AA2013F0A8F8042C01D1E4
:1017F000012000E000200090009820B14FF47F000D
:10180000B049486003E04FF05010AE494860AE491F
:1018100000230722D1F8C400042106F099FC12230A
:101820007A225A21582007F03FF80023A74A5C216A
:10183000582013F083F80023A54A08325C21AA201F
:1018400013F07CF8052C01D1012000E0002000906D
:10185000009820B14FF47F009A49486003E04FF0B0
:10186000501098494860984900230822D1F8C800D0
:10187000042106F06DFC12237A227021582007F013
:1018800013F80023914A7221582013F057F80023CF
:101890008F4A10327221B42013F050F8062C01D177
:1018A000012000E000200090009820B14FF47F005C
:1018B0008449486003E04FF05010824948608249F3
:1018C00000230822D1F8CC00042106F041FC1223A9
:1018D0007A228621582006F0E7FF00237B4A8821E0
:1018E000582013F02BF80023794A10328821B420B5
:1018F00013F024F8072C01D1012000E00020009013
:10190000009820B14FF47F006E49486003E04FF02B
:1019100050106C4948606C4890F8D50008B16D4D86
:1019200000E06D4D12237A2218214FF4A97006F0C1
:10193000BBFF654890F8D000C0EBC00042190023FF
:101940001A214FF4A97012F0F9FF082C01D10120DF
:1019500000E000200090009820B14FF47F0059492A
:10196000486003E04FF0501056494860564890F8E0
:10197000D50008B1594D00E0594D12237A222E218D
:101980004FF4A97006F090FF4F4890F8D100C0EBDB
:10199000C0004219002330214FF4A97012F0CEFF8D
:1019A000092C01D1012000E000200090009820B116
:1019B0004FF47F004349486003E04FF05010414925
:1019C0004860414890F8D50008B1424D00E0424DD2
:1019D00012237A2244214FF4A97006F065FF3A4899
:1019E00090F8D200C0EBC0004219002346214FF40A
:1019F000A97012F0A3FF0A2C01D1012000E0002001
:101A00000090009820B14FF47F002E49486003E019
:101A10004FF050102B4948602B4890F8D50008B182
:101A20002C4D00E02C4D12237A225A214FF4A9703C
:101A300006F03AFF244890F8D300C0EBC0004219EA
:101A400000235C214FF4A97012F078FF0B2C01D118
:101A5000012000E000200090009820B14FF47F00AA
:101A60001849486003E04FF0501016494860164886
:101A700090F8D50008B1174D00E0174D12237A22D7
:101A800070214FF4A97006F00FFF0F4890F8D400B2
:101A9000C0EBC0004219002372214FF4A97012F06C
:101AA0004DFF072C22D2DFE804F01D0405060708CD
:101AB000090000BF00BF00BF00BF00BF022001F04F
:101AC0009FFC17E000010020EC13002004230020FD
:101AD000248D0108B68B0108628B01087E8B0108FA
:101AE000708B0108042001F08BFC03E0072001F05B
:101AF00087FC00BF00BF01F039FC0C2C64D2DFE88A
:101B000004F0060A0B0C0D0E0F3810393A3B032077
:101B100000F0DAFE59E000BF00BF00BF00BF00BF09
:101B200053E06FF07F402A4908602A4848602A48FD
:101B300090F8D50008B1294D00E0294D0020019012
:101B400013E00199C1EBC1014A190199C1EB0113DD
:101B500003EB4111202303EB410188B20023F12163
:101B600012F0ECFE0198401C019001980228E8D385
:101B70002BE000BF00BF00BF6FF07F40144908603A
:101B800014484860144890F8D50008B1154D00E09D
:101B9000154D0020019013E00199C1EBC1014A19D4
:101BA0000199C1EB011303EB4111202303EB410128
:101BB00088B20023F12112F0C1FE0198401C01906F
:101BC00001980228E8D300E000BF00BF7CBD000000
:101BD0000001002038003100EC1300207E8B01084A
:101BE000708B0108B68B0108628B01087CB5044636
:101BF0006FF07F40FE490860012C01D1012000E018
:101C000000200090009820B14FF47F00F849486010
:101C100003E04FF05010F6494860F64890F8D500C0
:101C200008B1F54D00E0F54D122368221A21582025
:101C300006F03AFEEF480078C0EBC00042190023DE
:101C40001A21582012F07AFE022C01D1012000E066
:101C500000200090009820B14FF47F00E4494860D4
:101C600003E04FF05010E2494860E24890F8D50098
:101C700008B1E34D00E0E34D122368222E215820E5
:101C800006F012FEDB4890F82000C0EBC0004219BD
:101C900000233021582012F051FE032C01D10120E5
:101CA00000E000200090009820B14FF47F00D04960
:101CB000486003E04FF05010CD494860CD4890F89F
:101CC000D50008B1CE4D00E0CE4D1223682246214A
:101CD000582006F0E9FDC74890F82100C0EBC0008D
:101CE000421900234621582012F028FE042C01D16D
:101CF000012000E000200090009820B14FF47F0008
:101D0000BB49486003E04FF05010B9494860B949F9
:101D1000486A00230722042106F01AFA12237A22C5
:101D20005A21582006F0C0FD0023B74A5C215820F4
:101D300012F004FE0023B54A5C21AA2012F0FEFD39
:101D4000052C01D1012000E000200090009820B176
:101D50004FF47F00A649486003E04FF05010A449BB
:101D60004860A449886A00230722042106F0F0F99C
:101D700012237A227021582006F096FD0023A24AF1
:101D80007221582012F0DAFD0023A04A7221AA2005
:101D900012F0D4FD062C01D1012000E000200090BB
:101DA000009820B14FF47F009149486003E04FF064
:101DB00050108F4948608F49886C00230722042106
:101DC00006F0C6F912237A228621582006F06CFD0F
:101DD00000238D4A8821582012F0B0FD00238CA2E8
:101DE0008821AA2012F0AAFD072C01D1012000E0D1
:101DF00000200090009820B14FF47F007C4948609B
:101E000003E04FF050107A4948607A48006BE0B127
:101E10007849086B00230622194606F099F9122327
:101E20007A2218214FF4A97006F03EFD0023764A6D
:101E30001A214FF4A97012F081FD0023764A1A216D
:101E40004FF4C77012F07AFD19E012237A2218219C
:101E50004FF4A97006F028FD664890F8D50038B90F
:101E600000236EA21A214FF4A97012F067FD06E05C
:101E700000236CA21A214FF4A97012F05FFD082C08
:101E800001D1012000E000200090009820B14FF423
:101E90007F005749486003E04FF0501054494860B4
:101EA000544890F8D50008B15F4D00E05F4D5149AE
:101EB000486B00230722042106F04AF912237A22F4
:101EC0002E214FF4A97006F0EFFC00234E4A30217A
:101ED0004FF4A97012F032FD00234C4A0832302131
:101EE0004FF4D27012F02AFD092C01D1012000E03C
:101EF00000200090009820B14FF47F003C494860DA
:101F000003E04FF050103A4948603A49886B00238B
:101F10000722042106F01CF912237A2244214FF4EF
:101F2000A97006F0C1FC0023374A46214FF4A9707E
:101F300012F004FD0023354A46214FF4D27012F00E
:101F4000FDFC0A2C01D1012000E000200090009847
:101F500020B14FF47F002649486003E04FF0501055
:101F6000234948602349C86B00230822042106F056
:101F7000EFF812237A225A214FF4A97006F094FC4C
:101F80000023214A5C214FF4A97012F0D7FC0023F2
:101F90001E4A10325C214FF4D77012F0CFFC0B2C8C
:101FA00001D1012000E000200090009820B14FF402
:101FB0007F000F49486003E04FF050100C49486023
:101FC0000C49086C00230522042106F0C1F81223F5
:101FD0007A2270214FF4A97006F066FC00230A4AA9
:101FE00072214FF4A97012F0A9FC002320E0000038
:101FF00000010020EC130020B68B0108628B010861
:10200000E08B0108D28B010804230020248D0108F5
:1020100020562F6D730000000E850108B9D8B1D588
:10202000000000004F4646002A8C0108EE8B010894
:1020300075A272214FF4D27012F080FC0C2C01D1E9
:10204000012000E000200090009820B14FF47F00B4
:102050006F49486003E04FF050106D4948606D498A
:10206000486C00230522042106F072F812237A221C
:1020700086214FF4A97006F017FC0023664A8821D8
:102080004FF4A97012F05AFC00235FA288214FF48C
:10209000D27012F053FC0D2C1AD2DFE804F01912A2
:1020A0001314070809150A0B0C0D0E0000BF00BF22
:1020B00000BF00BF00BF00BF00BF022001F0A0F9B9
:1020C0000AE000BF00BF00BF072001F099F903E05C
:1020D000042001F095F900BF00BF01F047F90D2C75
:1020E0007ED2DFE804F0070B335B85868788898A18
:1020F0008B8C8D00022000F0E7FB83E06FF07F40C7
:102100004349086045484860424890F8D50008B106
:10211000434D00E0434D0020019013E00199C1EBD5
:10212000C1014A190199C1EB011303EB41112023AD
:1021300003EB410188B20023F12112F0FFFB01986B
:10214000401C019001980228E8D35BE06FF07F40CB
:102150002F490860314848602E4890F8D50008B1F2
:10216000314D00E0314D0020019013E00199C1EBA9
:10217000C1014A190199C1EB011303EB411120235D
:1021800003EB410188B20023F12112F0D7FB019843
:10219000401C019001980228E8D333E06FF07F40A3
:1021A0001B4908601D4848601A4890F8D50008B1DE
:1021B0001D4D00E01D4D0020019015E00199C1EB7F
:1021C000C1014A190199C1EB011303EB411120230D
:1021D00003EB410188B20023F12112F0AFFB00E0D4
:1021E0000FE00198401C019001980228E6D309E015
:1021F00000BF00BF00BF00BF00BF00BF00BF00BFE7
:1022000000E000BF00BF7CBD20412F6D73000000C7
:1022100000010020EC1300200423002038003100CE
:10222000B68B0108628B0108E08B0108D28B010894
:1022300010B504F00FFA01F099F802F09FFC10BD00
:102240007CB50446FE4890F85800002872D1012C55
:1022500001D1012000E000200090009820B14FF44F
:102260007F00F849486003E04FF05010F54948609E
:1022700014235C221821762006F016FB6FF07F40B5
:10228000F0490860EE4890F8D50060B9EC4890F845
:102290005800C0EBC000EC49421800231A217620F8
:1022A00012F04CFB0BE0E64890F85800C0EBC00081
:1022B000E649421800231A21762012F03FFB022C37
:1022C00001D1012000E000200090009820B14FF4DF
:1022D0007F00DC49486003E04FF05010D949486066
:1022E00014235C222E21762006F0DEFA6FF07F4068
:1022F000D4490860D249C86D00230722042105F0A3
:1023000027FF0023D24A3021762012F017FB00234A
:10231000D04A3021C82012F011FB032C01D101203A
:1023200000E000200090009828B14FF47F00C549DC
:10233000486004E0EFE04FF05010C24948601423B9
:102340005C224421762006F0AFFA6FF07F40BD4951
:102350000860BB49086E00230722042105F0F8FE3F
:102360000023BB4A4621762012F0E8FA0023B94A3E
:102370004621C82012F0E2FA042C01D1012000E02D
:1023800000200090009820B14FF47F00AD494860D4
:1023900003E04FF05010AB49486014235C225A21EF
:1023A000762006F081FA6FF07F40A6490860A449C4
:1023B000486E00230722042105F0CAFE0023A44A28
:1023C0005C21762012F0BAFA0023A24A5C21C820D0
:1023D00012F0B4FA062C01D1012000E00020009098
:1023E000009820B14FF47F009649486003E04FF019
:1023F00050109449486014235C222E21C80006F036
:1024000053FA6FF07F408F4908608D49C86E0023F2
:102410000722042105F09CFE00238D4A30214FF451
:10242000B87012F08BFA00238A4A921D30214FF4C3
:10243000E17012F083FA072C01D1012000E00020A6
:102440000090009820B14FF47F007E49486003E07F
:102450004FF050107B49486014235C2244219000C7
:1024600006F022FA6FF07F40764908607449086FE1
:1024700000230722042105F06BFE0023744A462145
:102480004FF4B87012F05AFA0023724A921D462196
:102490004FF4E17012F052FA082C01D1012000E053
:1024A00000200090009820B14FF47F0065494860FB
:1024B00003E04FF050106349486014235C225A2116
:1024C000900006F0F1F96FF07F405E4908605C49CA
:1024D000486F00230722042105F03AFE00235C4ADE
:1024E0005C21880012F02AFA00235A4A921D5C21CE
:1024F0004FF4E17012F022FA012C03D1062000F013
:102500007FFFC0E01CB9032000F07AFFBBE0082089
:1025100000F076FFB7E04A4890F858000228F0D162
:10252000012C01D1012000E000200090009820B192
:102530004FF47F004349486003E04FF05010414999
:10254000486014235C221821762006F0ADF96FF064
:102550007F403C4908603A4890F8D50060B9384857
:1025600090F85800C0EBC0003749421800231A21E8
:10257000762012F0E3F90BE0314890F85800C0EBF8
:10258000C0003249421800231A21762012F0D6F9F1
:10259000022C01D1012000E000200090009820B121
:1025A0004FF47F002749486003E04FF05010254961
:1025B0004860142368222E21762006F075F96FF00A
:1025C0007F40204908601E49886F002307220121AF
:1025D00005F0BEFD00231E4A3021762012F0AEF930
:1025E00000231C4A0C323021C82012F0A7F9062C17
:1025F00001D1012000E000200090009820B14FF4AC
:102600007F001049486003E04FF050100D494860CA
:1026100014235C222E21C80006F046F96FF07F409B
:10262000084908600649C86F00230722042105F005
:102630008FFD0023064A30214FF4B8700CE00000F3
:10264000EC13002000010020DD8A01086D8A0108DA
:1026500004230020F684010812F070F90023354AA3
:1026600030214FF4E17012F069F9012C03D10620FA
:1026700000F0C6FE07E01CB9032000F0C1FE02E036
:10268000082000F0BDFE2C4890F86D01B0BB092C6D
:102690003DD2DFE804F005093435363C37383900DF
:1026A000002000F011F933E000F060FE6FF07F4091
:1026B0002249086022484860224890F8D50008B1B5
:1026C000214D00E0214D0020019013E00199C1EB64
:1026D000C1014A190199C1EB011303EB41112023F8
:1026E00003EB410188B20023F12112F027F9019890
:1026F000401C019001980228E8D309E009E000BFDE
:1027000000BF00BF00BF00BF00F030FE00E000BF10
:102710000EE000F02BFE6FF07F400849086008488B
:10272000486000230AA2F1214FF4CC7012F006F9A0
:102730007CBD0000FC840108E4180020000100209A
:1027400038003100EC1300206D8A0108588A010816
:10275000C8B7C8CF0000000070B50646FFF768FD97
:102760006FF07F404E4908604E4848604E4890F8F0
:10277000D50008B14D4D00E04D4D002305F12C0270
:102780000421184612F0DAF86FF07F4044490860DF
:102790004FF050104860444890F85800F0BB0024B7
:1027A0003AE0042C1BD2404890F8D50000EB4003DF
:1027B00003EB00103F4B03EBC00004EB440303EBBF
:1027C0000413C21804EB440000EBC4001A2303EB0B
:1027D000400081B20023184612F0B0F81BE03248E6
:1027E00090F8D50000EB400303EB0010314B03EBF6
:1027F000C00004EB440303EB0413C218201F00EBDA
:10280000400303EBC0001A2303EB400081B2002316
:10281000FA2012F093F8641C082C00E001E0C0D309
:1028200039E0214890F85800022834D1002430E0E3
:10283000042C16D21C4890F8D50000EBC0001E4BAB
:1028400003EB001000EB041204EB440000EBC400A7
:102850001A2303EB400081B20023184612F06EF8F1
:1028600016E0114890F8D50000EBC000124B03EBC6
:10287000001000EB0412201F00EB400303EBC0002C
:102880001A2303EB400081B20023FA2012F056F81D
:10289000641C082CCCD316B9002000F015F870BDCC
:1028A000000100200352F300EC130020948601087D
:1028B000A2850108A6810108D682010810B503206F
:1028C00000F002F810BD000010B5044600F04EFD07
:1028D000002C7CD16FF07F40AD490860AD48486066
:1028E000AD4890F8D500002840D00023ABA2E721E6
:1028F0001C2012F023F80023AAA2FB211C2012F0B6
:102900001DF80023A9A2E7217E2012F017F800236A
:10291000A7A2FB217E2012F011F80023A6A2E72136
:10292000DC2012F00BF80023A1A2FB21DC2012F026
:1029300005F80023A2A2E7214FF49D7011F0FEFFDD
:1029400000239BA2FB214FF49D7011F0F7FF0023A1
:102950009DA2E7214FF4CC7011F0F0FF00239CA260
:10296000FB214FF4CC7011F0E9FF10E1002399A294
:10297000E7211C2011F0E2FF002398A2FB211C207C
:1029800011F0DCFF002397A2E7217E2011F0D6FF93
:10299000002396A2FB217E2011F0D0FF002395A2F8
:1029A000E721DC2011F0CAFF002390A2FB21DC20EC
:1029B00011F0C4FF002391A2E7214FF49D7011F0A4
:1029C000BDFF002389A2FB214FF49D7000E010E0C1
:1029D00011F0B4FF00238BA2E7214FF4CC7011F06B
:1029E000ADFF002389A2FB214FF4CC7011F0A6FFAC
:1029F000CDE0012C2CD16FF07F406549086065481F
:102A00004860002383A2E721662011F097FF00238E
:102A100082A2FB21662011F091FF002381A2E72111
:102A2000B62011F08BFF002380A2FB21B62011F00D
:102A300085FF00237FA2E7214FF4D37011F07EFFC2
:102A400000237EA2FB214FF4D37011F077FF9EE0AC
:102A5000022C4DD1504890F8D50020B300234FA24E
:102A6000E7211C2011F06AFF00234EA2FB211C204D
:102A700011F064FF002354A2E7217E2011F05EFFD5
:102A8000002370A2FB217E2011F058FF00236FA2CB
:102A9000E721DC2011F052FF00236AA2FB21DC2099
:102AA00011F04CFF73E000234AA2E7211C2011F033
:102AB00045FF002349A2FB211C2011F03FFF00230A
:102AC00050A2E7217E2011F039FF00234FA2FB2105
:102AD0007E2011F033FF00235EA2E721DC2011F0FD
:102AE0002DFF002349A2FB21DC2011F027FF4EE03F
:102AF000032C4CD1284890F8D50020B3002327A2FE
:102B0000E7211C2011F01AFF002326A2FB211C2024
:102B100011F014FF002321A2E7217E2011F00EFF07
:102B2000002348A2FB217E2011F008FF002347A2CA
:102B3000E721DC2011F002FF002342A2FB21DC2070
:102B400011F0FCFE23E0002322A2E7211C2011F05B
:102B5000F5FE002321A2FB211C2011F0EFFE002333
:102B60001CA2E7217E2011F0E9FE002327A2FB2111
:102B70007E2011F0E3FE002336A2E721DC2011F0D5
:102B8000DDFE002321A2FB21DC2011F0D7FE10BDC9
:102B90000001002038003100EC1300204D45415366
:102BA000000000004449535000000000424154001E
:102BB000544553540000000044594E4100000000A9
:102BC0004C495354000000004C494D49540000004A
:102BD00053455400B2E2C1BF00000000CFD4CABECA
:102BE00000000000B5E7B3D800000000B2E2CAD48C
:102BF00000000000B6AFCCAC00000000C1D0B1EDC9
:102C000000000000BCABCFDE00000000C9E8D6C366
:102C100000000000CEC4BCFE00000000B9DCC0ED26
:102C200000000000B1A3B4E600000000CAFDBEDD54
:102C300000000000B8FCB6E00000000020322F3297
:102C400000000000534554555000000020535953D4
:102C500000000000CFB5CDB30000000011B581B079
:102C60006248007800285DD1009057E09DF804107C
:102C70000098401C814204D14FF47F005C494860B9
:102C800003E04FF050105A49486000980A281FD2BC
:102C9000009800EB800080001A3081B214235A2281
:102CA000A02005F001FE5349009A51F822000023AC
:102CB0000722042105F04CFA009800EB8000800008
:102CC0001A3081B201234C4AA02011F037FE22E0D5
:102CD00000980A3800EB800080001A3081B214237B
:102CE0005A224FF4AF7005F0DFFD4249009A51F8C7
:102CF000220000230722042105F02AFA00980A384E
:102D000000EB800080001A3081B201233A4A4FF470
:102D1000AF7011F013FE0098401C0090009810282E
:102D2000A4D33BE031480078012837D1002000903F
:102D300031E09DF804100098401C814204D14FF40A
:102D40007F002B49486003E04FF05010284948604D
:102D5000009800EB800080001A3081B214235A22C0
:102D6000A02005F0A1FD2349009A103251F822005D
:102D700000230722042105F0EBF9009800EB800006
:102D800080001A3081B201231B4AA02011F0D6FD29
:102D90000098401C009000980928CAD34FF05010AA
:102DA0001349486000F0E2FA6FF07F401049086074
:102DB00012484860124C0220009013E00099C1EBC9
:102DC000C1010A190099C1EB011303EB4111202342
:102DD00003EB410188B20023F12111F0AFFD00980F
:102DE000401C009000980528E8D31CBDBE000020C0
:102DF00000010020F41800200423002038003100D6
:102E0000828A01087CB50446012C00D100E0002034
:102E10000090009820B14FF47F00F849486003E02B
:102E20004FF05010F549486014235C221821762099
:102E300005F03AFD6FF07F40F0490860F04890F8E7
:102E4000D50060B9EE4890F88000C0EBC000ED49B5
:102E5000421800231A21762011F070FD0BE0E8489B
:102E600090F88000C0EBC000E749421800231A2107
:102E7000762011F063FD022C01D1012000E000203A
:102E80000090009820B14FF47F00DC49486003E0D7
:102E90004FF05010D949486014235C222E2176202F
:102EA00005F002FD6FF07F40D4490860D449D1F8A5
:102EB000840000230722042105F04AF90023D34AA5
:102EC0003021762011F03AFD0023D14A3021C8206C
:102ED00011F034FD032C01D1012000E0002000900E
:102EE000009820B14FF47F00C449486003E04FF0E0
:102EF0005010C249486014235C224421762005F01A
:102F0000D3FC6FF07F40BD490860BD49D1F888000F
:102F100000230722042105F01BF90023BB4A4621A8
:102F2000762011F00BFD0023B94A4621C82011F08C
:102F300005FD042C01D1012000E000200090009844
:102F400020B14FF47F00AD49486003E04FF05010CE
:102F5000AA494860142364225A21762005F0A4FC73
:102F60006FF07F40A5490860A549D1F8940000237F
:102F70000522042105F0ECF80023A44A5C21762008
:102F800011F0DCFC0023A24A1E325C21B22011F0B9
:102F9000D5FC052C01D1012000E000200090009814
:102FA00020B14FF47F009549486003E04FF0501086
:102FB0009249486014235C221821900005F074FCAB
:102FC0006FF07F408D4908608D4890F8D50068B952
:102FD0008B4890F89000C0EBC0008E494218002347
:102FE0001A214FF4B87011F0A9FC0CE0844890F855
:102FF0009000C0EBC0008849421800231A214FF40A
:10300000B87011F09BFC062C01D1012000E00020DB
:103010000090009820B14FF47F007849486003E0A9
:103020004FF0501075494860142370222E21C800BB
:1030300005F03AFC6FF07F40704908607049D1F8A4
:103040008C0000230822012105F082F800236F4A3A
:1030500030214FF4B87011F071FC00236C4A2A3211
:1030600030214FF4E57011F069FC072C01D10120EB
:1030700000E000200090009820B14FF47F005F49ED
:10308000486003E04FF050105C4948601423702200
:1030900044214FF4B87005F007FC6FF07F405749AA
:1030A00008605749D1F89C0000230822012105F04F
:1030B0004FF80023554A46214FF4B87011F03EFCFA
:1030C0000023534A2A3246214FF4E57011F036FCB2
:1030D000082C01D1012000E000200090009820B1D0
:1030E0004FF47F004549486003E04FF050104349DA
:1030F0004860142364225A214FF4B87005F0D4FBC1
:103100006FF07F403D4908603D49D1F898000023A9
:103110000522042105F01CF800233C4A5C218800AC
:1031200011F00CFC00233A4A1E325C214FF4D67099
:1031300011F004FC394890F86D01002877D124B1D2
:10314000012C06D0052C6ED12DE00020FFF7BCFB32
:103150006CE000F00BF96FF07F40284908603048C0
:103160004860274890F8D50008B1274D00E0254D6C
:103170000020019013E00199C1EBC1014A190199A6
:10318000C1EB011303EB4111202303EB410188B292
:103190000023F12111F0D2FB0198401C019001980D
:1031A0000228E8D342E000F0E1F86FF07F401349D5
:1031B00008601B484860124890F8D50008B1164DC9
:1031C00000E0144D0020019013E00199C1EBC10112
:1031D0004A190199C1EB011303EB4111202303EBC1
:1031E000410188B20023F12111F0A8FB0198401C95
:1031F000019001980328E8D318E018E000010020AE
:10320000EC130020628B0108B68B01080423002018
:10321000F68401088C8B0108A18B0108E4180020BA
:1032200038003100FFE700F0A1F800BF0EE000F029
:103230009DF86FF07F40064908600648486000230B
:1032400005A2F1214FF4CC7011F078FB7CBD000099
:103250000001002038003100C8B7C8CF00000000CE
:1032600070B5FEF7E5FF6FF07F4024490860244801
:103270004860244890F8D50008B1234E00E0234E62
:10328000002306F142020421184611F057FB6FF0AB
:103290007F401A4908604FF050104860194890F874
:1032A000D50008B91A4D00E01A4D002420E0042C86
:1032B0000ED205EB041204EB440000EBC4001A2309
:1032C00003EB400081B20023184611F037FB0EE0FB
:1032D00005EB0412201F00EB400303EBC0001A2390
:1032E00003EB400081B20023FA2011F027FB641C9D
:1032F000082CDCD30020FFF7E7FA70BD00010020A6
:103300000352F300EC13002094860108A285010803
:10331000F6830108768401082DE9F84105468846C0
:10332000144600261CE0207800B91AE020782038E6
:1033300000EB8000C00000EB8000C700F81707EB2F
:103340005070094901EBE000A919009088B22823C8
:103350001A46414605F0E8FF641C06F11C0086B2DF
:10336000E1E700BFBDE8F88174FF070810B500244D
:103370003CE0204820494860A1000A31C4EB041217
:1033800002EB420201EB420188B22B235A22E421D4
:1033900005F08AFA1948184948605E2204FB02F1D8
:1033A0000B3188B201235A22E32105F07DFAC4EBE8
:1033B000041101EB4411642202EB410188B22C2379
:1033C0000122E32105F070FA00200B494860C4EBAC
:1033D000041101EB4411642202EB4101491C88B243
:1033E0002C230322E32105F05FFA641C052CC0D3D3
:1033F00010BD000038003100000100206843690062
:1034000010B504467F4890F8D50000287ED1012CE5
:103410000DD17D487D4948604FF47F00086000234E
:103420007BA2CD214FF4917011F088FAE9E0022CD3
:103430000ED14FF05010754948604FF47F0008607E
:10344000002379A2CD214FF49B7011F077FAD8E0D8
:10345000032C0AD16C486D49486014239622CD2173
:103460004FF49B7005F020FACBE0042C0BD14FF009
:1034700050106649486014239622CD214FF49B706A
:1034800005F012FABDE0052C0ED14FF050105F4947
:1034900048604FF47F000860002368A2CD214FF4FC
:1034A0009B7011F04BFAACE0062C0DD156485749F1
:1034B00048604FF47F000860002365A2CD214FF4DF
:1034C0009B7011F03BFA9CE0072C0ED14FF050108E
:1034D0004E4948604FF47F00086000235CA2CD2174
:1034E0004FF49B7011F02AFA8BE0082C9ED14648CD
:1034F000464948604FF47F00086000234AA2CD216E
:103500004FF49B7011F01AFA7BE0FFE7012C0CD10D
:103510003D483E4948604FF47F000860002351A2B7
:10352000CD21AA2011F00AFA6BE0022C0ED14FF047
:103530005010364948604FF47F000860002351A2C4
:10354000CD214FF48C7011F0F9F95AE0032C0AD117
:103550002D482E49486014234FF48072CD21DA2083
:1035600005F0A2F94DE0042C0AD14FF05010274984
:1035700048601423A201CD21DA2005F095F940E03E
:10358000052C0ED14FF05010204948604FF47F00B9
:103590000860002341A2CD214FF48C7011F0CEF9C8
:1035A0002FE0062C0DD11848184948604FF47F00D1
:1035B0000860002339A2CD214FF48C7011F0BEF9C0
:1035C0001FE0072C0ED14FF05010104948604FF407
:1035D0007F000860002331A2CD214FF48C7011F0E0
:1035E000ADF90EE0082C0CD10748084948604FF4AB
:1035F0007F000860002323A2CD214FF48C7011F0CE
:103600009DF910BDEC13002065343400000100204A
:10361000C7EBD3C3CAFDD7D6BCFCC5CCBBF2D0FD2B
:10362000C5A5CAE4C8EB0000C7EBD3C3CAFDD7D613
:10363000BCFCC5CCCAE4C8EB00000000B0B4CFC2EB
:10364000D0FDC5A5C7D0BBBBB2BDD6E80000000009
:10365000B0B4CFC2D0FDC5A5BFECCBD9D1A1D4F1B8
:1036600000000000496E7075742077697468206BE3
:103670006579626F617264206F7220656E636F643A
:1036800065722E00496E7075742077697468206BBE
:103690006579626F6172642E00000000507265737C
:1036A000732074686520656E636F6465722E2020D8
:1036B0000000000070B502F005FC6FF07F40234968
:1036C000086023484860234890F8D50008B1224E8E
:1036D00000E0224E002306F116020421184611F0E4
:1036E0002DF96FF07F40194908604FF05010486085
:1036F0001B4D002424E0022C10D204EB840005EBC7
:10370000400204EB440000EBC4001A2303EB40002A
:1037100081B20023184611F011F910E004EB840087
:1037200005EB4002A01E00EB400303EBC0001A2390
:1037300003EB400081B20023FA2011F0FFF8641C73
:10374000032CD8D30020FFF7BFF870BD0001002084
:103750000352F300EC13002094860108A2850108AF
:10376000888101087CB50546012D00D100E00020CC
:103770000090009820B14FF47F006849486003E052
:103780004FF050106549486014235C2218215820DE
:1037900005F08AF86FF07F40604908606049C86CA6
:1037A00000230522032104F0D3FC00235D4A1A21E3
:1037B000582011F0C3F8022D01D1012000E00020B3
:1037C0000090009820B14FF47F005449486003E016
:1037D0004FF05010514948601423682218214FF4CB
:1037E000A97005F061F86FF07F404C4908604C49C2
:1037F000486D00230522032104F0AAFC0023494A56
:103800001A214FF4A97011F099F8032D01D101206C
:1038100000E000200090009820B14FF47F003F4965
:10382000486003E04FF050103C49486014235C228C
:103830002E21582005F038F86FF07F403749086096
:103840003749086D00230522032104F081FC002381
:10385000344A3021582011F071F825B1012D06D0DD
:10386000022D58D12DE00020FFF72EF854E0FFF78D
:103870007DFD6FF07F40294908602B48486028484B
:1038800090F8D50008B1294C00E0294C00200190A7
:1038900013E00199C1EBC1010A190199C1EB0113B0
:1038A00003EB4111202303EB410188B20023F121F6
:1038B00011F044F80198401C019001980528E8D3C4
:1038C0002AE0FFF753FD6FF07F4014490860164867
:1038D0004860134890F8D50008B1164C00E0164C2B
:1038E0000020019013E00199C1EBC1010A1901996F
:1038F000C1EB011303EB4111202303EB410188B21B
:103900000023F12111F01AF80198401C0190019850
:103910000028E8D000E000BF00BF7CBD000100200F
:10392000EC1300200423002038003100208A010815
:10393000528901086D8C0108668C010870B502F08F
:10394000C9FA6FF07F402C4908602C4848602C4829
:1039500090F8D50008B12B4E00E02B4E002306F165
:1039600084020421184610F0E9FF6FF07F402249DD
:1039700008604FF050104860214890F8D50008B119
:10398000224D00E0224D00242FE0062C11D24FF0F2
:1039900050101949486004EB840005EB40021623DF
:1039A00004FB03F01A3081B20023184610F0C6FF62
:1039B0001AE0A01F022806D9082804D24FF05010A0
:1039C0000D49486003E04FF050100B49486004EB8C
:1039D000840005EB4002A01F162358431A3081B221
:1039E0000023FA2010F0AAFF641C0B2CCDD3032077
:1039F000FEF76AFF70BD0000000100200352F300D3
:103A0000EC13002094860108A2850108E4880108CF
:103A10007688010810B502F01DFEFFF7A7FC10BD67
:103A200030B595B0054602F087FF01222946684669
:103A300001F0B4F86C469DF800008DF8380001984C
:103A40000F90029810900398119004981290059886
:103A50001390069814900F984FF47A71B0FBF1F020
:103A60000F900B9818B90020099008900A900F98B1
:103A700015B030BD70B5FFF7CDFF6FF07F403D4909
:103A800008603D4848603D4890F8D50008B13C4D7D
:103A900000E03C4D002305F16E020421184610F0B1
:103AA0004DFF6FF07F40334908604FF05010486081
:103AB000002459E0032C2AD2304890F8D500012880
:103AC00010D1C4EB0410304BC21804EB440000EBDF
:103AD000C4001A2303EB400081B20023184610F003
:103AE0002DFF40E0254890F8D50030BBC4EB041012
:103AF000264BC21804EB440000EBC4001A2303EB6E
:103B0000400081B20023184610F018FF2BE01B483C
:103B100090F8D500012811D1C4EB04101A4BC2183B
:103B2000E01E00EB400303EBC0001A2303EB400050
:103B300081B20023FA2010F001FF14E00F4890F842
:103B4000D50080B9C4EB0410104BC218E01E00EB86
:103B5000400303EBC0001A2303EB400081B20023B3
:103B6000FA2010F0EBFE641C052CA3D30020FEF716
:103B7000ABFE70BD000100200352F300EC130020E7
:103B800094860108A2850108D58901088A8901085F
:103B900010B5B048B04908604FF050104860AF48C9
:103BA00090F8D500F0B90023ADA25E214FF49670D5
:103BB00010F0C4FE0023ABA25E214FF4AF7010F0F2
:103BC000BDFEA94991F87D10481C00230222194628
:103BD00004F0BEFA0023A54A5E214FF4A17010F054
:103BE000ADFE1BE09D4890F8D500012816D10023BA
:103BF0009FA25E214FF4967010F0A0FE9A4991F8B2
:103C00007D10481C00230222194604F0A1FA00236B
:103C1000964A5E214FF4A97010F090FE8F4890F8FC
:103C2000D50080B9904890F87D108C48E430405C15
:103C3000C0EBC0009049421800235E214FF4C870C9
:103C400010F07CFE14E0854890F8D50001280FD1D3
:103C5000854890F87D108148E430405CC0EBC0009E
:103C60008649421800235E214FF4C87010F066FEAA
:103C70007A4890F8D500E0B9002381A272214FF470
:103C8000967010F05BFE00237FA288214FF496709F
:103C900010F054FE00237EA29E214FF4967010F087
:103CA0004DFE00237CA2B4214FF4967010F046FE26
:103CB00020E06A4890F8D50001281BD1002378A2A3
:103CC00072214FF4967010F039FE002375A28821FE
:103CD0004FF4967010F032FE002373A29E214FF431
:103CE000967010F02BFE002370A2B4214FF4967052
:103CF00010F024FE594890F8210038BB5A4800685B
:103D0000642806D2002307220421184604F020FA72
:103D100006E05549002307220868042104F018FA38
:103D20005149002307220868042104F011FA0023F6
:103D30004E4A72214FF4B47010F000FE002358A2D6
:103D400072214FF4DC7010F0F9FD24E0434890F844
:103D5000210001281FD144480068642806D20023AE
:103D600006220321184604F0F3F906E03E49002339
:103D700006220868032104F0EBF900233B4A722174
:103D80004FF4B47010F0DAFD002345A272214FF415
:103D9000DC7010F0D3FD314890F82000A8B932490A
:103DA000002307224868042104F0D2F900232F4A97
:103DB00088214FF4B47010F0C1FD00233DA288218A
:103DC0004FF4DC7010F0BAFD19E0244890F82000A0
:103DD000012814D12449002306224868032104F055
:103DE000B7F90023214A88214FF4B47010F0A6FDE2
:103DF000002330A288214FF4DC7010F09FFD1A4997
:103E000000230722C868032104F0A2F90023174AFF
:103E10009E214FF4B47010F091FD002326A29E2144
:103E20004FF4DC7010F08AFD0F4900230422D1F812
:103E30008000012104F08CF900230C4AB4214800D1
:103E400010F07CFD00231DA2B4214FF4DC7010F0B3
:103E500075FD10BD00FFFF0000010020EC130020E5
:103E6000B5DA0000B2BD0000E418002004230020F1
:103E7000537465700000000093900108FC900108E5
:103E8000B5E7D1B900000000B5E7C1F700000000B8
:103E9000B9A6C2CA00000000CAB1BCE4000000001C
:103EA00056000000490000005000000054494D45F4
:103EB00000000000410000005700000073000000F7
:103EC0002DE9F0410546012D00D100E00020064615
:103ED00026B14FF47F00FD49486003E04FF05010D9
:103EE000FA49486014235C221821762004F0DCFC97
:103EF0006FF07F40F5490860F54991F8D60000233E
:103F00000322194604F024F90023F24A1A217620EC
:103F100010F014FD022D01D1012000E00020064622
:103F200026B14FF47F00E949486003E04FF050109C
:103F3000E649486014235C222E21762004F0B4FC6C
:103F40006FF07F40E1490860E14890F8D50060B922
:103F5000DF4890F8D700C0EBC000DF4942180023CB
:103F60003021762010F0EAFC0BE0D94890F8D70019
:103F7000C0EBC000D949421800233021762010F050
:103F8000DDFC032D01D1012000E00020064626B112
:103F90004FF47F00CD49486003E04FF05010CB490B
:103FA000486014235C224421762004F07DFCC8493B
:103FB000D1F8E00000230722042104F0C9F86FF0D3
:103FC0007F40C24908600023C24A4621762010F093
:103FD000B5FC0023C24A4621C82010F0AFFC042DD6
:103FE00001D1012000E00020064626B14FF47F00F9
:103FF000B649486003E04FF05010B44948601423BC
:104000005C221821900004F04FFC6FF07F40AF4914
:104010000860AF4890F8D50068B9AD4890F8D9006D
:10402000C0EBC000AF49421800231A214FF4B8700A
:1040300010F084FC0CE0A64890F8D900C0EBC0005A
:10404000A949421800231A214FF4B87010F076FCE9
:10405000052D01D1012000E00020064626B14FF4D5
:104060007F009A49486003E04FF05010974948603C
:1040700014235C222E21C80004F016FC6FF07F4050
:10408000924908609249D1F8DC00002307220421FC
:1040900004F05EF800238F4A30214FF4B87010F01E
:1040A0004DFC00238E4A30214FF4E17010F046FCA5
:1040B000062D01D1012000E00020064626B14FF474
:1040C0007F008249486003E04FF050107F4948600C
:1040D000102350225E21002004F0E6FB6FF07F40A9
:1040E0007A4908607A4890F8D500D8B900237FA2B1
:1040F0005E21184610F022FC00237DA25E213220B2
:1041000010F01CFC7B4991F87C10481C0023022213
:10411000194604F01DF800236E4A5E21162010F0A7
:104120000DFC19E06A4890F8D500012814D100234D
:1041300071A25E21184610F001FC6E4991F87C10C6
:10414000481C00230222194604F002F80023614AA9
:104150005E21262010F0F2FB072D01D1012000E0A6
:104160000020064626B14FF47F005849486003E01E
:104170004FF0501055494860102350225E216420B2
:1041800004F092FB524890F8D50078B9594890F85D
:104190007C104F48E430405CC0EBC00058494218E6
:1041A00000235E21642010F0C9FB13E0484890F81A
:1041B000D50001280ED14F4890F87C104448E430D7
:1041C000405CC0EBC0004F49421800235E216420D0
:1041D00010F0B4FB4FF050103C494860454890F84F
:1041E0007C103B48E430405C04286ED0384890F89E
:1041F000D500F0B9002344A27221184610F09EFBAE
:10420000002344A28821184610F098FB002343A203
:104210009E21184610F092FB002343A2B4211846B9
:1042200010F08CFB002342A2CA21184610F086FB36
:1042300022E0274890F8D50001281DD100233EA296
:104240007221184610F07AFB00233DA288211846FF
:1042500010F074FB00233CA29E21184610F06EFB68
:1042600000233BA2B421184610F068FB00233AA2B9
:10427000CA21184610F062FB122314227021C820B4
:1042800004F012FB12231422B221C82004F00CFB0C
:1042900012231422C821084604F006FB154890F8A2
:1042A0007C100B48E430405C00EB40000C49891F57
:1042B00001EB400200237221C82010F03FFB0D48A3
:1042C00090F87C102548405C4AE069E1000100203C
:1042D000EC13002004230020699001087E9001085F
:1042E000FC840108708B01087E8B0108B5DA0000A0
:1042F000B2BD0000E4180020537465700000000097
:1043000093900108FC900108B8BAD4D8B4F3D0A1B6
:1043100000000000CAB1BCE400000000B1C8BDCF7D
:10432000C0E0D0CD00000000C9CFCFDE000000000B
:10433000CFC2CFDE000000004C4F4144000000001F
:1043400054696D6500000000436F6D70000000004F
:1043500048696768000000004C6F77003A1500203C
:1043600000EB4000FE4901EB40020023B421C820CD
:1043700010F0E4FAFB4890F87C10FB48405C00EB3E
:104380004000F74901EB40020023CA21C82010F089
:10439000D5FA0023F5A28821C82010F0CFFA082D05
:1043A00001D1012000E00020064626B14FF47F0035
:1043B000EF49486003E04FF05010ED494860142386
:1043C0005C227021642004F06FFA6FF07F40E849AE
:1043D0000860E44890F87C10E3486A38405C0228A2
:1043E0000CD1E04991F87C20DF495A3951F822007C
:1043F00000230722012103F0ABFE0BE0D94991F81D
:104400007C20D9495A3951F822000023082204217E
:1044100003F09EFE0023D74A7221642010F08EFA2A
:10442000092D01D1012000E00020064626B14FF4FD
:104430007F00CF49486003E04FF05010CC494860FE
:1044400014235C228621642004F02EFA6FF07F4052
:10445000C7490860C34991F87C20C3491E3931F827
:10446000120000230422012103F072FE0023C14A3E
:104470008821642010F062FA0A2D01D1012000E0A9
:104480000020064626B14FF47F00B949486003E09A
:104490004FF05010B649486014235C229C216420E0
:1044A00004F002FA6FF07F40B1490860B24890F81A
:1044B000D50070B9AB4890F87C10AB48405CC0EBBD
:1044C000C000AE49421800239E21642010F036FA45
:1044D0000DE0A44890F87C10A348405C00EBC000BD
:1044E000A749421800239E21642010F027FA0B2DC3
:1044F00001D1012000E00020064626B14FF47F00E4
:104500009B49486003E04FF05010994948601423DC
:104510005C22B221642004F0C7F96FF07F40944917
:104520000860904991F87C208F49123151F822009F
:1045300000230722042103F00BFE00238D4AB4213F
:10454000642010F0FBF90C2D01D1012000E00020C7
:10455000064626B14FF47F008549486003E04FF0DE
:1045600050108349486014235C22C821642004F061
:104570009BF96FF07F407E4908607A4991F87C2072
:1045800079494E3151F8220000230722042103F01B
:10459000DFFD0023774ACA21642010F0CFF996E1AD
:1045A000704890F87C1070486A38405C0428F6D156
:1045B000714890F8D50018BB0023AFF2B4227221E5
:1045C000184610F0BBF90023AFF2B8228821184634
:1045D00010F0B4F90023AFF2BC229E21184610F06F
:1045E000ADF90023AFF2C022B421184610F0A6F9AD
:1045F0000023AFF2C422CA21184610F09FF927E029
:104600005D4890F8D500012822D10023AFF2D822CE
:104610007221184610F092F90023AFF2DC228821B3
:10462000184610F08BF90023AFF2E4229E211846C1
:1046300010F084F90023AFF2E822B421184610F0FC
:104640007DF90023AFF2F022CA21184610F076F966
:10465000122314227021C82004F026F912231422F8
:10466000B221C82004F020F912231422C8210846E0
:1046700004F01AF900233DA28821C82010F05EF949
:10468000072D01D1012000E00020064626B14FF49D
:104690007F003749486003E04FF0501034494860CC
:1046A000304991F87C2030495A3951F822000023D2
:1046B0000722042103F04CFD14235C2270216420A6
:1046C00004F0F2F800232B4A7221642010F036F92E
:1046D000082D01D1012000E00020064626B14FF44C
:1046E0007F002349486003E04FF0501020494860A4
:1046F00014235C227021642004F0D6F86FF07F4010
:104700001B490860174991F87C2017495A3951F81C
:10471000220000230722042103F01AFD0023154A7A
:104720007221642010F00AF9092D01D1012000E066
:104730000020064626B14FF47F000D49486003E093
:104740004FF050100A49486014235C2286216420EF
:1047500004F0AAF86FF07F4005490860014911E0B4
:1047600026850108E41800203A1500207300000097
:104770000001002004230020EC1300201F910108F9
:104780008191010891F87C20E14931F81200002361
:104790000422012103F0DCFC0023DE4A882164208E
:1047A00010F0CCF80A2D01D1012000E000200646CF
:1047B00026B14FF47F00D849486003E04FF0501015
:1047C000D549486014235C229C21642004F06CF8D5
:1047D0006FF07F40D0490860D04890F8D50078B994
:1047E000CF4890F87C10CA481E30405CC0EBC00037
:1047F000CC49421800239E21642010F09FF80EE05F
:10480000C74890F87C10C2481E30405C00EBC000E6
:10481000C549421800239E21642010F08FF80B2D0B
:1048200001D1012000E00020064626B14FF47F00B0
:10483000B949486003E04FF05010B749486014236D
:104840005C22B221642004F02FF86FF07F40B2495F
:104850000860B34991F87C20AD49303151F822000D
:1048600000230722042103F073FC0023A94AB4218A
:10487000642010F063F80C2D01D1012000E000202D
:10488000064626B14FF47F00A349486003E04FF08D
:104890005010A149486014235C22C821642004F010
:1048A00003F86FF07F409C4908609D4991F87C2097
:1048B00097496C3151F8220000230722042103F0AC
:1048C00047FC0023934ACA21642010F037F80D2DCD
:1048D0001CD2DFE805F01B07141B15081016090A87
:1048E000170B0C0000BF00BF00BF00BF00BF0220BD
:1048F000FEF786FD0EE00520FEF782FD0AE000BF10
:1049000000BF00BF0720FEF77BFD03E00420FEF799
:1049100077FD00BF00BF824890F86D0100286ED17E
:10492000FEF724FD81480078002869D1042D31D09C
:1049300003DC3DB1022D77D108E0072D4ED00A2DC2
:1049400072D172E00020FDF7BFFFA7E0FEF70EFD79
:104950006FF07F4070490860754848606F4890F874
:10496000D50008B1734F00E0734F00240FE0C4EB93
:10497000C401CA19C4EB041101EB4411202303EB59
:10498000410188B20023F1210FF0D8FF641C032CF1
:10499000EDD383E0FEF7EAFC6FF07F405E490860EC
:1049A000634848605D4890F8D50008B1634F00E067
:1049B000634F00240FE0C4EBC401CA19C4EB041117
:1049C00001EB4411202303EB410188B20023F121C4
:1049D0000FF0B4FF641C022CEDD35FE0FEF7C6FCC1
:1049E0006FF07F404C490860514848604B4890F850
:1049F000D50008B1534F00E0534F002411E076E09A
:104A00004DE0C4EBC401CA19C4EB041101EB44111D
:104A1000202303EB410188B20023F1210FF08EFF28
:104A2000641C052CEDD339E037E0FEF79FFC6FF0F6
:104A30007F40394908603E484860384890F8D500C2
:104A4000A8B1002410E004EBC401374BCA18C4EB32
:104A5000041101EB4411202303EB410188B2002330
:104A6000F1210FF06BFF641C042CECD314E0002444
:104A700010E0C4EBC4012B4BCA18C4EB041101EBCA
:104A80004411202303EB410188B20023F1210FF0F0
:104A900055FF641C042CECD300E000BF36E0234833
:104AA0000078012832D1FEF761FC6FF07F401A498F
:104AB00008601F484860194890F8D50008B1234F96
:104AC00000E0234F00240FE0C4EBC401CA19C4EB7B
:104AD000041101EB4411202303EB410188B20023B0
:104AE000F1210FF02BFF641C052CEDD30EE0FEF737
:104AF0003DFC6FF07F40084908600D484860002386
:104B000014A2F1214FF4CC700FF018FFBDE8F08132
:104B10001C1500200423002000010020EC130020BD
:104B2000E41800201F910108819101083300002042
:104B3000380031007E900108699001087E8B0108E1
:104B4000708B0108FC900108939001085E910108A8
:104B50003B910108C8B7C8CF0000000010B5054858
:104B600005494860962340F2DF124C21002003F0F3
:104B70009BFE10BD653434000001002010B50548CF
:104B800005494860742340F2DF126E21002003F0D3
:104B90008BFE10BD65343400000100202DE9F0418A
:104BA00092B005460E46174601201190F94800784C
:104BB0000D9001200B9000200A900990089007901A
:104BC00002900190039001900C9009E020200EA922
:104BD0009DF8302088549DF83000401CC0B20C90E5
:104BE0009DF830000828F1DB00208DF840000FB15F
:104BF000082400E00624AFE1B8F1010F03D103F06F
:104C0000B5FC0D9001E04FF001089DF8340000283C
:104C10007ED001200B909DF83400202879D2DFE867
:104C200000F0788291A0F278CDBEAFDCF3F0EFEE29
:104C3000ED787F7E5733107878EC788081787878BB
:104C400078EB0020039011909DF81C00A04218DA28
:104C50009DF82800A8B99DF81C0000280CDD2E2026
:104C60000EA99DF81C2088549DF81C0009909DF801
:104C70001C00401CC0B207909DF82800401CC0B228
:104C80000A90012004904CE1012003900020119033
:104C90009DF81C00A04218DA9DF82800A8B99DF8DC
:104CA0001C0000280CDD2E200EA99DF81C20885425
:104CB0009DF81C0009909DF81C00401CC0B2079094
:104CC0009DF82800401CC0B20A900120049028E101
:104CD00002200390002011909DF81C00A0421BDAD6
:104CE0009DF82800C0B99DF81C0000280CDD2E207E
:104CF0000EA99DF81C2088549DF81C0009909DF871
:104D00001C00401CC0B207909DF82800401C01E028
:104D100008E105E1C0B20A900120049001E100E140
:104D2000FFE0FEE0FDE09DF81C00A04209DA312022
:104D30000EA99DF81C2088549DF81C00401CC0B290
:104D40000790EEE09DF81C00A04209DA32200EA97F
:104D50009DF81C2088549DF81C00401CC0B2079090
:104D6000DFE09DF81C00A04209DA33200EA99DF86F
:104D70001C2088549DF81C00401CC0B20790D0E055
:104D80009DF81C00A04209DA34200EA99DF81C20D1
:104D900088549DF81C00401CC0B20790C1E09DF8EB
:104DA0001C00A04209DA35200EA99DF81C20885469
:104DB0009DF81C00401CC0B20790B2E09DF81C009A
:104DC000A04209DA36200EA99DF81C2088549DF8CF
:104DD0001C00401CC0B20790A3E09DF81C00A0423C
:104DE00009DA37200EA99DF81C2088549DF81C0074
:104DF000401CC0B2079094E06EE06CE022E030E02E
:104E000051E010E000E068E09DF81C00A04209DAE3
:104E100038200EA99DF81C2088549DF81C00401CC9
:104E2000C0B207907DE09DF81C00A04209DA39204D
:104E30000EA99DF81C2088549DF81C00401CC0B28F
:104E400007906EE09DF81C00A04209DA30200EA900
:104E50009DF81C2088549DF81C00401CC0B207908F
:104E60005FE09DF81C00A0421CDA9DF81C000028A1
:104E700018DD9DF82800A8B99DF81C0000280CDD5D
:104E80002E200EA99DF81C2088549DF81C00099026
:104E90009DF81C00401CC0B207909DF82800401CE3
:104EA000C0B20A903DE09DF81C00002812DD9DF87C
:104EB0001C00401EC0B2079020200EA99DF81C20A7
:104EC00088549DF824009DF81C10884202D10020CF
:104ED0000A90099025E024E023E00020039011903F
:104EE0009DF81C00A04218DA9DF82800A8B99DF88A
:104EF0001C0000280CDD2E200EA99DF81C208854D3
:104F00009DF81C0009909DF81C00401CC0B2079041
:104F10009DF82800401CC0B20A900120049000E0D7
:104F200000BF00BF9DF82C00B0B100200B906FF0C7
:104F30007F40194908604FF47F004860B388103300
:104F40009AB271883088122303F0AEFC71883088E1
:104F500000230EAA0FF0F2FC9DF8440000287FF415
:104F60004BAE9DF81C000C9009E030200EA99DF876
:104F7000302088549DF83000401CC0B20C909DF841
:104F800030109DF82400401D8142EEDB00200C9083
:104F90003EE00000BB000020000100209DF838002A
:104FA000302830DB9DF8380039282CDC0EA89DF81D
:104FB0003010405C302826DB0EA89DF83010405C95
:104FC000392820DC9DF824009DF8301088420DDD42
:104FD000019800EB80004000019001990EA89DF817
:104FE0003020805C3038084401900CE0019800EBE0
:104FF00080004000019001990EA89DF83020805C4F
:105000003038084401909DF83000401CC0B20C902C
:105010009DF830109DF82400401D8142BEDB9DF8B4
:10502000240002909DF800002870019868600298A2
:10503000A8600398E860049828610598686106985C
:10504000A86112B0BDE8F0812DE9F041074688461D
:105050006FF07F40FE4908604FF050104860FD48F7
:1050600090F86B0150B9FC4890F8D600052803DC95
:10507000F94890F8D6501DE005251BE0F54890F85A
:105080006B0101280CD1F44890F8D6000A2805DC01
:10509000F14890F8D600401FC5B20BE0052509E0A5
:1050A000EC4890F86B01022804D1EB4890F8D60048
:1050B0000A38C5B2CA2340F2DF125E21002003F095
:1050C000F3FB4FF050116FF07F4004F073F86FF076
:1050D0007F40DF494860C5F1040000EB400101EB6F
:1050E000C000CA21A1EB40005D3883B201225E21DD
:1050F000002003F0D9FBC5F1040000EB400101EBF7
:10510000C000CA21A1EB40005D3883B201225E21BC
:10511000282003F0C9FBC5F1040000EB400101EBBE
:10512000C000CA21A1EB40005D3883B201225E219C
:10513000782003F0B9FB012415E0C5F1040101EB6F
:10514000410202EBC101CA22A2EB41015D398BB2DF
:10515000642204FB02F101F1780001225E2103F0D8
:10516000A3FB601CC4B2042CE7DB00240CE0162275
:1051700004FB02F000F15E01012340F2DF12002087
:1051800003F092FB601CC4B2A81C8442EFDB4FF01A
:105190005010AF494860B04890F8D500012826D19A
:1051A0000023AEA2612103200FF0C8FB0023ACA2B4
:1051B00061213F200FF0C2FB0023ABA261219920A7
:1051C0000FF0BCFB0023A9A26121FD200FF0B6FB6C
:1051D0000023A7A2612140F261100FF0AFFB002372
:1051E000A4A2612140F2B1100FF0A8FB29E09A4877
:1051F00090F8D50028BB00239FA2612103200FF067
:105200009DFB00239EA261213F200FF097FB00230E
:105210009DA2612199200FF091FB00239CA26121A6
:10522000FD200FF08BFB00239BA2612140F2611057
:105230000FF084FB00239AA2612140F2B1100FF01D
:105240007DFBFEF793F86FF07F4081490860964838
:105250004860814890F8D50008B1944E00E0944E23
:1052600000240FE0C4EBC4018A19C4EB041101EB64
:105270004411202303EB41000023F1210FF05EFBDA
:10528000601CC4B2052CEDDB002476E14FF0501019
:105290006F4948606F4991F86B1101EB810121441E
:1052A000481C00230222194602F052FF162204FB7A
:1052B00002F000F1770100237E4A03200FF03EFB4D
:1052C000644890F86B0100EB800003196248E430F9
:1052D000C05CC0EBC000784BC218162304FB03F07F
:1052E00000F17701002335200FF028FB594890F892
:1052F0006B0100EB8000011956488430405C6F4917
:1053000051F8200052490860524890F86B0100EBB8
:10531000800001196A48405CC8B94E4991F86B1188
:1053200001EB81010A194B49943151F82200002305
:105330000722042102F00CFF162204FB02F000F108
:10534000770100235B4A7B200FF0F8FA22E0414806
:1053500090F86B0100EB800001195948405C01286E
:1053600018D13C4991F86B1101EB81010A193949B7
:10537000943151F8220000230622032102F0E8FEB6
:10538000162204FB02F000F177010023494A7B203A
:105390000FF0D4FA2F4890F86B0100EB8000011950
:1053A0002C488430405C474951F820002849086067
:1053B000284890F86B0100EB8000011940480F303D
:1053C000405CC8B9234991F86B1101EB81010A19BE
:1053D0003B49783951F8220000230722042102F0CA
:1053E000B7FE162204FB02F000F177010023314AD8
:1053F000DF200FF0A3FA23E0164890F86B0100EBD2
:10540000800001192E480F30405C012818D1114945
:1054100091F86B1101EB81010A192949783951F88A
:10542000220000230622032102F092FE162204FB32
:1054300002F000F1770100231E4ADF200FF07EFA10
:10544000044890F86B0100EB8000011901483BE033
:1054500000010020E4180020EC1300204E4F000053
:105460004D4F444500000000560000004900000078
:105470005000000052455300D0F2BAC500000000B1
:10548000CFEEC4BF00000000B5E7D1B900000000B6
:10549000B5E7C1F700000000B9A6C2CA00000000CD
:1054A000BDE1B9FB00000000380031005E91010849
:1054B0003B9101080423002093900108E07F01083C
:1054C0002C1A0020D07F01088430405C2D4951F80F
:1054D00020002D4908602D4991F86B1101EB8101E5
:1054E0000A192B4951F8220000230722032102F058
:1054F0002FFE162204FB02F000F177010023254A5B
:1055000040F243100FF01AFA6FF07F401E49086016
:10551000214890F8D500B8B91C4890F86B0100EB11
:105520008000031919488430C05CC0EBC0001B4BDD
:10553000C218162304FB03F000F17701002340F2A8
:10554000A7100FF0FBF916E0104890F86B0100EB84
:10555000800003190D488430C05CC0EBC000104BC4
:10556000C218162304FB03F000F17701002340F278
:10557000A7100FF0E3F9601CC4B2AC42FFF686AE90
:10558000BDE8F081F07F010800010020E418002050
:10559000F019002004230020EC130020B69001082D
:1055A000D990010830B595B00546012229466846D4
:1055B000FFF7F4FA6C469DF800008DF8380001986A
:1055C0000F900298109003981190049812900598EB
:1055D0001390069814900F9842F21071B0FBF1F0FE
:1055E0000F900F98FF2801D9FF200F900B9818B942
:1055F0000020099008900A900F9815B030BD30B582
:1056000095B0054601F00AF9012229466846FFF7E0
:10561000C5FA6C469DF800008DF8380001980F908F
:105620000298109003981190049812900598139086
:10563000069814900B9818B90020099008900A90C9
:105640000F9815B030BD30B595B0054601F02AF978
:10565000012229466846FFF7A1FA6C469DF8000032
:105660008DF8380001980F900298109003981190CF
:105670000498129005981390069814900B9818B9F6
:105680000020099008900A900F9815B030BD30B5F1
:1056900095B0054601F03AF9012229466846FFF720
:1056A0007DFA6C469DF800008DF8380001980F9047
:1056B00002981090039811900498129005981390F6
:1056C000069814900F984FF47A71B0FBF1F00F9098
:1056D0000B9818B90020099008900A900F9815B0FF
:1056E00030BD30B595B0054601F0C4F80122294619
:1056F0006846FFF753FA6C469DF800008DF83800B5
:1057000001980F90029810900398119004981290AD
:1057100005981390069814900F9842F21071B0FB00
:10572000F1F00F900B9818B90020099008900A909A
:105730000F9815B030BD30B595B0054601F084F82E
:10574000012229466846FFF729FA6C469DF80000B9
:105750008DF8380001980F900298109003981190DE
:105760000498129005981390069814900F984FF48F
:105770007A71B0FBF1F00F900B9818B900200990E6
:1057800008900A900F9815B030BD30B595B0054619
:1057900001F0A6F8012229466846FFF7FFF96C469A
:1057A0009DF800008DF8380001980F900298109035
:1057B00003981190049812900598139006981490ED
:1057C0000B9818B90020099008900A900F9815B00E
:1057D00030BD30B595B0054601F0AEF8012229463E
:1057E0006846FFF7DBF96C469DF800008DF838003D
:1057F00001980F90029810900398119004981290BD
:1058000005981390069814900F9842F21071B0FB0F
:10581000F1F00F900B9818B90020099008900A90A9
:105820000F9815B030BD30B595B0054601F09AF827
:10583000012229466846FFF7B1F96C469DF8000041
:105840008DF8380001980F900298109003981190ED
:105850000498129005981390069814900B9818B914
:105860000020099008900A900F9815B030BD10B52F
:1058700000240FE0601C00EB400202EBC0001A2283
:1058800002EB4000801E81B2012364225A2003F003
:105890000BF8641C072CEDD310BD000070B500F0B0
:1058A0004DF86FF07F401E4908601E4848601E4852
:1058B00090F8D50008B11D4E00E01D4E002306F102
:1058C000B002042118460FF039F86FF07F401449F8
:1058D00008604FF050104860134890F8D50008B1A8
:1058E000144D00E0144D00240EE004EB440000EBE6
:1058F000C4004219162304FB03F01A3081B20023BE
:1059000018460FF01BF8641C072CEED36FF07F4095
:1059100003494860FFF7ABFF0320FCF7D5FF70BDDC
:10592000000100200352F300EC13002094860108CC
:10593000A2850108CC8D01087F8D010810B500F00B
:1059400089FEFDF713FD10BD7FB5044600208DF8DC
:105950000700012C01D1012000E0002002900298F4
:1059600020B14FF47F00FE49486003E04FF0501033
:10597000FB494860122366221A215A2002F094FF44
:10598000F849B1F8DA0100230322194602F0E0FBDE
:105990000023F54A1C215A200EF0D0FF022C01D121
:1059A000012000E000200290029820B14FF47F0017
:1059B000EB49486003E04FF05010E949486012237A
:1059C000662230215A2002F06FFFE648B0F8D80175
:1059D000C0EBC000E5494218002332215A200EF0E6
:1059E000ADFF032C01D1012000E0002002900298BD
:1059F00020B14FF47F00DA49486003E04FF05010C7
:105A0000D7494860D74890F8D50008B1D84D00E094
:105A1000D84D1223662246215A2002F045FFD6486F
:105A200090F8B602C0EBC0004219002348215A206A
:105A30000EF084FF042C01D1012000E00020029030
:105A4000029820B14FF47F00C549486003E04FF051
:105A50005010C3494860C34890F8D50008B1C74DFD
:105A600000E0C64D122366225C215A2002F01CFF82
:105A7000BC4890F8E501C0EBC000421900235E214C
:105A80005A200EF05BFF052C01D1012000E0002020
:105A90000290029820B14FF47F00B149486003E0C2
:105AA0004FF05010AE4948601223662272215A20EE
:105AB00002F0FAFEAB4890F8D500B14901EBC00204
:105AC000002374215A200EF039FF01A9002006F0AE
:105AD000D9FB6946002006F09BFB062C01D1012072
