:020000040804EE
:1000000080840120C1010408D1E0040835A204085D
:1000100089DF0408351E0408619E05080000000001
:10002000000000000000000000000000A91F0508FB
:10003000D528040800000000BDEA0408CD400508EA
:10004000DB010408DB010408DB010408D9F504081E
:10005000DB010408DB010408DB010408DB01040800
:10006000DB0104081D920408DB010408DB0104081D
:10007000DB010408DB010408DB010408DB010408E0
:10008000DB010408DB010408DB010408DB010408D0
:10009000DB010408DB010408DB010408DB010408C0
:1000A000DB010408DB010408DB010408DB010408B0
:1000B00043450508DB010408DB010408DB010408F3
:1000C000DB010408DB010408DB010408DB01040890
:1000D000DB01040805600508DB0104087D600508F4
:1000E00005920408DB010408DB010408DB010408B5
:1000F000DB010408DB010408DB010408DB01040860
:10010000DB010408DB010408DB010408DB0104084F
:10011000DB010408DB01040859450508DB0104087C
:10012000DB010408DB010408DB010408DB0104082F
:10013000DB010408DB010408DB010408DB0104081F
:10014000DB010408DB010408DB0104089DE104086D
:10015000DB010408DB010408DB010408DB010408FF
:10016000DB010408DB010408DB010408DB010408EF
:10017000DB010408DB010408DB010408DB010408DF
:10018000DB010408DB010408DB010408DB010408CF
:10019000DB010408DB010408DB010408DB010408BF
:1001A000DB010408DB010408DB010408DFF80CD0E4
:1001B00000F0AAFD00480047EDE505088084012015
:1001C0000648804706480047FEE7FEE7FEE7FEE7F1
:1001D000FEE7FEE7FEE7FEE7FEE7FEE77141050802
:1001E000AD0104082DE9F05F0546002092469B46CC
:1001F00088460646814640241BE02846414647463D
:10020000224600F072FB53465A46C01A914110D361
:1002100011461846224600F059FB2D1A67EB0108DB
:100220004F4622460120002100F050FB17EB000949
:100230004E41201EA4F10104DFDC484631462A4627
:100240004346BDE8F09F0000004870477CA00F08BF
:1002500010B50446FFF7F8FF0068005D00F00100EC
:1002600010BD10B5431A934209D28318881803E0D1
:1002700010F8011D03F8011D521EF9D210BD40EA0D
:1002800001039B0703D009E008C9121F08C0042A14
:10029000FAD203E011F8013B00F8013B521EF9D2FB
:1002A00010BDD2B201E000F8012B491EFBD270470D
:1002B0000022F6E710B513460A4604461946FFF732
:1002C000F0FF204610BD10B5044604E00B7800F89E
:1002D000013B03B1491C521EF8D2204610BD421CFE
:1002E00010F8011B0029FBD1801A704710B50022BD
:1002F00000E0521C835C8C5CA34201D1002BF8D13E
:10030000D8B2E1B2401A10BD10B5044600E0401C5E
:100310000378002BFBD100E0401C521E04D311F8DF
:10032000013B0370002BF7D100210170204610BD66
:100330002DE9F0410546002090460E46044600E0B7
:10034000641C44450BD2285D00F0F1FA0746305D8D
:1003500000F0EDFA381A02D1295D0029F0D1BDE88C
:10036000F0812DE9F04791460F468046044600266D
:1003700014F8015B2DB1FFF767FF0068405DC0070F
:10038000F6D12B2D02D02D2D18D0641E4A463946A9
:10039000204600F0D2FA27B13968A14201D1C7F84E
:1003A000008071054FF002040BD54042002803DDA8
:1003B0001AF072FC0460A007BDE8F08746F480667E
:1003C000E4E70028F8DA1AF067FC04606FF00040F8
:1003D000F2E72DE9F05F93460F468046044600267B
:1003E0001AF05AFCD0F80090824614F8015B2DB147
:1003F000FFF72AFF0068405DC007F6D12B2D02D021
:100400002D2D1AD0641E0021CAF800105A46394614
:10041000204600F092FA014627B13868A04201D187
:10042000C7F80080DAF80000022809D0CAF8009066
:10043000700505D54842BDE8F09F46F48066E2E7C6
:100440000846F8E700F016BB00F05CBB2DE9FE4F54
:10045000804681EA0300C00F0C46009021F0004165
:1004600023F00045B8EB0200A94105D240462146E1
:1004700090461C460B46024623F00040104347D0EE
:10048000270DC7F30A00C3F30A510290401A0190E6
:1004900040286BDAC3F3130040F4801B00989246A7
:1004A00020B10023D2EB030A63EB0B0B01985946F2
:1004B000C0F14002504600F009FA06460D4650468B
:1004C0005946019A00F021FA10EB0800614100241E
:1004D00087EA115284EAE7731A4340D0009A62B364
:1004E000019A012A4FEA075215DC001B61EB020159
:1004F0004FF0004202EA0752CDE90042001C41F5EC
:10050000801132462B4600F081FB03B0BDE8F08F2E
:1005100040462146F9E7001B61EB0201001C41F552
:10052000801300185B412018A2F5001747EB030168
:1005300040EAD570B6196D4111E06D084FEA3606F4
:1005400045EAC0754FEA0752001B61EB0201001C2F
:1005500041F5801149084FEA3000001951413246F7
:100560002B4603B0BDE8F04F00F041BB00980122DC
:1005700040000023D0EB020263EBE07300982146B9
:100580004FEAE074B8EB000061EB0401E9E783F0A7
:1005900000435BE781F0004158E72DE9FE4F81EA17
:1005A000030404F0004421F0004100944FF0000BDC
:1005B00023F0004350EA01045ED052EA03045BD00A
:1005C000C3F30A54C1F30A552C44A4F2F334019442
:1005D000A0FB0254C1F3130141F48011C3F31303D0
:1005E00043F4801301FB024400FB034E840A970A84
:1005F00044EA815447EA8357A4FB076802958D0AB1
:1006000005FB07854FEA932C04FB0C542705029D3C
:100610004FEA065847EA1637B5EB08056EEB070CAC
:10062000870E920E47EA811742EA8312A7FB020166
:10063000B6EB0B0164EB00042B0D43EA0C335E18A0
:1006400044EB1C50DA465146E7FB0201C5F31304A4
:100650004FEA0B3343EA14534FEA0432019C43EA56
:100660000603A4F10C040294009CCDE900B400F050
:10067000CDFA03B0BDE8F08F00200146F9E72DE97F
:10068000F04D81EA030404F0004B21F000451446CC
:100690004FF0000A23F0004150EA050220D054EA4E
:1006A00001021DD0C5F30A570246C5F31303C1F377
:1006B0001300C1F30A5640F4801543F48013A7EBEE
:1006C0000608101BD64608F2FD3873EB050002D36E
:1006D00008F1010801E092185B41B8F1000F03DA5C
:1006E00000200146BDE8F08D00204FF48011064641
:1006F00084460EE0171B73EB050705D3121B63EB53
:10070000050306434CEA010C49084FEA30009218F1
:100710005B4150EA0107EDD152EA030012D082EAB0
:10072000040083EA0501084305D0101BAB4106D243
:100730000122002306E000224FF0004302E06FF0A8
:10074000010253101AEB06004CEB085110EB0A00A3
:1007500041EB0B01BDE8F04D00F049BA0EB5C10FF9
:1007600080EAE0700844CA07002140F233438DE874
:100770000E000A460B4600F049FA03B000BD0EB564
:1007800040F2334102910021CDE900110A460B46A7
:1007900000F03CFA03B000BD0EB540F233420292C5
:1007A0000022CDE90022134600F030FA03B000BD6C
:1007B000C1F30A5210B5C1F3130140F2FF3341F403
:1007C00080119A4201DA002010BD40F233439A4270
:1007D000A2F2334203DC524200F087F810BD904091
:1007E00010BD00F0004230F000400AD0C10D01F50C
:1007F0006071C0F3160042EA0151C208400711437C
:10080000704700200146704730B5041E71F10004A6
:1008100004DB4FF00044404264EB0101141E73F10D
:10082000000405DB1C464FF00043524263EB040317
:100830008B4208BF824230BD30B5041E71F1000406
:1008400004DB4FF00044404264EB0101141E73F1DD
:10085000000405DB1C464FF00043524263EB0403E7
:10086000994208BF904230BD01F0004330B421F0FE
:10087000004150EA010206D00A0DA2F56072C1F3F0
:100880001301002A02DC30BC00207047440F44EA08
:10089000C104C100E01830BC00EBC25000F070B9D8
:1008A00030B50B46014600202022012409E021FA40
:1008B00002F59D4205D303FA02F5491B04FA02F53D
:1008C0002844151EA2F10102F1DC30BD202A04DB10
:1008D000203A00FA02F1002070479140C2F1200353
:1008E00020FA03F3194390407047202A04DB203A92
:1008F00021FA02F00021704721FA02F3D040C2F140
:1009000020029140084319467047202A06DBCB1786
:10091000203A41FA02F043EAE07306E041FA02F3BA
:10092000D040C2F120029140084319467047A0F11F
:100930004101192900D8203070472DE9F05F824627
:100940000078002715468B460AF10104B946302885
:1009500001D09DB113E014F8010B0127782803D0D2
:10096000582801D045B10AE00DB1102D07D100275C
:10097000102514F8010B02E0082500E00A250026E6
:10098000B0460EE005FB080005FB06F1012701EB70
:1009900010461FFA80F8B6F5803F00D3B94614F828
:1009A000010B294600F0C2F90028EBDABBF1000F79
:1009B00005D00FB1641E00E05446CBF80040B9F1F9
:1009C000000F06D01AF068F902210160C81EBDE8C8
:1009D000F09F48EA0640FAE70FB4002300B589B05B
:1009E0000CA900910B996FF00042CB601E4B06934F
:1009F0001E4B07930423CDE901321D4A089202469B
:100A00006B46002000F020FA09B05DF814FB70B5C9
:100A100086B006464FF0FF300091CDE9010100207D
:100A200015460C4604903246694604A8FFF7D4FFE9
:100A300002460498211825B108B1084600E0204676
:100A40002860049800280DD0002A02DD0098884212
:100A500008D0081B0094CDE901043246694604A879
:100A6000FFF7BAFF06B070BD811004089F1004089C
:100A7000510204082DE9F04791460E46804604468F
:100A8000002514F8017B2FB1FFF7DEFB0068C05D85
:100A9000C007F6D12B2F02D02D2F1ED0641E4A4640
:100AA0003146204600F00CFB26B13268A24201D14B
:100AB000C6F800806A054FF0020418D50023D0EB79
:100AC000030563EB01025D1B934109DB0023D0EBBF
:100AD000030063EB0101BDE8F08745F48065DEE7C4
:100AE0001AF0DAF8046000204FF00041F3E7021E2C
:100AF00071F10002EFDA1AF0CFF804604FF0FF3026
:100B00004108E8E72DE9F05F93460F46804604462A
:100B100000261AF0C1F8D0F80090824614F8015B64
:100B20002DB1FFF791FB0068405DC007F6D12B2D7A
:100B300002D02D2D1FD0641E0021CAF800105A4685
:100B40003946204600F0BCFA024627B13868A04278
:100B500001D1C7F80080DAF8000002280ED0CAF8E8
:100B6000009070050AD500200346D2EB000063EB2D
:100B70000101BDE8F09F46F48066DDE71046F8E726
:100B80000029A8BF7047401C490008BF20F00100A1
:100B9000704710B4B0FA80FC00FA0CF050EA01047F
:100BA00004BF10BC704749B1CCF1200421FA04F411
:100BB00011FA0CF118BF012121430843A3EB0C01EA
:100BC000CB1D4FEA00614FEA102042BF002010BC4D
:100BD000704700EBC35010440029A4BF10BC7047FD
:100BE000401C490008BF20F0010010BC704710B540
:100BF000141E73F1000408DA401C41F10001921840
:100C00005B411A4301D120F0010010BD2DE9F04DE8
:100C100092469B4611B1B1FA81F202E0B0FA80F23D
:100C200020329046FFF752FE04460F4640EA0A0083
:100C300041EA0B0153465A46084313D0114653EA82
:100C4000010019D0C8F140025046FFF74EFE05469C
:100C50000E46504659464246FFF738FE084305D037
:100C6000012004E020463946BDE8F08D0020054310
:100C700046EAE0762C4337430A986305E40AA0EB82
:100C800008000022FD0A44EA47540A3002D5002039
:100C90000146E9E7010510196941DDE90845001938
:100CA0006941BDE8F04DA2E770B521F00043034370
:100CB0000CD0C1F30A550024D5EB040564EB040302
:100CC000D617AD1AB34102DB0020014670BD2018D3
:100CD00041EB025170BDC1F30A52C1F3130140F25E
:100CE000FF3341F480119A4202DA00200146704736
:100CF00040F233439A42A2F2334202DC5242FFF7FF
:100D0000F4BDFFF7E3BD0000064C074D06E0E068C8
:100D100040F0010394E8070098471034AC42F6D342
:100D2000FFF748FA4CA70F086CA70F083A2800D223
:100D3000303820F02002412A01D3A2F13700884246
:100D400001D34FF0FF3070472DE9FF4F087881B095
:100D50009946FF2805D0491C2D2804D000240023E3
:100D600008E000230BE00124F9E703EB830300EB29
:100D70004303491C0878FF28F7D104B15B420020E7
:100D80000090147801462D2C01D02B2C04D1521C3C
:100D90002D2C12D00024009400251678FF2E0ED0A2
:100DA0000A24A0FB04C801FB0481002700FB0711F3
:100DB000521C16EB0C006941EFE70124EBE7994464
:100DC00050EA01020ED00024AA4D2646DFF8A88280
:100DD000FFF7E2FC82468B46B9F1000009DAC9F15F
:100DE00000071BE001980021C0E9001105B0BDE833
:100DF000F08F074612E0F80707D022462B46304610
:100E00004146FFF7CAFB0646884622462B46104657
:100E10001946FFF7C2FB04460D467F10002FEAD1AA
:100E2000B9F1000F324643465046594602DAFFF701
:100E300026FC01E0FFF7B1FB009A0AB181F0004106
:100E4000019AC2E90001D1E72DE9FF4F1F468DB09D
:100E5000D7E901464FF0FF382E2045464FF00009F4
:100E60000B90B9696D1C0E988847396A824688478D
:100E70000028F6D1BAF1FF3F0AD024F4D064002E46
:100E800011DDBAF12B0F08D0BAF12D0F0BD102E012
:100E9000404611B0ABE744F48064B9696D1C0E980C
:100EA00088478246761E6946600501D52D2000E000
:100EB0002B208DF8000001F1010B0DF1200809E055
:100EC000B9696D1C0E98884782460F9844F40074E7
:100ED000761E0560002E02DDBAF1300FF0D00B99BE
:100EE0008A453ED144F0800406E00F99681CA9F1C0
:100EF000010944F400740860B9696D1C761E0E98EF
:100F0000884782463028F0D02BE00B998A4505D1DE
:100F1000200603D444F08004761E18E050461AF0F0
:100F2000BFFE08B30DF11301761E44F400748B4527
:100F300008D2AAF130000BF8010B200607D5A9F161
:100F4000010003E0200602D409F101008146A0055A
:100F500002D50F99681C0860B9696D1C0E98884706
:100F60008246002ED1DC53E0002E51DDBAF1650F30
:100F700002D0BAF1450F4BD1A00549D5B9696D1C16
:100F800024F44074761E0E9888478246002E0CDDAD
:100F90002B2804D0BAF12D0F07D144F48074B9691D
:100FA0006D1C0E9888478246761EE00501D52D21DE
:100FB00000E02B2108F8011BCDF82C8021E00DF179
:100FC0002901761E44F4007488450CD2AAF1300041
:100FD00010F0FF0088F8000002D10B99884509D96C
:100FE00008F1010806E0E00501D5244801E042F2DD
:100FF0000F708146B9696D1C0E98884782460F981C
:101000000560002E04DD50461AF04AFE0028D6D1B5
:10101000F9690E988847FF208BF8000088F80000D7
:101020000020069007904B466A4608A906A8FFF7DD
:101030008BFEA00502D46FF001002AE714F0240F04
:101040000AD0E00714D1DDE906123868031D3B60C1
:101050000068C0E900120BE0DDE90601FFF704FCBF
:101060000146E00704D13868021D3A60006801605B
:1010700028460EE7000024400000F03FF1D8FFFFB3
:10108000426842B1016811F8013B23B1521EC0E928
:101090000012184670470121C160881E70474268DF
:1010A0005AB1C368016843B983688B4205D0491EB1
:1010B000521CC0E90012002070474FF0FF3070470B
:1010C0002DE9F74F4FF00009009C1546CA4614F869
:1010D000010B302801D0ADB115E014F8010B4FF031
:1010E0000109782803D0582801D04DB10BE00DB18B
:1010F000102D08D14FF00009102514F8010B02E063
:10110000082500E00A2500273E46B8464FEAE57B61
:1011100016E0A5FB07230BFB073105FB080005FBC9
:101120000616030CD71846F100061FFA80F8381E81
:101130004FF0010976F5803000D3CA4614F8010B50
:101140002946FFF7F3FD0028E3DA019838B1B9F139
:10115000000F01D0641E00E0009C01980460BAF109
:10116000000F08D019F098FD02210160C81E014649
:1011700003B0BDE8F08F310441EA174148EA074067
:10118000F6E72DE9F04D00231A461B1A8A4103DBCE
:1011900000200146BDE8F08DC1F30A52C1F31301EE
:1011A00041F480154FF0000BD10702D100186D41BA
:1011B000521E0027044640F2FF11384601EB620A36
:1011C0003E468046024600204FF48011FFF78DFB1B
:1011D000C2197141BB1846EB0100B4EB030C75EB6F
:1011E000000C04D3E41A65EB000517460E462419DB
:1011F00008F101006D4180463428E3DDF91946EB22
:101200000600091BA84103D24FF0FF32134601E04C
:10121000002213461BEB070046EB0A51BDE8F04DD8
:10122000FFF7E5BC70B58C1810F8015B15F00703EB
:1012300001D110F8013B2A1106D110F8012B03E06F
:1012400010F8016B01F8016B5B1EF9D12B0705D477
:101250000023521E0DD401F8013BFAE710F8013BC0
:10126000CB1A921C03E013F8015B01F8015B521EDC
:10127000F9D5A142D8D3002070BD014648780A783C
:1012800040EA022070470246002004E0137803B9C8
:1012900003E0401C521C8842F8D300BF7047000096
:1012A00070B505460C4608480560204600F00EF86B
:1012B00000BF054800680028FBD100214FF08040A6
:1012C00013F071FD70BD0000140300203EB504460C
:1012D00000214FF0804013F066FD002201218807B5
:1012E00013F0A8FE022C02D10B20019004E0012C87
:1012F00002D142F6DF6001900520ADF80000002029
:10130000ADF80800ADF8020069464FF0804013F0D8
:10131000E7FE0121880713F043FD0121880713F040
:1013200030FD01221146900713F084FE0121880749
:1013300013F039FD3EBD000010B54FF48071144824
:10134000FEF7B6FF01201249087006204870002001
:1013500088700D20C87000200871487188710D4890
:1013600090F85800C8710821094808F065FF00127C
:10137000074908720821064808F05EFF04494872D0
:101380000A21034818F03AFB01200349087010BDF8
:101390008031012084060020A002002070B50446A0
:1013A0000D465948594948602CBB59480068642883
:1013B00006D2002307220421184608F095FF06E014
:1013C0005349002307220868042108F08DFF504983
:1013D000002307220868042108F086FF00234D4AF5
:1013E0008221502019F09EFB00234BA28221A020D5
:1013F00019F098FB1FE0012C1DD1454800686428B6
:1014000006D2002306220321184608F06DFF06E0ED
:101410003F49002306220868032108F065FF0023E6
:101420003C4A8221502019F07DFB00233AA2822100
:10143000A02019F077FB9DB93549002307224868A1
:10144000042108F051FF0023324AA021502019F056
:1014500069FB002331A2A021084619F063FB14E0C8
:10146000012D12D12A49002306224868032108F0E1
:101470003BFF0023274AA021502019F053FB0023F3
:1014800026A2A021084619F04DFB2149002306227F
:10149000C868032108F028FF00231E4ABE215020FF
:1014A00019F040FB00231EA2BE21A02019F03AFB38
:1014B0001749002307228868042108F015FF00233C
:1014C000144A82214FF48C7019F02CFB002315A2D2
:1014D00082214FF4B47019F025FB0D490023062238
:1014E000886F194608F000FF00230A4AA0214FF434
:1014F0008C7019F017FB00230BA2A0214FF4B470DD
:1015000019F010FB70BD0000653434005802002053
:1015100088080020CC0B002056000000410000008D
:1015200057000000A6B800006D41480030B587B0F4
:101530000020059000240025012001900020FE4994
:101540000870FE4908704FF0501009F049FB002068
:1015500002F00CFB0020049011F02EF815E1BDF80C
:101560001400401C80B20590F548007818B9204658
:1015700007F0E4FEC5B2F3480078012801D10190DC
:101580002C466FF07F40F0490860F048007838B191
:101590000020EE49087007F0FBF90020EC490870C4
:1015A000EC480078012804D10020EA4908700EF0C8
:1015B000F1FBE9480078012806D10020E6490870CF
:1015C0000EF002F9012001909DF80400012804D1D9
:1015D000204602F03FF800200190D748007801280B
:1015E00004D10EF0BDF80020D3490870DB4890F814
:1015F0006D0138B9DA4A92F8201092F82100FFF70D
:10160000CDFE22E0D54890F86D0101281DD10CF0E7
:10161000BDFC03F02FFA6FF07F40CB490860D14842
:1016200048600023D0A2F1214FF4CC7019F07AFA6F
:101630000220CA4981F86D01C948B0F8DC01401C9C
:10164000C749A1F8DC0112F019FD01A9C4485C30BA
:1016500010F0DEFC01A9C248603010F0D9FC01A9ED
:10166000BF48643010F0D4FCC148007870B1C14864
:101670000078052805D110F09FFF0020BD490870B3
:1016800004E0BC480078401CBA490870BA48407869
:1016900001287AD1B94800780028FAD1B648807874
:1016A0000028F6D10120019009F05AF906909DF822
:1016B0001800B34908709DF81800002871D0A048A0
:1016C000007800286DD19DF818000E286AD00ADC39
:1016D0000E2868D2DFE800F067F3F4F5ECEBF8F7DA
:1016E000F6F9FAFBE4FD182874D008DCA0F10F002D
:1016F0000628EED2DFE800F0FE665B4D31101C28B4
:1017000069D004DC192867D01A284CD1AAE01F2818
:1017100070D04228F9D1E3E114B1012C1AD106E0CE
:101720009848007810B906209749087013E095484A
:10173000007870B900208A4981F8580010F03CFF09
:101740004FF0501009F04CFA012002F00FFA12F09D
:1017500095FC00E000BF00BFFEE214B1012C15D1E2
:1017600000E014E08748007870B902207C4981F8D5
:10177000580010F021FF4FF0501009F031FA01200D
:1017800002F0F4F912F07AFC01E0E5E200BF00BFDC
:10179000E2E24CB97B48007810B916207A4908700B
:1017A00003E0DAE294E0D6E200BF00BFD4E234B94D
:1017B0007448007810B917207349087000E000BF22
:1017C00000BFC9E2654890F86D01A0B92CB1012CA9
:1017D0000ED109E0BEE2B4E11DE06A48007810B91C
:1017E0000D206949087004E004205D49487000E05C
:1017F00000BF0FE096E1594890F86C0150B9002005
:10180000564981F86D014FF0501009F0E9F90020B8
:1018100002F0ACF9A0E2524890F8580058B9052CF3
:1018200002DD201FC4B21CE0032C1ADA002C18DDE4
:10183000601EC4B215E04A4890F85800022810D142
:10184000062C01D102240CE0052C01D1022408E071
:10185000022C02D1601EC4B203E0012C01D1601E33
:10186000C4B279E23E4890F8580058B9052C04DA21
:10187000012C02DD201DC4B220E0022C1EDA601C07
:10188000C4B21BE0364890F85800022816D1022C4A
:1018900001D1062412E0012C0ED102240EE018E042
:1018A00048E114E012E010E00CE00CE00CE03AE15A
:1018B00078E106E004E002E004B901244CE200BF54
:1018C00000BF00BF00BF00BF00BF00BF00BF00BF20
:1018D00000BFA01E07287CD2DFE800F004637FFF72
:1018E00099C9E4002748007820BB1D4890F85800AB
:1018F00080B900E0F5E07620ADF808003020ADF8C2
:101900000A004C20ADF80C0002A805F088FB144931
:10191000C8653FE0124890F8580002283AD1762076
:10192000ADF808003020ADF80A005020ADF80C00EA
:1019300002A82BE032E00000590000205B000020EC
:101940008000002052020020580200206200002087
:101950006C0000203D0000203E0000208808002090
:101960008406002038003100C8B7C8CF000000004E
:10197000A002002088000020480200206001002012
:101980008B000020840000205D00002005F0B9FBE2
:10199000FD4988670CF058FC10F00EFE12F06EFB4B
:1019A0009CE0FA480078B8B9F74890F8580068B950
:1019B0007620ADF808004620ADF80A004C20ADF8BE
:1019C0000C0002A805F02BFBEF4908660CF03CFC6C
:1019D00000E082E012F052FB80E0EC480078A8B909
:1019E000E94890F8580068B97620ADF808005C2006
:1019F000ADF80A004C20ADF80C0002A805F00FFB72
:101A0000E14948660CF020FC12F038FB66E0DF4844
:101A1000007858BBDC4890F8580078B94FF4B8709B
:101A2000ADF808003020ADF80A004C20ADF80C00ED
:101A300002A805F032FCD449C86613E0D24890F8F9
:101A4000580002280ED14FF4B870ADF808003020CD
:101A5000ADF80A004C20ADF80C0002A805F01DFC02
:101A6000C949C8670CF0F0FB12F008FB36E0C74824
:101A70000078B0B9C44890F8580070B94FF4B87005
:101A8000ADF808004620ADF80A004C20ADF80C0077
:101A900002A805F002FCBC4908670CF0D5FB12F067
:101AA000EDFA1BE0B9480078B0B9B74890F8580093
:101AB00070B94FF4B870ADF808005C20ADF80A00BA
:101AC0004C20ADF80C0002A805F0E7FBAE494867D2
:101AD0000CF0BAFB12F0D2FA00E000BF00BF3BE10D
:101AE0003AE1AA48007890B90320A949087012F099
:101AF000E5FA0120A74908709FEDA70AA74880EDE5
:101B00001D0A0120A149087010F056FD09E00320CC
:101B10009F49087000209D49087010F04DFD12F09B
:101B2000C5FA19E118E19948007810B912209C49CA
:101B3000087011E19548007810B90620984908709E
:101B40000AE1012C2DD1904890F8580090B98F48A7
:101B5000007830BB02208C4981F8580010F02CFD31
:101B60004FF0501009F03CF8012001F0FFFF12F097
:101B700085FA16E0844890F85800022811D183486D
:101B8000007870B90020804981F8580010F014FDE9
:101B90004FF0501009F024F8012001F0E7FF12F097
:101BA0006DFAD9E0A01E07287ED2DFE800F00434E9
:101BB0004ED0689AB5007548007848BB724890F8D6
:101BC000580070B97620ADF808003020ADF80A0052
:101BD0004C20ADF80C0002A805F021FA6A49C8654E
:101BE00012E0694890F8580002280DD17620ADF82F
:101BF00008003020ADF80A005020ADF80C0002A813
:101C000005F07FFA604988670CF01EFB10F0D4FCE9
:101C100012F034FA9CE05D480078A8B95A4890F870
:101C2000580068B97620ADF808004620ADF80A00E3
:101C30004C20ADF80C0002A805F0F1F952490866F5
:101C40000CF002FB12F01AFA82E050480078A8B9B2
:101C50004D4890F8580068B97620ADF808005C202F
:101C6000ADF80A004C20ADF80C0002A805F0D7F939
:101C7000454948660CF0E8FA12F000FA68E043487B
:101C8000007868BB404890F8580088B94FF4B870A5
:101C9000ADF808003020ADF80A004C20ADF80C007B
:101CA00002A805F0FAFA00E051E03749C86613E0EF
:101CB000354890F8580002280ED14FF4B870ADF8AE
:101CC00008003020ADF80A004C20ADF80C0002A846
:101CD00005F0E3FA2C49C8670CF0B6FA12F0CEF919
:101CE00036E02A480078B0B9274890F8580070B913
:101CF0004FF4B870ADF808004620ADF80A004C204B
:101D0000ADF80C0002A805F0C8FA1F4908670CF0EE
:101D10009BFA12F0B3F91BE01C480078B0B91A48DE
:101D200090F8580070B94FF4B870ADF808005C2016
:101D3000ADF80A004C20ADF80C0002A805F0ADFA91
:101D4000114948670CF080FA12F098F900E000BFE2
:101D500000BF01E000E000BF28E09DF8180028B3B4
:101D600010480078012821D19DF8180016281BD1B1
:101D70000C480078012806D100200A49087008465E
:101D8000007806F06FFE10E084060020840000203A
:101D90008700002034000020000000008808002098
:101DA0005D0000208000002000BF00BF03480078D5
:101DB00015283FF4D4AB07B030BD00005D00002013
:101DC00010B54FF48061024808F0B2F810BD000071
:101DD0000008024010B54FF48061024808F0AAF8EC
:101DE00010BD00000008024010B50446A21E0E48B7
:101DF0000E4B1B68C1180E48FEF733FAA01EC1B285
:101E00000B4808F019FA0112A01E094A1154C1B278
:101E1000104608F011FAC1B2601E054A115421465D
:101E2000104617F0EBFD10BD5A0D00207400002085
:101E3000580C002000BFFEE701460120704700005B
:101E400038B504460022694620460EF0AFFE10B9B0
:101E50004FF0FF3038BD9DED000ADFED0A0A20EE9D
:101E6000200ABCEEC00A10EE100A07498860012063
:101E700006490870002006490870012005490870CD
:101E800000BFE7E700401C46840600207A010020DE
:101E90007B010020780100200146012070470146A7
:101EA0000120704738B504460022694620460EF0EE
:101EB0007DFE10B94FF0FF3038BD022202492046A6
:101EC0000FF025FA0120F7E7690A0C0838B5044637
:101ED0000022694620460EF069FE10B94FF0FF302F
:101EE00038BD0222024920460FF011FA0120F7E71F
:101EF000690A0C08014601207047000038B5044605
:101F00000022694620460EF051FE10B94FF0FF3016
:101F100038BD9DED000AF2EE040A20EE200ABCEE68
:101F2000C00A10EE100A0649C86001200549087071
:101F300000200549087001200449087000BFE7E748
:101F4000840600207A0100207B0100207801002017
:101F500010B52DED028B0446144890F8200080B98E
:101F6000134890ED010AB8EE400ADFED120A80EE48
:101F7000201AB0EE418AB0EE480A20460FF08EFAE1
:101F80000FE00B4890ED010AB8EE400ADFED0A0AB7
:101F900080EE201AB0EE418AB0EE480A20460FF0DB
:101FA0007DFA0120BDEC028B10BD000084060020EC
:101FB0008808002000401C4600007A4401460120A9
:101FC0007047000038B504460022694620460EF0EE
:101FD000EDFD10B94FF0FF3038BD9DED000ADFED8B
:101FE0000A0A20EE200ABCEEC00A10EE100A0749C9
:101FF0004860012006490870002006490870012049
:102000000549087000BFE7E700401C468406002031
:102010007A0100207B0100207801002010B50446E1
:102020004FF480716748FEF743F901206549087055
:102030006548007810B90846847007E06248007867
:10204000012803D104F110005E498870A5205D4984
:1020500048705D48007800284BD1012C05D0022C37
:1020600003D0092C01D00A2C1BD1601E574951F80E
:102070002000000E5349C870601E544951F82000DA
:10208000000C50490871601E504931F82000000AC8
:102090004C494871601E4D4911F82000494988712A
:1020A0007EE0601E494951F820000A21B0FBF1F0A2
:1020B000000E4449C870601E444951F820000A21AE
:1020C000B0FBF1F0000C3F490871601E3F4951F828
:1020D00020000A21B0FBF1F0000A3A494871601E65
:1020E0003A4951F820000A21B0FBF1F035498871D6
:1020F00056E035480078012852D1012C05D0022C39
:1021000003D0032C01D0042C1FD104F10F002F4960
:1021100051F82000000E2B49C87004F10F002B4924
:1021200051F82000000C2749087104F10F002749DD
:1021300031F82000000A2349487104F10F002349B7
:1021400011F820001F4988712AE004F10F001F498F
:1021500051F820000A21B0FBF1F0000E1949C870B7
:1021600004F10F00194951F820000A21B0FBF1F0E9
:10217000000C1449087104F10F00144951F82000B3
:102180000A21B0FBF1F0000A0E49487104F10F007A
:102190000E4951F820000A21B0FBF1F0094988717D
:1021A0000721084808F048F800120649C8710721BD
:1021B000044808F041F8034908720921014817F062
:1021C0001DFC10BD803101208E00002098080020E9
:1021D00070B5054600205049086050484068A84244
:1021E0004CD24E484068281A32280ED9002404E008
:1021F0004B4840F82450601CC4B20A2CF8DB474816
:10220000456000204749086084E04648006850B9AE
:1022100044480068401C43490860414805600A2161
:1022200008F047F80DE03F480068012809D13D4813
:102230000068401C3B490860394845620A2112F099
:102240009AFF38480068022864D1002035490860A8
:10225000022409E0324850F824002F490968084454
:102260002D490860601CC4B2082CF3DB2A480068C2
:102270000621B0FBF1F0294948604BE0274840684F
:10228000401B32280ED9002404E0254840F8245091
:10229000601CC4B20A2CF8DB2048456000202149AC
:1022A000086037E01F48006850B91E480068401CAD
:1022B0001C4908601A4805600A2107F0FAFF0DE082
:1022C00018480068012809D116480068401C1549C3
:1022D0000860134845620A2112F04DFF114800685A
:1022E000022817D100200F490860022409E00C4899
:1022F00050F8240008490968084407490860601C30
:10230000C4B2082CF3DB044800680621B0FBF1F0EE
:102310000249486070BD0000FC02002088080020CF
:10232000803701200003002010B50121C8050CF002
:10233000F9FC00214FF400000CF0F4FC10BD00008B
:1023400001460020034A52680A400AB1012000E019
:102350000020704700B0024070B500210022002329
:102360000024344D2D68344E3540324E35603546AC
:102370002D68066835432F4E356035466D6B25F068
:102380000705756335466D6B46683543294E7563A1
:10239000456835B9C5682902058A2A04057D2B06DA
:1023A00021E04568012D05D1C5682902058A2A0466
:1023B000002318E04568022D05D1C568690105694B
:1023C000EA0200230FE04568032D06D1C5686901C4
:1023D0000569AA024569EB0305E0C568290105699D
:1023E0002A0245692B0341EA0205866835431D43ED
:1023F000104EB66B35430F4EB5638569F5633546B0
:102400002D6C6FF30D05356435462D6CC66935436B
:10241000084E3564858C2C0435466D6C05F04045BE
:10242000756435466D6C066A26433543014E756406
:1024300070BD000000B00240FCE0FCFF03480068F3
:1024400040F00100014908607047000000B0024000
:102450000246094B9A4201D2084801E0064810386A
:1024600001F000531BB1064B0B40C36002E0044B6C
:102470000B4083607047000010640240006002401F
:102480007D0F7D0F0246094B9A4201D2084801E0B8
:102490000648103801F000531BB1064B0B40C360D7
:1024A00002E0044B0B408360704700001064024060
:1024B000006002407D0F7D0F21B1026842F00102F1
:1024C000026003E0026822F001020260704700002F
:1024D000016821F00101016000210160416081601B
:1024E000C1600161212141614A49884204D13D21F5
:1024F000484A103A91608CE046491831884205D12B
:102500004FF47461434A103A916082E0414930319E
:10251000884205D14FF474113E4A103A916078E038
:102520003C494831884205D14FF07461394A103A2C
:1025300091606EE037496031884204D13649354AAE
:10254000103AD16065E033497831884204D133498B
:10255000304A103AD1605CE02E499031884204D173
:102560002F492C4A103AD16053E02A49A8318842B9
:1025700005D14FF03D51274A103AD16049E0294931
:10258000884204D13D21274A083A116041E025499B
:102590001831884205D14FF47461224A083A11601B
:1025A00037E020493031884205D14FF474111D4A7B
:1025B000083A11602DE01B494831884205D14FF09F
:1025C0007461184A083A116023E016496031884264
:1025D00004D11149134A121F11601AE011497831D0
:1025E000884204D10D490F4A121F116011E00D49B4
:1025F0009031884204D10A490A4A121F116008E04A
:102600000849A831884204D14FF03D51054A121FB4
:1026100011607047106002403D000020400F002014
:1026200000003D2010640240014600200A6802F0CC
:1026300001020AB1012000E000207047014648680D
:1026400080B2704710B500220268134B1A40CC6864
:102650000B6823434C6923438C692343CC69234390
:102660000C6A23434C6A23438C6A23434C6B2343F9
:102670008C6B23431A430260426922F00702D1E9BE
:102680000B3423431A4342610B6943604B688360F8
:102690008B68C36010BD00003F801CF04160704734
:1026A0000021016041608160C1600161416181611F
:1026B000C161016241628162C16201634163816300
:1026C00070471FB50446012202A920460EF03AFACF
:1026D00018B94FF0FF3004B010BD00226946204603
:1026E0000EF030FA0120F6E710B592B00446002350
:1026F0000CAA114920460EF0ABFA002306AA0E4997
:1027000020460EF0A5FA0F2002AB0CAA0A49009051
:1027100020460EF0E9F80F2002AB06AA0649009009
:1027200020460EF0E1F89FED050B20460EF005FE69
:10273000012012B010BD0000F89E0F08000000003C
:1027400000000000014601207047000038B5044633
:102750000022694620460EF029FA10B94FF0FF30EA
:1027600038BD0222024920460EF0D1FD0120F7E7D4
:10277000690A0C08014601207047000038B504467C
:102780000022694620460EF011FA10B94FF0FF30D2
:1027900038BD0222024920460EF0B9FD0120F7E7BC
:1027A000690A0C08014601207047000038B504464C
:1027B0000022694620460EF0F9F910B94FF0FF30BB
:1027C00038BD0222024920460EF0A1FD0120F7E7A4
:1027D000690A0C08014601207047000038B504461C
:1027E0000022694620460EF0E1F910B94FF0FF30A3
:1027F00038BD0222024920460EF089FD0120F7E78C
:10280000690A0C0810B504460422294620460EF039
:102810007EFD012010BD000038B5044601236A4644
:10282000074920460EF018F910B94FF0FF3038BDB7
:102830000222044920460EF06AFD0120F7E700005D
:1028400014020020690A0C080146012070470000AC
:1028500038B504460022694620460EF0A7F910B9A3
:102860004FF0FF3038BD0222024920460EF04FFDE6
:102870000120F7E7690A0C0801460120704701466C
:102880000120704738B504460022694620460EF004
:102890008DF910B94FF0FF3038BD022202492046B1
:1028A0000EF035FD0120F7E7690A0C0838B504463B
:1028B0000022694620460EF079F910B94FF0FF303A
:1028C00038BD0222024920460EF021FD0120F7E723
:1028D000690A0C087047000010B586B00446012153
:1028E00008460CF00FFA012110200CF06BFA0722B9
:1028F0000A21274807F0F0FA07220921244807F0A7
:10290000EBFA00208DF8160001208DF81700022048
:102910008DF814000002049002208DF8150004A91F
:102920001B4807F091FA02208DF814004002049031
:1029300004A9174807F088FA00940020ADF80400B5
:10294000ADF80600ADF80800ADF80C000C20ADF8AD
:102950000A0069460F4813F065FC0BF0BAFB012230
:1029600040F224410B4813F037FC0121094813F0D1
:10297000E7FB01224021074813F0EEFB01228021F2
:10298000044813F0E9FB00F007F806B010BD0000A2
:10299000000002400010014000B591B001218805FF
:1029A0000CF0B0F93848FFF793FD02A8FFF778FE66
:1029B00000BF3548FFF738FE0028FAD14FF000601D
:1029C0000290324803903248049040200590002045
:1029D000069007904FF480600890002009900A90BC
:1029E0000B904FF480300C9000200D9003200E903F
:1029F00000200F90109002A92348FFF723FE2248E1
:102A00007838FFF765FD00BF1F487838FFF70CFEE8
:102A10000028F9D14FF0006002901C4803901D4837
:102A20000490002005904FF48070069000200790DD
:102A30004FF480600890002009900A900B904FF4AA
:102A400000300C9000200D9003200E9000200F907D
:102A5000109002A90C487838FFF7F4FD3A208DF861
:102A600004000D208DF8050000208DF806000120DF
:102A70008DF8070001A80BF041FB012102487838CE
:102A8000FFF71AFD11B000BDB86402400410014008
:102A900080340120803301207CB504466FF07F40F4
:102AA000F7490860012C01D1012000E000200090CE
:102AB000009820B14FF47F00F149486003E04FF0E7
:102AC0005010EF494860EF4900230722D1F8B800C1
:102AD000042107F009FC122368221A21582008F06B
:102AE000B3F80023E84A1A21582018F01BF80023F5
:102AF000E64A1A21AA2018F015F8022C01D101206B
:102B000000E000200090009820B14FF47F00DC49E5
:102B1000486003E04FF05010D9494860D94900237C
:102B20000722D1F8BC00042107F0DEFB1223682243
:102B30002E21582008F088F80023D34A302158204D
:102B400017F0F0FF0023D14A3021AA2017F0EAFF46
:102B5000032C01D1012000E000200090009820B15A
:102B60004FF47F00C649486003E04FF05010C4495D
:102B70004860C44900230722D1F8C000042107F0AF
:102B8000B3FB122368224621582008F05DF8002389
:102B9000BD4A4621582017F0C5FF0023BB4A083222
:102BA0004621AA2017F0BEFF042C01D1012000E02D
:102BB00000200090009820B14FF47F00B049486099
:102BC00003E04FF05010AE494860AE4900230722A1
:102BD000D1F8C400042107F087FB12237A225A217E
:102BE000582008F031F80023A74A5C21582017F03C
:102BF00099FF0023A54A08325C21AA2017F092FF12
:102C0000052C01D1012000E000200090009820B1A7
:102C10004FF47F009A49486003E04FF05010984904
:102C20004860984900230822D1F8C800042107F021
:102C30005BFB12237A227021582008F005F800234C
:102C4000914A7221582017F06DFF00238F4A1032ED
:102C50007221B42017F066FF062C01D1012000E09C
:102C600000200090009820B14FF47F008449486014
:102C700003E04FF050108249486082490023082247
:102C8000D1F8CC00042107F02FFB12237A228621F1
:102C9000582007F0D9FF00237B4A8821582017F0DD
:102CA00041FF0023794A10328821B42017F03AFFFF
:102CB000072C01D1012000E000200090009820B1F5
:102CC0004FF47F006E49486003E04FF050106C49AC
:102CD00048606C4890F8D50008B16D4D00E06D4D2E
:102CE00012237A2218214FF4A97007F0ADFF65482E
:102CF00090F8D000C0EBC000421900231A214FF415
:102D0000A97017F00FFF082C01D1012000E000206E
:102D10000090009820B14FF47F005949486003E0CB
:102D20004FF0501056494860564890F8D50008B109
:102D3000594D00E0594D12237A222E214FF4A970EB
:102D400007F082FF4F4890F8D100C0EBC000421955
:102D5000002330214FF4A97017F0E4FE092C01D1B3
:102D6000012000E000200090009820B14FF47F0087
:102D70004349486003E04FF05010414948604148E2
:102D800090F8D50008B1424D00E0424D12237A225E
:102D900044214FF4A97007F057FF3A4890F8D20049
:102DA000C0EBC0004219002346214FF4A97017F070
:102DB000B9FE0A2C01D1012000E00020009000980B
:102DC00020B14FF47F002E49486003E04FF05010CF
:102DD0002B4948602B4890F8D50008B12C4D00E0F5
:102DE0002C4D12237A225A214FF4A97007F02CFFA0
:102DF000244890F8D300C0EBC000421900235C21A6
:102E00004FF4A97017F08EFE0B2C01D1012000E0C9
:102E100000200090009820B14FF47F0018494860CE
:102E200003E04FF0501016494860164890F8D5005E
:102E300008B1174D00E0174D12237A2270214FF48C
:102E4000A97007F001FF0F4890F8D400C0EBC00054
:102E50004219002372214FF4A97017F063FE072C6A
:102E600022D2DFE804F01D0405060708090000BFB0
:102E700000BF00BF00BF00BF022001F045FE17E009
:102E80005802002084060020CC0B0020140B0608FA
:102E90007C090608D408060844090608E208060862
:102EA000042001F031FE03E0072001F02DFE00BFF9
:102EB00000BF01F0DFFD0C2C64D2DFE804F0060A4D
:102EC0000B0C0D0E0F3810393A3B032000F006FFB3
:102ED00059E000BF00BF00BF00BF00BF53E06FF06C
:102EE0007F402A4908602A4848602A4890F8D5005F
:102EF00008B1294D00E0294D0020019013E001990F
:102F0000C1EBC1014A190199C1EB011303EB411156
:102F1000202303EB410188B20023F12117F002FEC8
:102F20000198401C019001980228E8D32BE000BFD3
:102F300000BF00BF6FF07F4014490860144848602C
:102F4000144890F8D50008B1154D00E0154D00204B
:102F5000019013E00199C1EBC1014A190199C1EB3C
:102F6000011303EB4111202303EB410188B200233D
:102F7000F12117F0D7FD0198401C0190019802281B
:102F8000E8D300E000BF00BF7CBD00005802002075
:102F9000380031008406002044090608E2080608CB
:102FA0007C090608D408060800B58DB04FF0501013
:102FB00007494860074808A10268684617F040FEC4
:102FC00000236A463221022017F0ACFD0DB000BD8F
:102FD000580200209C000020B6C1C8A1B3C9B9A600
:102FE0002CCEC4BCFEB4F3D0A1CEAA2564D7D6BDE6
:102FF000DA2CC7EBB0B4B7A2CBCDCEC4BCFE000078
:103000007CB504466FF07F40FE490860012C01D179
:10301000012000E000200090009820B14FF47F00D4
:10302000F849486003E04FF05010F6494860F64810
:1030300090F8D50008B1F54D00E0F54D1223682257
:103040001A21582007F000FEEF480078C0EBC000BE
:10305000421900231A21582017F064FD022C01D1D7
:10306000012000E000200090009820B14FF47F0084
:10307000E449486003E04FF05010E2494860E248FC
:1030800090F8D50008B1E34D00E0E34D122368222B
:103090002E21582007F0D8FDDB4890F82000C0EB27
:1030A000C000421900233021582017F03BFD032CAB
:1030B00001D1012000E000200090009820B14FF4E1
:1030C0007F00D049486003E04FF05010CD49486080
:1030D000CD4890F8D50008B1CE4D00E0CE4D12237A
:1030E00068224621582007F0AFFDC74890F821001C
:1030F000C0EBC000421900234621582017F012FDF2
:10310000042C01D1012000E000200090009820B1A3
:103110004FF47F00BB49486003E04FF05010B949BD
:103120004860B949486A00230722042107F0DCF807
:1031300012237A225A21582007F086FD0023B74A2D
:103140005C21582017F0EEFC0023B54A5C21AA2030
:1031500017F0E8FC052C01D1012000E000200090D0
:10316000009820B14FF47F00A649486003E04FF07B
:103170005010A4494860A449886A0023072204210A
:1031800007F0B2F812237A227021582007F05CFD74
:103190000023A24A7221582017F0C4FC0023A04A41
:1031A0007221AA2017F0BEFC062C01D1012000E0FC
:1031B00000200090009820B14FF47F0091494860B2
:1031C00003E04FF050108F4948608F49886C00230E
:1031D0000722042107F088F812237A22862158203A
:1031E00007F032FD00238D4A8821582017F09AFC01
:1031F00000238CA28821AA2017F094FC072C01D16F
:10320000012000E000200090009820B14FF47F00E2
:103210007C49486003E04FF050107A4948607A4892
:10322000006BE0B17849086B00230622194607F0CD
:103230005BF812237A2218214FF4A97007F004FDDD
:103240000023764A1A214FF4A97017F06BFC002373
:10325000764A1A214FF4C77017F064FC19E0122364
:103260007A2218214FF4A97007F0EEFC664890F816
:10327000D50038B900236EA21A214FF4A97017F0B7
:1032800051FC06E000236CA21A214FF4A97017F03C
:1032900049FC082C01D1012000E00020009000989A
:1032A00020B14FF47F005749486003E04FF05010C1
:1032B00054494860544890F8D50008B15F4D00E08B
:1032C0005F4D5149486B00230722042107F00CF899
:1032D00012237A222E214FF4A97007F0B5FC0023A7
:1032E0004E4A30214FF4A97017F01CFC00234C4AC1
:1032F000083230214FF4D27017F014FC092C01D1A0
:10330000012000E000200090009820B14FF47F00E1
:103310003C49486003E04FF050103A4948603A4950
:10332000886B00230722042106F0DEFF12237A2295
:1033300044214FF4A97007F087FC0023374A462147
:103340004FF4A97017F0EEFB0023354A46214FF4E5
:10335000D27017F0E7FB0A2C01D1012000E0002019
:103360000090009820B14FF47F002649486003E0A8
:103370004FF05010234948602349C86B00230822AE
:10338000042106F0B1FF12237A225A214FF4A970CA
:1033900007F05AFC0023214A5C214FF4A97017F072
:1033A000C1FB00231E4A10325C214FF4D77017F086
:1033B000B9FB0B2C01D1012000E000200090009807
:1033C00020B14FF47F000F49486003E04FF05010E8
:1033D0000C4948600C49086C00230522042106F0C2
:1033E00083FF12237A2270214FF4A97007F02CFC7E
:1033F00000230A4A72214FF4A97017F093FB0023AF
:1034000020E0000058020020840600207C09060805
:10341000D4080608D0090608C2090608CC0B00200B
:10342000140B060820562F6D730000004E0206088C
:10343000B9D8B1D5000000004F4646001A0A060868
:10344000DE09060875A272214FF4D27017F06AFBEC
:103450000C2C01D1012000E000200090009820B148
:103460004FF47F006F49486003E04FF050106D4902
:1034700048606D49486C00230522042106F034FFA2
:1034800012237A2286214FF4A97007F0DDFB002376
:10349000664A88214FF4A97017F044FB00235FA20D
:1034A00088214FF4D27017F03DFB0D2C1AD2DFE8C3
:1034B00004F019121314070809150A0B0C0D0E005D
:1034C00000BF00BF00BF00BF00BF00BF00BF0220A1
:1034D00001F01AFB0AE000BF00BF00BF072001F0A7
:1034E00013FB03E0042001F00FFB00BF00BF01F05D
:1034F000C1FA0D2C7ED2DFE804F0070B335B858622
:103500008788898A8B8C8D00022000F0E7FB83E09E
:103510006FF07F404349086045484860424890F852
:10352000D50008B1434D00E0434D0020019013E069
:103530000199C1EBC1014A190199C1EB011303EBD8
:103540004111202303EB410188B20023F12117F040
:10355000E9FA0198401C019001980228E8D35BE049
:103560006FF07F402F490860314848602E4890F83E
:10357000D50008B1314D00E0314D0020019013E03D
:103580000199C1EBC1014A190199C1EB011303EB88
:103590004111202303EB410188B20023F12117F0F0
:1035A000C1FA0198401C019001980228E8D333E049
:1035B0006FF07F401B4908601D4848601A4890F82A
:1035C000D50008B11D4D00E01D4D0020019015E013
:1035D0000199C1EBC1014A190199C1EB011303EB38
:1035E0004111202303EB410188B20023F12117F0A0
:1035F00099FA00E00FE00198401C01900198022820
:10360000E6D309E000BF00BF00BF00BF00BF00BF9E
:1036100000BF00BF00E000BF00BF7CBD20412F6D98
:10362000730000005802002084060020CC0B00200C
:10363000380031007C090608D4080608D0090608BD
:10364000C209060810B504F0C9FE01F013FA02F031
:1036500077FF10BD7CB50446FE4890F8580000285E
:1036600072D1012C01D1012000E0002000900098CF
:1036700020B14FF47F00F849486003E04FF050104C
:10368000F549486014235C221821762007F0DCFA03
:103690006FF07F40F0490860EE4890F8D50060B9BF
:1036A000EC4890F85800C0EBC000EC4942180023E9
:1036B0001A21762017F036FA0BE0E64890F8580009
:1036C000C0EBC000E649421800231A21762017F00B
:1036D00029FA022C01D1012000E00020009000987E
:1036E00020B14FF47F00DC49486003E04FF05010F8
:1036F000D949486014235C222E21762007F0A4FAD1
:103700006FF07F40D4490860D249C86D002307227A
:10371000042106F0E9FD0023D24A3021762017F07B
:1037200001FA0023D04A3021C82017F0FBF9032CFE
:1037300001D1012000E000200090009828B14FF452
:103740007F00C549486004E0EFE04FF05010C249E7
:10375000486014235C224421762007F075FA6FF04C
:103760007F40BD490860BB49086E00230722042141
:1037700006F0BAFD0023BB4A4621762017F0D2F9A5
:103780000023B94A4621C82017F0CCF9042C01D1F6
:10379000012000E000200090009820B14FF47F004D
:1037A000AD49486003E04FF05010AB494860142326
:1037B0005C225A21762007F047FA6FF07F40A64935
:1037C0000860A449486E00230722042106F08CFDFE
:1037D0000023A44A5C21762017F0A4F90023A24A12
:1037E0005C21C82017F09EF9062C01D1012000E0D1
:1037F00000200090009820B14FF47F009649486067
:1038000003E04FF050109449486014235C222E21AD
:10381000C80007F019FA6FF07F408F4908608D49A2
:10382000C86E00230722042106F05EFD00238D4AA6
:1038300030214FF4B87017F075F900238A4A921DB1
:1038400030214FF4E17017F06DF9072C01D1012000
:1038500000E000200090009820B14FF47F007E49E6
:10386000486003E04FF050107B49486014235C220D
:103870004421900007F0E8F96FF07F407649086036
:103880007449086F00230722042106F02DFD002350
:10389000744A46214FF4B87017F044F90023724A75
:1038A000921D46214FF4E17017F03CF9082C01D12C
:1038B000012000E000200090009820B14FF47F002C
:1038C0006549486003E04FF0501063494860142395
:1038D0005C225A21900007F0B7F96FF07F405E49F3
:1038E00008605C49486F00230722042106F0FCFCB5
:1038F00000235C4A5C21880017F014F900235A4A1F
:10390000921D5C214FF4E17017F00CF9012C03D1EA
:10391000062001F0F9F8C0E01CB9032001F0F4F82A
:10392000BBE0082001F0F0F8B7E04A4890F85800F2
:103930000228F0D1012C01D1012000E000200090EC
:10394000009820B14FF47F004349486003E04FF0F6
:1039500050104149486014235C221821762007F05A
:1039600073F96FF07F403C4908603A4890F8D50001
:1039700060B9384890F85800C0EBC0003749421889
:1039800000231A21762017F0CDF80BE0314890F88B
:103990005800C0EBC0003249421800231A2176209B
:1039A00017F0C0F8022C01D1012000E000200090A7
:1039B000009820B14FF47F002749486003E04FF0A2
:1039C000501025494860142368222E21762007F0E4
:1039D0003BF96FF07F40204908601E49886F002343
:1039E0000722012106F080FC00231E4A30217620A8
:1039F00017F098F800231C4A0C323021C82017F029
:103A000091F8062C01D1012000E0002000900098E0
:103A100020B14FF47F001049486003E04FF0501090
:103A20000D49486014235C222E21C80007F00CF9D0
:103A30006FF07F40084908600649C86F00230722DD
:103A4000042106F051FC0023064A30214FF4B870DF
:103A50000CE0000084060020580200204F080608F1
:103A6000DF070608CC0B00203602060817F05AF8CC
:103A70000023354A30214FF4E17017F053F8012C40
:103A800003D1062001F040F807E01CB9032001F043
:103A90003BF802E0082001F037F82C4890F86D015F
:103AA000B0BB092C3DD2DFE804F005093435363CC3
:103AB00037383900002000F011F933E000F0DAFF68
:103AC0006FF07F402249086022484860224890F801
:103AD000D50008B1214D00E0214D0020019013E0F8
:103AE0000199C1EBC1014A190199C1EB011303EB23
:103AF0004111202303EB410188B20023F12117F08B
:103B000011F80198401C019001980228E8D309E0BF
:103B100009E000BF00BF00BF00BF00BF00F0AAFF68
:103B200000E000BF0EE000F0A5FF6FF07F40084905
:103B300008600848486000230AA2F1214FF4CC70C5
:103B400016F0F0FF7CBD00003C020608880800204B
:103B5000580200203800310084060020DF070608E4
:103B6000CA070608C8B7C8CF0000000070B50646EF
:103B7000FFF768FD6FF07F404E4908604E4848608F
:103B80004E4890F8D50008B14D4D00E04D4D002352
:103B900005F12C020421184616F0C4FF6FF07F4097
:103BA000444908604FF050104860444890F858006D
:103BB000F0BB00243AE0042C1BD2404890F8D5001A
:103BC00000EB400303EB00103F4B03EBC00004EBA2
:103BD000440303EB0413C21804EB440000EBC400DD
:103BE0001A2303EB400081B20023184616F09AFF17
:103BF0001BE0324890F8D50000EB400303EB0010C7
:103C0000314B03EBC00004EB440303EB0413C21875
:103C1000201F00EB400303EBC0001A2303EB40001E
:103C200081B20023FA2016F07DFF641C082C00E00E
:103C300001E0C0D339E0214890F85800022834D17F
:103C4000002430E0042C16D21C4890F8D50000EB7C
:103C5000C0001E4B03EB001000EB041204EB440009
:103C600000EBC4001A2303EB400081B20023184686
:103C700016F058FF16E0114890F8D50000EBC00090
:103C8000124B03EB001000EB0412201F00EB40036B
:103C900003EBC0001A2303EB400081B20023FA209B
:103CA00016F040FF641C082CCCD316B9002000F09D
:103CB00015F870BD580200200352F300840600205E
:103CC000DA030608E8020608E6FE050816000608FC
:103CD00010B5032000F002F810BD000010B5044636
:103CE00000F0C8FE002C7CD16FF07F40FC490860DA
:103CF000FC484860FC4890F8D500002840D00023DC
:103D0000FAA2E7211C2016F00DFF0023F9A2FB21E7
:103D10001C2016F007FF0023F8A2E7217E2016F0F2
:103D200001FF0023F6A2FB217E2016F0FBFE0023FC
:103D3000F5A2E721DC2016F0F5FE0023F0A2FB211E
:103D4000DC2016F0EFFE0023F1A2E7214FF49D7076
:103D500016F0E8FE0023EAA2FB214FF49D7016F056
:103D6000E1FE0023ECA2E7214FF4CC7016F0DAFE5E
:103D70000023EBA2FB214FF4CC7016F0D3FE6BE2D4
:103D80000023E8A2E7211C2016F0CCFE0023E7A2C6
:103D9000FB211C2016F0C6FE0023E6A2E7217E20B0
:103DA00016F0C0FE0023E5A2FB217E2016F0BAFE2D
:103DB0000023E4A2E721DC2016F0B4FE0023DFA2FA
:103DC000FB21DC2016F0AEFE0023E0A2E7214FF439
:103DD0009D7016F0A7FE0023D8A2FB214FF49D7022
:103DE00000E010E016F09EFE0023DAA2E7214FF477
:103DF000CC7016F097FE0023D8A2FB214FF4CC70B4
:103E000016F090FE28E2012C2CD16FF07F40B449CF
:103E10000860B44848600023D2A2E721662016F06B
:103E200081FE0023D1A2FB21662016F07BFE002339
:103E3000D0A2E721B62016F075FE0023CFA2FB2109
:103E4000B62016F06FFE0023CEA2E7214FF4D37008
:103E500016F068FE0023CDA2FB214FF4D37016F0BC
:103E600061FEF9E1022C50D19E489D4948609E4870
:103E700090F8D50020B300239CA2E7211C2016F067
:103E800051FE00239BA2FB211C2016F04BFE0023B9
:103E9000A1A2E7217E2016F045FE0023BDA2FB2152
:103EA0007E2016F03FFE0023BCA2E721DC2016F0A6
:103EB00039FE0023B7A2FB21DC2016F033FECBE154
:103EC000002398A2E7211C2016F02CFE002397A2C5
:103ED000FB211C2016F026FE00239EA2E7217E2057
:103EE00016F020FE00239DA2FB217E2016F01AFE74
:103EF0000023ACA2E721DC2016F014FE002397A2D9
:103F0000FB21DC2016F00EFEA6E1032C6DD17548D6
:103F100073494860744890F8D500002832D00023D7
:103F200072A2E7211C2016F0FDFD002371A2FB21E7
:103F30001C2016F0F7FD00236CA2E7217E2016F06E
:103F4000F1FD002393A2FB217E2016F0EBFD002360
:103F500092A2E721DC2016F0E5FD00238DA2FB21D3
:103F6000DC2016F0DFFD002390A2E7214FF4CC7097
:103F700016F0D8FD00238FA2FB214FF4CC7016F071
:103F8000D1FD69E1002367A2E7211C2016F0CAFDDC
:103F9000002366A2FB211C2016F0C4FD002361A2B1
:103FA000E7217E2016F0BEFD00236CA2FB217E20BF
:103FB00016F0B8FD00237BA2E721DC2016F0B2FD4D
:103FC000002366A2FB21DC2016F0ACFD00237BA2BF
:103FD000E7214FF4CC7016F0A5FD002379A2FB2158
:103FE0004FF4CC7016F09EFD36E1042C50D13D48C4
:103FF0003B4948603C4890F8D50020B300233BA2E1
:10400000E7211C2016F08EFD00233AA2FB211C2084
:1040100016F088FD002335A2E7217E2016F082FDF0
:1040200000235CA2FB217E2016F07CFD00235BA216
:10403000E721DC2016F076FD002356A2FB21DC20D0
:1040400016F070FD08E1002360A2E7211C2016F0A5
:1040500069FD00235BA2FB211C2016F063FD0023F9
:104060005CA2E7217E2016F05DFD00233DA2FB212E
:104070007E2016F057FD002358A2E721DC2016F021
:1040800051FD002337A2FB21DC2016F04BFDE3E0BD
:10409000052C24D1134812494860134890F8D500E4
:1040A00070B100234FA2F1214FF49D7016F03AFD3C
:1040B00000234DA2F1214FF4CC7016F033FDCBE07C
:1040C00000234BA2F1214FF4987016F02BFD002332
:1040D0004AA2F1214FF4CC7016F024FDBCE091E02F
:1040E0005802002038003100840600204D4541531D
:1040F00000000000444953500000000042415400B9
:10410000544553540000000044594E410000000043
:104110004C495354000000004C494D4954000000E4
:1041200053455400B2E2C1BF00000000CFD4CABE64
:1041300000000000B5E7B3D800000000B2E2CAD426
:1041400000000000B6AFCCAC00000000C1D0B1ED63
:1041500000000000BCABCFDE00000000C9E8D6C301
:1041600000000000CEC4BCFE00000000B9DCC0EDC1
:1041700000000000B1A3B4E600000000CAFDBEDDEF
:1041800000000000B8FCB6E00000000020322F3232
:10419000000000005345545550000000205359536F
:1041A00000000000CFB5CDB3000000004649524DDD
:1041B000000000005550444154450000B9CCBCFEFD
:1041C00000000000C9FDBCB600000000CCF8D7AA72
:1041D00000000000B6C1C8A100000000B7A2CBCD0E
:1041E00000000000524553004241434B00000000D4
:1041F000B2E2CAD4BDE1B9FB00000000B7B5BBD83C
:1042000000000000062C27D16FF07F4013490860A2
:1042100013484860134890F8D50001280CD10023BA
:1042200011A2F2211C2016F07DFC002310A2F22125
:104230007E2016F077FC0FE00A4890F8D50058B9B8
:1042400000230DA2F2211C2016F06CFC00230CA20E
:10425000F2217E2016F066FC10BD000058020020FE
:10426000380031008406002043414E43454C200075
:10427000434F4E4649524D002020C8A1CFFB20009D
:104280002020C8B7C8CF200011B581B09848007869
:1042900000287CD1009057E09DF804100098401C45
:1042A000814204D14FF47F009249486003E04FF00F
:1042B00050109049486000980A281FD2009800EBDF
:1042C000800080001A3081B214235A22A02006F008
:1042D000BBFC8949009A51F82200002307220421DF
:1042E00006F002F8009800EB800080001A3081B2DE
:1042F0000123824AA02016F015FC22E000980A381B
:1043000000EB800080001A3081B214235A224FF44F
:10431000AF7006F099FC7849009A51F8220000230A
:104320000722042105F0E0FF00980A3800EB800026
:1043300080001A3081B20123704A4FF4AF7016F03A
:10434000F1FB0098401C009000981028A4D39DF821
:104350000400112804D14FF47F006649486003E04F
:104360004FF050106349486014235A2292214FF4B1
:10437000AF7006F069FC624900230822D1F8F4010D
:10438000042105F0B1FF01235C4A922100E04AE0DC
:104390004FF4AF7016F0C6FB9DF80400122804D14C
:1043A0004FF47F005349486003E04FF050105149EB
:1043B000486014235A22A6214FF4AF7006F044FC43
:1043C0004F4900230822D1F8F801042105F08CFFA1
:1043D00001234A4AA6214FF4AF7016F0A3FB9DF8C3
:1043E0000400132804D14FF47F004249486003E0E1
:1043F0004FF050103F49486014235A22BA214FF41D
:10440000AF7006F021FC3E4900230822D1F8FC01E0
:10441000042105F069FF0123384ABA214FF4AF7037
:1044200016F080FB3BE032480078012837D10020AD
:10443000009031E09DF804100098401C814204D1A6
:104440004FF47F002B49486003E04FF0501029499A
:104450004860009800EB800080001A3081B214237D
:104460005A22A02006F0F0FB2349009A103251F89E
:10447000220000230722042105F036FF009800EBFC
:10448000800080001A3081B201231C4AA02016F05F
:1044900049FB0098401C009000980928CAD34FF0AF
:1044A00050101449486000F0E5FA6FF07F40114960
:1044B000086014484860144C0220009013E00099F2
:1044C000C1EBC1010A190099C1EB011303EB4111C2
:1044D000202303EB410188B20023F12116F022FBD7
:1044E0000098401C009000980528E8D31CBD0000EF
:1044F0008E0000205802002098080020CC0B0020DD
:104500008406002038003100F40706087CB5044614
:10451000012C00D100E000200090009820B14FF461
:104520007F00F849486003E04FF05010F5494860BB
:1045300014235C221821762006F086FB6FF07F4062
:10454000F0490860F04890F8D50060B9EE4890F85E
:104550008000C0EBC000ED49421800231A217620EC
:1045600016F0E0FA0BE0E84890F88000C0EBC000DD
:10457000E749421800231A21762016F0D3FA022CBC
:1045800001D1012000E000200090009820B14FF4FC
:104590007F00DC49486003E04FF05010D949486083
:1045A00014235C222E21762006F04EFB6FF07F4014
:1045B000D4490860D449D1F884000023072204219B
:1045C00005F092FE0023D34A3021762016F0AAFA95
:1045D0000023D14A3021C82016F0A4FA032C01D1BF
:1045E000012000E000200090009820B14FF47F00EF
:1045F000C449486003E04FF05010C249486014239A
:104600005C224421762006F01FFB6FF07F40BD49FD
:104610000860BD49D1F8880000230722042105F075
:1046200063FE0023BB4A4621762016F07BFA002366
:10463000B94A4621C82016F075FA042C01D1012090
:1046400000E000200090009820B14FF47F00AD49B9
:10465000486003E04FF05010AA49486014236422D8
:104660005A21762006F0F0FA6FF07F40A5490860E5
:10467000A549D1F8940000230522042105F034FE59
:104680000023A44A5C21762016F04CFA0023A24AAB
:104690001E325C21B22016F045FA052C01D1012012
:1046A00000E000200090009820B14FF47F00954971
:1046B000486003E04FF050109249486014235C2298
:1046C0001821900006F0C0FA6FF07F408D49086015
:1046D0008D4890F8D50068B98B4890F89000C0EBF1
:1046E000C0008E49421800231A214FF4B87016F00A
:1046F00019FA0CE0844890F89000C0EBC00088499B
:10470000421800231A214FF4B87016F00BFA062C49
:1047100001D1012000E000200090009820B14FF46A
:104720007F007849486003E04FF0501075494860B9
:10473000142370222E21C80006F086FA6FF07F4005
:10474000704908607049D1F88C00002308220121CB
:1047500005F0CAFD00236F4A30214FF4B87016F0FF
:10476000E1F900236C4A2A3230214FF4E57016F04B
:10477000D9F9072C01D1012000E000200090009819
:1047800020B14FF47F005F49486003E04FF05010C4
:104790005C4948601423702244214FF4B87006F03D
:1047A00053FA6FF07F40574908605749D1F89C0091
:1047B00000230822012105F097FD0023554A4621D8
:1047C0004FF4B87016F0AEF90023534A2A3246214E
:1047D0004FF4E57016F0A6F9082C01D1012000E095
:1047E00000200090009820B14FF47F0045494860B8
:1047F00003E04FF0501043494860142364225A21CB
:104800004FF4B87006F020FA6FF07F403D49086021
:104810003D49D1F8980000230522042105F064FDEC
:1048200000233C4A5C21880016F07CF900233A4AB8
:104830001E325C214FF4D67016F074F9394890F8A6
:104840006D01002877D124B1012C06D0052C6ED142
:104850002DE00020FFF742FA6CE000F00BF96FF05A
:104860007F402849086030484860274890F8D500C4
:1048700008B1274D00E0254D0020019013E001997B
:10488000C1EBC1014A190199C1EB011303EB4111BD
:10489000202303EB410188B20023F12116F042F9F5
:1048A0000198401C019001980228E8D342E000F0F2
:1048B000E1F86FF07F40134908601B4848601248D8
:1048C00090F8D50008B1164D00E0144D002001907D
:1048D00013E00199C1EBC1014A190199C1EB011320
:1048E00003EB4111202303EB410188B20023F121A6
:1048F00016F018F90198401C019001980328E8D39C
:1049000018E018E05802002084060020D4080608A9
:104910007C090608CC0B002036020608520906085E
:10492000670906088808002038003100FFE700F01A
:10493000A1F800BF0EE000F09DF86FF07F4006493F
:10494000086006484860002305A2F1214FF4CC70AE
:1049500016F0E8F87CBD0000580200203800310055
:10496000C8B7C8CF0000000070B5FEF76BFE6FF04F
:104970007F402449086024484860244890F8D500C6
:1049800008B1234E00E0234E002306F14202042129
:10499000184616F0C7F86FF07F401A4908604FF0CC
:1049A00050104860194890F8D50008B91A4D00E039
:1049B0001A4D002420E0042C0ED205EB041204EB67
:1049C000440000EBC4001A2303EB400081B2002333
:1049D000184616F0A7F80EE005EB0412201F00EBB6
:1049E000400303EBC0001A2303EB400081B2002315
:1049F000FA2016F097F8641C082CDCD30020FFF78F
:104A00006DF970BD580200200352F30084060020A7
:104A1000DA030608E802060836010608B6010608A9
:104A20002DE9F84105468846144600261CE020780A
:104A300000B91AE02078203800EB8000C00000EBBD
:104A40008000C700F81707EB5070094901EBE00040
:104A5000A919009088B228231A46414606F00CFE98
:104A6000641C06F11C0086B2E1E700BFBDE8F881D6
:104A70008E860C0810B500243CE020482049486090
:104A8000A1000A31C4EB041202EB420201EB420125
:104A900088B22B235A22E42106F0D6F81948184987
:104AA00048605E2204FB02F10B3188B201235A22D6
:104AB000E32106F0C9F8C4EB041101EB44116422B0
:104AC00002EB410188B22C230122E32106F0BCF85D
:104AD00000200B494860C4EB041101EB441164222F
:104AE00002EB4101491C88B22C230322E32106F08A
:104AF000ABF8641C052CC0D310BD00003800310099
:104B0000580200206843690010B50446CA4890F86E
:104B1000D50000287DD1012C0DD1C848C849486076
:104B20004FF47F0008600023C6A2CD214FF491709E
:104B300015F0F8FF7EE1022C0ED14FF05010C04965
:104B400048604FF47F0008600023C4A2CD214FF4D9
:104B50009B7015F0E7FF6DE1032C0AD1B748B84907
:104B6000486014239622CD214FF49B7006F06CF818
:104B700060E1042C0BD14FF05010B1494860142370
:104B80009622CD214FF49B7006F05EF852E1052C81
:104B90000ED14FF05010AA4948604FF47F000860D2
:104BA0000023B3A2CD214FF49B7015F0BBFF41E170
:104BB000062C0DD1A148A24948604FF47F0008603F
:104BC0000023B0A2CD214FF49B7015F0ABFF31E173
:104BD000072C0ED14FF05010994948604FF47F00D8
:104BE00008600023A7A2CD214FF49B7015F09AFF17
:104BF00020E1082C0ED19148914948604FF47F0084
:104C00000860002395A2CD214FF49B7015F08AFF18
:104C100010E149E0092C0DD18848894948604FF4DA
:104C20007F00086000239CA2CD214FF49B7015F0FB
:104C300079FFFFE00A2C0CD18048814948604FF48D
:104C40007F000860002399A2CD21022015F06AFFA1
:104C5000F0E00B2C09D17948794948601423F022FF
:104C6000CD21022005F0F0FFE4E00C2C0ED14FF036
:104C70005010734948604FF47F000860002393A2EE
:104C800004214FF4C87015F04DFFD3E00D2C8ED1E8
:104C90004FF050106A4948601423402204214FF419
:104CA000C87005F0D1FFC5E0012C0CD16348644900
:104CB00048604FF47F000860002387A2CD21AA201E
:104CC00015F030FFB6E0022C0ED14FF050105C49C9
:104CD00048604FF47F000860002387A2CD214FF485
:104CE0008C7015F01FFFA5E0032C0AD153485449DE
:104CF000486014234FF48072CD21DA2005F0A4FF20
:104D000098E0042C0AD14FF050104D49486014230C
:104D1000A201CD21DA2005F097FF8BE0052C0ED102
:104D20004FF05010464948604FF47F000860002360
:104D300077A2CD214FF48C7015F0F4FE7AE0062CAA
:104D40000DD13E483E4948604FF47F000860002383
:104D50006FA2CD214FF48C7015F0E4FE6AE0072CB1
:104D60000ED14FF05010364948604FF47F00086074
:104D7000002367A2CD214FF48C7015F0D3FE59E0CB
:104D8000082C0DD12D482E4948604FF47F00086053
:104D9000002359A2CD214FF48C7015F0C3FE49E0D9
:104DA000092C0ED14FF05010254948604FF47F0078
:104DB000086000235CA2CD214FF48C7015F0B2FE88
:104DC00038E00A2C0CD11D481D4948604FF47F0083
:104DD000086000235AA2CD21022015F0A3FE29E08D
:104DE0000B2C09D11548164948601423F022CD2117
:104DF000022005F029FF1DE00C2C0ED14FF05010C1
:104E00000F4948604FF47F000860002357A2042137
:104E10004FF4C87015F086FE0CE00D2C0AD14FF04F
:104E20005010074948601423402204214FF4C870F1
:104E300005F00AFF10BD0000840600206534340030
:104E400058020020C7EBD3C3CAFDD7D6BCFCC5CCE3
:104E5000BBF2D0FDC5A5CAE4C8EB0000C7EBD3C3C5
:104E6000CAFDD7D6BCFCC5CCCAE4C8EB0000000024
:104E7000B0B4CFC2D0FDC5A5C7D0BBBBB2BDD6E8CC
:104E800000000000B0B4CFC2D0FDC5A5BFECCBD9A7
:104E9000D1A1D4F100000000B5E7D1B9B3ACCFDEA9
:104EA000D7D4B6AFBFAACABC00000000BDD3BDFCBA
:104EB000BCABCFDEB9A6C2CA2CBDABD4DA3135B794
:104EC000D6D6D3BAF3B9D8B1D5000000C9E8D6C355
:104ED000B3ACCFDE00000000496E707574207769B6
:104EE0007468206B6579626F617264206F722065EF
:104EF0006E636F6465722E00496E707574207769F9
:104F00007468206B6579626F6172642E0000000026
:104F100050726573732074686520656E636F646595
:104F2000722E2020000000004175746F20737461A0
:104F300072742E202020202020202020000000003D
:104F4000417070726F616368696E67206D6178206F
:104F5000706F7765722C7368757420646F776E203C
:104F6000696E203135206D696E732E005365742093
:104F70004552520070B502F025FE6FF07F40234984
:104F8000086023484860234890F8D50008B1224EB5
:104F900000E0224E002306F116020421184615F007
:104FA000C1FD6FF07F40194908604FF05010486014
:104FB0001B4D002424E0022C10D204EB840005EBEE
:104FC000400204EB440000EBC4001A2303EB400052
:104FD00081B20023184615F0A5FD10E004EB840013
:104FE00005EB4002A01E00EB400303EBC0001A23B8
:104FF00003EB400081B20023FA2015F093FD641CFE
:10500000032CD8D30020FEF769FE70BD58020020A3
:105010000352F30084060020DA030608E8020608BB
:10502000C8FE050838B50446012C00D100E0002078
:105030000090009820B14FF47F004249486003E09F
:105040004FF050103F49486014237E221821582009
:1050500005F0FAFD6FF07F403A4908603A49C86CA4
:1050600000230722042105F03FF90023374A1A21C3
:10507000582015F057FD0023354A1A21C82015F095
:1050800051FD022C01D1012000E000200090009889
:1050900020B14FF47F002B49486003E04FF05010DF
:1050A000284948601423682218214FF4A97005F09C
:1050B000CBFD6FF07F40234908602349486D0023F2
:1050C0000722042105F010F90023204A1A214FF489
:1050D000A97015F027FD032C01D1012000E000206C
:1050E0000090009820B14FF47F001649486003E01B
:1050F0004FF050101349486014237E222E2158206F
:1051000005F0A2FD6FF07F400E4908600E49086D62
:1051100000230722042105F0E7F800230B4A302181
:10512000582015F0FFFC0023094A921F3021C820A7
:1051300015F0F8FC1CB90020FEF7D0FD00E000BF20
:1051400000BF38BD5802002084060020CC0B002090
:105150003C02060870B502F03DFD6FF07F402C491F
:1051600008602C4848602C4890F8D50008B12B4EB8
:1051700000E02B4E002306F184020421184615F0AE
:10518000D1FC6FF07F40224908604FF0501048601A
:10519000214890F8D50008B1224D00E0224D0024AE
:1051A0002FE0062C11D24FF050101949486004EB43
:1051B000840005EB4002162304FB03F01A3081B291
:1051C0000023184615F0AEFC1AE0A01F022806D9ED
:1051D000082804D24FF050100D49486003E04FF00A
:1051E00050100B49486004EB840005EB4002A01FFF
:1051F000162358431A3081B20023FA2015F092FC8E
:10520000641C0B2CCDD30320FEF768FD70BD00009D
:10521000580200200352F30084060020DA03060837
:10522000E80206082A060608BC05060810B503F0C1
:10523000D5F8FFF71FFC10BD30B595B0054603F05B
:105240007BFB01222946684601F08AF96C469DF8ED
:1052500000008DF8380001980F9002981090039884
:1052600011900498129005981390069814900F9836
:105270004FF47A71B0FBF1F00F900B9818B9002041
:10528000099008900A900F9815B030BD70B5FFF7DF
:10529000CDFF6FF07F403D4908603D4848603D4884
:1052A00090F8D50008B13C4D00E03C4D002305F1DD
:1052B0006E020421184615F035FC6FF07F4033492B
:1052C00008604FF050104860002459E0032C2AD2A7
:1052D000304890F8D500012810D1C4EB0410304BB1
:1052E000C21804EB440000EBC4001A2303EB400097
:1052F00081B20023184615F015FC40E0254890F8CF
:10530000D50030BBC4EB0410264BC21804EB44009C
:1053100000EBC4001A2303EB400081B200231846BF
:1053200015F000FC2BE01B4890F8D500012811D1A6
:10533000C4EB04101A4BC218E01E00EB400303EB51
:10534000C0001A2303EB400081B20023FA2015F0BD
:10535000E9FB14E00F4890F8D50080B9C4EB0410C5
:10536000104BC218E01E00EB400303EBC0001A23F1
:1053700003EB400081B20023FA2015F0D3FB641C3C
:10538000062CA3D30520FEF7A9FC70BD580200200F
:105390000352F30084060020DA030608E802060838
:1053A00038070608DE06060810B5BE48BE49086084
:1053B0004FF050104860BD4890F8D80002280FD137
:1053C000BB49B1F8720100230422194604F08CFF96
:1053D0000023B84A04214FF4CD7015F0A3FB06E07A
:1053E0000023B5A204214FF4CD7015F09BFBAF480C
:1053F00090F8D500F0B90023B1A25E214FF4967069
:1054000015F090FB0023AFA25E214FF4AF7015F0B2
:1054100089FBA74991F87D10481C002302221946F8
:1054200004F062FF0023A34A5E214FF4A17015F03F
:1054300079FB1BE09D4890F8D500012816D1002388
:10544000A1A25E214FF4967015F06CFB984991F87B
:105450007D10481C00230222194604F045FF00235A
:10546000944A5E214FF4A97015F05CFB8F4890F8C8
:10547000D50080B98E4890F87D108C48E430405CAF
:10548000C0EBC0009249421800235E214FF4C8705F
:1054900015F048FB14E0854890F8D50001280FD19D
:1054A000834890F87D108148E430405CC0EBC00038
:1054B0008849421800235E214FF4C87015F032FB72
:1054C0007A4890F8D500E0B9002383A272214FF406
:1054D000967015F027FB002381A288214FF4967067
:1054E00015F020FB002380A29E214FF4967015F04A
:1054F00019FB00237EA2B4214FF4967015F012FB25
:1055000020E06A4890F8D50001281BD100237AA238
:1055100072214FF4967015F005FB002377A28821C5
:105520004FF4967015F0FEFA002375A29E214FF4F9
:10553000967015F0F7FA002372A2B4214FF496701A
:1055400015F0F0FA594890F8210038BB5848006827
:10555000642806D2002307220421184604F0C4FE62
:1055600006E05349002307220868042104F0BCFE2A
:105570004F49002307220868042104F0B5FE0023E8
:105580004C4A72214FF4B47015F0CCFA00235AA2A1
:1055900072214FF4DC7015F0C5FA24E0434890F80E
:1055A000210001281FD142480068642806D2002348
:1055B00006220321184604F097FE06E03C4900232A
:1055C00006220868032104F08FFE0023394A722165
:1055D0004FF4B47015F0A6FA002347A272214FF4DD
:1055E000DC7015F09FFA314890F82000A8B93049D6
:1055F000002307224868042104F076FE00232D4A88
:1056000088214FF4B47015F08DFA00233FA2882151
:105610004FF4DC7015F086FA19E0244890F8200069
:10562000012814D12249002306224868032104F0EE
:105630005BFE00231F4A88214FF4B47015F072FA04
:10564000002332A288214FF4DC7015F06BFA184960
:1056500000230722C868032104F046FE0023154AF0
:105660009E214FF4B47015F05DFA002328A29E210C
:105670004FF4DC7015F056FA0D4900230522D1F8DD
:105680008000012104F030FE00230A4AB4214800C2
:1056900015F048FA00231FA2B4214FF4DC7015F076
:1056A00041FA10BD00FFFF005802002084060020D0
:1056B00088080020CC0B00202020202000000000C3
:1056C000B5DA0000B2BD0000537465700000000040
:1056D000E50E06084E0F0608B5E7D1B90000000038
:1056E000B5E7C1F700000000B9A6C2CA000000007B
:1056F000CAB1BCE4000000005600000049000000F0
:105700005000000054494D450000000041000000D9
:1057100057000000730000002DE9F0410546012DFF
:1057200000D100E00020064626B14FF47F00FD497D
:10573000486003E04FF05010FA49486014235C229F
:105740001821762005F080FA6FF07F40F549086057
:10575000F54991F8D60000230322194604F0C4FD50
:105760000023F24A1A21762015F0DCF9022D01D12E
:10577000012000E00020064626B14FF47F00E949F1
:10578000486003E04FF05010E649486014235C2263
:105790002E21762005F058FA6FF07F40E14908602D
:1057A000E14890F8D50060B9DF4890F8D700C0EB29
:1057B000C000DF49421800233021762015F0B2F9ED
:1057C0000BE0D94890F8D700C0EBC000D949421887
:1057D00000233021762015F0A5F9032D01D10120F9
:1057E00000E00020064626B14FF47F00CD49486016
:1057F00003E04FF05010CB49486014235C22442151
:10580000762005F021FAC849D1F8E00000230722EC
:10581000042104F069FD6FF07F40C2490860C2486E
:10582000D0F8E00060B10023C04A4621762015F090
:1058300079F90023C04A4621C82015F073F910E019
:10584000B94890F8D50030B90023BC4A46217620EB
:1058500015F068F905E00023B94A4621762015F0D5
:1058600061F9042D01D1012000E00020064626B197
:105870004FF47F00AB49486003E04FF05010A94956
:10588000486014235C221821900005F0DDF96FF0C8
:105890007F40A4490860A44890F8D50068B9A248A0
:1058A00090F8D900C0EBC000A649421800231A2185
:1058B0004FF4B87015F036F90CE09B4890F8D90019
:1058C000C0EBC000A049421800231A214FF4B87061
:1058D00015F028F9052D01D1012000E00020064631
:1058E00026B14FF47F008F49486003E04FF050101D
:1058F0008C49486014235C222E21C80005F0A4F9CD
:105900006FF07F40874908608749D1F8DC000023A9
:105910000722042104F0E8FC0023844A30214FF4DC
:10592000B87015F0FFF80023834A30214FF4E1707E
:1059300015F0F8F80D2D01D1012000E000200646F9
:1059400026B14FF47F007749486003E04FF05010D4
:105950007449486014235C224421900005F074F9D6
:105960006FF07F406F4908606F4890F8D8000228B8
:105970001FDA6D4890F8D50068B96B4890F8D800E8
:10598000C0EBC00071494218002346214FF4B870A3
:1059900015F0C8F821E0644890F8D800C0EBC000CA
:1059A0006B494218002346214FF4B87015F0BAF83D
:1059B00013E05D4890F8D80002280ED15A49B1F89A
:1059C000020200230422194604F08EFC0023574AE9
:1059D00046214FF4B87015F0A5F8062D01D101202D
:1059E00000E00020064626B14FF47F004D49486094
:1059F00003E04FF050104B494860102350225E21C5
:105A0000002005F021F96FF07F40464908604648C4
:105A100090F8D500D8B900234EA25E21184615F0A3
:105A200081F800234CA25E21322015F07BF84B490F
:105A300091F87C10481C00230222194604F054FC03
:105A400000233A4A5E21162015F06CF819E036481A
:105A500090F8D500012814D1002341A25E211846F8
:105A600015F060F83D4991F87C10481C0023022293
:105A7000194604F039FC00232C4A5E21262015F03B
:105A800051F8072D01D1012000E00020064626B183
:105A90004FF47F002349486003E04FF05010214944
:105AA0004860102350225E21642005F0CDF81E4886
:105AB00090F8D50078B9294890F87C101A48E4305D
:105AC000405CC0EBC0002849421800235E216420DE
:105AD00015F028F813E0144890F8D50001280ED1ED
