:020000040804EE
:10000000A87F0120C1010408B1BE0408918D040835
:1000100079BD0408B5130408915B050800000000D1
:10002000000000000000000000000000CDE5040812
:10003000071904080000000085C70408E903050843
:10004000DB010408DB010408DB01040805D2040815
:10005000DB010408DB010408DB010408DB01040800
:10006000DB010408797D0408DB010408DB010408D6
:10007000DB010408DB010408DB010408DB010408E0
:10008000DB010408DB010408DB010408DB010408D0
:10009000DB010408DB010408DB010408DB010408C0
:1000A000DB010408DB010408DB010408DB010408B0
:1000B0001B060508DB010408DB010408DB0104085A
:1000C000DB010408DB010408DB010408DB01040890
:1000D000DB010408811D0508DB010408F91D050882
:1000E000617D0408DB010408DB010408DB0104086E
:1000F000DB010408DB010408DB010408DB01040860
:10010000DB010408DB010408DB010408DB0104084F
:10011000DB010408DB01040831060508DB010408E3
:10012000DB010408DB010408DB010408DB0104082F
:10013000DB010408DB010408DB010408DB0104081F
:10014000DB010408DB010408DB0104087DBF0408AF
:10015000DB010408DB010408DB010408DB010408FF
:10016000DB010408DB010408DB010408DB010408EF
:10017000DB010408DB010408DB010408DB010408DF
:10018000DB010408DB010408DB010408DB010408CF
:10019000DB010408DB010408DB010408DB010408BF
:1001A000DB010408DB010408DB010408DFF80CD0E4
:1001B00000F0F6FA0048004791950508A87F012055
:1001C0000648804706480047FEE7FEE7FEE7FEE7F1
:1001D000FEE7FEE7FEE7FEE7FEE7FEE78D04050823
:1001E000AD01040840EA01039B0703D009E008C9F8
:1001F000121F08C0042AFAD203E011F8013B00F8EC
:10020000013B521EF9D27047D2B201E000F8012B37
:10021000491EFBD270470022F6E710B513460A4686
:1002200004461946FFF7F0FF204610BD10B5002226
:1002300000E0521C835C8C5CA34201D1002BF8D1FE
:10024000D8B2E1B2401A10BD2DE9FE4F804681EAD6
:100250000300C00F0C46009021F0004123F0004540
:10026000B8EB0200A94105D24046214690461C4603
:100270000B46024623F00040104347D0270DC7F33A
:100280000A00C3F30A510290401A019040286BDA29
:10029000C3F3130040F4801B0098924620B1002362
:1002A000D2EB030A63EB0B0B01985946C0F14002F5
:1002B000504600F0CFF906460D4650465946019A81
:1002C00000F0E7F910EB08006141002487EA1152C1
:1002D00084EAE7731A4340D0009A62B3019A012A74
:1002E0004FEA075215DC001B61EB02014FF00042A0
:1002F00002EA0752CDE90042001C41F58011324666
:100300002B4600F0E7F903B0BDE8F08F40462146E8
:10031000F9E7001B61EB0201001C41F58013001896
:100320005B412018A2F5001747EB030140EAD570A6
:10033000B6196D4111E06D084FEA360645EAC07501
:100340004FEA0752001B61EB0201001C41F58011CE
:1003500049084FEA30000019514132462B4603B09C
:10036000BDE8F04F00F0A7B900980122400000233B
:10037000D0EB020263EBE073009821464FEAE07491
:10038000B8EB000061EB0401E9E783F000435BE7B1
:1003900081F0004158E72DE9FE4F81EA030404F0A3
:1003A000004421F0004100944FF0000B23F0004383
:1003B00050EA01045ED052EA03045BD0C3F30A544E
:1003C000C1F30A552C44A4F2F3340194A0FB025467
:1003D000C1F3130141F48011C3F3130343F48013F9
:1003E00001FB024400FB034E840A970A44EA81544D
:1003F00047EA8357A4FB076802958D0A05FB07852A
:100400004FEA932C04FB0C542705029D4FEA065833
:1004100047EA1637B5EB08056EEB070C870E920E10
:1004200047EA811742EA8312A7FB0201B6EB0B01F0
:1004300064EB00042B0D43EA0C335E1844EB1C50B4
:10044000DA465146E7FB0201C5F313044FEA0B33CA
:1004500043EA14534FEA0432019C43EA0603A4F131
:100460000C040294009CCDE900B400F033F903B011
:10047000BDE8F08F00200146F9E72DE9F04D81EA53
:10048000030404F0004B21F0004514464FF0000A2D
:1004900023F0004150EA050220D054EA01021DD0A9
:1004A000C5F30A570246C5F31303C1F31300C1F3A2
:1004B0000A5640F4801543F48013A7EB0608101B7E
:1004C000D64608F2FD3873EB050002D308F10108A7
:1004D00001E092185B41B8F1000F03DA00200146F9
:1004E000BDE8F08D00204FF48011064684460EE0F2
:1004F000171B73EB050705D3121B63EB05030643BC
:100500004CEA010C49084FEA300092185B4150EA6E
:100510000107EDD152EA030012D082EA040083EA17
:100520000501084305D0101BAB4106D20122002370
:1005300006E000224FF0004302E06FF0010253108A
:100540001AEB06004CEB085110EB0A0041EB0B01D3
:10055000BDE8F04D00F0AFB80EB5C10F80EAE07015
:100560000844CA07002140F233438DE80E000A46D2
:100570000B4600F0AFF803B000BD0EB540F23341BA
:1005800002910021CDE900110A460B4600F0A2F8C5
:1005900003B000BDC1F30A5210B5C1F3130140F21C
:1005A000FF3341F480119A4201DA002010BD40F27D
:1005B00033439A42A2F2334203DC524200F059F82C
:1005C00010BD904010BD000030B5041E71F1000454
:1005D00004DB4FF00044404264EB0101141E73F150
:1005E000000405DB1C464FF00043524263EB04035A
:1005F0008B4208BF824230BD30B5041E71F1000449
:1006000004DB4FF00044404264EB0101141E73F11F
:10061000000405DB1C464FF00043524263EB040329
:10062000994208BF904230BD30B50B4601460020CC
:100630002022012409E021FA02F59D4205D303FAA4
:1006400002F5491B04FA02F52844151EA2F1010225
:10065000F1DC30BD202A04DB203A00FA02F1002050
:1006600070479140C2F1200320FA03F319439040F0
:100670007047202A04DB203A21FA02F0002170475B
:1006800021FA02F3D040C2F12002914008431946FA
:100690007047202A06DBCB17203A41FA02F043EAE2
:1006A000E07306E041FA02F3D040C2F1200291402B
:1006B00008431946704710B5141E73F1000408DA98
:1006C000401C41F1000192185B411A4301D120F016
:1006D000010010BD2DE9F04D92469B4611B1B1FAD3
:1006E00081F202E0B0FA80F220329046FFF7B2FFCA
:1006F00004460F4640EA0A0041EA0B0153465A46B7
:10070000084313D0114653EA010019D0C8F1400242
:100710005046FFF7AEFF05460E4650465946424644
:10072000FFF798FF084305D0012004E02046394632
:10073000BDE8F08D0020054346EAE0762C433743C0
:100740000A986305E40AA0EB08000022FD0A44EAC7
:1007500047540A3002D500200146E9E70105101987
:100760006941DDE9084500196941BDE8F04DA2E79E
:1007700070B521F0004303430CD0C1F30A550024A7
:10078000D5EB040564EB0403D617AD1AB34102DBC5
:100790000020014670BD201841EB025170BD0000E1
:1007A000064C074D06E0E06840F0010394E80700BE
:1007B00098471034AC42F6D3FFF7FCFCE0340F0846
:1007C00000350F082DE9F04D00231A461B1A8A4107
:1007D00003DB00200146BDE8F08DC1F30A52C1F3EE
:1007E000130141F480154FF0000BD10702D100181E
:1007F0006D41521E0027044640F2FF11384601EBBE
:10080000620A3E468046024600204FF48011FFF700
:1008100030FFC2197141BB1846EB0100B4EB030C69
:1008200075EB000C04D3E41A65EB000517460E4681
:10083000241908F101006D4180463428E3DDF919DF
:1008400046EB0600091BA84103D24FF0FF321346C6
:1008500001E0002213461BEB070046EB0A51BDE8FE
:10086000F04DFFF728BF70B58C1810F8015B15F03C
:10087000070301D110F8013B2A1106D110F8012B12
:1008800003E010F8016B01F8016B5B1EF9D12B0737
:1008900005D40023521E0DD401F8013BFAE710F8ED
:1008A000013BCB1A921C03E013F8015B01F8015BDA
:1008B000521EF9D5A142D8D3002070BD70B50546AF
:1008C0000C4608480560204600F00EF800BF0548B9
:1008D00000680028FBD100214FF0804010F003FA9F
:1008E00070BD0000240200203EB5044600214FF0F8
:1008F000804010F0F8F900220121880710F03AFB3F
:10090000022C02D10B20019004E0012C02D142F60E
:10091000DF6001900520ADF800000020ADF8080070
:10092000ADF8020069464FF0804010F079FB0121DC
:10093000880710F0D5F90121880710F0C2F90122CB
:100940001146900710F016FB0121880710F0CBF933
:100950003EBD000010B54FF480711448FFF75BFCFA
:1009600001201249087006204870002088700D2070
:10097000C87000200871487188710D4890F85800BF
:10098000C8710821094808F005FA001207490872E1
:100990000821064808F0FEF9044948720A21034874
:1009A00014F0C4FE01200349087010BDCA2C0120B8
:1009B00094050020BC01002070B504460D4659483E
:1009C000594948602CBB59480068642806D2002366
:1009D00007220421184608F01BFA06E053490023B9
:1009E00007220868042108F013FA5049002307225F
:1009F0000868042108F00CFA00234D4A8221502097
:100A000015F0F2FD00234BA28221A02015F0ECFD91
:100A10001FE0012C1DD145480068642806D2002340
:100A200006220321184608F0F3F906E03F490023A7
:100A300006220868032108F0EBF900233C4A8221D2
:100A4000502015F0D1FD00233AA28221A02015F0FC
:100A5000CBFD9DB93549002307224868042108F0E1
:100A6000D7F90023324AA021502015F0BDFD002304
:100A700031A2A021084615F0B7FD14E0012D12D1D6
:100A80002A49002306224868032108F0C1F90023FF
:100A9000274AA021502015F0A7FD002326A2A0215F
:100AA000084615F0A1FD214900230622C86803214C
:100AB00008F0AEF900231E4ABE21502015F094FD27
:100AC00000231EA2BE21A02015F08EFD1749002391
:100AD00007228868042108F09BF90023144A822128
:100AE0004FF48C7015F080FD002315A282214FF485
:100AF000B47015F079FD0D4900230622886F194660
:100B000008F086F900230A4AA0214FF48C7015F0F2
:100B10006BFD00230BA2A0214FF4B47015F064FD0F
:100B200070BD000065343400740100208807002087
:100B3000C80A0020560000004100000057000000D5
:100B4000A6B800006D41480070B586B00020049042
:100B5000002400250126FC490870FC4908704FF06C
:100B6000501008F001FD002002F018F8002003905A
:100B70000DF07EFFCFE3BDF81000401C80B2049062
:100B8000204607F089F9C5B2F1480078012801D163
:100B900001262C466FF07F40EE490860EE48007851
:100BA00038B10020EC49087006F010FD0020EB4938
:100BB0000870EB480078012804D10020E84908704B
:100BC0000CF090FE012E03D1204601F05BFD0026C3
:100BD000DD480078012804D10CF0D8FB0020DA4968
:100BE0000870E04890F86D0138B9DF4A92F820109B
:100BF00092F82100FFF7E0FE22E0DA4890F86D015C
:100C000001281DD10BF0BAF802F0DEFE6FF07F4034
:100C1000D0490860D54848600023D5A2F1214FF49F
:100C2000CC7015F0E1FC0220CE4981F86D01CE4870
:100C3000B0F8DC01401CCC49A1F8DC010FF0B6FB98
:100C4000CD48007870B1CD480078052805D10DF069
:100C50000FFF0020C949087004E0C8480078401C14
:100C6000C6490870C6484078012875D1C548007843
:100C70000028FAD1C24880780028F6D1012608F071
:100C800033FB05909DF81400BF4908709DF81400CF
:100C9000002861D09DF814000E2874D00ADC0E28BC
:100CA00072D2DFE800F071F2F3F4EBEAF7F6F5F850
:100CB000F9FAE3FC182868D008DCA0F10F00062838
:100CC000EED2DFE800F0FD66584D31101C286FD0E1
:100CD00004DC19286DD01A2856D1A9E01F2869D044
:100CE0004228F9D1DAE114B1012C1AD106E0A74863
:100CF000007810B90620A649087013E0A3480078D0
:100D000070B90020984981F858000DF0B1FE4FF0FD
:100D1000501008F029FC012001F040FF0FF046FBC5
:100D200000E000BF00BFF5E214B1012C15D100E0D6
:100D300014E09648007870B902208B4981F8580079
:100D40000DF096FE4FF0501008F00EFC012001F05F
:100D500025FF0FF02BFB01E0DDE200BF00BFD9E271
:100D600034B98A48007810B916208949087000E023
:100D700000BF00BFCEE24CB98448007810B91720FC
:100D80008349087003E089E0C3E2C1E200BF00BF0D
:100D9000C0E2744890F86D0198B914B1012C0ED1DD
:100DA00009E07A48007810B90D207949087007E009
:100DB000A5E116E094E104206B49487000E000BF13
:100DC0000EE0684890F86C0150B90020654981F840
:100DD0006D014FF0501008F0C7FB002001F0DEFE5F
:100DE00098E2614890F8580058B9052C02DD201FA0
:100DF000C4B21CE0032C1ADA002C18DD601EC4B249
:100E000015E0594890F85800022810D1062C01D15D
:100E100002240CE0052C01D1022408E0022C02D1AE
:100E2000601EC4B203E0012C01D1601EC4B271E2A5
:100E30004D4890F8580058B9052C04DA012C02DD11
:100E4000201DC4B220E0022C1EDA601CC4B21BE0DC
:100E5000454890F85800022816D1022C01D10624EA
:100E600012E0012C0ED102240EE018E040E114E063
:100E700012E010E00CE00CE00CE032E170E106E082
:100E800004E002E004B9012444E200BF00BF00BF57
:100E900000BF00BF00BF00BF00BF00BF00BFA01E5B
:100EA000072877D2DFE800F0043677F791C1DC003D
:100EB0003648007858BB2C4890F8580080B900E0BC
:100EC000EDE07620ADF804003020ADF806004C20AF
:100ED000ADF8080001A804F0A2FF2349C86512E09C
:100EE000214890F8580002280DD17620ADF8040072
:100EF0003020ADF806005020ADF8080001A804F03D
:100F0000D6FF194988670BF075F80DF0B1FD0FF0A9
:100F10004DFAC1E01D480078A8B9134890F8580070
:100F200068B97620ADF804004620ADF806004C20E4
:100F3000ADF8080001A804F072FF0B4908660BF039
:100F400059F80FF033FAA7E05500002057000020B1
:100F50006E010020740100205D000020640000206C
:100F60003D00002088070020940500203800310053
:100F7000C8B7C8CF00000000BC01002080000020DE
:100F8000640100204C010020830000207C00002030
:100F9000580000207FE0E3480078A8B9E24890F8C4
:100FA000580068B97620ADF804005C20ADF8060062
:100FB0004C20ADF8080001A804F031FFDA4948667A
:100FC0000BF018F80FF0F2F966E0D648007858BB3D
:100FD000D54890F8580078B94FF4B870ADF80400CF
:100FE0003020ADF806004C20ADF8080001A805F04F
:100FF0002AF8CD49C86613E0CB4890F8580002287B
:101000000ED14FF4B870ADF804003020ADF80600F2
:101010004C20ADF8080001A805F015F8C249C867D2
:101020000AF0E8FF0FF0C2F936E0BE480078B0B928
:10103000BD4890F8580070B94FF4B870ADF804008E
:101040004620ADF806004C20ADF8080001A804F0D9
:10105000FAFFB54908670AF0CDFF0FF0A7F91BE0CA
:10106000B0480078B0B9B04890F8580070B94FF463
:10107000B870ADF804005C20ADF806004C20ADF867
:10108000080001A804F0DFFFA74948670AF0B2FF93
:101090000FF08CF900E000BF00BF3BE13AE1A1484E
:1010A000007890B90320A14908700FF095F901204C
:1010B0009F4908709FED9F0A9F4880ED1D0A0120FF
:1010C000984908700DF0D4FC09E003209749087096
:1010D0000020944908700DF0CBFC0FF075F919E170
:1010E00018E19048007810B912209449087011E175
:1010F0008C48007810B90620904908700AE1012C4C
:101100002DD1894890F8580090B98648007830BBB6
:101110000220854981F858000DF0AAFC4FF05010CC
:1011200008F022FA012001F039FD0FF03FF916E036
:101130007D4890F85800022811D17A48007870B99B
:101140000020794981F858000DF092FC4FF05010C2
:1011500008F00AFA012001F021FD0FF027F9D9E08B
:10116000A01E07287ED2DFE800F004344ED0689A33
:10117000B5006C48007848BB6B4890F8580070B9CF
:101180007620ADF804003020ADF806004C20ADF814
:10119000080001A804F043FE6349C86512E06248F4
:1011A00090F8580002280DD17620ADF804003020C8
:1011B000ADF806005020ADF8080001A804F077FE55
:1011C000594988670AF016FF0DF052FC0FF0EEF84F
:1011D0009CE054480078A8B9534890F8580068B982
:1011E0007620ADF804004620ADF806004C20ADF89E
:1011F000080001A804F013FE4B4908660AF0FAFE45
:101200000FF0D4F882E047480078A8B9464890F833
:10121000580068B97620ADF804005C20ADF80600EF
:101220004C20ADF8080001A804F0F9FD3E494866DD
:101230000AF0E0FE0FF0BAF868E03A48007868BBC0
:10124000394890F8580088B94FF4B870ADF80400E8
:101250003020ADF806004C20ADF8080001A804F0DD
:10126000F2FE00E051E03049C86613E02E4890F8E5
:10127000580002280ED14FF4B870ADF804003020A9
:10128000ADF806004C20ADF8080001A804F0DBFE24
:101290002549C8670AF0AEFE0FF088F836E021480D
:1012A0000078B0B9204890F8580070B94FF4B87081
:1012B000ADF804004620ADF806004C20ADF808005B
:1012C00001A804F0C0FE184908670AF093FE0FF069
:1012D0006DF81BE013480078B0B9134890F8580037
:1012E00070B94FF4B870ADF804005C20ADF806009A
:1012F0004C20ADF8080001A804F0A5FE0A49486793
:101300000AF078FE0FF052F800E000BF00BF01E0E5
:1013100000E000BF00BF0948007815283FF42BAC5F
:1013200006B070BD7C000020940500207F000020E6
:101330003400002000000000880700205800002032
:1013400010B54FF48061024807F0A0FB10BD00000B
:101350000008024010B54FF48061024807F098FB86
:1013600010BD00000008024010B50446A21E0E4841
:101370000E4B1B68C1180E48FEF734FFA01EC1B209
:101380000B4807F007FD0112A01E094A1154C1B213
:10139000104607F0FFFCC1B2601E054A11542146F9
:1013A000104614F0C3F910BD560C00206C0000204C
:1013B000540B002000BFFEE710B504464FF48071C7
:1013C0006748FEF728FF01206549087065480078E6
:1013D00010B90846847007E062480078012803D1FC
:1013E00004F110005E498870A5205D4948705D4891
:1013F000007800284BD1012C05D0022C03D0092CF9
:1014000001D00A2C1BD1601E574951F82000000E54
:101410005349C870601E544951F82000000C5049CF
:101420000871601E504931F82000000A4C4948718B
:10143000601E4D4911F82000494988717EE0601E08
:10144000494951F820000A21B0FBF1F0000E44494F
:10145000C870601E444951F820000A21B0FBF1F029
:10146000000C3F490871601E3F4951F820000A21D5
:10147000B0FBF1F0000A3A494871601E3A4951F850
:1014800020000A21B0FBF1F03549887156E035485B
:101490000078012852D1012C05D0022C03D0032C56
:1014A00001D0042C1FD104F10F002F4951F8200066
:1014B000000E2B49C87004F10F002B4951F8200091
:1014C000000C2749087104F10F00274931F820006A
:1014D000000A2349487104F10F00234911F8200044
:1014E0001F4988712AE004F10F001F4951F82000BC
:1014F0000A21B0FBF1F0000E1949C87004F10F0089
:10150000194951F820000A21B0FBF1F0000C1449F0
:10151000087104F10F00144951F820000A21B0FBB2
:10152000F1F0000A0E49487104F10F000E4951F81C
:1015300020000A21B0FBF1F0094988710721084811
:1015400007F028FC00120649C8710721044807F07B
:1015500021FC034908720921014814F0E7F810BD85
:10156000CA2C0120860000209807002010B5012118
:10157000C8050BF007FA00214FF400000BF002FA47
:1015800010BD000001460020034A52680A400AB11B
:10159000012000E00020704700B0024070B500213B
:1015A000002200230024344D2D68344E3540324E45
:1015B000356035462D68066835432F4E3560354613
:1015C0006D6B25F00705756335466D6B46683543D1
:1015D000294E7563456835B9C5682902058A2A040C
:1015E000057D2B0621E04568012D05D1C56829023E
:1015F000058A2A04002318E04568022D05D1C56834
:1016000069010569EA0200230FE04568032D06D150
:10161000C56869010569AA024569EB0305E0C5686B
:10162000290105692A0245692B0341EA02058668FA
:1016300035431D43104EB66B35430F4EB563856978
:10164000F56335462D6C6FF30D05356435462D6C0D
:10165000C6693543084E3564858C2C0435466D6C5F
:1016600005F04045756435466D6C066A2643354382
:10167000014E756470BD000000B00240FCE0FCFF4C
:101680000348006840F0010001490860704700000D
:1016900000B002400246094B9A4201D2084801E0DC
:1016A0000648103801F000531BB1064B0B40C360D5
:1016B00002E0044B0B40836070470000106402405E
:1016C000006002407D0F7D0F0246094B9A4201D215
:1016D000084801E00648103801F000531BB1064BE2
:1016E0000B40C36002E0044B0B4083607047000076
:1016F00010640240006002407D0F7D0F21B102683E
:1017000042F00102026003E0026822F0010202607E
:1017100070470000016821F00101016000210160B3
:1017200041608160C1600161212141614A49884273
:1017300004D13D21484A103A91608CE04649183165
:10174000884205D14FF47461434A103A916082E0B7
:1017500041493031884205D14FF474113E4A103A64
:10176000916078E03C494831884205D14FF074617E
:10177000394A103A91606EE037496031884204D1AD
:101780003649354A103AD16065E0334978318842AC
:1017900004D13349304A103AD1605CE02E4990318F
:1017A000884204D12F492C4A103AD16053E02A498B
:1017B000A831884205D14FF03D51274A103AD160F7
:1017C00049E02949884204D13D21274A083A11605D
:1017D00041E025491831884205D14FF47461224A0D
:1017E000083A116037E020493031884205D14FF482
:1017F00074111D4A083A11602DE01B494831884296
:1018000005D14FF07461184A083A116023E0164977
:101810006031884204D11149134A121F11601AE045
:1018200011497831884204D10D490F4A121F1160C5
:1018300011E00D499031884204D10A490A4A121F29
:10184000116008E00849A831884204D14FF03D51A9
:10185000054A121F11607047106002403D000020D1
:10186000400F002000003D2010640240014600208F
:101870000A6802F001020AB1012000E0002070476E
:101880000146486880B2704710B500220268134BC9
:101890001A40CC680B6823434C6923438C6923436B
:1018A000CC6923430C6A23434C6A23438C6A234349
:1018B0004C6B23438C6B23431A430260426922F032
:1018C0000702D1E90B3423431A4342610B69436099
:1018D0004B6883608B68C36010BD00003F801CF0C4
:1018E000416070470021016041608160C160016119
:1018F00041618161C161016241628162C1620163D2
:10190000416381637047704710B586B0044601217A
:1019100008460BF027F8012110200BF083F807226E
:101920000A21274807F086F807220921244807F0F2
:1019300081F800208DF8160001208DF81700022094
:101940008DF814000002049002208DF8150004A9FF
:101950001B4807F027F802208DF81400400204907D
:1019600004A9174807F01EF800940020ADF8040001
:10197000ADF80600ADF80800ADF80C000C20ADF88D
:101980000A0069460F4810F0E5FA0AF092FA0122BF
:1019900040F224410B4810F0B7FA0121094810F039
:1019A00067FA01224021074810F06EFA01228021D7
:1019B000044810F069FA00F007F806B010BD000006
:1019C000000002400010014000B591B001218805DF
:1019D0000AF0C8FF3848FFF79DFE02A8FFF782FF14
:1019E00000BF3548FFF742FF0028FAD14FF00060F2
:1019F0000290324803903248049040200590002025
:101A0000069007904FF480600890002009900A909B
:101A10000B904FF480300C9000200D9003200E901E
:101A200000200F90109002A92348FFF72DFF2248B5
:101A30007838FFF76FFE00BF1F487838FFF716FFB2
:101A40000028F9D14FF0006002901C4803901D4817
:101A50000490002005904FF48070069000200790BD
:101A60004FF480600890002009900A900B904FF48A
:101A700000300C9000200D9003200E9000200F905D
:101A8000109002A90C487838FFF7FEFE3A208DF836
:101A900004000D208DF8050000208DF806000120BF
:101AA0008DF8070001A80AF019FA012102487838D8
:101AB000FFF724FE11B000BDB864024004100140DD
:101AC000CA2F0120CA2E01207CB504466FF07F404A
:101AD000F7490860012C01D1012000E000200090AE
:101AE000009820B14FF47F00F149486003E04FF0C7
:101AF0005010EF494860EF4900230722D1F8B800A1
:101B0000042107F085F9122368221A21582007F0D2
:101B10005FFD0023E84A1A21582014F065FD0023D8
:101B2000E64A1A21AA2014F05FFD022C01D10120FF
:101B300000E000200090009820B14FF47F00DC49C5
:101B4000486003E04FF05010D9494860D94900235C
:101B50000722D1F8BC00042107F05AF912236822A9
:101B60002E21582007F034FD0023D34A302158207D
:101B700014F03AFD0023D14A3021AA2014F034FD9C
:101B8000032C01D1012000E000200090009820B13A
:101B90004FF47F00C649486003E04FF05010C4493D
:101BA0004860C44900230722D1F8C000042107F08F
:101BB0002FF9122368224621582007F009FD00233F
:101BC000BD4A4621582014F00FFD0023BB4A0832BD
:101BD0004621AA2014F008FD042C01D1012000E0C8
:101BE00000200090009820B14FF47F00B049486079
:101BF00003E04FF05010AE494860AE490023072281
:101C0000D1F8C400042107F003F912237A225A21E3
:101C1000582007F0DDFC0023A74A5C21582014F06F
:101C2000E3FC0023A54A08325C21AA2014F0DCFC66
:101C3000052C01D1012000E000200090009820B187
:101C40004FF47F009A49486003E04FF050109849E4
:101C50004860984900230822D1F8C800042107F001
:101C6000D7F812237A227021582007F0B1FC002304
:101C7000914A7221582014F0B7FC00238F4A103289
:101C80007221B42014F0B0FC062C01D1012000E038
:101C900000200090009820B14FF47F0084494860F4
:101CA00003E04FF050108249486082490023082227
:101CB000D1F8CC00042107F0ABF812237A22862158
:101CC000582007F085FC00237B4A8821582014F017
:101CD0008BFC0023794A10328821B42014F084FC54
:101CE000072C01D1012000E000200090009820B1D5
:101CF0004FF47F006E49486003E04FF050106C498C
:101D000048606C4890F8D50008B16D4D00E06D4D0D
:101D100012237A2218214FF4A97007F059FC654864
:101D200090F8D000C0EBC000421900231A214FF4F4
:101D3000A97014F059FC082C01D1012000E000200A
:101D40000090009820B14FF47F005949486003E0AB
:101D50004FF0501056494860564890F8D50008B1E9
:101D6000594D00E0594D12237A222E214FF4A970CB
:101D700007F02EFC4F4890F8D100C0EBC00042198C
:101D8000002330214FF4A97014F02EFC092C01D14E
:101D9000012000E000200090009820B14FF47F0067
:101DA0004349486003E04FF05010414948604148C2
:101DB00090F8D50008B1424D00E0424D12237A223E
:101DC00044214FF4A97007F003FC3A4890F8D20080
:101DD000C0EBC0004219002346214FF4A97014F053
:101DE00003FC0A2C01D1012000E0002000900098A3
:101DF00020B14FF47F002E49486003E04FF05010AF
:101E00002B4948602B4890F8D50008B12C4D00E0D4
:101E10002C4D12237A225A214FF4A97007F0D8FBD7
:101E2000244890F8D300C0EBC000421900235C2185
:101E30004FF4A97014F0D8FB0B2C01D1012000E065
:101E400000200090009820B14FF47F0018494860AE
:101E500003E04FF0501016494860164890F8D5003E
:101E600008B1174D00E0174D12237A2270214FF46C
:101E7000A97007F0ADFB0F4890F8D400C0EBC0008C
:101E80004219002372214FF4A97014F0ADFB072C06
:101E900022D2DFE804F01D0405060708090000BF90
:101EA00000BF00BF00BF00BF022001F0D7FD17E058
:101EB0007401002094050020C80A002093A705089B
:101EC00009A605088BA50508D1A5050899A505084B
:101ED000042001F0C3FD03E0072001F0BFFD00BFB7
:101EE00000BF01F071FD0C2C64D2DFE804F0060A9B
:101EF0000B0C0D0E0F3810393A3B032000F006FF93
:101F000059E000BF00BF00BF00BF00BF53E06FF04B
:101F10007F402A4908602A4848602A4890F8D5003E
:101F200008B1294D00E0294D0020019013E00199EE
:101F3000C1EBC1014A190199C1EB011303EB411136
:101F4000202303EB410188B20023F12114F04CFB64
:101F50000198401C019001980228E8D32BE000BFB3
:101F600000BF00BF6FF07F4014490860144848600C
:101F7000144890F8D50008B1154D00E0154D00202B
:101F8000019013E00199C1EBC1014A190199C1EB1C
:101F9000011303EB4111202303EB410188B200231D
:101FA000F12114F021FB0198401C019001980228B6
:101FB000E8D300E000BF00BF7CBD0000740100203A
:101FC0003800310094050020D1A5050899A5050821
:101FD00009A605088BA5050800B58DB04FF0501077
:101FE00007494860074808A10268684614F072FB78
:101FF00000236A463221022014F0F6FA0DB000BD2B
:102000007401002094000020B6C1C8A1B3C9B9A6CC
:102010002CCEC4BCFEB4F3D0A1CEAA2564D7D6BDC5
:10202000DA2CC7EBB0B4B7A2CBCDCEC4BCFE000057
:102030007CB504466FF07F40FE490860012C01D159
:10204000012000E000200090009820B14FF47F00B4
:10205000F849486003E04FF05010F6494860F648F0
:1020600090F8D50008B1F54D00E0F54D1223682237
:102070001A21582007F0ACFAEF480078C0EBC000F6
:10208000421900231A21582014F0AEFA022C01D173
:10209000012000E000200090009820B14FF47F0064
:1020A000E449486003E04FF05010E2494860E248DC
:1020B00090F8D50008B1E34D00E0E34D122368220B
:1020C0002E21582007F084FADB4890F82000C0EB5E
:1020D000C000421900233021582014F085FA032C47
:1020E00001D1012000E000200090009820B14FF4C1
:1020F0007F00D049486003E04FF05010CD49486060
:10210000CD4890F8D50008B1CE4D00E0CE4D122359
:1021100068224621582007F05BFAC74890F8210052
:10212000C0EBC000421900234621582014F05CFA8D
:10213000042C01D1012000E000200090009820B183
:102140004FF47F00BB49486003E04FF05010B9499D
:102150004860B949486A00230722042106F058FE66
:1021600012237A225A21582007F032FA0023B74A64
:102170005C21582014F038FA0023B54A5C21AA20CB
:1021800014F032FA052C01D1012000E0002000906B
:10219000009820B14FF47F00A649486003E04FF05B
:1021A0005010A4494860A449886A002307220421EA
:1021B00006F02EFE12237A227021582007F008FA2A
:1021C0000023A24A7221582014F00EFA0023A04ADC
:1021D0007221AA2014F008FA062C01D1012000E097
:1021E00000200090009820B14FF47F009149486092
:1021F00003E04FF050108F4948608F49886C0023EE
:102200000722042106F004FE12237A228621582098
:1022100007F0DEF900238D4A8821582014F0E4F9F4
:1022200000238CA28821AA2014F0DEF9072C01D10A
:10223000012000E000200090009820B14FF47F00C2
:102240007C49486003E04FF050107A4948607A4872
:10225000006BE0B17849086B00230622194606F0AE
:10226000D7FD12237A2218214FF4A97007F0B0F994
:102270000023764A1A214FF4A97014F0B5F900230F
:10228000764A1A214FF4C77014F0AEF919E0122300
:102290007A2218214FF4A97007F09AF9664890F84D
:1022A000D50038B900236EA21A214FF4A97014F09A
:1022B0009BF906E000236CA21A214FF4A97014F0D8
:1022C00093F9082C01D1012000E000200090009833
:1022D00020B14FF47F005749486003E04FF05010A1
:1022E00054494860544890F8D50008B15F4D00E06B
:1022F0005F4D5149486B00230722042106F088FDF9
:1023000012237A222E214FF4A97007F061F90023DD
:102310004E4A30214FF4A97014F066F900234C4A5C
:10232000083230214FF4D27014F05EF9092C01D13B
:10233000012000E000200090009820B14FF47F00C1
:102340003C49486003E04FF050103A4948603A4930
:10235000886B00230722042106F05AFD12237A22FB
:1023600044214FF4A97007F033F90023374A46217E
:102370004FF4A97014F038F90023354A46214FF480
:10238000D27014F031F90A2C01D1012000E00020B4
:102390000090009820B14FF47F002649486003E088
:1023A0004FF05010234948602349C86B002308228E
:1023B000042106F02DFD12237A225A214FF4A97030
:1023C00007F006F90023214A5C214FF4A97014F0AC
:1023D0000BF900231E4A10325C214FF4D77014F021
:1023E00003F90B2C01D1012000E00020009000989F
:1023F00020B14FF47F000F49486003E04FF05010C8
:102400000C4948600C49086C00230522042106F0A1
:10241000FFFC12237A2270214FF4A97007F0D8F83C
:1024200000230A4A72214FF4A97014F0DDF800234A
:1024300020E00000740100209405002009A6050892
:102440008BA505084FA6050841A60508C80A002067
:1024500093A7050820562F6D730000000B9F0508F9
:10246000B9D8B1D5000000004F46460099A605082E
:102470005DA6050875A272214FF4D27014F0B4F86D
:102480000C2C01D1012000E000200090009820B128
:102490004FF47F006F49486003E04FF050106D49E2
:1024A00048606D49486C00230522042106F0B0FC09
:1024B00012237A2286214FF4A97007F089F80023AD
:1024C000664A88214FF4A97014F08EF800235FA2A9
:1024D00088214FF4D27014F087F80D2C1AD2DFE85F
:1024E00004F019121314070809150A0B0C0D0E003D
:1024F00000BF00BF00BF00BF00BF00BF00BF022081
:1025000001F0ACFA0AE000BF00BF00BF072001F0F5
:10251000A5FA03E0042001F0A1FA00BF00BF01F01A
:1025200053FA0D2C7ED2DFE804F0070B335B85866F
:102530008788898A8B8C8D00022000F0E7FB83E07E
:102540006FF07F404349086045484860424890F832
:10255000D50008B1434D00E0434D0020019013E049
:102560000199C1EBC1014A190199C1EB011303EBB8
:102570004111202303EB410188B20023F12114F023
:1025800033F80198401C019001980228E8D35BE0E1
:102590006FF07F402F490860314848602E4890F81E
:1025A000D50008B1314D00E0314D0020019013E01D
:1025B0000199C1EBC1014A190199C1EB011303EB68
:1025C0004111202303EB410188B20023F12114F0D3
:1025D0000BF80198401C019001980228E8D333E0E1
:1025E0006FF07F401B4908601D4848601A4890F80A
:1025F000D50008B11D4D00E01D4D0020019015E0F3
:102600000199C1EBC1014A190199C1EB011303EB17
:102610004111202303EB410188B20023F12113F083
:10262000E3FF00E00FE00198401C019001980228B0
:10263000E6D309E000BF00BF00BF00BF00BF00BF7E
:1026400000BF00BF00E000BF00BF7CBD20412F6D78
:10265000730000007401002094050020C80A0020C7
:102660003800310009A605088BA505084FA6050806
:1026700041A6050810B504F0FDFC01F0A5F902F033
:102680007DFE10BD7CB50446FE4890F85800002839
:1026900072D1012C01D1012000E0002000900098AF
:1026A00020B14FF47F00F849486003E04FF050102C
:1026B000F549486014235C221821762006F088FF33
:1026C0006FF07F40F0490860EE4890F8D50060B99F
:1026D000EC4890F85800C0EBC000EC4942180023C9
:1026E0001A21762013F080FF0BE0E64890F858009E
:1026F000C0EBC000E649421800231A21762013F0EF
:1027000073FF022C01D1012000E00020009000980E
:1027100020B14FF47F00DC49486003E04FF05010D7
:10272000D949486014235C222E21762006F050FF00
:102730006FF07F40D4490860D249C86D002307225A
:10274000042106F065FB0023D24A3021762013F0E5
:102750004BFF0023D04A3021C82013F045FF032C43
:1027600001D1012000E000200090009828B14FF432
:102770007F00C549486004E0EFE04FF05010C249C7
:10278000486014235C224421762006F021FF6FF07C
:102790007F40BD490860BB49086E00230722042121
:1027A00006F036FB0023BB4A4621762013F01CFFBF
:1027B0000023B94A4621C82013F016FF042C01D18A
:1027C000012000E000200090009820B14FF47F002D
:1027D000AD49486003E04FF05010AB494860142306
:1027E0005C225A21762006F0F3FE6FF07F40A64966
:1027F0000860A449486E00230722042106F008FB64
:102800000023A44A5C21762013F0EEFE0023A24AA6
:102810005C21C82013F0E8FE062C01D1012000E065
:1028200000200090009820B14FF47F009649486046
:1028300003E04FF050109449486014235C222E218D
:10284000C80006F0C5FE6FF07F408F4908608D49D3
:10285000C86E00230722042106F0DAFA00238D4A0D
:1028600030214FF4B87013F0BFFE00238A4A921D46
:1028700030214FF4E17013F0B7FE072C01D1012095
:1028800000E000200090009820B14FF47F007E49C6
:10289000486003E04FF050107B49486014235C22ED
:1028A0004421900006F094FE6FF07F407649086066
:1028B0007449086F00230722042106F0A9FA0023B7
:1028C000744A46214FF4B87013F08EFE0023724A0A
:1028D000921D46214FF4E17013F086FE082C01D1C1
:1028E000012000E000200090009820B14FF47F000C
:1028F0006549486003E04FF0501063494860142375
:102900005C225A21900006F063FE6FF07F405E4922
:1029100008605C49486F00230722042106F078FA1A
:1029200000235C4A5C21880013F05EFE00235A4AB3
:10293000921D5C214FF4E17013F056FE012C03D17F
:10294000062001F08BF8C0E01CB9032001F086F8E6
:10295000BBE0082001F082F8B7E04A4890F8580040
:102960000228F0D1012C01D1012000E000200090CC
:10297000009820B14FF47F004349486003E04FF0D6
:1029800050104149486014235C221821762006F03B
:102990001FFE6FF07F403C4908603A4890F8D50030
:1029A00060B9384890F85800C0EBC0003749421869
:1029B00000231A21762013F017FE0BE0314890F81F
:1029C0005800C0EBC0003249421800231A2176207B
:1029D00013F00AFE022C01D1012000E0002000903B
:1029E000009820B14FF47F002749486003E04FF082
:1029F000501025494860142368222E21762006F0C5
:102A0000E7FD6FF07F40204908601E49886F002372
:102A10000722012106F0FCF900231E4A302176200E
:102A200013F0E2FD00231C4A0C323021C82013F0C1
:102A3000DBFD062C01D1012000E000200090009871
:102A400020B14FF47F001049486003E04FF0501070
:102A50000D49486014235C222E21C80006F0B8FD01
:102A60006FF07F40084908600649C86F00230722BD
:102A7000042106F0CDF90023064A30214FF4B87046
:102A80000CE00000940500207401002006A5050854
:102A900096A40508C80A0020F39E050813F0A4FDBB
:102AA0000023354A30214FF4E17013F09DFD012CD5
:102AB00003D1062000F0D2FF07E01CB9032000F08C
:102AC000CDFF02E0082000F0C9FF2C4890F86D010E
:102AD000B0BB092C3DD2DFE804F005093435363CA3
:102AE00037383900002000F011F933E000F06CFFB6
:102AF0006FF07F402249086022484860224890F8E1
:102B0000D50008B1214D00E0214D0020019013E0D7
:102B10000199C1EBC1014A190199C1EB011303EB02
:102B20004111202303EB410188B20023F12113F06E
:102B30005BFD0198401C019001980228E8D309E050
:102B400009E000BF00BF00BF00BF00BF00F03CFFB6
:102B500000E000BF0EE000F037FF6FF07F40084953
:102B600008600848486000230AA2F1214FF4CC70A5
:102B700013F03AFD7CBD0000F99E0508880700208F
:102B800074010020380031009405002096A4050847
:102B900081A40508C8B7C8CF0000000070B506467C
:102BA000FFF768FD6FF07F404E4908604E4848606F
:102BB0004E4890F8D50008B14D4D00E04D4D002332
:102BC00005F12C020421184613F00EFD6FF07F4032
:102BD000444908604FF050104860444890F858004D
:102BE000F0BB00243AE0042C1BD2404890F8D500FA
:102BF00000EB400303EB00103F4B03EBC00004EB82
:102C0000440303EB0413C21804EB440000EBC400BC
:102C10001A2303EB400081B20023184613F0E4FCB2
:102C20001BE0324890F8D50000EB400303EB0010A6
:102C3000314B03EBC00004EB440303EB0413C21855
:102C4000201F00EB400303EBC0001A2303EB4000FE
:102C500081B20023FA2013F0C7FC641C082C00E0AA
:102C600001E0C0D339E0214890F85800022834D15F
:102C7000002430E0042C16D21C4890F8D50000EB5C
:102C8000C0001E4B03EB001000EB041204EB4400E9
:102C900000EBC4001A2303EB400081B20023184666
:102CA00013F0A2FC16E0114890F8D50000EBC0002C
:102CB000124B03EB001000EB0412201F00EB40034B
:102CC00003EBC0001A2303EB400081B20023FA207B
:102CD00013F08AFC641C082CCCD316B9002000F039
:102CE00015F870BD740100200352F3009405002014
:102CF00091A005089F9F0508A39B0508D39C050884
:102D000010B5032000F002F810BD000010B5044615
:102D100000F05AFE002C7CD16FF07F40FC49086027
:102D2000FC484860FC4890F8D500002840D00023BB
:102D3000FAA2E7211C2013F057FC0023F9A2FB2183
:102D40001C2013F051FC0023F8A2E7217E2013F091
:102D50004BFC0023F6A2FB217E2013F045FC002350
:102D6000F5A2E721DC2013F03FFC0023F0A2FB21B9
:102D7000DC2013F039FC0023F1A2E7214FF49D7011
:102D800013F032FC0023EAA2FB214FF49D7013F0F4
:102D90002BFC0023ECA2E7214FF4CC7013F024FCB1
:102DA0000023EBA2FB214FF4CC7013F01DFC6BE26F
:102DB0000023E8A2E7211C2013F016FC0023E7A261
:102DC000FB211C2013F010FC0023E6A2E7217E204B
:102DD00013F00AFC0023E5A2FB217E2013F004FC83
:102DE0000023E4A2E721DC2013F0FEFB0023DFA296
:102DF000FB21DC2013F0F8FB0023E0A2E7214FF4D5
:102E00009D7013F0F1FB0023D8A2FB214FF49D70BD
:102E100000E010E013F0E8FB0023DAA2E7214FF412
:102E2000CC7013F0E1FB0023D8A2FB214FF4CC704F
:102E300013F0DAFB28E2012C2CD16FF07F40B4496B
:102E40000860B44848600023D2A2E721662013F04E
:102E5000CBFB0023D1A2FB21662013F0C5FB00238E
:102E6000D0A2E721B62013F0BFFB0023CFA2FB21A5
:102E7000B62013F0B9FB0023CEA2E7214FF4D370A4
:102E800013F0B2FB0023CDA2FB214FF4D37013F05B
:102E9000ABFBF9E1022C50D19E489D4948609E4809
:102EA00090F8D50020B300239CA2E7211C2013F04A
:102EB0009BFB00239BA2FB211C2013F095FB00230E
:102EC000A1A2E7217E2013F08FFB0023BDA2FB21EE
:102ED0007E2013F089FB0023BCA2E721DC2013F045
:102EE00083FB0023B7A2FB21DC2013F07DFBCBE1A9
:102EF000002398A2E7211C2013F076FB002397A261
:102F0000FB211C2013F070FB00239EA2E7217E20F2
:102F100013F06AFB00239DA2FB217E2013F064FBCB
:102F20000023ACA2E721DC2013F05EFB002397A274
:102F3000FB21DC2013F058FBA6E1032C6CD1754873
:102F400073494860744890F8D500002831D00023B8
:102F500072A2E7211C2013F047FB002371A2FB2182
:102F60001C2013F041FB00236CA2E7217E2013F00C
:102F70003BFB002393A2FB217E2013F035FB0023B3
:102F800092A2E721DC2013F02FFB00238DA2FB216E
:102F9000DC2013F029FB002390A2E7214FF4FB7003
:102FA00013F022FB00238FA2FB21480013F01CFB2F
:102FB0006AE1002367A2E7211C2013F015FB002320
:102FC00066A2FB211C2013F00FFB002361A2E72166
:102FD0007E2013F009FB00236CA2FB217E2013F05E
:102FE00003FB00237BA2E721DC2013F0FDFA002382
:102FF00066A2FB21DC2013F0F7FA00237BA2E72175
:103000004FF4CC7013F0F0FA00237AA2FB214FF4B6
:10301000CC7013F0E9FA37E1042C50D13D483C491B
:1030200048603D4890F8D50020B300233BA2E7213B
:103030001C2013F0D9FA00233AA2FB211C2013F024
:10304000D3FA002335A2E7217E2013F0CDFA002326
:103050005CA2FB217E2013F0C7FA00235BA2E721CC
:10306000DC2013F0C1FA002356A2FB21DC2013F070
:10307000BBFA09E1002361A2E7211C2013F0B4FA96
:1030800000235CA2FB211C2013F0AEFA00235DA2FA
:10309000E7217E2013F0A8FA00233EA2FB217E2028
:1030A00013F0A2FA002359A2E721DC2013F09CFAC6
:1030B000002338A2FB21DC2013F096FAE4E0052C73
:1030C00024D1144812494860134890F8D50070B1D3
:1030D000002350A2F1214FF49D7013F085FA0023D4
:1030E0004DA2F1214FF4CC7013F07EFACCE0002316
:1030F0004BA2F1214FF4987013F076FA00234BA203
:10310000F1214FF4CC7013F06FFABDE092E00000B3
:103110007401002038003100940500204D454153D2
:103120000000000044495350000000004241540098
:10313000544553540000000044594E410000000023
:103140004C495354000000004C494D4954000000C4
:1031500053455400B2E2C1BF00000000CFD4CABE44
:1031600000000000B5E7B3D800000000B2E2CAD406
:1031700000000000B6AFCCAC00000000C1D0B1ED43
:1031800000000000BCABCFDE00000000C9E8D6C3E1
:1031900000000000CEC4BCFE00000000B9DCC0EDA1
:1031A00000000000B1A3B4E600000000CAFDBEDDCF
:1031B00000000000B8FCB6E00000000020322F3212
:1031C000000000005345545550000000205359534F
:1031D00000000000CFB5CDB3000000004649524DBD
:1031E000000000005550444154450000B9CCBCFEDD
:1031F00000000000C9FDBCB600000000CCF8D7AA52
:1032000000000000B6C1C8A100000000B7A2CBCDED
:1032100000000000524553004241434B00000000B3
:10322000B2E2CAD4BDE1B9FB00000000B7B5BBD81B
:1032300000000000062C27D16FF07F401349086082
:1032400013484860134890F8D50001280CD100239A
:1032500011A2F2211C2013F0C7F9002310A2F221C1
:103260007E2013F0C1F90FE00A4890F8D50058B954
:1032700000230DA2F2211C2013F0B6F900230CA2AA
:10328000F2217E2013F0B0F910BD0000740100207F
:10329000380031009405002043414E43454C200046
:1032A000434F4E4649524D002020C8A1CFFB20007D
:1032B0002020C8B7C8CF200011B581B0624800787F
:1032C00000285DD1009057E09DF804100098401C44
:1032D000814204D14FF47F005C49486003E04FF025
:1032E00050105A49486000980A281FD2009800EBF5
:1032F000800080001A3081B214235A22A02006F0E8
:1033000067F95349009A51F822000023072204214B
:1033100005F07EFD009800EB800080001A3081B23D
:1033200001234C4AA02013F05FF922E000980A38EC
:1033300000EB800080001A3081B214235A224FF42F
:10334000AF7006F045F94249009A51F82200002377
:103350000722042105F05CFD00980A3800EB80008C
:1033600080001A3081B201233A4A4FF4AF7013F053
:103370003BF90098401C009000981028A4D33BE033
:1033800031480078012837D10020009031E09DF8C5
:1033900004100098401C814204D14FF47F002B4957
:1033A000486003E04FF0501028494860009800EB57
:1033B000800080001A3081B214235A22A02006F027
:1033C00007F92349009A103251F8220000230722FE
:1033D000042105F01DFD009800EB800080001A30EC
:1033E00081B201231B4AA02013F0FEF80098401C74
:1033F000009000980928CAD34FF050101349486034
:1034000000F0E2FA6FF07F4010490860124848600F
:10341000124C0220009013E00099C1EBC1010A197F
:103420000099C1EB011303EB4111202303EB410190
:1034300088B20023F12113F0D7F80098401C0090C7
:1034400000980528E8D31CBD8600002074010020E8
:1034500098070020C80A002038003100ABA40508F6
:103460007CB50446012C00D100E0002000900098BB
:1034700020B14FF47F00F849486003E04FF050104E
:10348000F549486014235C221821762006F0A0F844
:103490006FF07F40F0490860F04890F8D50060B9BF
:1034A000EE4890F88000C0EBC000ED4942180023C0
:1034B0001A21762013F098F80BE0E84890F8800085
:1034C000C0EBC000E749421800231A21762013F010
:1034D0008BF8022C01D1012000E000200090009820
:1034E00020B14FF47F00DC49486003E04FF05010FA
:1034F000D949486014235C222E21762006F068F812
:103500006FF07F40D4490860D449D1F8840000238B
:103510000722042105F07CFC0023D34A30217620C9
:1035200013F062F80023D14A3021C82013F05CF870
:10353000032C01D1012000E000200090009820B170
:103540004FF47F00C449486003E04FF05010C24977
:10355000486014235C224421762006F039F86FF08D
:103560007F40BD490860BD49D1F88800002307228B
:10357000042105F04DFC0023BB4A4621762013F0C0
:1035800033F80023B94A4621C82013F02DF8042C43
:1035900001D1012000E000200090009820B14FF4FC
:1035A0007F00AD49486003E04FF05010AA494860E1
:1035B000142364225A21762006F00AF86FF07F4027
:1035C000A5490860A549D1F89400002305220421EB
:1035D00005F01EFC0023A44A5C21762013F004F8B9
:1035E0000023A24A1E325C21B22012F0FDFF052CFE
:1035F00001D1012000E000200090009820B14FF49C
:103600007F009549486003E04FF0501092494860B0
:1036100014235C221821900005F0DAFF6FF07F4040
:103620008D4908608D4890F8D50068B98B4890F8AE
:103630009000C0EBC0008E49421800231A214FF4BD
:10364000B87012F0D1FF0CE0844890F89000C0EB05
:10365000C0008849421800231A214FF4B87012F0B4
:10366000C3FF062C01D1012000E00020009000984B
:1036700020B14FF47F007849486003E04FF05010CC
:1036800075494860142370222E21C80005F0A0FF60
:103690006FF07F40704908607049D1F88C000023BA
:1036A0000822012105F0B4FB00236F4A30214FF4BA
:1036B000B87012F099FF00236C4A2A3230214FF47F
:1036C000E57012F091FF072C01D1012000E00020ED
:1036D0000090009820B14FF47F005F49486003E0FC
:1036E0004FF050105C4948601423702244214FF47D
:1036F000B87005F06DFF6FF07F405749086057497B
:10370000D1F89C0000230822012105F081FB002351
:10371000554A46214FF4B87012F066FF0023534A11
:103720002A3246214FF4E57012F05EFF082C01D1D9
:10373000012000E000200090009820B14FF47F00AD
:103740004549486003E04FF0501043494860142356
:1037500064225A214FF4B87005F03AFF6FF07F40B1
:103760003D4908603D49D1F8980000230522042115
:1037700005F04EFB00233C4A5C21880012F034FF28
:1037800000233A4A1E325C214FF4D67012F02CFF0F
:10379000394890F86D01002877D124B1012C06D06A
:1037A000052C6ED12DE00020FFF7B0FA6CE000F0A0
:1037B0000BF96FF07F40284908603048486027487F
:1037C00090F8D50008B1274D00E0254D002001906C
:1037D00013E00199C1EBC1014A190199C1EB011331
:1037E00003EB4111202303EB410188B20023F121B7
:1037F00012F0FAFE0198401C019001980228E8D3CB
:1038000042E000F0E1F86FF07F40134908601B4888
:103810004860124890F8D50008B1164D00E0144DEC
:103820000020019013E00199C1EBC1014A190199EF
:10383000C1EB011303EB4111202303EB410188B2DB
:103840000023F12112F0D0FE0198401C0190019854
:103850000328E8D318E018E0740100209405002044
:103860008BA5050809A60508C80A0020F39E0508CF
:10387000DFA50508F4A505088807002038003100F9
:10388000FFE700F0A1F800BF0EE000F09DF86FF038
:103890007F400649086006484860002305A2F121E0
:1038A0004FF4CC7012F0A0FE7CBD0000740100202B
:1038B00038003100C8B7C8CF0000000070B5FEF76F
:1038C000D9FE6FF07F4024490860244848602448AE
:1038D00090F8D50008B1234E00E0234E002306F1F6
:1038E00042020421184612F07FFE6FF07F401A4911
:1038F00008604FF050104860194890F8D50008B99A
:103900001A4D00E01A4D002420E0042C0ED205EBE5
:10391000041204EB440000EBC4001A2303EB400044
:1039200081B20023184612F05FFE0EE005EB041290
:10393000201F00EB400303EBC0001A2303EB400001
:1039400081B20023FA2012F04FFE641C082CDCD355
:103950000020FFF7DBF970BD740100200352F30073
:103960009405002091A005089F9F0508F39D050878
:10397000739E05082DE9F841054688461446002641
:103980001CE0207800B91AE02078203800EB800095
:10399000C00000EB8000C700F81707EB5070094922
:1039A00001EBE000A919009088B228231A4641468D
:1039B00006F026FB641C06F11C0086B2E1E700BF9E
:1039C000BDE8F881CE1D0C0810B500243CE020486D
:1039D00020494860A1000A31C4EB041202EB420204
:1039E00001EB420188B22B235A22E42105F0F0FDBD
:1039F0001948184948605E2204FB02F10B3188B275
:103A000001235A22E32105F0E3FDC4EB041101EB8D
:103A10004411642202EB410188B22C230122E321EC
:103A200005F0D6FD00200B494860C4EB041101EB02
:103A30004411642202EB4101491C88B22C23032269
:103A4000E32105F0C5FD641C052CC0D310BD0000AA
:103A500038003100740100206843690010B5044645
:103A6000AA4890F8D50000287DD1012C0DD1A84896
:103A7000A84948604FF47F0008600023A6A2CD212A
:103A80004FF4917012F0B0FD3FE1022C0ED14FF0D7
:103A90005010A04948604FF47F0008600023A4A2A2
:103AA000CD214FF49B7012F09FFD2EE1032C0AD123
:103AB00097489849486014239622CD214FF49B7073
:103AC00005F086FD21E1042C0BD14FF050109149F7
:103AD000486014239622CD214FF49B7005F078FDA9
:103AE00013E1052C0ED14FF050108A4948604FF475
:103AF0007F000860002393A2CD214FF49B7012F049
:103B000073FD02E1062C0DD18148824948604FF4D3
:103B10007F000860002390A2CD214FF49B7012F02B
:103B200063FDF2E0072C0ED14FF050107949486048
:103B30004FF47F000860002387A2CD214FF49B70D3
:103B400012F052FDE1E0082C0ED171487149486035
:103B50004FF47F000860002375A2CD214FF49B70C5
:103B600012F042FDD1E02AE0092C0DD168486949E4
:103B700048604FF47F00086000237CA2CD214FF401
:103B80009B7012F031FDC0E00A2C0CD160486149F5
:103B900048604FF47F000860002379A2CD21022005
:103BA00012F022FDB1E00B2C8CD1594859494860E4
:103BB0001423F022CD21022005F00AFDA5E0012CFE
:103BC0000CD15348534948604FF47F0008600023EC
:103BD00073A2CD21AA2012F007FD96E0022C0ED18F
:103BE0004FF050104B4948604FF47F0008600023AD
:103BF00073A2CD214FF48C7012F0F6FC85E0032CFB
:103C00000AD143484349486014234FF48072CD21C0
:103C1000DA2005F0DDFC78E0042C0AD14FF05010DA
:103C20003C4948601423A201CD21DA2005F0D0FCE4
:103C30006BE0052C0ED14FF05010364948604FF420
:103C40007F000860002364A2CD214FF48C7012F035
:103C5000CBFC5AE0062C0DD12D482E4948604FF47C
:103C60007F00086000235CA2CD214FF48C7012F01D
:103C7000BBFC4AE0072C0ED14FF05010254948609C
:103C80004FF47F000860002353A2CD214FF48C70C5
:103C900012F0AAFC39E0082C0DD11D481D494860DE
:103CA0004FF47F000860002345A2CD214FF48C70B3
:103CB00012F09AFC29E0092C0DD1154815494860ED
:103CC0004FF47F000860002349A2CD214FF49B7080
:103CD00012F08AFC19E00A2C0CD10D480D494860FD
:103CE0004FF47F000860002347A2CD21022012F08C
:103CF0007BFC0AE00B2C08D10548064948601423D8
:103D0000F022CD21022005F063FC10BD94050020B7
:103D10006534340074010020C7EBD3C3CAFDD7D685
:103D2000BCFCC5CCBBF2D0FDC5A5CAE4C8EB000005
:103D3000C7EBD3C3CAFDD7D6BCFCC5CCCAE4C8EB1D
:103D400000000000B0B4CFC2D0FDC5A5C7D0BBBB3A
:103D5000B2BDD6E800000000B0B4CFC2D0FDC5A50A
:103D6000BFECCBD9D1A1D4F100000000B5E7D1B9A7
:103D7000B3ACCFDED7D4B6AFBFAACABC0000000038
:103D8000BDD3BDFCBCABCFDEB9A6C2CA2CBDABD483
:103D9000DA3135B7D6D6D3BAF3B9D8B1D5000000E9
:103DA000496E7075742077697468206B6579626FED
:103DB000617264206F7220656E636F6465722E009D
:103DC000496E7075742077697468206B6579626FCD
:103DD0006172642E00000000507265737320746875
:103DE0006520656E636F6465722E20200000000000
:103DF0004175746F2073746172742E20202020200E
:103E00002020202000000000417070726F61636804
:103E1000696E67206D617820706F7765722C7368AA
:103E2000757420646F776E20696E203135206D695E
:103E30006E732E0070B502F0D5FC6FF07F40234901
:103E4000086023484860234890F8D50008B1224E06
:103E500000E0224E002306F116020421184612F05B
:103E6000C3FB6FF07F40194908604FF05010486065
:103E70001B4D002424E0022C10D204EB840005EB3F
:103E8000400204EB440000EBC4001A2303EB4000A3
:103E900081B20023184612F0A7FB10E004EB840067
:103EA00005EB4002A01E00EB400303EBC0001A2309
:103EB00003EB400081B20023FA2012F095FB641C52
:103EC000032CD8D30020FEF721FF70BD7401002021
:103ED0000352F3009405002091A005089F9F050858
:103EE000859B050838B50446012C00D100E0002070
:103EF0000090009820B14FF47F004249486003E0F1
:103F00004FF050103F49486014237E22182158205A
:103F100005F05EFB6FF07F403A4908603A49C86C93
:103F200000230722042104F073FF0023374A1A21DB
:103F3000582012F059FB0023354A1A21C82012F0EC
:103F400053FB022C01D1012000E0002000900098DA
:103F500020B14FF47F002B49486003E04FF0501030
:103F6000284948601423682218214FF4A97005F0ED
:103F70002FFB6FF07F40234908602349486D0023E1
:103F80000722042104F044FF0023204A1A214FF4A1
:103F9000A97012F029FB032C01D1012000E00020C0
:103FA0000090009820B14FF47F001649486003E06C
:103FB0004FF050101349486014237E222E215820C0
:103FC00005F006FB6FF07F400E4908600E49086D52
:103FD00000230722042104F01BFF00230B4A302199
:103FE000582012F001FB0023094A921F3021C820FB
:103FF00012F0FAFA1CB90020FEF788FE00E000BFBC
:1040000000BF38BD7401002094050020C80A0020BC
:10401000F99E050870B502F0EDFB6FF07F402C496A
:1040200008602C4848602C4890F8D50008B12B4E09
:1040300000E02B4E002306F184020421184612F002
:10404000D3FA6FF07F40224908604FF0501048606B
:10405000214890F8D50008B1224D00E0224D0024FF
:104060002FE0062C11D24FF050101949486004EB94
:10407000840005EB4002162304FB03F01A3081B2E2
:104080000023184612F0B0FA1AE0A01F022806D941
:10409000082804D24FF050100D49486003E04FF05B
:1040A00050100B49486004EB840005EB4002A01F50
:1040B000162358431A3081B20023FA2012F094FAE2
:1040C000641C0B2CCDD30320FEF720FE70BD000036
:1040D000740100200352F3009405002091A005080C
:1040E0009F9F0508E1A2050873A2050810B502F01C
:1040F000C1FFFFF769FC10BD30B595B0054603F070
:1041000039FA01222946684601F048F96C469DF8C3
:1041100000008DF8380001980F90029810900398D5
:1041200011900498129005981390069814900F9887
:104130004FF47A71B0FBF1F00F900B9818B9002092
:10414000099008900A900F9815B030BD70B5FFF730
:10415000CDFF6FF07F403D4908603D4848603D48D5
:1041600090F8D50008B13C4D00E03C4D002305F12E
:104170006E020421184612F037FA6FF07F4033497F
:1041800008604FF050104860002459E0032C2AD2F8
:10419000304890F8D500012810D1C4EB0410304B02
:1041A000C21804EB440000EBC4001A2303EB4000E8
:1041B00081B20023184612F017FA40E0254890F823
:1041C000D50030BBC4EB0410264BC21804EB4400EE
:1041D00000EBC4001A2303EB400081B20023184611
:1041E00012F002FA2BE01B4890F8D500012811D1FB
:1041F000C4EB04101A4BC218E01E00EB400303EBA3
:10420000C0001A2303EB400081B20023FA2012F011
:10421000EBF914E00F4890F8D50080B9C4EB041016
:10422000104BC218E01E00EB400303EBC0001A2342
:1042300003EB400081B20023FA2012F0D5F9641C90
:10424000062CA3D30520FEF761FD70BD740100208C
:104250000352F3009405002091A005089F9F0508D4
:10426000EFA3050895A3050810B5B048B04908604C
:104270004FF050104860AF4890F8D500F0B90023D7
:10428000ADA25E214FF4967012F0AEF90023ABA2FE
:104290005E214FF4AF7012F0A7F9A94991F87D1093
:1042A000481C00230222194604F0B2FD0023A54A4F
:1042B0005E214FF4A17012F097F91BE09D4890F831
:1042C000D500012816D100239FA25E214FF49670DD
:1042D00012F08AF99A4991F87D10481C00230222B5
:1042E000194604F095FD0023964A5E214FF4A9700B
:1042F00012F07AF98F4890F8D50080B9904890F87C
:104300007D108C48E430405CC0EBC00090494218FE
:1043100000235E214FF4C87012F066F914E085485E
:1043200090F8D50001280FD1854890F87D1081487C
:10433000E430405CC0EBC0008649421800235E2197
:104340004FF4C87012F050F97A4890F8D500E0B9EF
:10435000002381A272214FF4967012F045F90023D8
:104360007FA288214FF4967012F03EF900237EA2BE
:104370009E214FF4967012F037F900237CA2B421ED
:104380004FF4967012F030F920E06A4890F8D500AA
:1043900001281BD1002378A272214FF4967012F0ED
:1043A00023F9002375A288214FF4967012F01CF9AE
:1043B000002373A29E214FF4967012F015F900238A
:1043C00070A2B4214FF4967012F00EF9594890F88B
:1043D000210038BB5A480068642806D2002307220F
:1043E0000421184604F014FD06E055490023072275
:1043F0000868042104F00CFD5149002307220868D5
:10440000042104F005FD00234E4A72214FF4B470DC
:1044100012F0EAF8002358A272214FF4DC7012F077
:10442000E3F824E0434890F8210001281FD14448D4
:104430000068642806D2002306220321184604F0EF
:10444000E7FC06E03E49002306220868032104F049
:10445000DFFC00233B4A72214FF4B47012F0C4F821
:10446000002345A272214FF4DC7012F0BDF83148F0
:1044700090F82000A8B93249002307224868042197
:1044800004F0C6FC00232F4A88214FF4B47012F0C8
:10449000ABF800233DA288214FF4DC7012F0A4F8A1
:1044A00019E0244890F82000012814D12449002361
:1044B00006224868032104F0ABFC0023214A88212E
:1044C0004FF4B47012F090F8002330A288214FF41A
:1044D000DC7012F089F81A4900230722C86803210A
:1044E00004F096FC0023174A9E214FF4B47012F09A
:1044F0007BF8002326A29E214FF4DC7012F074F8A2
:104500000F4900230522D1F88000012104F080FC2E
:1045100000230C4AB421480012F066F800231DA2C3
:10452000B4214FF4DC7012F05FF810BD00FFFF0003
:104530007401002094050020B5DA0000B2BD00002F
:1045400088070020C80A002053746570000000002E
:104550002EAB050897AB0508B5E7D1B90000000000
:10456000B5E7C1F700000000B9A6C2CA000000000C
:10457000CAB1BCE400000000560000004900000081
:104580005000000054494D4500000000410000006B
:1045900057000000730000002DE9F0410546012D91
:1045A00000D100E00020064626B14FF47F00F94913
:1045B000486003E04FF05010F649486014235C2235
:1045C0001821762005F004F86FF07F40F14908606B
:1045D000F14991F8D60000230322194604F018FC93
:1045E0000023EE4A1A21762011F0FEFF022D01D1A0
:1045F000012000E00020064626B14FF47F00E54987
:10460000486003E04FF05010E249486014235C22F8
:104610002E21762004F0DCFF6FF07F40DD4908603A
:10462000DD4890F8D50060B9DB4890F8D700C0EBC2
:10463000C000DB49421800233021762011F0D4FF5E
:104640000BE0D54890F8D700C0EBC000D549421820
:1046500000233021762011F0C7FF032D01D1012066
:1046600000E00020064626B14FF47F00C9494860AB
:1046700003E04FF05010C749486014235C224421E6
:10468000762004F0A5FFC449D1F8E00000230722FA
:10469000042104F0BDFB6FF07F40BE490860BE48B6
:1046A000D0F8E00060B10023BC4A4621762011F02A
:1046B0009BFF0023BC4A4621C82011F095FF05E06E
:1046C0000023BA4A4621762011F08EFF042D01D135
:1046D000012000E00020064626B14FF47F00AD49DE
:1046E000486003E04FF05010AA49486014235C2250
:1046F0001821900004F06CFF6FF07F40A54908601E
:10470000A54890F8D50068B9A34890F8D900C0EB47
:10471000C000A749421800231A214FF4B87011F0C5
:1047200063FF0CE09C4890F8D900C0EBC000A149A1
:10473000421800231A214FF4B87011F055FF052DCF
:1047400001D1012000E00020064626B14FF47F0091
:104750009049486003E04FF050108E4948601423A0
:104760005C222E21C80004F033FF6FF07F4089499E
:1047700008608949D1F8DC0000230722042104F0F5
:1047800047FB0023854A30214FF4B87011F02CFF0D
:104790000023854A30214FF4E17011F025FF0D2DE3
:1047A00001D1012000E00020064626B14FF47F0031
:1047B0007849486003E04FF0501076494860142370
:1047C0005C224421900004F003FF6FF07F407149A8
:1047D0000860714890F8D50068B96F4890F8D80023
:1047E000C0EBC00071494218002346214FF4B87055
:1047F00011F0FAFE0CE0684890F8D800C0EBC00059
:104800006D494218002346214FF4B87011F0ECFEB8
:10481000062D01D1012000E00020064626B14FF40C
:104820007F005C49486003E04FF0501059494860F0
:10483000102350225E21002004F0CAFE6FF07F405A
:1048400054490860544890F8D500D8B900235BA2B9
:104850005E21184611F0C8FE002359A25E213220C5
:1048600011F0C2FE574991F87C10481C0023022227
:10487000194604F0CDFA0023484A5E21162011F0B3
:10488000B3FE19E0444890F8D500012814D1002364
:104890004DA25E21184611F0A7FE4A4991F87C10FE
:1048A000481C00230222194604F0B2FA00233B4AB6
:1048B0005E21262011F098FE072D01D1012000E095
:1048C0000020064626B14FF47F003249486003E0DD
:1048D0004FF050102F494860102350225E21642071
:1048E00004F076FE2C4890F8D50078B9354890F859
:1048F0007C102948E430405CC0EBC00034494218C9
:1049000000235E21642011F06FFE13E0224890F82E
:10491000D50001280ED12B4890F87C101E48E430B9
:10492000405CC0EBC0002B49421800235E2164208C
:1049300011F05AFE4FF0501016494860214890F887
:104940007C101548E430405C04287DD0124890F873
:10495000D500F0B9002320A27221184611F044FEC0
:10496000002320A28821184611F03EFE00231FA23A
:104970009E21184611F038FE00231FA2B4211846CC
:1049800011F032FE00231EA2CA21184611F02CFE9F
:104990005FE039E07401002094050020C80A00207F
:1049A00004AB050819AB0508F99E05088BA5050899
:1049B00099A50508D1A5050809A60508B5DA0000DE
:1049C000B2BD00008807002053746570000000002D
:1049D0002EAB050897AB0508B8BAD4D8B4F3D0A16C
:1049E00000000000CAB1BCE400000000B1C8BDCFA7
:1049F000C0E0D0CD00000000C9CFCFDE0000000035
:104A0000CFC2CFDE00000000FE4890F8D50001289C
:104A10001FD10023FCA27221184611F0E5FD0023EE
:104A2000FBA28821184611F0DFFD0023FAA29E2187
:104A3000184611F0D9FD0023F9A2B421184611F04F
:104A4000D3FD0023F8A200E04AE1CA21184611F084
:104A5000CBFD122314227021C82004F0B9FD1223CB
:104A60001422B221C82004F0B3FD12231422C8215D
:104A7000084604F0ADFDED4890F87C10E148E430C4
:104A8000405C00EB4000EA4901EB40020023722148
:104A9000C82011F0A9FDE54890F87C10E548405C7D
:104AA00000EB4000E44901EB40020023B421C820A0
:104AB00011F09AFDDD4890F87C10DE48405C00EB78
:104AC0004000DD4901EB40020023CA21C82011F05B
:104AD0008BFD0023D9A28821C82011F085FD082D67
:104AE00001D1012000E00020064626B14FF47F00EE
:104AF000D349486003E04FF05010D1494860142377
:104B00005C227021642004F063FD6FF07F40CC498B
:104B10000860C64890F87C10C6486A38405C022895
:104B20000CD1C24991F87C20C2495A3951F822006F
:104B300000230722012104F06BF90BE0BB4991F837
:104B40007C20BC495A3951F8220000230822042154
:104B500004F05EF90023BB4A7221642011F044FD89
:104B6000092D01D1012000E00020064626B14FF4B6
:104B70007F00B349486003E04FF05010B0494860EF
:104B800014235C228621642004F022FD6FF07F4014
:104B9000AB490860A54991F87C20A6491E3931F837
:104BA000120000230522012104F032F90023A54A56
:104BB0008821642011F018FD0A2D01D1012000E0A8
:104BC0000020064626B14FF47F009D49486003E06F
:104BD0004FF050109A49486014235C229C216420B5
:104BE00004F0F6FC6FF07F4095490860854890F826
:104BF000D50070B98D4890F87C108E48405CC0EBB1
:104C0000C0009149421800239E21642011F0ECFC61
:104C10000DE0864890F87C108648405C00EBC000B0
:104C20008A49421800239E21642011F0DDFC0B2DDF
:104C300001D1012000E00020064626B14FF47F009C
:104C40007F49486003E04FF050107D4948601423CD
:104C50005C22B221642004F0BBFC6FF07F407849F5
:104C60000860724991F87C207249123151F8220093
:104C700000230722042104F0CBF80023714AB42159
:104C8000642011F0B1FC0C2D01D1012000E00020C6
:104C9000064626B14FF47F006949486003E04FF0B3
:104CA00050106749486014235C22C821642004F036
:104CB0008FFC6FF07F40624908605C4991F87C206E
:104CC0005C494E3151F8220000230722042104F0F0
:104CD0009FF800235B4ACA21642011F085FCA6E1FD
:104CE000524890F87C1053486A38405C0428F6D14A
:104CF000444890F8D50018BB0023AFF2243272214B
:104D0000184611F071FC0023AFF2283288211846B2
:104D100011F06AFC0023AFF22C329E21184611F0EC
:104D200063FC0023AFF23032B421184611F05CFC72
:104D30000023AFF23432CA21184611F055FC22E0AC
:104D4000304890F8D50001281DD100232EA27221F1
:104D5000184611F049FC00232DA28821184611F0B5
:104D600043FC00232CA29E21184611F03DFC002399
:104D70002BA2B421184611F037FC00232AA2CA2125
:104D8000184611F031FC122314227021C82004F0BF
:104D90001FFC12231422B221C82004F019FC122394
:104DA0001422C821084604F013FC002323A2882102
:104DB000C82011F019FC072D01D1012000E00020CE
:104DC000064626B14FF47F001D49486003E04FF0CE
:104DD00050101B494860154991F87C2015495A39F3
:104DE00051F8220000230722042104F011F81423B3
:104DF0005C227021642004F0EBFB0023114A722135
:104E0000642025E0940500204C4F41440000000040
:104E100054696D6500000000436F6D700000000074
:104E200048696768000000004C6F77008807002021
:104E3000F39E0508E2060020239F0508730000008A
:104E400074010020C80A0020BAAB05081CAC050894
:104E500011F0CAFB082D01D1012000E00020064618
:104E600026B14FF47F00FC49486003E04FF050103A
:104E7000F949486014235C227021642004F0A8FBE7
:104E80006FF07F40F4490860F44991F87C20F449C0
:104E900051F8220000230722042103F0B9FF002368
:104EA000F04A7221642011F09FFB092D01D10120ED
:104EB00000E00020064626B14FF47F00E649486036
:104EC00003E04FF05010E449486014235C2286212F
:104ED000642004F07DFB6FF07F40DF490860DF490C
:104EE00091F87C20DE493C3131F812000023052284
:104EF000012103F08DFF0023DA4A8821642011F09C
:104F000073FB0A2D01D1012000E00020064626B1E6
:104F10004FF47F00D049486003E04FF05010CE4975
:104F2000486014235C229C21642004F051FB6FF044
:104F30007F40C9490860CA48F43890F8D50078B96C
:104F4000C64890F87C10C6485A30405CC0EBC000A0
:104F5000C549421800239E21642011F045FB0EE054
:104F6000BE4890F87C10BE485A30405C00EBC00050
:104F7000BE49421800239E21642011F035FB0B2D01
:104F800001D1012000E00020064626B14FF47F0049
:104F9000B149486003E04FF05010AF494860142316
:104FA0005C22B221642004F013FB6FF07F40AA4919
:104FB0000860AA4991F87C20A9496C3151F8220077
:104FC00000230722042103F023FF0023A54AB42174
:104FD000642011F009FB0C2D01D1012000E000201C
:104FE000064626B14FF47F009B49486003E04FF02E
:104FF00050109949486014235C22C821642004F0B1
:10500000E7FA6FF07F4094490860944991F87C205A
:105010009349A83151F8220000230722042103F00C
:10502000F7FE00238F4ACA21642011F0DDFA0D2D0E
:1050300020D2DFE805F01F07141B15081016090A17
:10504000170B0C0000BF00BF00BF00BF00BF022055
:10505000FEF704FD12E00520FEF700FD0EE000BFA4
:1050600000BF00BF0720FEF7F9FC00BF0920FEF7D4
:10507000F5FC03E00420FEF7F1FC00BF00BF774819
:1050800090F86D01002870D1FEF79EFC78480078FA
:1050900000286BD1072D59D005DC4DB1022D0BD066
:1050A000042D7AD12DE00A2D79D00D2DF9D1AFE064
:1050B0000520FDF72BFE04E1FEF786FC6FF07F4034
:1050C000654908606B4848606548F43890F8D50039
:1050D00008B1694F00E0694F00240FE0C4EBC40140
:1050E000CA19C4EB041101EB4411202303EB410165
:1050F00088B20023F12111F077FA641C032CEDD360
:10510000DFE0FEF761FC6FF07F40534908605948CB
:1051100048605348F43890F8D50008B1584F00E083
:10512000584F00240FE0C4EBC401CA19C4EB0411AA
:1051300001EB4411202303EB410188B20023F1214C
:1051400011F052FA641C022CEDD3BAE0FEF73CFCDD
:105150006FF07F4040490860464848604048F43856
:1051600090F8D50018B1484F02E0D3E0AAE0474FCD
:1051700000240FE0C4EBC401CA19C4EB041101EB15
:105180004411202303EB410188B20023F12111F0E7
:105190002BFA641C052CEDD393E091E0FFE7FEF7BA
:1051A00013FC6FF07F402C490860324848602C485F
:1051B000F43890F8D500A8B1002410E004EBC40145
:1051C0002A4BCA18C4EB041101EB4411202303EB52
:1051D000410188B20023F12111F006FA641C042C6D
:1051E000ECD314E0002410E0C4EBC4011E4BCA1839
:1051F000C4EB041101EB4411202303EB410188B2FD
:105200000023F12111F0F0F9641C042CECD358E0D8
:10521000FEF7DAFB6FF07F400F49086015484860E1
:105220000F48F43890F8D500A8B1002410E0C4EB82
:10523000C401174BCA18C4EB041101EB441120231D
:1052400003EB410188B20023F12111F0CDF9641C78
:10525000022CECD333E01DE074010020880700200D
:1052600088060020C80A0020BAAB05081CAC050857
:10527000330000203800310019AB050804AB0508E5
:10528000D1A5050899A5050897AB05082EAB05081B
:1052900009A60508002410E0C4EBC401264BCA1877
:1052A000C4EB041101EB4411202303EB410188B24C
:1052B0000023F12111F098F9641C022CECD300E0DA
:1052C00000BF36E01D480078012832D1FEF77CFB94
:1052D0006FF07F401A4908601A4848601A4890F8F1
:1052E000D50008B1194F00E0194F00240FE0C4EBBE
:1052F000C401CA19C4EB041101EB4411202303EBD0
:10530000410188B20023F12111F06EF9641C052CD3
:10531000EDD30EE0FEF758FB6FF07F4008490860C0
:105320000848486000230BA2F1214FF4CC7011F023
:105330005BF9BDE8F08100008BA505083300002073
:10534000740100203800310094050020F9AB0508F5
:10535000D6AB0508C8B7C8CF0000000010B5054897
:1053600005494860962340F2DF124C21002004F0EA
:105370002FF910BD653434007401002010B50548C4
:1053800005494860742340F2DF126E21002004F0CA
:105390001FF910BD65343400740100202DE9F0417F
:1053A00092B005460E46174601201190F748007846
:1053B0000D9001200B9000200A9009900890079012
:1053C00002900190039001900C9009E020200EA91A
:1053D0009DF8302088549DF83000401CC0B20C90DD
:1053E0009DF830000828F1DB00208DF840000FB157
:1053F000082400E00624C0E1B8F1010F03D103F056
:1054000073FF0D9001E04FF001089DF83400002873
:105410007ED001200B909DF834000D2879D00ADC55
:105420000D2877D2DFE800F07692A1B0F076DDCEDD
:10543000BFF1EEEDEC00142812D008DCA0F10E0054
:105440000628EED2DFE800F0F0667F7E532F1928A1
:105450007AD01A2879D01F2873D042285AD14BE12C
:105460000020039011909DF81C00A04218DA9DF8CE
:105470002800A8B99DF81C0000280CDD2E200EA9DC
:105480009DF81C2088549DF81C0009909DF81C0074
:10549000401CC0B207909DF82800401CC0B20A9082
:1054A000012004904EE101200390002011909DF80E
:1054B0001C00A04218DA9DF82800A8B99DF81C002D
:1054C00000280CDD2E200EA99DF81C2088549DF884
:1054D0001C0009909DF81C00401CC0B207909DF86C
:1054E0002800401CC0B20A90012004902AE102204A
:1054F0000390002011909DF81C00A0421CDA9DF83A
:105500002800C8B99DF81C00002810DD2E2002E0FC
:1055100019E1B7E015E10EA99DF81C2088549DF80B
:105520001C0009909DF81C00401CC0B207909DF81B
:105530002800401CC0B20A900120049002E103E060
:1055400003E0DAE0FEE0FDE0FCE0FBE09DF81C009B
:10555000A04209DA31200EA99DF81C2088549DF83C
:105560001C00401CC0B20790ECE09DF81C00A0425B
:1055700009DA32200EA99DF81C2088549DF81C00E1
:10558000401CC0B20790DDE09DF81C00A04209DA83
:1055900033200EA99DF81C2088549DF81C00401C47
:1055A000C0B20790CEE09DF81C00A04209DA34207A
:1055B0000EA99DF81C2088549DF81C00401CC0B208
:1055C0000790BFE09DF81C00A04209DA35200EA923
:1055D0009DF81C2088549DF81C00401CC0B2079008
:1055E000B0E09DF81C00A04209DA36200EA99DF813
:1055F0001C2088549DF81C00401CC0B20790A1E0FC
:1056000062E021E011E000E078E09DF81C00A0429B
:1056100009DA37200EA99DF81C2088549DF81C003B
:10562000401CC0B207908DE01DE09DF81C00A04218
:1056300009DA38200EA99DF81C2088549DF81C001A
:10564000401CC0B207907DE09DF81C00A04209DA22
:1056500039200EA99DF81C2088549DF81C00401C80
:10566000C0B207906EE09DF81C00A04209DA30201D
:105670000EA99DF81C2088549DF81C00401CC0B247
:1056800007905FE09DF81C00A0421CDA9DF81C000A
:10569000002818DD9DF82800A8B99DF81C000028F6
:1056A0000CDD2E200EA99DF81C2088549DF81C00AE
:1056B00009909DF81C00401CC0B207909DF828007E
:1056C000401CC0B20A903DE09DF81C00002812DD8D
:1056D0009DF81C00401EC0B2079020200EA99DF826
:1056E0001C2088549DF824009DF81C10884202D18B
:1056F00000200A90099025E024E023E00020039098
:1057000011909DF81C00A04218DA9DF82800A8B955
:105710009DF81C0000280CDD2E200EA99DF81C20F1
:1057200088549DF81C0009909DF81C00401CC0B2D4
:1057300007909DF82800401CC0B20A9001200490F8
:1057400000E000BF00BF9DF82C00B0B100200B901E
:105750006FF07F400E4908604FF47F004860B388C7
:1057600010339AB271883088122303F031FF7188A8
:10577000308800230EAA10F037FF9DF8440000285F
:105780007FF43AAE9DF81C000C900DE083000020E1
:105790007401002030200EA99DF8302088549DF817
:1057A0003000401CC0B20C909DF830109DF82400D1
:1057B000401D8142EEDB00200C9039E09DF838005E
:1057C000302830DB9DF8380039282CDC0EA89DF8F5
:1057D0003010405C302826DB0EA89DF83010405C6D
:1057E000392820DC9DF824009DF8301088420DDD1A
:1057F000019800EB80004000019001990EA89DF8EF
:105800003020805C3038084401900CE0019800EBB7
:1058100080004000019001990EA89DF83020805C26
:105820003038084401909DF83000401CC0B20C9004
:105830009DF830109DF82400401D8142BEDB9DF88C
:10584000240002909DF8000028700198686002987A
:10585000A8600398E8600498286105986861069834
:10586000A86112B0BDE8F0812DE9F04107468846F5
:105870006FF07F40FE4908604FF050104860FD48CF
:1058800090F86B0150B9FC4890F8D600052803DC6D
:10589000F94890F8D6501DE005251BE0F54890F832
:1058A0006B0101280CD1F44890F8D6000A2805DCD9
:1058B000F14890F8D600401FC5B20BE0052509E07D
:1058C000EC4890F86B01022804D1EB4890F8D60020
:1058D0000A38C5B2CA2340F2DF125E21002003F06D
:1058E00077FE4FF050116FF07F4004F0CFFA6FF069
:1058F0007F40DF494860C5F1040000EB400101EB47
:10590000C000CA21A1EB40005D3883B201225E21B4
:10591000002003F05DFEC5F1040000EB400101EB47
:10592000C000CA21A1EB40005D3883B201225E2194
:10593000282003F04DFEC5F1040000EB400101EB0F
:10594000C000CA21A1EB40005D3883B201225E2174
:10595000782003F03DFE012415E0C5F1040101EBC0
:10596000410202EBC101CA22A2EB41015D398BB2B7
:10597000642204FB02F101F1780001225E2103F0B0
:1059800027FE601CC4B2042CE7DB00240CE01622C6
:1059900004FB02F000F15E01012340F2DF1200205F
:1059A00003F016FE601CC4B2A81C8442EFDB4FF06B
:1059B0005010AF494860B04890F8D500012826D172
:1059C0000023AEA26121032010F00EFE0023ACA242
:1059D00061213F2010F008FE0023ABA26121992035
:1059E00010F002FE0023A9A26121FD2010F0FCFDB1
:1059F0000023A7A2612140F2611010F0F5FD002301
:105A0000A4A2612140F2B11010F0EEFD29E09A4805
:105A100090F8D50028BB00239FA26121032010F03D
:105A2000E3FD00239EA261213F2010F0DDFD002355
:105A30009DA26121992010F0D7FD00239CA2612135
:105A4000FD2010F0D1FD00239BA2612140F26110E6
:105A500010F0CAFD00239AA2612140F2B11010F0AB
:105A6000C3FDFDF7B1FF6FF07F40814908609648A4
:105A70004860814890F8D50008B1944E00E0944EFB
:105A800000240FE0C4EBC4018A19C4EB041101EB3C
:105A90004411202303EB41000023F12110F0A4FD69
:105AA000601CC4B2052CEDDB002476E14FF05010F1
:105AB0006F4948606F4991F86B1101EB81012144F6
:105AC000481C00230222194603F0A2F9162204FB07
:105AD00002F000F1770100237E4A032010F084FDDC
