:020000040800F2
:10000000C0690020C1010008899F0008F57400083C
:10001000259F0008A912000895FE000800000000B6
:1000200000000000000000000000000071BD00089A
:10003000B91400080000000005A6000811D6000849
:10004000DB010008DB010008DB01000801B000084B
:10005000DB010008DB010008DB010008DB01000810
:10006000DB01000821680008DB010008DB01000853
:10007000DB010008DB010008DB010008DB010008F0
:10008000DB010008DB010008DB010008DB010008E0
:10009000DB010008DB010008DB010008DB010008D0
:1000A000DB010008DB010008DB010008DB010008C0
:1000B00077D80008DB010008DB010008DB0100083D
:1000C000DB010008DB010008DB010008DB010008A0
:1000D000DB010008F5EA0008DB010008DB0100088D
:1000E00009680008DB010008DB010008DB010008EB
:1000F000DB010008DB010008DB010008DB01000870
:10010000DB010008DB010008DB010008DB0100085F
:10011000DB010008DB0100088DD80008DB010008C6
:10012000DB010008DB010008DB010008DB0100083F
:10013000DB010008DB010008DB010008DB0100082F
:10014000DB010008DB010008DB010008DB0100081F
:10015000DB010008DB010008DB010008DB0100080F
:10016000DB010008DB010008DB010008DB010008FF
:10017000DB01000841A00008DB010008DB010008EA
:10018000DB010008DB010008DB010008DB010008DF
:10019000DB010008DB010008DB010008DB010008CF
:1001A000DB010008DB010008DB010008DFF80CD0F0
:1001B00000F0F6FA00480047751C0108C0690020ED
:1001C0000648804706480047FEE7FEE7FEE7FEE7F1
:1001D000FEE7FEE7FEE7FEE7FEE7FEE7EDD60008F6
:1001E000AD01000840EA01039B0703D009E008C9FC
:1001F000121F08C0042AFAD203E011F8013B00F8EC
:10020000013B521EF9D27047D2B201E000F8012B37
:10021000491EFBD270470022F6E710B513460A4686
:1002200004461946FFF7F0FF204610BD10B5002226
:1002300000E0521C835C8C5CA34201D1002BF8D1FE
:10024000D8B2E1B2401A10BD2DE9FE4F804681EAD6
:100250000300C00F0C46009021F0004123F0004540
:10026000B8EB0200A94105D24046214690461C4603
:100270000B46024623F00040104347D0270DC7F33A
:100280000A00C3F30A510290401A019040286BDA29
:10029000C3F3130040F4801B0098924620B1002362
:1002A000D2EB030A63EB0B0B01985946C0F14002F5
:1002B000504600F0CFF906460D4650465946019A81
:1002C00000F0E7F910EB08006141002487EA1152C1
:1002D00084EAE7731A4340D0009A62B3019A012A74
:1002E0004FEA075215DC001B61EB02014FF00042A0
:1002F00002EA0752CDE90042001C41F58011324666
:100300002B4600F0E7F903B0BDE8F08F40462146E8
:10031000F9E7001B61EB0201001C41F58013001896
:100320005B412018A2F5001747EB030140EAD570A6
:10033000B6196D4111E06D084FEA360645EAC07501
:100340004FEA0752001B61EB0201001C41F58011CE
:1003500049084FEA30000019514132462B4603B09C
:10036000BDE8F04F00F0A7B900980122400000233B
:10037000D0EB020263EBE073009821464FEAE07491
:10038000B8EB000061EB0401E9E783F000435BE7B1
:1003900081F0004158E72DE9FE4F81EA030404F0A3
:1003A000004421F0004100944FF0000B23F0004383
:1003B00050EA01045ED052EA03045BD0C3F30A544E
:1003C000C1F30A552C44A4F2F3340194A0FB025467
:1003D000C1F3130141F48011C3F3130343F48013F9
:1003E00001FB024400FB034E840A970A44EA81544D
:1003F00047EA8357A4FB076802958D0A05FB07852A
:100400004FEA932C04FB0C542705029D4FEA065833
:1004100047EA1637B5EB08056EEB070C870E920E10
:1004200047EA811742EA8312A7FB0201B6EB0B01F0
:1004300064EB00042B0D43EA0C335E1844EB1C50B4
:10044000DA465146E7FB0201C5F313044FEA0B33CA
:1004500043EA14534FEA0432019C43EA0603A4F131
:100460000C040294009CCDE900B400F033F903B011
:10047000BDE8F08F00200146F9E72DE9F04D81EA53
:10048000030404F0004B21F0004514464FF0000A2D
:1004900023F0004150EA050220D054EA01021DD0A9
:1004A000C5F30A570246C5F31303C1F31300C1F3A2
:1004B0000A5640F4801543F48013A7EB0608101B7E
:1004C000D64608F2FD3873EB050002D308F10108A7
:1004D00001E092185B41B8F1000F03DA00200146F9
:1004E000BDE8F08D00204FF48011064684460EE0F2
:1004F000171B73EB050705D3121B63EB05030643BC
:100500004CEA010C49084FEA300092185B4150EA6E
:100510000107EDD152EA030012D082EA040083EA17
:100520000501084305D0101BAB4106D20122002370
:1005300006E000224FF0004302E06FF0010253108A
:100540001AEB06004CEB085110EB0A0041EB0B01D3
:10055000BDE8F04D00F0AFB80EB5C10F80EAE07015
:100560000844CA07002140F233438DE80E000A46D2
:100570000B4600F0AFF803B000BD0EB540F23341BA
:1005800002910021CDE900110A460B4600F0A2F8C5
:1005900003B000BDC1F30A5210B5C1F3130140F21C
:1005A000FF3341F480119A4201DA002010BD40F27D
:1005B00033439A42A2F2334203DC524200F059F82C
:1005C00010BD904010BD000030B5041E71F1000454
:1005D00004DB4FF00044404264EB0101141E73F150
:1005E000000405DB1C464FF00043524263EB04035A
:1005F0008B4208BF824230BD30B5041E71F1000449
:1006000004DB4FF00044404264EB0101141E73F11F
:10061000000405DB1C464FF00043524263EB040329
:10062000994208BF904230BD30B50B4601460020CC
:100630002022012409E021FA02F59D4205D303FAA4
:1006400002F5491B04FA02F52844151EA2F1010225
:10065000F1DC30BD202A04DB203A00FA02F1002050
:1006600070479140C2F1200320FA03F319439040F0
:100670007047202A04DB203A21FA02F0002170475B
:1006800021FA02F3D040C2F12002914008431946FA
:100690007047202A06DBCB17203A41FA02F043EAE2
:1006A000E07306E041FA02F3D040C2F1200291402B
:1006B00008431946704710B5141E73F1000408DA98
:1006C000401C41F1000192185B411A4301D120F016
:1006D000010010BD2DE9F04D92469B4611B1B1FAD3
:1006E00081F202E0B0FA80F220329046FFF7B2FFCA
:1006F00004460F4640EA0A0041EA0B0153465A46B7
:10070000084313D0114653EA010019D0C8F1400242
:100710005046FFF7AEFF05460E4650465946424644
:10072000FFF798FF084305D0012004E02046394632
:10073000BDE8F08D0020054346EAE0762C433743C0
:100740000A986305E40AA0EB08000022FD0A44EAC7
:1007500047540A3002D500200146E9E70105101987
:100760006941DDE9084500196941BDE8F04DA2E79E
:1007700070B521F0004303430CD0C1F30A550024A7
:10078000D5EB040564EB0403D617AD1AB34102DBC5
:100790000020014670BD201841EB025170BD0000E1
:1007A000064C074D06E0E06840F0010394E80700BE
:1007B00098471034AC42F6D3FFF7FCFC080D020852
:1007C000280D02082DE9F04D00231A461B1A8A4114
:1007D00003DB00200146BDE8F08DC1F30A52C1F3EE
:1007E000130141F480154FF0000BD10702D100181E
:1007F0006D41521E0027044640F2FF11384601EBBE
:10080000620A3E468046024600204FF48011FFF700
:1008100030FFC2197141BB1846EB0100B4EB030C69
:1008200075EB000C04D3E41A65EB000517460E4681
:10083000241908F101006D4180463428E3DDF919DF
:1008400046EB0600091BA84103D24FF0FF321346C6
:1008500001E0002213461BEB070046EB0A51BDE8FE
:10086000F04DFFF728BF70B58C1810F8015B15F03C
:10087000070301D110F8013B2A1106D110F8012B12
:1008800003E010F8016B01F8016B5B1EF9D12B0737
:1008900005D40023521E0DD401F8013BFAE710F8ED
:1008A000013BCB1A921C03E013F8015B01F8015BDA
:1008B000521EF9D5A142D8D3002070BD70B50546AF
:1008C0000C4608480560204600F00EF800BF0548B9
:1008D00000680028FBD100214FF080400DF0CBFADA
:1008E00070BD0000940100203EB5044600214FF089
:1008F00080400DF0C0FA0022012188070DF002FCB3
:10090000022C02D10B20019004E0012C02D142F60E
:10091000DF6001900520ADF800000020ADF8080070
:10092000ADF8020069464FF080400DF041FC012116
:1009300088070DF09DFA012188070DF08AFA01223F
:10094000114690070DF0DEFB012188070DF093FAA8
:100950003EBD000010B5C8211448FFF75CFC012023
:100960001249087006204870002088700D20C87059
:1009700000200871487188710D4890F85800C871BE
:1009800008210A4806F0B8FD00120849087208213B
:10099000064806F0B1FD054948720A2103480FF0E8
:1009A0007BFA01200349087010BD0000C822002016
:1009B000441300203C01002070B504460D46594800
:1009C000594948602CBB59480068642806D2002366
:1009D00007220421184606F0CDFD06E05349002306
:1009E00007220868042106F0C5FD504900230722AC
:1009F0000868042106F0BEFD00234D4A82215020E4
:100A00000FF020FE00234BA28221A0200FF01AFE3F
:100A10001FE0012C1DD145480068642806D2002340
:100A200006220321184606F0A5FD06E03F490023F3
:100A300006220868032106F09DFD00233C4A82211E
:100A400050200FF0FFFD00233AA28221A0200FF0DA
:100A5000F9FD9DB93549002307224868042106F0B5
:100A600089FD0023324AA02150200FF0EBFD002326
:100A700031A2A02108460FF0E5FD14E0012D12D1AE
:100A80002A49002306224868032106F073FD00234B
:100A9000274AA02150200FF0D5FD002326A2A02137
:100AA00008460FF0CFFD214900230622C868032124
:100AB00006F060FD00231E4ABE2150200FF0C2FD4B
:100AC00000231EA2BE21A0200FF0BCFD1749002369
:100AD00007228868042106F04DFD0023144A822174
:100AE0004FF48C700FF0AEFD002315A282214FF45D
:100AF000B4700FF0A7FD0D4900230622C86C1946FB
:100B000006F038FD00230A4AA0214FF48C700FF044
:100B100099FD00230BA2A0214FF4B4700FF092FDB9
:100B200070BD000065343400F4000020EC17002094
:100B3000DC210020560000004100000057000000AA
:100B4000A6B800006D41480070B586B00020049042
:100B5000002400250126FE490870FE4908704FF068
:100B6000501007F07FF8002001F0F0FC0020039007
:100B70000BF036FA6FE3BDF81000401C80B2049011
:100B8000204605F0DDFEC5B2F3480078012801D10A
:100B900001262C466FF07F40F0490860F04800784D
:100BA00038B10020EE49087005F01AFA0020ED492E
:100BB0000870ED480078012804D10020EA49087047
:100BC0000AF0F6FA012E03D1204601F073FA00264E
:100BD000DF480078012804D10AF0B8FA0020DC4987
:100BE0000870E24A92F8201092F82100FFF7E4FE24
:100BF000DF48007870B1DF480078052805D10BF098
:100C0000EFF90020DB49087004E0DA480078401C66
:100C1000D8490870D84840780128ABD1D748007827
:100C20000028A7D1D44880780028A3D1012606F057
:100C3000AFFE05909DF81400D14908709DF814008E
:100C4000002897D09DF8140020286ED2DFE800F02D
:100C50006DBCBDBEFEFDC1C0BFC2C3C4FCC6C5FBEA
:100C600062574C31106D6DFA6D759C6DF96D6DF8B4
:100C700014B1012C1AD106E0C248007810B9062040
:100C8000C149087013E0BF48007870B90020B74927
:100C900081F858000BF0A4F94FF0501006F0E2FF75
:100CA000012001F053FC0CF095FC00E000BF00BFF8
:100CB000D0E214B1012C14D100E013E0B148007867
:100CC00070B90220A94981F858000BF089F94FF05A
:100CD000501006F0C7FF012001F038FC0CF07AFC40
:100CE00000E000BF00BFB5E234B9A648007810B9F3
:100CF0001620A549087000E000BF00BFAAE234B981
:100D0000A048007810B917209F49087000E000BF84
:100D100000BF9FE214B1012C0CD107E09948007884
:100D200010B90D209849087005E092E204208F491F
:100D3000487000E000BF00BF8CE28C4890F858007B
:100D400058B9052C02DD201FC4B21CE0032C1ADAAE
:100D5000002C18DD601EC4B215E0844890F85800DD
:100D6000022810D1062C01D102240CE0052C01D15F
:100D7000022408E0022C02D1601EC4B203E0012C60
:100D800001D1601EC4B265E2784890F8580058B9A5
:100D9000052C04DA012C02DD201DC4B213E0022C64
:100DA00011DA601CC4B20EE0704890F858000228B6
:100DB00009D1022C01D1062405E0012C01D1022425
:100DC00001E004B9012445E200BF00BF00BF00BF3D
:100DD00000BF00BF00BF00BF00BF00BFA01E0728AC
:100DE00072D2DFE800F0043D57F972A2DE006548D8
:100DF000007860BB5D4890F8580070B97620ADF877
:100E000004003020ADF806004C20ADF8080001A821
:100E100004F0B5F85549C8651BE0544890F85800EF
:100E2000022816D17620ADF804003020ADF8060077
:100E30005020ADF8080001A804F0E9F84B4907E09C
:100E4000EFE0FDE0CBE0CBE0F3E0EBE029E104E014
:100E5000886709F031F90BF0C3F80CF0BBFBBCE07C
:100E600048480078A8B9414890F8580068B97620F9
:100E7000ADF804004620ADF806004C20ADF808009F
:100E800001A804F07CF83949086609F015F90CF05E
:100E9000A1FBA2E03B480078A8B9344890F858007C
:100EA00068B97620ADF804005C20ADF806004C204F
:100EB000ADF8080001A804F062F82C49486609F072
:100EC000FBF80CF087FB88E086E02E48007858BBE2
:100ED000264890F8580078B94FF4B870ADF804007F
:100EE0003020ADF806004C20ADF8080001A804F051
:100EF00054F91E49C86613E01C4890F858000228AF
:100F00000ED14FF4B870ADF804003020ADF80600F3
:100F10004C20ADF8080001A804F03FF91349C86758
:100F200009F0CAF80CF056FB57E01648007868BB89
:100F30000E4890F8580050BB4FF4B870ADF804005C
:100F40004620ADF806004C20ADF8080001A81FE0CF
:100F50005500002057000020EE000020F400002083
:100F60007E000020A20000203D000020441300204D
:100F70003C010020BA000020E4000020CC0000204A
:100F8000BB000020B60000205900002008E003E06C
:100F900004F003F9B349086709F08EF80CF01AFB66
:100FA0001BE0B1480078B0B9AE4890F8580070B96D
:100FB0004FF4B870ADF804005C20ADF806004C208A
:100FC000ADF8080001A804F0E8F8A649486709F060
:100FD00073F80CF0FFFA00E000BF00BF3AE139E11E
:100FE000A148007890B90320A04908700CF008FBD4
:100FF00001209F4908709FED9F0A9F4880ED120ACB
:101000000120994908700AF0EBFF09E00320974995
:1010100008700020944908700AF0E2FF0CF0E8FA2A
:1010200018E117E19048007810B912209349087030
:1010300010E18D48007810B906209049087009E148
:10104000012C2DD1874890F8580090B98648007837
:1010500030BB0220834981F858000AF0C1FF4FF0ED
:10106000501006F0FFFD012001F070FA0CF0B2FA0A
:1010700016E07C4890F85800022811D17A48007890
:1010800070B90020774981F858000AF0A9FF4FF0A5
:10109000501006F0E7FD012001F058FA0CF09AFA22
:1010A000D8E0A01E07287CD2DFE800F004344ED040
:1010B000689AB5006C48007848BB6A4890F85800B8
:1010C00070B97620ADF804003020ADF806004C2051
:1010D000ADF8080001A803F052FF6249C86512E0AC
:1010E000604890F8580002280DD17620ADF8040031
:1010F0003020ADF806005020ADF8080001A803F03C
:1011000086FF5849886708F0D7FF0AF069FF0CF09E
:1011100061FA9CE054480078A8B9524890F8580009
:1011200068B97620ADF804004620ADF806004C20E2
:10113000ADF8080001A803F022FF4A49086608F04C
:10114000BBFF0CF047FA82E047480078A8B9454851
:1011500090F8580068B97620ADF804005C20ADF82E
:1011600006004C20ADF8080001A803F008FF3D4937
:10117000486608F0A1FF0CF02DFA68E03A480078C4
:1011800068BB384890F8580088B94FF4B870ADF88B
:1011900004003020ADF806004C20ADF8080001A88E
:1011A00000E053E003F0F9FF2E49C86613E02D4834
:1011B00090F8580002280ED14FF4B870ADF8040032
:1011C0003020ADF806004C20ADF8080001A803F06F
:1011D000E4FF2449C86708F06FFF0CF0FBF936E024
:1011E00021480078B0B91F4890F8580070B94FF402
:1011F000B870ADF804004620ADF806004C20ADF8FC
:10120000080001A803F0C9FF1649086708F054FF59
:101210000CF0E0F91BE014480078B0B9114890F8E0
:10122000580070B94FF4B870ADF804005C20ADF808
:1012300006004C20ADF8080001A803F0AEFF0949F4
:10124000486708F039FF0CF0C5F900E000BF00BFA7
:1012500000E000BF00BF0948007815283FF48BACC0
:1012600006B070BD44130020B6000020B900002075
:101270003400002000000000EC170020590000207E
:1012800010B54FF48061024806F00CF910BD000063
:101290000008024010B54FF48061024806F004F9DE
:1012A00010BD00000008024000BFFEE710B5044674
:1012B000C8213548FEF7AFFF0120334908700846C2
:1012C0008470A5204870012C09D0022C07D0062C70
:1012D00005D0072C03D0082C01D0092C1BD1601E8F
:1012E0002A4951F82000000E2749C870601E27497E
:1012F00051F82000000C24490871601E234931F880
:101300002000000A20494871601E204911F8200081
:101310001D49887126E0601E1C4951F820000A21F1
:10132000B0FBF1F0000E1849C870601E174951F863
:1013300020000A21B0FBF1F0000C13490871601E77
:10134000124951F820000A21B0FBF1F0000A0E49C1
:101350004871601E0D4951F820000A21B0FBF1F0E0
:10136000094988710721084806F0C6F800120649A5
:10137000C8710721044806F0BFF803490872092123
:1013800001480EF089FD10BDC8220020FC17002086
:1013900010B50121C80509F015FA00214FF400002D
:1013A00009F010FA10BD000001460020034A5268FF
:1013B0000A400AB1012000E00020704700B002405E
:1013C00070B50021002200230024344D2D68344ED6
:1013D0003540324E356035462D68066835432F4E10
:1013E000356035466D6B25F00705756335466D6BC9
:1013F00046683543294E7563456835B9C568290285
:10140000058A2A04057D2B0621E04568012D05D1BA
:10141000C5682902058A2A04002318E04568022DC0
:1014200005D1C56869010569EA0200230FE0456836
:10143000032D06D1C56869010569AA024569EB0358
:1014400005E0C568290105692A0245692B0341EABF
:101450000205866835431D43104EB66B35430F4E6B
:10146000B5638569F56335462D6C6FF30D053564FD
:1014700035462D6CC6693543084E3564858C2C0481
:1014800035466D6C05F04045756435466D6C066AF1
:1014900026433543014E756470BD000000B0024024
:1014A000FCE0FCFF0348006840F0010001490860CF
:1014B0007047000000B002407047000010B586B0D1
:1014C00004460121084609F06DF90121102009F0B8
:1014D000B9F907220A21214805F0B8FF072209219E
:1014E0001E4805F0B3FF00208DF8160001208DF88E
:1014F000170002208DF814000002049002208DF8DD
:10150000150004A9154805F059FF02208DF81400B4
:101510004002049004A9114805F050FF00940020F7
:10152000ADF80400ADF80600ADF80800ADF80C0009
:101530000C20ADF80A00694609480DF0C7FB08F019
:1015400024FD012240F2255105480DF099FB0121AF
:1015500003480DF052FB06B010BD00000000024031
:10156000001001407CB504466FF07F40F7490860E9
:10157000012C01D1012000E000200090009820B152
:101580004FF47F00F149486003E04FF05010EF49FD
:101590004860EF4900230722D1F8B800042105F084
:1015A000E9FF122368221A21582006F08FFB00233E
:1015B000E84A1A2158200FF045F80023E64A1A217C
:1015C000AA200FF03FF8022C01D1012000E00020FA
:1015D0000090009820B14FF47F00DC49486003E0A0
:1015E0004FF05010D9494860D94900230722D1F85B
:1015F000BC00042105F0BEFF122368222E215820D2
:1016000006F064FB0023D34A302158200FF01AF86B
:101610000023D14A3021AA200FF014F8032C01D165
:10162000012000E000200090009820B14FF47F00DE
:10163000C649486003E04FF05010C4494860C449AF
:1016400000230722D1F8C000042105F093FF1223E4
:1016500068224621582006F039FB0023BD4A462166
:1016600058200EF0EFFF0023BB4A08324621AA2083
:101670000EF0E8FF042C01D1012000E000200090D2
:10168000009820B14FF47F00B049486003E04FF06C
:101690005010AE494860AE4900230722D1F8C4007B
:1016A000042105F067FF12237A225A21582006F000
:1016B0000DFB0023A74A5C2158200EF0C3FF002336
:1016C000A54A08325C21AA200EF0BCFF052C01D1EE
:1016D000012000E000200090009820B14FF47F002E
:1016E0009A49486003E04FF0501098494860984983
:1016F00000230822D1F8C800042105F03BFF122383
:101700007A227021582006F0E1FA0023914A7221D2
:1017100058200EF097FF00238F4A10327221B42018
:101720000EF090FF062C01D1012000E00020009077
:10173000009820B14FF47F008449486003E04FF0E7
:10174000501082494860824900230822D1F8CC0019
:10175000042105F00FFF12237A228621582006F07B
:10176000B5FA00237B4A882158200EF06BFF002336
:10177000794A10328821B4200EF064FF072C01D181
:10178000012000E000200090009820B14FF47F007D
:101790006E49486003E04FF050106C4948606C4857
:1017A00090F8D50008B16D4D00E06D4D12237A22FE
:1017B00018214FF4A97006F089FA654890F8D00016
:1017C000C0EBC000421900231A214FF4A9700EF09B
:1017D00039FF082C01D1012000E000200090009882
:1017E00020B14FF47F005949486003E04FF050109A
:1017F00056494860564890F8D50008B1594D00E068
:10180000594D12237A222E214FF4A97006F05EFA68
:101810004F4890F8D100C0EBC0004219002330219E
:101820004FF4A9700EF00EFF092C01D1012000E049
:1018300000200090009820B14FF47F004349486099
:1018400003E04FF0501041494860414890F8D500FE
:1018500008B1424D00E0424D12237A2244214FF458
:10186000A97006F033FA3A4890F8D200C0EBC000F5
:101870004219002346214FF4A9700EF0E3FE0A2C12
:1018800001D1012000E000200090009820B14FF429
:101890007F002E49486003E04FF050102B4948600C
:1018A0002B4890F8D50008B12C4D00E02C4D1223A8
:1018B0007A225A214FF4A97006F008FA244890F8C9
:1018C000D300C0EBC000421900235C214FF4A97083
:1018D0000EF0B8FE0B2C01D1012000E0002000909A
:1018E000009820B14FF47F001849486003E04FF0A2
:1018F000501016494860164890F8D50008B1174DA9
:1019000000E0174D12237A2270214FF4A97006F0DF
:10191000DDF90F4890F8D400C0EBC0004219002355
:1019200072214FF4A9700EF08DFE072C22D2DFE851
:1019300004F01D0405060708090000BF00BF00BF32
:1019400000BF00BF022001F0A5FB17E0F40000205B
:1019500044130020DC210020142C0108B42A0108C3
:10196000752A0108912A0108832A0108042001F040
:1019700091FB03E0072001F08DFB00BF00BF01F0E9
:101980003FFB0C2C64D2DFE804F0060A0B0C0D0EB2
:101990000F3810393A3B032000F06AFE59E000BFCF
:1019A00000BF00BF00BF00BF53E06FF07F402A4977
:1019B00008602A4848602A4890F8D50008B1294DA7
:1019C00000E0294D0020019013E00199C1EBC10115
:1019D0004A190199C1EB011303EB4111202303EBD9
:1019E000410188B20023F1210EF02CFE0198401C29
:1019F000019001980228E8D32BE000BF00BF00BF90
:101A00006FF07F401449086014484860144890F80B
:101A1000D50008B1154D00E0154D0020019013E0F0
:101A20000199C1EBC1014A190199C1EB011303EB03
:101A30004111202303EB410188B20023F1210EF074
:101A400001FE0198401C019001980228E8D300E0B3
:101A500000BF00BF7CBD0000F40000203800310052
:101A600044130020912A0108832A0108B42A01089E
:101A7000752A01087CB504466FF07F40FC49086078
:101A8000012C01D1012000E000200090009820B13D
:101A90004FF47F00F649486003E04FF05010F449DE
:101AA0004860F44890F8780208B1F34D00E0F34D37
:101AB000122368221A21582006F008F9F04800780D
:101AC000C0EBC000421900231A2158200EF0BAFDC5
:101AD000022C01D1012000E000200090009820B1EC
:101AE0004FF47F00E249486003E04FF05010E049B6
:101AF0004860E04890F8780208B1E24D00E0E24D1D
:101B0000122368222E21582006F0E0F8DC4890F8D5
:101B10002000C0EBC00042190023302158200EF0F5
:101B200091FD032C01D1012000E0002000900098DD
:101B300020B14FF47F00CE49486003E04FF05010D1
:101B4000CB494860CB4890F8780208B1CD4D00E011
:101B5000CD4D122368224621582006F0B7F8C84818
:101B600090F82100C0EBC000421900234621582004
:101B70000EF068FD042C01D1012000E0002000904F
:101B8000009820B14FF47F00B949486003E04FF05E
:101B90005010B7494860BA49486A00230722042117
:101BA00005F0E8FC12237A225A21582006F08EF81C
:101BB0000023B64A5C2158200EF044FD0023B44AAD
:101BC0005C21AA200EF03EFD052C01D1012000E091
:101BD00000200090009820B14FF47F00A449486095
:101BE00003E04FF05010A2494860A549886A0023DD
:101BF0000722042105F0BEFC12237A22702158200E
:101C000006F064F80023A14A722158200EF01AFD54
:101C100000239F4A7221AA200EF014FD062C01D148
:101C2000012000E000200090009820B14FF47F00D8
:101C30008F49486003E04FF050108D49486090494B
:101C4000886C00230722042105F094FC12237A22D9
:101C50008621582006F03AF800238C4A8821582023
:101C60000EF0F0FC00238BA28821AA200EF0EAFCE3
:101C7000072C01D1012000E000200090009820B145
:101C80004FF47F007A49486003E04FF050107849E4
:101C900048607B48006BE0B17949086B002306225D
:101CA000194605F067FC12237A2218214FF4A97017
:101CB00006F00CF80023754A1A214FF4A9700EF0B3
:101CC000C1FC0023754A1A214FF4C7700EF0BAFC0C
:101CD0000DE012237A2218214FF4A97005F0F6FFC7
:101CE00000236FA21A214FF4A9700EF0ABFC082C50
:101CF00001D1012000E000200090009820B14FF4B5
:101D00007F005B49486003E04FF05010584948603D
:101D1000584890F8780208B1634D00E0634D584987
:101D2000486B00230722042105F024FC12237A22A9
:101D30002E214FF4A97005F0C9FF0023534A30212A
:101D40004FF4A9700EF07EFC0023514A0832302176
:101D50004FF4D2700EF076FC092C01D1012000E086
:101D600000200090009820B14FF47F004049486067
:101D700003E04FF050103E4948604149886B002312
:101D80000722042105F0F6FB12237A2244214FF4A6
:101D9000A97005F09BFF00233C4A46214FF4A9702F
:101DA0000EF050FC00233A4A46214FF4D2700EF058
:101DB00049FC0A2C01D1012000E00020009000988D
:101DC00020B14FF47F002A49486003E04FF05010E3
:101DD000274948602A49C86B00230822042105F0DE
:101DE000C9FB12237A225A214FF4A97005F06EFF25
:101DF0000023264A5C214FF4A9700EF023FC002337
:101E0000234A10325C214FF4D7700EF01BFC0B2CD0
:101E100001D1012000E000200090009820B14FF493
:101E20007F001349486003E04FF0501010494860AC
:101E30001349086C00230522042105F09BFB1223A3
:101E40007A2270214FF4A97005F040FF00230F4A59
:101E500072214FF4A9700EF0F5FB002314A2722139
:101E60004FF4D2700EF0EEFB0C2C25D1012024E0B3
:101E7000F40000202C150020B42A0108752A01085E
:101E800044130020D02A0108C22A0108DC210020C6
:101E9000142C010820562F6D7300000077240108D0
:101EA000B9D8B1D5000000001A2B0108DE2A0108BC
:101EB00020412F6D7300000000200090009820B199
:101EC0004FF47F006E49486003E04FF050106C49BA
:101ED00048606C49486C00230522042105F04AFB48
:101EE00012237A2286214FF4A97005F0EFFE002319
:101EF000654A88214FF4A9700EF0A4FB0023AFF2CD
:101F0000500288214FF4D2700EF09CFB0D2C1AD297
:101F1000DFE804F019121314070809150A0B0C0D59
:101F20000E0000BF00BF00BF00BF00BF00BF00BF6A
:101F3000022001F0AFF80AE000BF00BF00BF072099
:101F400001F0A8F803E0042001F0A4F800BF00BFEE
:101F500001F056F80D2C7CD2DFE804F0070B335B60
:101F600085868788898A8B8C8D00022000F080FB13
:101F700083E06FF07F40424908604448486044482D
:101F800090F8780208B1434D00E0434D00200190E5
:101F900013E00199C1EBC1014A190199C1EB011389
:101FA00003EB4111202303EB410188B20023F1210F
:101FB0000EF048FB0198401C019001980228E8D3DC
:101FC0005BE06FF07F402E49086030484860304841
:101FD00090F8780208B1314D00E0314D00200190B9
:101FE00013E00199C1EBC1014A190199C1EB011339
:101FF00003EB4111202303EB410188B20023F121BF
:102000000EF020FB0198401C019001980228E8D3B3
:1020100033E06FF07F401A4908601C4848601C4854
:1020200090F8780208B11D4D00E01D4D0020019090
:1020300015E00199C1EBC1014A190199C1EB0113E6
:1020400003EB4111202303EB410188B20023F1216E
:1020500000E011E00EF0F6FA0198401C01900198A2
:102060000228E6D309E000BF00BF00BF00BF00BFE9
:1020700000BF00BF00BF00E000BF00BF7CBD00008C
:10208000F400002044130020DC210020380031003F
:102090002C150020B42A0108752A0108D02A01084D
:1020A000C22A010810B503F081FE00F0A9FF02F07A
:1020B0003BFA10BD7CB50446F74890F8580000285C
:1020C0007ED1012C01D1012000E000200090009879
:1020D00020B14FF47F00F149486003E04FF0501009
:1020E000EE49486014235C221821762005F0EEFDAD
:1020F0006FF07F40E9490860E74890F85800C0EB6E
:10210000C000E749421800231A2176200EF09AFAFF
:10211000022C01D1012000E000200090009820B1A5
:102120004FF47F00DD49486003E04FF05010DB4979
:10213000486014235C222E21762005F0C7FD6FF045
:102140007F40D6490860D449C86D00230722042186
:1021500005F010FA0023D34A302176200EF072FAEF
:102160000023D14A3021C8200EF06CFA032C01D193
:10217000012000E000200090009820B14FF47F0083
:10218000C649486003E04FF05010C449486014232A
:102190005C224421762005F099FD6FF07F40BF4915
:1021A0000860BD49086E00230722042105F0E2F90A
:1021B0000023BC4A462176200EF044FA002300E0BA
:1021C000D3E0B94A4621C8200EF03CFA042C01D1D4
:1021D000012000E000200090009820B14FF47F0023
:1021E000AE49486003E04FF05010AC4948601423FA
:1021F0005C225A21762005F069FD6FF07F40A749E7
:102200000860A549486E00230722042105F0B2F9B1
:102210000023A44A5C2176200EF014FA0023A24A7F
:102220005C21C8200EF00EFA062C01D1012000E03E
:1022300000200090009820B14FF47F00974948603B
:1022400003E04FF050109549486014235C222E2182
:10225000C80005F03BFD6FF07F40904908608E4953
:10226000C86E00230722042105F084F900238D4A5B
:1022700030214FF4B8700EF0E5F900238A4A921D20
:1022800030214FF4E1700EF0DDF9072C01D101206F
:1022900000E000200090009820B14FF47F007F49BB
:1022A000486003E04FF050107C49486014235C22E2
:1022B0004421900005F00AFD6FF07F4077490860E7
:1022C0007549086F00230722042105F053F9002304
:1022D000744A46214FF4B8700EF0B4F90023724AE4
:1022E000921D46214FF4E1700EF0ACF9082C01D19B
:1022F000012000E000200090009820B14FF47F0002
:102300006649486003E04FF0501064494860142368
:102310005C225A21900005F0D9FC6FF07F405F49A4
:1023200008605D49486F00230722042105F022F967
:1023300000235C4A5C2188000EF084F900235A4A8D
:10234000921D5C214FF4E1700EF07CF9012C03D159
:10235000062000F09FFEACE01CB9032000F09AFEBE
:10236000A7E0082000F096FEA3E04B4890F8580044
:102370000228F0D1012C01D1012000E000200090C2
:10238000009820B14FF47F004449486003E04FF0CB
:1023900050104249486014235C221821762005F031
:1023A00095FC6FF07F403D4908603B4890F858002D
:1023B000C0EBC0003A49421800231A2176200EF0E3
:1023C00041F9022C01D1012000E00020009000988A
:1023D00020B14FF47F003149486003E04FF05010C6
:1023E0002E494860142368222E21762005F06EFCC9
:1023F0006FF07F40294908602749886F0023072232
:10240000042105F0B7F80023264A302176200EF08B
:1024100019F90023244A0C323021C8200EF012F999
:10242000062C01D1012000E000200090009820B18E
:102430004FF47F001949486003E04FF050101749EE
:10244000486014235C222E21C80005F03FFC6FF089
:102450007F40124908601049C86F002307220421F9
:1024600005F088F800230F4A30214FF4B8700EF0C1
:10247000E9F800230C4A921D30214FF4E1700EF070
:10248000E1F8012C03D1062000F004FE11E06CB944
:10249000032000F0FFFD0CE044130020F4000020B6
:1024A000F0290108DC2100205F240108082000F049
:1024B000F1FD092C3CD2DFE804F005093334353B4B
:1024C00036373800002000F0D3F832E000F098FDF5
:1024D0006FF07F401849086018484860184890F825
:1024E000780208B1174D00E0174D0020019013E06D
:1024F0000199C1EBC1014A190199C1EB011303EB29
:102500004111202303EB410188B20023F1210EF099
:1025100099F80198401C019001980228E8D308E03E
:1025200000BF00BF00BF00BF00BF00F069FD00E0BA
:1025300000BF00BF7CBD0000F40000203800310067
:102540002C15002048290108802901082DE9F041B7
:102550000746FFF7A7FD6FF07F403A4908603A4809
:1025600048603A4890F8780208B1394E00E0394E98
:10257000002306F12C02042118460EF063F86FF0D8
:102580007F40304908604FF050104860324890F862
:10259000580030BB314D002420E0042C0ED205EB56
:1025A000041204EB440000EBC4001A2303EB4000C8
:1025B00081B2002318460EF045F80EE005EB041238
:1025C000201F00EB400303EBC0001A2303EB400085
:1025D00081B20023FA200EF035F8641C082CDCD3FD
:1025E0002AE01D4890F85800022825D11C4D0024EF
:1025F00020E0042C0ED205EB041204EB440000EBA7
:10260000C4001A2303EB400081B2002318460EF0E9
:1026100019F80EE005EB0412201F00EB400303EB5A
:10262000C0001A2303EB400081B20023FA200EF011
:1026300009F8641C082CDCD317B9002000F018F846
:10264000BDE8F081F40000200352F3002C150020B7
:10265000FD2501080B25010844130020DF22010895
:102660005F23010810B5022000F002F810BD000041
:1026700010B5044600F0C4FC002C7CD16FF07F4004
:10268000AF490860AF484860AF4890F8780200282A
:1026900040D00023ADA2E7211C200DF0D3FF002382
:1026A000ACA2FB211C200DF0CDFF0023ABA2E72143
:1026B0007E200DF0C7FF0023A9A2FB217E200DF094
:1026C000C1FF0023A8A2E721DC200DF0BBFF0023FF
:1026D000A3A2FB21DC200DF0B5FF0023A4A2E7217B
:1026E0004FF49D700DF0AEFF00239DA2FB214FF42F
:1026F0009D700DF0A7FF00239FA2E7214FF4CC703F
:102700000DF0A0FF00239EA2FB214FF4CC700DF032
:1027100099FF14E100239BA2E7211C200DF092FFFA
:1027200000239AA2FB211C200DF08CFF002399A20C
:10273000E7217E200DF086FF002398A2FB217E205A
:102740000DF080FF002397A2E721DC200DF07AFF37
:10275000002392A2FB21DC200DF074FF002393A242
:10276000E7214FF49D700DF06DFF00238BA2FB213C
:102770004FF49D7000E010E00DF064FF00238DA287
:10278000E7214FF4CC700DF05DFF00238BA2FB21FD
:102790004FF4CC700DF056FFD1E0012C2CD16FF02E
:1027A0007F406749086067484860002385A2E721A9
:1027B00066200DF047FF002384A2FB2166200DF068
:1027C00041FF002383A2E721B6200DF03BFF002349
:1027D00082A2FB21B6200DF035FF002381A2E72164
:1027E0004FF4D3700DF02EFF002380A2FB214FF495
:1027F000D3700DF027FFA2E0022C4FD1524890F881
:10280000780230B3002351A2E7217E200DF01AFF99
:10281000002350A2FB217E200DF014FF002356A2BE
:10282000E721DC200DF00EFF002372A2FB21DC204B
:102830000DF008FF002371A2E7214FF49D700DF009
:1028400001FF00236BA2FB214FF49D700DF0FAFEF7
:1028500075E000234BA2E7211C200DF0F3FE0023BE
:102860004AA2FB211C200DF0EDFE002351A2E7211E
:102870007E200DF0E7FE002350A2FB217E200DF00C
:10288000E1FE00235FA2E721DC200DF0DBFE002348
:102890004AA2FB21DC200DF0D5FE50E0032C4ED1E6
:1028A000294890F8780230B3002328A2E7217E203F
:1028B0000DF0C8FE002327A2FB217E200DF0C2FEF2
:1028C000002322A2E721DC200DF0BCFE002349A258
:1028D000FB21DC200DF0B6FE002348A2E7214FF4D7
:1028E0009D700DF0AFFE002342A2FB214FF49D70BE
:1028F0000DF0A8FE23E0002322A2E7211C200DF00A
:10290000A1FE002321A2FB211C200DF09BFE002331
:102910001CA2E7217E200DF095FE002327A2FB21BB
:102920007E200DF08FFE002336A2E721DC200DF083
:1029300089FE002321A2FB21DC200DF083FE10BDC7
:10294000F4000020380031002C1500204D45415383
:102950000000000044495350000000004241540070
:1029600054455354000000002044594E41000000DB
:102970004C495354000000004C494D49540000009C
:1029800053455400B2E2C1BF00000000CFD4CABE1C
:1029900000000000B5E7B3D800000000B2E2CAD4DE
:1029A00000000000B6AFCCAC00000000C1D0B1ED1B
:1029B00000000000BCABCFDE00000000C9E8D6C3B9
:1029C00000000000CEC4BCFE00000000B9DCC0ED79
:1029D00000000000B1A3B4E600000000CAFDBEDDA7
:1029E00000000000B8FCB6E00000000020322F32EA
:1029F0000000000053455455500000002053595327
:102A000000000000CFB5CDB30000000011B581B0CB
:102A10000020009057E09DF804100098401C81426F
:102A200004D14FF47F003D49486003E04FF050105F
:102A30003A49486000980A281FD2009800EB8000AD
:102A400080001A3081B214235A22A02005F03EF9EA
:102A50003349009A51F8220000230722042104F090
:102A600089FD009800EB800080001A3081B20123BC
:102A70002C4AA0200DF0E6FD22E000980A3800EB79
:102A8000800080001A3081B214235A224FF4AF70B4
:102A900005F01CF92249009A51F822000023072270
:102AA000042104F067FD00980A3800EB80008000E4
:102AB0001A3081B201231B4A4FF4AF700DF0C2FDF2
:102AC0000098401C009000980E28A4D34FF050109E
:102AD0001249486000F094FA6FF07F400F49086097
:102AE00011484860114C0220009013E00099C1EB9E
:102AF000C1010A190099C1EB011303EB4111202315
:102B000003EB410188B20023F1210DF09BFD0098F9
:102B1000401C009000980528E8D31CBDF40000205C
:102B2000FC170020DC210020380031009529010825
:102B30007CB50446012C00D100E0002000900098F4
:102B400020B14FF47F00E649486003E04FF0501099
:102B5000E349486014235C221821762005F0B6F87A
:102B60006FF07F40DE490860DE4890F88000C0EBDF
:102B7000C000DD49421800231A2176200DF062FDC5
:102B8000022C01D1012000E000200090009820B12B
:102B90004FF47F00D249486003E04FF05010D04915
:102BA000486014235C222E21762005F08FF86FF008
:102BB0007F40CB490860CB49D1F88400002307222D
:102BC000042104F0D7FC0023C84A302176200DF000
:102BD00039FD0023C64A3021C8200DF033FD032CF7
:102BE00001D1012000E000200090009820B14FF4B6
:102BF0007F00BB49486003E04FF05010B84948607F
:102C000014235C224421762005F060F86FF07F40A9
:102C1000B3490860B349D1F8880000230722042192
:102C200004F0A8FC0023B14A462176200DF00AFDED
:102C30000023AF4A4621C8200DF004FD042C01D129
:102C4000012000E000200090009820B14FF47F00A8
:102C5000A349486003E04FF05010A1494860142395
:102C600064225A21762005F031F86FF07F409C49AC
:102C700008609C49D1F8940000230522042104F047
:102C800079FC0023994A5C2176200DF0DBFC0023BF
:102C9000974A1E325C21B2200DF0D4FC052C01D1E4
:102CA000012000E000200090009820B14FF47F0048
:102CB0008B49486003E04FF0501089494860142365
:102CC0005C221821900005F001F86FF07F408449E4
:102CD0000860844890F89000C0EBC0008549421815
:102CE00000231A214FF4B8700DF0ACFC062C01D172
:102CF000012000E000200090009820B14FF47F00F8
:102D00007749486003E04FF050107549486014233C
:102D100070222E21C80004F0D9FF6FF07F40704967
:102D200008607049D1F88C0000230822012104F0CA
:102D300021FC00236D4A30214FF4B8700DF082FC65
:102D400000236B4A2A3230214FF4E5700DF07AFCF3
:102D5000072C01D1012000E000200090009820B154
:102D60004FF47F005E49486003E04FF050105C492B
:102D700048601423702244214FF4B87004F0A6FF79
:102D80006FF07F40564908605649D1F89C000023F7
:102D90000822012104F0EEFB0023544A46214FF49F
:102DA000B8700DF04FFC0023514A2A3246214FF4EF
:102DB000E5700DF047FC082C01D1012000E0002057
:102DC0000090009820B14FF47F004549486003E02F
:102DD0004FF0501042494860142364225A214FF4A6
:102DE000B87004F073FF6FF07F403D4908603D49C3
:102DF000D1F8980000230522042104F0BBFB002336
:102E00003A4A5C2188000DF01DFC0023384A1E322E
:102E10005C214FF4D6700DF015FC24B1012C06D0C6
:102E2000052C58D12DE00020FFF722FC56E000F0E1
:102E3000E7F86FF07F402A4908602F4848602F4824
:102E400090F8780208B12E4D00E0274D0020019047
:102E500013E00199C1EBC1014A190199C1EB0113BA
:102E600003EB4111202303EB410188B20023F12140
:102E70000DF0E8FB0198401C019001980228E8D36E
:102E80002CE000F0BDF86FF07F40154908601A484B
:102E900048601A4890F8780208B1164D00E0154DC8
:102EA0000020019013E00199C1EBC1014A19019979
:102EB000C1EB011303EB4111202303EB410188B265
:102EC0000023F1210DF0BEFB0198401C01900198F8
:102ED0000328E8D302E000F093F800BF00BF7CBDF8
:102EE000F400002044130020752A0108DC21002092
:102EF0005F2401089F2A0108380031002C150020AA
:102F0000B42A010870B5FFF7CDF86FF07F40214972
:102F1000086021484860214890F8780208B1204EA6
:102F200000E0204E002306F14202042118460DF075
:102F300089FB6FF07F40174908604FF050104860E0
:102F4000194D002420E0042C0ED205EB041204EBF2
:102F5000440000EBC4001A2303EB400081B20023BD
:102F600018460DF06FFB0EE005EB0412201F00EB7E
:102F7000400303EBC0001A2303EB400081B200239F
:102F8000FA200DF05FFB641C082CDCD30020FFF757
:102F90006FFB70BDF40000200352F3002C150020DD
:102FA000FD2501080B250108DF2301082DE9F84163
:102FB00005468846144600261CE0207800B91AE031
:102FC0002078203800EB8000C00000EB8000C700B4
:102FD000F81707EB5070094901EBE000A9190090C0
:102FE00088B228231A46414605F064FA641C06F1AB
:102FF0001C0086B2E1E700BFBDE8F881F6A2010837
:1030000010B500243CE0204820494860A1000A3166
:10301000C4EB041202EB420201EB420188B22B2303
:103020005A22E42104F052FE1948184948605E22F1
:1030300004FB02F10B3188B201235A22E32104F090
:1030400045FEC4EB041101EB4411642202EB410183
:1030500088B22C230122E32104F038FE00200B4922
:103060004860C4EB041101EB4411642202EB4101FE
:10307000491C88B22C230322E32104F027FE641CA0
:10308000052CC0D310BD000038003100F400002032
:103090006843690010B50446012C0DD13D483E49F6
:1030A00048604FF47F00086000233CA2CD214FF41C
:1030B00091700DF0C7FA6CE0022C0ED14FF0501059
:1030C000354948604FF47F000860002339A2CD21C4
:1030D0004FF49B700DF0B6FA5BE0032C0AD12D483B
:1030E0002D49486014239622CD214FF49B7004F0A3
:1030F000EDFD4EE0042C0BD14FF0501026494860F6
:1031000014239622CD214FF49B7004F0DFFD40E0A4
:10311000052C0ED14FF050101F4948604FF47F002E
:103120000860002328A2CD214FF49B700DF08AFA8D
:103130002FE0062C0DD11748174948604FF47F0047
:103140000860002325A2CD214FF49B700DF07AFA80
:103150001FE0072C0ED14FF050100F4948604FF47C
:103160007F00086000231DA2CD214FF49B700DF05D
:1031700069FA0EE0082C0CD10648074948604FF464
:103180007F00086000230BA2CD214FF49B700DF04F
:1031900059FA10BD65343400F4000020C7EBD3C3E6
:1031A000CAFDD7D6BCFCC5CCBBF2D0FDC5A5CAE4D0
:1031B000C8EB0000C7EBD3C3CAFDD7D6BCFCC5CC57
:1031C000CAE4C8EB00000000B0B4CFC2D0FDC5A572
:1031D000C7D0BBBBB2BDD6E800000000B0B4CFC2C0
:1031E000D0FDC5A5BFECCBD9D1A1D4F10000000022
:1031F00070B502F01DFB6FF07F4023490860234843
:103200004860234890F8780208B1224E00E0224E30
:10321000002306F11602042118460DF013FA6FF090
:103220007F40194908604FF0501048601B4D002442
:1032300024E0022C10D204EB840005EB400204EBE6
:10324000440000EBC4001A2303EB400081B20023CA
:1032500018460DF0F7F910E004EB840005EB40028E
:10326000A01E00EB400303EBC0001A2303EB400059
:1032700081B20023FA200DF0E5F9641C032CD8D3A9
:103280000020FFF7F5F970BDF40000200352F300B1
:103290002C150020FD2501080B250108C12201087D
:1032A0007CB50546012D00D100E00020009000987B
:1032B00020B14FF47F006849486003E04FF05010A0
:1032C0006549486014235C221821582004F0FEFC54
:1032D0006FF07F40604908606049C86C0023052298
:1032E000032104F047F900235D4A1A2158200DF00C
:1032F000A9F9022D01D1012000E0002000900098E2
:1033000020B14FF47F005449486003E04FF0501063
:10331000514948601423682218214FF4A97004F021
:10332000D5FC6FF07F404C4908604C49486D002344
:103330000522032104F01EF90023494A1A214FF403
:10334000A9700DF07FF9032D01D1012000E00020CC
:103350000090009820B14FF47F003F49486003E09F
:103360004FF050103C49486014235C222E21582015
:1033700004F0ACFC6FF07F40374908603749086DB6
:1033800000230522032104F0F5F80023344A3021FC
:1033900058200DF057F925B1012D06D0022D58D136
:1033A0002DE00020FFF764F954E0FFF729FE6FF0ED
:1033B0007F40294908602B4848602B4890F87802E4
:1033C00008B12A4C00E02A4C0020019013E001993A
:1033D000C1EBC1010A190199C1EB011303EB4111C2
:1033E000202303EB410188B20023F1210DF02AF9DB
:1033F0000198401C019001980528E8D32AE0FFF7C6
:10340000FFFD6FF07F401449086016484860164879
:1034100090F8780208B1174C00E0174C002001909A
:1034200013E00199C1EBC1010A190199C1EB011324
:1034300003EB4111202303EB410188B20023F1216A
:103440000DF000F90198401C019001980028E8D087
:1034500000E000BF00BF7CBDF4000020441300204A
:10346000DC210020380031002C15002048290108FB
:10347000892801085D2B0108562B010870B502F060
:10348000DFF96FF07F402C4908602C4848602C48D9
:1034900090F8780208B12B4E00E02B4E002306F185
:1034A0008402042118460DF0CDF86FF07F402249C8
:1034B00008604FF050104860214890F8780208B139
:1034C000224D00E0214D00242FE0062C11D24FF0B8
:1034D00050101949486004EB840005EB40021623A4
:1034E00004FB03F01A3081B2002318460DF0AAF84D
:1034F0001AE0A01F022806D9082804D24FF0501065
:103500000D49486003E04FF050100B49486004EB50
:10351000840005EB4002A01F162358431A3081B2E5
:103520000023FA200DF08EF8641C0B2CCDD3032061
:10353000FFF79EF870BD0000F40000200352F30076
:103540002C150020FD2501080B250108672701081F
:1035500010B502F02BFCFFF753FD10BD30B595B050
:10356000054602F011FD01222946684600F0ECFFF5
:103570006C469DF800008DF8380001980F90029875
:103580001090039811900498129005981390069843
:1035900014900F984FF47A71B0FBF1F00F900B98E4
:1035A00018B90020099008900A900F9815B030BD06
:1035B00070B5FFF7CDFF6FF07F403D4908603D4893
:1035C00048603D4890F8780208B13C4D00E03C4D21
:1035D000002305F16E02042118460DF033F86FF058
:1035E0007F40334908604FF050104860002459E094
:1035F000032C2AD2334890F8D500012810D1C4EB0F
:103600000410314BC21804EB440000EBC4001A2331
:1036100003EB400081B2002318460DF013F840E0A0
:10362000284890F8D50030BBC4EB0410274BC218D3
:1036300004EB440000EBC4001A2303EB400081B20A
:10364000002318460CF0FEFF2BE01E4890F8D50032
:10365000012811D1C4EB04101B4BC218E01E00EB73
:10366000400303EBC0001A2303EB400081B20023A8
:10367000FA200CF0E7FF14E0124890F8D50080B96A
:10368000C4EB0410114BC218E01E00EB400303EB27
:10369000C0001A2303EB400081B20023FA200CF093
:1036A000D1FF641C052CA3D30020FEF7E1FF70BD01
:1036B000F40000200352F3002C150020FD25010822
:1036C0000B250108441300200C290108C12801081A
:1036D00010B59B489B4908604FF0501048609A48CD
:1036E00090F8D500F0B9002398A25E214FF49670AF
:1036F0000CF0A8FF002396A25E214FF4AF700CF0EF
:10370000A1FF944991F85110481C00230222194648
:1037100003F030FF0023904A5E214FF4A1700CF0BB
:1037200091FF1BE0884890F8D500012816D10023AE
:103730008AA25E214FF496700CF084FF854991F8BF
:103740005110481C00230222194603F013FF0023E6
:10375000814A5E214FF4A9700CF074FF7A4890F80A
:10376000D500E0B900237FA272214FF496700CF0CF
:1037700069FF00237DA288214FF496700CF062FF50
:1037800000237CA29E214FF496700CF05BFF002377
:103790007AA2B4214FF496700CF054FF20E06A48EE
:1037A00090F8D50001281BD1002376A272214FF496
:1037B00096700CF047FF002373A288214FF4967097
:1037C0000CF040FF002371A29E214FF496700CF084
:1037D00039FF00236EA2B4214FF496700CF032FF33
:1037E000594890F8210038BB5A480068642806D22E
:1037F000002307220421184603F0BCFE06E05549C9
:10380000002307220868042103F0B4FE5149002375
:1038100007220868042103F0ADFE00234E4A7221FE
:103820004FF4B4700CF00EFF002356A272214FF437
:10383000DC700CF007FF24E0434890F821000128D9
:103840001FD144480068642806D2002306220321C1
:10385000184603F08FFE06E03E4900230622086862
:10386000032103F087FE00233B4A72214FF4B4701A
:103870000CF0E8FE002343A272214FF4DC700CF040
:10388000E1FE314890F82000A8B932490023072210
:103890004868042103F06EFE00232F4A88214FF46C
:1038A000B4700CF0CFFE00233BA288214FF4DC70F3
:1038B0000CF0C8FE19E0244890F82000012814D12B
:1038C0002449002306224868032103F053FE002305
:1038D000214A88214FF4B4700CF0B4FE00232EA2CC
:1038E00088214FF4DC700CF0ADFE1A49002307224A
:1038F000C868032103F03EFE0023174A9E214FF4BF
:10390000B4700CF09FFE002324A29E214FF4DC70C3
:103910000CF098FE0F4900230422486D012103F0AA
:1039200029FE00230C4AB42148000CF08BFE002332
:103930001BA2B4214FF4DC700CF084FE10BD00001B
:1039400000FFFF00F400002044130020B5DA00005F
:10395000B2BD0000EC170020DC210020537465701C
:1039600000000000B5E7D1B900000000B5E7C1F7DD
:1039700000000000B9A6C2CA00000000CAB1BCE441
:103980000000000056000000490000005000000048
:1039900054494D4500000000410000005700000060
:1039A000730000002DE9F0410546012D00D100E033
:1039B0000020074627B14FF47F00FC49486003E030
:1039C0004FF05010F949486014235C2218217620EA
:1039D00004F07CF96FF07F40F4490860F44991F8F5
:1039E000D60000230322194603F0C4FD0023F14A48
:1039F0001A2176200CF026FE022D01D1012000E0D4
:103A00000020074627B14FF47F00E849486003E0F3
:103A10004FF05010E549486014235C222E21762097
:103A200004F054F96FF07F40E0490860E04890F8F6
:103A3000D700C0EBC000E0494218002330217620B7
:103A40000CF000FE042D01D1012000E0002007460B
:103A500027B14FF47F00D549486003E04FF0501084
:103A6000D249486014235C221821900004F02EF9FA
:103A70006FF07F40CD490860CD4890F8D900C0EB89
:103A8000C000CE49421800231A214FF4B8700CF040
:103A9000D9FD052D01D1012000E00020074627B106
:103AA0004FF47F00C149486003E04FF05010BF4918
:103AB000486014235C222E21C80004F007F96FF03F
:103AC0007F40BA490860BA49D1F8DC0000230722D8
:103AD000042103F04FFD0023B64A30214FF4B870A3
:103AE0000CF0B0FD0023B64A30214FF4E1700CF029
:103AF000A9FD062D01D1012000E00020074627B1D5
:103B00004FF47F00A949486003E04FF05010A749E7
:103B10004860102350225E21002004F0D7F86FF097
:103B20007F40A2490860A24890F8D500D8B9002388
:103B3000A4A25E2118460CF085FD0023A2A25E21FE
:103B400032200CF07FFDA14991F85010481C002351
:103B50000222194603F00EFD0023964A5E2116202C
:103B60000CF070FD19E0924890F8D500012814D1AE
:103B7000002397A25E2118460CF064FD934991F84A
:103B80005010481C00230222194603F0F3FC0023C6
:103B9000884A5E2126200CF055FD072D01D1012019
:103BA00000E00020074627B14FF47F007F494860BE
:103BB00003E04FF050107D494860102350225E21F1
:103BC000642004F083F87A4890F8D50078B97F48EB
:103BD00090F850107648E030405CC0EBC0007E4961
:103BE000421800235E2164200CF02CFD13E0704885
:103BF00090F8D50001280ED1744890F850106C4808
:103C0000E030405CC0EBC0007449421800235E21E4
:103C100064200CF017FD4FF05010644948606B4869
:103C200090F850106248E030405C04287DD0604835
:103C300090F8D500F0B9002369A2722118460CF063
:103C400001FD002369A2882118460CF0FBFC00232B
:103C500068A29E2118460CF0F5FC002368A2B4214E
:103C600018460CF0EFFC002367A2CA2118460CF09E
:103C7000E9FC22E04E4890F8D50001281DD1002330
:103C800063A2722118460CF0DDFC002362A2882199
:103C900018460CF0D7FC002361A2882118460CF0CE
:103CA000D1FC002360A2882118460CF0CBFC002335
:103CB0005FA2882118460CF0C5FC12231422702143
:103CC000C82004F003F812231422B221C82003F004
:103CD000FDFF12231422C821084603F0F7FF3B48DA
:103CE00090F850103248E030405C00EB400034491E
:103CF000891F01EB400200237221C8200CF0A2FCB6
:103D0000324890F850104B48405C00EB40004A4964
:103D100001EB40020023B421C8200CF093FC2B4897
:103D200090F850104348405C00E032E100EB400066
:103D3000414901EB40020023CA21C8200CF082FC5B
:103D400000233EA28821C8200CF07CFC082D01D164
:103D5000012000E00020074627B14FF47F001349FF
:103D6000486003E04FF050101049486014235C2273
:103D70007021642003F0AAFF6FF07F400B490860B8
:103D8000124991F850202B495A3951F8220000234A
:103D90000722042103F0EEFB0023064A722164206F
:103DA0000CF050FC092D4BD101204AE0F40000201A
:103DB00044130020DC210020592F0108832A010828
:103DC00065240108B5DA0000B2BD0000EC17002040
:103DD0005374657000000000752F0108BB2F0108A7
:103DE000B8BAD4D8B4F3D0A100000000CAB1BCE482
:103DF00000000000B1C8BDCFC0E0D0CD0000000081
:103E0000C9CFCFDE00000000CFC2CFDE000000002F
:103E10004C4F41440000000054696D6500000000F3
:103E2000436F6D7000000000486967680000000083
:103E30004C6F77008E1400208F240108730000005F
:103E40000020074627B14FF47F00FA49486003E09D
:103E50004FF05010F749486014235C2286216420FB
:103E600003F034FF6FF07F40F2490860F24991F8A7
:103E70005020F24931F8120000230422012103F0FE
:103E800079FB0023EE4A882164200CF0DBFB0A2D2D
:103E900001D1012000E00020074627B14FF47F0048
:103EA000E449486003E04FF05010E24948601423B1
:103EB0005C229C21642003F009FF6FF07F40DD4904
:103EC0000860DD4890F85010DC481E30405CC0EBC4
:103ED000C000DC49421800239E2164200CF0B2FB94
:103EE0000B2D01D1012000E00020074627B14FF43F
:103EF0007F00D049486003E04FF05010CD49486042
:103F000014235C22B221642003F0E0FE6FF07F40B6
:103F1000C8490860C84991F85020C849303151F863
:103F2000220000230722042103F024FB0023C44ABB
:103F3000B42164200CF086FB0C2D01D1012000E09F
:103F40000020074627B14FF47F00BA49486003E0DC
:103F50004FF05010B749486014235C22C8216420F8
:103F600003F0B4FE6FF07F40B2490860B24991F8A7
:103F70005020B2496C3151F822000023072204215D
:103F800003F0F8FA0023AE4ACA2164200CF05AFB71
:103F90007BE1A94890F85010A8484C38405C0428B0
:103FA000F6D1A94890F8D50018BB0023AFF2D01283
:103FB000722118460CF046FB0023AFF2D012882184
:103FC00018460CF03FFB0023AFF2D8129E21184692
:103FD0000CF038FB0023AFF2D812B42118460CF0D5
:103FE00031FB0023AFF2E012CA2118460CF02AFB85
:103FF00027E0954890F8D500012822D10023AFF2A0
:10400000F012722118460CF01DFB0023AFF2F812DB
:10401000882118460CF016FB0023AFF2FC12882111
:1040200018460CF00FFB0023AFF20422882118463B
:104030000CF008FB0023AFF20822882118460CF090
:1040400001FB122314227021C82003F03FFE12232B
:104050001422B221C82003F039FE12231422C821F1
:10406000084603F033FE0023AFF230228821C82037
:104070000CF0E8FA072D01D1012000E000200746EE
:1040800027B14FF47F006B49486003E04FF05010B8
:1040900068494860684991F8502068493C3951F8AE
:1040A000220000230722042103F064FA14235C2277
:1040B0007021642003F00AFE0023614A722164200B
:1040C0000CF0C0FA082D01D1012000E000200746C5
:1040D00027B14FF47F005749486003E04FF050107C
:1040E0005449486014235C227021642003F0EEFDE3
:1040F0006FF07F404F4908604F4991F850204F4979
:104100003C3951F8220000230722042103F032FA3F
:1041100000234B4A722164200CF094FA092D01D13E
:10412000012000E00020074627B14FF47F004149FD
:10413000486003E04FF050103E49486014235C2271
:104140008621642003F0C2FD6FF07F40394908608A
:10415000394991F85020394931F8120000230422DE
:10416000012103F007FA0023354A882164200CF06E
:1041700069FA0A2D01D1012000E00020074627B18D
:104180004FF47F002B49486003E04FF0501029495D
:10419000486014235C229C21642003F097FD6FF09B
:1041A0007F4024490860244890F8501023481E306E
:1041B000405CC0EBC0002349421800239E216420CC
:1041C0000CF040FA0B2D01D1012000E00020074641
:1041D00027B14FF47F001749486003E04FF05010BB
:1041E0001449486014235C22B221642003F06EFD60
:1041F0006FF07F400F4908600F4991F850200F4938
:10420000303151F8220000230722042103F0B2F9D3
:1042100000230B4AB42164200CF014FA0C2D01D1B8
:10422000012000E00020074687B14FF47F000149DC
:1042300048600FE0F4000020EC170020701400200C
:10424000DC210020DE2F0108441300204FF0501025
:104250009A49486014235C22C821642003F036FD8B
:104260006FF07F4095490860954991F85020954935
:1042700051F8220000230722042103F07BF90023D8
:10428000914ACA2164200CF0DDF90D2D1CD2DFE823
:1042900005F01B07141B15081016090A170B0C0054
:1042A00000BF00BF00BF00BF00BF0220FEF7F2FE4C
:1042B0000EE00520FEF7EEFE0AE000BF00BF00BFE3
:1042C0000720FEF7E7FE03E00420FEF7E3FE00BF51
:1042D00000BFFEF795FE7D480078002879D10B2DB0
:1042E00078D2DFE805F006C00A2E52C0C078C0C000
:1042F0009C000020FEF7BCF9B6E0FEF781FE6FF0EF
:104300007F406E49086072484860724890F87802B1
:1043100008B1714E00E0714E00240FE0C4EBC401FF
:104320008A19C4EB041101EB4411202303EB410172
:1043300088B20023F1210CF085F9641C022CEDD326
:1043400092E0FEF75DFE6FF07F405C4908606048D8
:104350004860604890F8780208B1614E00E0614E14
:1043600000240FE0C4EBC4018A19C4EB041101EB73
:104370004411202303EB410188B20023F1210CF00A
:1043800061F9641C022CEDD36EE0FEF739FE6FF08C
:104390007F404A4908604E4848604E4890F878028D
:1043A00008B1514E00E0514E00240FE0C4EBC401AF
:1043B0008A19C4EB041101EB4411202303EB4101E2
:1043C00088B20023F1210CF03DF9641C022CEDD3DE
:1043D0004AE04AE047E0FEF713FE6FF07F403749BE
:1043E00008603B4848603B4890F8780208B1404E6E
:1043F00000E0404E00240FE0C4EBC4018A19C4EB76
:10440000041101EB4411202303EB410188B2002386
:10441000F1210CF017F9641C052CEDD324E0FEF714
:10442000EFFD6FF07F402549086029484860294822
:1044300090F8780208B1304E00E0304E00240FE0D2
:10444000C4EBC4018A19C4EB041101EB441120230D
:1044500003EB410188B20023F1210CF0F3F8641C56
:10446000042CEDD300E000BF26E0184800780128B6
:1044700022D1FEF7C5FD6FF07F4010490860144857
:104480004860144890F8780208B11D4E00E01D4EB7
:1044900000240FE0C4EBC4018A19C4EB041101EB42
:1044A0004411202303EB410188B20023F1210CF0D9
:1044B000C9F8641C052CEDD3BDE8F081F4000020A0
:1044C000EC170020DC140020DC2100203300002049
:1044D000380031002C150020672F0108592F0108E2
:1044E000B42A0108752A0108912A0108832A0108C3
:1044F000BB2F0108752F010840300108DE2F01088D
:104500001D300108FA2F010810B50548054948601B
:10451000962340F2DF124C21002003F0D7FB10BDA0
:1045200065343400F400002010B5054805494860A2
:10453000742340F2DF126E21002003F0C7FB10BD90
:1045400065343400F40000202DE9F04192B00546B6
:104550000E46174601201190F94800780D90012071
:104560000B9000200A90099008900790029001900B
:10457000039001900C9009E020200EA99DF83020B6
:1045800088549DF83000401CC0B20C909DF830005B
:104590000828F1DB00208DF840000FB1082400E06E
:1045A0000624AFE1B8F1010F03D103F0F1F90D904A
:1045B00001E04FF001089DF8340000287ED0012072
:1045C0000B909DF83400202879D2DFE800F0788243
:1045D00091A0F278CDBEAFDCF3F0EFEEED787F7E08
:1045E0005733107878EC78808178787878EB0020F1
:1045F000039011909DF81C00A04218DA9DF8280045
:10460000A8B99DF81C0000280CDD2E200EA99DF8ED
:104610001C2088549DF81C0009909DF81C00401C2B
:10462000C0B207909DF82800401CC0B20A9001203B
:1046300004904CE101200390002011909DF81C0093
:10464000A04218DA9DF82800A8B99DF81C0000289F
:104650000CDD2E200EA99DF81C2088549DF81C000E
:1046600009909DF81C00401CC0B207909DF82800DE
:10467000401CC0B20A900120049028E1022003905F
:10468000002011909DF81C00A0421BDA9DF8280024
:10469000C0B99DF81C0000280CDD2E200EA99DF845
:1046A0001C2088549DF81C0009909DF81C00401C9B
:1046B000C0B207909DF82800401C01E008E105E128
:1046C000C0B20A900120049001E100E1FFE0FEE0A9
:1046D000FDE09DF81C00A04209DA31200EA99DF8EA
:1046E0001C2088549DF81C00401CC0B20790EEE0CE
:1046F0009DF81C00A04209DA32200EA99DF81C206A
:1047000088549DF81C00401CC0B20790DFE09DF863
:104710001C00A04209DA33200EA99DF81C20885401
:104720009DF81C00401CC0B20790D0E09DF81C0012
:10473000A04209DA34200EA99DF81C2088549DF867
:104740001C00401CC0B20790C1E09DF81C00A042B4
:1047500009DA35200EA99DF81C2088549DF81C000C
:10476000401CC0B20790B2E09DF81C00A04209DADC
:1047700036200EA99DF81C2088549DF81C00401C72
:10478000C0B20790A3E09DF81C00A04209DA3720D0
:104790000EA99DF81C2088549DF81C00401CC0B236
:1047A000079094E06EE06CE022E030E051E010E031
:1047B00000E068E09DF81C00A04209DA38200EA94C
:1047C0009DF81C2088549DF81C00401CC0B2079026
:1047D0007DE09DF81C00A04209DA39200EA99DF861
:1047E0001C2088549DF81C00401CC0B207906EE04D
:1047F0009DF81C00A04209DA30200EA99DF81C206B
:1048000088549DF81C00401CC0B207905FE09DF8E2
:104810001C00A0421CDA9DF81C00002818DD9DF841
:104820002800A8B99DF81C0000280CDD2E200EA938
:104830009DF81C2088549DF81C0009909DF81C00D0
:10484000401CC0B207909DF82800401CC0B20A90DE
:104850003DE09DF81C00002812DD9DF81C00401E64
:10486000C0B2079020200EA99DF81C2088549DF806
:1048700024009DF81C10884202D100200A90099063
:1048800025E024E023E00020039011909DF81C0017
:10489000A04218DA9DF82800A8B99DF81C0000284D
:1048A0000CDD2E200EA99DF81C2088549DF81C00BC
:1048B00009909DF81C00401CC0B207909DF828008C
:1048C000401CC0B20A900120049000E000BF00BF6D
:1048D0009DF82C00B0B100200B906FF07F4019497B
:1048E00008604FF47F004860B38810339AB2718833
:1048F0003088122303F0EAF97188308800230EAA69
:104900000BF0A0FE9DF8440000287FF44BAE9DF80C
:104910001C000C9009E030200EA99DF8302088542E
:104920009DF83000401CC0B20C909DF830109DF8EE
:104930002400401D8142EEDB00200C903EE0000090
:10494000BB000020F40000209DF83800302830DB48
:104950009DF8380039282CDC0EA89DF83010405CFA
:10496000302826DB0EA89DF83010405C392820DC6A
:104970009DF824009DF8301088420DDD019800EB71
:1049800080004000019001990EA89DF83020805CC5
:104990003038084401900CE0019800EB80004000A2
:1049A000019001990EA89DF83020805C30380844B1
:1049B00001909DF83000401CC0B20C909DF8301062
:1049C0009DF82400401D8142BEDB9DF8240002902A
:1049D0009DF800002870019868600298A86003980C
:1049E000E86004982861059868610698A86112B08B
:1049F000BDE8F0812DE9F041074688466FF07F4021
:104A0000FE4908604FF050104860FD4890F83F01A3
:104A100050B9FC4890F8D600052803DCF94890F816
:104A2000D6501DE005251BE0F54890F83F01012810
:104A30000CD1F44890F8D6000A2805DCF14890F82B
:104A4000D600401FC5B20BE0052509E0EC4890F800
:104A50003F01022804D1EB4890F8D6000A38C5B2CD
:104A6000CA2340F2DF125E21002003F02FF94FF03D
:104A700050116FF07F4003F063FC6FF07F40DF491F
:104A80004860C5F1040000EB400101EBC000CA2101
:104A9000A1EB40005D3883B201225E21002003F0CB
:104AA00015F9C5F1040000EB400101EBC000CA217B
:104AB000A1EB40005D3883B201225E21282003F083
:104AC00005F9C5F1040000EB400101EBC000CA216B
:104AD000A1EB40005D3883B201225E21782003F013
:104AE000F5F8012415E0C5F1040101EB410202EBE8
:104AF000C101CA22A2EB41015D398BB2642204FBE1
:104B000002F101F1780001225E2103F0DFF8601C60
:104B1000C4B2042CE7DB00240CE0162204FB02F0F4
:104B200000F15E01012340F2DF12002003F0CEF815
:104B3000601CC4B2A81C8442EFDB4FF05010AF4998
:104B40004860B04890F8D500012826D10023AEA2D5
:104B50005E2103200BF076FD0023ACA249212B201F
:104B60000BF070FD0023ABA2492153200BF06AFD2E
:104B70000023AAA24921B7200BF064FD0023A9A2BB
:104B8000492140F21B100BF05DFD0023A7A2492133
:104B900040F27F100BF056FD29E09A4890F8D500BE
:104BA00028BB0023A3A2612103200BF04BFD0023AF
:104BB000A2A261213F200BF045FD0023A1A26121AB
:104BC00099200BF03FFD0023A0A26121FD200BF0F6
:104BD00039FD00239FA2612140F261100BF032FDEC
:104BE00000239EA2612140F2B1100BF02BFDFEF7D5
:104BF00007FA6FF07F40814908609A4848609A48F8
:104C000090F8780208B1994E00E0994E00240FE028
:104C1000C4EBC4018A19C4EB041101EB4411202335
:104C200003EB41000023F1210BF00CFD601CC4B22A
:104C3000052CEDDB002465E14FF050106F49486012
:104C40006F4991F83F1101EB81012144481C002379
:104C50000222194602F08EFC162204FB02F000F13B
:104C600077010023834A03200BF0ECFC644890F8A2
:104C70003F0100EB800003196248E030C05CC0EBEC
:104C8000C0007D4BC218162304FB03F000F177012E
:104C9000002335200BF0D6FC594890F83F0100EB7B
:104CA0008000011956485830405C744951F8200082
:104CB00052490860524890F83F0100EB800001190A
:104CC0006F48405CC8B94E4991F83F1101EB810132
:104CD0000A194B49683151F82200002307220421A8
:104CE00002F048FC162204FB02F000F177010023D9
:104CF000604A7B200BF0A6FC22E0414890F83F017F
:104D000000EB800001195E48405C012818D13C4945
:104D100091F83F1101EB81010A193949683151F8C5
:104D2000220000230622032102F024FC162204FBA9
:104D300002F000F1770100234E4A7B200BF082FC49
:104D40002F4890F83F0100EB800001192C485830A3
:104D5000405C4C4951F8200028490860284890F8E8
:104D60003F0100EB8000011945480F30405CC8B995
:104D7000234991F83F1101EB81010A194049783923
:104D800051F8220000230722042102F0F3FB16222F
:104D900004FB02F000F177010023364ADF200BF01C
:104DA00051FC23E0164890F83F0100EB8000011908
:104DB00033480F30405C012818D1114991F83F1158
:104DC00001EB81010A192E49783951F8220000239C
:104DD0000622032102F0CEFB162204FB02F000F1B2
:104DE00077010023234ADF200BF02CFC044890F8C5
:104DF0003F0100EB80000119014845E0F40000206C
:104E0000EC170020441300204E4F00004D4F444546
:104E10000000000050415241310000005041524119
:104E20003200000052455331000000005245533219
:104E300000000000D0F2BAC500000000CFEEC4BFF1
:104E400000000000B5E7D1B900000000B5E7C1F7E8
:104E500000000000B9A6C2CA00000000BDE1B9FB15
:104E600000000000380031002C1500201D30010822
:104E7000FA2F0108DC210020752F0108A821010864
:104E800008190020982101085830405C204951F849
:104E9000200020490860204991F83F1101EB810171
:104EA0000A191D49E03151F822000023072203218D
:104EB00002F060FB162204FB02F000F177010023F0
:104EC000164A40F243100BF0BDFB6FF07F401149D2
:104ED0000860114890F83F0100EB800003190E486C
:104EE0005830C05CC0EBC0000D4BC218162304FB49
:104EF00003F000F17701002340F2A7100BF0A2FBB2
:104F0000601CC4B2AC42FFF697AEBDE8F081000071
:104F1000B8210108F4000020EC170020DC2100205B
:104F2000982F010830B595B00546012229466846FC
:104F3000FFF70AFB6C469DF800008DF838000198D9
:104F40000F90029810900398119004981290059871
:104F50001390069814900F9842F21071B0FBF1F084
:104F60000F900F98FF2801D9FF200F900B9818B9C8
:104F70000020099008900A900F9815B030BD30B508
:104F800095B0054600F072FF012229466846FFF7FA
:104F9000DBFA6C469DF800008DF8380001980F9000
:104FA000029810900398119004981290059813900D
:104FB000069814900B9818B90020099008900A9050
:104FC0000F9815B030BD30B595B0054600F092FF92
:104FD000012229466846FFF7B7FA6C469DF80000A3
:104FE0008DF8380001980F90029810900398119056
:104FF0000498129005981390069814900B9818B97D
:105000000020099008900A900F9815B030BD30B577
:1050100095B0054600F0A2FF012229466846FFF739
:1050200093FA6C469DF800008DF8380001980F90B7
:10503000029810900398119004981290059813907C
:10504000069814900B9818B90020099008900A90BF
:105050000F9815B030BD30B595B0054600F032FF61
:10506000012229466846FFF76FFA6C469DF800005A
:105070008DF8380001980F900298109003981190C5
:105080000498129005981390069814900F9842F285
:105090001071B0FBF1F00F900B9818B90020099037
:1050A00008900A900F9815B030BD30B595B0054600
:1050B00000F0F2FE012229466846FFF745FA6C46E9
:1050C0009DF800008DF8380001980F90029810901C
:1050D00003981190049812900598139006981490D4
:1050E0000F984FF47A71B0FBF1F00F900B9818B94C
:1050F0000020099008900A900F9815B030BD30B587
:1051000095B0054600F014FF012229466846FFF7D6
:105110001BFA6C469DF800008DF8380001980F903E
:10512000029810900398119004981290059813908B
:10513000069814900B9818B90020099008900A90CE
:105140000F9815B030BD30B595B0054600F01CFF86
:10515000012229466846FFF7F7F96C469DF80000E2
:105160008DF8380001980F900298109003981190D4
:105170000498129005981390069814900F9842F294
:105180001071B0FBF1F00F900B9818B90020099046
:1051900008900A900F9815B030BD30B595B005460F
:1051A00000F008FF012229466846FFF7CDF96C465A
:1051B0009DF800008DF8380001980F90029810902B
:1051C00003981190049812900598139006981490E3
:1051D0000B9818B90020099008900A900F9815B004
:1051E00030BD10B500240FE0601C00EB400202EB64
:1051F000C0001A2202EB4000801E81B2012364220B
:105200005A2002F063FD641C072CEDD310BD000092
:1052100070B500F04DF86FF07F401E4908601E48E1
:1052200048601E4890F8780208B11D4E00E01D4EFF
:10523000002306F1B002042118460BF003FA6FF0C8
:105240007F40144908604FF050104860134890F8B0
:10525000780208B1144D00E0144D00240EE004EB78
:10526000440000EBC4004219162304FB03F01A307B
:1052700081B2002318460BF0E5F9641C072CEED32D
:105280006FF07F4003494860FFF7ABFF0220FDF756
:10529000EFF970BDF40000200352F3002C1500203C
:1052A000FD2501080B250108BC2C01086F2C010805
:1052B00010B500F07BFDFDF7A3FE10BD7FB50446E1
:1052C00000208DF80700012C01D1012000E0002012
:1052D0000290029820B14FF47F00FE49486003E03D
:1052E0004FF05010FB494860122366221A215A20C1
:1052F00002F0ECFCF849B1F8D6010023032219466C
:1053000002F038F90023F54A1C215A200BF09AF9D3
:10531000022C01D1012000E000200290029820B16F
:105320004FF47F00EB49486003E04FF05010E9492B
:1053300048601223662230215A2002F0C7FCE6485A
:10534000B0F8D401C0EBC000E54942180023322177
:105350005A200BF077F9032C01D1012000E0002046
:105360000290029820B14FF47F00DA49486003E0D0
:105370004FF05010D7494860DA4890F8780208B1E9
:10538000D94D00E0D94D1223662246215A2002F061
:105390009DFCD44890F87602C0EBC000421900236F
:1053A00048215A200BF04EF9042C01D1012000E0D5
:1053B00000200290029820B14FF47F00C549486058
:1053C00003E04FF05010C3494860C64890F8780297
:1053D00008B1C54D00E0C54D122366225C215A205C
:1053E00002F074FCBF4890F87702C0EBC00042198D
:1053F00000235E215A200BF025F9052C01D1012054
:1054000000E000200290029820B14FF47F00B149E3
:10541000486003E04FF05010AE4948601223662206
:1054200072215A2002F052FCAE4890F87802B0493E
:1054300001EBC002002374215A200BF003F901A9EB
:10544000002005F005FC6946002005F0C7FB062C8E
:1054500001D1012000E000200290029820B14FF419
:105460007F009C49486003E04FF050109949486024
:1054700012231A4688215A2002F028FC9DF80320A6
:105480009CA196480BF054F90023944A8A215A2093
:105490000BF0D8F84FF050108E494860002396A2C8
:1054A0008A216E200BF0CEF8072C01D1012000E0FC
:1054B00000200290029820B14FF47F008549486097
:1054C00003E04FF050108349486012231A468821A8
:1054D000782002F0FBFB9DF8012086A17F480BF0AD
:1054E00027F900237D4A8A2178200BF0ABF84FF092
:1054F00050107849486000237FA28A218C200BF04D
:10550000A1F8082C01D1012000E0002002900298AF
:1055100020B14FF47F006F49486003E04FF0501016
:105520006C49486012231A468821982002F0CEFB6D
:105530009DF802206FA169480BF0FAF80023674A32
:105540008A2198200BF07EF8092C01D1012000E07F
:1055500000200290029820B14FF47F005D4948601E
:1055600003E04FF050105B49486012231A469E2119
:105570005A2002F0ABFB9DF804205EA157480BF0C7
:10558000D7F80023554AA0215A200BF05BF84FF0C2
:10559000501050494860002358A2A0216E200BF003
:1055A00051F80A2C01D1012000E00020029002985D
:1055B00020B14FF47F004749486003E04FF050109E
:1055C0004449486012231A469E21782002F07EFB4F
:1055D0009DF8052047A141480BF0AAF800233F4A57
:1055E000A02178200BF02EF84FF050103949486078
:1055F000002342A2A0218C200BF024F80B2C01D117
:10560000012000E000200290029820B14FF47F00BA
:105610003049486003E04FF050102E494860122393
:105620001A469E21982002F051FB9DF8062031A1D8
:105630002A480BF07DF80023284AA02198200BF07F
:1056400001F80C2C01D1012000E00020029002980A
:1056500020B14FF47F001F49486003E04FF0501025
:105660001C49486012236622B4215A2002F02EFB06
:105670000023234AB6215A200AF0E4FFFDF7C0FCBC
:105680006FF07F40134908601E4848600C2C7DD2A3
:10569000DFE804F006C109406286A1A2A3A4A5A682
:1056A000FCF7E0FFB8E0002003902FE00399C1EB86
:1056B000C1010B4BCA180399C1EB011303EB411154
:1056C000202303EB410188B20023F1210AF0BAFF45
:1056D000039819E0F400002044130020DC2100208E
:1056E000092D01082C150020B42A0108752A01088B
:1056F000412D0108253264002D0000003A00000011
:10570000A517002038003100401C0390039805289D
:10571000CCD381E0414890F8780208B1404D00E0D8
:10572000404D0020039013E00399C1EBC1014A19D9
:105730000399C1EB011303EB4111202303EB41015A
:1057400088B20023F1210AF07DFF0398401C0390EA
:1057500003980228E8D35FE0304890F8780208B157
:105760002F4D00E02F4D0020039015E00399C1EB71
:10577000C1014A190399C1EB011303EB4111202325
:1057800003EB410188B20023F12100E043E00AF07D
:1057900059FF0398401C039003980228E6D33BE08E
:1057A0000020039013E02049039B01EBC30219463C
:1057B000C3EB011303EB4111202303EB410188B23A
:1057C0000023F1210AF03EFF0398401C0390039848
:1057D0000228E8D320E000BF00BF00BF00BF00BF29
:1057E0000020039013E01149039B01EBC30219460B
:1057F000C3EB011303EB4111202303EB410188B2FA
:105800000023F1210AF01EFF0398401C0390039827
:105810000228E8D300E000BF00BF7FBD2C150020A8
:10582000B42A0108752A0108412D0108512D0108EB
:1058300010B500F0BBFAFDF7E3FBFEF765FE10BD07
:1058400010B500F0B3FAFDF7DBFB10BD70B5FFF744
:10585000EFFF6FF07F403E4908603E4848603E4899
:1058600090F8780208B13D4E00E03D4E00233246EC
:10587000042118460AF0E6FE6FF07F4034490860C4
:105880004FF050104860344890F8780208B1354D18
:1058900000E0354D002424E0022C10D204EB8400FB
:1058A00005EB400204EB440000EBC4001A2303EBB9
:1058B000400081B2002318460AF0C4FE10E004EB59
:1058C000840005EB4002E01E00EB400303EBC00048
:1058D0001A2303EB400081B20023FA200AF0B2FE43
:1058E000641C002CD8D02148194908602048486021
:1058F000204890F8D000012829D100231EA2502171
:105900004FF49B700AF09EFE00231CA264214FF40A
:105910009B700AF097FE002319A278214FF49B7028
:105920000AF090FE002317A28C214FF49B700AF01E
:1059300089FE002314A2A0214FF49B700AF082FE7E
:10594000002312A2B4214FF49B700AF07BFE70BDBD
:10595000F40000200352F3002C150020FD2501085F
:105960000B250108A7240108AD220108C0C0C00012
:10597000653434004413002056483A00564C3A002F
:1059800043483A00434C3A0050483A00504C3A00E1
:1059900070B5FFF755FF6FF07F4030490860304821
:1059A0004860304890F8780208B12F4E00E02F4E42
:1059B000002306F15802042118460AF043FE6FF056
:1059C0007F40264908604FF050104860254890F805
:1059D000780208B1264D00E0264D002438E0062C60
:1059E0001AD2022C06D9082C04D24FF050101B49B1
:1059F000486003E04FF050101849486004EB840001
:105A000005EB4002162304FB03F01A3081B2002399
:105A100018460AF017FE1AE0A01F022806D9082827
:105A200004D24FF050100D49486003E04FF0501081
:105A30000A49486004EB840005EB4002A01F1623CE
:105A400058431A3081B20023FA200AF0FBFD641C8F
:105A50000C2CC4D30220FCF70BFE70BDF400002018
:105A60000352F3002C150020FD2501080B25010829
:105A7000D5270108EF2601087CB50546B54890F802
:105A8000780208B1B44C00E0B44CB5484078042822
:105A90000FDA4FF05010B3494860B148407800EB3E
:105AA0008000B14901EB400200231A21FA200AF0DC
:105AB000C9FD012D01D1012000E0002000900098D7
:105AC00020B14FF47F00A749486003E04FF0501029
:105AD000A449486014235C221821582002F0F6F8EB
