:020000040800F2
:10000000586A0020C1010008E9AE00083D7F0008E1
:10001000B5AD000829130008E11301080000000035
:1000200000000000000000000000000055D10008A2
:10003000091600080000000069B9000851EA00082C
:10004000DB010008DB010008DB010008A9C3000890
:10005000DB010008DB010008DB010008DB01000810
:10006000DB01000809720008DB010008DB01000861
:10007000DB010008DB010008DB010008DB010008F0
:10008000DB010008DB010008DB010008DB010008E0
:10009000DB010008DB010008DB010008DB010008D0
:1000A000DB010008DB010008DB010008DB010008C0
:1000B000B7EC0008DB010008DB010008DB010008E9
:1000C000DB010008DB010008DB010008DB010008A0
:1000D000DB01000841000108DB010008DB0100082A
:1000E000F1710008DB010008DB010008DB010008FA
:1000F000DB010008DB010008DB010008DB01000870
:10010000DB010008DB010008DB010008DB0100085F
:10011000DB010008DB010008CDEC0008DB01000872
:10012000DB010008DB010008DB010008DB0100083F
:10013000DB010008DB010008DB010008DB0100082F
:10014000DB010008DB010008DB010008DB0100081F
:10015000DB010008DB010008DB010008DB0100080F
:10016000DB010008DB010008DB010008DB010008FF
:10017000DB010008A1AF0008DB010008DB0100087B
:10018000DB010008DB010008DB010008DB010008DF
:10019000DB010008DB010008DB010008DB010008CF
:1001A000DB010008DB010008DB010008DFF80CD0F0
:1001B00000F0F6FA004800471D340108586A002094
:1001C0000648804706480047FEE7FEE7FEE7FEE7F1
:1001D000FEE7FEE7FEE7FEE7FEE7FEE72DEB0008A1
:1001E000AD01000840EA01039B0703D009E008C9FC
:1001F000121F08C0042AFAD203E011F8013B00F8EC
:10020000013B521EF9D27047D2B201E000F8012B37
:10021000491EFBD270470022F6E710B513460A4686
:1002200004461946FFF7F0FF204610BD10B5002226
:1002300000E0521C835C8C5CA34201D1002BF8D1FE
:10024000D8B2E1B2401A10BD2DE9FE4F804681EAD6
:100250000300C00F0C46009021F0004123F0004540
:10026000B8EB0200A94105D24046214690461C4603
:100270000B46024623F00040104347D0270DC7F33A
:100280000A00C3F30A510290401A019040286BDA29
:10029000C3F3130040F4801B0098924620B1002362
:1002A000D2EB030A63EB0B0B01985946C0F14002F5
:1002B000504600F0B7F906460D4650465946019A99
:1002C00000F0CFF910EB08006141002487EA1152D9
:1002D00084EAE7731A4340D0009A62B3019A012A74
:1002E0004FEA075215DC001B61EB02014FF00042A0
:1002F00002EA0752CDE90042001C41F58011324666
:100300002B4600F0CFF903B0BDE8F08F4046214600
:10031000F9E7001B61EB0201001C41F58013001896
:100320005B412018A2F5001747EB030140EAD570A6
:10033000B6196D4111E06D084FEA360645EAC07501
:100340004FEA0752001B61EB0201001C41F58011CE
:1003500049084FEA30000019514132462B4603B09C
:10036000BDE8F04F00F08FB9009801224000002353
:10037000D0EB020263EBE073009821464FEAE07491
:10038000B8EB000061EB0401E9E783F000435BE7B1
:1003900081F0004158E72DE9FE4F81EA030404F0A3
:1003A000004421F0004100944FF0000B23F0004383
:1003B00050EA01045ED052EA03045BD0C3F30A544E
:1003C000C1F30A552C44A4F2F3340194A0FB025467
:1003D000C1F3130141F48011C3F3130343F48013F9
:1003E00001FB024400FB034E840A970A44EA81544D
:1003F00047EA8357A4FB076802958D0A05FB07852A
:100400004FEA932C04FB0C542705029D4FEA065833
:1004100047EA1637B5EB08056EEB070C870E920E10
:1004200047EA811742EA8312A7FB0201B6EB0B01F0
:1004300064EB00042B0D43EA0C335E1844EB1C50B4
:10044000DA465146E7FB0201C5F313044FEA0B33CA
:1004500043EA14534FEA0432019C43EA0603A4F131
:100460000C040294009CCDE900B400F01BF903B029
:10047000BDE8F08F00200146F9E72DE9F04D81EA53
:10048000030404F0004B21F0004514464FF0000A2D
:1004900023F0004150EA050220D054EA01021DD0A9
:1004A000C5F30A570246C5F31303C1F31300C1F3A2
:1004B0000A5640F4801543F48013A7EB0608101B7E
:1004C000D64608F2FD3873EB050002D308F10108A7
:1004D00001E092185B41B8F1000F03DA00200146F9
:1004E000BDE8F08D00204FF48011064684460EE0F2
:1004F000171B73EB050705D3121B63EB05030643BC
:100500004CEA010C49084FEA300092185B4150EA6E
:100510000107EDD152EA030012D082EA040083EA17
:100520000501084305D0101BAB4106D20122002370
:1005300006E000224FF0004302E06FF0010253108A
:100540001AEB06004CEB085110EB0A0041EB0B01D3
:10055000BDE8F04D00F097B80EB5C10F80EAE0702D
:100560000844CA07002140F233438DE80E000A46D2
:100570000B4600F097F803B000BD0EB540F23341D2
:1005800002910021CDE900110A460B4600F08AF8DD
:1005900003B000BDC1F30A5210B5C1F3130140F21C
:1005A000FF3341F480119A4201DA002010BD40F27D
:1005B00033439A42A2F2334203DC524200F041F844
:1005C00010BD904010BD000030B5041E71F1000454
:1005D00004DB4FF00044404264EB0101141E73F150
:1005E000000405DB1C464FF00043524263EB04035A
:1005F0008B4208BF824230BD30B50B460146002019
:100600002022012409E021FA02F59D4205D303FAD4
:1006100002F5491B04FA02F52844151EA2F1010255
:10062000F1DC30BD202A04DB203A00FA02F1002080
:1006300070479140C2F1200320FA03F31943904020
:100640007047202A04DB203A21FA02F0002170478B
:1006500021FA02F3D040C2F120029140084319462A
:100660007047202A06DBCB17203A41FA02F043EA12
:10067000E07306E041FA02F3D040C2F1200291405B
:1006800008431946704710B5141E73F1000408DAC8
:10069000401C41F1000192185B411A4301D120F046
:1006A000010010BD2DE9F04D92469B4611B1B1FA03
:1006B00081F202E0B0FA80F220329046FFF7B2FFFA
:1006C00004460F4640EA0A0041EA0B0153465A46E7
:1006D000084313D0114653EA010019D0C8F1400273
:1006E0005046FFF7AEFF05460E4650465946424675
:1006F000FFF798FF084305D0012004E02046394663
:10070000BDE8F08D0020054346EAE0762C433743F0
:100710000A986305E40AA0EB08000022FD0A44EAF7
:1007200047540A3002D500200146E9E701051019B7
:100730006941DDE9084500196941BDE8F04DA2E7CE
:1007400070B521F0004303430CD0C1F30A550024D7
:10075000D5EB040564EB0403D617AD1AB34102DBF5
:100760000020014670BD201841EB025170BD000011
:1007700030B5041E71F1000404DB4FF00044404228
:1007800064EB0101141E73F1000405DB1C464FF0FD
:100790000043524263EB0403994208BF904230BDCC
:1007A000064C074D06E0E06840F0010394E80700BE
:1007B00098471034AC42F6D3FFF7FCFCD02208086F
:1007C000F02208082DE9F04D00231A461B1A8A4131
:1007D00003DB00200146BDE8F08DC1F30A52C1F3EE
:1007E000130141F480154FF0000BD10702D100181E
:1007F0006D41521E0027044640F2FF11384601EBBE
:10080000620A3E468046024600204FF48011FFF700
:1008100018FFC2197141BB1846EB0100B4EB030C81
:1008200075EB000C04D3E41A65EB000517460E4681
:10083000241908F101006D4180463428E3DDF919DF
:1008400046EB0600091BA84103D24FF0FF321346C6
:1008500001E0002213461BEB070046EB0A51BDE8FE
:10086000F04DFFF710BF70B58C1810F8015B15F054
:10087000070301D110F8013B2A1106D110F8012B12
:1008800003E010F8016B01F8016B5B1EF9D12B0737
:1008900005D40023521E0DD401F8013BFAE710F8ED
:1008A000013BCB1A921C03E013F8015B01F8015BDA
:1008B000521EF9D5A142D8D3002070BD70B50546AF
:1008C0000C4608480560204600F00EF800BF0548B9
:1008D00000680028FBD100214FF080400EF0FDFCA5
:1008E00070BD0000AC0100203EB5044600214FF071
:1008F00080400EF0F2FC0022012188070EF034FE49
:10090000022C02D10B20019004E0012C02D142F60E
:10091000DF6001900520ADF800000020ADF8080070
:10092000ADF8020069464FF080400EF073FE0121E1
:1009300088070EF0CFFC012188070EF0BCFC0122D5
:10094000114690070EF010FE012188070EF0C5FC3D
:100950003EBD000010B5C8211448FFF75CFC012023
:100960001249087006204870002088700D20C87059
:1009700000200871487188710D4890F85800C871BE
:1009800008210A4807F0DCFA001208490872082119
:10099000064807F0D5FA054948720A21034810F0C5
:1009A00021FD01200349087010BD000060230020D4
:1009B0005C1300204801002070B504460D465948DC
:1009C000594948602CBB59480068642806D2002366
:1009D00007220421184607F0F1FA06E053490023E4
:1009E00007220868042107F0E9FA5049002307228A
:1009F0000868042107F0E2FA00234D4A82215020C2
:100A000011F0DAF900234BA28221A02011F0D4F9D1
:100A10001FE0012C1DD145480068642806D2002340
:100A200006220321184607F0C9FA06E03F490023D1
:100A300006220868032107F0C1FA00233C4A8221FC
:100A4000502011F0B9F900233AA28221A02011F020
:100A5000B3F99DB93549002307224868042107F0FE
:100A6000ADFA0023324AA021502011F0A5F900234D
:100A700031A2A021084611F09FF914E0012D12D1F6
:100A80002A49002306224868032107F097FA002329
:100A9000274AA021502011F08FF9002326A2A0217F
:100AA000084611F089F9214900230622C86803216C
:100AB00007F084FA00231E4ABE21502011F07CF971
:100AC00000231EA2BE21A02011F076F917490023B1
:100AD00007228868042107F071FA0023144A822152
:100AE0004FF48C7011F068F9002315A282214FF4A5
:100AF000B47011F061F90D4900230622886F194680
:100B000007F05CFA00230A4AA0214FF48C7011F020
:100B100053F900230BA2A0214FF4B47011F04CF94B
:100B200070BD00006534340000010020541800201E
:100B30007422002056000000410000005700000011
:100B4000A6B800006D41480070B586B00020049042
:100B5000002400250126FA490870FA4908704FF070
:100B6000501007F0A3FD002001F0E2FD00200390EB
:100B70000CF084FCAFE3BDF81000401C80B2049080
:100B8000204606F0D1FBC5B2EF480078012801D11C
:100B900001262C466FF07F40EC490860EC48007855
:100BA00038B10020EA49087005F0C8FE0020E94984
:100BB0000870E9480078012804D10020E64908704F
:100BC0000BF0CAFC012E03D1204601F025FB0026C4
:100BD000DB480078012804D10BF08CFC0020D849B8
:100BE0000870DE4890F86D0138B9DD4A92F820109F
:100BF00092F82100FFF7E0FE22E0D84890F86D015E
:100C000001281DD10AF0D8F802F09CFB6FF07F405C
:100C1000CE490860D34848600023D3A2F1214FF4A5
:100C2000CC7011F0C9F80220CC4981F86D01CC4894
:100C3000B0F8DC01401CCA49A1F8DC010DF0EAFE65
:100C4000CB48007870B1CB480078052805D10CF06E
:100C500015FC0020C749087004E0C6480078401C15
:100C6000C4490870C4484078012870D1C34800784E
:100C70000028FAD1C04880780028F6D1012607F074
:100C8000ABFB05909DF81400BD4908709DF8140059
:100C900000285CD09DF81400202873D2DFE800F013
:100CA00072D0D1D2FEFDD5D4D3D6D7D8FCDAD9FBB9
:100CB00063584C31107272FA7289B072F97272F81C
:100CC00014B1012C1AD106E0AE48007810B9062004
:100CD000AD49087013E0AB48007870B90020A04916
:100CE00081F858000CF0CAFB4FF0501007F0DEFC02
:100CF000012001F01DFD0DF08DFE00E000BF00BFE2
:100D0000E8E214B1012C14D100E013E09D48007812
:100D100070B90220924981F858000CF0AFFB4FF0F7
:100D2000501007F0C3FC012001F002FD0DF072FE2F
:100D300000E000BF00BFCDE234B99248007810B99E
:100D400016209149087000E000BF00BFC2E2C2E275
:100D500034B98C48007810B917208B49087000E02E
:100D600000BF00BFB6E27D4890F86D0188B914B1AC
:100D7000012C0CD107E08348007810B90D2082497E
:100D8000087005E0A5E204207549487000E000BF46
:100D90000EE0724890F86C0150B900206F4981F85C
:100DA0006D014FF0501007F081FC002001F0C0FCF5
:100DB00090E26B4890F8580058B9052C02DD201FCE
:100DC000C4B21CE0032C1ADA002C18DD601EC4B279
:100DD00015E0634890F85800022810D1062C01D184
:100DE00002240CE0052C01D1022408E0022C02D1DF
:100DF000601EC4B203E0012C01D1601EC4B269E2DE
:100E0000574890F8580058B9052C04DA012C02DD37
:100E1000201DC4B213E0022C11DA601CC4B20EE033
:100E20004F4890F85800022809D1022C01D106241D
:100E300005E0012C01D1022401E004B9012449E2BA
:100E400000BF00BF00BF00BF00BF00BF00BF00BFAA
:100E500000BF00BFA01E072871D2DFE800F0043CED
:100E600056FD97C7E2004748007888BB3C4890F899
:100E70005800B0B97620ADF804003020ADF8060077
:100E80004C20ADF8080001A804F08FFB344906E0BF
:100E900007E115E1E3E0E3E00BE103E141E1C865CF
:100EA00012E02F4890F8580002280DD17620ADF8B6
:100EB00004003020ADF806005020ADF8080001A86D
:100EC00004F0BBFB264988670AF0A6F80CF0D6FAB6
:100ED0000DF0A0FDC1E02B480078A8B9204890F89B
:100EE000580068B97620ADF804004620ADF8060039
:100EF0004C20ADF8080001A804F057FB184908661B
:100F00000AF08AF80DF086FDA7E01E480078A8B91F
:100F1000134890F8580068B97620ADF804005C20BA
:100F2000ADF806004C20ADF8080001A804F03DFB28
:100F30000B4948660AF070F80DF06CFD8DE08BE00F
:100F40005500002057000020FA000020000100207A
:100F50007E000020A20000203D0000205418002048
:100F60005C13002038003100C8B7C8CF0000000073
:100F700048010020BA000020F0000020D800002026
:100F8000BB000020B600002059000020D5480078A2
:100F900058BBD54890F8580078B94FF4B870ADF800
:100FA00004003020ADF806004C20ADF8080001A880
:100FB00004F00FFCCC49C86613E0CB4890F8580009
:100FC00002280ED14FF4B870ADF804003020ADF80F
:100FD00006004C20ADF8080001A804F0FAFBC24955
:100FE000C8670AF019F80DF015FD36E0BD48007825
:100FF000B0B9BD4890F8580070B94FF4B870ADF86A
:1010000004004620ADF806004C20ADF8080001A809
:1010100004F0DFFBB449086709F0FEFF0DF0FAFCAD
:101020001BE0B0480078B0B9AF4890F8580070B9EC
:101030004FF4B870ADF804005C20ADF806004C2009
:10104000ADF8080001A804F0C4FBA749486709F0FF
:10105000E3FF0DF0DFFC00E000BF00BF3AE139E143
:10106000A048007890B90320A04908700DF0E8FC72
:1010700001209F4908709FED9F0A9F4880ED1D0A3F
:101080000120984908700CF0F9F909E0032097490C
:1010900008700020934908700CF0F0F90DF0C8FCBE
:1010A00018E117E18F48007810B9122093490870B1
:1010B00010E18C48007810B906209049087009E1C9
:1010C000012C2DD1884890F8580090B985480078B7
:1010D00030BB0220844981F858000CF0CFF94FF062
:1010E000501007F0E3FA012001F022FB0DF092FC12
:1010F00016E07D4890F85800022811D17948007810
:1011000070B90020784981F858000CF0B7F94FF019
:10111000501007F0CBFA012001F00AFB0DF07AFC29
:10112000D8E0A01E07287CD2DFE800F004344ED0BF
:10113000689AB5006B48007848BB6B4890F8580037
:1011400070B97620ADF804003020ADF806004C20D0
:10115000ADF8080001A804F028FA6349C86512E058
:10116000614890F8580002280DD17620ADF80400AF
:101170003020ADF806005020ADF8080001A804F0BA
:101180005CFA5949886709F047FF0CF077F90DF0D0
:1011900041FC9CE053480078A8B9534890F85800A7
:1011A00068B97620ADF804004620ADF806004C2062
:1011B000ADF8080001A804F0F8F94B49086609F0F9
:1011C0002BFF0DF027FC82E046480078A8B946487E
:1011D00090F8580068B97620ADF804005C20ADF8AE
:1011E00006004C20ADF8080001A804F0DEF93E49E5
:1011F000486609F011FF0DF00DFC68E039480078F1
:1012000068BB394890F8580088B94FF4B870ADF809
:1012100004003020ADF806004C20ADF8080001A80D
:1012200000E053E004F0D5FA2F49C86613E02E48D9
:1012300090F8580002280ED14FF4B870ADF80400B1
:101240003020ADF806004C20ADF8080001A804F0ED
:10125000C0FA2549C86709F0DFFE0DF0DBFB36E078
:1012600020480078B0B9204890F8580070B94FF481
:10127000B870ADF804004620ADF806004C20ADF87B
:10128000080001A804F0A5FA1749086709F0C4FE90
:101290000DF0C0FB1BE013480078B0B9124890F87D
:1012A000580070B94FF4B870ADF804005C20ADF888
:1012B00006004C20ADF8080001A804F08AFA0A499B
:1012C000486709F0A9FE0DF0A5FB00E000BF00BFD4
:1012D00000E000BF00BF0948007815283FF44BAC80
:1012E00006B070BDB60000205C130020B9000020DD
:1012F0003400002000000000541800205900002095
:1013000010B54FF48061024806F0F0FD10BD0000FA
:101310000008024010B54FF48061024806F0E8FD75
:1013200010BD00000008024000BFFEE710B50446F3
:10133000C8216848FEF76FFF0120664908706648BB
:10134000007810B90846847007E0634800780128E7
:1013500003D104F110005F498870A5205D494870F1
:101360005D48007800284BD1012C05D0022C03D019
:10137000092C01D00A2C1BD1601E584951F82000BD
:10138000000E5449C870601E544951F82000000CEA
:1013900050490871601E514931F82000000A4D493A
:1013A0004871601E4D4911F820004A4988717EE05D
:1013B000601E4A4951F820000A21B0FBF1F0000EEE
:1013C0004449C870601E454951F820000A21B0FB0D
:1013D000F1F0000C3F490871601E404951F82000AF
:1013E0000A21B0FBF1F0000A3A494871601E3B49FE
:1013F00051F820000A21B0FBF1F03649887156E01F
:1014000035480078012852D1012C05D0022C03D098
:10141000032C01D0042C1FD104F10F002F4951F8E7
:101420002000000E2B49C87004F10F002B4951F821
:101430002000000C2749087104F10F00274931F8FA
:101440002000000A2349487104F10F00234911F8D4
:101450002000204988712AE004F10F001F4951F84B
:1014600020000A21B0FBF1F0000E1A49C87004F107
:101470000F001A4951F820000A21B0FBF1F0000CCE
:101480001449087104F10F00144951F820000A2191
:10149000B0FBF1F0000A0F49487104F10F000F4949
:1014A00051F820000A21B0FBF1F00A4988710721A8
:1014B000084806F045FD00120649C8710721054895
:1014C00006F03EFD03490872092102480FF08AFF29
:1014D00010BD000060230020BE0000206418002022
:1014E00010B50121C8050AF041FB00214FF40000AE
:1014F0000AF03CFB10BD000001460020034A526880
:101500000A400AB1012000E00020704700B002400C
:1015100070B50021002200230024344D2D68344E84
:101520003540324E356035462D68066835432F4EBE
:10153000356035466D6B25F00705756335466D6B77
:1015400046683543294E7563456835B9C568290233
:10155000058A2A04057D2B0621E04568012D05D169
:10156000C5682902058A2A04002318E04568022D6F
:1015700005D1C56869010569EA0200230FE04568E5
:10158000032D06D1C56869010569AA024569EB0307
:1015900005E0C568290105692A0245692B0341EA6E
:1015A0000205866835431D43104EB66B35430F4E1A
:1015B000B5638569F56335462D6C6FF30D053564AC
:1015C00035462D6CC6693543084E3564858C2C0430
:1015D00035466D6C05F04045756435466D6C066AA0
:1015E00026433543014E756470BD000000B00240D3
:1015F000FCE0FCFF0348006840F00100014908607E
:101600007047000000B002407047000010B586B07F
:101610000446012108460AF099FA012110200AF037
:10162000E5FA07220A21214806F034FC07220921A5
:101630001E4806F02FFC00208DF8160001208DF8C2
:10164000170002208DF814000002049002208DF88B
:10165000150004A9154806F0D5FB02208DF81400EA
:101660004002049004A9114806F0CCFB009400202D
:10167000ADF80400ADF80600ADF80800ADF80C00B8
:101680000C20ADF80A00694609480EF0C5FD09F0C6
:101690002CFC012240F2255105480EF097FD012156
:1016A00003480EF050FD06B010BD000000000240DF
:1016B000001001407CB504466FF07F40F749086098
:1016C000012C01D1012000E000200090009820B101
:1016D0004FF47F00F149486003E04FF05010EF49AC
:1016E0004860EF4900230722D1F8B800042106F032
:1016F00065FC122368221A21582007F00BF80023FA
:10170000E84A1A21582010F057FB0023E64A1A2114
:10171000AA2010F051FB022C01D1012000E0002092
:101720000090009820B14FF47F00DC49486003E04E
:101730004FF05010D9494860D94900230722D1F809
:10174000BC00042106F03AFC122368222E21582006
:1017500006F0E0FF0023D34A3021582010F02CFB84
:101760000023D14A3021AA2010F026FB032C01D1FE
:10177000012000E000200090009820B14FF47F008D
:10178000C649486003E04FF05010C4494860C4495E
:1017900000230722D1F8C000042106F00FFC122319
:1017A00068224621582006F0B5FF0023BD4A462195
:1017B000582010F001FB0023BB4A08324621AA2022
:1017C00010F0FAFA042C01D1012000E00020009072
:1017D000009820B14FF47F00B049486003E04FF01B
:1017E0005010AE494860AE4900230722D1F8C4002A
:1017F000042106F0E3FB12237A225A21582006F036
:1018000089FF0023A74A5C21582010F0D5FA002355
:10181000A54A08325C21AA2010F0CEFA052C01D18D
:10182000012000E000200090009820B14FF47F00DC
:101830009A49486003E04FF0501098494860984931
:1018400000230822D1F8C800042106F0B7FB1223B8
:101850007A227021582006F05DFF0023914A722100
:10186000582010F0A9FA00238F4A10327221B420B8
:1018700010F0A2FA062C01D1012000E00020009017
:10188000009820B14FF47F008449486003E04FF096
:10189000501082494860824900230822D1F8CC00C8
:1018A000042106F08BFB12237A228621582006F0B1
:1018B00031FF00237B4A8821582010F07DFA002355
:1018C000794A10328821B42010F076FA072C01D121
:1018D000012000E000200090009820B14FF47F002C
:1018E0006E49486003E04FF050106C4948606C4806
:1018F00090F8D50008B16D4D00E06D4D12237A22AD
:1019000018214FF4A97006F005FF654890F8D00043
:10191000C0EBC000421900231A214FF4A97010F047
:101920004BFA082C01D1012000E000200090009823
:1019300020B14FF47F005949486003E04FF0501048
:1019400056494860564890F8D50008B1594D00E016
:10195000594D12237A222E214FF4A97006F0DAFE97
:101960004F4890F8D100C0EBC0004219002330214D
:101970004FF4A97010F020FA092C01D1012000E0E9
:1019800000200090009820B14FF47F004349486048
:1019900003E04FF0501041494860414890F8D500AD
:1019A00008B1424D00E0424D12237A2244214FF407
:1019B000A97006F0AFFE3A4890F8D200C0EBC00024
:1019C0004219002346214FF4A97010F0F5F90A2CB2
:1019D00001D1012000E000200090009820B14FF4D8
:1019E0007F002E49486003E04FF050102B494860BB
:1019F0002B4890F8D50008B12C4D00E02C4D122357
:101A00007A225A214FF4A97006F084FE244890F8F7
:101A1000D300C0EBC000421900235C214FF4A97031
:101A200010F0CAF90B2C01D1012000E00020009039
:101A3000009820B14FF47F001849486003E04FF050
:101A4000501016494860164890F8D50008B1174D57
:101A500000E0174D12237A2270214FF4A97006F08E
:101A600059FE0F4890F8D400C0EBC0004219002383
:101A700072214FF4A97010F09FF9072C22D2DFE8F1
:101A800004F01D0405060708090000BF00BF00BFE1
:101A900000BF00BF022001F09FFC17E00001002002
:101AA0005C1300207422002094460108264501089A
:101AB000D2440108EE440108E0440108042001F08A
:101AC0008BFC03E0072001F087FC00BF00BF01F0A2
:101AD00039FC0C2C64D2DFE804F0060A0B0C0D0E66
:101AE0000F3810393A3B032000F0DAFE59E000BF0E
:101AF00000BF00BF00BF00BF53E06FF07F402A4926
:101B000008602A4848602A4890F8D50008B1294D55
:101B100000E0294D0020019013E00199C1EBC101C3
:101B20004A190199C1EB011303EB4111202303EB87
:101B3000410188B20023F12110F03EF90198401CC8
:101B4000019001980228E8D32BE000BF00BF00BF3E
:101B50006FF07F401449086014484860144890F8BA
:101B6000D50008B1154D00E0154D0020019013E09F
:101B70000199C1EBC1014A190199C1EB011303EBB2
:101B80004111202303EB410188B20023F12110F021
:101B900013F90198401C019001980228E8D300E055
:101BA00000BF00BF7CBD00000001002038003100F4
:101BB0005C130020EE440108E044010826450108BA
:101BC000D24401087CB504466FF07F40FE490860AE
:101BD000012C01D1012000E000200090009820B1EC
:101BE0004FF47F00F849486003E04FF05010F64989
:101BF0004860F64890F8D50008B1F54D00E0F54D85
:101C0000122368221A21582006F084FDEF4800783C
:101C1000C0EBC000421900231A21582010F0CCF864
:101C2000022C01D1012000E000200090009820B19A
:101C30004FF47F00E449486003E04FF05010E24960
:101C40004860E24890F8D50008B1E34D00E0E34D6C
:101C5000122368222E21582006F05CFDDB4890F804
:101C60002000C0EBC000421900233021582010F0A2
:101C7000A3F8032C01D1012000E00020009000987F
:101C800020B14FF47F00D049486003E04FF050107E
:101C9000CD494860CD4890F8D50008B1CE4D00E060
:101CA000CE4D122368224621582006F033FDC74846
:101CB00090F82100C0EBC0004219002346215820B3
:101CC00010F07AF8042C01D1012000E000200090EF
:101CD000009820B14FF47F00BB49486003E04FF00B
:101CE0005010B9494860B949486A002307220421C5
:101CF00006F064F912237A225A21582006F00AFDD0
:101D00000023B74A5C21582010F056F80023B54A4A
:101D10005C21AA2010F050F8052C01D1012000E030
:101D200000200090009820B14FF47F00A649486041
:101D300003E04FF05010A4494860A449886A00238A
:101D40000722042106F03AF912237A227021582042
:101D500006F0E0FC0023A24A7221582010F02CF873
:101D60000023A04A7221AA2010F026F8062C01D1E7
:101D7000012000E000200090009820B14FF47F0087
:101D80009149486003E04FF050108F4948608F49F7
:101D9000886C00230722042106F010F912237A220E
:101DA0008621582006F0B6FC00238D4A8821582051
:101DB00010F002F800238CA28821AA200FF0FCFF6B
:101DC000072C01D1012000E000200090009820B1F4
:101DD0004FF47F007C49486003E04FF050107A498F
:101DE00048607A48006BE0B17849086B002306220E
:101DF000194606F0E3F812237A2218214FF4A9704D
:101E000006F088FC0023764A1A214FF4A9700FF0DF
:101E1000D3FF0023764A1A214FF4C7700FF0CCFF8E
:101E200019E012237A2218214FF4A97006F072FCEF
:101E3000664890F8D50038B900236EA21A214FF4F5
:101E4000A9700FF0B9FF06E000236CA21A214FF42D
:101E5000A9700FF0B1FF082C01D1012000E0002093
:101E60000090009820B14FF47F005749486003E08C
:101E70004FF0501054494860544890F8D50008B1CC
:101E80005F4D00E05F4D5149486B0023072204215C
:101E900006F094F812237A222E214FF4A97006F04E
:101EA00039FC00234E4A30214FF4A9700FF084FF13
:101EB00000234C4A083230214FF4D2700FF07CFFDF
:101EC000092C01D1012000E000200090009820B1F1
:101ED0004FF47F003C49486003E04FF050103A490E
:101EE00048603A49886B00230722042106F066F80F
:101EF00012237A2244214FF4A97006F00BFC002330
:101F0000374A46214FF4A9700FF056FF0023354A97
:101F100046214FF4D2700FF04FFF0A2C01D101205F
:101F200000E000200090009820B14FF47F00264987
:101F3000486003E04FF05010234948602349C86BC4
:101F400000230822042106F039F812237A225A21AC
:101F50004FF4A97006F0DEFB0023214A5C214FF408
:101F6000A9700FF029FF00231E4A10325C214FF4A4
:101F7000D7700FF021FF0B2C01D1012000E00020D1
:101F80000090009820B14FF47F000F49486003E0B3
:101F90004FF050100C4948600C49086C0023052292
:101FA000042106F00BF812237A2270214FF4A97055
:101FB00006F0B0FB00230A4A72214FF4A9700FF01B
:101FC000FBFE002320E00000000100205C13002045
:101FD00026450108D2440108504501084245010840
:101FE000742200209446010820562F6D73000000D3
:101FF0007E3E0108B9D8B1D5000000004F4646002A
:102000009A4501085E45010875A272214FF4D2700D
:102010000FF0D2FE0C2C01D1012000E00020009036
:10202000009820B14FF47F006F49486003E04FF003
:1020300050106D4948606D49486C00230522042109
:1020400005F0BCFF12237A2286214FF4A97006F016
:1020500061FB0023664A88214FF4A9700FF0ACFEA3
:1020600000235FA288214FF4D2700FF0A5FE0D2C43
:102070001AD2DFE804F019121314070809150A0B25
:102080000C0D0E0000BF00BF00BF00BF00BF00BFAF
:1020900000BF022001F0A0F90AE000BF00BF00BFAE
:1020A000072001F099F903E0042001F095F900BF41
:1020B00000BF01F047F90D2C7ED2DFE804F0070BDA
:1020C000335B85868788898A8B8C8D00022000F09F
:1020D000E7FB83E06FF07F40434908604548486074
:1020E000424890F8D50008B1434D00E0434D002030
:1020F000019013E00199C1EBC1014A190199C1EBAB
:10210000011303EB4111202303EB410188B20023AB
:10211000F1210FF051FE0198401C01900198022816
:10212000E8D35BE06FF07F402F490860314848609A
:102130002E4890F8D50008B1314D00E0314D002017
:10214000019013E00199C1EBC1014A190199C1EB5A
:10215000011303EB4111202303EB410188B200235B
:10216000F1210FF029FE0198401C019001980228EE
:10217000E8D333E06FF07F401B4908601D4848609A
:102180001A4890F8D50008B11D4D00E01D4D002003
:10219000019015E00199C1EBC1014A190199C1EB08
:1021A000011303EB4111202303EB410188B200230B
:1021B000F1210FF001FE00E00FE00198401C0190BA
:1021C00001980228E6D309E000BF00BF00BF00BFAE
:1021D00000BF00BF00BF00BF00E000BF00BF7CBD6C
:1021E00020412F6D73000000000100205C130020CF
:1021F000742200203800310026450108D24401082D
:10220000504501084245010810B504F0F9F901F004
:1022100099F802F0A1FC10BD7CB50446FE4890F888
:102220005800002872D1012C01D1012000E00020CB
:102230000090009820B14FF47F00F849486003E017
:102240004FF05010F549486014235C221821762085
:1022500006F060FA6FF07F40F0490860EE4890F8B1
:10226000D50060B9EC4890F85800C0EBC000EC49CC
:10227000421800231A2176200FF09EFD0BE0E6485D
:1022800090F85800C0EBC000E649421800231A211C
:1022900076200FF091FD022C01D1012000E00020FA
:1022A0000090009820B14FF47F00DC49486003E0C3
:1022B0004FF05010D949486014235C222E2176201B
:1022C00006F028FA6FF07F40D4490860D249C86D03
:1022D00000230722042105F071FE0023D24A302199
:1022E00076200FF069FD0023D04A3021C8200FF07E
:1022F00063FD032C01D1012000E000200090009834
:1023000028B14FF47F00C549486004E0EFE04FF08A
:102310005010C249486014235C224421762006F004
:10232000F9F96FF07F40BD490860BB49086E002392
:102330000722042105F042FE0023BB4A46217620F5
:102340000FF03AFD0023B94A4621C8200FF034FDB2
:10235000042C01D1012000E000200090009820B161
:102360004FF47F00AD49486003E04FF05010AB4997
:10237000486014235C225A21762006F0CBF96FF0D6
:102380007F40A6490860A449486E00230722042123
:1023900005F014FE0023A44A5C2176200FF00CFD0A
:1023A0000023A24A5C21C8200FF006FD062C01D1B3
:1023B000012000E000200090009820B14FF47F0041
:1023C0009649486003E04FF0501094494860142348
:1023D0005C222E21C80006F09DF96FF07F408F49E6
:1023E00008608D49C86E00230722042105F0E6FD30
:1023F00000238D4A30214FF4B8700FF0DDFC00232C
:102400008A4A921D30214FF4E1700FF0D5FC072C61
:1024100001D1012000E000200090009820B14FF48D
:102420007F007E49486003E04FF050107B494860D0
:1024300014235C224421900006F06CF96FF07F4079
:10244000764908607449086F00230722042105F0CB
:10245000B5FD0023744A46214FF4B8700FF0ACFC70
:102460000023724A921D46214FF4E1700FF0A4FC44
:10247000082C01D1012000E000200090009820B13C
:102480004FF47F006549486003E04FF05010634906
:10249000486014235C225A21900006F03BF96FF04B
:1024A0007F405E4908605C49486F00230722042191
:1024B00005F084FD00235C4A5C2188000FF07CFC61
:1024C00000235A4A921D5C214FF4E1700FF074FC16
:1024D000012C03D1062000F07FFFC0E01CB90320CF
:1024E00000F07AFFBBE0082000F076FFB7E04A4832
:1024F00090F858000228F0D1012C01D1012000E011
:1025000000200090009820B14FF47F0043494860BC
:1025100003E04FF050104149486014235C22182119
:10252000762006F0F7F86FF07F403C4908603A48A3
:1025300090F8D50060B9384890F85800C0EBC0005A
:102540003749421800231A2176200FF035FC0BE0A2
:10255000314890F85800C0EBC000324942180023BF
:102560001A2176200FF028FC022C01D1012000E076
:1025700000200090009820B14FF47F002749486068
:1025800003E04FF0501025494860142368222E21A3
:10259000762006F0BFF86FF07F40204908601E49A2
:1025A000886F00230722012105F008FD00231E4A41
:1025B000302176200FF000FC00231C4A0C32302121
:1025C000C8200FF0F9FB062C01D1012000E000200B
:1025D0000090009820B14FF47F001049486003E05C
:1025E0004FF050100D49486014235C222E21C80082
:1025F00006F090F86FF07F40084908600649C86F00
:1026000000230722042105F0D9FC0023064A3021CB
:102610004FF4B8700CE000005C13002000010020B3
:102620004D440108DD43010874220020663E010884
:102630000FF0C2FB0023354A30214FF4E1700FF058
:10264000BBFB012C03D1062000F0C6FE07E01CB93D
:10265000032000F0C1FE02E0082000F0BDFE2C487F
:1026600090F86D01B0BB092C3DD2DFE804F00509FC
:102670003435363C37383900002000F011F933E0AA
:1026800000F060FE6FF07F402249086022484860F9
:10269000224890F8D50008B1214D00E0214D0020DE
:1026A000019013E00199C1EBC1014A190199C1EBF5
:1026B000011303EB4111202303EB410188B20023F6
:1026C000F1210FF079FB0198401C0190019802283C
:1026D000E8D309E009E000BF00BF00BF00BF00BFB2
:1026E00000F030FE00E000BF0EE000F02BFE6FF0C7
:1026F0007F40084908600848486000230AA2F12189
:102700004FF4CC700FF058FB7CBD00006C3E01080C
:102710005418002000010020380031005C13002014
:10272000DD430108C8430108C8B7C8CF0000000056
:1027300070B50646FFF768FD6FF07F404E490860B0
:102740004E4848604E4890F8D50008B14D4D00E025
:102750004D4D002305F12C02042118460FF02CFBEF
:102760006FF07F40444908604FF050104860444883
:1027700090F85800F0BB00243AE0042C1BD24048EB
:1027800090F8D50000EB400303EB00103F4B03EB48
:10279000C00004EB440303EB0413C21804EB440031
:1027A00000EBC4001A2303EB400081B2002318465B
:1027B0000FF002FB1BE0324890F8D50000EB40031D
:1027C00003EB0010314B03EBC00004EB440303EBBD
:1027D0000413C218201F00EB400303EBC0001A23B0
:1027E00003EB400081B20023FA200FF0E5FA641CED
:1027F000082C00E001E0C0D339E0214890F85800EF
:10280000022834D1002430E0042C16D21C4890F861
:10281000D50000EBC0001E4B03EB001000EB0412D0
:1028200004EB440000EBC4001A2303EB400081B228
:10283000002318460FF0C0FA16E0114890F8D500B2
:1028400000EBC000124B03EB001000EB0412201F42
:1028500000EB400303EBC0001A2303EB400081B2FE
:102860000023FA200FF0A8FA641C082CCCD316B968
:10287000002000F015F870BD000100200352F300A5
:102880005C13002004400108123F0108163B0108B8
:10289000463C010810B5032000F002F810BD00000E
:1028A00010B5044600F04EFD002C7CD16FF07F4047
:1028B000AD490860AD484860AD4890F8D5000028A3
:1028C00040D00023ABA2E7211C200FF075FA0023B3
:1028D000AAA2FB211C200FF06FFA0023A9A2E72176
:1028E0007E200FF069FA0023A7A2FB217E200FF0C3
:1028F00063FA0023A6A2E721DC200FF05DFA002393
:10290000A1A2FB21DC200FF057FA0023A2A2E721AD
:102910004FF49D700FF050FA00239BA2FB214FF45F
:102920009D700FF049FA00239DA2E7214FF4CC706F
:102930000FF042FA00239CA2FB214FF4CC700FF061
:102940003BFA10E1002399A2E7211C200FF034FA92
:10295000002398A2FB211C200FF02EFA002397A23F
:10296000E7217E200FF028FA002396A2FB217E208B
:102970000FF022FA002395A2E721DC200FF01CFAC9
:10298000002390A2FB21DC200FF016FA002391A275
:10299000E7214FF49D700FF00FFA002389A2FB216D
:1029A0004FF49D7000E010E00FF006FA00238BA2B8
:1029B000E7214FF4CC700FF0FFF9002389A2FB212F
:1029C0004FF4CC700FF0F8F9CDE0012C2CD16FF062
:1029D0007F406549086065484860002383A2E7217D
:1029E00066200FF0E9F9002382A2FB2166200FF098
:1029F000E3F9002381A2E721B6200FF0DDF90023DF
:102A000080A2FB21B6200FF0D7F900237FA2E72197
:102A10004FF4D3700FF0D0F900237EA2FB214FF4C6
:102A2000D3700FF0C9F99EE0022C4DD1504890F8B8
:102A3000D50020B300234FA2E7211C200FF0BCF9E2
:102A400000234EA2FB211C200FF0B6F9002354A254
:102A5000E7217E200FF0B0F9002370A2FB217E2039
:102A60000FF0AAF900236FA2E721DC200FF0A4F9F0
:102A700000236AA2FB21DC200FF09EF973E0002303
:102A80004AA2E7211C200FF097F9002349A2FB215D
:102A90001C200FF091F9002350A2E7217E200FF0B7
:102AA0008BF900234FA2FB217E200FF085F9002334
:102AB0005EA2E721DC200FF07FF9002349A2FB2171
:102AC000DC200FF079F94EE0032C4CD1284890F827
:102AD000D50020B3002327A2E7211C200FF06CF9BA
:102AE000002326A2FB211C200FF066F9002321A25F
:102AF000E7217E200FF060F9002348A2FB217E2011
:102B00000FF05AF9002347A2E721DC200FF054F917
:102B1000002342A2FB21DC200FF04EF923E000232A
:102B200022A2E7211C200FF047F9002321A2FB215C
:102B30001C200FF041F900231CA2E7217E200FF09A
:102B40003BF9002327A2FB217E200FF035F900235B
:102B500036A2E721DC200FF02FF9002321A2FB2170
:102B6000DC200FF029F910BD0001002038003100F1
:102B70005C1300204D454153000000004449535070
:102B8000000000004241540054455354000000002E
:102B90002044594E410000004C49535400000000AD
:102BA0004C494D495400000053455400B2E2C1BFA6
:102BB00000000000CFD4CABE00000000B5E7B3D8C3
:102BC00000000000B2E2CAD400000000B6AFCCACF6
:102BD00000000000C1D0B1ED00000000BCABCFDEB2
:102BE00000000000C9E8D6C300000000CEC4BCFE4F
:102BF00000000000B9DCC0ED00000000B1A3B4E6A5
:102C000000000000CAFDBEDD00000000B8FCB6E018
:102C10000000000020322F320000000053455455C0
:102C2000500000002053595300000000CFB5CDB331
:102C30000000000011B581B06248007800285DD125
:102C4000009057E09DF804100098401C814204D188
:102C50004FF47F005C49486003E04FF050105A4940
:102C6000486000980A281FD2009800EB800080007E
:102C70001A3081B214235A22A02005F04BFD53498B
:102C8000009A51F8220000230722042105F096F94A
:102C9000009800EB800080001A3081B201234C4A7A
:102CA000A0200FF089F822E000980A3800EB80009D
:102CB00080001A3081B214235A224FF4AF7005F00D
:102CC00029FD4249009A51F82200002307220421DD
:102CD00005F074F900980A3800EB800080001A3083
:102CE00081B201233A4A4FF4AF700FF065F80098B3
:102CF000401C009000981028A4D33BE03148007895
:102D0000012837D10020009031E09DF80410009890
:102D1000401C814204D14FF47F002B49486003E0FE
:102D20004FF0501028494860009800EB8000800068
:102D30001A3081B214235A22A02005F0EBFC23495B
:102D4000009A103251F8220000230722042105F0D6
:102D500035F9009800EB800080001A3081B2012321
:102D60001B4AA0200FF028F80098401C0090009803
:102D70000928CAD34FF050101349486000F0E2FA16
:102D80006FF07F401049086012484860124C0220E2
:102D9000009013E00099C1EBC1010A190099C1EB41
:102DA000011303EB4111202303EB410188B20023FF
:102DB000F1210FF001F80098401C009000980528C0
:102DC000E8D31CBDBE0000200001002064180020D4
:102DD0007422002038003100F24301087CB504461B
:102DE000012C00D100E000200090009820B14FF4A9
:102DF0007F00F849486003E04FF05010F549486003
:102E000014235C221821762005F084FC6FF07F40AB
:102E1000F0490860F04890F8D50060B9EE4890F8A5
:102E20008000C0EBC000ED49421800231A21762033
:102E30000EF0C2FF0BE0E84890F88000C0EBC00045
:102E4000E749421800231A2176200EF0B5FF022C24
:102E500001D1012000E000200090009820B14FF443
:102E60007F00DC49486003E04FF05010D9494860CA
:102E700014235C222E21762005F04CFC6FF07F405D
:102E8000D4490860D449D1F88400002307220421E2
:102E900005F094F80023D34A302176200EF08CFF01
:102EA0000023D14A3021C8200EF086FF032C01D127
:102EB000012000E000200090009820B14FF47F0036
:102EC000C449486003E04FF05010C24948601423E1
:102ED0005C224421762005F01DFC6FF07F40BD4947
:102EE0000860BD49D1F8880000230722042105F0BD
:102EF00065F80023BB4A462176200EF05DFF0023D3
:102F0000B94A4621C8200EF057FF042C01D10120F8
:102F100000E000200090009820B14FF47F00AD4900
:102F2000486003E04FF05010AA494860142364221F
:102F30005A21762005F0EEFB6FF07F40A54908602E
:102F4000A549D1F8940000230522042105F036F8A4
:102F50000023A44A5C2176200EF02EFF0023A24A13
:102F60001E325C21B2200EF027FF052C01D101207A
:102F700000E000200090009820B14FF47F009549B8
:102F8000486003E04FF050109249486014235C22DF
:102F90001821900005F0BEFB6FF07F408D4908605E
:102FA0008D4890F8D50068B98B4890F89000C0EB38
:102FB000C0008E49421800231A214FF4B8700EF059
:102FC000FBFE0CE0844890F89000C0EBC0008849FC
:102FD000421800231A214FF4B8700EF0EDFE062CB3
:102FE00001D1012000E000200090009820B14FF4B2
:102FF0007F007849486003E04FF050107549486001
:10300000142370222E21C80005F084FB6FF07F404E
:10301000704908607049D1F88C0000230822012112
:1030200004F0CCFF00236F4A30214FF4B8700EF04B
:10303000C3FE00236C4A2A3230214FF4E5700EF0B3
:10304000BBFE072C01D1012000E000200090009879
:1030500020B14FF47F005F49486003E04FF050100B
:103060005C4948601423702244214FF4B87005F085
:1030700051FB6FF07F40574908605749D1F89C00D9
:1030800000230822012104F099FF0023554A46211C
:103090004FF4B8700EF090FE0023534A2A324621B6
:1030A0004FF4E5700EF088FE082C01D1012000E0FD
:1030B00000200090009820B14FF47F0045494860FF
:1030C00003E04FF0501043494860142364225A2112
:1030D0004FF4B87005F01EFB6FF07F403D4908606B
:1030E0003D49D1F8980000230522042104F066FF31
:1030F00000233C4A5C2188000EF05EFE00233A4A21
:103100001E325C214FF4D6700EF056FE394890F80E
:103110006D01002877D124B1012C06D0052C6ED189
:103120002DE00020FFF7BCFB6CE000F00BF96FF026
:103130007F402849086030484860274890F8D5000B
:1031400008B1274D00E0254D0020019013E00199C2
:10315000C1EBC1014A190199C1EB011303EB411104
:10316000202303EB410188B20023F1210EF024FE5D
:103170000198401C019001980228E8D342E000F039
:10318000E1F86FF07F40134908601B48486012481F
:1031900090F8D50008B1164D00E0144D00200190C4
:1031A00013E00199C1EBC1014A190199C1EB011367
:1031B00003EB4111202303EB410188B20023F121ED
:1031C0000EF0FAFD0198401C019001980328E8D305
:1031D00018E018E0000100205C130020D244010830
:1031E0002645010874220020663E0108FC440108BF
:1031F000114501085418002038003100FFE700F0A5
:10320000A1F800BF0EE000F09DF86FF07F40064986
:10321000086006484860002305A2F1214FF4CC70F5
:103220000EF0CAFD7CBD0000000100203800310016
:10323000C8B7C8CF0000000070B5FEF7E5FF6FF01B
:103240007F402449086024484860244890F8D5000D
:1032500008B1234E00E0234E002306F14202042170
:1032600018460EF0A9FD6FF07F401A4908604FF034
:1032700050104860194890F8D50008B91A4D00E080
:103280001A4D002420E0042C0ED205EB041204EBAE
:10329000440000EBC4001A2303EB400081B200237A
:1032A00018460EF089FD0EE005EB0412201F00EB1E
:1032B000400303EBC0001A2303EB400081B200235C
:1032C000FA200EF079FD641C082CDCD30020FFF7F7
:1032D000E7FA70BD000100200352F3005C130020E8
:1032E00004400108123F0108663D0108E63D01085F
:1032F0002DE9F84105468846144600261CE0207852
:1033000000B91AE02078203800EB8000C00000EB04
:103310008000C700F81707EB5070094901EBE00087
:10332000A919009088B228231A46414605F00AFFE1
:10333000641C06F11C0086B2E1E700BFBDE8F8811D
:10334000C0B8070810B500243CE020482049486078
:10335000A1000A31C4EB041202EB420201EB42016C
:1033600088B22B235A22E42105F0D4F919481849D0
:1033700048605E2204FB02F10B3188B201235A221D
:10338000E32105F0C7F9C4EB041101EB44116422F9
:1033900002EB410188B22C230122E32105F0BAF9A6
:1033A00000200B494860C4EB041101EB4411642276
:1033B00002EB4101491C88B22C230322E32105F0D2
:1033C000A9F9641C052CC0D310BD000038003100E1
:1033D000000100206843690010B50446804890F859
:1033E000D50000287ED1012C0DD17E487E49486051
:1033F0004FF47F00086000237CA2CD214FF4917030
:103400000EF0DAFCEAE0022C0ED14FF050107649B3
:1034100048604FF47F00086000237AA2CD214FF46A
:103420009B700EF0C9FCD9E0032C0AD16D486E499F
:10343000486014239622CD214FF49B7005F06AF961
:10344000CCE0042C0BD14FF0501067494860142396
:103450009622CD214FF49B7005F05CF9BEE0052C5F
:103460000ED14FF05010604948604FF47F00086063
:10347000002369A2CD214FF49B700EF09DFCADE0BE
:10348000062C0DD15748584948604FF47F0008601A
:10349000002366A2CD214FF49B700EF08DFC9DE0C1
:1034A000072C0ED14FF050104F4948604FF47F0069
:1034B000086000235DA2CD214FF49B700EF07CFCD0
:1034C0008CE0082C9ED14748474948604FF47F0064
:1034D000086000234BA2CD214FF49B700EF06CFCD2
:1034E0007CE0FFE7012C0CD13E483F4948604FF497
:1034F0007F000860002352A2CD21AA200EF05CFCC0
:103500006CE0022C0ED14FF05010374948604FF458
:103510007F000860002352A2CD214FF48C700EF082
:103520004BFC5BE0032C0AD12E482F494860142342
:103530004FF48C72CD21C22005F0ECF84EE0042C43
:103540000BD14FF050102849486014234FF48C726F
:10355000CD21C22005F0DEF840E0052C0ED14FF061
:103560005010214948604FF47F000860002342A2B8
:10357000CD214FF48C700EF01FFC2FE0062C0DD1E6
:103580001848194948604FF47F00086000233AA2A8
:10359000CD214FF48C700EF00FFC1FE0072C0ED1E4
:1035A0004FF05010104948604FF47F00086000232E
:1035B00031A2CD214FF48C700EF0FEFB0EE0082CF2
:1035C0000CD10848084948604FF47F000860002388
:1035D00023A2CD214FF48C700EF0EEFB10BD000045
:1035E0005C1300206534340000010020C7EBD3C316
:1035F000CAFDD7D6BCFCC5CCBBF2D0FDC5A5CAE47C
:10360000C8EB0000C7EBD3C3CAFDD7D6BCFCC5CC02
:10361000CAE4C8EB00000000B0B4CFC2D0FDC5A51D
:10362000C7D0BBBBB2BDD6E800000000B0B4CFC26B
:10363000D0FDC5A5BFECCBD9D1A1D4F100000000CD
:10364000496E7075742077697468206B6579626F54
:10365000617264206F7220656E636F6465722E0004
:10366000496E7075742077697468206B6579626F34
:103670006172642E000000005072657373207468DC
:103680006520656E636F6465722E20200000000067
:1036900070B502F0EDFB6FF07F40234908602348CE
:1036A0004860234890F8D50008B1224E00E0224E31
:1036B000002306F11602042118460EF07DFB6FF080
:1036C0007F40194908604FF0501048601B4D00249E
:1036D00024E0022C10D204EB840005EB400204EB42
:1036E000440000EBC4001A2303EB400081B2002326
:1036F00018460EF061FB10E004EB840005EB40027D
:10370000A01E00EB400303EBC0001A2303EB4000B4
:1037100081B20023FA200EF04FFB641C032CD8D397
:103720000020FFF7BDF870BD000100200352F30038
:103730005C13002004400108123F0108F83A010818
:103740007CB50546012D00D100E0002000900098D6
:1037500020B14FF47F006849486003E04FF05010FB
:103760006549486014235C221821582004F0D2FFD8
:103770006FF07F40604908606049C86C00230522F3
:10378000032104F01BFC00235D4A1A2158200EF08F
:1037900013FB022D01D1012000E0002000900098D1
:1037A00020B14FF47F005449486003E04FF05010BF
:1037B000514948601423682218214FF4A97004F07D
:1037C000A9FF6FF07F404C4908604C49486D0023C9
:1037D0000522032104F0F2FB0023494A1A214FF489
:1037E000A9700EF0E9FA032D01D1012000E00020BC
:1037F0000090009820B14FF47F003F49486003E0FB
:103800004FF050103C49486014235C222E21582070
:1038100004F080FF6FF07F40374908603749086D3A
:1038200000230522032104F0C9FB0023344A302180
:1038300058200EF0C1FA25B1012D06D0022D58D125
:103840002DE00020FFF72CF854E0FFF77BFD6FF030
:103850007F40294908602B484860284890F8D500E7
:1038600008B1294C00E0294C0020019013E0019997
:10387000C1EBC1010A190199C1EB011303EB41111D
:10388000202303EB410188B20023F1210EF094FACA
:103890000198401C019001980528E8D32AE0FFF721
:1038A00051FD6FF07F401449086016484860134886
:1038B00090F8D50008B1164C00E0164C002001909D
:1038C00013E00199C1EBC1010A190199C1EB011380
:1038D00003EB4111202303EB410188B20023F121C6
:1038E0000EF06AFA0198401C019001980028E8D077
:1038F00000E000BF00BF7CBD000100205C13002081
:10390000742200203800310090430108C2420108AF
:10391000DD450108D645010870B502F0B1FA6FF037
:103920007F402C4908602C4848602C4890F8D5000E
:1039300008B12B4E00E02B4E002306F18402042137
:1039400018460EF039FA6FF07F40224908604FF0B8
:1039500050104860214890F8D50008B1224D00E091
:10396000224D00242FE0062C11D24FF0501019499F
:10397000486004EB840005EB4002162304FB03F0CF
:103980001A3081B2002318460EF016FA1AE0A01F72
:10399000022806D9082804D24FF050100D4948607B
:1039A00003E04FF050100B49486004EB840005EB36
:1039B0004002A01F162358431A3081B20023FA2078
:1039C0000EF0FAF9641C0B2CCDD30320FEF768FF30
:1039D00070BD0000000100200352F3005C130020C2
:1039E00004400108123F010854420108E641010861
:1039F00010B502F005FEFFF7A5FC10BD30B595B07F
:103A0000054602F06FFF01222946684601F0B4F82E
:103A10006C469DF800008DF8380001980F900298D0
:103A2000109003981190049812900598139006989E
:103A300014900F984FF47A71B0FBF1F00F900B983F
:103A400018B90020099008900A900F9815B030BD61
:103A500070B5FFF7CDFF6FF07F403D4908603D48EE
:103A600048603D4890F8D50008B13C4D00E03C4D21
:103A7000002305F16E02042118460EF09DF96FF047
:103A80007F40334908604FF050104860002459E0EF
:103A9000032C2AD2304890F8D500012810D1C4EB6D
:103AA0000410304BC21804EB440000EBC4001A238E
:103AB00003EB400081B2002318460EF07DF940E090
:103AC000254890F8D50030BBC4EB0410264BC21833
:103AD00004EB440000EBC4001A2303EB400081B266
:103AE000002318460EF068F92BE01B4890F8D5002B
:103AF000012811D1C4EB04101A4BC218E01E00EBD0
:103B0000400303EBC0001A2303EB400081B2002303
:103B1000FA200EF051F914E00F4890F8D50080B962
:103B2000C4EB0410104BC218E01E00EB400303EB83
:103B3000C0001A2303EB400081B20023FA200EF0EC
:103B40003BF9641C052CA3D30020FEF7A9FE70BD31
:103B5000000100200352F3005C1300200440010820
:103B6000123F010845430108FA42010810B5B04868
:103B7000B04908604FF050104860AF4890F8D50049
:103B8000F0B90023ADA25E214FF496700EF014F947
:103B90000023ABA25E214FF4AF700EF00DF9A949DE
:103BA00091F87D10481C00230222194604F006FA01
:103BB0000023A54A5E214FF4A1700EF0FDF81BE032
:103BC0009D4890F8D500012816D100239FA25E21C0
:103BD0004FF496700EF0F0F89A4991F87D10481C59
:103BE00000230222194604F0E9F90023964A5E21D7
:103BF0004FF4A9700EF0E0F88F4890F8D50080B926
:103C0000904890F87D108C48E430405CC0EBC000D8
:103C10009049421800235E214FF4C8700EF0CCF892
:103C200014E0854890F8D50001280FD1854890F818
:103C30007D108148E430405CC0EBC00086494218EA
:103C400000235E214FF4C8700EF0B6F87A4890F861
:103C5000D500E0B9002381A272214FF496700EF0D6
:103C6000ABF800237FA288214FF496700EF0A4F8E1
:103C700000237EA29E214FF496700EF09DF8002343
:103C80007CA2B4214FF496700EF096F820E06A48BA
:103C900090F8D50001281BD1002378A272214FF49F
:103CA00096700EF089F8002375A288214FF4967063
:103CB0000EF082F8002373A29E214FF496700EF04E
:103CC0007BF8002370A2B4214FF496700EF074F8C4
:103CD000594890F8210038BB5A480068642806D239
:103CE000002307220421184604F068F906E055492C
:103CF000002307220868042104F060F951490023D9
:103D000007220868042104F059F900234E4A722161
:103D10004FF4B4700EF050F8002358A272214FF403
:103D2000DC700EF049F824E0434890F821000128A7
:103D30001FD144480068642806D2002306220321CC
:103D4000184604F03BF906E03E49002306220868C5
:103D5000032104F033F900233B4A72214FF4B4707D
:103D60000EF02AF8002345A272214FF4DC700EF009
:103D700023F8314890F82000A8B9324900230722DF
:103D80004868042104F01AF900232F4A88214FF4CF
:103D9000B4700EF011F800233DA288214FF4DC70BE
:103DA0000EF00AF819E0244890F82000012814D1F8
:103DB0002449002306224868032104F0FFF8002369
:103DC000214A88214FF4B4700DF0F6FF002330A291
:103DD00088214FF4DC700DF0EFFF1A490023072211
:103DE000C868032104F0EAF80023174A9E214FF423
:103DF000B4700DF0E1FF002326A29E214FF4DC7089
:103E00000DF0DAFF0F4900230422D1F880000121D0
:103E100004F0D4F800230C4AB42148000DF0CCFF84
:103E200000231DA2B4214FF4DC700DF0C5FF10BDBE
:103E300000FFFF00000100205C130020B5DA000045
:103E4000B2BD000054180020742200205374657025
:103E500000000000034A0108494A0108B5E7D1B94A
:103E600000000000B5E7C1F700000000B9A6C2CA13
:103E700000000000CAB1BCE40000000056000000D1
:103E8000490000005000000054494D45000000006A
:103E90004100000057000000730000002DE9F041D0
:103EA0000546012D00D100E00020064626B14FF462
:103EB0007F00FD49486003E04FF05010FA49486028
:103EC00014235C221821762004F024FC6FF07F403C
:103ED000F5490860F54991F8D600002303221946F8
:103EE00004F06CF80023F24A1A2176200DF064FFEA
:103EF000022D01D1012000E00020064626B14FF43A
:103F00007F00E949486003E04FF05010E6494860FF
:103F100014235C222E21762004F0FCFB6FF07F40FE
:103F2000E1490860E14890F8D50060B9DF4890F8B1
:103F3000D700C0EBC000DF494218002330217620B3
:103F40000DF03AFF0BE0D94890F8D700C0EBC00065
:103F5000D94942180023302176200DF02DFF032D82
:103F600001D1012000E00020064626B14FF47F0079
:103F7000CD49486003E04FF05010CB49486014230E
:103F80005C224421762004F0C5FBC849D1F8E0004A
:103F900000230722042104F011F86FF07F40C2498A
:103FA00008600023C24A462176200DF005FF002359
:103FB000C24A4621C8200DF0FFFE042D01D1012088
:103FC00000E00020064626B14FF47F00B649486065
:103FD00003E04FF05010B449486014235C221821CC
:103FE000900004F097FB6FF07F40AF490860AF4846
:103FF00090F8D50068B9AD4890F8D900C0EBC00082
:10400000AF49421800231A214FF4B8700DF0D4FEC6
:104010000CE0A64890F8D900C0EBC000A9494218AE
:1040200000231A214FF4B8700DF0C6FE052D01D102
:10403000012000E00020064626B14FF47F009A4997
:10404000486003E04FF050109749486014235C2209
:104050002E21C80004F05EFB6FF07F40924908609B
:104060009249D1F8DC0000230722042103F0A6FFC7
:1040700000238F4A30214FF4B8700DF09DFE0023CD
:104080008E4A30214FF4E1700DF096FE062D01D1DD
:10409000012000E00020064626B14FF47F0082494F
:1040A000486003E04FF050107F49486010235022D1
:1040B0005E21002004F02EFB6FF07F407A490860FB
:1040C0007A4890F8D500D8B900237FA25E2118461F
:1040D0000DF072FE00237DA25E2132200DF06CFEF9
:1040E0007B4991F87C10481C00230222194603F0FA
:1040F00065FF00236E4A5E2116200DF05DFE19E07B
:104100006A4890F8D500012814D1002371A25E21DD
:1041100018460DF051FE6E4991F87C10481C0023A2
:104120000222194603F04AFF0023614A5E2126203D
:104130000DF042FE072D01D1012000E000200646CF
:1041400026B14FF47F005849486003E04FF050100B
:1041500055494860102350225E21642004F0DAFAA9
:10416000524890F8D50078B9594890F87C104F48DB
:10417000E430405CC0EBC0005849421800235E2187
:1041800064200DF019FE13E0484890F8D50001288E
:104190000ED14F4890F87C104448E430405CC0EBAE
:1041A000C0004F49421800235E2164200DF004FE38
:1041B0004FF050103C494860454890F87C103B480F
:1041C000E430405C04286ED0384890F8D500F0B94F
:1041D000002344A2722118460DF0EEFD002344A2F4
:1041E000882118460DF0E8FD002343A29E211846C1
:1041F0000DF0E2FD002343A2B42118460DF0DCFDD2
:10420000002342A2CA2118460DF0D6FD22E027481D
:1042100090F8D50001281DD100233EA27221184636
:104220000DF0CAFD00233DA2882118460DF0C4FD03
:1042300000233CA29E2118460DF0BEFD00233BA2A8
:10424000B42118460DF0B8FD00233AA2CA21184641
:104250000DF0B2FD122314227021C82004F05AFA86
:1042600012231422B221C82004F054FA122314227B
:10427000C821084604F04EFA154890F87C100B4807
:10428000E430405C00EB40000C49891F01EB400228
:1042900000237221C8200DF08FFD0D4890F87C108E
:1042A0002548405C4AE069E1000100205C130020E1
:1042B00074220020D9490108EE4901086C3E01082A
:1042C000E0440108EE440108B5DA0000B2BD000088
:1042D000541800205374657000000000034A010860
:1042E000494A0108B8BAD4D8B4F3D0A100000000FC
:1042F000CAB1BCE400000000B1C8BDCFC0E0D0CD61
:1043000000000000C9CFCFDE00000000CFC2CFDE2A
:10431000000000004C4F41440000000054696D65EE
:1043200000000000436F6D7000000000486967687E
:10433000000000004C6F7700AA14002000EB400042
:10434000FE4901EB40020023B421C8200DF034FDEA
:10435000FB4890F87C10FB48405C00EB4000F749BC
:1043600001EB40020023CA21C8200DF025FD0023E7
:10437000F5A28821C8200DF01FFD082D01D10120D4
:1043800000E00020064626B14FF47F00EF49486068
:1043900003E04FF05010ED49486014235C22702177
:1043A000642004F0B7F96FF07F40E8490860E44802
:1043B00090F87C10E3486A38405C02280CD1E04950
:1043C00091F87C20DF495A3951F822000023072256
:1043D000012103F0F3FD0BE0D94991F87C20D94984
:1043E0005A3951F8220000230822042103F0E6FD87
:1043F0000023D74A722164200DF0DEFC092D01D183
:10440000012000E00020064626B14FF47F00CF498E
:10441000486003E04FF05010CC49486014235C2200
:104420008621642004F076F96FF07F40C749086068
:10443000C34991F87C20C3491E3931F8120000238A
:104440000422012103F0BAFD0023C14A882164201F
:104450000DF0B2FC0A2D01D1012000E0002006463B
:1044600026B14FF47F00B949486003E04FF0501087
:10447000B649486014235C229C21642004F04AF968
:104480006FF07F40B1490860B24890F8D50070B92C
:10449000AB4890F87C10AB48405CC0EBC000AE4924
:1044A000421800239E2164200DF086FC0DE0A448F4
:1044B00090F87C10A348405C00EBC000A74942186C
:1044C00000239E2164200DF077FC0B2D01D10120EB
:1044D00000E00020064626B14FF47F009B4948606B
:1044E00003E04FF050109949486014235C22B22138
:1044F000642004F00FF96FF07F4094490860904900
:1045000091F87C208F49123151F8220000230722B4
:10451000042103F053FD00238D4AB42164200DF0E3
:104520004BFC0C2D01D1012000E00020064626B1F5
:104530004FF47F008549486003E04FF050108349F5
:10454000486014235C22C821642004F0E3F86FF073
:104550007F407E4908607A4991F87C2079494E3144
:1045600051F8220000230722042103F027FD002335
:10457000774ACA2164200DF01FFC96E1704890F83C
:104580007C1070486A38405C0428F6D1714890F875
:10459000D50018BB0023AFF2B422722118460DF0EB
:1045A0000BFC0023AFF2B822882118460DF004FC62
:1045B0000023AFF2BC229E2118460DF0FDFB002324
:1045C000AFF2C022B42118460DF0F6FB0023AFF283
:1045D000C422CA2118460DF0EFFB27E05D4890F891
:1045E000D500012822D10023AFF2D822722118462B
:1045F0000DF0E2FB0023AFF2DC22882118460DF01B
:10460000DBFB0023AFF2E4229E2118460DF0D4FB21
:104610000023AFF2E822B42118460DF0CDFB0023B1
:10462000AFF2F022CA2118460DF0C6FB1223142265
:104630007021C82004F06EF812231422B221C82081
:1046400004F068F812231422C821084604F062F826
:1046500000233DA28821C8200DF0AEFB072D01D11B
:10466000012000E00020064626B14FF47F003749C4
:10467000486003E04FF0501034494860304991F8E9
:104680007C2030495A3951F82200002307220421A6
:1046900003F094FC14235C227021642004F03AF8A7
:1046A00000232B4A722164200DF086FB082D01D1D6
:1046B000012000E00020064626B14FF47F00234988
:1046C000486003E04FF050102049486014235C22FA
:1046D0007021642004F01EF86FF07F401B490860D1
:1046E000174991F87C2017495A3951F822000023C4
:1046F0000722042103F062FC0023154A7221642082
:104700000DF05AFB092D01D1012000E000200646E2
:1047100026B14FF47F000D49486003E04FF0501080
:104720000A49486014235C228621642003F0F2FFCA
:104730006FF07F4005490860014911E0963E01088D
:1047400054180020AA14002073000000000100206B
:10475000742200205C1300206C4A0108CE4A010834
:1047600091F87C20E14931F8120000230422012154
:1047700003F024FC0023DE4A882164200DF01CFB9A
:104780000A2D01D1012000E00020064626B14FF499
:104790007F00D849486003E04FF05010D549486089
:1047A00014235C229C21642003F0B4FF6FF07F404F
:1047B000D0490860D04890F8D50078B9CF4890F833
:1047C0007C10CA481E30405CC0EBC000CC49421887
:1047D00000239E2164200DF0EFFA0EE0C74890F808
:1047E0007C10C2481E30405C00EBC000C549421836
:1047F00000239E2164200DF0DFFA0B2D01D1012052
:1048000000E00020064626B14FF47F00B949486019
:1048100003E04FF05010B749486014235C22B221E6
:10482000642003F077FF6FF07F40B2490860B3491E
:1048300091F87C20AD49303151F822000023072245
:10484000042103F0BBFB0023A94AB42164200DF02E
:10485000B3FA0C2D01D1012000E00020064626B15C
:104860004FF47F00A349486003E04FF05010A14986
:10487000486014235C22C821642003F04BFF6FF0D2
:104880007F409C4908609D4991F87C2097496C3194
:1048900051F8220000230722042103F08FFB00239C
:1048A000934ACA2164200DF087FA0D2D1CD2DFE84F
:1048B00005F01B07141B15081016090A170B0C002E
:1048C00000BF00BF00BF00BF00BF0220FEF784FD95
:1048D0000EE00520FEF780FD0AE000BF00BF00BF2C
:1048E0000720FEF779FD03E00420FEF775FD00BF09
:1048F00000BF824890F86D0100286ED1FEF722FDBE
:1049000081480078002869D1042D31D003DC3DB105
:10491000022D77D108E0072D4ED00A2D72D172E01A
:104920000020FDF7BDFFA7E0FEF70CFD6FF07F4014
:1049300070490860754848606F4890F8D50008B124
:10494000734F00E0734F00240FE0C4EBC401CA1999
:10495000C4EB041101EB4411202303EB410188B2A5
:104960000023F1210DF028FA641C032CEDD383E021
:10497000FEF7E8FC6FF07F405E49086063484860DE
:104980005D4890F8D50008B1634F00E0634F002404
:104990000FE0C4EBC401CA19C4EB041101EB4411CC
:1049A000202303EB410188B20023F1210DF004FA2A
:1049B000641C022CEDD35FE0FEF7C4FC6FF07F4077
:1049C0004C490860514848604B4890F8D50008B100
:1049D000534F00E0534F002411E076E04DE0C4EB6C
:1049E000C401CA19C4EB041101EB4411202303EBE9
:1049F000410188B20023F1210DF0DEF9641C052C81
:104A0000EDD339E037E0FEF79DFC6FF07F40394988
:104A100008603E484860384890F8D500A8B10024A6
:104A200010E004EBC401374BCA18C4EB041101EBCE
:104A30004411202303EB410188B20023F1210DF042
:104A4000BBF9641C042CECD314E0002410E0C4EB8C
:104A5000C4012B4BCA18C4EB041101EB44112023F1
:104A600003EB410188B20023F1210DF0A5F9641C8C
:104A7000042CECD300E000BF36E023480078012886
:104A800032D1FEF75FFC6FF07F401A4908601F4883
:104A90004860194890F8D50008B1234F00E0234F33
:104AA00000240FE0C4EBC401CA19C4EB041101EBEC
:104AB0004411202303EB410188B20023F1210DF0C2
:104AC0007BF9641C052CEDD30EE0FEF73BFC6FF088
:104AD0007F40084908600D484860002314A2F12176
:104AE0004FF4CC700DF068F9BDE8F0818C14002013
:104AF00074220020000100205C13002054180020C4
:104B00006C4A0108CE4A0108330000203800310009
:104B1000EE490108D9490108EE440108E0440108C2
:104B2000494A0108034A0108AB4A0108884A0108BA
:104B3000C8B7C8CF0000000010B505480549486057
:104B4000962340F2DF124C21002003F0E3FD10BD5C
:104B5000653434000001002010B50548054948605F
:104B6000742340F2DF126E21002003F0D3FD10BD4C
:104B700065343400000100202DE9F04192B0054673
:104B80000E46174601201190F94800780D9001203B
:104B90000B9000200A9009900890079002900190D5
:104BA000039001900C9009E020200EA99DF8302080
:104BB00088549DF83000401CC0B20C909DF8300025
:104BC0000828F1DB00208DF840000FB1082400E038
:104BD0000624AFE1B8F1010F03D103F0FDFB0D9006
:104BE00001E04FF001089DF8340000287ED001203C
:104BF0000B909DF83400202879D2DFE800F078820D
:104C000091A0F278CDBEAFDCF3F0EFEEED787F7ED1
:104C10005733107878EC78808178787878EB0020BA
:104C2000039011909DF81C00A04218DA9DF828000E
:104C3000A8B99DF81C0000280CDD2E200EA99DF8B7
:104C40001C2088549DF81C0009909DF81C00401CF5
:104C5000C0B207909DF82800401CC0B20A90012005
:104C600004904CE101200390002011909DF81C005D
:104C7000A04218DA9DF82800A8B99DF81C00002869
:104C80000CDD2E200EA99DF81C2088549DF81C00D8
:104C900009909DF81C00401CC0B207909DF82800A8
:104CA000401CC0B20A900120049028E10220039029
:104CB000002011909DF81C00A0421BDA9DF82800EE
:104CC000C0B99DF81C0000280CDD2E200EA99DF80F
:104CD0001C2088549DF81C0009909DF81C00401C65
:104CE000C0B207909DF82800401C01E008E105E1F2
:104CF000C0B20A900120049001E100E1FFE0FEE073
:104D0000FDE09DF81C00A04209DA31200EA99DF8B3
:104D10001C2088549DF81C00401CC0B20790EEE097
:104D20009DF81C00A04209DA32200EA99DF81C2033
:104D300088549DF81C00401CC0B20790DFE09DF82D
:104D40001C00A04209DA33200EA99DF81C208854CB
:104D50009DF81C00401CC0B20790D0E09DF81C00DC
:104D6000A04209DA34200EA99DF81C2088549DF831
:104D70001C00401CC0B20790C1E09DF81C00A0427E
:104D800009DA35200EA99DF81C2088549DF81C00D6
:104D9000401CC0B20790B2E09DF81C00A04209DAA6
:104DA00036200EA99DF81C2088549DF81C00401C3C
:104DB000C0B20790A3E09DF81C00A04209DA37209A
:104DC0000EA99DF81C2088549DF81C00401CC0B200
:104DD000079094E06EE06CE022E030E051E010E0FB
:104DE00000E068E09DF81C00A04209DA38200EA916
:104DF0009DF81C2088549DF81C00401CC0B20790F0
:104E00007DE09DF81C00A04209DA39200EA99DF82A
:104E10001C2088549DF81C00401CC0B207906EE016
:104E20009DF81C00A04209DA30200EA99DF81C2034
:104E300088549DF81C00401CC0B207905FE09DF8AC
:104E40001C00A0421CDA9DF81C00002818DD9DF80B
:104E50002800A8B99DF81C0000280CDD2E200EA902
:104E60009DF81C2088549DF81C0009909DF81C009A
:104E7000401CC0B207909DF82800401CC0B20A90A8
:104E80003DE09DF81C00002812DD9DF81C00401E2E
:104E9000C0B2079020200EA99DF81C2088549DF8D0
:104EA00024009DF81C10884202D100200A9009902D
:104EB00025E024E023E00020039011909DF81C00E1
:104EC000A04218DA9DF82800A8B99DF81C00002817
:104ED0000CDD2E200EA99DF81C2088549DF81C0086
:104EE00009909DF81C00401CC0B207909DF8280056
:104EF000401CC0B20A900120049000E000BF00BF37
:104F00009DF82C00B0B100200B906FF07F40194944
:104F100008604FF47F004860B38810339AB27188FC
:104F20003088122303F0F6FB7188308800230EAA24
:104F30000CF042FF9DF8440000287FF44BAE9DF832
:104F40001C000C9009E030200EA99DF830208854F8
:104F50009DF83000401CC0B20C909DF830109DF8B8
:104F60002400401D8142EEDB00200C903EE000005A
:104F7000BB000020000100209DF83800302830DB05
:104F80009DF8380039282CDC0EA89DF83010405CC4
:104F9000302826DB0EA89DF83010405C392820DC34
:104FA0009DF824009DF8301088420DDD019800EB3B
:104FB00080004000019001990EA89DF83020805C8F
:104FC0003038084401900CE0019800EB800040006C
:104FD000019001990EA89DF83020805C303808447B
:104FE00001909DF83000401CC0B20C909DF830102C
:104FF0009DF82400401D8142BEDB9DF824000290F4
:105000009DF800002870019868600298A8600398D5
:10501000E86004982861059868610698A86112B054
:10502000BDE8F0812DE9F041074688466FF07F40EA
:10503000FE4908604FF050104860FD4890F86B0141
:1050400050B9FC4890F8D600052803DCF94890F8E0
:10505000D6501DE005251BE0F54890F86B010128AE
:105060000CD1F44890F8D6000A2805DCF14890F8F5
:10507000D600401FC5B20BE0052509E0EC4890F8CA
:105080006B01022804D1EB4890F8D6000A38C5B26B
:10509000CA2340F2DF125E21002003F03BFB4FF0F9
:1050A00050116FF07F4003F093FF6FF07F40DF49B6
:1050B0004860C5F1040000EB400101EBC000CA21CB
:1050C000A1EB40005D3883B201225E21002003F095
:1050D00021FBC5F1040000EB400101EBC000CA2137
:1050E000A1EB40005D3883B201225E21282003F04D
:1050F00011FBC5F1040000EB400101EBC000CA2127
:10510000A1EB40005D3883B201225E21782003F0DC
:1051100001FB012415E0C5F1040101EB410202EBA2
:10512000C101CA22A2EB41015D398BB2642204FBAA
:1051300002F101F1780001225E2103F0EBFA601C1C
:10514000C4B2042CE7DB00240CE0162204FB02F0BE
:1051500000F15E01012340F2DF12002003F0DAFAD1
:10516000601CC4B2A81C8442EFDB4FF05010AF4962
:105170004860B04890F8D500012826D10023AEA29F
:105180005E2103200CF018FE0023ACA249212B2045
:105190000CF012FE0023ABA2492153200CF00CFEB0
:1051A0000023AAA24921B7200CF006FE0023A9A2E1
:1051B000492140F21B100CF0FFFD0023A7A249215A
:1051C00040F27F100CF0F8FD29E09A4890F8D500E5
:1051D00028BB0023A3A2612103200CF0EDFD0023D6
:1051E000A2A261213F200CF0E7FD0023A1A26121D2
:1051F00099200CF0E1FD0023A0A26121FD200CF01C
:10520000DBFD00239FA2612140F261100CF0D4FD70
:1052100000239EA2612140F2B1100CF0CDFDFEF7FB
:1052200091F86FF07F40814908609A484860814852
:1052300090F8D50008B1984E00E0984E00240FE099
:10524000C4EBC4018A19C4EB041101EB44112023FF
:1052500003EB41000023F1210CF0AEFD601CC4B251
:10526000052CEDDB002462E14FF050106F494860DF
:105270006F4991F86B1101EB81012144481C002317
:105280000222194602F09AFE162204FB02F000F1F7
:1052900077010023824A03200CF08EFD644890F8C9
:1052A0006B0100EB800003196248E430C05CC0EB86
:1052B000C0007C4BC218162304FB03F000F17701F9
:1052C000002335200CF078FD594890F86B0100EB75
:1052D0008000011956488430405C734951F8200021
:1052E00052490860524890F86B0100EB80000119A8
:1052F0006E48405CC8B94E4991F86B1101EB8101D1
:105300000A194B49943151F8220000230722042145
:1053100002F054FE162204FB02F000F17701002394
:105320005F4A7B200CF048FD22E0414890F86B0179
:1053300000EB800001195D48405C012818D13C4910
:1053400091F86B1101EB81010A193949943151F837
:10535000220000230622032102F030FE162204FB65
:1053600002F000F1770100234D4A7B200CF024FD70
:105370002F4890F86B0100EB800001192C48843015
:10538000405C4B4951F8200028490860284890F8B3
:105390006B0100EB8000011944480F30405CC8B934
:1053A000234991F86B1101EB81010A193F497839C2
:1053B00051F8220000230722042102F0FFFD1622EB
:1053C00004FB02F000F177010023354ADF200CF0E6
:1053D000F3FC23E0164890F86B0100EB8000011904
:1053E00032480F30405C012818D1114991F86B11F7
:1053F00001EB81010A192D49783951F82200002367
:105400000622032102F0DAFD162204FB02F000F16D
:1054100077010023224ADF200CF0CEFC044890F8EC
:105420006B0100EB80000119014843E000010020FE
:10543000541800205C1300204E4F00004D4F44458F
:1054400000000000504152413100000050415241E3
:1054500032000000524553310000000052455332E3
:1054600000000000D0F2BAC500000000CFEEC4BFBB
:1054700000000000B5E7D1B900000000B5E7C1F7B2
:1054800000000000B9A6C2CA00000000BDE1B9FBDF
:105490000000000038003100AB4A0108884A0108CA
:1054A00074220020034A0108503901089C19002089
:1054B000403901088430405C1F4951F820001F49E1
:1054C00008601F4991F86B1101EB81010A191D4910
:1054D00051F8220000230722032102F06FFD16225B
:1054E00004FB02F000F177010023174A40F2431059
:1054F0000CF062FC6FF07F4010490860104890F893
:105500006B0100EB800003190D488430C05CC0EBD8
:10551000C0000E4BC218162304FB03F000F1770104
:10552000002340F2A7100CF047FC601CC4B2AC4250
:10553000FFF69AAEBDE8F081603901080001002055
:10554000541800206019002074220020264A010807
:1055500030B595B00546012229466846FFF70CFB99
:105560006C469DF800008DF8380001980F90029865
:105570001090039811900498129005981390069833
:1055800014900F9842F21071B0FBF1F00F900F9849
:10559000FF2801D9FF200F900B9818B9002009901F
:1055A00008900A900F9815B030BD30B595B00546FB
:1055B00001F00AF9012229466846FFF7DDFA6C4638
:1055C0009DF800008DF8380001980F900298109017
:1055D00003981190049812900598139006981490CF
:1055E0000B9818B90020099008900A900F9815B0F0
:1055F00030BD30B595B0054601F02AF901222946A3
:105600006846FFF7B9FA6C469DF800008DF838003F
:1056100001980F900298109003981190049812909E
:1056200005981390069814900B9818B900200990CB
:1056300008900A900F9815B030BD30B595B005466A
:1056400001F03AF9012229466846FFF795FA6C46BF
:105650009DF800008DF8380001980F900298109086
:10566000039811900498129005981390069814903E
:105670000F984FF47A71B0FBF1F00F900B9818B9B6
:105680000020099008900A900F9815B030BD30B5F1
:1056900095B0054601F0C4F8012229466846FFF797
:1056A0006BFA6C469DF800008DF8380001980F9059
:1056B00002981090039811900498129005981390F6
:1056C000069814900F9842F21071B0FBF1F00F9011
:1056D0000B9818B90020099008900A900F9815B0FF
:1056E00030BD30B595B0054601F084F80122294659
:1056F0006846FFF741FA6C469DF800008DF83800C7
:1057000001980F90029810900398119004981290AD
:1057100005981390069814900F984FF47A71B0FB87
:10572000F1F00F900B9818B90020099008900A909A
:105730000F9815B030BD30B595B0054601F0A6F80C
:10574000012229466846FFF717FA6C469DF80000CB
:105750008DF8380001980F900298109003981190DE
:105760000498129005981390069814900B9818B905
:105770000020099008900A900F9815B030BD30B500
:1057800095B0054601F0AEF8012229466846FFF7BC
:10579000F3F96C469DF800008DF8380001980F90E1
:1057A0000298109003981190049812900598139005
:1057B000069814900F9842F21071B0FBF1F00F9020
:1057C0000B9818B90020099008900A900F9815B00E
:1057D00030BD30B595B0054601F09AF80122294652
:1057E0006846FFF7C9F96C469DF800008DF838004F
:1057F00001980F90029810900398119004981290BD
:1058000005981390069814900B9818B900200990E9
:1058100008900A900F9815B030BD10B500240FE025
:10582000601C00EB400202EBC0001A2202EB4000B9
:10583000801E81B2012364225A2002F06BFF641C97
:10584000072CEDD310BD000070B500F04DF86FF0DF
:105850007F401E4908601E4848601E4890F8D500E9
:1058600008B11D4E00E01D4E002306F1B0020421D8
:1058700018460CF0A1FA6FF07F40144908604FF011
:1058800050104860134890F8D50008B1144D00E05E
:10589000144D00240EE004EB440000EBC400421958
:1058A000162304FB03F01A3081B2002318460CF0D3
:1058B00083FA641C072CEED36FF07F4003494860E5
:1058C000FFF7ABFF0320FCF7EBFF70BD00010020EA
:1058D0000352F3005C13002004400108123F01084A
:1058E0003C470108EF46010810B500F089FEFDF7BE
:1058F00029FD10BD7FB5044600208DF80700012C5E
:1059000001D1012000E000200290029820B14FF464
:105910007F00FE49486003E04FF05010FB494860AB
:10592000122366221A215A2002F0F4FEF849B1F837
:10593000DA0100230322194602F040FB0023F54A56
:105940001C215A200CF038FA022C01D1012000E071
:1059500000200290029820B14FF47F00EB4948608C
:1059600003E04FF05010E9494860122366223021CD
:105970005A2002F0CFFEE648B0F8D801C0EBC000D4
:10598000E5494218002332215A200CF015FA032C65
:1059900001D1012000E000200290029820B14FF4D4
:1059A0007F00DA49486003E04FF05010D749486063
:1059B000D74890F8D50008B1D84D00E0D84D122353
:1059C000662246215A2002F0A5FED64890F8B6027B
:1059D000C0EBC0004219002348215A200CF0ECF91A
:1059E000042C01D1012000E000200290029820B197
:1059F0004FF47F00C549486003E04FF05010C349A1
:105A00004860C34890F8D50008B1C74D00E0C64DC6
:105A1000122366225C215A2002F07CFEBC4890F8DA
:105A2000E501C0EBC000421900235E215A200CF0B2
:105A3000C3F9052C01D1012000E00020029002985A
:105A400020B14FF47F00B149486003E04FF050109F
:105A5000AE4948601223662272215A2002F05AFE93
:105A6000AB4890F8D500B14901EBC0020023742186
:105A70005A200CF0A1F901A9002006F0BDFA6946F0
:105A8000002006F07FFA062C01D1012000E0002062
:105A90000290029820B14FF47F009C49486003E0D7
:105AA0004FF050109949486012231A4688215A2015
:105AB00002F030FE9DF803209DA196480CF0F2F90B
:105AC0000023944A8A215A200CF076F94FF05010A6
:105AD0008E494860002397A28A216E200CF06CF951
