:020000040800F2
:10000000586A0020C101000829AB00087D7B000868
:10001000F5A90008291300081510010800000000C8
:1000200000000000000000000000000089CD000872
:100030000916000800000000A9B5000885E60008C0
:10004000DB010008DB010008DB010008DDBF000860
:10005000DB010008DB010008DB010008DB01000810
:10006000DB010008496E0008DB010008DB01000825
:10007000DB010008DB010008DB010008DB010008F0
:10008000DB010008DB010008DB010008DB010008E0
:10009000DB010008DB010008DB010008DB010008D0
:1000A000DB010008DB010008DB010008DB010008C0
:1000B000EBE80008DB010008DB010008DB010008B9
:1000C000DB010008DB010008DB010008DB010008A0
:1000D000DB01000875FC0008DB010008DB010008FB
:1000E000316E0008DB010008DB010008DB010008BD
:1000F000DB010008DB010008DB010008DB01000870
:10010000DB010008DB010008DB010008DB0100085F
:10011000DB010008DB01000801E90008DB01000841
:10012000DB010008DB010008DB010008DB0100083F
:10013000DB010008DB010008DB010008DB0100082F
:10014000DB010008DB010008DB010008DB0100081F
:10015000DB010008DB010008DB010008DB0100080F
:10016000DB010008DB010008DB010008DB010008FF
:10017000DB010008E1AB0008DB010008DB0100083F
:10018000DB010008DB010008DB010008DB010008DF
:10019000DB010008DB010008DB010008DB010008CF
:1001A000DB010008DB010008DB010008DFF80CD0F0
:1001B00000F0F6FA0048004725300108586A002090
:1001C0000648804706480047FEE7FEE7FEE7FEE7F1
:1001D000FEE7FEE7FEE7FEE7FEE7FEE761E7000871
:1001E000AD01000840EA01039B0703D009E008C9FC
:1001F000121F08C0042AFAD203E011F8013B00F8EC
:10020000013B521EF9D27047D2B201E000F8012B37
:10021000491EFBD270470022F6E710B513460A4686
:1002200004461946FFF7F0FF204610BD10B5002226
:1002300000E0521C835C8C5CA34201D1002BF8D1FE
:10024000D8B2E1B2401A10BD2DE9FE4F804681EAD6
:100250000300C00F0C46009021F0004123F0004540
:10026000B8EB0200A94105D24046214690461C4603
:100270000B46024623F00040104347D0270DC7F33A
:100280000A00C3F30A510290401A019040286BDA29
:10029000C3F3130040F4801B0098924620B1002362
:1002A000D2EB030A63EB0B0B01985946C0F14002F5
:1002B000504600F0B7F906460D4650465946019A99
:1002C00000F0CFF910EB08006141002487EA1152D9
:1002D00084EAE7731A4340D0009A62B3019A012A74
:1002E0004FEA075215DC001B61EB02014FF00042A0
:1002F00002EA0752CDE90042001C41F58011324666
:100300002B4600F0CFF903B0BDE8F08F4046214600
:10031000F9E7001B61EB0201001C41F58013001896
:100320005B412018A2F5001747EB030140EAD570A6
:10033000B6196D4111E06D084FEA360645EAC07501
:100340004FEA0752001B61EB0201001C41F58011CE
:1003500049084FEA30000019514132462B4603B09C
:10036000BDE8F04F00F08FB9009801224000002353
:10037000D0EB020263EBE073009821464FEAE07491
:10038000B8EB000061EB0401E9E783F000435BE7B1
:1003900081F0004158E72DE9FE4F81EA030404F0A3
:1003A000004421F0004100944FF0000B23F0004383
:1003B00050EA01045ED052EA03045BD0C3F30A544E
:1003C000C1F30A552C44A4F2F3340194A0FB025467
:1003D000C1F3130141F48011C3F3130343F48013F9
:1003E00001FB024400FB034E840A970A44EA81544D
:1003F00047EA8357A4FB076802958D0A05FB07852A
:100400004FEA932C04FB0C542705029D4FEA065833
:1004100047EA1637B5EB08056EEB070C870E920E10
:1004200047EA811742EA8312A7FB0201B6EB0B01F0
:1004300064EB00042B0D43EA0C335E1844EB1C50B4
:10044000DA465146E7FB0201C5F313044FEA0B33CA
:1004500043EA14534FEA0432019C43EA0603A4F131
:100460000C040294009CCDE900B400F01BF903B029
:10047000BDE8F08F00200146F9E72DE9F04D81EA53
:10048000030404F0004B21F0004514464FF0000A2D
:1004900023F0004150EA050220D054EA01021DD0A9
:1004A000C5F30A570246C5F31303C1F31300C1F3A2
:1004B0000A5640F4801543F48013A7EB0608101B7E
:1004C000D64608F2FD3873EB050002D308F10108A7
:1004D00001E092185B41B8F1000F03DA00200146F9
:1004E000BDE8F08D00204FF48011064684460EE0F2
:1004F000171B73EB050705D3121B63EB05030643BC
:100500004CEA010C49084FEA300092185B4150EA6E
:100510000107EDD152EA030012D082EA040083EA17
:100520000501084305D0101BAB4106D20122002370
:1005300006E000224FF0004302E06FF0010253108A
:100540001AEB06004CEB085110EB0A0041EB0B01D3
:10055000BDE8F04D00F097B80EB5C10F80EAE0702D
:100560000844CA07002140F233438DE80E000A46D2
:100570000B4600F097F803B000BD0EB540F23341D2
:1005800002910021CDE900110A460B4600F08AF8DD
:1005900003B000BDC1F30A5210B5C1F3130140F21C
:1005A000FF3341F480119A4201DA002010BD40F27D
:1005B00033439A42A2F2334203DC524200F041F844
:1005C00010BD904010BD000030B5041E71F1000454
:1005D00004DB4FF00044404264EB0101141E73F150
:1005E000000405DB1C464FF00043524263EB04035A
:1005F0008B4208BF824230BD30B50B460146002019
:100600002022012409E021FA02F59D4205D303FAD4
:1006100002F5491B04FA02F52844151EA2F1010255
:10062000F1DC30BD202A04DB203A00FA02F1002080
:1006300070479140C2F1200320FA03F31943904020
:100640007047202A04DB203A21FA02F0002170478B
:1006500021FA02F3D040C2F120029140084319462A
:100660007047202A06DBCB17203A41FA02F043EA12
:10067000E07306E041FA02F3D040C2F1200291405B
:1006800008431946704710B5141E73F1000408DAC8
:10069000401C41F1000192185B411A4301D120F046
:1006A000010010BD2DE9F04D92469B4611B1B1FA03
:1006B00081F202E0B0FA80F220329046FFF7B2FFFA
:1006C00004460F4640EA0A0041EA0B0153465A46E7
:1006D000084313D0114653EA010019D0C8F1400273
:1006E0005046FFF7AEFF05460E4650465946424675
:1006F000FFF798FF084305D0012004E02046394663
:10070000BDE8F08D0020054346EAE0762C433743F0
:100710000A986305E40AA0EB08000022FD0A44EAF7
:1007200047540A3002D500200146E9E701051019B7
:100730006941DDE9084500196941BDE8F04DA2E7CE
:1007400070B521F0004303430CD0C1F30A550024D7
:10075000D5EB040564EB0403D617AD1AB34102DBF5
:100760000020014670BD201841EB025170BD000011
:1007700030B5041E71F1000404DB4FF00044404228
:1007800064EB0101141E73F1000405DB1C464FF0FD
:100790000043524263EB0403994208BF904230BDCC
:1007A000064C074D06E0E06840F0010394E80700BE
:1007B00098471034AC42F6D3FFF7FCFC981C0808AD
:1007C000B81C08082DE9F04D00231A461B1A8A416F
:1007D00003DB00200146BDE8F08DC1F30A52C1F3EE
:1007E000130141F480154FF0000BD10702D100181E
:1007F0006D41521E0027044640F2FF11384601EBBE
:10080000620A3E468046024600204FF48011FFF700
:1008100018FFC2197141BB1846EB0100B4EB030C81
:1008200075EB000C04D3E41A65EB000517460E4681
:10083000241908F101006D4180463428E3DDF919DF
:1008400046EB0600091BA84103D24FF0FF321346C6
:1008500001E0002213461BEB070046EB0A51BDE8FE
:10086000F04DFFF710BF70B58C1810F8015B15F054
:10087000070301D110F8013B2A1106D110F8012B12
:1008800003E010F8016B01F8016B5B1EF9D12B0737
:1008900005D40023521E0DD401F8013BFAE710F8ED
:1008A000013BCB1A921C03E013F8015B01F8015BDA
:1008B000521EF9D5A142D8D3002070BD70B50546AF
:1008C0000C4608480560204600F00EF800BF0548B9
:1008D00000680028FBD100214FF080400EF017FB8C
:1008E00070BD0000AC0100203EB5044600214FF071
:1008F00080400EF00CFB0022012188070EF04EFC18
:10090000022C02D10B20019004E0012C02D142F60E
:10091000DF6001900520ADF800000020ADF8080070
:10092000ADF8020069464FF080400EF08DFC0121C9
:1009300088070EF0E9FA012188070EF0D6FA0122A5
:10094000114690070EF02AFC012188070EF0DFFA0D
:100950003EBD000010B5C8211448FFF75CFC012023
:100960001249087006204870002088700D20C87059
:1009700000200871487188710D4890F85800C871BE
:1009800008210A4807F0FCF80012084908720821FB
:10099000064807F0F5F8054948720A21034810F0A7
:1009A0003BFB01200349087010BD000060230020BC
:1009B0005C1300204801002070B504460D465948DC
:1009C000594948602CBB59480068642806D2002366
:1009D00007220421184607F011F906E053490023C5
:1009E00007220868042107F009F95049002307226B
:1009F0000868042107F002F900234D4A82215020A3
:100A000010F0E0FF00234BA28221A02010F0DAFFBB
:100A10001FE0012C1DD145480068642806D2002340
:100A200006220321184607F0E9F806E03F490023B3
:100A300006220868032107F0E1F800233C4A8221DE
:100A4000502010F0BFFF00233AA28221A02010F016
:100A5000B9FF9DB93549002307224868042107F0F2
:100A6000CDF80023324AA021502010F0ABFF002324
:100A700031A2A021084610F0A5FF14E0012D12D1EB
:100A80002A49002306224868032107F0B7F800230B
:100A9000274AA021502010F095FF002326A2A02174
:100AA000084610F08FFF214900230622C868032161
:100AB00007F0A4F800231E4ABE21502010F082FF48
:100AC00000231EA2BE21A02010F07CFF17490023A6
:100AD00007228868042107F091F80023144A822134
:100AE0004FF48C7010F06EFF002315A282214FF49A
:100AF000B47010F067FF0D4900230622886F194675
:100B000007F07CF800230A4AA0214FF48C7010F003
:100B100059FF00230BA2A0214FF4B47010F052FF34
:100B200070BD00006534340000010020541800201E
:100B30007422002056000000410000005700000011
:100B4000A6B800006D41480070B586B00020049042
:100B5000002400250126FA490870FA4908704FF070
:100B6000501007F0C3FB002001F0B2FD00200390FD
:100B70000CF09EFAAFE3BDF81000401C80B2049068
:100B8000204606F0F1F9C5B2EF480078012801D1FE
:100B900001262C466FF07F40EC490860EC48007855
:100BA00038B10020EA49087005F0E8FC0020E94966
:100BB0000870E9480078012804D10020E64908704F
:100BC0000BF0E4FA012E03D1204601F01BFB0026B6
:100BD000DB480078012804D10BF0A6FA0020D849A0
:100BE0000870DE4890F86D0138B9DD4A92F820109F
:100BF00092F82100FFF7E0FE22E0D84890F86D015E
:100C000001281DD109F0F8FE02F018FB6FF07F40BB
:100C1000CE490860D34848600023D3A2F1214FF4A5
:100C2000CC7010F0CFFE0220CC4981F86D01CC4889
:100C3000B0F8DC01401CCA49A1F8DC010DF004FD4C
:100C4000CB48007870B1CB480078052805D10CF06E
:100C50002FFA0020C749087004E0C6480078401CFD
:100C6000C4490870C4484078012870D1C34800784E
:100C70000028FAD1C04880780028F6D1012607F074
:100C8000CBF905909DF81400BD4908709DF814003B
:100C900000285CD09DF81400202873D2DFE800F013
:100CA00072D0D1D2FEFDD5D4D3D6D7D8FCDAD9FBB9
:100CB00063584C31107272FA7289B072F97272F81C
:100CC00014B1012C1AD106E0AE48007810B9062004
:100CD000AD49087013E0AB48007870B90020A04916
:100CE00081F858000CF0E4F94FF0501007F0FEFACC
:100CF000012001F0EDFC0DF0A7FC00E000BF00BFFB
:100D0000E8E214B1012C14D100E013E09D48007812
:100D100070B90220924981F858000CF0C9F94FF0DF
:100D2000501007F0E3FA012001F0D2FC0DF08CFC2A
:100D300000E000BF00BFCDE234B99248007810B99E
:100D400016209149087000E000BF00BFC2E2C2E275
:100D500034B98C48007810B917208B49087000E02E
:100D600000BF00BFB6E27D4890F86D0188B914B1AC
:100D7000012C0CD107E08348007810B90D2082497E
:100D8000087005E0A5E204207549487000E000BF46
:100D90000EE0724890F86C0150B900206F4981F85C
:100DA0006D014FF0501007F0A1FA002001F090FC07
:100DB00090E26B4890F8580058B9052C02DD201FCE
:100DC000C4B21CE0032C1ADA002C18DD601EC4B279
:100DD00015E0634890F85800022810D1062C01D184
:100DE00002240CE0052C01D1022408E0022C02D1DF
:100DF000601EC4B203E0012C01D1601EC4B269E2DE
:100E0000574890F8580058B9052C04DA012C02DD37
:100E1000201DC4B213E0022C11DA601CC4B20EE033
:100E20004F4890F85800022809D1022C01D106241D
:100E300005E0012C01D1022401E004B9012449E2BA
:100E400000BF00BF00BF00BF00BF00BF00BF00BFAA
:100E500000BF00BFA01E072871D2DFE800F0043CED
:100E600056FD97C7E2004748007888BB3C4890F899
:100E70005800B0B97620ADF804003020ADF8060077
:100E80004C20ADF8080001A804F0FDF9344906E053
:100E900007E115E1E3E0E3E00BE103E141E1C865CF
:100EA00012E02F4890F8580002280DD17620ADF8B6
:100EB00004003020ADF806005020ADF8080001A86D
:100EC00004F029FA2649886709F0C6FE0CF0F0F80C
:100ED0000DF0BAFBC1E02B480078A8B9204890F883
:100EE000580068B97620ADF804004620ADF8060039
:100EF0004C20ADF8080001A804F0C5F918490866AF
:100F000009F0AAFE0DF0A0FBA7E01E480078A8B9E2
:100F1000134890F8580068B97620ADF804005C20BA
:100F2000ADF806004C20ADF8080001A804F0ABF9BC
:100F30000B49486609F090FE0DF086FB8DE08BE0D2
:100F40005500002057000020FA000020000100207A
:100F50007E000020A20000203D0000205418002048
:100F60005C13002038003100C8B7C8CF0000000073
:100F700048010020BA000020F0000020D800002026
:100F8000BB000020B600002059000020D5480078A2
:100F900058BBD54890F8580078B94FF4B870ADF800
:100FA00004003020ADF806004C20ADF8080001A880
:100FB00004F07DFACC49C86613E0CB4890F858009D
:100FC00002280ED14FF4B870ADF804003020ADF80F
:100FD00006004C20ADF8080001A804F068FAC249E8
:100FE000C86709F039FE0DF02FFB36E0BD480078E8
:100FF000B0B9BD4890F8580070B94FF4B870ADF86A
:1010000004004620ADF806004C20ADF8080001A809
:1010100004F04DFAB449086709F01EFE0DF014FB08
:101020001BE0B0480078B0B9AF4890F8580070B9EC
:101030004FF4B870ADF804005C20ADF806004C2009
:10104000ADF8080001A804F032FAA749486709F092
:1010500003FE0DF0F9FA00E000BF00BF3AE139E10C
:10106000A048007890B90320A04908700DF002FB59
:1010700001209F4908709FED9F0A9F4880ED1D0A3F
:101080000120984908700CF013F809E003209749F3
:1010900008700020934908700CF00AF80DF0E2FA8D
:1010A00018E117E18F48007810B9122093490870B1
:1010B00010E18C48007810B906209049087009E1C9
:1010C000012C2DD1884890F8580090B985480078B7
:1010D00030BB0220844981F858000BF0E9FF4FF043
:1010E000501007F003F9012001F0F2FA0DF0ACFA0C
:1010F00016E07D4890F85800022811D17948007810
:1011000070B90020784981F858000BF0D1FF4FF0FA
:10111000501007F0EBF8012001F0DAFA0DF094FA24
:10112000D8E0A01E07287CD2DFE800F004344ED0BF
:10113000689AB5006B48007848BB6B4890F8580037
:1011400070B97620ADF804003020ADF806004C20D0
:10115000ADF8080001A804F096F86349C86512E0EC
:10116000614890F8580002280DD17620ADF80400AF
:101170003020ADF806005020ADF8080001A804F0BA
:10118000CAF85949886709F067FD0BF091FF0DF027
:101190005BFA9CE053480078A8B9534890F858008F
:1011A00068B97620ADF804004620ADF806004C2062
:1011B000ADF8080001A804F066F84B49086609F08C
:1011C0004BFD0DF041FA82E046480078A8B9464848
:1011D00090F8580068B97620ADF804005C20ADF8AE
:1011E00006004C20ADF8080001A804F04CF83E4978
:1011F000486609F031FD0DF027FA68E039480078BB
:1012000068BB394890F8580088B94FF4B870ADF809
:1012100004003020ADF806004C20ADF8080001A80D
:1012200000E053E004F043F92F49C86613E02E486C
:1012300090F8580002280ED14FF4B870ADF80400B1
:101240003020ADF806004C20ADF8080001A804F0ED
:101250002EF92549C86709F0FFFC0DF0F5F936E0D5
:1012600020480078B0B9204890F8580070B94FF481
:10127000B870ADF804004620ADF806004C20ADF87B
:10128000080001A804F013F91749086709F0E4FC05
:101290000DF0DAF91BE013480078B0B9124890F865
:1012A000580070B94FF4B870ADF804005C20ADF888
:1012B00006004C20ADF8080001A804F0F8F80A492F
:1012C000486709F0C9FC0DF0BFF900E000BF00BF9E
:1012D00000E000BF00BF0948007815283FF44BAC80
:1012E00006B070BDB60000205C130020B9000020DD
:1012F0003400002000000000541800205900002095
:1013000010B54FF48061024806F010FC10BD0000DB
:101310000008024010B54FF48061024806F008FC56
:1013200010BD00000008024000BFFEE710B50446F3
:10133000C8216848FEF76FFF0120664908706648BB
:10134000007810B90846847007E0634800780128E7
:1013500003D104F110005F498870A5205D494870F1
:101360005D48007800284BD1012C05D0022C03D019
:10137000092C01D00A2C1BD1601E584951F82000BD
:10138000000E5449C870601E544951F82000000CEA
:1013900050490871601E514931F82000000A4D493A
:1013A0004871601E4D4911F820004A4988717EE05D
:1013B000601E4A4951F820000A21B0FBF1F0000EEE
:1013C0004449C870601E454951F820000A21B0FB0D
:1013D000F1F0000C3F490871601E404951F82000AF
:1013E0000A21B0FBF1F0000A3A494871601E3B49FE
:1013F00051F820000A21B0FBF1F03649887156E01F
:1014000035480078012852D1012C05D0022C03D098
:10141000032C01D0042C1FD104F10F002F4951F8E7
:101420002000000E2B49C87004F10F002B4951F821
:101430002000000C2749087104F10F00274931F8FA
:101440002000000A2349487104F10F00234911F8D4
:101450002000204988712AE004F10F001F4951F84B
:1014600020000A21B0FBF1F0000E1A49C87004F107
:101470000F001A4951F820000A21B0FBF1F0000CCE
:101480001449087104F10F00144951F820000A2191
:10149000B0FBF1F0000A0F49487104F10F000F4949
:1014A00051F820000A21B0FBF1F00A4988710721A8
:1014B000084806F065FB00120649C8710721054877
:1014C00006F05EFB03490872092102480FF0A4FDF3
:1014D00010BD000060230020BE0000206418002022
:1014E00010B50121C8050AF05BF900214FF4000096
:1014F0000AF056F910BD000001460020034A526868
:101500000A400AB1012000E00020704700B002400C
:1015100070B50021002200230024344D2D68344E84
:101520003540324E356035462D68066835432F4EBE
:10153000356035466D6B25F00705756335466D6B77
:1015400046683543294E7563456835B9C568290233
:10155000058A2A04057D2B0621E04568012D05D169
:10156000C5682902058A2A04002318E04568022D6F
:1015700005D1C56869010569EA0200230FE04568E5
:10158000032D06D1C56869010569AA024569EB0307
:1015900005E0C568290105692A0245692B0341EA6E
:1015A0000205866835431D43104EB66B35430F4E1A
:1015B000B5638569F56335462D6C6FF30D053564AC
:1015C00035462D6CC6693543084E3564858C2C0430
:1015D00035466D6C05F04045756435466D6C066AA0
:1015E00026433543014E756470BD000000B00240D3
:1015F000FCE0FCFF0348006840F00100014908607E
:101600007047000000B002407047000010B586B07F
:101610000446012108460AF0B3F8012110200AF01F
:10162000FFF807220A21214806F054FA072209216F
:101630001E4806F04FFA00208DF8160001208DF8A4
:10164000170002208DF814000002049002208DF88B
:10165000150004A9154806F0F5F902208DF81400CC
:101660004002049004A9114806F0ECF9009400200F
:10167000ADF80400ADF80600ADF80800ADF80C00B8
:101680000C20ADF80A00694609480EF0DFFB09F0AE
:101690004CFA012240F2255105480EF0B1FB012120
:1016A00003480EF06AFB06B010BD000000000240C7
:1016B000001001407CB504466FF07F40F749086098
:1016C000012C01D1012000E000200090009820B101
:1016D0004FF47F00F149486003E04FF05010EF49AC
:1016E0004860EF4900230722D1F8B800042106F032
:1016F00085FA122368221A21582006F02BFE0023B7
:10170000E84A1A21582010F05DF90023E64A1A2110
:10171000AA2010F057F9022C01D1012000E000208E
:101720000090009820B14FF47F00DC49486003E04E
:101730004FF05010D9494860D94900230722D1F809
:10174000BC00042106F05AFA122368222E215820E8
:1017500006F000FE0023D34A3021582010F032F961
:101760000023D14A3021AA2010F02CF9032C01D1FA
:10177000012000E000200090009820B14FF47F008D
:10178000C649486003E04FF05010C4494860C4495E
:1017900000230722D1F8C000042106F02FFA1223FB
:1017A00068224621582006F0D5FD0023BD4A462177
:1017B000582010F007F90023BB4A08324621AA201E
:1017C00010F000F9042C01D1012000E0002000906D
:1017D000009820B14FF47F00B049486003E04FF01B
:1017E0005010AE494860AE4900230722D1F8C4002A
:1017F000042106F003FA12237A225A21582006F017
:10180000A9FD0023A74A5C21582010F0DBF8002333
:10181000A54A08325C21AA2010F0D4F8052C01D189
:10182000012000E000200090009820B14FF47F00DC
:101830009A49486003E04FF0501098494860984931
:1018400000230822D1F8C800042106F0D7F912239A
:101850007A227021582006F07DFD0023914A7221E2
:10186000582010F0AFF800238F4A10327221B420B4
:1018700010F0A8F8062C01D1012000E00020009013
:10188000009820B14FF47F008449486003E04FF096
:10189000501082494860824900230822D1F8CC00C8
:1018A000042106F0ABF912237A228621582006F093
:1018B00051FD00237B4A8821582010F083F8002333
:1018C000794A10328821B42010F07CF8072C01D11D
:1018D000012000E000200090009820B14FF47F002C
:1018E0006E49486003E04FF050106C4948606C4806
:1018F00090F8D50008B16D4D00E06D4D12237A22AD
:1019000018214FF4A97006F025FD654890F8D00025
:10191000C0EBC000421900231A214FF4A97010F047
:1019200051F8082C01D1012000E00020009000981F
:1019300020B14FF47F005949486003E04FF0501048
:1019400056494860564890F8D50008B1594D00E016
:10195000594D12237A222E214FF4A97006F0FAFC79
:101960004F4890F8D100C0EBC0004219002330214D
:101970004FF4A97010F026F8092C01D1012000E0E5
:1019800000200090009820B14FF47F004349486048
:1019900003E04FF0501041494860414890F8D500AD
:1019A00008B1424D00E0424D12237A2244214FF407
:1019B000A97006F0CFFC3A4890F8D200C0EBC00006
:1019C0004219002346214FF4A9700FF0FBFF0A2CA7
:1019D00001D1012000E000200090009820B14FF4D8
:1019E0007F002E49486003E04FF050102B494860BB
:1019F0002B4890F8D50008B12C4D00E02C4D122357
:101A00007A225A214FF4A97006F0A4FC244890F8D9
:101A1000D300C0EBC000421900235C214FF4A97031
:101A20000FF0D0FF0B2C01D1012000E0002000902E
:101A3000009820B14FF47F001849486003E04FF050
:101A4000501016494860164890F8D50008B1174D57
:101A500000E0174D12237A2270214FF4A97006F08E
:101A600079FC0F4890F8D400C0EBC0004219002365
:101A700072214FF4A9700FF0A5FF072C22D2DFE8E6
:101A800004F01D0405060708090000BF00BF00BFE1
:101A900000BF00BF022001F01BFC17E00001002086
:101AA0005C1300207422002061400108F33E01080D
:101AB000B43E0108D03E0108C23E0108042001F0F6
:101AC00007FC03E0072001F003FC00BF00BF01F0AA
:101AD000B5FB0C2C64D2DFE804F0060A0B0C0D0EEB
:101AE0000F3810393A3B032000F084FE59E000BF64
:101AF00000BF00BF00BF00BF53E06FF07F402A4926
:101B000008602A4848602A4890F8D50008B1294D55
:101B100000E0294D0020019013E00199C1EBC101C3
:101B20004A190199C1EB011303EB4111202303EB87
:101B3000410188B20023F1210FF044FF0198401CBD
:101B4000019001980228E8D32BE000BF00BF00BF3E
:101B50006FF07F401449086014484860144890F8BA
:101B6000D50008B1154D00E0154D0020019013E09F
:101B70000199C1EBC1014A190199C1EB011303EBB2
:101B80004111202303EB410188B20023F1210FF022
:101B900019FF0198401C019001980228E8D300E049
:101BA00000BF00BF7CBD00000001002038003100F4
:101BB0005C130020D03E0108C23E0108F33E01083C
:101BC000B43E01087CB504466FF07F40FC490860D4
:101BD000012C01D1012000E000200090009820B1EC
:101BE0004FF47F00F649486003E04FF05010F4498D
:101BF0004860F44890F8B80208B1F34D00E0F34DA6
:101C0000122368221A21582006F0A4FBF04800781D
:101C1000C0EBC000421900231A2158200FF0D2FE59
:101C2000022C01D1012000E000200090009820B19A
:101C30004FF47F00E249486003E04FF05010E04964
:101C40004860E04890F8B80208B1E24D00E0E24D8B
:101C5000122368222E21582006F07CFBDC4890F8E5
:101C60002000C0EBC00042190023302158200FF0A3
:101C7000A9FE032C01D1012000E000200090009873
:101C800020B14FF47F00CE49486003E04FF0501080
:101C9000CB494860CB4890F8B80208B1CD4D00E080
:101CA000CD4D122368224621582006F053FBC84828
:101CB00090F82100C0EBC0004219002346215820B3
:101CC0000FF080FE042C01D1012000E000200090E4
:101CD000009820B14FF47F00B949486003E04FF00D
:101CE0005010B7494860BA49486A002307220421C6
:101CF00005F084FF12237A225A21582006F02AFB8D
:101D00000023B64A5C2158200FF05CFE0023B44A41
:101D10005C21AA200FF056FE052C01D1012000E025
:101D200000200090009820B14FF47F00A449486043
:101D300003E04FF05010A2494860A549886A00238B
:101D40000722042105F05AFF12237A22702158201D
:101D500006F000FB0023A14A722158200FF032FE4A
:101D600000239F4A7221AA200FF02CFE062C01D1DD
:101D7000012000E000200090009820B14FF47F0087
:101D80008F49486003E04FF050108D4948609049FA
:101D9000886C00230722042105F030FF12237A22E9
:101DA0008621582006F0D6FA00238C4A8821582034
:101DB0000FF008FE00238BA28821AA200FF002FE5C
:101DC000072C01D1012000E000200090009820B1F4
:101DD0004FF47F007A49486003E04FF05010784993
:101DE00048607B48006BE0B17949086B002306220C
:101DF000194605F003FF12237A2218214FF4A97027
:101E000006F0A8FA0023754A1A214FF4A9700FF0C2
:101E1000D9FD0023754A1A214FF4C7700FF0D2FD87
:101E20000DE012237A2218214FF4A97006F092FADD
:101E300000236FA21A214FF4A9700FF0C3FD082CE4
:101E400001D1012000E000200090009820B14FF463
:101E50007F005B49486003E04FF0501058494860EC
:101E6000584890F8B80208B1634D00E0634D5849F6
:101E7000486B00230722042105F0C0FE12237A22BA
:101E80002E214FF4A97006F065FA0023534A302141
:101E90004FF4A9700FF096FD0023514A083230210B
:101EA0004FF4D2700FF08EFD092C01D1012000E01B
:101EB00000200090009820B14FF47F004049486016
:101EC00003E04FF050103E4948604149886B0023C1
:101ED0000722042105F092FE12237A2244214FF4B6
:101EE000A97006F037FA00233C4A46214FF4A97046
:101EF0000FF068FD00233A4A46214FF4D2700FF0EC
:101F000061FD0A2C01D1012000E000200090009822
:101F100020B14FF47F002A49486003E04FF0501091
:101F2000274948602A49C86B00230822042105F08C
:101F300065FE12237A225A214FF4A97006F00AFA9C
:101F40000023264A5C214FF4A9700FF03BFD0023CB
:101F5000234A10325C214FF4D7700FF033FD0B2C65
:101F600001D1012000E000200090009820B14FF442
:101F70007F001349486003E04FF05010104948605B
:101F80001349086C00230522042105F037FE1223B3
:101F90007A2270214FF4A97006F0DCF900230F4A71
:101FA00072214FF4A9700FF00DFD002314A27221CD
:101FB0004FF4D2700FF006FD0C2C25D1012024E047
:101FC0000001002054150020F33E0108B43E010832
:101FD0005C1300201D3F01080F3F01087422002000
:101FE0006140010820562F6D73000000B6380108CB
:101FF000B9D8B1D500000000673F01082B3F0108A8
:1020000020412F6D7300000000200090009820B147
:102010004FF47F006E49486003E04FF050106C4968
:1020200048606C49486C00230522042105F0E6FD58
:1020300012237A2286214FF4A97006F08BF900232F
:10204000654A88214FF4A9700FF0BCFC0023AFF261
:10205000500288214FF4D2700FF0B4FC0D2C1AD22C
:10206000DFE804F019121314070809150A0B0C0D08
:102070000E0000BF00BF00BF00BF00BF00BF00BF19
:10208000022001F025F90AE000BF00BF00BF0720D1
:1020900001F01EF903E0042001F01AF900BF00BFAF
:1020A00001F0CCF80D2C7CD2DFE804F0070B335B99
:1020B00085868788898A8B8C8D00022000F09AFBA8
:1020C00083E06FF07F4042490860444848604448DC
:1020D00090F8B80208B1434D00E0434D0020019054
:1020E00013E00199C1EBC1014A190199C1EB011338
:1020F00003EB4111202303EB410188B20023F121BE
:102100000FF060FC0198401C019001980228E8D370
:102110005BE06FF07F402E490860304848603048EF
:1021200090F8B80208B1314D00E0314D0020019027
:1021300013E00199C1EBC1014A190199C1EB0113E7
:1021400003EB4111202303EB410188B20023F1216D
:102150000FF038FC0198401C019001980228E8D348
:1021600033E06FF07F401A4908601C4848601C4803
:1021700090F8B80208B11D4D00E01D4D00200190FF
:1021800015E00199C1EBC1014A190199C1EB011395
:1021900003EB4111202303EB410188B20023F1211D
:1021A00000E011E00FF00EFC0198401C0190019836
:1021B0000228E6D309E000BF00BF00BF00BF00BF98
:1021C00000BF00BF00BF00E000BF00BF7CBD00003B
:1021D000000100205C130020742200203800310030
:1021E00054150020F33E0108B43E01081D3F0108CC
:1021F0000F3F010810B504F023F801F01FF802F0BA
:1022000017FB10BD7CB50446F74890F8580000282D
:102210007ED1012C01D1012000E000200090009827
:1022200020B14FF47F00F149486003E04FF05010B7
:10223000EE49486014235C221821762006F08AF8C3
:102240006FF07F40E9490860E74890F85800C0EB1C
:10225000C000E749421800231A2176200FF0B2FB94
:10226000022C01D1012000E000200090009820B154
:102270004FF47F00DD49486003E04FF05010DB4928
:10228000486014235C222E21762006F063F86FF05C
:102290007F40D6490860D449C86D00230722042135
:1022A00005F0ACFC0023D34A302176200FF08AFBE6
:1022B0000023D14A3021C8200FF084FB032C01D128
:1022C000012000E000200090009820B14FF47F0032
:1022D000C649486003E04FF05010C44948601423D9
:1022E0005C224421762006F035F86FF07F40BF492C
:1022F0000860BD49086E00230722042105F07EFC1A
:102300000023BC4A462176200FF05CFB002300E04E
:10231000D3E0B94A4621C8200FF054FB042C01D168
:10232000012000E000200090009820B14FF47F00D1
:10233000AE49486003E04FF05010AC4948601423A8
:102340005C225A21762006F005F86FF07F40A749FD
:102350000860A549486E00230722042105F04EFCC1
:102360000023A44A5C2176200FF02CFB0023A24A14
:102370005C21C8200FF026FB062C01D1012000E0D3
:1023800000200090009820B14FF47F0097494860EA
:1023900003E04FF050109549486014235C222E2131
:1023A000C80005F0D7FF6FF07F40904908608E4964
:1023B000C86E00230722042105F020FC00238D4A6B
:1023C00030214FF4B8700FF0FDFA00238A4A921DB5
:1023D00030214FF4E1700FF0F5FA072C01D1012004
:1023E00000E000200090009820B14FF47F007F496A
:1023F000486003E04FF050107C49486014235C2291
:102400004421900005F0A6FF6FF07F4077490860F7
:102410007549086F00230722042105F0EFFB002314
:10242000744A46214FF4B8700FF0CCFA0023724A78
:10243000921D46214FF4E1700FF0C4FA082C01D12F
:10244000012000E000200090009820B14FF47F00B0
:102450006649486003E04FF0501064494860142317
:102460005C225A21900005F075FF6FF07F405F49B4
:1024700008605D49486F00230722042105F0BEFB78
:1024800000235C4A5C2188000FF09CFA00235A4A22
:10249000921D5C214FF4E1700FF094FA012C03D1EE
:1024A000062000F015FFACE01CB9032000F010FF7F
:1024B000A7E0082000F00CFFA3E04B4890F858007C
:1024C0000228F0D1012C01D1012000E00020009071
:1024D000009820B14FF47F004449486003E04FF07A
:1024E00050104249486014235C221821762005F0E0
:1024F00031FF6FF07F403D4908603B4890F858003D
:10250000C0EBC0003A49421800231A2176200FF090
:1025100059FA022C01D1012000E00020009000981F
:1025200020B14FF47F003149486003E04FF0501074
:102530002E494860142368222E21762005F00AFFD8
:102540006FF07F40294908602749886F00230722E0
:10255000012105F053FB0023264A302176200FF09D
:1025600031FA0023244A0C323021C8200FF02AFA15
:10257000062C01D1012000E000200090009820B13D
:102580004FF47F001949486003E04FF0501017499D
:10259000486014235C222E21C80005F0DBFE6FF09A
:1025A0007F40124908601049C86F002307220421A8
:1025B00005F024FB00230F4A30214FF4B8700FF0D0
:1025C00001FA00230C4A921D30214FF4E1700FF004
:1025D000F9F9012C03D1062000F07AFE11E06CB964
:1025E000032000F075FE0CE05C13002000010020C9
:1025F0002F3E0108742200209E380108082000F0B8
:1026000067FE2B4890F86D01B0BB092C3DD2DFE886
:1026100004F005093435363C37383900002000F025
:10262000E9F833E000F00AFE6FF07F4021490860CE
:1026300021484860214890F8B80208B1204D00E0D8
:10264000204D0020019013E00199C1EBC1014A190E
:102650000199C1EB011303EB4111202303EB41016D
:1026600088B20023F1210FF0ADF90198401C0190D0
:1026700001980228E8D309E009E000BF00BF00BFCD
:1026800000BF00BF00F0DAFD00E000BF0EE000F088
:10269000D5FD6FF07F400749086007484860002378
:1026A00009A2F1214FF4CC700FF08CF97CBD000031
:1026B000541800200001002038003100541500207B
:1026C000873D0108BF3D0108C8B7C8CF0000000022
:1026D0002DE9F0410746FFF78DFD6FF07F403A4945
:1026E00008603A4848603A4890F8B80208B1394E54
:1026F00000E0394E002306F12C02042118460FF0A9
:1027000061F96FF07F40304908604FF05010486029
:10271000324890F8580030BB314D002420E0042CA2
:102720000ED205EB041204EB440000EBC4001A23A4
:1027300003EB400081B2002318460FF043F90EE08E
:1027400005EB0412201F00EB400303EBC0001A232B
:1027500003EB400081B20023FA200FF033F9641C30
:10276000082CDCD32AE01D4890F85800022825D117
:102770001C4D002420E0042C0ED205EB041204EBC7
:10278000440000EBC4001A2303EB400081B2002395
:1027900018460FF017F90EE005EB0412201F00EBAE
:1027A000400303EBC0001A2303EB400081B2002377
:1027B000FA200FF007F9641C082CDCD317B90020AD
:1027C00000F018F8BDE8F081000100200352F3008A
:1027D000541500203C3A01084A3901085C130020D6
:1027E0001E3701089E37010810B5032000F002F8DB
:1027F00010BD000010B5044600F020FD002C7CD177
:102800006FF07F40AF490860AF484860AF4890F82C
:10281000B802002840D00023ADA2E7211C200FF011
:10282000D1F80023ACA2FB211C200FF0CBF8002331
:10283000ABA2E7217E200FF0C5F80023A9A2FB215F
:102840007E200FF0BFF80023A8A2E721DC200FF0C4
:10285000B9F80023A3A2FB21DC200FF0B3F800237A
:10286000A4A2E7214FF49D700FF0ACF800239DA2C5
:10287000FB214FF49D700FF0A5F800239FA2E721E4
:102880004FF4CC700FF09EF800239EA2FB214FF472
:10289000CC700FF097F814E100239BA2E7211C20D5
:1028A0000FF090F800239AA2FB211C200FF08AF869
:1028B000002399A2E7217E200FF084F8002398A23C
:1028C000FB217E200FF07EF8002397A2E721DC2079
:1028D0000FF078F8002392A2FB21DC200FF072F8B1
:1028E000002393A2E7214FF49D700FF06BF80023B3
:1028F0008BA2FB214FF49D7000E010E00FF062F816
:1029000000238DA2E7214FF4CC700FF05BF8002379
:102910008BA2FB214FF4CC700FF054F8D1E0012CC6
:102920002CD16FF07F4067490860674848600023FA
:1029300085A2E72166200FF045F8002384A2FB2141
:1029400066200FF03FF8002383A2E721B6200FF0A6
:1029500039F8002382A2FB21B6200FF033F80023C0
:1029600081A2E7214FF4D3700FF02CF8002380A24E
:10297000FB214FF4D3700FF025F8A2E0022C4FD1C9
:10298000524890F8B80230B3002351A2E7217E20CC
:102990000FF018F8002350A2FB217E200FF012F850
:1029A000002356A2E721DC200FF00CF8002372A2CE
:1029B000FB21DC200FF006F8002371A2E7214FF481
:1029C0009D700EF0FFFF00236BA2FB214FF49D7062
:1029D0000EF0F8FF75E000234BA2E7211C200EF05B
:1029E000F1FF00234AA2FB211C200EF0EBFF002385
:1029F00051A2E7217E200EF0E5FF002350A2FB212B
:102A00007E200EF0DFFF00235FA2E721DC200EF026
:102A1000D9FF00234AA2FB21DC200EF0D3FF50E0B7
:102A2000032C4ED1294890F8B80230B3002328A2D5
:102A3000E7217E200EF0C6FF002327A2FB217E2087
:102A40000EF0C0FF002322A2E721DC200EF0BAFF27
:102A5000002349A2FB21DC200EF0B4FF002348A292
:102A6000E7214FF49D700EF0ADFF002342A2FB2141
:102A70004FF49D700EF0A6FF23E0002322A2E72171
:102A80001C200EF09FFF002321A2FB211C200EF032
:102A900099FF00231CA2E7217E200EF093FF002364
:102AA00027A2FB217E200EF08DFF002336A2E72116
:102AB000DC200EF087FF002321A2FB21DC200EF09A
:102AC00081FF10BD000100203800310054150020A6
:102AD0004D454153000000004449535000000000A0
:102AE0004241540054455354000000002044594EC4
:102AF000410000004C495354000000004C494D492E
:102B00005400000053455400B2E2C1BF0000000071
:102B1000CFD4CABE00000000B5E7B3D80000000063
:102B2000B2E2CAD400000000B6AFCCAC0000000096
:102B3000C1D0B1ED00000000BCABCFDE0000000052
:102B4000C9E8D6C300000000CEC4BCFE00000000EF
:102B5000B9DCC0ED00000000B1A3B4E60000000045
:102B6000CAFDBEDD00000000B8FCB6E000000000B9
:102B700020322F3200000000534554555000000011
:102B80002053595300000000CFB5CDB30000000022
:102B900011B581B06248007800285DD1009057E0FF
:102BA0009DF804100098401C814204D14FF47F002E
:102BB0005C49486003E04FF050105A494860009863
:102BC0000A281FD2009800EB800080001A3081B2E2
:102BD00014235A22A02005F0BDFB5349009A51F856
:102BE000220000230722042105F008F8009800EBDA
:102BF000800080001A3081B201234C4AA0200EF0E0
:102C0000E1FE22E000980A3800EB800080001A30D4
:102C100081B214235A224FF4AF7005F09BFB424956
:102C2000009A51F8220000230722042104F0E6FF55
:102C300000980A3800EB800080001A3081B201232E
:102C40003A4A4FF4AF700EF0BDFE0098401C009061
:102C500000981028A4D33BE031480078012837D1F0
:102C60000020009031E09DF804100098401C814243
:102C700004D14FF47F002B49486003E04FF050101F
:102C800028494860009800EB800080001A3081B22B
:102C900014235A22A02005F05DFB2349009A10322C
:102CA00051F8220000230722042104F0A7FF009816
:102CB00000EB800080001A3081B201231B4AA02063
:102CC0000EF080FE0098401C009000980928CAD39E
:102CD0004FF050101349486000F0B0FA6FF07F4099
:102CE0001049086012484860124C0220009013E01E
:102CF0000099C1EBC1010A190099C1EB011303EB63
:102D00004111202303EB410188B20023F1210EF091
:102D100059FE0098401C009000980528E8D31CBD7F
:102D2000BE00002000010020641800207422002052
:102D300038003100D43D01087CB50446012C00D197
:102D400000E000200090009820B14FF47F00F0498F
:102D5000486003E04FF05010ED49486014235C22B6
:102D60001821762005F0F6FA6FF07F40E8490860F8
:102D7000E84890F88000C0EBC000E7494218002303
:102D80001A2176200EF01EFE022C01D1012000E057
:102D900000200090009820B14FF47F00DC4948608B
:102DA00003E04FF05010DA49486014235C222E21D2
:102DB000762005F0CFFA6FF07F40D5490860D549FD
:102DC000D1F8840000230722042104F017FF002318
:102DD000D24A302176200EF0F5FD0023D04A302172
:102DE000C8200EF0EFFD032C01D1012000E00020EF
:102DF0000090009820B14FF47F00C549486003E07F
:102E00004FF05010C249486014235C2244217620C0
:102E100005F0A0FA6FF07F40BD490860BD49D1F8C8
:102E2000880000230722042104F0E8FE0023BB4AA7
:102E3000462176200EF0C6FD0023B94A4621C8205F
:102E40000EF0C0FD042C01D1012000E00020009014
:102E5000009820B14FF47F00AD49486003E04FF087
:102E60005010AB494860142364225A21762005F0A3
:102E700071FA6FF07F40A6490860A649D1F8940026
:102E800000230522042104F0B9FE0023A34A5C219B
:102E900076200EF097FD0023A14A1E325C21B2205D
:102EA0000EF090FD052C01D1012000E000200090E3
:102EB000009820B14FF47F009549486003E04FF03F
:102EC00050109349486014235C221821900005F0AB
:102ED00041FA6FF07F408E4908608E4890F890006C
:102EE000C0EBC0008F49421800231A214FF4B8707C
:102EF0000EF068FD062C01D1012000E000200090BA
:102F0000009820B14FF47F008149486003E04FF002
:102F100050107F494860142370222E21C80005F00C
:102F200019FA6FF07F407A4908607A49D1F88C002D
:102F300000230822012104F061FE0023774A30219A
:102F40004FF4B8700EF03EFD0023754A2A3230214E
:102F50004FF4E5700EF036FD072C01D1012000E0A2
:102F600000200090009820B14FF47F00684948602D
:102F700003E04FF05010664948601423702244214A
:102F80004FF4B87005F0E6F96FF07F4060490860D3
:102F90006049D1F89C0000230822012104F02EFE94
:102FA00000235E4A46214FF4B8700EF00BFD00235B
:102FB0005B4A2A3246214FF4E5700EF003FD082CDF
:102FC00001D1012000E000200090009820B14FF4D2
:102FD0007F004F49486003E04FF050104C49486073
:102FE000142364225A214FF4B87005F0B3F96FF03E
:102FF0007F40474908604749D1F8980000230522DF
:10300000042104F0FBFD0023444A5C2188000EF0FB
:10301000D9FC0023424A1E325C214FF4D6700EF0D8
:10302000D1FC414890F86D01002861D124B1012CF8
:1030300006D0052C58D12DE00020FFF7DBFB56E031
:1030400000F0FCF86FF07F40314908603748486075
:10305000374890F8B80208B1364D00E02E4D0020F8
:10306000019013E00199C1EBC1014A190199C1EB2B
:10307000011303EB4111202303EB410188B200232C
:10308000F1210EF09FFC0198401C0190019802284C
:10309000E8D32CE000F0D2F86FF07F401C490860C4
:1030A00022484860224890F8B80208B11D4D00E05F
:1030B0001C4D0020019013E00199C1EBC1014A1998
:1030C0000199C1EB011303EB4111202303EB4101F3
:1030D00088B20023F1210EF075FC0198401C01908C
:1030E00001980328E8D302E000F0A8F800BF0EE042
:1030F00000F0A4F86FF07F40054908600B48486075
:1031000000230DA2F1214FF4CC700EF05BFC7CBDCE
:10311000000100205C130020B43E0108742200204E
:103120009E380108DE3E01085418002038003100A6
:1031300054150020F33E0108C8B7C8CF00000000B6
:1031400070B5FFF757F86FF07F40214908602148BC
:103150004860214890F8B80208B1204E00E0204EA7
:10316000002306F14202042118460EF02BFC6FF0FA
:103170007F40174908604FF050104860194D0024F7
:1031800020E0042C0ED205EB041204EB440000EB0B
:10319000C4001A2303EB400081B2002318460EF04E
:1031A00011FC0EE005EB0412201F00EB400303EBC3
:1031B000C0001A2303EB400081B20023FA200EF076
:1031C00001FC641C082CDCD30020FFF713FB70BD4E
:1031D000000100200352F300541500203C3A01087E
:1031E0004A3901081E3801082DE9F841054688468C
:1031F000144600261CE0207800B91AE02078203818
:1032000000EB8000C00000EB8000C700F81707EB60
:103210005070094901EBE000A919009088B22823F9
:103220001A46414605F0AEFD641C06F11C0086B24C
:10323000E1E700BFBDE8F88184B2070810B50024BB
:103240003CE0204820494860A1000A31C4EB041248
:1032500002EB420201EB420188B22B235A22E42105
:1032600005F078F81948184948605E2204FB02F11D
:103270000B3188B201235A22E32105F06BF8C4EB2D
:10328000041101EB4411642202EB410188B22C23AA
:103290000122E32105F05EF800200B494860C4EBF1
:1032A000041101EB4411642202EB4101491C88B274
:1032B0002C230322E32105F04DF8641C052CC0D318
:1032C00010BD000038003100000100206843690093
:1032D00010B50446012C0DD13D483E4948604FF4DD
:1032E0007F00086000233CA2CD214FF491700EF0C6
:1032F00069FB6CE0022C0ED14FF05010354948604C
:103300004FF47F000860002339A2CD214FF49B7059
:103310000EF058FB5BE0032C0AD12D482D49486084
:1033200014239622CD214FF49B7005F013F84EE044
:10333000042C0BD14FF050102649486014239622DC
:10334000CD214FF49B7005F005F840E0052C0ED11F
:103350004FF050101F4948604FF47F000860002371
:1033600028A2CD214FF49B700EF02CFB2FE0062CF1
:103370000DD11748174948604FF47F0008600023BB
:1033800025A2CD214FF49B700EF01CFB1FE0072CF3
:103390000ED14FF050100F4948604FF47F00086085
:1033A00000231DA2CD214FF49B700EF00BFB0EE00D
:1033B000082C0CD10648074948604FF47F0008608C
:1033C00000230BA2CD214FF49B700EF0FBFA10BD31
:1033D0006534340000010020C7EBD3C3CAFDD7D643
:1033E000BCFCC5CCBBF2D0FDC5A5CAE4C8EB00004F
:1033F000C7EBD3C3CAFDD7D6BCFCC5CCCAE4C8EB67
:1034000000000000B0B4CFC2D0FDC5A5C7D0BBBB83
:10341000B2BDD6E800000000B0B4CFC2D0FDC5A553
:10342000BFECCBD9D1A1D4F10000000070B502F0FF
:103430008DFB6FF07F402349086023484860234894
:1034400090F8B80208B1224E00E0224E002306F1A7
:103450001602042118460EF0B5FA6FF07F401949A4
:1034600008604FF0501048601B4D002424E0022CEF
:1034700010D204EB840005EB400204EB440000EBA7
:10348000C4001A2303EB400081B2002318460EF05B
:1034900099FA10E004EB840005EB4002A01E00EB5B
:1034A000400303EBC0001A2303EB400081B200236A
:1034B000FA200EF087FA641C032CD8D30020FFF703
:1034C00099F970BD000100200352F300541500204B
:1034D0003C3A01084A390108003701087CB5054625
:1034E000012D00D100E000200090009820B14FF4A1
:1034F0007F006849486003E04FF05010654948601C
:1035000014235C221821582004F024FF6FF07F4020
:10351000604908606049C86C00230522032104F05B
:103520006DFB00235D4A1A2158200EF04BFA022D44
:1035300001D1012000E000200090009820B14FF45C
:103540007F005449486003E04FF0501051494860F3
:103550001423682218214FF4A97004F0FBFE6FF0C9
:103560007F404C4908604C49486D002305220321E7
:1035700004F044FB0023494A1A214FF4A9700EF0CD
:1035800021FA032D01D1012000E0002000900098D5
:1035900020B14FF47F003F49486003E04FF05010E6
:1035A0003C49486014235C222E21582004F0D2FEAE
:1035B0006FF07F40374908603749086D00230522C6
:1035C000032104F01BFB0023344A302158200EF065
:1035D000F9F925B1012D06D0022D58D12DE000209A
:1035E000FFF708F954E0FFF729FE6FF07F40294903
:1035F00008602B4848602B4890F8B80208B12A4C64
:1036000000E02A4C0020019013E00199C1EBC101B8
:103610000A190199C1EB011303EB4111202303EBBC
:10362000410188B20023F1210EF0CCF90198401C31
:10363000019001980528E8D32AE0FFF7FFFD6FF01D
:103640007F401449086016484860164890F8B80250
:1036500008B1174C00E0174C0020019013E00199CD
:10366000C1EBC1010A190199C1EB011303EB41112F
:10367000202303EB410188B20023F1210EF0A2F9CF
:103680000198401C019001980028E8D000E000BF9C
:1036900000BF7CBD000100205C13002074220020CC
:1036A0003800310054150020873D0108C83C01084E
:1036B000AA3F0108A33F010870B502F04FFA6FF06E
:1036C0007F402C4908602C4848602C4890F8B8028C
:1036D00008B12B4E00E02B4E002306F1840204219A
:1036E00018460EF06FF96FF07F40224908604FF0E6
:1036F00050104860214890F8B80208B1224D00E00F
:10370000214D00242FE0062C11D24FF05010194902
:10371000486004EB840005EB4002162304FB03F031
:103720001A3081B2002318460EF04CF91AE0A01F9F
:10373000022806D9082804D24FF050100D494860DD
:1037400003E04FF050100B49486004EB840005EB98
:103750004002A01F162358431A3081B20023FA20DA
:103760000EF030F9641C0B2CCDD30320FFF742F888
:1037700070BD0000000100200352F300541500202A
:103780003C3A01084A390108A63B010810B502F08D
:1037900057FDFFF753FD10BD30B595B0054602F05B
:1037A000C1FE01222946684601F052F86C469DF898
:1037B00000008DF8380001980F900298109003983F
:1037C00011900498129005981390069814900F98F1
:1037D0004FF47A71B0FBF1F00F900B9818B90020FC
:1037E000099008900A900F9815B030BD70B5FFF79A
:1037F000CDFF6FF07F403D4908603D4848603D483F
:1038000090F8B80208B13C4D00E03C4D002305F1B2
:103810006E02042118460EF0D5F86FF07F40334950
:1038200008604FF050104860002459E0032C2AD261
:10383000334890F8D500012810D1C4EB0410314B67
:10384000C21804EB440000EBC4001A2303EB400051
:1038500081B2002318460EF0B5F840E0284890F8F1
:10386000D50030BBC4EB0410274BC21804EB440056
:1038700000EBC4001A2303EB400081B2002318467A
:103880000EF0A0F82BE01E4890F8D500012811D1C9
:10389000C4EB04101B4BC218E01E00EB400303EB0B
:1038A000C0001A2303EB400081B20023FA200EF07F
:1038B00089F814E0124890F8D50080B9C4EB0410E0
:1038C000114BC218E01E00EB400303EBC0001A23AB
:1038D00003EB400081B20023FA200EF073F8641C61
:1038E000052CA3D30020FEF785FF70BD000100204A
:1038F0000352F300541500203C3A01084A390108EC
:103900005C1300204B3D0108003D010810B5B04894
:10391000B04908604FF050104860AF4890F8D500AB
:10392000F0B90023ADA25E214FF496700EF04AF874
:103930000023ABA25E214FF4AF700EF043F8A9490B
:1039400091F87D10481C00230222194604F056F914
:103950000023A54A5E214FF4A1700EF033F81BE05E
:103960009D4890F8D500012816D100239FA25E2122
:103970004FF496700EF026F89A4991F87D10481C85
:1039800000230222194604F039F90023964A5E21E9
:103990004FF4A9700EF016F88F4890F8D50080B952
:1039A000904890F87D108C48E430405CC0EBC0003B
:1039B0009049421800235E214FF4C8700EF002F8BF
:1039C00014E0854890F8D50001280FD1854890F87B
:1039D0007D108148E430405CC0EBC000864942184D
:1039E00000235E214FF4C8700DF0ECFF7A4890F888
:1039F000D500E0B9002381A272214FF496700DF03A
:103A0000E1FF00237FA288214FF496700DF0DAFFCA
:103A100000237EA29E214FF496700DF0D3FF002369
:103A20007CA2B4214FF496700DF0CCFF20E06A48E0
:103A300090F8D50001281BD1002378A272214FF401
:103A400096700DF0BFFF002375A288214FF4967089
:103A50000DF0B8FF002373A29E214FF496700DF075
:103A6000B1FF002370A2B4214FF496700DF0AAFFAD
:103A7000594890F8210038BB5A480068642806D29B
:103A8000002307220421184604F0B8F806E055493F
:103A9000002307220868042104F0B0F851490023EC
:103AA00007220868042104F0A9F800234E4A722175
:103AB0004FF4B4700DF086FF002358A272214FF42A
:103AC000DC700DF07FFF24E0434890F821000128CE
:103AD0001FD144480068642806D20023062203212F
:103AE000184604F08BF806E03E49002306220868D9
:103AF000032104F083F800233B4A72214FF4B47091
:103B00000DF060FF002345A272214FF4DC700DF030
:103B100059FF314890F82000A8B932490023072204
:103B20004868042104F06AF800232F4A88214FF4E2
:103B3000B4700DF047FF00233DA288214FF4DC70E4
:103B40000DF040FF19E0244890F82000012814D11E
:103B50002449002306224868032104F04FF800237B
:103B6000214A88214FF4B4700DF02CFF002330A2BD
:103B700088214FF4DC700DF025FF1A49002307223D
:103B8000C868032104F03AF80023174A9E214FF435
:103B9000B4700DF017FF002326A29E214FF4DC70B5
:103BA0000DF010FF0F4900230422D1F880000121FD
:103BB00004F024F800230C4AB42148000DF002FF61
:103BC00000231DA2B4214FF4DC700DF0FBFE10BDEC
:103BD00000FFFF00000100205C130020B5DA0000A8
:103BE000B2BD000054180020742200205374657088
:103BF00000000000D043010816440108B5E7D1B920
:103C000000000000B5E7C1F700000000B9A6C2CA75
:103C100000000000CAB1BCE4000000005600000033
:103C2000490000005000000054494D4500000000CC
:103C30004100000057000000730000002DE9F04132
:103C40000546012D00D100E00020064626B14FF4C4
:103C50007F00FD49486003E04FF05010FA4948608A
:103C600014235C221821762004F074FB6FF07F404F
:103C7000F5490860F54991F8D6000023032219465A
:103C800003F0BCFF0023F24A1A2176200DF09AFEC1
:103C9000022D01D1012000E00020064626B14FF49C
:103CA0007F00E949486003E04FF05010E649486062
:103CB00014235C222E21762004F04CFB6FF07F4011
:103CC000E1490860E14890F8D700C0EBC000E14945
:103CD00042180023302176200DF074FE032D01D10F
:103CE000012000E00020064626B14FF47F00D649AF
:103CF000486003E04FF05010D349486014235C2221
:103D00004421762004F026FBD049D1F8E0000023BE
:103D10000722042103F072FF6FF07F40CA49086058
:103D20000023CB4A462176200DF04CFE0023CA4AE0
:103D30004621C8200DF046FE042D01D1012000E0EF
:103D40000020064626B14FF47F00BF49486003E0DB
:103D50004FF05010BC49486014235C221821900099
:103D600004F0F8FA6FF07F40B7490860B74890F860
:103D7000D900C0EBC000B949421800231A214FF402
:103D8000B8700DF01FFE052D01D1012000E00020CC
:103D9000064626B14FF47F00AB49486003E04FF080
:103DA0005010A949486014235C222E21C80004F059
:103DB000D1FA6FF07F40A4490860A449D1F8DC0033
:103DC00000230722042103F019FF0023A04A302119
:103DD0004FF4B8700DF0F6FD00239F4A30214FF4E8
:103DE000E1700DF0EFFD062D01D1012000E0002073
:103DF000064626B14FF47F009349486003E04FF038
:103E0000501091494860102350225E21002004F098
:103E1000A1FA6FF07F408C4908608C4890F8D5007B
:103E2000D8B900238EA25E2118460DF0CBFD0023E9
:103E30008CA25E2132200DF0C5FD8B4991F87C10DB
:103E4000481C00230222194603F0D8FE0023804AB2
:103E50005E2116200DF0B6FD19E07C4890F8D500E3
:103E6000012814D1002381A25E2118460DF0AAFD7D
:103E70007D4991F87C10481C00230222194603F06A
:103E8000BDFE0023724A5E2126200DF09BFD072D0A
:103E900001D1012000E00020064626B14FF47F004A
:103EA0006949486003E04FF05010674948601023AB
:103EB00050225E21642004F04DFA644890F8D50049
:103EC00078B9694890F87C106048E430405CC0EBF9
:103ED000C0006849421800235E2164200DF072FD85
:103EE00013E05A4890F8D50001280ED15E4890F8AA
:103EF0007C105648E430405CC0EBC0005E4942187C
:103F000000235E2164200DF05DFD4FF050104E49FE
:103F10004860554890F87C104C48E430405C0428D8
:103F20007DD04A4890F8D500F0B9002353A2722101
:103F300018460DF047FD002353A2882118460DF0C6
:103F400041FD002352A29E2118460DF03BFD0023A7
:103F500052A2B42118460DF035FD002351A2CA210A
:103F600018460DF02FFD22E0384890F8D5000128C2
:103F70001DD100234DA2722118460DF023FD002310
:103F80004CA2882118460DF01DFD00234BA288216C
:103F900018460DF017FD00234AA2882118460DF09F
:103FA00011FD002349A2882118460DF00BFD1223B4
:103FB00014227021C82004F0CDF912231422B2215A
:103FC000C82004F0C7F912231422C821084604F0BF
:103FD000C1F9254890F87C101C48E430405C00EBA7
:103FE00040001D49891F01EB400200237221C820B7
:103FF0000DF0E8FC1C4890F87C103548405C00EB64
:104000004000344901EB40020023B421C8200DF0E8
:10401000D9FC154890F87C102D48405C00E047E141
:1040200000EB40002B4901EB40020023CA21C820CD
:104030000DF0C8FC002328A28821C8200DF0C2FC86
:10404000082D4BD101204AE0000100205C13002024
:1040500074220020A6430108A4380108C23E0108CA
:10406000B5DA0000B2BD000054180020537465702A
:1040700000000000D043010816440108B8BAD4D8A3
:10408000B4F3D0A100000000CAB1BCE400000000FD
:10409000B1C8BDCFC0E0D0CD00000000C9CFCFDE99
:1040A00000000000CFC2CFDE000000004C4F4144B2
:1040B0000000000054696D6500000000436F6D70E2
:1040C0000000000048696768000000004C6F77003E
:1040D000AA140020CE380108730000000020064614
:1040E00026B14FF47F00FE49486003E04FF05010C6
:1040F000FB49486014235C227021642004F02AF9F3
:104100006FF07F40F6490860F64890F87C10F6485A
:10411000405C02280CD1F34991F87C20F24910311F
:1041200051F8220000230722012103F067FD0BE074
:10413000EC4991F87C20EC49103151F82200002321
:104140000822042103F05AFD0023E84A722164206A
:104150000DF038FC092D01D1012000E000200646B9
:1041600026B14FF47F00DE49486003E04FF0501065
:10417000DB49486014235C228621642004F0EAF8BD
:104180006FF07F40D6490860D64991F87C20D64927
:104190004C3131F8120000230422012103F02EFDDE
:1041A0000023D24A882164200DF00CFC0A2D01D195
:1041B000012000E00020064626B14FF47F00C849E8
:1041C000486003E04FF05010C549486014235C225A
:1041D0009C21642004F0BEF86FF07F40C049086065
:1041E000C04890F87C10C0486A30405CC0EBC0000A
:1041F000BF49421800239E2164200DF0E3FB0B2DE4
:1042000001D1012000E00020064626B14FF47F00D6
:10421000B349486003E04FF05010B149486014239F
:104220005C22B221642004F095F86FF07F40AC4925
:104230000860AC4991F87C20AB497C3151F82200F0
:1042400000230722042103F0D9FC0023A74AB4214C
:1042500064200DF0B7FB0C2D01D1012000E00020FF
:10426000064626B14FF47F009D49486003E04FF0B9
:1042700050109B49486014235C22C821642004F03C
:1042800069F86FF07F4096490860964991F87C2064
:104290009549B83151F8220000230722042103F088
:1042A000ADFC0023914ACA2164200DF08BFB7CE118
:1042B0008C4890F87C108C48405C0428F7D18A48E0
:1042C000E43890F8D50018BB0023AFF250227221D9
:1042D00018460DF077FB0023AFF2542288211846D0
:1042E0000DF070FB0023AFF258229E2118460DF00E
:1042F00069FB0023AFF25C22B42118460DF062FB8B
:104300000023AFF26022CA2118460DF05BFB28E0C3
:104310007548E43890F8D500012822D10023AFF287
:104320007422722118460DF04DFB0023AFF27C225F
:10433000882118460DF046FB0023AFF28022882129
:1043400018460DF03FFB0023AFF288228821184663
:104350000DF038FB0023AFF28C22882118460DF0B7
:1043600031FB122314227021C82003F0F3FF122323
:104370001422B221C82003F0EDFF12231422C82119
:10438000084603F0E7FF0023AFF2B4228821C820DB
:104390000DF018FB072D01D1012000E0002006469A
:1043A00026B14FF47F004E49486003E04FF05010B3
:1043B0004B4948604B4991F87C204B49103151F8EA
:1043C000220000230722042103F018FC14235C229E
:1043D0007021642003F0BEFF0023444A7221642050
:1043E0000DF0F0FA082D01D1012000E00020064672
:1043F00026B14FF47F003A49486003E04FF0501077
:104400003749486014235C227021642003F0A2FF26
:104410006FF07F4032490860324991F87C20324980
:10442000103151F8220000230722042103F0E6FB9B
:1044300000232E4A722164200DF0C4FA092D01D107
:10444000012000E00020064626B14FF47F002449F9
:10445000486003E04FF050102149486014235C226B
:104460008621642003F076FF6FF07F401C490860CE
:104470001C4991F87C201C494C3131F81200002372
:104480000422012103F0BAFB0023184A882164208A
:104490000DF098FA0A2D01D1012000E00020064617
:1044A00026B14FF47F000E49486003E04FF05010F2
:1044B0000B49486014235C229C21642003F04AFFCE
:1044C0006FF07F4006490860064890F87C10064867
:1044D0006A30405CC0EBC00005494218002309E087
:1044E00000010020541800204014002074220020F5
:1044F000394401089E2164200DF064FA0B2D01D18E
:10450000012000E00020064626B14FF47F00AD49AF
:10451000486003E04FF05010AA49486014235C2221
:10452000B221642003F016FF6FF07F40A5490860B8
:10453000A54991F87C20A54951F8220000230722C3
:10454000042103F05BFB0023A14AB42164200DF099
:1045500039FA0C2D01D1012000E00020064626B1D9
:104560004FF47F009749486003E04FF050109549A1
:10457000486014235C22C821642003F0EBFE6FF036
:104580007F4090490860904991F87C208F493C31E8
:1045900051F8220000230722042103F02FFB0023FF
:1045A0008B4ACA2164200DF00DFA0D2D1CD2DFE8D4
:1045B00005F01B07141B15081016090A170B0C0031
:1045C00000BF00BF00BF00BF00BF0220FEF780FE9B
:1045D0000EE00520FEF77CFE0AE000BF00BF00BF32
:1045E0000720FEF775FE03E00420FEF771FE00BF12
:1045F00000BF754890F86D0100286ED1FEF71EFED1
:1046000074480078002869D1042D31D003DC3DB115
:10461000022D77D108E0072D4ED00A2D72D172E01D
:104620000020FEF7E7F893E0FEF708FE6FF07F400A
:104630006449086068484860684890F8B80208B162
:10464000674F00E0674F00240FE0C4EBC401CA19B4
:10465000C4EB041101EB4411202303EB410188B2A8
:104660000023F1210DF0AEF9641C032CEDD36FE0B3
:10467000FEF7E4FD6FF07F405249086056484860FD
:10468000564890F8B80208B1574F00E0574F002441
:104690000FE0C4EBC401CA19C4EB041101EB4411CF
:1046A000202303EB410188B20023F1210DF08AF9A8
:1046B000641C022CEDD34BE0FEF7C0FD6FF07F4091
:1046C0004049086044484860444890F8B80208B13E
:1046D000474F00E0474F002411E062E039E0C4EBAF
:1046E000C401CA19C4EB041101EB4411202303EBEC
:1046F000410188B20023F1210DF064F9641C052CFE
:10470000EDD325E023E0FEF799FD6FF07F402D49C2
:10471000086031484860314890F8B80208B1364F17
:1047200000E0364F00240FE0C4EBC401CA19C4EB0B
:10473000041101EB4411202303EB410188B2002353
:10474000F1210DF03FF9641C042CEDD300E000BF13
:1047500036E020480078012832D1FEF76FFD6FF077
:104760007F40184908601C4848601C4890F8B8020F
:1047700008B1234F00E0234F00240FE0C4EBC40135
:10478000CA19C4EB041101EB4411202303EB4101CE
:1047900088B20023F1210DF015F9641C052CEDD32E
:1047A0000EE0FEF74BFD6FF07F40064908600A48B7
:1047B0004860002314A2F1214FF4CC700DF002F9EF
:1047C000BDE8F0810001002054180020BC14002036
:1047D00074220020330000203800310054150020DE
:1047E000BB430108A6430108D03E0108C23E0108B0
:1047F00016440108D04301089B44010839440108CC
:104800007844010855440108C8B7C8CF000000002B
:1048100010B5054805494860962340F2DF124C2147
:10482000002003F097FD10BD653434000001002026
:1048300010B5054805494860742340F2DF126E2127
:10484000002003F087FD10BD653434000001002016
:104850002DE9F04192B005460E4617460120119011
:10486000F94800780D9001200B9000200A900990E3
:104870000890079002900190039001900C9009E03D
:1048800020200EA99DF8302088549DF83000401C4F
:10489000C0B20C909DF830000828F1DB00208DF8A4
:1048A00040000FB1082400E00624AFE1B8F1010F89
:1048B00003D103F0B1FB0D9001E04FF001089DF82A
:1048C000340000287ED001200B909DF83400202871
:1048D00079D2DFE800F0788291A0F278CDBEAFDC2B
:1048E000F3F0EFEEED787F7E5733107878EC788038
:1048F0008178787878EB0020039011909DF81C0067
:10490000A04218DA9DF82800A8B99DF81C000028DC
:104910000CDD2E200EA99DF81C2088549DF81C004B
:1049200009909DF81C00401CC0B207909DF828001B
:10493000401CC0B20A90012004904CE10120039079
:10494000002011909DF81C00A04218DA9DF8280064
:10495000A8B99DF81C0000280CDD2E200EA99DF89A
:104960001C2088549DF81C0009909DF81C00401CD8
:10497000C0B207909DF82800401CC0B20A900120E8
:10498000049028E102200390002011909DF81C0063
:10499000A0421BDA9DF82800C0B99DF81C00002831
:1049A0000CDD2E200EA99DF81C2088549DF81C00BB
:1049B00009909DF81C00401CC0B207909DF828008B
:1049C000401C01E008E105E1C0B20A90012004901A
:1049D00001E100E1FFE0FEE0FDE09DF81C00A042E7
:1049E00009DA31200EA99DF81C2088549DF81C007E
:1049F000401CC0B20790EEE09DF81C00A04209DA0E
:104A000032200EA99DF81C2088549DF81C00401CE3
:104A1000C0B20790DFE09DF81C00A04209DA332005
:104A20000EA99DF81C2088549DF81C00401CC0B2A3
:104A30000790D0E09DF81C00A04209DA34200EA9AE
:104A40009DF81C2088549DF81C00401CC0B20790A3
:104A5000C1E09DF81C00A04209DA35200EA99DF89E
:104A60001C2088549DF81C00401CC0B20790B2E086
:104A70009DF81C00A04209DA36200EA99DF81C20E2
:104A800088549DF81C00401CC0B20790A3E09DF81C
:104A90001C00A04209DA37200EA99DF81C2088547A
:104AA0009DF81C00401CC0B2079094E06EE06CE0E2
:104AB00022E030E051E010E000E068E09DF81C00EA
:104AC000A04209DA38200EA99DF81C2088549DF8D0
:104AD0001C00401CC0B207907DE09DF81C00A04265
:104AE00009DA39200EA99DF81C2088549DF81C0075
:104AF000401CC0B207906EE09DF81C00A04209DA8D
:104B000030200EA99DF81C2088549DF81C00401CE4
:104B1000C0B207905FE09DF81C00A0421CDA9DF82F
:104B20001C00002818DD9DF82800A8B99DF81C007D
:104B300000280CDD2E200EA99DF81C2088549DF81D
:104B40001C0009909DF81C00401CC0B207909DF805
:104B50002800401CC0B20A903DE09DF81C000028CF
:104B600012DD9DF81C00401EC0B2079020200EA947
:104B70009DF81C2088549DF824009DF81C10884244
:104B800002D100200A90099025E024E023E00020D3
:104B9000039011909DF81C00A04218DA9DF828009F
:104BA000A8B99DF81C0000280CDD2E200EA99DF848
:104BB0001C2088549DF81C0009909DF81C00401C86
:104BC000C0B207909DF82800401CC0B20A90012096
:104BD000049000E000BF00BF9DF82C00B0B10020A1
:104BE0000B906FF07F40194908604FF47F004860D8
:104BF000B38810339AB271883088122303F0AAFB6D
:104C00007188308800230EAA0CF0DCFE9DF8440069
:104C100000287FF44BAE9DF81C000C9009E030207A
:104C20000EA99DF8302088549DF83000401CC0B279
:104C30000C909DF830109DF82400401D8142EEDB61
:104C400000200C903EE00000BB000020000100208E
:104C50009DF83800302830DB9DF8380039282CDCEE
:104C60000EA89DF83010405C302826DB0EA89DF879
:104C70003010405C392820DC9DF824009DF830106D
:104C800088420DDD019800EB800040000190019901
:104C90000EA89DF83020805C3038084401900CE06C
:104CA000019800EB80004000019001990EA89DF84A
:104CB0003020805C3038084401909DF83000401C62
:104CC000C0B20C909DF830109DF82400401D814228
:104CD000BEDB9DF8240002909DF80000287001982A
:104CE00068600298A8600398E860049828610598B5
:104CF00068610698A86112B0BDE8F0812DE9F04125
:104D0000074688466FF07F40FE4908604FF050101C
:104D10004860FD4890F86B0150B9FC4890F8D60007
:104D2000052803DCF94890F8D6501DE005251BE066
:104D3000F54890F86B0101280CD1F44890F8D600A2
:104D40000A2805DCF14890F8D600401FC5B20BE0F8
:104D5000052509E0EC4890F86B01022804D1EB48E6
:104D600090F8D6000A38C5B2CA2340F2DF125E219D
:104D7000002003F0EFFA4FF050116FF07F4003F086
:104D800047FF6FF07F40DF494860C5F1040000EB4A
:104D9000400101EBC000CA21A1EB40005D3883B2A5
:104DA00001225E21002003F0D5FAC5F1040000EBDA
:104DB000400101EBC000CA21A1EB40005D3883B285
:104DC00001225E21282003F0C5FAC5F1040000EBA2
:104DD000400101EBC000CA21A1EB40005D3883B265
:104DE00001225E21782003F0B5FA012415E0C5F117
:104DF000040101EB410202EBC101CA22A2EB410115
:104E00005D398BB2642204FB02F101F178000122CA
:104E10005E2103F09FFA601CC4B2042CE7DB00247F
:104E20000CE0162204FB02F000F15E01012340F2C7
:104E3000DF12002003F08EFA601CC4B2A81C84426A
:104E4000EFDB4FF05010AF494860B04890F8D50004
:104E5000012826D10023AEA25E2103200CF0B2FD72
:104E60000023ACA249212B200CF0ACFD0023ABA207
:104E7000492153200CF0A6FD0023AAA24921B72006
:104E80000CF0A0FD0023A9A2492140F21B100CF058
:104E900099FD0023A7A2492140F27F100CF092FD5A
:104EA00029E09A4890F8D50028BB0023A3A26121ED
:104EB00003200CF087FD0023A2A261213F200CF00B
:104EC00081FD0023A1A2612199200CF07BFD00232C
:104ED000A0A26121FD200CF075FD00239FA261219D
:104EE00040F261100CF06EFD00239EA2612140F2A1
:104EF000B1100CF067FDFEF7A1F96FF07F4081491A
:104F000008609A4848609A4890F8B80208B1994EEB
:104F100000E0994E00240FE0C4EBC4018A19C4EBF1
:104F2000041101EB4411202303EB41000023F12184
:104F30000CF048FD601CC4B2052CEDDB002464E1DC
:104F40004FF050106F4948606F4991F86B1101EBB9
:104F500081012144481C00230222194602F04EFE22
:104F6000162204FB02F000F177010023834A03209C
:104F70000CF028FD644890F86B0100EB80000319E9
:104F80006248E430C05CC0EBC0007D4BC218162301
:104F900004FB03F000F17701002335200CF012FD33
:104FA000594890F86B0100EB800001195648843095
:104FB000405C744951F8200052490860524890F80A
:104FC0006B0100EB800001196F48405CC8B94E4985
:104FD00091F86B1101EB81010A194B49943151F899
:104FE000220000230722042102F008FE162204FBFF
:104FF00002F000F177010023604A7B200CF0E2FC14
:1050000022E0414890F86B0100EB800001195E48F6
:10501000405C012818D13C4991F86B1101EB8101EA
:105020000A193949943151F822000023062203213C
:1050300002F0E4FD162204FB02F000F177010023E8
:105040004E4A7B200CF0BEFC2F4890F86B0100EB21
:10505000800001192C488430405C4C4951F82000F4
:1050600028490860284890F86B0100EB800001197E
:1050700045480F30405CC8B9234991F86B1101EBEA
:1050800081010A194049783951F82200002307228A
:10509000042102F0B3FD162204FB02F000F17701B7
:1050A0000023364ADF200CF08DFC23E0164890F8F0
:1050B0006B0100EB8000011933480F30405C012880
:1050C00018D1114991F86B1101EB81010A192E4990
:1050D000783951F8220000230622032102F08EFDC8
:1050E000162204FB02F000F177010023234ADF209F
:1050F0000CF068FC044890F86B0100EB800001198B
:10510000014845E000010020541800205C130020F5
:105110004E4F00004D4F44450000000050415241A9
:1051200031000000504152413200000052455331DD
:10513000000000005245533200000000D0F2BAC512
:1051400000000000CFEEC4BF00000000B5E7D1B9F9
:1051500000000000B5E7C1F700000000B9A6C2CA10
:1051600000000000BDE1B9FB000000003800310084
:105170005415002078440108554401087422002089
:10518000D0430108583501089C1900204835010812
:105190008430405C1F4951F820001F4908601F49B6
:1051A00091F86B1101EB81010A191D4951F8220098
:1051B00000230722032102F021FD162204FB02F046
:1051C00000F177010023174A40F243100CF0FAFB7C
:1051D0006FF07F4010490860104890F86B0100EBB9
:1051E000800003190D488430C05CC0EBC0000E4B3A
:1051F000C218162304FB03F000F17701002340F2EC
:10520000A7100CF0DFFB601CC4B2AC42FFF698AEF6
:10521000BDE8F08168350108000100205418002025
:105220006019002074220020F343010830B595B0C6
:105230000546012229466846FFF70AFB6C469DF8A1
:1052400000008DF8380001980F9002981090039894
:1052500011900498129005981390069814900F9846
:1052600042F21071B0FBF1F00F900F98FF2801D9B6
:10527000FF200F900B9818B90020099008900A9011
:105280000F9815B030BD30B595B0054601F0BCF8AB
:10529000012229466846FFF7DBFA6C469DF80000BC
:1052A0008DF8380001980F90029810900398119093
:1052B0000498129005981390069814900B9818B9BA
:1052C0000020099008900A900F9815B030BD30B5B5
:1052D00095B0054601F0DCF8012229466846FFF743
:1052E000B7FA6C469DF800008DF8380001980F90D1
:1052F00002981090039811900498129005981390BA
:10530000069814900B9818B90020099008900A90FC
:105310000F9815B030BD30B595B0054601F0ECF8EA
:10532000012229466846FFF793FA6C469DF8000073
:105330008DF8380001980F90029810900398119002
:105340000498129005981390069814900F984FF4B3
:105350007A71B0FBF1F00F900B9818B9002009900A
:1053600008900A900F9815B030BD30B595B005463D
:1053700001F076F8012229466846FFF769FA6C4683
:105380009DF800008DF8380001980F900298109059
:105390000398119004981290059813900698149011
:1053A0000F9842F21071B0FBF1F00F900B9818B902
:1053B0000020099008900A900F9815B030BD30B5C4
:1053C00095B0054601F036F8012229466846FFF7F8
:1053D0003FFA6C469DF800008DF8380001980F9058
:1053E00002981090039811900498129005981390C9
:1053F000069814900F984FF47A71B0FBF1F00F906B
:105400000B9818B90020099008900A900F9815B0D1
:1054100030BD30B595B0054601F058F80122294657
:105420006846FFF715FA6C469DF800008DF83800C5
:1054300001980F9002981090039811900498129080
:1054400005981390069814900B9818B900200990AD
:1054500008900A900F9815B030BD30B595B005464C
:1054600001F060F8012229466846FFF7F1F96C4621
:105470009DF800008DF8380001980F900298109068
:105480000398119004981290059813900698149020
:105490000F9842F21071B0FBF1F00F900B9818B911
:1054A0000020099008900A900F9815B030BD30B5D3
:1054B00095B0054601F04CF8012229466846FFF7F1
:1054C000C7F96C469DF800008DF8380001980F90E0
:1054D00002981090039811900498129005981390D8
:1054E000069814900B9818B90020099008900A901B
:1054F0000F9815B030BD10B500240FE0601C00EB14
:10550000400202EBC0001A2202EB4000801E81B272
:10551000012364225A2002F01DFF641C072CEDD3E6
:1055200010BD000070B500F04DF86FF07F401E49CF
:1055300008601E4848601E4890F8B80208B11D4E29
:1055400000E01D4E002306F1B002042118460CF0C5
:1055500039FA6FF07F40144908604FF050104860EE
:10556000134890F8B80208B1144D00E0144D00241F
:105570000EE004EB440000EBC4004219162304FBC8
:1055800003F01A3081B2002318460CF01BFA641C99
:10559000072CEED36FF07F4003494860FFF7ABFF65
:1055A0000320FDF727F970BD000100200352F3002E
:1055B000541500203C3A01084A3901080941010804
:1055C000BC40010810B500F03BFEFDF737FE10BDF2
:1055D0007FB5044600208DF80700012C01D1012081
:1055E00000E000200290029820B14FF47F00FE49B5
:1055F000486003E04FF05010FB49486012236622D8
:105600001A215A2002F0A6FEF849B1F8DA01002367
:105610000322194602F0F2FA0023F54A1C215A200F
:105620000CF0D0F9022C01D1012000E00020029002
:10563000029820B14FF47F00EB49486003E04FF03F
:105640005010E94948601223662230215A2002F0A6
:1056500081FEE648B0F8D801C0EBC000E549421829
:10566000002332215A200CF0ADF9032C01D1012086
:1056700000E000200290029820B14FF47F00DA4948
:10568000486003E04FF05010D7494860DA4890F87E
:10569000B80208B1D94D00E0D94D12236622462147
:1056A0005A2002F057FED44890F8B602C0EBC00072
:1056B0004219002348215A200CF084F9042C01D10E
:1056C000012000E000200290029820B14FF47F00FA
:1056D000C549486003E04FF05010C3494860C648D0
:1056E00090F8B80208B1C74D00E0C64D12236622FB
:1056F0005C215A2002F02EFEBC4890F8E501C0EB78
:10570000C000421900235E215A200CF05BF9052CE1
:1057100001D1012000E000200290029820B14FF456
:105720007F00B149486003E04FF05010AE49486037
:105730001223662272215A2002F00CFEAE4890F825
:10574000B802B14901EBC002002374215A200CF0C9
:1057500039F901A9002006F069FA6946002006F02F
:105760002BFA062C01D1012000E0002002900298C3
:1057700020B14FF47F009C49486003E04FF0501087
:105780009949486012231A4688215A2002F0E2FD06
:105790009DF803209DA196480CF08AF90023944AB5
:1057A0008A215A200CF00EF94FF050108E494860B3
:1057B000002397A28A216E200CF004F9072C01D156
:1057C000012000E000200290029820B14FF47F00F9
:1057D0008549486003E04FF0501083494860122328
:1057E0001A468821782002F0B5FD9DF8012087A196
:1057F0007F480CF05DF900237D4A8A2178200CF067
:10580000E1F84FF0501078494860002380A28A21C7
:105810008C200CF0D7F8082C01D1012000E00020EA
:105820000290029820B14FF47F006F49486003E076
:105830004FF050106C49486012231A468821982076
:1058400002F088FD9DF8022070A169480CF030F943
:105850000023674A8A2198200CF0B4F8092C01D162
:10586000012000E000200290029820B14FF47F0058
:105870005D49486003E04FF050105B4948601223D7
:105880001A469E215A2002F065FD9DF804205FA172
:1058900057480CF00DF90023554AA0215A200CF06E
:1058A00091F84FF0501050494860002359A2A021B0
:1058B0006E200CF087F80A2C01D1012000E00020B6
:1058C0000290029820B14FF47F004749486003E0FE
:1058D0004FF050104449486012231A469E21782008
:1058E00002F038FD9DF8052048A141480CF0E0F891
:1058F00000233F4AA02178200CF064F84FF05010AC
:1059000039494860002343A2A0218C200CF05AF8AA
:105910000B2C01D1012000E000200290029820B160
:105920004FF47F003049486003E04FF050102E499B
:10593000486012231A469E21982002F00BFD9DF824
:10594000062032A12A480CF0B3F80023284AA021EF
:1059500098200CF037F80C2C01D1012000E0002039
:105960000290029820B14FF47F001F49486003E085
:105970004FF050101C49486012236622B4215A206F
:1059800002F0E8FC0023244AB6215A200CF01AF851
:10599000FDF754FC6FF07F40134908601F484860D2
:1059A0000C2C6FD2DFE804F006C209426487A2A380
:1059B000A4A5A6A7FCF718FFB9E00020039031E0EA
:1059C0000399C1EBC1010B4BCA180399C1EB011339
:1059D00003EB4111202303EB410188B20023F121A5
:1059E0000BF0F0FF03981BE0000100205C13002087
:1059F000742200205641010854150020F33E01088E
:105A0000B43E0108013F01088E41010825326400BF
:105A10002D0000003A0000000D1800203800310071
:105A2000401C039003980528CAD380E0414890F8B1
:105A3000B80208B1404D00E0404D0020039013E053
:105A40000399C1EBC1014A190399C1EB011303EB9F
:105A50004111202303EB410188B20023F1210BF017
:105A6000B1FF0398401C039003980228E8D35EE03E
:105A7000304890F8B80208B1314D00E0304D0020B8
:105A8000039014E052E00399C1EBC1014A19039954
:105A9000C1EB011303EB4111202303EB410188B259
:105AA0000023F1210BF08EFF0398401C0390039814
:105AB0000228E8D33BE00020039013E02149039B38
:105AC00001EBC3021946C3EB011303EB4111202381
:105AD00003EB410188B20023F1210BF073FF03981F
