:020000040804EE
:1000000050840120C1010408E5DD0408F99F0408BB
:100010009DDC0408351E04087D99050800000000D9
:10002000000000000000000000000000A11C050806
:100030008927040800000000B5E70408893D050889
:10004000DB010408DB010408DB010408D1F2040829
:10005000DB010408DB010408DB010408DB01040800
:10006000DB010408E18F0408DB010408DB0104085C
:10007000DB010408DB010408DB010408DB010408E0
:10008000DB010408DB010408DB010408DB010408D0
:10009000DB010408DB010408DB010408DB010408C0
:1000A000DB010408DB010408DB010408DB010408B0
:1000B000FF410508DB010408DB010408DB0104083B
:1000C000DB010408DB010408DB010408DB01040890
:1000D000DB0104082D5B0508DB010408A55B0508AE
:1000E000C98F0408DB010408DB010408DB010408F4
:1000F000DB010408DB010408DB010408DB01040860
:10010000DB010408DB010408DB010408DB0104084F
:10011000DB010408DB01040815420508DB010408C3
:10012000DB010408DB010408DB010408DB0104082F
:10013000DB010408DB010408DB010408DB0104081F
:10014000DB010408DB010408DB010408B1DE04085C
:10015000DB010408DB010408DB010408DB010408FF
:10016000DB010408DB010408DB010408DB010408EF
:10017000DB010408DB010408DB010408DB010408DF
:10018000DB010408DB010408DB010408DB010408CF
:10019000DB010408DB010408DB010408DB010408BF
:1001A000DB010408DB010408DB010408DFF80CD0E4
:1001B00000F0AAFD004800470DE105085084012029
:1001C0000648804706480047FEE7FEE7FEE7FEE7F1
:1001D000FEE7FEE7FEE7FEE7FEE7FEE72D3E050849
:1001E000AD0104082DE9F05F0546002092469B46CC
:1001F00088460646814640241BE02846414647463D
:10020000224600F072FB53465A46C01A914110D361
:1002100011461846224600F059FB2D1A67EB0108DB
:100220004F4622460120002100F050FB17EB000949
:100230004E41201EA4F10104DFDC484631462A4627
:100240004346BDE8F09F0000004870474C9B0F08F4
:1002500010B50446FFF7F8FF0068005D00F00100EC
:1002600010BD10B5431A934209D28318881803E0D1
:1002700010F8011D03F8011D521EF9D210BD40EA0D
:1002800001039B0703D009E008C9121F08C0042A14
:10029000FAD203E011F8013B00F8013B521EF9D2FB
:1002A00010BDD2B201E000F8012B491EFBD270470D
:1002B0000022F6E710B513460A4604461946FFF732
:1002C000F0FF204610BD10B5044604E00B7800F89E
:1002D000013B03B1491C521EF8D2204610BD421CFE
:1002E00010F8011B0029FBD1801A704710B50022BD
:1002F00000E0521C835C8C5CA34201D1002BF8D13E
:10030000D8B2E1B2401A10BD10B5044600E0401C5E
:100310000378002BFBD100E0401C521E04D311F8DF
:10032000013B0370002BF7D100210170204610BD66
:100330002DE9F0410546002090460E46044600E0B7
:10034000641C44450BD2285D00F0F1FA0746305D8D
:1003500000F0EDFA381A02D1295D0029F0D1BDE88C
:10036000F0812DE9F04791460F468046044600266D
:1003700014F8015B2DB1FFF767FF0068405DC0070F
:10038000F6D12B2D02D02D2D18D0641E4A463946A9
:10039000204600F0D2FA27B13968A14201D1C7F84E
:1003A000008071054FF002040BD54042002803DDA8
:1003B0001AF000FA0460A007BDE8F08746F48066F2
:1003C000E4E70028F8DA1AF0F5F904606FF000406D
:1003D000F2E72DE9F05F93460F468046044600267B
:1003E0001AF0E8F9D0F80090824614F8015B2DB1BC
:1003F000FFF72AFF0068405DC007F6D12B2D02D021
:100400002D2D1AD0641E0021CAF800105A46394614
:10041000204600F092FA014627B13868A04201D187
:10042000C7F80080DAF80000022809D0CAF8009066
:10043000700505D54842BDE8F09F46F48066E2E7C6
:100440000846F8E700F016BB00F05CBB2DE9FE4F54
:10045000804681EA0300C00F0C46009021F0004165
:1004600023F00045B8EB0200A94105D240462146E1
:1004700090461C460B46024623F00040104347D0EE
:10048000270DC7F30A00C3F30A510290401A0190E6
:1004900040286BDAC3F3130040F4801B00989246A7
:1004A00020B10023D2EB030A63EB0B0B01985946F2
:1004B000C0F14002504600F009FA06460D4650468B
:1004C0005946019A00F021FA10EB0800614100241E
:1004D00087EA115284EAE7731A4340D0009A62B364
:1004E000019A012A4FEA075215DC001B61EB020159
:1004F0004FF0004202EA0752CDE90042001C41F5EC
:10050000801132462B4600F081FB03B0BDE8F08F2E
:1005100040462146F9E7001B61EB0201001C41F552
:10052000801300185B412018A2F5001747EB030168
:1005300040EAD570B6196D4111E06D084FEA3606F4
:1005400045EAC0754FEA0752001B61EB0201001C2F
:1005500041F5801149084FEA3000001951413246F7
:100560002B4603B0BDE8F04F00F041BB00980122DC
:1005700040000023D0EB020263EBE07300982146B9
:100580004FEAE074B8EB000061EB0401E9E783F0A7
:1005900000435BE781F0004158E72DE9FE4F81EA17
:1005A000030404F0004421F0004100944FF0000BDC
:1005B00023F0004350EA01045ED052EA03045BD00A
:1005C000C3F30A54C1F30A552C44A4F2F334019442
:1005D000A0FB0254C1F3130141F48011C3F31303D0
:1005E00043F4801301FB024400FB034E840A970A84
:1005F00044EA815447EA8357A4FB076802958D0AB1
:1006000005FB07854FEA932C04FB0C542705029D3C
:100610004FEA065847EA1637B5EB08056EEB070CAC
:10062000870E920E47EA811742EA8312A7FB020166
:10063000B6EB0B0164EB00042B0D43EA0C335E18A0
:1006400044EB1C50DA465146E7FB0201C5F31304A4
:100650004FEA0B3343EA14534FEA0432019C43EA56
:100660000603A4F10C040294009CCDE900B400F050
:10067000CDFA03B0BDE8F08F00200146F9E72DE97F
:10068000F04D81EA030404F0004B21F000451446CC
:100690004FF0000A23F0004150EA050220D054EA4E
:1006A00001021DD0C5F30A570246C5F31303C1F377
:1006B0001300C1F30A5640F4801543F48013A7EBEE
:1006C0000608101BD64608F2FD3873EB050002D36E
:1006D00008F1010801E092185B41B8F1000F03DA5C
:1006E00000200146BDE8F08D00204FF48011064641
:1006F00084460EE0171B73EB050705D3121B63EB53
:10070000050306434CEA010C49084FEA30009218F1
:100710005B4150EA0107EDD152EA030012D082EAB0
:10072000040083EA0501084305D0101BAB4106D243
:100730000122002306E000224FF0004302E06FF0A8
:10074000010253101AEB06004CEB085110EB0A00A3
:1007500041EB0B01BDE8F04D00F049BA0EB5C10FF9
:1007600080EAE0700844CA07002140F233438DE874
:100770000E000A460B4600F049FA03B000BD0EB564
:1007800040F2334102910021CDE900110A460B46A7
:1007900000F03CFA03B000BD0EB540F233420292C5
:1007A0000022CDE90022134600F030FA03B000BD6C
:1007B000C1F30A5210B5C1F3130140F2FF3341F403
:1007C00080119A4201DA002010BD40F233439A4270
:1007D000A2F2334203DC524200F087F810BD904091
:1007E00010BD00F0004230F000400AD0C10D01F50C
:1007F0006071C0F3160042EA0151C208400711437C
:10080000704700200146704730B5041E71F10004A6
:1008100004DB4FF00044404264EB0101141E73F10D
:10082000000405DB1C464FF00043524263EB040317
:100830008B4208BF824230BD30B5041E71F1000406
:1008400004DB4FF00044404264EB0101141E73F1DD
:10085000000405DB1C464FF00043524263EB0403E7
:10086000994208BF904230BD01F0004330B421F0FE
:10087000004150EA010206D00A0DA2F56072C1F3F0
:100880001301002A02DC30BC00207047440F44EA08
:10089000C104C100E01830BC00EBC25000F070B9D8
:1008A00030B50B46014600202022012409E021FA40
:1008B00002F59D4205D303FA02F5491B04FA02F53D
:1008C0002844151EA2F10102F1DC30BD202A04DB10
:1008D000203A00FA02F1002070479140C2F1200353
:1008E00020FA03F3194390407047202A04DB203A92
:1008F00021FA02F00021704721FA02F3D040C2F140
:1009000020029140084319467047202A06DBCB1786
:10091000203A41FA02F043EAE07306E041FA02F3BA
:10092000D040C2F120029140084319467047A0F11F
:100930004101192900D8203070472DE9F05F824627
:100940000078002715468B460AF10104B946302885
:1009500001D09DB113E014F8010B0127782803D0D2
:10096000582801D045B10AE00DB1102D07D100275C
:10097000102514F8010B02E0082500E00A250026E6
:10098000B0460EE005FB080005FB06F1012701EB70
:1009900010461FFA80F8B6F5803F00D3B94614F828
:1009A000010B294600F0C2F90028EBDABBF1000F79
:1009B00005D00FB1641E00E05446CBF80040B9F1F9
:1009C000000F06D019F0F6FE02210160C81EBDE836
:1009D000F09F48EA0640FAE70FB4002300B589B05B
:1009E0000CA900910B996FF00042CB601E4B06934F
:1009F0001E4B07930423CDE901321D4A089202469B
:100A00006B46002000F020FA09B05DF814FB70B5C9
:100A100086B006464FF0FF300091CDE9010100207D
:100A200015460C4604903246694604A8FFF7D4FFE9
:100A300002460498211825B108B1084600E0204676
:100A40002860049800280DD0002A02DD0098884212
:100A500008D0081B0094CDE901043246694604A879
:100A6000FFF7BAFF06B070BD811004089F1004089C
:100A7000510204082DE9F04791460E46804604468F
:100A8000002514F8017B2FB1FFF7DEFB0068C05D85
:100A9000C007F6D12B2F02D02D2F1ED0641E4A4640
:100AA0003146204600F00CFB26B13268A24201D14B
:100AB000C6F800806A054FF0020418D50023D0EB79
:100AC000030563EB01025D1B934109DB0023D0EBBF
:100AD000030063EB0101BDE8F08745F48065DEE7C4
:100AE00019F068FE046000204FF00041F3E7021E99
:100AF00071F10002EFDA19F05DFE04604FF0FF3093
:100B00004108E8E72DE9F05F93460F46804604462A
:100B1000002619F04FFED0F80090824614F8015BD1
:100B20002DB1FFF791FB0068405DC007F6D12B2D7A
:100B300002D02D2D1FD0641E0021CAF800105A4685
:100B40003946204600F0BCFA024627B13868A04278
:100B500001D1C7F80080DAF8000002280ED0CAF8E8
:100B6000009070050AD500200346D2EB000063EB2D
:100B70000101BDE8F09F46F48066DDE71046F8E726
:100B80000029A8BF7047401C490008BF20F00100A1
:100B9000704710B4B0FA80FC00FA0CF050EA01047F
:100BA00004BF10BC704749B1CCF1200421FA04F411
:100BB00011FA0CF118BF012121430843A3EB0C01EA
:100BC000CB1D4FEA00614FEA102042BF002010BC4D
:100BD000704700EBC35010440029A4BF10BC7047FD
:100BE000401C490008BF20F0010010BC704710B540
:100BF000141E73F1000408DA401C41F10001921840
:100C00005B411A4301D120F0010010BD2DE9F04DE8
:100C100092469B4611B1B1FA81F202E0B0FA80F23D
:100C200020329046FFF752FE04460F4640EA0A0083
:100C300041EA0B0153465A46084313D0114653EA82
:100C4000010019D0C8F140025046FFF74EFE05469C
:100C50000E46504659464246FFF738FE084305D037
:100C6000012004E020463946BDE8F08D0020054310
:100C700046EAE0762C4337430A986305E40AA0EB82
:100C800008000022FD0A44EA47540A3002D5002039
:100C90000146E9E7010510196941DDE90845001938
:100CA0006941BDE8F04DA2E770B521F00043034370
:100CB0000CD0C1F30A550024D5EB040564EB040302
:100CC000D617AD1AB34102DB0020014670BD2018D3
:100CD00041EB025170BDC1F30A52C1F3130140F25E
:100CE000FF3341F480119A4202DA00200146704736
:100CF00040F233439A42A2F2334202DC5242FFF7FF
:100D0000F4BDFFF7E3BD0000064C074D06E0E068C8
:100D100040F0010394E8070098471034AC42F6D342
:100D2000FFF748FA1CA20F083CA20F083A2800D28D
:100D3000303820F02002412A01D3A2F13700884246
:100D400001D34FF0FF3070472DE9FF4F087881B095
:100D50009946FF2805D0491C2D2804D000240023E3
:100D600008E000230BE00124F9E703EB830300EB29
:100D70004303491C0878FF28F7D104B15B420020E7
:100D80000090147801462D2C01D02B2C04D1521C3C
:100D90002D2C12D00024009400251678FF2E0ED0A2
:100DA0000A24A0FB04C801FB0481002700FB0711F3
:100DB000521C16EB0C006941EFE70124EBE7994464
:100DC00050EA01020ED00024AA4D2646DFF8A88280
:100DD000FFF7E2FC82468B46B9F1000009DAC9F15F
:100DE00000071BE001980021C0E9001105B0BDE833
:100DF000F08F074612E0F80707D022462B46304610
:100E00004146FFF7CAFB0646884622462B46104657
:100E10001946FFF7C2FB04460D467F10002FEAD1AA
:100E2000B9F1000F324643465046594602DAFFF701
:100E300026FC01E0FFF7B1FB009A0AB181F0004106
:100E4000019AC2E90001D1E72DE9FF4F1F468DB09D
:100E5000D7E901464FF0FF382E2045464FF00009F4
:100E60000B90B9696D1C0E988847396A824688478D
:100E70000028F6D1BAF1FF3F0AD024F4D064002E46
:100E800011DDBAF12B0F08D0BAF12D0F0BD102E012
:100E9000404611B0ABE744F48064B9696D1C0E980C
:100EA00088478246761E6946600501D52D2000E000
:100EB0002B208DF8000001F1010B0DF1200809E055
:100EC000B9696D1C0E98884782460F9844F40074E7
:100ED000761E0560002E02DDBAF1300FF0D00B99BE
:100EE0008A453ED144F0800406E00F99681CA9F1C0
:100EF000010944F400740860B9696D1C761E0E98EF
:100F0000884782463028F0D02BE00B998A4505D1DE
:100F1000200603D444F08004761E18E050461AF0F0
:100F20004FFC08B30DF11301761E44F400748B4599
:100F300008D2AAF130000BF8010B200607D5A9F161
:100F4000010003E0200602D409F101008146A0055A
:100F500002D50F99681C0860B9696D1C0E98884706
:100F60008246002ED1DC53E0002E51DDBAF1650F30
:100F700002D0BAF1450F4BD1A00549D5B9696D1C16
:100F800024F44074761E0E9888478246002E0CDDAD
:100F90002B2804D0BAF12D0F07D144F48074B9691D
:100FA0006D1C0E9888478246761EE00501D52D21DE
:100FB00000E02B2108F8011BCDF82C8021E00DF179
:100FC0002901761E44F4007488450CD2AAF1300041
:100FD00010F0FF0088F8000002D10B99884509D96C
:100FE00008F1010806E0E00501D5244801E042F2DD
:100FF0000F708146B9696D1C0E98884782460F981C
:101000000560002E04DD50461AF0DAFB0028D6D128
:10101000F9690E988847FF208BF8000088F80000D7
:101020000020069007904B466A4608A906A8FFF7DD
:101030008BFEA00502D46FF001002AE714F0240F04
:101040000AD0E00714D1DDE906123868031D3B60C1
:101050000068C0E900120BE0DDE90601FFF704FCBF
:101060000146E00704D13868021D3A60006801605B
:1010700028460EE7000024400000F03FF1D8FFFFB3
:10108000426842B1016811F8013B23B1521EC0E928
:101090000012184670470121C160881E70474268DF
:1010A0005AB1C368016843B983688B4205D0491EB1
:1010B000521CC0E90012002070474FF0FF3070470B
:1010C0002DE9F74F4FF00009009C1546CA4614F869
:1010D000010B302801D0ADB115E014F8010B4FF031
:1010E0000109782803D0582801D04DB10BE00DB18B
:1010F000102D08D14FF00009102514F8010B02E063
:10110000082500E00A2500273E46B8464FEAE57B61
:1011100016E0A5FB07230BFB073105FB080005FBC9
:101120000616030CD71846F100061FFA80F8381E81
:101130004FF0010976F5803000D3CA4614F8010B50
:101140002946FFF7F3FD0028E3DA019838B1B9F139
:10115000000F01D0641E00E0009C01980460BAF109
:10116000000F08D019F026FB02210160C81E0146BD
:1011700003B0BDE8F08F310441EA174148EA074067
:10118000F6E72DE9F04D00231A461B1A8A4103DBCE
:1011900000200146BDE8F08DC1F30A52C1F31301EE
:1011A00041F480154FF0000BD10702D100186D41BA
:1011B000521E0027044640F2FF11384601EB620A36
:1011C0003E468046024600204FF48011FFF78DFB1B
:1011D000C2197141BB1846EB0100B4EB030C75EB6F
:1011E000000C04D3E41A65EB000517460E462419DB
:1011F00008F101006D4180463428E3DDF91946EB22
:101200000600091BA84103D24FF0FF32134601E04C
:10121000002213461BEB070046EB0A51BDE8F04DD8
:10122000FFF7E5BC70B58C1810F8015B15F00703EB
:1012300001D110F8013B2A1106D110F8012B03E06F
:1012400010F8016B01F8016B5B1EF9D12B0705D477
:101250000023521E0DD401F8013BFAE710F8013BC0
:10126000CB1A921C03E013F8015B01F8015B521EDC
:10127000F9D5A142D8D3002070BD014648780A783C
:1012800040EA022070470246002004E0137803B9C8
:1012900003E0401C521C8842F8D300BF7047000096
:1012A00070B505460C4608480560204600F00EF86B
:1012B00000BF054800680028FBD100214FF08040A6
:1012C00013F01DFB70BD0000080300203EB504466E
:1012D00000214FF0804013F012FB0022012188070B
:1012E00013F054FC022C02D10B20019004E0012CDD
:1012F00002D142F6DF6001900520ADF80000002029
:10130000ADF80800ADF8020069464FF0804013F0D8
:1013100093FC0121880713F0EFFA0121880713F0ED
:10132000DCFA01221146900713F030FC01218807F6
:1013300013F0E5FA3EBD000010B54FF4807114487B
:10134000FEF7B6FF01201249087006204870002001
:1013500088700D20C87000200871487188710D4890
:1013600090F85800C8710821094808F047FE00129B
:10137000074908720821064808F040FE04494872EF
:101380000A21034818F0C8F801200349087010BD6D
:101390007431012078060020A002002070B50446B8
:1013A0000D465948594948602CBB59480068642883
:1013B00006D2002307220421184608F05DFE06E04D
:1013C0005349002307220868042108F055FE5049BC
:1013D000002307220868042108F04EFE00234D4A2E
:1013E0008221502019F02CF900234BA28221A02049
:1013F00019F026F91FE0012C1DD14548006864282A
:1014000006D2002306220321184608F035FE06E026
:101410003F49002306220868032108F02DFE00231F
:101420003C4A8221502019F00BF900233AA2822174
:10143000A02019F005F99DB9354900230722486815
:10144000042108F019FE0023324AA021502019F08F
:10145000F7F8002331A2A021084619F0F1F814E0B2
:10146000012D12D12A49002306224868032108F0E1
:1014700003FE0023274AA021502019F0E1F80023A1
:1014800026A2A021084619F0DBF8214900230622F4
:10149000C868032108F0F0FD00231E4ABE21502039
:1014A00019F0CEF800231EA2BE21A02019F0C8F822
:1014B0001749002307228868042108F0DDFD002376
:1014C000144A82214FF48C7019F0BAF8002315A247
:1014D00082214FF4B47019F0B3F80D4900230622AD
:1014E000886F194608F0C8FD00230A4AA0214FF46E
:1014F0008C7019F0A5F800230BA2A0214FF4B47052
:1015000019F09EF870BD00006534340058020020C8
:101510007C080020C00B00205600000041000000A5
:1015200057000000A6B800006D41480030B587B0F4
:101530000020059000240025012001900020FE4994
:101540000870FE4908704FF0501009F013FA00209F
:1015500002F066FA0020049010F096FE15E1BDF846
:101560001400401C80B20590F548007818B9204658
:1015700007F0C6FDC5B2F3480078012801D10190FB
:101580002C466FF07F40F0490860F048007838B191
:101590000020EE49087007F0DDF80020EC490870E3
:1015A000EC480078012804D10020EA4908700EF0C8
:1015B0006DFAE9480078012806D10020E649087054
:1015C0000DF07EFF012001909DF80400012804D158
:1015D000204601F099FF00200190D74800780128AB
:1015E00004D10DF039FF0020D3490870DB4890F892
:1015F0006D0138B9DA4A92F8201092F82100FFF70D
:10160000CDFE22E0D54890F86D0101281DD10CF0E7
:1016100047FB03F089F96FF07F40CB490860D14860
:1016200048600023D0A2F1214FF4CC7019F008F8E3
:101630000220CA4981F86D01C948B0F8DC01401C9C
:10164000C749A1F8DC0112F081FB01A9C4485C3054
:1016500010F05AFB01A9C248603010F055FB01A9F7
:10166000BF48643010F050FBC148007870B1C148E9
:101670000078052805D110F007FE0020BD4908704C
:1016800004E0BC480078401CBA490870BA48407869
:1016900001287AD1B94800780028FAD1B648807874
:1016A0000028F6D10120019009F024F806909DF859
:1016B0001800B34908709DF81800002871D0A048A0
:1016C000007800286DD19DF818000E286AD00ADC39
:1016D0000E2868D2DFE800F067F3F4F5ECEBF8F7DA
:1016E000F6F9FAFBE4FD182874D008DCA0F10F002D
:1016F0000628EED2DFE800F0FE665B4D31101C28B4
:1017000069D004DC192867D01A284CD1AAE01F2818
:1017100070D04228F9D1E3E114B1012C1AD106E0CE
:101720009848007810B906209749087013E095484A
:10173000007870B900208A4981F8580010F0A4FDA3
:101740004FF0501009F016F9012002F069F912F07B
:10175000FDFA00E000BF00BFFEE214B1012C15D17C
:1017600000E014E08748007870B902207C4981F8D5
:10177000580010F089FD4FF0501009F0FBF80120DF
:1017800002F04EF912F0E2FA01E0E5E200BF00BF1C
:10179000E2E24CB97B48007810B916207A4908700B
:1017A00003E0DAE294E0D6E200BF00BFD4E234B94D
:1017B0007448007810B917207349087000E000BF22
:1017C00000BFC9E2654890F86D01A0B92CB1012CA9
:1017D0000ED109E0BEE2B4E11DE06A48007810B91C
:1017E0000D206949087004E004205D49487000E05C
:1017F00000BF0FE096E1594890F86C0150B9002005
:10180000564981F86D014FF0501009F0B3F80020EF
:1018100002F006F9A0E2524890F8580058B9052C99
:1018200002DD201FC4B21CE0032C1ADA002C18DDE4
:10183000601EC4B215E04A4890F85800022810D142
:10184000062C01D102240CE0052C01D1022408E071
:10185000022C02D1601EC4B203E0012C01D1601E33
:10186000C4B279E23E4890F8580058B9052C04DA21
:10187000012C02DD201DC4B220E0022C1EDA601C07
:10188000C4B21BE0364890F85800022816D1022C4A
:1018900001D1062412E0012C0ED102240EE018E042
:1018A00048E114E012E010E00CE00CE00CE03AE15A
:1018B00078E106E004E002E004B901244CE200BF54
:1018C00000BF00BF00BF00BF00BF00BF00BF00BF20
:1018D00000BFA01E07287CD2DFE800F004637FFF72
:1018E00099C9E4002748007820BB1D4890F85800AB
:1018F00080B900E0F5E07620ADF808003020ADF8C2
:101900000A004C20ADF80C0002A805F0ACFA14490E
:10191000C8653FE0124890F8580002283AD1762076
:10192000ADF808003020ADF80A005020ADF80C00EA
:1019300002A82BE032E00000590000205B000020EC
:101940008000002052020020580200206200002087
:101950006C0000203D0000203E0000207C0800209C
:101960007806002038003100C8B7C8CF000000005A
:10197000A002002088000020480200206001002012
:101980008B000020840000205D00002005F0B3FAE9
:10199000FD4988670CF0E2FA10F076FC12F0D6F9F7
:1019A0009CE0FA480078B8B9F74890F8580068B950
:1019B0007620ADF808004620ADF80A004C20ADF8BE
:1019C0000C0002A805F04FFAEF4908660CF0C6FAC1
:1019D00000E082E012F0BAF980E0EC480078A8B9A3
:1019E000E94890F8580068B97620ADF808005C2006
:1019F000ADF80A004C20ADF80C0002A805F033FA4F
:101A0000E14948660CF0AAFA12F0A0F966E0DF4856
:101A1000007858BBDC4890F8580078B94FF4B8709B
:101A2000ADF808003020ADF80A004C20ADF80C00ED
:101A300002A805F02CFBD449C86613E0D24890F800
:101A4000580002280ED14FF4B870ADF808003020CD
:101A5000ADF80A004C20ADF80C0002A805F017FB09
:101A6000C949C8670CF07AFA12F070F936E0C74835
:101A70000078B0B9C44890F8580070B94FF4B87005
:101A8000ADF808004620ADF80A004C20ADF80C0077
:101A900002A805F0FCFABC4908670CF05FFA12F0E6
:101AA00055F91BE0B9480078B0B9B74890F858002C
:101AB00070B94FF4B870ADF808005C20ADF80A00BA
:101AC0004C20ADF80C0002A805F0E1FAAE494867D9
:101AD0000CF044FA12F03AF900E000BF00BF3BE11D
:101AE0003AE1AA48007890B90320A949087012F099
:101AF00043F90120A74908709FEDA70AA74880ED88
:101B00001D0A0120A149087010F0BEFB09E0032066
:101B10009F49087000209D49087010F0B5FB12F035
:101B200023F919E118E19948007810B912209C496D
:101B3000087011E19548007810B90620984908709E
:101B40000AE1012C2DD1904890F8580090B98F48A7
:101B5000007830BB02208C4981F8580010F094FBCB
:101B60004FF0501008F006FF012001F059FF12F06D
:101B7000EDF816E0844890F85800022811D1834807
:101B8000007870B90020804981F8580010F07CFB83
:101B90004FF0501008F0EEFE012001F041FF12F06E
:101BA000D5F8D9E0A01E07287ED2DFE800F0043483
:101BB0004ED0689AB5007548007848BB724890F8D6
:101BC000580070B97620ADF808003020ADF80A0052
:101BD0004C20ADF80C0002A805F045F96A49C8652B
:101BE00012E0694890F8580002280DD17620ADF82F
:101BF00008003020ADF80A005020ADF80C0002A813
:101C000005F079F9604988670CF0A8F910F03CFB01
:101C100012F09CF89CE05D480078A8B95A4890F80A
:101C2000580068B97620ADF808004620ADF80A00E3
:101C30004C20ADF80C0002A805F015F952490866D1
:101C40000CF08CF912F082F882E050480078A8B9C4
:101C50004D4890F8580068B97620ADF808005C202F
:101C6000ADF80A004C20ADF80C0002A805F0FBF816
:101C7000454948660CF072F912F068F868E043488C
:101C8000007868BB404890F8580088B94FF4B870A5
:101C9000ADF808003020ADF80A004C20ADF80C007B
:101CA00002A805F0F4F900E051E03749C86613E0F6
:101CB000354890F8580002280ED14FF4B870ADF8AE
:101CC00008003020ADF80A004C20ADF80C0002A846
:101CD00005F0DDF92C49C8670CF040F912F036F830
:101CE00036E02A480078B0B9274890F8580070B913
:101CF0004FF4B870ADF808004620ADF80A004C204B
:101D0000ADF80C0002A805F0C2F91F4908670CF0F5
:101D100025F912F01BF81BE01C480078B0B91A48EE
:101D200090F8580070B94FF4B870ADF808005C2016
:101D3000ADF80A004C20ADF80C0002A805F0A7F998
:101D4000114948670CF00AF912F000F800E000BFF2
:101D500000BF01E000E000BF28E09DF8180028B3B4
:101D600010480078012821D19DF8180016281BD1B1
:101D70000C480078012806D100200A49087008465E
:101D8000007806F051FD10E0780600208400002065
:101D90008700002034000020000000007C080020A4
:101DA0005D0000208000002000BF00BF03480078D5
:101DB00015283FF4D4AB07B030BD00005D00002013
:101DC00010B54FF48061024807F094FF10BD000089
:101DD0000008024010B54FF48061024807F08CFF04
:101DE00010BD00000008024010B50446A21E0E48B7
:101DF0000E4B1B68C1180E48FEF733FAA01EC1B285
:101E00000B4808F0FBF80112A01E094A1154C1B298
:101E1000104608F0F3F8C1B2601E054A115421467D
:101E2000104617F079FB10BD4E0D00207400002005
:101E30004C0C002000BFFEE7014601207047000067
:101E400038B504460022694620460EF02BFD10B935
:101E50004FF0FF3038BD9DED000ADFED0C0A20EE9B
:101E6000200ABCEEC00A10EE100A094988600CF086
:101E700075F810F009FA0120064908700222064997
:101E800020460FF0C0F80120E4E7000000401C46A7
:101E9000780600207801002059050C080146012031
:101EA000704701460120704738B504460022694654
:101EB00020460EF0F7FC10B94FF0FF3038BD02227B
:101EC000024920460FF09FF80120F7E759050C085A
:101ED00038B504460022694620460EF0E3FC10B9EE
:101EE0004FF0FF3038BD0222024920460FF08BF838
:101EF0000120F7E759050C08014601207047000052
:101F000038B504460022694620460EF0CBFC10B9D5
:101F10004FF0FF3038BD9DED000AF2EE040A20EECE
:101F2000200ABCEEC00A10EE100A0849C8600CF086
:101F300015F810F0A9F90120054908700222054999
:101F400020460FF060F80120E4E70000780600204A
:101F50007801002059050C0810B52DED028B0446C0
:101F6000144890F8200080B9134890ED010AB8EEAB
:101F7000400ADFED120A80EE201AB0EE418AB0EE80
:101F8000480A20460FF006F90FE00B4890ED010AD1
:101F9000B8EE400ADFED0A0A80EE201AB0EE418A60
:101FA000B0EE480A20460FF0F5F80120BDEC028B98
:101FB00010BD0000780600207C08002000401C4670
:101FC00000007A44014601207047000038B50446FD
:101FD0000022694620460EF065FC10B94FF0FF3034
:101FE00038BD9DED000ADFED0C0A20EE200ABCEEA4
:101FF000C00A10EE100A094948600BF0AFFF10F05C
:1020000043F90120064908700222064920460EF0D5
:10201000FAFF0120E4E7000000401C46780600209B
:102020007801002059050C0810B504464FF4807162
:102030006748FEF73DF9012065490870654800785A
:1020400010B90846847007E062480078012803D17F
:1020500004F110005E498870A5205D4948705D4814
:10206000007800284BD1012C05D0022C03D0092C7C
:1020700001D00A2C1BD1601E574951F82000000ED8
:102080005349C870601E544951F82000000C504953
:102090000871601E504931F82000000A4C4948710F
:1020A000601E4D4911F82000494988717EE0601E8C
:1020B000494951F820000A21B0FBF1F0000E4449D3
:1020C000C870601E444951F820000A21B0FBF1F0AD
:1020D000000C3F490871601E3F4951F820000A2159
:1020E000B0FBF1F0000A3A494871601E3A4951F8D4
:1020F00020000A21B0FBF1F03549887156E03548DF
:102100000078012852D1012C05D0022C03D0032CD9
:1021100001D0042C1FD104F10F002F4951F82000E9
:10212000000E2B49C87004F10F002B4951F8200014
:10213000000C2749087104F10F00274931F82000ED
:10214000000A2349487104F10F00234911F82000C7
:102150001F4988712AE004F10F001F4951F820003F
:102160000A21B0FBF1F0000E1949C87004F10F000C
:10217000194951F820000A21B0FBF1F0000C144974
:10218000087104F10F00144951F820000A21B0FB36
:10219000F1F0000A0E49487104F10F000E4951F8A0
:1021A00020000A21B0FBF1F0094988710721084895
:1021B00007F024FF00120649C8710721044807F000
:1021C0001DFF034908720921014817F0A5F910BD48
:1021D000743101208E0000208C08002010B50121F0
:1021E000C8050CF01BFC00214FF400000CF016FC9D
:1021F00010BD000001460020034A52680A400AB19F
:10220000012000E00020704700B0024070B50021BE
:10221000002200230024344D2D68344E3540324EC8
:10222000356035462D68066835432F4E3560354696
:102230006D6B25F00705756335466D6B4668354354
:10224000294E7563456835B9C5682902058A2A048F
:10225000057D2B0621E04568012D05D1C5682902C1
:10226000058A2A04002318E04568022D05D1C568B7
:1022700069010569EA0200230FE04568032D06D1D4
:10228000C56869010569AA024569EB0305E0C568EF
:10229000290105692A0245692B0341EA020586687E
:1022A00035431D43104EB66B35430F4EB5638569FC
:1022B000F56335462D6C6FF30D05356435462D6C91
:1022C000C6693543084E3564858C2C0435466D6CE3
:1022D00005F04045756435466D6C066A2643354306
:1022E000014E756470BD000000B00240FCE0FCFFD0
:1022F0000348006840F00100014908607047000091
:1023000000B002400246094B9A4201D2084801E05F
:102310000648103801F000531BB1064B0B40C36058
:1023200002E0044B0B4083607047000010640240E1
:10233000006002407D0F7D0F0246094B9A4201D298
:10234000084801E00648103801F000531BB1064B65
:102350000B40C36002E0044B0B40836070470000F9
:1023600010640240006002407D0F7D0F21B10268C1
:1023700042F00102026003E0026822F00102026002
:1023800070470000016821F0010101600021016037
:1023900041608160C1600161212141614A498842F7
:1023A00004D13D21484A103A91608CE046491831E9
:1023B000884205D14FF47461434A103A916082E03B
:1023C00041493031884205D14FF474113E4A103AE8
:1023D000916078E03C494831884205D14FF0746102
:1023E000394A103A91606EE037496031884204D131
:1023F0003649354A103AD16065E033497831884230
:1024000004D13349304A103AD1605CE02E49903112
:10241000884204D12F492C4A103AD16053E02A490E
:10242000A831884205D14FF03D51274A103AD1607A
:1024300049E02949884204D13D21274A083A1160E0
:1024400041E025491831884205D14FF47461224A90
:10245000083A116037E020493031884205D14FF405
:1024600074111D4A083A11602DE01B494831884219
:1024700005D14FF07461184A083A116023E01649FB
:102480006031884204D11149134A121F11601AE0C9
:1024900011497831884204D10D490F4A121F116049
:1024A00011E00D499031884204D10A490A4A121FAD
:1024B000116008E00849A831884204D14FF03D512D
:1024C000054A121F11607047106002403D00002055
:1024D000400F002000003D20106402400146002013
:1024E0000A6802F001020AB1012000E000207047F2
:1024F0000146486880B2704710B500220268134B4D
:102500001A40CC680B6823434C6923438C692343EE
:10251000CC6923430C6A23434C6A23438C6A2343CC
:102520004C6B23438C6B23431A430260426922F0B5
:102530000702D1E90B3423431A4342610B6943601C
:102540004B6883608B68C36010BD00003F801CF047
:10255000416070470021016041608160C16001619C
:1025600041618161C161016241628162C162016355
:102570004163816370471FB50446012202A92046CA
:102580000EF05CF918B94FF0FF3004B010BD002216
:10259000694620460EF052F90120F6E710B592B0D8
:1025A000044600230CAA114920460EF0CDF9002361
:1025B00006AA0E4920460EF0C7F90F2002AB0CAA5E
:1025C0000A49009020460EF00BF80F2002AB06AA35
:1025D0000649009020460EF003F89FED050B2046BB
:1025E0000EF027FD012012B010BD0000C8990F08A1
:1025F00000000000000000000146012070470000BC
:1026000038B504460022694620460EF04BF910B951
:102610004FF0FF3038BD0222024920460EF0F3FC95
:102620000120F7E759050C0801460120704700001A
:1026300038B504460022694620460EF033F910B939
:102640004FF0FF3038BD0222024920460EF0DBFC7D
:102650000120F7E759050C080146012070470000EA
:1026600038B504460022694620460EF01BF910B921
:102670004FF0FF3038BD0222024920460EF0C3FC65
:102680000120F7E759050C080146012070470000BA
:1026900038B504460022694620460EF003F910B909
:1026A0004FF0FF3038BD0222024920460EF0ABFC4D
:1026B0000120F7E759050C0810B504460422294605
:1026C00020460EF0A0FC012010BD000038B50446E5
:1026D00001236A46074920460EF03AF810B94FF038
:1026E000FF3038BD0222044920460EF08CFC012048
:1026F000F7E700001402002059050C0801460120EC
:102700007047000038B504460022694620460EF0A6
:10271000C9F810B94FF0FF3038BD022202492046F7
:102720000EF071FC0120F7E759050C080146012065
:10273000704701460120704738B5044600226946BB
:1027400020460EF0AFF810B94FF0FF3038BD02222E
:10275000024920460EF057FC0120F7E759050C0806
:1027600038B504460022694620460EF09BF810B9A1
:102770004FF0FF3038BD0222024920460EF043FCE4
:102780000120F7E759050C087047000010B586B026
:102790000446012108460CF031F9012110200CF00B
:1027A0008DF907220A21274807F078FA0722092124
:1027B000244807F073FA00208DF8160001208DF8E8
:1027C000170002208DF814000002049002208DF8FA
:1027D000150004A91B4807F019FA02208DF814000F
:1027E0004002049004A9174807F010FA0094002052
:1027F000ADF80400ADF80600ADF80800ADF80C0027
:102800000C20ADF80A0069460F4813F099FA0BF056
:10281000EAFA012240F224410B4813F06BFA01213D
:10282000094813F01BFA01224021074813F022FA4D
:1028300001228021044813F01DFA00F007F806B0C9
:1028400010BD0000000002400010014000B591B032
:10285000012188050CF0D2F83848FFF793FD02A853
:10286000FFF778FE00BF3548FFF738FE0028FAD1A1
:102870004FF00060029032480390324804904020AC
:1028800005900020069007904FF48060089000208B
:1028900009900A900B904FF480300C9000200D901E
:1028A00003200E9000200F90109002A92348FFF7FC
:1028B00023FE22487838FFF765FD00BF1F487838AF
:1028C000FFF70CFE0028F9D14FF0006002901C4881
:1028D00003901D480490002005904FF480700690EE
:1028E000002007904FF480600890002009900A9023
:1028F0000B904FF400300C9000200D9003200E90B0
:1029000000200F90109002A90C487838FFF7F4FDD2
:102910003A208DF804000D208DF8050000208DF878
:10292000060001208DF8070001A80BF071FA0121C3
:1029300002487838FFF71AFD11B000BDB8640240B4
:102940000410014074340120743301207CB5044626
:102950006FF07F40F7490860012C01D1012000E0B1
:1029600000200090009820B14FF47F00F1494860AA
:1029700003E04FF05010EF494860EF490023072271
:10298000D1F8B800042107F077FB122368221A213E
:10299000582008F023F80023E84A1A21582017F09D
:1029A0004FFE0023E64A1A21AA2017F049FE022C06
:1029B00001D1012000E000200090009820B14FF4E8
:1029C0007F00DC49486003E04FF05010D94948606F
:1029D000D94900230722D1F8BC00042107F04CFBA1
:1029E000122368222E21582007F0F8FF0023D34A33
:1029F0003021582017F024FE0023D14A3021AA208C
:102A000017F01EFE032C01D1012000E000200090F1
:102A1000009820B14FF47F00C649486003E04FF0B2
:102A20005010C4494860C44900230722D1F8C000AF
:102A3000042107F021FB122368224621582007F0C9
:102A4000CDFF0023BD4A4621582017F0F9FD002391
:102A5000BB4A08324621AA2017F0F2FD042C01D10E
:102A6000012000E000200090009820B14FF47F008A
:102A7000B049486003E04FF05010AE494860AE499D
:102A800000230722D1F8C400042107F0F5FA12232D
:102A90007A225A21582007F0A1FF0023A74A5C217F
:102AA000582017F0CDFD0023A54A08325C21AA204A
:102AB00017F0C6FD052C01D1012000E00020009098
:102AC000009820B14FF47F009A49486003E04FF02E
:102AD000501098494860984900230822D1F8C8004E
:102AE000042107F0C9FA12237A227021582007F036
:102AF00075FF0023914A7221582017F0A1FD002391
:102B00008F4A10327221B42017F09AFD062C01D1A1
:102B1000012000E000200090009820B14FF47F00D9
:102B20008449486003E04FF0501082494860824970
:102B300000230822D1F8CC00042107F09DFA1223CB
:102B40007A228621582007F049FF00237B4A8821FA
:102B5000582017F075FD0023794A10328821B420DF
:102B600017F06EFD072C01D1012000E0002000903D
:102B7000009820B14FF47F006E49486003E04FF0A9
:102B800050106C4948606C4890F8D50008B16D4D04
:102B900000E06D4D12237A2218214FF4A97007F03E
:102BA0001DFF654890F8D000C0EBC000421900231B
:102BB0001A214FF4A97017F043FD082C01D1012010
:102BC00000E000200090009820B14FF47F005949A8
:102BD000486003E04FF0501056494860564890F85E
:102BE000D50008B1594D00E0594D12237A222E210B
:102BF0004FF4A97007F0F2FE4F4890F8D100C0EBF7
:102C0000C0004219002330214FF4A97017F018FDBD
:102C1000092C01D1012000E000200090009820B193
:102C20004FF47F004349486003E04FF050104149A2
:102C30004860414890F8D50008B1424D00E0424D4F
:102C400012237A2244214FF4A97007F0C7FE3A48B4
:102C500090F8D200C0EBC0004219002346214FF487
:102C6000A97017F0EDFC0A2C01D1012000E0002032
:102C70000090009820B14FF47F002E49486003E097
:102C80004FF050102B4948602B4890F8D50008B100
:102C90002C4D00E02C4D12237A225A214FF4A970BA
:102CA00007F09CFE244890F8D300C0EBC000421906
:102CB00000235C214FF4A97017F0C2FC0B2C01D14A
:102CC000012000E000200090009820B14FF47F0028
:102CD0001849486003E04FF0501016494860164804
:102CE00090F8D50008B1174D00E0174D12237A2255
:102CF00070214FF4A97007F071FE0F4890F8D400CE
:102D0000C0EBC0004219002372214FF4A97017F0E4
:102D100097FC072C22D2DFE804F01D040506070803
:102D2000090000BF00BF00BF00BF00BF022001F0CC
:102D300045FE17E05802002078060020C00B002056
:102D4000040606086C040608EE03060834040608A8
:102D5000FC030608042001F031FE03E0072001F027
:102D60002DFE00BF00BF01F0DFFD0C2C64D2DFE8B8
:102D700004F0060A0B0C0D0E0F3810393A3B0320F5
:102D800000F006FF59E000BF00BF00BF00BF00BF5A
:102D900053E06FF07F402A4908602A4848602A487B
:102DA00090F8D50008B1294D00E0294D0020019090
:102DB00013E00199C1EBC1014A190199C1EB01135B
:102DC00003EB4111202303EB410188B20023F121E1
:102DD00017F036FC0198401C019001980228E8D3B6
:102DE0002BE000BF00BF00BF6FF07F4014490860B8
:102DF00014484860144890F8D50008B1154D00E01B
:102E0000154D0020019013E00199C1EBC1014A1951
:102E10000199C1EB011303EB4111202303EB4101A5
:102E200088B20023F12117F00BFC0198401C01909F
:102E300001980228E8D300E000BF00BF7CBD00007D
:102E400058020020380031007806002034040608BB
:102E5000FC0306086C040608EE03060800B58DB0F6
:102E60004FF0501007494860074808A102686846BB
:102E700017F074FC00236A463221022017F0E0FBB1
:102E80000DB000BD580200209C000020B6C1C8A1B2
:102E9000B3C9B9A62CCEC4BCFEB4F3D0A1CEAA252A
:102EA00064D7D6BDDA2CC7EBB0B4B7A2CBCDCEC4B5
:102EB000BCFE00007CB504466FF07F40FE49086010
:102EC000012C01D1012000E000200090009820B1E9
:102ED0004FF47F00F849486003E04FF05010F64986
:102EE0004860F64890F8D50008B1F54D00E0F54D82
:102EF000122368221A21582007F070FDEF4800784D
:102F0000C0EBC000421900231A21582017F098FB8B
:102F1000022C01D1012000E000200090009820B197
:102F20004FF47F00E449486003E04FF05010E2495D
:102F30004860E24890F8D50008B1E34D00E0E34D69
:102F4000122368222E21582007F048FDDB4890F814
:102F50002000C0EBC000421900233021582017F098
:102F60006FFB032C01D1012000E0002000900098AD
:102F700020B14FF47F00D049486003E04FF050107B
:102F8000CD494860CD4890F8D50008B1CE4D00E05D
:102F9000CE4D122368224621582007F01FFDC74856
:102FA00090F82100C0EBC0004219002346215820B0
:102FB00017F046FB042C01D1012000E00020009016
:102FC000009820B14FF47F00BB49486003E04FF008
:102FD0005010B9494860B949486A002307220421C2
:102FE00007F04AF812237A225A21582007F0F6FCFB
:102FF0000023B74A5C21582017F022FB0023B54A72
:103000005C21AA2017F01CFB052C01D1012000E057
:1030100000200090009820B14FF47F00A64948603E
:1030200003E04FF05010A4494860A449886A002387
:103030000722042107F020F812237A227021582059
:1030400007F0CCFC0023A24A7221582017F0F8FAAE
:103050000023A04A7221AA2017F0F2FA062C01D10F
:10306000012000E000200090009820B14FF47F0084
:103070009149486003E04FF050108F4948608F49F4
:10308000886C00230722042106F0F6FF12237A221F
:103090008621582007F0A2FC00238D4A8821582061
:1030A00017F0CEFA00238CA28821AA2017F0C8FAC4
:1030B000072C01D1012000E000200090009820B1F1
:1030C0004FF47F007C49486003E04FF050107A498C
:1030D00048607A48006BE0B17849086B002306220B
:1030E000194606F0C9FF12237A2218214FF4A9705D
:1030F00007F074FC0023764A1A214FF4A97017F0E8
:103100009FFA0023764A1A214FF4C77017F098FAF5
:1031100019E012237A2218214FF4A97007F05EFCFF
:10312000664890F8D50038B900236EA21A214FF4F2
:10313000A97017F085FA06E000236CA21A214FF45B
:10314000A97017F07DFA082C01D1012000E00020C1
:103150000090009820B14FF47F005749486003E089
:103160004FF0501054494860544890F8D50008B1C9
:103170005F4D00E05F4D5149486B00230722042159
:1031800006F07AFF12237A222E214FF4A97007F05D
:1031900025FC00234E4A30214FF4A97017F050FA55
:1031A00000234C4A083230214FF4D27017F048FA0D
:1031B000092C01D1012000E000200090009820B1EE
:1031C0004FF47F003C49486003E04FF050103A490B
:1031D00048603A49886B00230722042106F04CFF1F
:1031E00012237A2244214FF4A97007F0F7FB002341
:1031F000374A46214FF4A97017F022FA0023354AC6
:1032000046214FF4D27017F01BFA0A2C01D101208D
:1032100000E000200090009820B14FF47F00264984
:10322000486003E04FF05010234948602349C86BC1
:1032300000230822042106F01FFF12237A225A21BC
:103240004FF4A97007F0CAFB0023214A5C214FF418
:10325000A97017F0F5F900231E4A10325C214FF4D3
:10326000D77017F0EDF90B2C01D1012000E0002000
:103270000090009820B14FF47F000F49486003E0B0
:103280004FF050100C4948600C49086C002305228F
:10329000042106F0F1FE12237A2270214FF4A97066
:1032A00007F09CFB00230A4A72214FF4A97017F023
:1032B000C7F9002320E00000580200207806002013
:1032C0006C040608EE030608C0040608B2040608EB
:1032D000C00B00200406060820562F6D7300000066
:1032E0006EFD0508B9D8B1D5000000004F46460074
:1032F0000A050608CE04060875A272214FF4D270A2
:1033000017F09EF90C2C01D1012000E00020009064
:10331000009820B14FF47F006F49486003E04FF000
:1033200050106D4948606D49486C00230522042106
:1033300006F0A2FE12237A2286214FF4A97007F02C
:103340004DFB0023664A88214FF4A97017F078F9E5
:1033500000235FA288214FF4D27017F071F90D2C71
:103360001AD2DFE804F019121314070809150A0B22
:103370000C0D0E0000BF00BF00BF00BF00BF00BFAC
:1033800000BF022001F01AFB0AE000BF00BF00BF2F
:10339000072001F013FB03E0042001F00FFB00BF46
:1033A00000BF01F0C1FA0D2C7ED2DFE804F0070B5C
:1033B000335B85868788898A8B8C8D00022000F09C
:1033C000E7FB83E06FF07F40434908604548486071
:1033D000424890F8D50008B1434D00E0434D00202D
:1033E000019013E00199C1EBC1014A190199C1EBA8
:1033F000011303EB4111202303EB410188B20023A9
:10340000F12117F01DF90198401C01900198022844
:10341000E8D35BE06FF07F402F4908603148486097
:103420002E4890F8D50008B1314D00E0314D002014
:10343000019013E00199C1EBC1014A190199C1EB57
:10344000011303EB4111202303EB410188B2002358
:10345000F12117F0F5F80198401C0190019802281D
:10346000E8D333E06FF07F401B4908601D48486097
:103470001A4890F8D50008B11D4D00E01D4D002000
:10348000019015E00199C1EBC1014A190199C1EB05
:10349000011303EB4111202303EB410188B2002308
:1034A000F12117F0CDF800E00FE00198401C0190E9
:1034B00001980228E6D309E000BF00BF00BF00BFAB
:1034C00000BF00BF00BF00BF00E000BF00BF7CBD69
:1034D00020412F6D73000000580200207806002064
:1034E000C00B0020380031006C040608EE0306080B
:1034F000C0040608B204060810B504F069FE01F025
:1035000013FA02F041FF10BD7CB50446FE4890F866
:103510005800002872D1012C01D1012000E00020C8
:103520000090009820B14FF47F00F849486003E014
:103530004FF05010F549486014235C221821762082
:1035400007F04CFA6FF07F40F0490860EE4890F8C1
:10355000D50060B9EC4890F85800C0EBC000EC49C9
:10356000421800231A21762017F06AF80BE0E6488B
:1035700090F85800C0EBC000E649421800231A2119
:10358000762017F05DF8022C01D1012000E0002028
:103590000090009820B14FF47F00DC49486003E0C0
:1035A0004FF05010D949486014235C222E21762018
:1035B00007F014FA6FF07F40D4490860D249C86D13
:1035C00000230722042106F057FD0023D24A3021B0
:1035D000762017F035F80023D04A3021C82017F0A4
:1035E0002FF8032C01D1012000E00020009000986A
:1035F00028B14FF47F00C549486004E0EFE04FF088
:103600005010C249486014235C224421762007F000
:10361000E5F96FF07F40BD490860BB49086E0023A3
:103620000722042106F028FD0023BB4A462176200C
:1036300017F006F80023B94A4621C82017F000F811
:10364000042C01D1012000E000200090009820B15E
:103650004FF47F00AD49486003E04FF05010AB4994
:10366000486014235C225A21762007F0B7F96FF0E6
:103670007F40A6490860A449486E00230722042120
:1036800006F0FAFC0023A44A5C21762016F0D8FF4D
:103690000023A24A5C21C82016F0D2FF062C01D1DB
:1036A000012000E000200090009820B14FF47F003E
:1036B0009649486003E04FF0501094494860142345
:1036C0005C222E21C80007F089F96FF07F408F49F6
:1036D00008608D49C86E00230722042106F0CCFC47
:1036E00000238D4A30214FF4B87016F0A9FF002353
:1036F0008A4A921D30214FF4E17016F0A1FF072C89
:1037000001D1012000E000200090009820B14FF48A
:103710007F007E49486003E04FF050107B494860CD
:1037200014235C224421900007F058F96FF07F4089
:10373000764908607449086F00230722042106F0C7
:103740009BFC0023744A46214FF4B87016F078FFB2
:103750000023724A921D46214FF4E17016F070FF6B
:10376000082C01D1012000E000200090009820B139
:103770004FF47F006549486003E04FF05010634903
:10378000486014235C225A21900007F027F96FF05B
:103790007F405E4908605C49486F0023072204218E
:1037A00006F06AFC00235C4A5C21880016F048FFA2
:1037B00000235A4A921D5C214FF4E17016F040FF3D
:1037C000012C03D1062001F0F9F8C0E01CB9032058
:1037D00001F0F4F8BBE0082001F0F0F8B7E04A4847
:1037E00090F858000228F0D1012C01D1012000E00E
:1037F00000200090009820B14FF47F0043494860BA
:1038000003E04FF050104149486014235C22182116
:10381000762007F0E3F86FF07F403C4908603A48B3
:1038200090F8D50060B9384890F85800C0EBC00057
:103830003749421800231A21762016F001FF0BE0C9
:10384000314890F85800C0EBC000324942180023BC
:103850001A21762016F0F4FE022C01D1012000E09E
:1038600000200090009820B14FF47F002749486065
:1038700003E04FF0501025494860142368222E21A0
:10388000762007F0ABF86FF07F40204908601E49B2
:10389000886F00230722012106F0EEFB00231E4A59
:1038A0003021762016F0CCFE00231C4A0C32302149
:1038B000C82016F0C5FE062C01D1012000E0002032
:1038C0000090009820B14FF47F001049486003E059
:1038D0004FF050100D49486014235C222E21C8007F
:1038E00007F07CF86FF07F40084908600649C86F10
:1038F00000230722042106F0BFFB0023064A3021E3
:103900004FF4B8700CE00000780600205802002048
:1039100069030608F9020608C00B002056FD0508D9
:1039200016F08EFE0023354A30214FF4E17016F078
:1039300087FE012C03D1062001F040F807E01CB9F6
:10394000032001F03BF802E0082001F037F82C4892
:1039500090F86D01B0BB092C3DD2DFE804F00509F9
:103960003435363C37383900002000F011F933E0A7
:1039700000F0DAFF6FF07F4022490860224848607B
:10398000224890F8D50008B1214D00E0214D0020DB
:10399000019013E00199C1EBC1014A190199C1EBF2
:1039A000011303EB4111202303EB410188B20023F3
:1039B000F12116F045FE0198401C01900198022863
:1039C000E8D309E009E000BF00BF00BF00BF00BFAF
:1039D00000F0AAFF00E000BF0EE000F0A5FF6FF0CE
:1039E0007F40084908600848486000230AA2F12186
:1039F0004FF4CC7016F024FE7CBD00005CFD050881
:103A00007C08002058020020380031007806002091
:103A1000F9020608E4020608C8B7C8CF0000000093
:103A200070B50646FFF768FD6FF07F404E490860AD
:103A30004E4848604E4890F8D50008B14D4D00E022
:103A40004D4D002305F12C020421184616F0F8FD17
:103A50006FF07F40444908604FF050104860444880
:103A600090F85800F0BB00243AE0042C1BD24048E8
:103A700090F8D50000EB400303EB00103F4B03EB45
:103A8000C00004EB440303EB0413C21804EB44002E
:103A900000EBC4001A2303EB400081B20023184658
:103AA00016F0CEFD1BE0324890F8D50000EB400345
:103AB00003EB0010314B03EBC00004EB440303EBBA
:103AC0000413C218201F00EB400303EBC0001A23AD
:103AD00003EB400081B20023FA2016F0B1FD641C14
:103AE000082C00E001E0C0D339E0214890F85800EC
:103AF000022834D1002430E0042C16D21C4890F85F
:103B0000D50000EBC0001E4B03EB001000EB0412CD
:103B100004EB440000EBC4001A2303EB400081B225
:103B20000023184616F08CFD16E0114890F8D500D9
:103B300000EBC000124B03EB001000EB0412201F3F
:103B400000EB400303EBC0001A2303EB400081B2FB
:103B50000023FA2016F074FD641C082CCCD316B98F
:103B6000002000F015F870BD580200200352F30049
:103B700078060020F4FE050802FE050806FA05088E
:103B800036FB050810B5032000F002F810BD000058
:103B900010B5044600F0C8FE002C7CD16FF07F40C9
:103BA000FC490860FC484860FC4890F8D5000028B3
:103BB00040D00023FAA2E7211C2016F041FD00238B
:103BC000F9A2FB211C2016F03BFD0023F8A2E721FF
:103BD0007E2016F035FD0023F6A2FB217E2016F094
:103BE0002FFD0023F5A2E721DC2016F029FD00239C
:103BF000F0A2FB21DC2016F023FD0023F1A2E72137
:103C00004FF49D7016F01CFD0023EAA2FB214FF437
:103C10009D7016F015FD0023ECA2E7214FF4CC7047
:103C200016F00EFD0023EBA2FB214FF4CC7016F032
:103C300007FD6BE20023E8A2E7211C2016F000FD3F
:103C40000023E7A2FB211C2016F0FAFC0023E6A2C9
:103C5000E7217E2016F0F4FC0023E5A2FB217E2064
:103C600016F0EEFC0023E4A2E721DC2016F0E8FCCD
:103C70000023DFA2FB21DC2016F0E2FC0023E0A2FF
:103C8000E7214FF49D7016F0DBFC0023D8A2FB2146
:103C90004FF49D7000E010E016F0D2FC0023DAA291
:103CA000E7214FF4CC7016F0CBFC0023D8A2FB2107
:103CB0004FF4CC7016F0C4FC28E2012C2CD16FF02C
:103CC0007F40B4490860B44848600023D2A2E7218D
:103CD000662016F0B5FC0023D1A2FB21662016F069
:103CE000AFFC0023D0A2E721B62016F0A9FC0023E8
:103CF000CFA2FB21B62016F0A3FC0023CEA2E72121
:103D00004FF4D37016F09CFC0023CDA2FB214FF49E
:103D1000D37016F095FCF9E1022C50D19E489D49D4
:103D200048609E4890F8D50020B300239CA2E7216C
:103D30001C2016F085FC00239BA2FB211C2016F002
:103D40007FFC0023A1A2E7217E2016F079FC00234E
:103D5000BDA2FB217E2016F073FC0023BCA2E7214C
:103D6000DC2016F06DFC0023B7A2FB21DC2016F04E
:103D700067FCCBE1002398A2E7211C2016F060FC31
:103D8000002397A2FB211C2016F05AFC00239EA2C0
:103D9000E7217E2016F054FC00239DA2FB217E200B
:103DA00016F04EFC0023ACA2E721DC2016F048FC04
:103DB000002397A2FB21DC2016F042FCA6E1032C95
:103DC0006DD1754873494860744890F8D500002853
:103DD00032D0002372A2E7211C2016F031FC002310
:103DE00071A2FB211C2016F02BFC00236CA2E72102
:103DF0007E2016F025FC002393A2FB217E2016F0E6
:103E00001FFC002392A2E721DC2016F019FC0023FE
:103E10008DA2FB21DC2016F013FC002390A2E721E9
:103E20004FF4CC7016F00CFC00238FA2FB214FF452
:103E3000CC7016F005FC69E1002367A2E7211C2085
:103E400016F0FEFB002366A2FB211C2016F0F8FBF7
:103E5000002361A2E7217E2016F0F2FB00236CA272
:103E6000FB217E2016F0ECFB00237BA2E721DC2067
:103E700016F0E6FB002366A2FB21DC2016F0E0FB37
:103E800000237BA2E7214FF4CC7016F0D9FB00236E
:103E900079A2FB214FF4CC7016F0D2FB36E1042C52
:103EA00050D13D483B4948603C4890F8D50020B38C
:103EB00000233BA2E7211C2016F0C2FB00233AA2FC
:103EC000FB211C2016F0BCFB002335A2E7217E203D
:103ED00016F0B6FB00235CA2FB217E2016F0B0FB9F
:103EE00000235BA2E721DC2016F0AAFB002356A2E8
:103EF000FB21DC2016F0A4FB08E1002360A2E721EF
:103F00001C2016F09DFB00235BA2FB211C2016F059
:103F100097FB00235CA2E7217E2016F091FB002393
:103F20003DA2FB217E2016F08BFB002358A2E72147
:103F3000DC2016F085FB002337A2FB21DC2016F0E5
:103F40007FFBE3E0052C24D1134812494860134855
:103F500090F8D50070B100234FA2F1214FF49D706D
:103F600016F06EFB00234DA2F1214FF4CC7016F039
:103F700067FBCBE000234BA2F1214FF4987016F0C1
:103F80005FFB00234AA2F1214FF4CC7016F058FBDE
:103F9000BCE091E058020020380031007806002093
:103FA0004D454153000000004449535000000000BB
:103FB00042415400544553540000000044594E41BE
:103FC000000000004C495354000000004C494D498A
:103FD0005400000053455400B2E2C1BF000000008D
:103FE000CFD4CABE00000000B5E7B3D8000000007F
:103FF000B2E2CAD400000000B6AFCCAC00000000B2
:10400000C1D0B1ED00000000BCABCFDE000000006D
:10401000C9E8D6C300000000CEC4BCFE000000000A
:10402000B9DCC0ED00000000B1A3B4E60000000060
:10403000CAFDBEDD00000000B8FCB6E000000000D4
:1040400020322F320000000053455455500000002C
:104050002053595300000000CFB5CDB3000000003D
:104060004649524D0000000055504441544500005F
:10407000B9CCBCFE00000000C9FDBCB600000000C9
:10408000CCF8D7AA00000000B6C1C8A1000000000B
:10409000B7A2CBCD00000000524553004241434B34
:1040A00000000000B2E2CAD4BDE1B9FB000000008C
:1040B000B7B5BBD800000000062C27D16FF07F40B9
:1040C0001349086013484860134890F8D500012848
:1040D0000CD1002311A2F2211C2016F0B1FA00230A
:1040E00010A2F2217E2016F0ABFA0FE00A4890F8F9
:1040F000D50058B900230DA2F2211C2016F0A0FA19
:1041000000230CA2F2217E2016F09AFA10BD0000C6
:1041100058020020380031007806002043414E4309
:10412000454C2000434F4E4649524D002020C8A127
:10413000CFFB20002020C8B7C8CF200011B581B028
:104140009848007800287CD1009057E09DF8041032
:104150000098401C814204D14FF47F00924948608E
:1041600003E04FF050109049486000980A281FD291
:10417000009800EB800080001A3081B214235A228C
:10418000A02006F02BFC8949009A51F82200002358
:104190000722042105F070FF009800EB80008000EA
:1041A0001A3081B20123824AA02016F049FA22E097
:1041B00000980A3800EB800080001A3081B2142386
:1041C0005A224FF4AF7006F009FC7849009A51F872
:1041D000220000230722042105F04EFF00980A3830
:1041E00000EB800080001A3081B20123704A4FF446
:1041F000AF7016F025FA0098401C00900098102827
:10420000A4D39DF80400112804D14FF47F0066491F
:10421000486003E04FF050106349486014235A226D
:1042200092214FF4AF7006F0D9FB624900230822B7
:10423000D1F8F401042105F01FFF01235C4A92210B
:1042400000E04AE04FF4AF7016F0FAF99DF8040070
:10425000122804D14FF47F005349486003E04FF027
:1042600050105149486014235A22A6214FF4AF70D0
:1042700006F0B4FB4F4900230822D1F8F8010421CD
:1042800005F0FAFE01234A4AA6214FF4AF7016F05A
:10429000D7F99DF80400132804D14FF47F00424958
:1042A000486003E04FF050103F49486014235A2201
:1042B000BA214FF4AF7006F091FB3E49002308226B
:1042C000D1F8FC01042105F0D7FE0123384ABA21B8
:1042D0004FF4AF7016F0B4F93BE032480078012893
:1042E00037D10020009031E09DF804100098401C68
:1042F000814204D14FF47F002B49486003E04FF026
:10430000501029494860009800EB800080001A3066
:1043100081B214235A22A02006F060FB2349009AA0
:10432000103251F8220000230722042105F0A4FED8
:10433000009800EB800080001A3081B201231C4AF3
:10434000A02016F07DF90098401C009000980928E4
:10435000CAD34FF050101449486000F0E5FA6FF0EE
:104360007F401149086014484860144C02200090B6
:1043700013E00099C1EBC1010A190099C1EB0113C7
:1043800003EB4111202303EB410188B20023F1210B
:1043900016F056F90098401C009000980528E8D3C4
:1043A0001CBD00008E000020580200208C08002058
:1043B000C00B002078060020380031000E030608EC
:1043C0007CB50446012C00D100E00020009000984C
:1043D00020B14FF47F00F849486003E04FF05010DF
:1043E000F549486014235C221821762006F0F6FA7D
:1043F0006FF07F40F0490860F04890F8D50060B950
:10440000EE4890F88000C0EBC000ED494218002350
:104410001A21762016F014F90BE0E84890F8800095
:10442000C0EBC000E749421800231A21762016F09D
:1044300007F9022C01D1012000E000200090009833
:1044400020B14FF47F00DC49486003E04FF050108A
:10445000D949486014235C222E21762006F0BEFA4A
:104460006FF07F40D4490860D449D1F8840000231C
:104470000722042105F000FE0023D34A30217620D4
:1044800016F0DEF80023D14A3021C82016F0D8F803
:10449000032C01D1012000E000200090009820B101
:1044A0004FF47F00C449486003E04FF05010C24908
:1044B000486014235C224421762006F08FFA6FF0C6
:1044C0007F40BD490860BD49D1F88800002307221C
:1044D000042105F0D1FD0023BB4A4621762016F0C9
:1044E000AFF80023B94A4621C82016F0A9F8042CD9
:1044F00001D1012000E000200090009820B14FF48D
:104500007F00AD49486003E04FF05010AA49486071
:10451000142364225A21762006F060FA6FF07F405F
:10452000A5490860A549D1F894000023052204217B
:1045300005F0A2FD0023A44A5C21762016F080F845
:104540000023A24A1E325C21B22016F079F8052C15
:1045500001D1012000E000200090009820B14FF42C
:104560007F009549486003E04FF050109249486041
:1045700014235C221821900006F030FA6FF07F407F
:104580008D4908608D4890F8D50068B98B4890F83F
:104590009000C0EBC0008E49421800231A214FF44E
:1045A000B87016F04DF80CE0844890F89000C0EB1D
:1045B000C0008849421800231A214FF4B87016F041
:1045C0003FF8062C01D1012000E000200090009867
:1045D00020B14FF47F007849486003E04FF050105D
:1045E00075494860142370222E21C80006F0F6F9A0
:1045F0006FF07F40704908607049D1F88C0000234B
:104600000822012105F038FD00236F4A30214FF4C4
:10461000B87016F015F800236C4A2A3230214FF496
:10462000E57016F00DF8072C01D1012000E0002004
:104630000090009820B14FF47F005F49486003E08C
:104640004FF050105C4948601423702244214FF40D
:10465000B87006F0C3F96FF07F40574908605749BA
:10466000D1F89C0000230822012105F005FD00235C
:10467000554A46214FF4B87015F0E2FF0023534A23
:104680002A3246214FF4E57015F0DAFF082C01D1EB
:10469000012000E000200090009820B14FF47F003E
:1046A0004549486003E04FF05010434948601423E7
:1046B00064225A214FF4B87006F090F96FF07F40F1
:1046C0003D4908603D49D1F89800002305220421A6
:1046D00005F0D2FC00233C4A5C21880015F0B0FFB5
:1046E00000233A4A1E325C214FF4D67015F0A8FF21
:1046F000394890F86D01002877D124B1012C06D0FB
:10470000052C6ED12DE00020FFF742FA6CE000F09E
:104710000BF96FF07F40284908603048486027480F
:1047200090F8D50008B1274D00E0254D00200190FC
:1047300013E00199C1EBC1014A190199C1EB0113C1
:1047400003EB4111202303EB410188B20023F12147
:1047500015F076FF0198401C019001980228E8D3DB
:1047600042E000F0E1F86FF07F40134908601B4819
:104770004860124890F8D50008B1164D00E0144D7D
:104780000020019013E00199C1EBC1014A19019980
:10479000C1EB011303EB4111202303EB410188B26C
:1047A0000023F12115F04CFF0198401C0190019865
:1047B0000328E8D318E018E058020020780600200B
:1047C000EE0306086C040608C00B002056FD050821
:1047D00042040608570406087C080020380031000F
:1047E000FFE700F0A1F800BF0EE000F09DF86FF0C9
:1047F0007F400649086006484860002305A2F12171
:104800004FF4CC7015F01CFF7CBD00005802002056
:1048100038003100C8B7C8CF0000000070B5FEF7FF
:104820006BFE6FF07F4024490860244848602448AC
:1048300090F8D50008B1234E00E0234E002306F186
:1048400042020421184615F0FBFE6FF07F401A4922
:1048500008604FF050104860194890F8D50008B92A
:104860001A4D00E01A4D002420E0042C0ED205EB76
:10487000041204EB440000EBC4001A2303EB4000D5
:1048800081B20023184615F0DBFE0EE005EB0412A2
:10489000201F00EB400303EBC0001A2303EB400092
:1048A00081B20023FA2015F0CBFE641C082CDCD367
:1048B0000020FFF76DF970BD580200200352F3008D
:1048C00078060020F4FE050802FE050856FC0508DF
:1048D000D6FC05082DE9F841054688461446002611
:1048E0001CE0207800B91AE02078203800EB800026
:1048F000C00000EB8000C700F81707EB50700949B3
:1049000001EBE000A919009088B228231A4641461D
:1049100006F07CFD641C06F11C0086B2E1E700BFD6
:10492000BDE8F8815C810C0810B500243CE020480B
:1049300020494860A1000A31C4EB041202EB420294
:1049400001EB420188B22B235A22E42106F046F8FB
:104950001948184948605E2204FB02F10B3188B205
:1049600001235A22E32106F039F8C4EB041101EBCC
:104970004411642202EB410188B22C230122E3217D
:1049800006F02CF800200B494860C4EB041101EB41
:104990004411642202EB4101491C88B22C230322FA
:1049A000E32106F01BF8641C052CC0D310BD0000E9
:1049B00038003100580200206843690010B50446F1
:1049C000CA4890F8D50000287DD1012C0DD1C848E7
:1049D000C84948604FF47F0008600023C6A2CD217B
:1049E0004FF4917015F02CFE7EE1022C0ED14FF0A9
:1049F0005010C04948604FF47F0008600023C4A2F3
:104A0000CD214FF49B7015F01BFE6DE1032C0AD1F4
:104A1000B748B849486014239622CD214FF49B70C3
:104A200005F0DCFF60E1042C0BD14FF05010B149D0
:104A3000486014239622CD214FF49B7005F0CEFFE1
:104A400052E1052C0ED14FF05010AA4948604FF4A6
:104A50007F0008600023B3A2CD214FF49B7015F0B6
:104A6000EFFD41E1062C0DD1A148A24948604FF469
:104A70007F0008600023B0A2CD214FF49B7015F099
:104A8000DFFD31E1072C0ED14FF0501099494860FD
:104A90004FF47F0008600023A7A2CD214FF49B7044
:104AA00015F0CEFD20E1082C0ED1914891494860C7
:104AB0004FF47F000860002395A2CD214FF49B7036
:104AC00015F0BEFD10E149E0092C0DD18848894957
:104AD00048604FF47F00086000239CA2CD214FF472
:104AE0009B7015F0ADFDFFE00A2C0CD18048814988
:104AF00048604FF47F000860002399A2CD21022076
:104B000015F09EFDF0E00B2C09D1794879494860F9
:104B10001423F022CD21022005F060FFE4E00C2CEC
:104B20000ED14FF05010734948604FF47F00086079
:104B3000002393A204214FF4C87015F081FDD3E047
:104B40000D2C8ED14FF050106A494860142340223A
:104B500004214FF4C87005F041FFC5E0012C0CD1D1
:104B60006348644948604FF47F000860002387A2CF
:104B7000CD21AA2015F064FDB6E0022C0ED14FF035
:104B800050105C4948604FF47F000860002387A202
:104B9000CD214FF48C7015F053FDA5E0032C0AD104
:104BA00053485449486014234FF48072CD21DA20D1
:104BB00005F014FF98E0042C0AD14FF050104D4935
:104BC00048601423A201CD21DA2005F007FF8BE015
:104BD000052C0ED14FF05010464948604FF47F002D
:104BE0000860002377A2CD214FF48C7015F028FDCA
:104BF0007AE0062C0DD13E483E4948604FF47F00D4
:104C0000086000236FA2CD214FF48C7015F018FDC1
:104C10006AE0072C0ED14FF05010364948604FF42F
:104C20007F000860002367A2CD214FF48C7015F03F
:104C300007FD59E0082C0DD12D482E4948604FF44E
:104C40007F000860002359A2CD214FF48C7015F02D
:104C5000F7FC49E0092C0ED14FF05010254948606F
:104C60004FF47F00086000235CA2CD214FF48C70CC
:104C700015F0E6FC38E00A2C0CD11D481D494860AF
:104C80004FF47F00086000235AA2CD21022015F0C6
:104C9000D7FC29E00B2C09D115481649486014238C
:104CA000F022CD21022005F099FE1DE00C2C0ED142
:104CB0004FF050100F4948604FF47F000860002308
:104CC00057A204214FF4C87015F0BAFC0CE00D2C6B
:104CD0000AD14FF0501007494860142340220421A4
:104CE0004FF4C87005F07AFE10BD00007806002071
:104CF0006534340058020020C7EBD3C3CAFDD7D6B1
:104D0000BCFCC5CCBBF2D0FDC5A5CAE4C8EB000015
:104D1000C7EBD3C3CAFDD7D6BCFCC5CCCAE4C8EB2D
:104D200000000000B0B4CFC2D0FDC5A5C7D0BBBB4A
:104D3000B2BDD6E800000000B0B4CFC2D0FDC5A51A
:104D4000BFECCBD9D1A1D4F100000000B5E7D1B9B7
:104D5000B3ACCFDED7D4B6AFBFAACABC0000000048
:104D6000BDD3BDFCBCABCFDEB9A6C2CA2CBDABD493
:104D7000DA3135B7D6D6D3BAF3B9D8B1D5000000F9
:104D8000C9E8D6C3B3ACCFDE00000000496E707531
:104D9000742077697468206B6579626F6172642032
:104DA0006F7220656E636F6465722E00496E707558
:104DB000742077697468206B6579626F6172642E04
:104DC0000000000050726573732074686520656E82
:104DD000636F6465722E2020000000004175746FBF
:104DE0002073746172742E20202020202020202027
:104DF00000000000417070726F616368696E672027
:104E00006D617820706F7765722C7368757420649B
:104E10006F776E20696E203135206D696E732E00BC
:104E2000536574204552520070B502F0C5FD6FF015
:104E30007F402349086023484860234890F8D50004
:104E400008B1224E00E0224E002306F11602042192
:104E5000184615F0F5FB6FF07F40194908604FF0D8
:104E6000501048601B4D002424E0022C10D204EBAB
:104E7000840005EB400204EB440000EBC4001A235D
:104E800003EB400081B20023184615F0D9FB10E077
:104E900004EB840005EB4002A01E00EB400303EB93
:104EA000C0001A2303EB400081B20023FA2015F062
:104EB000C7FB641C032CD8D30020FEF769FE70BD2D
:104EC000580200200352F30078060020F4FE050883
:104ED00002FE0508E8F9050838B50446012C00D1A2
:104EE00000E000200090009820B14FF47F0042497C
:104EF000486003E04FF050103F49486014237E2281
:104F00001821582005F06AFD6FF07F403A4908608B
:104F10003A49C86C00230722042105F0ADF80023AC
:104F2000374A1A21582015F08BFB0023354A1A21E5
:104F3000C82015F085FB022C01D1012000E00020E3
:104F40000090009820B14FF47F002B49486003E0A7
:104F50004FF05010284948601423682218214FF45C
:104F6000A97005F03BFD6FF07F402349086023499D
:104F7000486D00230722042105F07EF80023204A13
:104F80001A214FF4A97015F05BFB032C01D101200D
:104F900000E000200090009820B14FF47F001649F7
:104FA000486003E04FF050101349486014237E22FC
:104FB0002E21582005F012FD6FF07F400E49086049
:104FC0000E49086D00230722042105F055F800233F
:104FD0000B4A3021582015F033FB0023094A921F59
:104FE0003021C82015F02CFB1CB90020FEF7D0FDA5
:104FF00000E000BF00BF38BD580200207806002046
:10500000C00B00205CFD050870B502F0DDFC6FF000
:105010007F402C4908602C4848602C4890F8D50007
:1050200008B12B4E00E02B4E002306F18402042130
:10503000184615F005FB6FF07F40224908604FF0DD
:1050400050104860214890F8D50008B1224D00E08A
:10505000224D00242FE0062C11D24FF05010194998
:10506000486004EB840005EB4002162304FB03F0C8
:105070001A3081B20023184615F0E2FA1AE0A01F98
:10508000022806D9082804D24FF050100D49486074
:1050900003E04FF050100B49486004EB840005EB2F
:1050A0004002A01F162358431A3081B20023FA2071
:1050B00015F0C6FA641C0B2CCDD30320FEF768FD57
:1050C00070BD0000580200200352F3007806002053
:1050D000F4FE050802FE050844010608D60006088D
:1050E00010B503F075F8FFF71FFC10BD30B595B093
:1050F000054603F003FB01222946684601F054F9F6
:105100006C469DF800008DF8380001980F900298C9
:105110001090039811900498129005981390069897
:1051200014900F984FF47A71B0FBF1F00F900B9838
:1051300018B90020099008900A900F9815B030BD5A
:1051400070B5FFF7CDFF6FF07F403D4908603D48E7
:1051500048603D4890F8D50008B13C4D00E03C4D1A
:10516000002305F16E020421184615F069FA6FF06C
:105170007F40334908604FF050104860002459E0E8
:10518000032C2AD2304890F8D500012810D1C4EB66
:105190000410304BC21804EB440000EBC4001A2387
:1051A00003EB400081B20023184615F049FA40E0B5
:1051B000254890F8D50030BBC4EB0410264BC2182C
:1051C00004EB440000EBC4001A2303EB400081B25F
:1051D0000023184615F034FA2BE01B4890F8D50050
:1051E000012811D1C4EB04101A4BC218E01E00EBC9
:1051F000400303EBC0001A2303EB400081B20023FD
:10520000FA2015F01DFA14E00F4890F8D50080B987
:10521000C4EB0410104BC218E01E00EB400303EB7C
:10522000C0001A2303EB400081B20023FA2015F0DE
:1052300007FA641C062CA3D30520FEF7A9FC70BD59
:10524000580200200352F30078060020F4FE0508FF
:1052500002FE050852020608F801060810B5B0481B
:10526000B04908604FF050104860AF4890F8D50042
:10527000F0B90023ADA25E214FF4967015F0E0F96D
:105280000023ABA25E214FF4AF7015F0D9F9A94904
:1052900091F87D10481C00230222194604F0ECFE10
:1052A0000023A54A5E214FF4A17015F0C9F91BE057
:1052B0009D4890F8D500012816D100239FA25E21B9
:1052C0004FF4967015F0BCF99A4991F87D10481C7E
:1052D00000230222194604F0CFFE0023964A5E21E5
:1052E0004FF4A97015F0ACF98F4890F8D50080B94B
:1052F000904890F87D108C48E430405CC0EBC000D2
:105300009049421800235E214FF4C87015F098F9B7
:1053100014E0854890F8D50001280FD1854890F811
:105320007D108148E430405CC0EBC00086494218E3
:1053300000235E214FF4C87015F082F97A4890F886
:10534000D500E0B9002381A272214FF4967015F0C8
:1053500077F900237FA288214FF4967015F070F939
:1053600000237EA29E214FF4967015F069F9002368
:105370007CA2B4214FF4967015F062F920E06A48DF
:1053800090F8D50001281BD1002378A272214FF498
:10539000967015F055F9002375A288214FF4967088
:1053A00015F04EF9002373A29E214FF4967015F06C
:1053B00047F9002370A2B4214FF4967015F040F91C
:1053C000594890F8210038BB5A480068642806D232
:1053D000002307220421184604F04EFE06E055493A
:1053E000002307220868042104F046FE51490023E7
:1053F00007220868042104F03FFE00234E4A722170
:105400004FF4B47015F01CF9002358A272214FF428
:10541000DC7015F015F924E0434890F821000128CC
:105420001FD144480068642806D2002306220321C5
:10543000184604F021FE06E03E49002306220868D3
:10544000032104F019FE00233B4A72214FF4B4708B
:1054500015F0F6F8002345A272214FF4DC7015F028
:10546000EFF8314890F82000A8B93249002307220C
:105470004868042104F000FE00232F4A88214FF4DD
:10548000B47015F0DDF800233DA288214FF4DC70E4
:1054900015F0D6F819E0244890F82000012814D11E
:1054A0002449002306224868032104F0E5FD002377
:1054B000214A88214FF4B47015F0C2F8002330A2BD
:1054C00088214FF4DC7015F0BBF81A49002307223D
:1054D000C868032104F0D0FD0023174A9E214FF431
:1054E000B47015F0ADF8002326A29E214FF4DC70B5
:1054F00015F0A6F80F4900230522D1F880000121FC
:1055000004F0BAFD00230C4AB421480015F098F8C5
:1055100000231DA2B4214FF4DC7015F091F810BDEA
:1055200000FFFF005802002078060020B5DA0000D6
:10553000B2BD00007C080020C00B002053746570D1
:1055400000000000D50906083E0A0608B5E7D1B9F3
:1055500000000000B5E7C1F700000000B9A6C2CA0C
:1055600000000000CAB1BCE40000000056000000CA
:10557000490000005000000054494D450000000063
:105580004100000057000000730000002DE9F041C9
:105590000546012D00D100E00020064626B14FF45B
:1055A0007F00FE49486003E04FF05010FB4948601F
:1055B00014235C221821762005F010FA6FF07F404A
:1055C000F6490860F64991F8D600002303221946EF
:1055D00004F052FD0023F34A1A21762015F030F82A
:1055E000022D01D1012000E00020064626B14FF433
:1055F0007F00EA49486003E04FF05010E7494860F7
:1056000014235C222E21762005F0E8F96FF07F400C
:10561000E2490860E24890F8D50060B9E04890F8A7
:10562000D700C0EBC000E0494218002330217620AB
:1056300015F006F80BE0DA4890F8D700C0EBC00090
:10564000DA49421800233021762014F0F9FF032DA7
:1056500001D1012000E00020064626B14FF47F0072
:10566000CE49486003E04FF05010CC494860142305
:105670005C224421762005F0B1F9C949D1F8E00057
:1056800000230722042104F0F7FC6FF07F40C34998
:105690000860C348D0F8E00060B10023C14A462149
:1056A000762014F0CDFF0023C14A4621C82014F013
:1056B000C7FF10E0BA4890F8D50030B90023BD4AC2
:1056C0004621762014F0BCFF05E00023BA4A4621AB
:1056D000762014F0B5FF042D01D1012000E0002058
:1056E000064626B14FF47F00AC49486003E04FF016
:1056F0005010AA49486014235C221821900005F03C
:105700006DF96FF07F40A5490860A54890F8D50075
:1057100068B9A34890F8D900C0EBC000A749421867
:1057200000231A214FF4B87014F08AFF0CE09C4853
:1057300090F8D900C0EBC000A149421800231A21FB
:105740004FF4B87014F07CFF052D01D1012000E06A
:105750000020064626B14FF47F009049486003E0E0
:105760004FF050108D49486014235C222E21C80050
:1057700005F034F96FF07F40884908608849D1F816
:10578000DC0000230722042104F076FC0023854A74
:1057900030214FF4B87014F053FF0023844A3021B5
:1057A0004FF4E17014F04CFF0D2D01D1012000E009
:1057B0000020064626B14FF47F007849486003E098
:1057C0004FF050107549486014235C22442190002A
:1057D00005F004F96FF07F4070490860704890F858
:1057E000D50068B96E4890F8D800C0EBC000714988
:1057F0004218002346214FF4B87014F021FF0CE04A
:10580000674890F8D800C0EBC0006B4942180023ED
:1058100046214FF4B87014F013FF062D01D101207A
:1058200000E00020064626B14FF47F005B49486047
:1058300003E04FF0501059494860102350225E2178
:10584000002005F0CBF86FF07F40544908605448C1
:1058500090F8D500D8B900235AA25E21184614F05A
:10586000EFFE002358A25E21322014F0E9FE5749D2
:1058700091F87C10481C00230222194604F0FCFB1E
:105880000023484A5E21162014F0DAFE19E044484D
:1058900090F8D500012814D100234DA25E211846AE
:1058A00014F0CEFE494991F87C10481C00230222D6
:1058B000194604F0E1FB00233A4A5E21262014F049
:1058C000BFFE072D01D1012000E00020064626B1D1
:1058D0004FF47F003149486003E04FF050102F49EA
:1058E0004860102350225E21642005F077F82C4890
:1058F00090F8D50078B9354890F87C102848E43005
:10590000405CC0EBC0003449421800235E21642093
:1059100014F096FE13E0224890F8D50001280ED12D
:105920002A4890F87C101E48E430405CC0EBC00070
:105930002A49421800235E21642014F081FE4FF0B2
:10594000501016494860214890F87C101448E43003
:10595000405C04287ED0124890F8D500E0B90023BE
:105960001FA27221184614F06BFE00231FA288218B
:10597000184614F065FE00231EA29E21184614F05E
:105980005FFE00231EA2B421184614F059FE002326
:105990001DA2CA2118463BE03DE00000580200204D
:1059A00078060020C00B0020AB090608C0090608D5
:1059B0005CFD0508EE0306086C040608FC030608F7
:1059C00034040608B5DA0000B2BD00007C080020EF
:1059D0005374657000000000D50906083E0A0608E9
:1059E000B8BAD4D8B4F3D0A100000000CAB1BCE466
:1059F00000000000B1C8BDCFC0E0D0CD0000000065
:105A0000C9CFCFDE00000000CFC2CFDE0000000013
:105A100014F016FE24E0FE4890F8D50001281FD1AE
:105A20000023FCA27221184614F00AFE0023FBA2F8
:105A30008821184614F004FE0023FAA29E2118467D
:105A400014F0FEFD0023F9A2B421184614F0F8FD6D
:105A5000002300E04BE1F7A2CA21184614F0F0FD44
:105A6000122314227021C82004F0B8FF122314223C
:105A7000B221C82004F0B2FF12231422C821084624
:105A800004F0ACFFEC4890F87C10E148E430405C56
:105A900000EB4000E94901EB400200237221C820DD
:105AA00014F0CEFDE44890F87C10E548405C00EB33
:105AB0004000E44901EB40020023B421C82014F067
:105AC000BFFDDD4890F87C10DD48405C00EB4000F5
:105AD000DC4901EB40020023CA21C82014F0B0FDCC
