:020000040800F2
:1000000020690020C10100086D9D0008F172000800
:10001000099D0008AD120008F9FD0008000000006D
:100020000000000000000000000000005DBB0008B0
:10003000B514000800000000E9A3000825D5000859
:10004000DB010008DB010008DB010008EDAD000862
:10005000DB010008DB010008DB010008DB01000810
:10006000DB0100081D660008DB010008DB01000859
:10007000DB010008DB010008DB010008DB010008F0
:10008000DB010008DB010008DB010008DB010008E0
:10009000DB010008DB010008DB010008DB010008D0
:1000A000DB010008DB010008DB010008DB010008C0
:1000B0008BD70008DB010008DB010008DB0100082A
:1000C000DB010008DB010008DB010008DB010008A0
:1000D000DB01000859EA0008DB010008DB01000829
:1000E00005660008DB010008DB010008DB010008F1
:1000F000DB010008DB010008DB010008DB01000870
:10010000DB010008DB010008DB010008DB0100085F
:10011000DB010008DB010008A1D70008DB010008B3
:10012000DB010008DB010008DB010008DB0100083F
:10013000DB010008DB010008DB010008DB0100082F
:10014000DB010008DB010008DB010008DB0100081F
:10015000DB010008DB010008DB010008DB0100080F
:10016000DB010008DB010008DB010008DB010008FF
:10017000DB010008259E0008DB010008DB01000808
:10018000DB010008DB010008DB010008DB010008DF
:10019000DB010008DB010008DB010008DB010008CF
:1001A000DB010008DB010008DB010008DFF80CD0F0
:1001B00000F0F6FA004800477D1B01082069002086
:1001C0000648804706480047FEE7FEE7FEE7FEE7F1
:1001D000FEE7FEE7FEE7FEE7FEE7FEE701D60008E2
:1001E000AD01000840EA01039B0703D009E008C9FC
:1001F000121F08C0042AFAD203E011F8013B00F8EC
:10020000013B521EF9D27047D2B201E000F8012B37
:10021000491EFBD270470022F6E710B513460A4686
:1002200004461946FFF7F0FF204610BD10B5002226
:1002300000E0521C835C8C5CA34201D1002BF8D1FE
:10024000D8B2E1B2401A10BD2DE9FE4F804681EAD6
:100250000300C00F0C46009021F0004123F0004540
:10026000B8EB0200A94105D24046214690461C4603
:100270000B46024623F00040104347D0270DC7F33A
:100280000A00C3F30A510290401A019040286BDA29
:10029000C3F3130040F4801B0098924620B1002362
:1002A000D2EB030A63EB0B0B01985946C0F14002F5
:1002B000504600F0CFF906460D4650465946019A81
:1002C00000F0E7F910EB08006141002487EA1152C1
:1002D00084EAE7731A4340D0009A62B3019A012A74
:1002E0004FEA075215DC001B61EB02014FF00042A0
:1002F00002EA0752CDE90042001C41F58011324666
:100300002B4600F0E7F903B0BDE8F08F40462146E8
:10031000F9E7001B61EB0201001C41F58013001896
:100320005B412018A2F5001747EB030140EAD570A6
:10033000B6196D4111E06D084FEA360645EAC07501
:100340004FEA0752001B61EB0201001C41F58011CE
:1003500049084FEA30000019514132462B4603B09C
:10036000BDE8F04F00F0A7B900980122400000233B
:10037000D0EB020263EBE073009821464FEAE07491
:10038000B8EB000061EB0401E9E783F000435BE7B1
:1003900081F0004158E72DE9FE4F81EA030404F0A3
:1003A000004421F0004100944FF0000B23F0004383
:1003B00050EA01045ED052EA03045BD0C3F30A544E
:1003C000C1F30A552C44A4F2F3340194A0FB025467
:1003D000C1F3130141F48011C3F3130343F48013F9
:1003E00001FB024400FB034E840A970A44EA81544D
:1003F00047EA8357A4FB076802958D0A05FB07852A
:100400004FEA932C04FB0C542705029D4FEA065833
:1004100047EA1637B5EB08056EEB070C870E920E10
:1004200047EA811742EA8312A7FB0201B6EB0B01F0
:1004300064EB00042B0D43EA0C335E1844EB1C50B4
:10044000DA465146E7FB0201C5F313044FEA0B33CA
:1004500043EA14534FEA0432019C43EA0603A4F131
:100460000C040294009CCDE900B400F033F903B011
:10047000BDE8F08F00200146F9E72DE9F04D81EA53
:10048000030404F0004B21F0004514464FF0000A2D
:1004900023F0004150EA050220D054EA01021DD0A9
:1004A000C5F30A570246C5F31303C1F31300C1F3A2
:1004B0000A5640F4801543F48013A7EB0608101B7E
:1004C000D64608F2FD3873EB050002D308F10108A7
:1004D00001E092185B41B8F1000F03DA00200146F9
:1004E000BDE8F08D00204FF48011064684460EE0F2
:1004F000171B73EB050705D3121B63EB05030643BC
:100500004CEA010C49084FEA300092185B4150EA6E
:100510000107EDD152EA030012D082EA040083EA17
:100520000501084305D0101BAB4106D20122002370
:1005300006E000224FF0004302E06FF0010253108A
:100540001AEB06004CEB085110EB0A0041EB0B01D3
:10055000BDE8F04D00F0AFB80EB5C10F80EAE07015
:100560000844CA07002140F233438DE80E000A46D2
:100570000B4600F0AFF803B000BD0EB540F23341BA
:1005800002910021CDE900110A460B4600F0A2F8C5
:1005900003B000BDC1F30A5210B5C1F3130140F21C
:1005A000FF3341F480119A4201DA002010BD40F27D
:1005B00033439A42A2F2334203DC524200F059F82C
:1005C00010BD904010BD000030B5041E71F1000454
:1005D00004DB4FF00044404264EB0101141E73F150
:1005E000000405DB1C464FF00043524263EB04035A
:1005F0008B4208BF824230BD30B5041E71F1000449
:1006000004DB4FF00044404264EB0101141E73F11F
:10061000000405DB1C464FF00043524263EB040329
:10062000994208BF904230BD30B50B4601460020CC
:100630002022012409E021FA02F59D4205D303FAA4
:1006400002F5491B04FA02F52844151EA2F1010225
:10065000F1DC30BD202A04DB203A00FA02F1002050
:1006600070479140C2F1200320FA03F319439040F0
:100670007047202A04DB203A21FA02F0002170475B
:1006800021FA02F3D040C2F12002914008431946FA
:100690007047202A06DBCB17203A41FA02F043EAE2
:1006A000E07306E041FA02F3D040C2F1200291402B
:1006B00008431946704710B5141E73F1000408DA98
:1006C000401C41F1000192185B411A4301D120F016
:1006D000010010BD2DE9F04D92469B4611B1B1FAD3
:1006E00081F202E0B0FA80F220329046FFF7B2FFCA
:1006F00004460F4640EA0A0041EA0B0153465A46B7
:10070000084313D0114653EA010019D0C8F1400242
:100710005046FFF7AEFF05460E4650465946424644
:10072000FFF798FF084305D0012004E02046394632
:10073000BDE8F08D0020054346EAE0762C433743C0
:100740000A986305E40AA0EB08000022FD0A44EAC7
:1007500047540A3002D500200146E9E70105101987
:100760006941DDE9084500196941BDE8F04DA2E79E
:1007700070B521F0004303430CD0C1F30A550024A7
:10078000D5EB040564EB0403D617AD1AB34102DBC5
:100790000020014670BD201841EB025170BD0000E1
:1007A000064C074D06E0E06840F0010394E80700BE
:1007B00098471034AC42F6D3FFF7FCFC98050808C4
:1007C000B80508082DE9F04D00231A461B1A8A4186
:1007D00003DB00200146BDE8F08DC1F30A52C1F3EE
:1007E000130141F480154FF0000BD10702D100181E
:1007F0006D41521E0027044640F2FF11384601EBBE
:10080000620A3E468046024600204FF48011FFF700
:1008100030FFC2197141BB1846EB0100B4EB030C69
:1008200075EB000C04D3E41A65EB000517460E4681
:10083000241908F101006D4180463428E3DDF919DF
:1008400046EB0600091BA84103D24FF0FF321346C6
:1008500001E0002213461BEB070046EB0A51BDE8FE
:10086000F04DFFF728BF70B58C1810F8015B15F03C
:10087000070301D110F8013B2A1106D110F8012B12
:1008800003E010F8016B01F8016B5B1EF9D12B0737
:1008900005D40023521E0DD401F8013BFAE710F8ED
:1008A000013BCB1A921C03E013F8015B01F8015BDA
:1008B000521EF9D5A142D8D3002070BD70B50546AF
:1008C0000C4608480560204600F00EF800BF0548B9
:1008D00000680028FBD100214FF080400DF055FA50
:1008E00070BD0000840100203EB5044600214FF099
:1008F00080400DF04AFA0022012188070DF08CFBA0
:10090000022C02D10B20019004E0012C02D142F60E
:10091000DF6001900520ADF800000020ADF8080070
:10092000ADF8020069464FF080400DF0CBFB01218D
:1009300088070DF027FA012188070DF014FA01222B
:10094000114690070DF068FB012188070DF01DFA94
:100950003EBD000010B5C8211448FFF75CFC012023
:100960001249087006204870002088700D20C87059
:1009700000200871487188710D4890F85800C871BE
:1009800008210A4806F0B6FC00120849087208213E
:10099000064806F0AFFC054948720A2103480FF0EB
:1009A0002DFA01200349087010BD00002422002008
:1009B000341300203C01002070B504460D46594810
:1009C000594948602CBB59480068642806D2002366
:1009D00007220421184606F0CBFC06E05349002309
:1009E00007220868042106F0C3FC504900230722AF
:1009F0000868042106F0BCFC00234D4A82215020E7
:100A00000FF08AFD00234BA28221A0200FF084FD6D
:100A10001FE0012C1DD145480068642806D2002340
:100A200006220321184606F0A3FC06E03F490023F6
:100A300006220868032106F09BFC00233C4A822121
:100A400050200FF069FD00233AA28221A0200FF070
:100A500063FD9DB93549002307224868042106F04B
:100A600087FC0023324AA02150200FF055FD0023BF
:100A700031A2A02108460FF04FFD14E0012D12D144
:100A80002A49002306224868032106F071FC00234E
:100A9000274AA02150200FF03FFD002326A2A021CD
:100AA00008460FF039FD214900230622C8680321BA
:100AB00006F05EFC00231E4ABE2150200FF02CFDE4
:100AC00000231EA2BE21A0200FF026FD17490023FF
:100AD00007228868042106F04BFC0023144A822177
:100AE0004FF48C700FF018FD002315A282214FF4F3
:100AF000B4700FF011FD0D4900230622C86B194692
:100B000006F036FC00230A4AA0214FF48C700FF047
:100B100003FD00230BA2A0214FF4B4700FF0FCFCE6
:100B200070BD000065343400F40000205817002028
:100B3000382100205600000041000000570000004E
:100B4000A6B800006D41480070B586B00020049042
:100B5000002400250126FE490870FE4908704FF068
:100B6000501006F07DFF002001F0EEFC0020039005
:100B70000BF0FAF871E3BDF81000401C80B204904D
:100B8000204605F0DBFDC5B2F3480078012801D10D
:100B900001262C466FF07F40F0490860F04800784D
:100BA00038B10020EE49087005F02AF90020ED491F
:100BB0000870ED480078012804D10020EA49087047
:100BC0000AF0ECF9012E03D1204601F071FA00265B
:100BD000DF480078012804D10AF0AEF90020DC4992
:100BE0000870E24A92F8201092F82100FFF7E4FE24
:100BF000DF48007870B1DF480078052805D10BF098
:100C0000B3F80020DB49087004E0DA480078401CA3
:100C1000D8490870D84840780128ABD1D748007827
:100C20000028A7D1D44880780028A3D1012606F057
:100C3000ADFD05909DF81400D14908709DF8140091
:100C4000002897D09DF8140020286ED2DFE800F02D
:100C50006DBEBFC0FDFCC3C2C1C4C5C6FBC8C7FAD8
:100C600062574C31106D6DF96D759B6DF86D6DF7B8
:100C700014B1012C1AD106E0C248007810B9062040
:100C8000C149087013E0BF48007870B90020B74927
:100C900081F858000BF068F84FF0501006F0E0FEB5
:100CA000012001F051FC0CF01FFC00E000BF00BF70
:100CB000D2E214B1012C14D100E013E0B148007865
:100CC00070B90220A94981F858000BF04DF84FF097
:100CD000501006F0C5FE012001F036FC0CF004FCBB
:100CE00000E000BF00BFB7E234B9A648007810B9F1
:100CF0001620A549087000E000BF00BFACE234B97F
:100D0000A048007810B917209F49087000E000BF84
:100D100000BFA1E214B1012C0CD107E09948007882
:100D200010B90D209849087005E094E204208F491D
:100D3000487000E000BF00BF8EE28C4890F8580079
:100D400030B9012C01DA08241CE0601EC4B219E09D
:100D5000864890F85800022814D1062C02D1601E53
:100D6000C4B20FE0052C01D102240BE0022C02D109
:100D7000601EC4B206E0012C02D1601EC4B201E0C4
:100D800004B9062468E2794890F8580030B9072C75
:100D900001DD002419E0601CC4B216E0734890F82D
:100DA0005800022811D1062C01D100240DE0052C99
:100DB00001D1062409E0022C01D1052405E0012C13
:100DC00001D1022401E004B9012445E200BF00BFC3
:100DD00000BF00BF00BF00BF00BF00BF00BF00BF1B
:100DE000A01E072872D2DFE800F0043D57F972A276
:100DF000DE006448007848BB5C4890F8580070B941
:100E00007620ADF804003020ADF806004C20ADF897
:100E1000080001A803F0F0FF5449C8651BE05348DF
:100E200090F85800022816D17620ADF80400302042
:100E3000ADF806005020ADF8080001A807E0F2E088
:100E400000E1CEE0CEE0F6E0EEE02CE107E004F0D9
:100E50001BF84649886709F021F80AF085FF0CF075
:100E600043FBBCE047480078A8B9404890F85800D8
:100E700068B97620ADF804004620ADF806004C2095
:100E8000ADF8080001A803F0B7FF3849086609F07B
:100E900005F80CF029FBA2E03A480078A8B93348DD
:100EA00090F8580068B97620ADF804005C20ADF8E1
:100EB00006004C20ADF8080001A803F09DFF2B4967
:100EC000486608F0EBFF0CF00FFB88E086E02D4849
:100ED000007858BB254890F8580078B94FF4B8709E
:100EE000ADF804003020ADF806004C20ADF8080045
:100EF00001A804F08FF81D49C86613E01B4890F85C
:100F0000580002280ED14FF4B870ADF8040030201C
:100F1000ADF806004C20ADF8080001A804F07AF8FE
:100F20001249C86708F0BAFF0CF0DEFA57E015481E
:100F3000007860B90D4890F8580038BB4FF4B8708D
:100F4000ADF804004620ADF806004C201FE029E073
:100F50005500002057000020EE000020F400002083
:100F60007E000020A20000203D000020341300205D
:100F70003C010020BA000020E4000020CC0000204A
:100F8000BB000020B60000205900002006E0ADF8AC
:100F9000080001A804F03EF8B349086708F07EFF96
:100FA0000CF0A2FA1BE0B1480078B0B9AE4890F856
:100FB000580070B94FF4B870ADF804005C20ADF87B
:100FC00006004C20ADF8080001A804F023F8A6495B
:100FD000486708F063FF0CF087FA00E000BF00BF2D
:100FE0003AE139E1A148007890B90320A04908709E
:100FF0000CF090FA01209F4908709FED9F0A9F48CE
:1010000080ED0E0A0120994908700AF0ADFE09E052
:101010000320974908700020944908700AF0A4FE44
:101020000CF070FA18E117E19048007810B912201E
:101030009349087010E18D48007810B90620904956
:10104000087009E1012C2DD1874890F8580090B91B
:101050008648007830BB0220834981F858000AF0A6
:1010600083FE4FF0501006F0FBFC012001F06CFAFB
:101070000CF03AFA16E07C4890F85800022811D19A
:101080007A48007870B90020774981F858000AF052
:101090006BFE4FF0501006F0E3FC012001F054FA13
:1010A0000CF022FAD8E0A01E07287CD2DFE800F07E
:1010B00004344ED0689AB5006C48007848BB6A4842
:1010C00090F8580070B97620ADF804003020ADF8E3
:1010D00006004C20ADF8080001A803F08DFE62491F
:1010E000C86512E0604890F8580002280DD17620BB
:1010F000ADF804003020ADF806005020ADF808002F
:1011000001A803F0C1FE5849886708F0C7FE0AF03D
:101110002BFE0CF0E9F99CE054480078A8B952483D
:1011200090F8580068B97620ADF804004620ADF874
:1011300006004C20ADF8080001A803F05DFE4A4906
:10114000086608F0ABFE0CF0CFF982E04748007863
:10115000A8B9454890F8580068B97620ADF8040061
:101160005C20ADF806004C20ADF8080001A803F0A3
:1011700043FE3D49486608F091FE0CF0B5F968E081
:101180003A48007868BB384890F8580088B94FF45E
:10119000B870ADF804003020ADF806004C20ADF872
:1011A000080001A800E053E003F034FF2E49C866B0
:1011B00013E02D4890F8580002280ED14FF4B87073
:1011C000ADF804003020ADF806004C20ADF8080062
:1011D00001A803F01FFF2449C86708F05FFE0CF068
:1011E00083F936E021480078B0B91F4890F85800DC
:1011F00070B94FF4B870ADF804004620ADF80600A1
:101200004C20ADF8080001A803F004FF1649086758
:1012100008F044FE0CF068F91BE014480078B0B9FF
:10122000114890F8580070B94FF4B870ADF8040048
:101230005C20ADF806004C20ADF8080001A803F0D2
:10124000E9FE0949486708F029FE0CF04DF900E075
:1012500000BF00BF00E000BF00BF094800781528AC
:101260003FF489AC06B070BD34130020B6000020F6
:10127000B9000020340000200000000058170020B2
:101280005900002010B54FF48061024806F008F8BC
:1012900010BD00000008024010B54FF48061024804
:1012A00006F000F810BD00000008024000BFFEE795
:1012B00010B50446C8213348FEF7ADFF012031497F
:1012C000087008468470A5204870012C05D0022CB7
:1012D00003D0062C01D0072C1BD1601E2A4951F8DF
:1012E0002000000E2749C870601E274951F82000D1
:1012F000000C24490871601E234931F82000000ABF
:1013000020494871601E204911F820001D4988714C
:1013100026E0601E1C4951F820000A21B0FBF1F0C4
:10132000000E1849C870601E174951F820000A21A4
:10133000B0FBF1F0000C13490871601E124951F81E
:1013400020000A21B0FBF1F0000A0E494871601E2E
:101350000D4951F820000A21B0FBF1F009498871CC
:101360000721084805F0C6FF00120649C871072189
:10137000044805F0BFFF03490872092101480EF037
:101380003DFD10BD242200206817002010B501216A
:10139000C80509F00DF900214FF4000009F008F923
:1013A00010BD000001460020034A52680A400AB1FD
:1013B000012000E00020704700B0024070B500211D
:1013C000002200230024344D2D68344E3540324E27
:1013D000356035462D68066835432F4E35603546F5
:1013E0006D6B25F00705756335466D6B46683543B3
:1013F000294E7563456835B9C5682902058A2A04EE
:10140000057D2B0621E04568012D05D1C56829021F
:10141000058A2A04002318E04568022D05D1C56815
:1014200069010569EA0200230FE04568032D06D132
:10143000C56869010569AA024569EB0305E0C5684D
:10144000290105692A0245692B0341EA02058668DC
:1014500035431D43104EB66B35430F4EB56385695A
:10146000F56335462D6C6FF30D05356435462D6CEF
:10147000C6693543084E3564858C2C0435466D6C41
:1014800005F04045756435466D6C066A2643354364
:10149000014E756470BD000000B00240FCE0FCFF2E
:1014A0000348006840F001000149086070470000EF
:1014B00000B002407047000010B586B0044601211C
:1014C000084609F065F80121102009F0B1F807225B
:1014D0000A21214805F0B8FE072209211E4805F01F
:1014E000B3FE00208DF8160001208DF817000220B1
:1014F0008DF814000002049002208DF8150004A954
:10150000154805F059FE02208DF8140040020490A1
:1015100004A9114805F050FE00940020ADF8040025
:10152000ADF80600ADF80800ADF80C000C20ADF8E1
:101530000A00694609480DF07BFB08F018FC0122FF
:1015400040F2255105480DF04DFB012103480DF0F7
:1015500006FB06B010BD0000000002400010014074
:101560007CB504466FF07F40F7490860012C01D13B
:10157000012000E000200090009820B14FF47F008F
:10158000F149486003E04FF05010EF494860EF49DF
:1015900000230722D1F8B800042105F0E9FE122348
:1015A00068221A21582006F08FFA0023E84A1A21EF
:1015B00058200EF0B1FF0023E64A1A21AA200EF0AF
:1015C000ABFF022C01D1012000E000200090009828
:1015D00020B14FF47F00DC49486003E04FF0501029
:1015E000D9494860D94900230722D1F8BC00042119
:1015F00005F0BEFE122368222E21582006F064FA60
:101600000023D34A302158200EF086FF0023D14A10
:101610003021AA200EF080FF032C01D1012000E030
:1016200000200090009820B14FF47F00C649486028
:1016300003E04FF05010C4494860C449002307221A
:10164000D1F8C000042105F093FE12236822462140
:10165000582006F039FA0023BD4A462158200EF0E2
:101660005BFF0023BB4A08324621AA200EF054FF3C
:10167000042C01D1012000E000200090009820B14E
:101680004FF47F00B049486003E04FF05010AE497E
:101690004860AE4900230722D1F8C400042105F0B8
:1016A00067FE12237A225A21582006F00DFA0023F1
:1016B000A74A5C2158200EF02FFF0023A54A0832CC
:1016C0005C21AA200EF028FF052C01D1012000E0AA
:1016D00000200090009820B14FF47F009A494860A4
:1016E00003E04FF0501098494860984900230722C2
:1016F000D1F8C800042105F03BFE12237A227021A4
:10170000582006F0E1F90023914A722158200EF08A
:1017100003FF00238F4A10327221AA200EF0FCFE34
:10172000062C01D1012000E000200090009820B19B
:101730004FF47F008449486003E04FF05010824925
:101740004860824900230722D1F8CC00042105F02B
:101750000FFE12237A228621582006F0B5F90023C5
:101760007B4A882158200EF0D7FE0023794A103298
:101770008821AA200EF0D0FE072C01D1012000E024
:1017800000200090009820B14FF47F006E4948601F
:1017900003E04FF050106C4948606C4890F8D50059
:1017A00008B16D4D00E06D4D12237A2218214FF4DF
:1017B000A97006F089F9654890F8D000C0EBC00028
:1017C000421900231A214FF4A9700EF0A5FE082C2F
:1017D00001D1012000E000200090009820B14FF4DA
:1017E0007F005949486003E04FF050105649486067
:1017F000564890F8D50008B1594D00E0594D1223D4
:101800007A222E214FF4A97006F05EF94F4890F825
:10181000D100C0EBC0004219002330214FF4A97061
:101820000EF07AFE092C01D1012000E0002000908A
:10183000009820B14FF47F004349486003E04FF027
:10184000501041494860414890F8D50008B1424DD8
:1018500000E0424D12237A2244214FF4A97006F091
:1018600033F93A4890F8D200C0EBC0004219002387
:1018700046214FF4A9700EF04FFE0A2C01D1012031
:1018800000E000200090009820B14FF47F002E4926
:10189000486003E04FF050102B4948602B4890F807
:1018A000D50008B12C4D00E02C4D12237A225A218C
:1018B0004FF4A97006F008F9244890F8D300C0EB63
:1018C000C000421900235C214FF4A9700EF024FEE1
:1018D0000B2C01D1012000E000200090009820B1E5
:1018E0004FF47F001849486003E04FF0501016494C
:1018F0004860164890F8D50008B1174D00E0174D24
:1019000012237A2270214FF4A97006F0DDF80F48F7
:1019100090F8D400C0EBC0004219002372214FF4AC
:10192000A9700EF0F9FD072C22D2DFE804F01D04A7
:1019300005060708090000BF00BF00BF00BF00BFC9
:10194000022001F02DFB17E0F400002034130020EA
:1019500038210020C52A0108652901082629010827
:101960004229010834290108042001F019FB03E091
:10197000072001F015FB00BF00BF01F0C7FA0C2CD7
:1019800064D2DFE804F0060A0B0C0D0E0F38103994
:101990003A3B022000F06AFE59E000BF00BF00BFE2
:1019A00000BF00BF53E06FF07F402A4908602A481B
:1019B00048602A4890F8D50008B1294D00E0294D2B
:1019C0000020019013E00199C1EBC1014A1901996E
:1019D000C1EB011303EB4111202303EB410188B25A
:1019E0000023F1210EF098FD0198401C0190019810
:1019F0000228E8D32BE000BF00BF00BF6FF07F409C
:101A00001449086014484860144890F8D50008B19B
:101A1000154D00E0154D0020019013E00199C1EB38
:101A2000C1014A190199C1EB011303EB41112023B4
:101A300003EB410188B20023F1210EF06DFD019806
:101A4000401C019001980228E8D300E000BF00BFCD
:101A50007CBD0000F4000020380031003413002069
:101A600042290108342901086529010826290108AD
:101A70007CB504466FF07F40FC490860012C01D121
:101A8000012000E000200090009820B14FF47F007A
:101A9000F649486003E04FF05010F4494860F448BC
:101AA00090F8F80108B1F34D00E0F34D12236822DD
:101AB0001A21582006F008F8F0480078C0EBC00062
:101AC000421900231A2158200EF026FD022C01D1C4
:101AD000012000E000200090009820B14FF47F002A
:101AE000E249486003E04FF05010E0494860E048A8
:101AF00090F8F80108B1E24D00E0E24D12236822AF
:101B00002E21582005F0E0FFDC4890F82000C0EBC3
:101B1000C00042190023302158200EF0FDFC032C98
:101B200001D1012000E000200090009820B14FF486
:101B30007F00CE49486003E04FF05010CB49486029
:101B4000CB4890F8F80108B1CD4D00E0CD4D1223FF
:101B500068224621582005F0B7FFC84890F82100B8
:101B6000C0EBC00042190023462158200EF0D4FCDF
:101B7000042C01D1012000E000200090009820B149
:101B80004FF47F00B949486003E04FF05010B74967
:101B90004860BA49486A00230722042105F0E8FB9F
:101BA00012237A225A21582005F08EFF0023B64ACC
:101BB0005C2158200EF0B0FC0023B44A5C21AA201E
:101BC0000EF0AAFC052C01D1012000E000200090BD
:101BD000009820B14FF47F00A449486003E04FF023
:101BE0005010A2494860A549886A002307220421B1
:101BF00005F0BEFB12237A227021582005F064FF05
:101C00000023A14A722158200EF086FC00239F4A2F
:101C10007221AA200EF080FC062C01D1012000E0E8
:101C200000200090009820B14FF47F008F49486059
:101C300003E04FF050108D4948609049886C0023B4
:101C40000722042105F094FB12237A2286215820D2
:101C500005F03AFF00238C4A882158200EF05CFCE6
:101C600000238BA28821AA200EF056FC072C01D15C
:101C7000012000E000200090009820B14FF47F0088
:101C80007A49486003E04FF05010784948607B483B
:101C9000006BE0B17949086B00230622194605F074
:101CA00067FB12237A2218214FF4A97005F00CFF6C
:101CB0000023754A1A214FF4A9700EF02DFC002361
:101CC000754A1A214FF4C7700EF026FC0DE012235E
:101CD0007A2218214FF4A97005F0F6FE00236FA2B6
:101CE0001A214FF4A9700EF017FC082C01D1012025
:101CF00000E000200090009820B14FF47F005B4985
:101D0000486003E04FF0501058494860584890F838
:101D1000F80108B1634D00E0634D5849486B00235A
:101D20000722042105F024FB12237A222E214FF4EE
:101D3000A97005F0C9FE0023534A30214FF4A97061
:101D40000EF0EAFB0023514A083230214FF4D270E2
:101D50000EF0E2FB092C01D1012000E000200090F0
:101D6000009820B14FF47F004049486003E04FF0F5
:101D700050103E4948604149886B002307220421E6
:101D800005F0F6FA12237A2244214FF4A97005F0E7
:101D90009BFE00233C4A46214FF4A9700EF0BCFB89
:101DA00000233A4A46214FF4D2700EF0B5FB0A2CBC
:101DB00001D1012000E000200090009820B14FF4F4
:101DC0007F002A49486003E04FF0501027494860DF
:101DD0002A49C86B00230722042105F0C9FA1223FF
:101DE0007A225A214FF4A97005F06EFE0023264A8C
:101DF0005C214FF4A9700EF08FFB0023234A1032B0
:101E00005C214FF4D2700EF087FB0B2C01D1012026
:101E100000E000200090009820B14FF47F001349AB
:101E2000486003E04FF05010104948601349086CB7
:101E300000230522042105F09BFA12237A22702147
:101E40004FF4A97005F040FE00230F4A72214FF4B1
:101E5000A9700EF061FB002314A272214FF4D2701E
:101E60000EF05AFB0C2C25D1012024E0F4000020B8
:101E700018150020652901082629010834130020BF
:101E8000812901087329010838210020C52A010889
:101E900020562F6D730000004B230108B9D8B1D52F
:101EA00000000000CB2901088F29010820412F6D77
:101EB0007300000000200090009820B14FF47F00D4
:101EC0006E49486003E04FF050106C4948606C491F
:101ED000486C00230522042105F04AFA12237A22D5
:101EE00086214FF4A97005F0EFFD0023654A882193
:101EF0004FF4A9700EF010FB0023AFF250028821BE
:101F00004FF4D2700EF008FB0D2C1AD2DFE804F06B
:101F100019121314070809150A0B0C0D0E0000BF47
:101F200000BF00BF00BF00BF00BF00BF022001F024
:101F300037F80AE000BF00BF00BF072001F030F80B
:101F400003E0042001F02CF800BF00BF00F0DEFF2A
:101F50000D2C7CD2DFE804F0070B335B8586878885
:101F6000898A8B8C8D00022000F080FB83E06FF06B
:101F70007F404249086044484860444890F8F8016E
:101F800008B1434D00E0434D0020019013E001995A
:101F9000C1EBC1014A190199C1EB011303EB4111D6
:101FA000202303EB410188B20023F1210EF0B4FAA3
:101FB0000198401C019001980228E8D35BE06FF083
:101FC0007F402E49086030484860304890F8F8015A
:101FD00008B1314D00E0314D0020019013E001992E
:101FE000C1EBC1014A190199C1EB011303EB411186
:101FF000202303EB410188B20023F1210EF08CFA7B
:102000000198401C019001980228E8D333E06FF05A
:102010007F401A4908601C4848601C4890F8F80145
:1020200008B11D4D00E01D4D0020019015E0019903
:10203000C1EBC1014A190199C1EB011303EB411135
:10204000202303EB410188B20023F12100E011E0DD
:102050000EF062FA0198401C019001980228E6D324
:1020600009E000BF00BF00BF00BF00BF00BF00BF4E
:1020700000BF00E000BF00BF7CBD0000F4000020F6
:1020800034130020382100203800310018150020BA
:1020900065290108262901088129010873290108F9
:1020A00010B503F0A9FD00F031FF02F0A7F910BD53
:1020B0007CB50446F74890F8580000287ED1012CE2
:1020C00001D1012000E000200090009820B14FF4E1
:1020D0007F00F149486003E04FF05010EE4948603E
:1020E00014235C221821762005F0EEFC6FF07F406F
:1020F000E9490860E74890F85800C0EBC000E7499C
:10210000421800231A2176200EF006FA022C01D183
:10211000012000E000200090009820B14FF47F00E3
:10212000DD49486003E04FF05010DB49486014235C
:102130005C222E21762005F0C7FC6FF07F40D64947
:102140000860D449C86D00230722042105F010F966
:102150000023D34A302176200EF0DEF90023D14A45
:102160003021C8200EF0D8F9032C01D1012000E065
:1021700000200090009820B14FF47F00C6494860CD
:1021800003E04FF05010C449486014235C224421FE
:10219000762005F099FC6FF07F40BF490860BD498B
:1021A000086E00230722042105F0E2F80023BC4A50
:1021B000462176200EF0B0F9002300E0D3E0B94AC2
:1021C0004621C8200EF0A8F9042C01D1012000E01E
:1021D00000200090009820B14FF47F00AE49486085
:1021E00003E04FF05010AC49486014235C225A21A0
:1021F000762005F069FC6FF07F40A7490860A5498B
:10220000486E00230722042105F0B2F80023A44AF7
:102210005C2176200EF080F90023A24A5C21C820C0
:102220000EF07AF9062C01D1012000E00020009088
:10223000009820B14FF47F009749486003E04FF0C9
:1022400050109549486014235C222E21C80005F0E7
:102250003BFC6FF07F40904908608E49C86E0023B8
:102260000722042105F084F800238D4A30214FF421
:10227000B8700EF051F900238A4A921D30214FF4B4
:10228000E1700EF049F9072C01D1012000E0002097
:102290000090009820B14FF47F007F49486003E030
:1022A0004FF050107C49486014235C224421900078
:1022B00005F00AFC6FF07F40774908607549086FA8
:1022C00000230722042105F053F80023744A462115
:1022D0004FF4B8700EF020F90023724A921D462187
:1022E0004FF4E1700EF018F9082C01D1012000E044
:1022F00000200090009820B14FF47F0066494860AC
:1023000003E04FF050106449486014235C225A21C6
:10231000900005F0D9FB6FF07F405F4908605D4990
:10232000486F00230722042105F022F800235C4AAD
:102330005C2188000EF0F0F800235A4A921D5C21BF
:102340004FF4E1700EF0E8F8012C03D1062000F004
:1023500027FEACE01CB9032000F022FEA7E001201C
:1023600000F01EFEA3E04B4890F858000228F0D180
:10237000012C01D1012000E000200090009820B144
:102380004FF47F004449486003E04FF05010424949
:10239000486014235C221821762005F095FB6FF02D
:1023A0007F403D4908603B4890F85800C0EBC000B2
:1023B0003A49421800231A2176200EF0ADF8022C7B
:1023C00001D1012000E000200090009820B14FF4DE
:1023D0007F003149486003E04FF050102E494860BB
:1023E000142368222E21762005F06EFB6FF07F40CB
:1023F000294908602749886F00230722042104F037
:10240000B7FF0023264A302176200EF085F80023FE
:10241000244A0C323021C8200EF07EF8062C01D15F
:10242000012000E000200090009820B14FF47F00D0
:102430001949486003E04FF05010174948601423D1
:102440005C222E21C80005F03FFB6FF07F4012494F
:1024500008601049C86F00230722042104F088FF98
:1024600000230F4A30214FF4B8700EF055F80023C6
:102470000C4A921D30214FF4E1700EF04DF8012C02
:1024800003D1062000F08CFD11E06CB9032000F0B0
:1024900087FD0CE034130020F4000020A12801087F
:1024A0003821002033230108012000F079FD092C98
:1024B0003CD2DFE804F005093334353B36373800C9
:1024C000002000F0D3F832E000F020FD6FF07F40F4
:1024D0001849086018484860184890F8F80108B191
:1024E000174D00E0174D0020019013E00199C1EB5A
:1024F000C1014A190199C1EB011303EB41112023DA
:1025000003EB410188B20023F1210EF005F8019898
:10251000401C019001980228E8D308E000BF00BFEA
:1025200000BF00BF00BF00F0F1FC00E000BF00BF33
:102530007CBD0000F4000020380031001815002098
:1025400015280108312801082DE9F0410746FFF759
:10255000A7FD6FF07F403A4908603A4848603A4822
:1025600090F8F80108B1394E00E0394E002306F129
:102570002C02042118460DF0CFFF6FF07F40304948
:1025800008604FF050104860324890F8580030BB57
:10259000314D002420E0042C0ED205EB041204EB94
:1025A000440000EBC4001A2303EB400081B2002377
:1025B00018460DF0B1FF0EE005EB0412201F00EBF2
:1025C000400303EBC0001A2303EB400081B2002359
:1025D000FA200DF0A1FF641C082CDCD32AE01D4872
:1025E00090F85800022825D11C4D002420E0042C2E
:1025F0000ED205EB041204EB440000EBC4001A23D6
:1026000003EB400081B2002318460DF085FF0EE079
:1026100005EB0412201F00EB400303EBC0001A235C
:1026200003EB400081B20023FA200DF075FF641C1B
:10263000082CDCD317B9002000F018F8BDE8F081B1
:10264000F40000200352F30018150020D1240108E3
:10265000DF23010834130020B321010833220108CD
:1026600010B5022000F002F810BD000010B50446BD
:1026700000F04CFC002C7CD16FF07F408649086054
:1026800086484860864890F8F801002840D000232A
:1026900084A2E7211C200DF03FFF002383A2FB2131
:1026A0001C200DF039FF002382A2E7217E200DF0CF
:1026B00033FF002380A2FB217E200DF02DFF00239D
:1026C0007FA2E721DC200DF027FF00237AA2FB2167
:1026D000DC200DF021FF00237BA2E7214FF49D7049
:1026E0000DF01AFF002374A2FB214FF49D700DF032
:1026F00013FF002376A2E7214FF4CC700DF00CFFFE
:10270000002375A2FB214FF4CC700DF005FFC2E051
:10271000002372A2E7211C200DF0FEFE002371A20F
:10272000FB211C200DF0F8FE002370A2E7217E2083
:102730000DF0F2FE00236FA2FB217E200DF0ECFED7
:1027400000236EA2E721DC200DF0E6FE002369A243
:10275000FB21DC200DF0E0FE00236AA2E7214FF40C
:102760009D700DF0D9FE002362A2FB214FF49D70F5
:1027700000E010E00DF0D0FE002364A2E7214FF44A
:10278000CC700DF0C9FE002362A2FB214FF4CC7087
:102790000DF0C2FE7FE0012C2CD16FF07F403E494E
:1027A00008603E48486000235CA2E72166200DF0E7
:1027B000B3FE00235BA2FB2166200DF0ADFE0023DB
:1027C0005AA2E721B6200DF0A7FE002359A2FB2153
:1027D000B6200DF0A1FE002358A2E7214FF4D370DC
:1027E0000DF09AFE002357A2FB214FF4D3700DF099
:1027F00093FE50E0022C4ED1294890F8F80130B3F6
:10280000002328A2E7217E200DF086FE002327A2C8
:10281000FB217E200DF080FE002322A2E721DC2098
:102820000DF07AFE002349A2FB21DC200DF074FE9E
:10283000002348A2E7214FF49D700DF06DFE0023A8
:1028400042A2FB214FF49D700DF066FE23E00023B1
:1028500022A2E7211C200DF05FFE002321A2FB2114
:102860001C200DF059FE00231CA2E7217E200DF054
:1028700053FE002327A2FB217E200DF04DFE0023F6
:1028800036A2E721DC200DF047FE002321A2FB2128
:10289000DC200DF041FE10BDF400002038003100B6
:1028A000181500204D454153000000004449535085
:1028B0000000000042415400544553540000000001
:1028C0002044594E410000004C4953540000000080
:1028D0004C494D495400000053455400B2E2C1BF79
:1028E00000000000CFD4CABE00000000B5E7B3D896
:1028F00000000000B2E2CAD400000000B6AFCCACC9
:1029000000000000C1D0B1ED00000000BCABCFDE84
:1029100000000000C9E8D6C300000000CEC4BCFE21
:1029200000000000B9DCC0ED00000000B1A3B4E677
:1029300000000000CAFDBEDD00000000B8FCB6E0EB
:102940000000000020322F32000000005345545593
:10295000500000002053595300000000CFB5CDB304
:102960000000000011B581B00020009030E09DF81B
:1029700004100098401C814204D14FF47F002A4982
:10298000486003E04FF0501027494860009800EB82
:10299000800080001A3081B214235A22A02005F052
:1029A00093F82249009A51F82200002307220421BB
:1029B00004F0DEFC009800EB800080001A3081B249
:1029C00001231B4AA0200DF0A7FD0098401C009099
:1029D00000980A28CBD34FF050101349486000F0FC
:1029E00095FA6FF07F401049086012484860124C19
:1029F0000220009013E00099C1EBC1010A1900996F
:102A0000C1EB011303EB4111202303EB410188B219
:102A10000023F1210DF080FD0098401C00900098EB
:102A20000528E8D31CBD0000F40000206817002032
:102A30003821002038003100462801087CB50446C2
:102A4000012C00D100E000200090009820B14FF44C
:102A50007F00E649486003E04FF05010E3494860CA
:102A600014235C221821762005F02EF86FF07F40A9
:102A7000DE490860DE4890F88000C0EBC000DD4908
:102A8000421800231A2176200DF046FD022C01D1B8
:102A9000012000E000200090009820B14FF47F005A
:102AA000D249486003E04FF05010D04948601423E9
:102AB0005C222E21762005F007F86FF07F40CB498D
:102AC0000860CB49D1F8840000230722042104F0D8
:102AD0004FFC0023C84A302176200DF01DFD002355
:102AE000C64A3021C8200DF017FD032C01D101206A
:102AF00000E000200090009820B14FF47F00BB4917
:102B0000486003E04FF05010B849486014235C223D
:102B10004421762004F0D8FF6FF07F40B34908606D
:102B2000B349D1F8880000230722042104F020FCD7
:102B30000023B14A462176200DF0EEFC0023AF4A77
:102B40004621C8200DF0E8FC042C01D1012000E052
:102B500000200090009820B14FF47F00A349486006
:102B600003E04FF05010A1494860142364225A2119
:102B7000762004F0A9FF6FF07F409C4908609C49D3
:102B8000D1F8940000230522042104F0F1FB002376
:102B9000994A5C2176200DF0BFFC0023974A1E3233
:102BA0005C21B2200DF0B8FC052C01D1012000E021
:102BB00000200090009820B14FF47F008B494860BE
:102BC00003E04FF050108949486014235C2218211B
:102BD000900004F079FF6FF07F40844908608448DA
:102BE00090F89000C0EBC0008549421800231A21DC
:102BF0004FF4B8700DF090FC062C01D1012000E0DC
:102C000000200090009820B14FF47F007749486081
:102C100003E04FF0501075494860142370222E21B4
:102C2000C80004F051FF6FF07F40704908607049A0
:102C3000D1F88C0000230822012104F099FB002325
:102C40006D4A30214FF4B8700DF066FC00236B4ADA
:102C50002A3230214FF4E5700DF05EFC072C01D1D3
:102C6000012000E000200090009820B14FF47F0088
:102C70005E49486003E04FF050105C4948601423FF
:102C8000702244214FF4B87004F01EFF6FF07F40B3
:102C9000564908605649D1F89C00002308220121BA
:102CA00004F066FB0023544A46214FF4B8700DF03F
:102CB00033FC0023514A2A3246214FF4E5700DF0CF
:102CC0002BFC082C01D1012000E00020009000988E
:102CD00020B14FF47F004549486003E04FF05010A9
:102CE00042494860142364225A214FF4B87004F01A
:102CF000EBFE6FF07F403D4908603D49D1F89800F8
:102D000000230522042104F033FB00233A4A5C210E
:102D100088000DF001FC0023384A1E325C214FF47C
:102D2000D6700DF0F9FB24B1012C06D0052C58D13A
:102D30002DE00020FFF79AFC56E000F0E7F86FF076
:102D40007F402A4908602F4848602F4890F8F801D2
:102D500008B12E4D00E0274D0020019013E00199AD
:102D6000C1EBC1014A190199C1EB011303EB4111F8
:102D7000202303EB410188B20023F1210DF0CCFBAD
:102D80000198401C019001980228E8D32CE000F043
:102D9000BDF86FF07F40154908601A4848601A482E
:102DA00090F8F80108B1164D00E0154D0020019093
:102DB00013E00199C1EBC1014A190199C1EB01135B
:102DC00003EB4111202303EB410188B20023F121E1
:102DD0000DF0A2FB0198401C019001980328E8D354
:102DE00002E000F093F800BF00BF7CBDF4000020BB
:102DF000341300202629010838210020332301083C
:102E000050290108380031001815002065290108F3
:102E100070B5FFF745F96FF07F4021490860214800
:102E20004860214890F8F80108B1204E00E0204E9B
:102E3000002306F14202042118460DF06DFB6FF0ED
:102E40007F40174908604FF050104860194D00242A
:102E500020E0042C0ED205EB041204EB440000EB3E
:102E6000C4001A2303EB400081B2002318460DF082
:102E700053FB0EE005EB0412201F00EB400303EBB5
:102E8000C0001A2303EB400081B20023FA200DF0AA
:102E900043FB641C082CDCD30020FFF7E7FB70BD6C
:102EA000F40000200352F30018150020D12401087B
:102EB000DF230108B32201082DE9F84105468846C1
:102EC000144600261CE0207800B91AE0207820384B
:102ED00000EB8000C00000EB8000C700F81707EB94
:102EE0005070094901EBE000A919009088B228232D
:102EF0001A46414605F0DCF9641C06F11C0086B256
:102F0000E1E700BFBDE8F881889B070810B5002401
:102F10003CE0204820494860A1000A31C4EB04127B
:102F200002EB420201EB420188B22B235A22E42138
:102F300004F0CAFD1948184948605E2204FB02F1FA
:102F40000B3188B201235A22E32104F0BDFDC4EB0A
:102F5000041101EB4411642202EB410188B22C23DD
:102F60000122E32104F0B0FD00200B494860C4EBCE
:102F7000041101EB4411642202EB4101491C88B2A7
:102F80002C230322E32104F09FFD641C052CC0D3F5
:102F900010BD000038003100F400002068436900D3
:102FA00010B50446012C0DD13548364948604FF420
:102FB0007F000860002334A2CD214FF49B700DF0F8
:102FC000ABFA5CE0022C0ED14FF050102D49486056
:102FD0004FF47F00086000232BA2CD214FF49B709B
:102FE0000DF09AFA4BE0032C0AD125482549486098
:102FF00014239622CD214FF49B7004F065FD3EE032
:10300000042C0BD14FF050101E4948601423962217
:10301000CD214FF49B7004F057FD30E0052C0ED10C
:103020004FF05010174948604FF47F0008600023AC
:103030001AA2CD214FF49B700DF06EFA1FE0062C02
:103040000DD10F480F4948604FF47F0008600023FE
:1030500017A2CD214FF49B700DF05EFA0FE0072C04
:103060000DD14FF05010074948604FF47F000860C1
:1030700000230FA2CD214FF49B700DF04DFA10BD2F
:1030800065343400F4000020C7EBD3C3CAFDD7D6A3
:10309000BCFCC5CCCAE4C8EB00000000B0B4CFC291
:1030A000D0FDC5A5C7D0BBBBB2BDD6E800000000AF
:1030B000B0B4CFC2D0FDC5A5BFECCBD9D1A1D4F15E
:1030C0000000000070B502F015FB6FF07F4023494F
:1030D000086023484860234890F8F80108B1224E60
:1030E00000E0224E002306F11602042118460DF0DE
:1030F00013FA6FF07F40194908604FF05010486094
:103100001B4D002424E0022C10D204EB840005EBBC
:10311000400204EB440000EBC4001A2303EB400020
:1031200081B2002318460DF0F7F910E004EB84009B
:1031300005EB4002A01E00EB400303EBC0001A2386
:1031400003EB400081B20023FA200DF0E5F9641C86
:10315000032CD8D30020FFF789FA70BDF4000020BB
:103160000352F30018150020D1240108DF230108C1
:10317000952101087CB50546012D00D100E0002015
:103180000090009820B14FF47F006849486003E048
:103190004FF050106549486014235C2218215820D4
:1031A00004F092FC6FF07F40604908606049C86C91
:1031B00000230522032104F0DBF800235D4A1A21D5
:1031C00058200DF0A9F9022D01D1012000E00020C6
:1031D0000090009820B14FF47F005449486003E00C
:1031E0004FF05010514948601423682218214FF4C1
:1031F000A97004F069FC6FF07F404C4908604C49AD
:10320000486D00230522032104F0B2F80023494A47
:103210001A214FF4A9700DF07FF9032D01D101207F
:1032200000E000200090009820B14FF47F003F495B
:10323000486003E04FF050103C49486014235C2282
:103240002E21582004F040FC6FF07F403749086081
:103250003749086D00230522032104F089F8002373
:10326000344A302158200DF057F925B1012D06D0F0
:10327000022D58D12DE00020FFF7F8F954E0FFF7B8
:1032800045FE6FF07F40294908602B4848602B4875
:1032900090F8F80108B12A4C00E02A4C0020019077
:1032A00013E00199C1EBC1010A190199C1EB0113A6
:1032B00003EB4111202303EB410188B20023F121EC
:1032C0000DF02AF90198401C019001980528E8D3D7
:1032D0002AE0FFF71BFE6FF07F4014490860164894
:1032E0004860164890F8F80108B1174C00E0174CF8
:1032F0000020019013E00199C1EBC1010A19019965
:10330000C1EB011303EB4111202303EB410188B210
:103310000023F1210DF000F90198401C0190019863
:103320000028E8D000E000BF00BF7CBDF400002012
:1033300034130020382100203800310018150020F7
:10334000152801085D2701080E2A0108072A01082F
:1033500070B502F0D7F96FF07F402C4908602C4817
:1033600048602C4890F8F80108B12B4E00E02B4E35
:10337000002306F18402042118460DF0CDF86FF009
:103380007F40224908604FF050104860214890F873
:10339000F80108B1224D00E0214D00242FE0062C59
:1033A00011D24FF050101949486004EB840005EB2E
:1033B0004002162304FB03F01A3081B200231846A2
:1033C0000DF0AAF81AE0A01F022806D9082804D296
:1033D0004FF050100D49486003E04FF050100B497A
:1033E000486004EB840005EB4002A01F16235843FD
:1033F0001A3081B20023FA200DF08EF8641C0B2CD9
:10340000CDD30220FFF732F970BD0000F400002098
:103410000352F30018150020D1240108DF2301080E
:103420003B26010810B502F0E7FBFFF76FFD10BD6A
:1034300030B595B0054602F0B7FC01222946684632
:1034400000F0ECFF6C469DF800008DF83800019804
:103450000F9002981090039811900498129005987C
:103460001390069814900F984FF47A71B0FBF1F016
:103470000F900B9818B90020099008900A900F98A7
:1034800015B030BD70B5FFF7CDFF6FF07F403D49FF
:1034900008603D4848603D4890F8F80108B13C4D4F
:1034A00000E03C4D002305F16E02042118460DF0AA
:1034B00033F86FF07F40334908604FF05010486098
:1034C000002459E0032C2AD2334890F8D500012873
:1034D00010D1C4EB0410314BC21804EB440000EBD4
:1034E000C4001A2303EB400081B2002318460DF0FC
:1034F00013F840E0284890F8D50030BBC4EB041026
:10350000274BC21804EB440000EBC4001A2303EB62
:10351000400081B2002318460CF0FEFF2BE01E484D
:1035200090F8D500012811D1C4EB04101B4BC21830
:10353000E01E00EB400303EBC0001A2303EB400046
:1035400081B20023FA200CF0E7FF14E0124890F853
:10355000D50080B9C4EB0410114BC218E01E00EB7B
:10356000400303EBC0001A2303EB400081B20023A9
:10357000FA200CF0D1FF641C052CA3D30020FFF728
:1035800075F870BDF40000200352F30018150020F8
:10359000D1240108DF23010834130020D9270108B2
:1035A0008E27010810B59B489B4908604FF05010CA
:1035B00048609A4890F8D500F0B9002398A25E219F
:1035C0004FF496700CF0A8FF002396A25E214FF4F2
:1035D000AF700CF0A1FF944991F84110481C0023F2
:1035E0000222194603F0C4FE0023904A5E214FF4E4
:1035F000A1700CF091FF1BE0884890F8D5000128DD
:1036000016D100238AA25E214FF496700CF084FF3D
:10361000854991F84110481C00230222194603F005
:10362000A7FE0023814A5E214FF4A9700CF074FFBD
:103630007A4890F8D500E0B900237FA272214FF4B8
:1036400096700CF069FF00237DA288214FF49670DC
:103650000CF062FF00237CA29E214FF496700CF0C8
:103660005BFF00237AA2B4214FF496700CF054FF54
:1036700020E06A4890F8D50001281BD1002376A2EB
:1036800072214FF496700CF047FF002373A288213B
:103690004FF496700CF040FF002371A29E214FF46E
:1036A00096700CF039FF00236EA2B4214FF496708F
:1036B0000CF032FF594890F8210038BB5A48006896
:1036C000642806D2002307220421184603F050FE86
:1036D00006E05549002307220868042103F048FE4C
:1036E0005149002307220868042103F041FE00230A
:1036F0004E4A72214FF4B4700CF00EFF002356A214
:1037000072214FF4DC700CF007FF24E0434890F87E
:10371000210001281FD144480068642806D20023F4
:1037200006220321184603F023FE06E03E4900234B
:1037300006220868032103F01BFE00233B4A722186
:103740004FF4B4700CF0E8FE002343A272214FF452
:10375000DC700CF0E1FE314890F82000A8B9324945
:10376000002307224868042103F002FE00232F4AA9
:1037700088214FF4B4700CF0CFFE00233BA28821C7
:103780004FF4DC700CF0C8FE19E0244890F82000DB
:10379000012814D12449002306224868032103F09C
:1037A000E7FD0023214A88214FF4B4700CF0B4FEE9
:1037B00000232EA288214FF4DC700CF0ADFE1A49D4
:1037C00000230722C868032103F0D2FD0023174A13
:1037D0009E214FF4B4700CF09FFE002324A29E2182
:1037E0004FF4DC700CF098FE0F4900230422486C63
:1037F000012103F0BDFD00230C4AB42148000CF068
:103800008BFE00231BA2B4214FF4DC700CF084FE6D
:1038100010BD000000FFFF00F40000203413002062
:10382000B5DA0000B2BD0000581700203821002092
:103830005374657000000000B5E7D1B900000000C6
:10384000B5E7C1F700000000B9A6C2CA0000000039
:10385000CAB1BCE4000000005600000049000000AE
:103860005000000054494D45000000004100000098
:1038700057000000730000002DE9F0410546012DBE
:1038800000D100E00020074627B14FF47F00FC493B
:10389000486003E04FF05010F949486014235C225F
:1038A0001821762004F010F96FF07F40F449086089
:1038B000F44991F8D60000230322194603F058FD7D
:1038C0000023F14A1A2176200CF026FE022D01D1A8
:1038D000012000E00020074627B14FF47F00E849AF
:1038E000486003E04FF05010E549486014235C2223
:1038F0002E21762004F0E8F86FF07F40E049086060
:10390000E04890F8D700C0EBC000E049421800231F
:10391000302176200CF000FE042D01D1012000E0C2
:103920000020074627B14FF47F00D549486003E0E7
:103930004FF05010D249486014235C2218219000A7
:1039400004F0C2F86FF07F40CD490860CD4890F890
:10395000D900C0EBC000CE49421800231A214FF411
:10396000B8700CF0D9FD052D01D1012000E0002038
:10397000074627B14FF47F00C149486003E04FF08C
:103980005010BF49486014235C222E21C80004F067
:103990009BF86FF07F40BA490860BA49D1F8DC0063
:1039A00000230722042103F0E3FC0023B64A302160
:1039B0004FF4B8700CF0B0FD0023B64A30214FF43C
:1039C000E1700CF0A9FD062D01D1012000E00020DE
:1039D000074627B14FF47F00A949486003E04FF044
:1039E0005010A7494860102350225E21002004F0A7
:1039F0006BF86FF07F40A2490860A24890F8D500AC
:103A0000D8B90023A4A25E2118460CF085FD00233E
:103A1000A2A25E2132200CF07FFDA14991F8401056
:103A2000481C00230222194603F0A2FC0023964AF8
:103A30005E2116200CF070FD19E0924890F8D50038
:103A4000012814D1002397A25E2118460CF064FDD2
:103A5000934991F84010481C00230222194603F0B4
:103A600087FC0023884A5E2126200CF055FD072D97
:103A700001D1012000E00020074627B14FF47F006C
:103A80007F49486003E04FF050107D4948601023A3
:103A900050225E21642004F017F87A4890F8D5008F
:103AA00078B97F4890F840107648E030405CC0EB31
:103AB000C0007E49421800235E2164200CF02CFDDA
:103AC00013E0704890F8D50001280ED1744890F8A2
:103AD00040106C48E030405CC0EBC00074494218B4
:103AE00000235E2164200CF017FD4FF05010644954
:103AF00048606B4890F840106248E030405C042811
:103B00007DD0604890F8D500F0B9002369A27221F9
:103B100018460CF001FD002369A2882118460CF01C
:103B2000FBFC002368A29E2118460CF0F5FC002344
:103B300068A2B42118460CF0EFFC002367A2CA214A
:103B400018460CF0E9FC22E04E4890F8D500012818
:103B50001DD1002363A2722118460CF0DDFC002366
:103B600062A2882118460CF0D7FC002361A28821AC
:103B700018460CF0D1FC002360A2882118460CF0F6
:103B8000CBFC00235FA2882118460CF0C5FC122351
:103B900014227021C82003F097FF12231422B221AF
:103BA000C82003F091FF12231422C821084603F015
:103BB0008BFF3B4890F840103248E030405C00EB0F
:103BC00040003449891F01EB400200237221C820C4
:103BD0000CF0A2FC324890F840104B48405C00EBDF
:103BE00040004A4901EB40020023B421C8200CF0F8
:103BF00093FC2B4890F840104348405C00E032E1D1
:103C000000EB4000414901EB40020023CA21C820DB
:103C10000CF082FC00233EA28821C8200CF07CFC22
:103C2000082D01D1012000E00020074627B14FF404
:103C30007F001349486003E04FF05010104948607E
:103C400014235C227021642003F03EFF6FF07F405C
:103C50000B490860124991F840202B495A3951F814
:103C6000220000230722042103F082FB0023064ADE
:103C7000722164200CF050FC092D4BD101204AE048
:103C8000F400002034130020382100200A2E0108FF
:103C90003429010839230108B5DA0000B2BD00005B
:103CA000581700205374657000000000262E01088C
:103CB0006C2E0108B8BAD4D8B4F3D0A1000000002B
:103CC000CAB1BCE400000000B1C8BDCFC0E0D0CD97
:103CD00000000000C9CFCFDE00000000CFC2CFDE61
:103CE000000000004C4F41440000000054696D6525
:103CF00000000000436F6D700000000048696768B5
:103D0000000000004C6F77007E1400206323010840
:103D1000730000000020074627B14FF47F00FA49E6
:103D2000486003E04FF05010F749486014235C22CC
:103D30008621642003F0C8FE6FF07F40F2490860DE
:103D4000F24991F84020F24931F812000023042290
:103D5000012103F00DFB0023EE4A882164200CF0C2
:103D6000DBFB0A2D01D1012000E00020074627B12E
:103D70004FF47F00E449486003E04FF05010E249FF
:103D8000486014235C229C21642003F09DFE6FF0A8
:103D90007F40DD490860DD4890F84010DC481E3067
:103DA000405CC0EBC000DC49421800239E21642027
:103DB0000CF0B2FB0B2D01D1012000E000200746E2
:103DC00027B14FF47F00D049486003E04FF0501016
:103DD000CD49486014235C22B221642003F074FEB4
:103DE0006FF07F40C8490860C84991F84020C84931
:103DF000303151F8220000230722042103F0B8FAE1
:103E00000023C44AB42164200CF086FB0C2D01D1A0
:103E1000012000E00020074627B14FF47F00BA4997
:103E2000486003E04FF05010B749486014235C220B
:103E3000C821642003F048FE6FF07F40B24908605B
:103E4000B24991F84020B2496C3151F82200002368
:103E50000722042103F08CFA0023AE4ACA21642011
:103E60000CF05AFB7BE1A94890F84010A8484C3868
:103E7000405C0428F6D1A94890F8D50018BB00236F
:103E8000AFF2D012722118460CF046FB0023AFF2BD
:103E9000D012882118460CF03FFB0023AFF2D81255
:103EA0009E2118460CF038FB0023AFF2D812B42143
:103EB00018460CF031FB0023AFF2E012CA2118467D
:103EC0000CF02AFB27E0954890F8D500012822D174
:103ED0000023AFF2F012722118460CF01DFB0023F4
:103EE000AFF2F812882118460CF016FB0023AFF24F
:103EF000FC12882118460CF00FFB0023AFF20422BD
:103F0000882118460CF008FB0023AFF20822882114
:103F100018460CF001FB122314227021C82003F074
:103F2000D3FD12231422B221C82003F0CDFD1223A9
:103F30001422C821084603F0C7FD0023AFF2302247
:103F40008821C8200CF0E8FA072D01D1012000E0FB
:103F50000020074627B14FF47F006B49486003E01B
:103F60004FF0501068494860684991F8402068490E
:103F70003C3951F8220000230722042103F0F8F90C
:103F800014235C227021642003F09EFD0023614A0B
:103F9000722164200CF0C0FA082D01D1012000E04C
:103FA0000020074627B14FF47F005749486003E0DF
:103FB0004FF050105449486014235C227021642053
:103FC00003F082FD6FF07F404F4908604F4991F840
:103FD00040204F493C3951F8220000230722042198
:103FE00003F0C6F900234B4A722164200CF094FAC6
:103FF000092D01D1012000E00020074627B14FF430
:104000007F004149486003E04FF050103E4948604E
:1040100014235C228621642003F056FD6FF07F405C
:1040200039490860394991F84020394931F812007E
:1040300000230422012103F09BF90023354A882143
:1040400064200CF069FA0A2D01D1012000E0002063
:10405000074627B14FF47F002B49486003E04FF03B
:1040600050102949486014235C229C21642003F0ED
:104070002BFD6FF07F4024490860244890F84010E1
:1040800023481E30405CC0EBC00023494218002387
:104090009E2164200CF040FA0B2D01D1012000E09C
:1040A0000020074627B14FF47F001749486003E01E
:1040B0004FF050101449486014235C22B221642050
:1040C00003F002FD6FF07F400F4908600F4991F83F
:1040D00040200F49303151F82200002307220421EB
:1040E00003F046F900230B4AB42164200CF014FAC3
:1040F0000C2D01D1012000E00020074687B14FF4CC
:104100007F00014948600FE0F400002058170020AC
:1041100060140020382100208F2E01083413002065
:104120004FF050109A49486014235C22C821642043
:1041300003F0CAFC6FF07F4095490860954991F8FB
:104140004020954951F8220000230722042103F062
:104150000FF90023914ACA2164200CF0DDF90D2DDE
:104160001CD2DFE805F01B07141B15081016090AFE
:10417000170B0C0000BF00BF00BF00BF00BF022034
:10418000FEF70EFF0EE00520FEF70AFF0AE000BF73
:1041900000BF00BF0720FEF703FF03E00420FEF787
:1041A000FFFE00BF00BFFEF7B1FE7D48007800288B
:1041B00079D10B2D78D2DFE805F006C00A2E52C067
:1041C000C078C0C09C000020FEF750FAB6E0FEF7B1
:1041D0009DFE6FF07F406E490860724848607248EB
:1041E00090F8F80108B1714E00E0714E00240FE024
:1041F000C4EBC4018A19C4EB041101EB4411202360
:1042000003EB410188B20023F1210CF085F9641C15
:10421000022CEDD392E0FEF779FE6FF07F405C490F
:10422000086060484860604890F8F80108B1614E45
:1042300000E0614E00240FE0C4EBC4018A19C4EB16
:10424000041101EB4411202303EB410188B2002348
:10425000F1210CF061F9641C022CEDD36EE0FEF745
:1042600055FE6FF07F404A4908604E4848604E480E
:1042700090F8F80108B1514E00E0514E00240FE0D3
:10428000C4EBC4018A19C4EB041101EB44112023CF
:1042900003EB410188B20023F1210CF03DF9641CCD
:1042A000022CEDD34AE04AE047E0FEF72FFE6FF024
:1042B0007F40374908603B4848603B4890F8F80128
:1042C00008B1404E00E0404E00240FE0C4EBC401B2
:1042D0008A19C4EB041101EB4411202303EB4101C3
:1042E00088B20023F1210CF017F9641C052CEDD3E2
:1042F00024E0FEF70BFE6FF07F4025490860294857
:104300004860294890F8F80108B1304E00E0304E7E
:1043100000240FE0C4EBC4018A19C4EB041101EBC3
:104320004411202303EB410188B20023F1210CF05A
:10433000F3F8641C042CEDD300E000BF26E018481D
:104340000078012822D1FEF7E1FD6FF07F4010498F
:10435000086014484860144890F8F80108B11D4EF0
:1043600000E01D4E00240FE0C4EBC4018A19C4EB29
:10437000041101EB4411202303EB410188B2002317
:10438000F1210CF0C9F8641C052CEDD3BDE8F081D7
:10439000F400002058170020CC1400203821002001
:1043A000330000203800310018150020182E0108B5
:1043B0000A2E010865290108262901084229010859
:1043C000342901086C2E0108262E0108F12E01085F
:1043D0008F2E0108CE2E0108AB2E010810B505481E
:1043E00005494860962340F2DF124C21002003F07B
:1043F0006BFB10BD65343400F400002010B5054897
:1044000005494860742340F2DF126E21002003F05A
:104410005BFB10BD65343400F40000202DE9F04151
:1044200092B005460E46174601201190F9480078D3
:104430000D9001200B9000200A90099008900790A1
:1044400002900190039001900C9009E020200EA9A9
:104450009DF8302088549DF83000401CC0B20C906C
:104460009DF830000828F1DB00208DF840000FB1E6
:10447000082400E00624AFE1B8F1010F03D103F0F6
:1044800085F90D9001E04FF001089DF834000028F7
:104490007ED001200B909DF83400202879D2DFE8EF
:1044A00000F0788291A0F278CDBEAFDCF3F0EFEEB1
:1044B000ED787F7E5733107878EC78808178787843
:1044C00078EB0020039011909DF81C00A04218DAB0
:1044D0009DF82800A8B99DF81C0000280CDD2E20AE
:1044E0000EA99DF81C2088549DF81C0009909DF889
:1044F0001C00401CC0B207909DF82800401CC0B2B0
:104500000A90012004904CE10120039000201190BA
:104510009DF81C00A04218DA9DF82800A8B99DF863
:104520001C0000280CDD2E200EA99DF81C208854AC
:104530009DF81C0009909DF81C00401CC0B207901B
:104540009DF82800401CC0B20A900120049028E188
:1045500002200390002011909DF81C00A0421BDA5D
:104560009DF82800C0B99DF81C0000280CDD2E2005
:104570000EA99DF81C2088549DF81C0009909DF8F8
:104580001C00401CC0B207909DF82800401C01E0B0
:1045900008E105E1C0B20A900120049001E100E1C8
:1045A000FFE0FEE0FDE09DF81C00A04209DA3120AA
:1045B0000EA99DF81C2088549DF81C00401CC0B218
:1045C0000790EEE09DF81C00A04209DA32200EA907
:1045D0009DF81C2088549DF81C00401CC0B2079018
:1045E000DFE09DF81C00A04209DA33200EA99DF8F7
:1045F0001C2088549DF81C00401CC0B20790D0E0DD
:104600009DF81C00A04209DA34200EA99DF81C2058
:1046100088549DF81C00401CC0B20790C1E09DF872
:104620001C00A04209DA35200EA99DF81C208854F0
:104630009DF81C00401CC0B20790B2E09DF81C0021
:10464000A04209DA36200EA99DF81C2088549DF856
:104650001C00401CC0B20790A3E09DF81C00A042C3
:1046600009DA37200EA99DF81C2088549DF81C00FB
:10467000401CC0B2079094E06EE06CE022E030E0B5
:1046800051E010E000E068E09DF81C00A04209DA6B
:1046900038200EA99DF81C2088549DF81C00401C51
:1046A000C0B207907DE09DF81C00A04209DA3920D5
:1046B0000EA99DF81C2088549DF81C00401CC0B217
:1046C00007906EE09DF81C00A04209DA30200EA988
:1046D0009DF81C2088549DF81C00401CC0B2079017
:1046E0005FE09DF81C00A0421CDA9DF81C00002829
:1046F00018DD9DF82800A8B99DF81C0000280CDDE5
:104700002E200EA99DF81C2088549DF81C000990AD
:104710009DF81C00401CC0B207909DF82800401C6A
:10472000C0B20A903DE09DF81C00002812DD9DF803
:104730001C00401EC0B2079020200EA99DF81C202E
:1047400088549DF824009DF81C10884202D1002056
:104750000A90099025E024E023E0002003901190C6
:104760009DF81C00A04218DA9DF82800A8B99DF811
:104770001C0000280CDD2E200EA99DF81C2088545A
:104780009DF81C0009909DF81C00401CC0B20790C9
:104790009DF82800401CC0B20A900120049000E05F
:1047A00000BF00BF9DF82C00B0B100200B906FF04F
:1047B0007F40194908604FF47F004860B388103388
:1047C0009AB271883088122303F07EF9718830889C
:1047D00000230EAA0BF0A0FE9DF8440000287FF4F1
:1047E0004BAE9DF81C000C9009E030200EA99DF8FE
:1047F000302088549DF83000401CC0B20C909DF8C9
:1048000030109DF82400401D8142EEDB00200C900A
:104810003EE00000BB000020F40000209DF83800BE
:10482000302830DB9DF8380039282CDC0EA89DF8A4
:104830003010405C302826DB0EA89DF83010405C1C
:10484000392820DC9DF824009DF8301088420DDDC9
:10485000019800EB80004000019001990EA89DF89E
:104860003020805C3038084401900CE0019800EB67
:1048700080004000019001990EA89DF83020805CD6
:104880003038084401909DF83000401CC0B20C90B4
:104890009DF830109DF82400401D8142BEDB9DF83C
:1048A000240002909DF8000028700198686002982A
:1048B000A8600398E86004982861059868610698E4
:1048C000A86112B0BDE8F0812DE9F04107468846A5
:1048D0006FF07F40FE4908604FF050104860FD487F
:1048E00090F82F0150B9FC4890F8D600052803DC59
:1048F000F94890F8D6501DE005251BE0F54890F8E2
:104900002F0101280CD1F44890F8D6000A2805DCC4
:10491000F14890F8D600401FC5B20BE0052509E02C
:10492000EC4890F82F01022804D1EB4890F8D6000B
:104930000A38C5B2CA2340F2DF125E21002003F01C
:10494000C3F84FF050116FF07F4003F0F7FB6FF0AA
:104950007F40DF494860C5F1040000EB400101EBF6
:10496000C000CA21A1EB40005D3883B201225E2164
:10497000002003F0A9F8C5F1040000EB400101EBB1
:10498000C000CA21A1EB40005D3883B201225E2144
:10499000282003F099F8C5F1040000EB400101EB79
:1049A000C000CA21A1EB40005D3883B201225E2124
:1049B000782003F089F8012415E0C5F1040101EB2A
:1049C000410202EBC101CA22A2EB41015D398BB267
:1049D000642204FB02F101F1780001225E2103F060
:1049E00073F8601CC4B2042CE7DB00240CE0162230
:1049F00004FB02F000F15E01012340F2DF1200200F
:104A000003F062F8601CC4B2A81C8442EFDB4FF0D4
:104A10005010AF494860B04890F8D500012826D121
:104A20000023AEA25E2103200BF076FD0023ACA292
:104A300049212B200BF070FD0023ABA2492153200C
:104A40000BF06AFD0023AAA24921B7200BF064FDF8
:104A50000023A9A2492140F21B100BF05DFD0023A9
:104A6000A7A2492140F27F100BF056FD29E09A4899
:104A700090F8D50028BB0023A3A2612103200BF0EE
:104A80004BFD0023A2A261213F200BF045FD002336
:104A9000A1A2612199200BF03FFD0023A0A261217A
:104AA000FD200BF039FD00239FA2612140F261102F
:104AB0000BF032FD00239EA2612140F2B1100BF0F9
:104AC0002BFDFEF723FA6FF07F40814908609A487A
:104AD00048609A4890F8F80108B1994E00E0994E64
:104AE00000240FE0C4EBC4018A19C4EB041101EBEC
:104AF0004411202303EB41000023F1210BF00CFDB6
:104B0000601CC4B2052CEDDB002465E14FF05010B1
:104B10006F4948606F4991F82F1101EB81012144E1
:104B2000481C00230222194602F022FC162204FB34
:104B300002F000F177010023834A03200BF0ECFC24
:104B4000644890F82F0100EB800003196248E030C0
:104B5000C05CC0EBC0007D4BC218162304FB03F001
:104B600000F17701002335200BF0D6FC594890F86E
:104B70002F0100EB8000011956484830405C744911
:104B800051F8200052490860524890F82F0100EB7C
:104B9000800001196F48405CC8B94E4991F82F1147
:104BA00001EB81010A194B49583151F822000023C9
:104BB0000722042102F0DCFB162204FB02F000F1C4
:104BC00077010023604A7B200BF0A6FC22E04148DD
:104BD00090F82F0100EB800001195E48405C01282D
:104BE00018D13C4991F82F1101EB81010A1939497B
:104BF000583151F8220000230622032102F0B8FBAD
:104C0000162204FB02F000F1770100234E4A7B20BC
:104C10000BF082FC2F4890F82F0100EB8000011967
:104C20002C484830405C4C4951F820002849086025
:104C3000284890F82F0100EB8000011945480F30FB
:104C4000405CC8B9234991F82F1101EB81010A1981
:104C50004049783951F8220000230722042102F04C
:104C600087FB162204FB02F000F177010023364A8D
:104C7000DF200BF051FC23E0164890F82F0100EBE9
:104C80008000011933480F30405C012818D11149C8
:104C900091F82F1101EB81010A192E49783951F849
:104CA000220000230622032102F062FB162204FBED
:104CB00002F000F177010023234ADF200BF02CFCE7
:104CC000044890F82F0100EB80000119014845E0ED
:104CD000F400002058170020341300204E4F00002D
:104CE0004D4F44450000000050415241310000004A
:104CF0005041524132000000524553310000000043
:104D00005245533200000000D0F2BAC50000000046
:104D1000CFEEC4BF00000000B5E7D1B9000000002D
:104D2000B5E7C1F700000000B9A6C2CA0000000044
:104D3000BDE1B9FB0000000038003100181500206B
:104D4000CE2E0108AB2E010838210020262E0108A6
:104D5000B020010864180020A02001084830405C01
:104D6000204951F8200020490860204991F82F116E
:104D700001EB81010A191D49D03151F822000023AD
:104D80000722032102F0F4FA162204FB02F000F1DC
:104D900077010023164A40F243100BF0BDFB6FF081
:104DA0007F4011490860114890F82F0100EB800006
:104DB00003190E484830C05CC0EBC0000D4BC21850
:104DC000162304FB03F000F17701002340F2A71043
:104DD0000BF0A2FB601CC4B2AC42FFF697AEBDE87C
:104DE000F0810000C0200108F400002058170020C6
:104DF00038210020492E010830B595B0054600F055
:104E000045FF012229466846FFF708FB6C469DF8DE
:104E100000008DF8380001980F90029810900398C8
:104E200011900498129005981390069814900B987E
:104E300018B90020099008900A900F9815B030BD5D
:104E400030B595B0054600F065FF01222946684659
:104E5000FFF7E4FA6C469DF800008DF838000198E1
:104E60000F90029810900398119004981290059852
:104E70001390069814900B9818B900200990089088
:104E80000A900F9815B030BD30B595B0054600F0CA
:104E900075FF012229466846FFF7C0FA6C469DF867
:104EA00000008DF8380001980F9002981090039838
:104EB00011900498129005981390069814900B98EE
:104EC00018B90020099008900A900F9815B030BDCD
:104ED00030B595B0054600F005FF01222946684629
:104EE000FFF79CFA6C469DF800008DF83800019899
:104EF0000F900298109003981190049812900598C2
:104F00001390069814900F9842F21071B0FBF1F0D4
:104F10000F900B9818B90020099008900A900F98EC
:104F200015B030BD30B595B0054600F0C5FE012284
:104F300029466846FFF772FA6C469DF800008DF826
:104F4000380001980F9002981090039811900498DF
:104F5000129005981390069814900F984FF47A7158
:104F6000B0FBF1F00F900B9818B900200990089051
:104F70000A900F9815B030BD30B595B0054600F0D9
:104F8000E7FE012229466846FFF748FA6C469DF87D
:104F900000008DF8380001980F9002981090039847
:104FA00011900498129005981390069814900B98FD
:104FB00018B90020099008900A900F9815B030BDDC
:104FC00030B595B0054600F0EFFE0122294668464F
:104FD000FFF724FA6C469DF800008DF83800019820
:104FE0000F900298109003981190049812900598D1
:104FF0001390069814900F9842F21071B0FBF1F0E4
:105000000F900B9818B90020099008900A900F98FB
:1050100015B030BD30B595B0054600F0DBFE01227D
:1050200029466846FFF7FAF96C469DF800008DF8AE
:10503000380001980F9002981090039811900498EE
:10504000129005981390069814900B9818B90020A8
:10505000099008900A900F9815B030BD10B5002443
:105060000FE0601C00EB400202EBC0001A2202EBD2
:105070004000801E81B2012364225A2002F024FDE8
:10508000641C072CEDD310BD70B500F04DF86FF027
:105090007F401E4908601E4848601E4890F8F8018D
:1050A00008B11D4E00E01D4E002306F1B0020421A0
:1050B00018460BF031FA6FF07F40144908604FF04A
:1050C00050104860134890F8F80108B1144D00E002
:1050D000144D00240EE004EB440000EBC400421920
:1050E000162304FB03F01A3081B2002318460BF09C
:1050F00013FA641C072CEED36FF07F40034948601D
:10510000FFF7ACFF0220FDF7B1FA70BDF4000020FC
:105110000352F30018150020D1240108DF230108F1
:105120006D2B0108202B010810B500F065FDFDF77F
:10513000EDFE10BD7FB5044600208DF80700012C60
:1051400001D1012000E000200290029820B14FF42C
:105150007F00F849486003E04FF05010F54948607F
:10516000F54890F8F80108B1F44D00E0F44D122331
:1051700066221A215A2002F0A7FCEF4890F8F401A9
:10518000C0EBC000421900231C215A200BF0C4F9C7
:10519000022C01D1012000E000200290029820B1F1
:1051A0004FF47F00E349486003E04FF05010E149BD
:1051B00048601223662230215A2002F085FCDE4826
:1051C00090F8F501C0EBC000DE49421800233221FF
:1051D0005A200BF0A1F9032C01D1012000E000209E
:1051E0000290029820B14FF47F00D249486003E05A
:1051F0004FF05010CF494860CF4890F8F80108B1FF
:10520000CE4D00E0CE4D1223662246215A2002F0F8
:105210005BFCC94890F8F601C0EBC00042190023BE
:1052200048215A200BF078F9042C01D1012000E02C
:1052300000200290029820B14FF47F00BD494860E1
:1052400003E04FF05010BB494860BB4890F8F801AC
:1052500008B1BA4D00E0BA4D122366225C215A20F3
:1052600002F032FCB44890F8F701C0EBC0004219DC
:1052700000235E215A200BF04FF9052C01D10120AB
:1052800000E000200290029820B14FF47F00A9496D
:10529000486003E04FF05010A64948601223662290
:1052A00072215A2002F010FCA34890F8F801A64998
:1052B00001EBC002002374215A200BF02DF901A943
:1052C000002005F0BBFB6946002005F07DFB062CA5
:1052D00001D1012000E000200290029820B14FF49B
:1052E0007F009449486003E04FF0501091494860B6
:1052F00012231A4688215A2002F0E6FB9DF803206B
:1053000092A193480BF07EF90023914A8A215A20FA
:105310000BF002F94FF050108649486000238DA22F
:105320008A216E200BF0F8F8072C01D1012000E053
:1053300000200290029820B14FF47F007D49486020
:1053400003E04FF050107B49486012231A46882131
:10535000782002F0B9FB9DF801207CA17C480BF07D
:1053600051F900237A4A8A2178200BF0D5F84FF0C2
:10537000501070494860002376A28A218C200BF0DF
:10538000CBF8082C01D1012000E000200290029807
:1053900020B14FF47F006749486003E04FF05010A0
:1053A0006449486012231A468821982002F08CFB39
:1053B0009DF8022065A166480BF024F90023644A99
:1053C0008A2198200BF0A8F8092C01D1012000E0D7
:1053D00000200290029820B14FF47F0055494860A8
:1053E00003E04FF050105349486012231A469E21A3
:1053F0005A2002F069FB9DF8042054A154480BF098
:1054000001F90023524AA0215A200BF085F84FF0F1
:1054100050104849486000234FA2A0216E200BF095
:105420007BF80A2C01D1012000E0002002900298B4
:1054300020B14FF47F003F49486003E04FF0501027
:105440003C49486012231A469E21782002F03CFB1A
:105450009DF805203DA13E480BF0D4F800233C4ABE
:10546000A02178200BF058F84FF0501031494860D7
:10547000002339A2A0218C200BF04EF80B2C01D177
:10548000012000E000200290029820B14FF47F003C
:105490002849486003E04FF0501026494860122325
:1054A0001A469E21982002F00FFB9DF8062027A1A6
:1054B00027480BF0A7F80023254AA02198200BF0DD
:1054C0002BF80C2C01D1012000E000200290029862
:1054D00020B14FF47F001749486003E04FF05010AF
:1054E0001449486012236622B4215A2002F0ECFAD3
:1054F00000231A4AB6215A200BF00EF8FDF706FDDC
:105500006FF07F400B490860154848600C2C7DD235
:10551000DFE804F00609446084A6C1C2C3C4C5C65E
:10552000FDF79EF8D8E0044890F8F801D0B1034D9B
:1055300019E00000F400002018150020652901087A
:1055400026290108BA2B0108F22B01082532640034
:10555000382100202D0000003A0000001117002023
:10556000380031005D4D0020039013E00399C1EB3A
:10557000C1014A190399C1EB011303EB4111202327
:1055800003EB410188B20023F1210AF0C5FF039823
:10559000401C039003980228E8D39DE0002003906C
:1055A00014E00399C1EBC1014D4BCA180399C1EB3B
:1055B000011303EB4111202303EB410188B20023C7
:1055C000F1210AF0A9FF0398401C039003980528D5
:1055D000E7D381E0434890F8F80108B1424D00E07C
:1055E0003E4D0020039015E00399C1EBC1014A191B
:1055F0000399C1EB011303EB4111202303EB41019C
:1056000088B20023F1210AF087FF00E063E00398ED
:10561000401C039003980228E6D35DE0314890F8DF
:10562000F80108B1304D00E02C4D0020039013E04C
:105630000399C1EBC1014A190399C1EB011303EBB3
:105640004111202303EB410188B20023F1210AF02C
:1056500063FF0398401C039003980228E8D33BE0C3
:105660000020039013E02149039B01EBC30219467C
:10567000C3EB011303EB4111202303EB410188B27B
:105680000023F1210AF048FF0398401C039003987F
:105690000228E8D320E000BF00BF00BF00BF00BF6A
:1056A0000020039013E01249039B01EBC30219464B
:1056B000C3EB011303EB4111202303EB410188B23B
:1056C0000023F1210AF028FF0398401C039003985F
:1056D0000228E8D300E000BF00BF7FBD26290108F3
:1056E000BA2B01081815002065290108F22B0108C2
:1056F000022C010810B500F07FFAFDF707FCFEF759
:105700006DFE10BD10B500F077FAFDF7FFFB10BD80
:1057100070B5FFF7EFFF6FF07F40404908604048E9
:105720004860404890F8F80108B13F4E00E03F4E15
:1057300000233246042118460AF0EEFE6FF07F4047
:10574000364908604FF050104860364890F8F8012C
:1057500008B1374D00E0374D002424E0022C10D270
:1057600004EB840005EB400204EB440000EBC400B2
:105770001A2303EB400081B2002318460AF0CCFE46
:1057800010E004EB840005EB4002E01E00EB400358
:1057900003EBC0001A2303EB400081B20023FA2080
:1057A0000AF0BAFE641C002CD8D023481B490860BC
:1057B00022484860224890F8D000012829D10023CF
:1057C00020A250214FF49B700AF0A6FE00231EA2D7
:1057D00064214FF49B700AF09FFE00231BA27821E6
:1057E0004FF49B700AF098FE002319A28C214FF40D
:1057F0009B700AF091FE002316A2A0214FF49B702B
:105800000AF08AFE002314A2B4214FF49B700AF020
:1058100083FE0020FCF72AFF70BD0000F40000208A
:105820000352F30018150020D1240108DF230108DA
:105830007B23010881210108C0C0C0006534340009
:105840003413002056483A00564C3A0043483A0078
:10585000434C3A0050483A00504C3A0070B5FFF7BC
:1058600051FF6FF07F403049086030484860304851
:1058700090F8F80108B12F4E00E02F4E002306F1FA
:105880005802042118460AF047FE6FF07F4026496F
:1058900008604FF050104860254890F8F80108B1B2
:1058A000264D00E0264D002438E0062C1AD2022CAA
:1058B00006D9082C04D24FF050101B49486003E071
:1058C0004FF050101849486004EB840005EB40028B
:1058D000162304FB03F01A3081B2002318460AF0A5
:1058E0001BFE1AE0A01F022806D9082804D24FF098
:1058F00050100D49486003E04FF050100A494860CD
:1059000004EB840005EB4002A01F162358431A3015
:1059100081B20023FA200AF0FFFD641C0C2CC4D3D2
:105920000020FCF7A3FE70BDF40000200352F3003A
:1059300018150020D1240108DF230108A926010839
:10594000C32501087CB504469E48407804280FDA38
:105950004FF050109C4948609A48407800EB800016
:105960009A4901EB400200231A21FA200AF0D4FDE3
:10597000974890F8F80108B1964D00E0964D012C3B
:1059800001D1012000E000200090009820B14FF4E8
:105990007F008D49486003E04FF050108A4948600D
:1059A00014235C221821582002F08EF86FF07F40FB
:1059B0008549086083484078C0EBC0004219002345
:1059C0001A2158200AF0A8FD022C01D1012000E084
:1059D00000200090009820B14FF47F007A49486081
:1059E00003E04FF050107849486014236E221821CC
:1059F0004FF4A87002F068F8009858B37748007820
:105A0000012827D1764870494860764800780528F3
:105A10000EDA7449097801EB81014FF4D172A2EBDF
:105A2000410188B2022308222A2102F04DF80DE03C
:105A30006C49097801EB81014FF4CC72A2EB410172
:105A400088B2022308222A2102F03EF84FF47F0098
:105A50005D4948606FF07F405B4908605948407875
:105A600038B95849886800230722042101F080FCD6
:105A700022E054484078012807D152494868002361
:105A80000722042101F074FC16E04E4840780228F9
:105A900007D14C49C86800230722042101F068FCA3
:105AA0000AE048484078032806D14649086900239F
:105AB0000722042101F05CFC00234B4A1A214FF419
:105AC000A9700AF029FD3F484078484901EB80025F
:105AD00000231A214FF4D2700AF01EFD42480078CC
