:020000040804EE
:10000000F07E0020C1010408B9B80408F58904088D
:1000100081B70408811304088D550508000000000D
:100020000000000000000000000000007DE2040865
:10003000D318040800000000DDC404085DFF0408B4
:10004000DB010408DB010408DB0104085DCF0408C0
:10005000DB010408DB010408DB010408DB01040800
:10006000DB010408F9790408DB010408DB0104085A
:10007000DB010408DB010408DB010408DB010408E0
:10008000DB010408DB010408DB010408DB010408D0
:10009000DB010408DB010408DB010408DB010408C0
:1000A000DB010408DB010408DB010408DB010408B0
:1000B0008F010508DB010408DB010408DB010408EB
:1000C000DB010408DB010408DB010408DB01040890
:1000D000DB010408DD170508DB01040855180508D5
:1000E000E1790408DB010408DB010408DB010408F2
:1000F000DB010408DB010408DB010408DB01040860
:10010000DB010408DB010408DB010408DB0104084F
:10011000DB010408DB010408A5010508DB01040874
:10012000DB010408DB010408DB010408DB0104082F
:10013000DB010408DB010408DB010408DB0104081F
:10014000DB010408DB010408DB01040885B90408AD
:10015000DB010408DB010408DB010408DB010408FF
:10016000DB010408DB010408DB010408DB010408EF
:10017000DB010408DB010408DB010408DB010408DF
:10018000DB010408DB010408DB010408DB010408CF
:10019000DB010408DB010408DB010408DB010408BF
:1001A000DB010408DB010408DB010408DFF80CD0E4
:1001B00000F0F6FA00480047A58C0508F07E002004
:1001C0000648804706480047FEE7FEE7FEE7FEE7F1
:1001D000FEE7FEE7FEE7FEE7FEE7FEE701000508B3
:1001E000AD01040840EA01039B0703D009E008C9F8
:1001F000121F08C0042AFAD203E011F8013B00F8EC
:10020000013B521EF9D27047D2B201E000F8012B37
:10021000491EFBD270470022F6E710B513460A4686
:1002200004461946FFF7F0FF204610BD10B5002226
:1002300000E0521C835C8C5CA34201D1002BF8D1FE
:10024000D8B2E1B2401A10BD2DE9FE4F804681EAD6
:100250000300C00F0C46009021F0004123F0004540
:10026000B8EB0200A94105D24046214690461C4603
:100270000B46024623F00040104347D0270DC7F33A
:100280000A00C3F30A510290401A019040286BDA29
:10029000C3F3130040F4801B0098924620B1002362
:1002A000D2EB030A63EB0B0B01985946C0F14002F5
:1002B000504600F0B7F906460D4650465946019A99
:1002C00000F0CFF910EB08006141002487EA1152D9
:1002D00084EAE7731A4340D0009A62B3019A012A74
:1002E0004FEA075215DC001B61EB02014FF00042A0
:1002F00002EA0752CDE90042001C41F58011324666
:100300002B4600F0CFF903B0BDE8F08F4046214600
:10031000F9E7001B61EB0201001C41F58013001896
:100320005B412018A2F5001747EB030140EAD570A6
:10033000B6196D4111E06D084FEA360645EAC07501
:100340004FEA0752001B61EB0201001C41F58011CE
:1003500049084FEA30000019514132462B4603B09C
:10036000BDE8F04F00F08FB9009801224000002353
:10037000D0EB020263EBE073009821464FEAE07491
:10038000B8EB000061EB0401E9E783F000435BE7B1
:1003900081F0004158E72DE9FE4F81EA030404F0A3
:1003A000004421F0004100944FF0000B23F0004383
:1003B00050EA01045ED052EA03045BD0C3F30A544E
:1003C000C1F30A552C44A4F2F3340194A0FB025467
:1003D000C1F3130141F48011C3F3130343F48013F9
:1003E00001FB024400FB034E840A970A44EA81544D
:1003F00047EA8357A4FB076802958D0A05FB07852A
:100400004FEA932C04FB0C542705029D4FEA065833
:1004100047EA1637B5EB08056EEB070C870E920E10
:1004200047EA811742EA8312A7FB0201B6EB0B01F0
:1004300064EB00042B0D43EA0C335E1844EB1C50B4
:10044000DA465146E7FB0201C5F313044FEA0B33CA
:1004500043EA14534FEA0432019C43EA0603A4F131
:100460000C040294009CCDE900B400F01BF903B029
:10047000BDE8F08F00200146F9E72DE9F04D81EA53
:10048000030404F0004B21F0004514464FF0000A2D
:1004900023F0004150EA050220D054EA01021DD0A9
:1004A000C5F30A570246C5F31303C1F31300C1F3A2
:1004B0000A5640F4801543F48013A7EB0608101B7E
:1004C000D64608F2FD3873EB050002D308F10108A7
:1004D00001E092185B41B8F1000F03DA00200146F9
:1004E000BDE8F08D00204FF48011064684460EE0F2
:1004F000171B73EB050705D3121B63EB05030643BC
:100500004CEA010C49084FEA300092185B4150EA6E
:100510000107EDD152EA030012D082EA040083EA17
:100520000501084305D0101BAB4106D20122002370
:1005300006E000224FF0004302E06FF0010253108A
:100540001AEB06004CEB085110EB0A0041EB0B01D3
:10055000BDE8F04D00F097B80EB5C10F80EAE0702D
:100560000844CA07002140F233438DE80E000A46D2
:100570000B4600F097F803B000BD0EB540F23341D2
:1005800002910021CDE900110A460B4600F08AF8DD
:1005900003B000BDC1F30A5210B5C1F3130140F21C
:1005A000FF3341F480119A4201DA002010BD40F27D
:1005B00033439A42A2F2334203DC524200F041F844
:1005C00010BD904010BD000030B5041E71F1000454
:1005D00004DB4FF00044404264EB0101141E73F150
:1005E000000405DB1C464FF00043524263EB04035A
:1005F0008B4208BF824230BD30B50B460146002019
:100600002022012409E021FA02F59D4205D303FAD4
:1006100002F5491B04FA02F52844151EA2F1010255
:10062000F1DC30BD202A04DB203A00FA02F1002080
:1006300070479140C2F1200320FA03F31943904020
:100640007047202A04DB203A21FA02F0002170478B
:1006500021FA02F3D040C2F120029140084319462A
:100660007047202A06DBCB17203A41FA02F043EA12
:10067000E07306E041FA02F3D040C2F1200291405B
:1006800008431946704710B5141E73F1000408DAC8
:10069000401C41F1000192185B411A4301D120F046
:1006A000010010BD2DE9F04D92469B4611B1B1FA03
:1006B00081F202E0B0FA80F220329046FFF7B2FFFA
:1006C00004460F4640EA0A0041EA0B0153465A46E7
:1006D000084313D0114653EA010019D0C8F1400273
:1006E0005046FFF7AEFF05460E4650465946424675
:1006F000FFF798FF084305D0012004E02046394663
:10070000BDE8F08D0020054346EAE0762C433743F0
:100710000A986305E40AA0EB08000022FD0A44EAF7
:1007200047540A3002D500200146E9E701051019B7
:100730006941DDE9084500196941BDE8F04DA2E7CE
:1007400070B521F0004303430CD0C1F30A550024D7
:10075000D5EB040564EB0403D617AD1AB34102DBF5
:100760000020014670BD201841EB025170BD000011
:1007700030B5041E71F1000404DB4FF00044404228
:1007800064EB0101141E73F1000405DB1C464FF0FD
:100790000043524263EB0403994208BF904230BDCC
:1007A000064C074D06E0E06840F0010394E80700BE
:1007B00098471034AC42F6D3FFF7FCFC502A0F08E0
:1007C000702A0F082DE9F04D00231A461B1A8A41A2
:1007D00003DB00200146BDE8F08DC1F30A52C1F3EE
:1007E000130141F480154FF0000BD10702D100181E
:1007F0006D41521E0027044640F2FF11384601EBBE
:10080000620A3E468046024600204FF48011FFF700
:1008100018FFC2197141BB1846EB0100B4EB030C81
:1008200075EB000C04D3E41A65EB000517460E4681
:10083000241908F101006D4180463428E3DDF919DF
:1008400046EB0600091BA84103D24FF0FF321346C6
:1008500001E0002213461BEB070046EB0A51BDE8FE
:10086000F04DFFF710BF70B58C1810F8015B15F054
:10087000070301D110F8013B2A1106D110F8012B12
:1008800003E010F8016B01F8016B5B1EF9D12B0737
:1008900005D40023521E0DD401F8013BFAE710F8ED
:1008A000013BCB1A921C03E013F8015B01F8015BDA
:1008B000521EF9D5A142D8D3002070BD70B50546AF
:1008C0000C4608480560204600F00EF800BF0548B9
:1008D00000680028FBD100214FF080400FF09BFF03
:1008E00070BD0000780100203EB5044600214FF0A5
:1008F00080400FF090FF00220121880710F0D2F80D
:10090000022C02D10B20019004E0012C02D142F60E
:10091000DF6001900520ADF800000020ADF8080070
:10092000ADF8020069464FF0804010F011F9012146
:1009300088070FF06DFF012188070FF05AFF012291
:100940001146900710F0AEF8012188070FF063FF01
:100950003EBD000010B54FF480711448FFF75BFCFA
:1009600001201249087006204870002088700D2070
:10097000C87000200871487188710D4890F85800BF
:10098000C8710821094808F037F8001207490872B1
:100990000821064808F030F8044948720A21034843
:1009A00014F0F2FB01200349087010BD122C002046
:1009B000E80400201001002070B504460D46594897
:1009C000594948602CBB59480068642806D2002366
:1009D00007220421184608F04DF806E05349002389
:1009E00007220868042108F045F85049002307222F
:1009F0000868042108F03EF800234D4A8221502067
:100A000015F0D8FA00234BA28221A02015F0D2FACB
:100A10001FE0012C1DD145480068642806D2002340
:100A200006220321184608F025F806E03F49002376
:100A300006220868032108F01DF800233C4A8221A1
:100A4000502015F0B7FA00233AA28221A02015F019
:100A5000B1FA9DB93549002307224868042108F0FE
:100A600009F80023324AA021502015F0A3FA0023F0
:100A700031A2A021084615F09DFA14E0012D12D1F3
:100A80002A49002306224868032107F0F3FF0023C8
:100A9000274AA021502015F08DFA002326A2A0217C
:100AA000084615F087FA214900230622C868032169
:100AB00007F0E0FF00231E4ABE21502015F07AFA0D
:100AC00000231EA2BE21A02015F074FA17490023AE
:100AD00007228868042107F0CDFF0023144A8221F1
:100AE0004FF48C7015F066FA002315A282214FF4A2
:100AF000B47015F05FFA0D4900230622886F19467D
:100B000007F0B8FF00230A4AA0214FF48C7015F0BB
:100B100051FA00230BA2A0214FF4B47015F04AFA49
:100B200070BD000065343400C8000020D4060020E9
:100B3000140A002056000000410000005700000089
:100B4000A6B800006D41480070B586B00020049042
:100B5000002400250126FB490870FB4908704FF06E
:100B6000501008F05DFB002001F0FEFF0020039014
:100B70000DF008FEB2E3BDF81000401C80B20490F6
:100B8000204606F0C9FFC5B2F0480078012801D11F
:100B900001262C466FF07F40ED490860ED48007853
:100BA00038B10020EB49087006F062FB0020EA49EA
:100BB0000870EA480078012804D10020E74908704D
:100BC0000CF01EFD012E03D1204601F041FD002650
:100BD000DC480078012804D10CF066FA0020D949DD
:100BE0000870DF4890F86D0138B9DE4A92F820109D
:100BF00092F82100FFF7E0FE22E0D94890F86D015D
:100C000001281DD10AF0BEFD02F0C4FE6FF07F4046
:100C1000CF490860D44848600023D4A2F1214FF4A2
:100C2000CC7015F0C7F90220CD4981F86D01CD488F
:100C3000B0F8DC01401CCB49A1F8DC010FF070F9E1
:100C4000CC48007870B1CC480078052805D10DF06B
:100C500099FD0020C849087004E0C7480078401C8E
:100C6000C5490870C5484078012870D1C44800784B
:100C70000028FAD1C14880780028F6D1012608F072
:100C800065F905909DF81400BE4908709DF81400A0
:100C900000285CD09DF81400202873D2DFE800F013
:100CA00072D0D1D2FCFBD5D4D3D6D7D8FADAD9F9C1
:100CB00063584C31107272F8F789B072F67272F59F
:100CC00014B1012C1AD106E0AF48007810B9062003
:100CD000AE49087013E0AC48007870B90020A14913
:100CE00081F858000DF04EFD4FF0501008F098FAC2
:100CF000012001F039FF0FF013F900E000BF00BF41
:100D0000EBE214B1012C14D100E013E09E4800780E
:100D100070B90220934981F858000DF033FD4FF06F
:100D2000501008F07DFA012001F01EFF0FF0F8F8D6
:100D300000E000BF00BFD0E234B99348007810B99A
:100D400016209249087000E000BF00BFC5E2C5E26E
:100D500034B98D48007810B917208C49087000E02C
:100D600000BF00BFB9E27E4890F86D0188B914B1A8
:100D7000012C0CD107E08448007810B90D2083497C
:100D8000087005E0A8E204207649487000E000BF42
:100D90000EE0734890F86C0150B90020704981F85A
:100DA0006D014FF0501008F03BFA002001F0DCFE1E
:100DB00093E26C4890F8580058B9052C02DD201FCA
:100DC000C4B21CE0032C1ADA002C18DD601EC4B279
:100DD00015E0644890F85800022810D1062C01D183
:100DE00002240CE0052C01D1022408E0022C02D1DF
:100DF000601EC4B203E0012C01D1601EC4B26CE2DB
:100E0000584890F8580058B9052C04DA012C02DD36
:100E1000201DC4B213E0022C11DA601CC4B20EE033
:100E2000504890F85800022809D1022C01D106241C
:100E300005E0012C01D1022401E004B901244CE2B7
:100E400000BF00BF00BF00BF00BF00BF00BF00BFAA
:100E500000BF00BFA01E072872D2DFE800F0043DEB
:100E600057FF99C9E4004848007890BB3D4890F886
:100E70005800B8B97620ADF804003020ADF806006F
:100E80004C20ADF8080001A807E00CE11AE122E2CD
:100E9000E7E0E7E00FE107E145E104F04CFF31490D
:100EA000C86512E02F4890F8580002280DD176202E
:100EB000ADF804003020ADF806005020ADF8080071
:100EC00001A804F080FF274988670AF097FD0DF01C
:100ED00059FC0FF025F8C2E02B480078A8B921484A
:100EE00090F8580068B97620ADF804004620ADF8B7
:100EF00006004C20ADF8080001A804F01CFF1949B9
:100F000008660AF07BFD0FF00BF8A8E01E48007899
:100F1000A8B9144890F8580068B97620ADF80400D4
:100F20005C20ADF806004C20ADF8080001A804F0E4
:100F300002FF0C4948660AF061FD0EF0F1FF8EE0F9
:100F40008CE000005500002057000020C200002067
:100F5000C80000205D000020640000203D0000204B
:100F6000D4060020E804002038003100C8B7C8CFFC
:100F7000000000001001002078000020B8000020D0
:100F8000A00000207B0000207400002058000020FA
:100F9000D648007858BBD64890F8580078B94FF436
:100FA000B870ADF804003020ADF806004C20ADF864
:100FB000080001A804F0D3FFCD49C86613E0CC486F
:100FC00090F8580002280ED14FF4B870ADF8040024
:100FD0003020ADF806004C20ADF8080001A804F060
:100FE000BEFFC349C8670AF009FD0EF099FF36E05D
:100FF000BE480078B0B9BE4890F8580070B94FF4B8
:10100000B870ADF804004620ADF806004C20ADF8ED
:10101000080001A804F0A3FFB54908670AF0EEFC38
:101020000EF07EFF1BE0B1480078B0B9B04890F8F0
:10103000580070B94FF4B870ADF804005C20ADF8FA
:1010400006004C20ADF8080001A804F088FFA8496C
:1010500048670AF0D3FC0EF063FF00E000BF00BF5A
:101060003BE13AE1A148007890B90320A14908701A
:101070000EF06CFF0120A04908709FEDA00AA04867
:1010800080ED1D0A0120994908700DF07BFB09E0F5
:101090000320984908700020944908700DF072FBF5
:1010A0000EF04CFF19E118E19048007810B91220B9
:1010B0009449087011E18D48007810B906209149D3
:1010C00008700AE1012C2DD1894890F8580090B998
:1010D0008648007830BB0220854981F858000DF021
:1010E00051FB4FF0501008F09BF8012001F03CFD3F
:1010F0000EF016FF16E07E4890F85800022811D135
:101100007A48007870B90020794981F858000DF0CC
:1011100039FB4FF0501008F083F8012001F024FD56
:101120000EF0FEFED9E0A01E07287CD2DFE800F01A
:1011300004344ED0689AB5006C48007848BB6C48BF
:1011400090F8580070B97620ADF804003020ADF862
:1011500006004C20ADF8080001A804F0ECFD64493D
:10116000C86512E0624890F8580002280DD1762038
:10117000ADF804003020ADF806005020ADF80800AE
:1011800001A804F020FE5A4988670AF037FC0DF0E8
:10119000F9FA0EF0C5FE9CE054480078A8B954480E
:1011A00090F8580068B97620ADF804004620ADF8F4
:1011B00006004C20ADF8080001A804F0BCFD4C4925
:1011C00008660AF01BFC0EF0ABFE82E04748007890
:1011D000A8B9474890F8580068B97620ADF80400DF
:1011E0005C20ADF806004C20ADF8080001A804F022
:1011F000A2FD3F4948660AF001FC0EF091FE68E04E
:101200003A48007868BB3A4890F8580088B94FF4DB
:10121000B870ADF804003020ADF806004C20ADF8F1
:10122000080001A800E053E004F099FE3049C866C8
:1012300013E02F4890F8580002280ED14FF4B870F0
:10124000ADF804003020ADF806004C20ADF80800E1
:1012500001A804F084FE2649C8670AF0CFFB0EF00F
:101260005FFE36E021480078B0B9214890F8580078
:1012700070B94FF4B870ADF804004620ADF8060020
:101280004C20ADF8080001A804F069FE1849086771
:101290000AF0B4FB0EF044FE1BE014480078B0B92D
:1012A000134890F8580070B94FF4B870ADF80400C6
:1012B0005C20ADF806004C20ADF8080001A804F051
:1012C0004EFE0B4948670AF099FB0EF029FE00E03C
:1012D00000BF00BF01E000E000BF00BF0948007888
:1012E00015283FF448AC06B070BD00007400002023
:1012F000E8040020770000203400002000000000F7
:10130000D40600205800002010B54FF48061024838
:1013100007F0EEF910BD00000008024010B54FF4D0
:101320008061024807F0E6F910BD000000080240A5
:1013300010B50446A21E0E4B0E490F4816F0B1FD23
:101340000E490870A01EC1B20A4807F055FB0112F1
:10135000A01E084A1154C1B2104607F04DFBC1B29D
:10136000601E044A1154E1B2104613F00DFF10BD87
:101370006C000020A00A0020D01B00206A00002082
:1013800000BFFEE710B504464FF480716748FEF7D2
:1013900042FF0120654908706548007810B9084689
:1013A000847007E062480078012803D104F110003E
:1013B0005E498870A5205D4948705D480078002826
:1013C0004BD1012C05D0022C03D0092C01D00A2CC2
:1013D0001BD1601E574951F82000000E5349C870B8
:1013E000601E544951F82000000C50490871601EDD
:1013F000504931F82000000A4C494871601E4D499F
:1014000011F82000494988717EE0601E494951F871
:1014100020000A21B0FBF1F0000E4449C870601EA4
:10142000444951F820000A21B0FBF1F0000C3F497B
:101430000871601E3F4951F820000A21B0FBF1F00D
:10144000000A3A494871601E3A4951F820000A21C1
:10145000B0FBF1F03549887156E035480078012835
:1014600052D1012C05D0022C03D0032C01D0042C26
:101470001FD104F10F002F4951F82000000E2B4915
:10148000C87004F10F002B4951F82000000C2749C7
:10149000087104F10F00274931F82000000A2349A0
:1014A000487104F10F00234911F820001F49887189
:1014B0002AE004F10F001F4951F820000A21B0FB77
:1014C000F1F0000E1949C87004F10F00194951F8E4
:1014D00020000A21B0FBF1F0000C1449087104F15E
:1014E0000F00144951F820000A21B0FBF1F0000A66
:1014F0000E49487104F10F000E4951F820000A21ED
:10150000B0FBF1F0094988710721084807F074FA27
:1015100000120649C8710721044807F06DFA034913
:1015200008720921014813F02FFE10BD122C002073
:101530007E000020E406002010B50121C8050BF054
:10154000CDF800214FF400000BF0C8F810BD0000EA
:1015500001460020034A52680A400AB1012000E017
:101560000020704700B0024070B500210022002327
:101570000024344D2D68344E3540324E35603546AA
:101580002D68066835432F4E356035466D6B25F066
:101590000705756335466D6B46683543294E75639F
:1015A000456835B9C5682902058A2A04057D2B06D8
:1015B00021E04568012D05D1C5682902058A2A0464
:1015C000002318E04568022D05D1C5686901056949
:1015D000EA0200230FE04568032D06D1C5686901C2
:1015E0000569AA024569EB0305E0C568290105699B
:1015F0002A0245692B0341EA0205866835431D43EB
:10160000104EB66B35430F4EB5638569F5633546AD
:101610002D6C6FF30D05356435462D6CC669354369
:10162000084E3564858C2C0435466D6C05F04045BC
:10163000756435466D6C066A26433543014E756404
:1016400070BD000000B00240FCE0FCFF03480068F1
:1016500040F00100014908607047000000B00240FE
:101660000246094B9A4201D2084801E00648103868
:1016700001F000531BB1064B0B40C36002E0044B6A
:101680000B4083607047000010640240006002401D
:101690007D0F7D0F0246094B9A4201D2084801E0B6
:1016A0000648103801F000531BB1064B0B40C360D5
:1016B00002E0044B0B40836070470000106402405E
:1016C000006002407D0F7D0F21B1026842F00102EF
:1016D000026003E0026822F001020260704700002D
:1016E000016821F001010160002101604160816019
:1016F000C1600161212141614A49884204D13D21F3
:10170000484A103A91608CE046491831884205D128
:101710004FF47461434A103A916082E0414930319C
:10172000884205D14FF474113E4A103A916078E036
:101730003C494831884205D14FF07461394A103A2A
:1017400091606EE037496031884204D13649354AAC
:10175000103AD16065E033497831884204D1334989
:10176000304A103AD1605CE02E499031884204D171
:101770002F492C4A103AD16053E02A49A8318842B7
:1017800005D14FF03D51274A103AD16049E029492F
:10179000884204D13D21274A083A116041E0254999
:1017A0001831884205D14FF47461224A083A116019
:1017B00037E020493031884205D14FF474111D4A79
:1017C000083A11602DE01B494831884205D14FF09D
:1017D0007461184A083A116023E016496031884262
:1017E00004D11149134A121F11601AE011497831CE
:1017F000884204D10D490F4A121F116011E00D49B2
:101800009031884204D10A490A4A121F116008E047
:101810000849A831884204D14FF03D51054A121FB2
:1018200011607047106002403D000020400F002012
:1018300000003D2010640240014600200A6802F0CA
:1018400001020AB1012000E000207047014648680B
:1018500080B2704710B500220268134B1A40CC6862
:101860000B6823434C6923438C692343CC6923438E
:101870000C6A23434C6A23438C6A23434C6B2343F7
:101880008C6B23431A430260426922F00702D1E9BC
:101890000B3423431A4342610B6943604B688360F6
:1018A0008B68C36010BD00003F801CF04160704732
:1018B0000021016041608160C1600161416181611D
:1018C000C161016241628162C162016341638163FE
:1018D0007047704710B586B00446012108460AF0EB
:1018E000EDFE012110200AF049FF07220A212748B6
:1018F00006F0D2FE07220921244806F0CDFE002082
:101900008DF8160001208DF8170002208DF81400C4
:101910000002049002208DF8150004A91B4806F06F
:1019200073FE02208DF814004002049004A91748A9
:1019300006F06AFE00940020ADF80400ADF8060041
:10194000ADF80800ADF80C000C20ADF80A006946AF
:101950000F4810F02DF809F0B0FF012240F22441A9
:101960000B480FF0FFFF012109480FF0AFFF0122E4
:10197000402107480FF0B6FF0122802104480FF0F4
:10198000B1FF00F007F806B010BD000000000240F3
:101990000010014000B591B0012188050AF08EFECB
:1019A0003848FFF79DFE02A8FFF782FF00BF3548C9
:1019B000FFF742FF0028FAD14FF000600290324852
:1019C0000390324804904020059000200690079034
:1019D0004FF480600890002009900A900B904FF41B
:1019E00080300C9000200D9003200E9000200F906E
:1019F000109002A92348FFF72DFF22487838FFF7FF
:101A00006FFE00BF1F487838FFF716FF0028F9D196
:101A10004FF0006002901C4803901D480490002085
:101A200005904FF480700690002007904FF480607E
:101A30000890002009900A900B904FF400300C9011
:101A400000200D9003200E9000200F90109002A90E
:101A50000C487838FFF7FEFE3A208DF804000D2080
:101A60008DF8050000208DF8060001208DF8070094
:101A700001A809F037FF012102487838FFF724FE5A
:101A800011B000BDB864024004100140122F0020C4
:101A9000122E00207CB504466FF07F40F7490860A5
:101AA000012C01D1012000E000200090009820B11D
:101AB0004FF47F00F149486003E04FF05010EF49C8
:101AC0004860EF4900230722D1F8B800042106F04E
:101AD000D1FF122368221A21582007F0D5FB0023DA
:101AE000E84A1A21582014F065FA0023E64A1A2120
:101AF000AA2014F05FFA022C01D1012000E000209E
:101B00000090009820B14FF47F00DC49486003E06A
:101B10004FF05010D9494860D94900230722D1F825
:101B2000BC00042106F0A6FF122368222E215820B3
:101B300007F0AAFB0023D34A3021582014F03AFAC8
:101B40000023D14A3021AA2014F034FA032C01D109
:101B5000012000E000200090009820B14FF47F00A9
:101B6000C649486003E04FF05010C4494860C4497A
:101B700000230722D1F8C000042106F07BFF1223C6
:101B800068224621582007F07FFB0023BD4A4621EA
:101B9000582014F00FFA0023BB4A08324621AA202D
:101BA00014F008FA042C01D1012000E0002000907C
:101BB000009820B14FF47F00B049486003E04FF037
:101BC0005010AE494860AE4900230722D1F8C40046
:101BD000042106F04FFF12237A225A21582007F0E1
:101BE00053FB0023A74A5C21582014F0E3F900239B
:101BF000A54A08325C21AA2014F0DCF9052C01D199
:101C0000012000E000200090009820B14FF47F00F8
:101C10009A49486003E04FF050109849486098494D
:101C200000230822D1F8C800042106F023FF122364
:101C30007A227021582007F027FB0023914A722155
:101C4000582014F0B7F900238F4A10327221B420C3
:101C500014F0B0F9062C01D1012000E00020009022
:101C6000009820B14FF47F008449486003E04FF0B2
:101C7000501082494860824900230822D1F8CC00E4
:101C8000042106F0F7FE12237A228621582007F05D
:101C9000FBFA00237B4A8821582014F08BF900239B
:101CA000794A10328821B42014F084F9072C01D12C
:101CB000012000E000200090009820B14FF47F0048
:101CC0006E49486003E04FF050106C4948606C4822
:101CD00090F8D50008B16D4D00E06D4D12237A22C9
:101CE00018214FF4A97007F0CFFA654890F8D0009A
:101CF000C0EBC000421900231A214FF4A97014F060
:101D000059F9082C01D1012000E000200090009832
:101D100020B14FF47F005949486003E04FF0501064
:101D200056494860564890F8D50008B1594D00E032
:101D3000594D12237A222E214FF4A97007F0A4FAEC
:101D40004F4890F8D100C0EBC00042190023302169
:101D50004FF4A97014F02EF9092C01D1012000E0F4
:101D600000200090009820B14FF47F004349486064
:101D700003E04FF0501041494860414890F8D500C9
:101D800008B1424D00E0424D12237A2244214FF423
:101D9000A97007F079FA3A4890F8D200C0EBC00079
:101DA0004219002346214FF4A97014F003F90A2CBC
:101DB00001D1012000E000200090009820B14FF4F4
:101DC0007F002E49486003E04FF050102B494860D7
:101DD0002B4890F8D50008B12C4D00E02C4D122373
:101DE0007A225A214FF4A97007F04EFA244890F84D
:101DF000D300C0EBC000421900235C214FF4A9704E
:101E000014F0D8F80B2C01D1012000E00020009044
:101E1000009820B14FF47F001849486003E04FF06C
:101E2000501016494860164890F8D50008B1174D73
:101E300000E0174D12237A2270214FF4A97007F0A9
:101E400023FA0F4890F8D400C0EBC00042190023D9
:101E500072214FF4A97014F0ADF8072C22D2DFE8FC
:101E600004F01D0405060708090000BF00BF00BFFD
:101E700000BF00BF022001F0D7FD17E0C80000201E
:101E8000E8040020140A00209B9E0508119D050807
:101E9000939C0508D99C0508A19C0508042001F025
:101EA000C3FD03E0072001F0BFFD00BF00BF01F04C
:101EB00071FD0C2C64D2DFE804F0060A0B0C0D0E49
:101EC0000F3810393A3B032000F006FF59E000BFFD
:101ED00000BF00BF00BF00BF53E06FF07F402A4942
:101EE00008602A4848602A4890F8D50008B1294D72
:101EF00000E0294D0020019013E00199C1EBC101E0
:101F00004A190199C1EB011303EB4111202303EBA3
:101F1000410188B20023F12114F04CF80198401CD3
:101F2000019001980228E8D32BE000BF00BF00BF5A
:101F30006FF07F401449086014484860144890F8D6
:101F4000D50008B1154D00E0154D0020019013E0BB
:101F50000199C1EBC1014A190199C1EB011303EBCE
:101F60004111202303EB410188B20023F12114F039
:101F700021F80198401C019001980228E8D300E064
:101F800000BF00BF7CBD0000C80000203800310049
:101F9000E8040020D99C0508A19C0508119D0508AE
:101FA000939C050800B58DB04FF05010074948606C
:101FB000074808A10268684614F072F800236A46D0
:101FC0003221022013F0F6FF0DB000BDC800002042
:101FD0008C000020B6C1C8A1B3C9B9A62CCEC4BC20
:101FE000FEB4F3D0A1CEAA2564D7D6BDDA2CC7EBB8
:101FF000B0B4B7A2CBCDCEC4BCFE00007CB50446C5
:102000006FF07F40FE490860012C01D1012000E003
:1020100000200090009820B14FF47F00F8494860FC
:1020200003E04FF05010F6494860F64890F8D500AC
:1020300008B1F54D00E0F54D122368221A21582011
:1020400007F022F9EF480078C0EBC00042190023E6
:102050001A21582013F0AEFF022C01D1012000E01C
:1020600000200090009820B14FF47F00E4494860C0
:1020700003E04FF05010E2494860E24890F8D50084
:1020800008B1E34D00E0E34D122368222E215820D1
:1020900007F0FAF8DB4890F82000C0EBC0004219C6
:1020A00000233021582013F085FF032C01D101209B
:1020B00000E000200090009820B14FF47F00D0494C
:1020C000486003E04FF05010CD494860CD4890F88B
:1020D000D50008B1CE4D00E0CE4D12236822462136
:1020E000582007F0D1F8C74890F82100C0EBC00095
:1020F000421900234621582013F05CFF042C01D123
:10210000012000E000200090009820B14FF47F00F3
:10211000BB49486003E04FF05010B9494860B949E5
:10212000486A00230722042106F0A4FC12237A2225
:102130005A21582007F0A8F80023B74A5C215820FC
:1021400013F038FF0023B54A5C21AA2013F032FFB8
:10215000052C01D1012000E000200090009820B162
:102160004FF47F00A649486003E04FF05010A449A7
:102170004860A449886A00230722042106F07AFCFB
:1021800012237A227021582007F07EF80023A24AF9
:102190007221582013F00EFF0023A04A7221AA20BA
:1021A00013F008FF062C01D1012000E00020009070
:1021B000009820B14FF47F009149486003E04FF050
:1021C00050108F4948608F49886C002307220421F2
:1021D00006F050FC12237A228621582007F054F88A
:1021E00000238D4A8821582013F0E4FE00238CA29E
:1021F0008821AA2013F0DEFE072C01D1012000E087
:1022000000200090009820B14FF47F007C49486086
:1022100003E04FF050107A4948607A48006BE0B113
:102220007849086B00230622194606F023FC122386
:102230007A2218214FF4A97007F026F80023764A75
:102240001A214FF4A97013F0B5FE0023764A1A2123
:102250004FF4C77013F0AEFE19E012237A22182152
:102260004FF4A97007F010F8664890F8D50038B917
:1022700000236EA21A214FF4A97013F09BFE06E012
:1022800000236CA21A214FF4A97013F093FE082CBE
:1022900001D1012000E000200090009820B14FF40F
:1022A0007F005749486003E04FF0501054494860A0
:1022B000544890F8D50008B15F4D00E05F4D51499A
:1022C000486B00230722042106F0D4FB12237A2254
:1022D0002E214FF4A97006F0D7FF00234E4A30217B
:1022E0004FF4A97013F066FE00234C4A08323021E7
:1022F0004FF4D27013F05EFE092C01D1012000E0F2
:1023000000200090009820B14FF47F003C494860C5
:1023100003E04FF050103A4948603A49886B002377
:102320000722042106F0A6FB12237A2244214FF44F
:10233000A97006F0A9FF0023374A46214FF4A9707F
:1023400013F038FE0023354A46214FF4D27013F0C3
:1023500031FE0A2C01D1012000E0002000900098FD
:1023600020B14FF47F002649486003E04FF0501041
:10237000234948602349C86B00230822042106F042
:1023800079FB12237A225A214FF4A97006F07CFFC0
:102390000023214A5C214FF4A97013F00BFE0023A7
:1023A0001E4A10325C214FF4D77013F003FE0B2C41
:1023B00001D1012000E000200090009820B14FF4EE
:1023C0007F000F49486003E04FF050100C4948600F
:1023D0000C49086C00230522042106F04BFB122354
:1023E0007A2270214FF4A97006F04EFF00230A4AAA
:1023F00072214FF4A97013F0DDFD002320E00000EE
:10240000C8000020E8040020119D0508939C0508E1
:10241000579D0508499D0508140A00209B9E050844
:1024200020562F6D7300000013960508B9D8B1D55A
:10243000000000004F464600A19D0508659D050867
:1024400075A272214FF4D27013F0B4FD0C2C01D19F
:10245000012000E000200090009820B14FF47F00A0
:102460006F49486003E04FF050106D4948606D4976
:10247000486C00230522042106F0FCFA12237A227C
:1024800086214FF4A97006F0FFFE0023664A8821DA
:102490004FF4A97013F08EFD00235FA288214FF442
:1024A000D27013F087FD0D2C1AD2DFE804F0191258
:1024B0001314070809150A0B0C0D0E0000BF00BF0E
:1024C00000BF00BF00BF00BF00BF022001F0ACFA98
:1024D0000AE000BF00BF00BF072001F0A5FA03E03B
:1024E000042001F0A1FA00BF00BF01F053FA0D2C47
:1024F0007ED2DFE804F0070B335B85868788898A04
:102500008B8C8D00022000F0E7FB83E06FF07F40B2
:102510004349086045484860424890F8D50008B1F2
:10252000434D00E0434D0020019013E00199C1EBC1
:10253000C1014A190199C1EB011303EB4111202399
:1025400003EB410188B20023F12113F033FD019820
:10255000401C019001980228E8D35BE06FF07F40B7
:102560002F490860314848602E4890F8D50008B1DE
:10257000314D00E0314D0020019013E00199C1EB95
:10258000C1014A190199C1EB011303EB4111202349
:1025900003EB410188B20023F12113F00BFD0198F8
:1025A000401C019001980228E8D333E06FF07F408F
:1025B0001B4908601D4848601A4890F8D50008B1CA
:1025C0001D4D00E01D4D0020019015E00199C1EB6B
:1025D000C1014A190199C1EB011303EB41112023F9
:1025E00003EB410188B20023F12113F0E3FC00E08A
:1025F0000FE00198401C019001980228E6D309E001
:1026000000BF00BF00BF00BF00BF00BF00BF00BFD2
:1026100000E000BF00BF7CBD20412F6D73000000B3
:10262000C8000020E8040020140A0020380031000F
:10263000119D0508939C0508579D0508499D0508AF
:1026400010B504F013FC01F0A5F902F033FE10BD43
:102650007CB50446FE4890F85800002872D1012C41
:1026600001D1012000E000200090009820B14FF43B
:102670007F00F849486003E04FF05010F54948608A
:1026800014235C221821762006F0FEFD6FF07F40B7
:10269000F0490860EE4890F8D50060B9EC4890F831
:1026A0005800C0EBC000EC49421800231A217620E4
:1026B00013F080FC0BE0E64890F85800C0EBC00037
:1026C000E649421800231A21762013F073FC022CED
:1026D00001D1012000E000200090009820B14FF4CB
:1026E0007F00DC49486003E04FF05010D949486052
:1026F00014235C222E21762006F0C6FD6FF07F4069
:10270000D4490860D249C86D00230722042106F08D
:10271000B1F90023D24A3021762013F04BFC00237C
:10272000D04A3021C82013F045FC032C01D10120F0
:1027300000E000200090009828B14FF47F00C549C8
:10274000486004E0EFE04FF05010C24948601423A5
:102750005C224421762006F097FD6FF07F40BD4952
:102760000860BB49086E00230722042106F082F9A5
:102770000023BB4A4621762013F01CFC0023B94AF3
:102780004621C82013F016FC042C01D1012000E0E2
:1027900000200090009820B14FF47F00AD494860C0
:1027A00003E04FF05010AB49486014235C225A21DB
:1027B000762006F069FD6FF07F40A6490860A449C5
:1027C000486E00230722042106F054F90023A44A8E
:1027D0005C21762013F0EEFB0023A24A5C21C82086
:1027E00013F0E8FB062C01D1012000E0002000904E
:1027F000009820B14FF47F009649486003E04FF005
:1028000050109449486014235C222E21C80006F021
:102810003BFD6FF07F408F4908608D49C86E0023F3
:102820000722042106F026F900238D4A30214FF4B7
:10283000B87013F0BFFB00238A4A921D30214FF479
:10284000E17013F0B7FB072C01D1012000E000205C
:102850000090009820B14FF47F007E49486003E06B
:102860004FF050107B49486014235C2244219000B3
:1028700006F00AFD6FF07F40764908607449086FE2
:1028800000230722042106F0F5F80023744A4621AC
:102890004FF4B87013F08EFB0023724A921D46214C
:1028A0004FF4E17013F086FB082C01D1012000E009
:1028B00000200090009820B14FF47F0065494860E7
:1028C00003E04FF050106349486014235C225A2102
:1028D000900006F0D9FC6FF07F405E4908605C49CB
:1028E000486F00230722042106F0C4F800235C4A45
:1028F0005C21880013F05EFB00235A4A921D5C2184
:102900004FF4E17013F056FB012C03D1062001F0C7
:102910008BF8C0E01CB9032001F086F8BBE008206A
:1029200001F082F8B7E04A4890F858000228F0D148
:10293000012C01D1012000E000200090009820B17E
:102940004FF47F004349486003E04FF05010414985
:10295000486014235C221821762006F095FC6FF065
:102960007F403C4908603A4890F8D50060B9384843
:1029700090F85800C0EBC0003749421800231A21D4
:10298000762013F017FB0BE0314890F85800C0EBAD
:10299000C0003249421800231A21762013F00AFBA6
:1029A000022C01D1012000E000200090009820B10D
:1029B0004FF47F002749486003E04FF0501025494D
:1029C0004860142368222E21762006F05DFC6FF00B
:1029D0007F40204908601E49886F0023072201219B
:1029E00006F048F800231E4A3021762013F0E2FA60
:1029F00000231C4A0C323021C82013F0DBFA062CCD
:102A000001D1012000E000200090009820B14FF497
:102A10007F001049486003E04FF050100D494860B6
:102A200014235C222E21C80006F02EFC6FF07F409C
:102A3000084908600649C86F00230722042106F0F0
:102A400019F80023064A30214FF4B8700CE000005A
:102A5000E8040020C80000200E9C05089E9B050885
:102A6000140A0020FB95050813F0A4FA0023354A48
:102A700030214FF4E17013F09DFA012C03D10620B0
:102A800000F0D2FF07E01CB9032000F0CDFF02E008
:102A9000082000F0C9FF2C4890F86D01B0BB092C4C
:102AA0003DD2DFE804F005093435363C37383900CB
:102AB000002000F011F933E000F06CFF6FF07F4070
:102AC0002249086022484860224890F8D50008B1A1
:102AD000214D00E0214D0020019013E00199C1EB50
:102AE000C1014A190199C1EB011303EB41112023E4
:102AF00003EB410188B20023F12113F05BFA019846
:102B0000401C019001980228E8D309E009E000BFC9
:102B100000BF00BF00BF00BF00F03CFF00E000BFEF
:102B20000EE000F037FF6FF07F400849086008486A
:102B3000486000230AA2F1214FF4CC7013F03AFA56
:102B40007CBD000001960508D4060020C8000020C6
:102B500038003100E80400209E9B0508899B050889
:102B6000C8B7C8CF0000000070B50646FFF768FD83
:102B70006FF07F404E4908604E4848604E4890F8DC
:102B8000D50008B14D4D00E04D4D002305F12C025C
:102B90000421184613F00EFA6FF07F404449086094
:102BA0004FF050104860444890F85800F0BB0024A3
:102BB0003AE0042C1BD2404890F8D50000EB4003CB
:102BC00003EB00103F4B03EBC00004EB440303EBAB
:102BD0000413C21804EB440000EBC4001A2303EBF7
:102BE000400081B20023184613F0E4F91BE032489C
:102BF00090F8D50000EB400303EB0010314B03EBE2
:102C0000C00004EB440303EB0413C218201F00EBC5
:102C1000400303EBC0001A2303EB400081B2002302
:102C2000FA2013F0C7F9641C082C00E001E0C0D3BF
:102C300039E0214890F85800022834D1002430E0CF
:102C4000042C16D21C4890F8D50000EBC0001E4B97
:102C500003EB001000EB041204EB440000EBC40093
:102C60001A2303EB400081B20023184613F0A2F9A7
:102C700016E0114890F8D50000EBC000124B03EBB2
:102C8000001000EB0412201F00EB400303EBC00018
:102C90001A2303EB400081B20023FA2013F08AF9D3
:102CA000641C082CCCD316B9002000F015F870BDB8
:102CB000C80000200352F300E8040020999705089B
:102CC000A7960508AB920508DB93050810B503200D
:102CD00000F002F810BD000010B5044600F05AFEE6
:102CE000002C7CD16FF07F40FC490860FC484860B4
:102CF000FC4890F8D500002840D00023FAA2E72134
:102D00001C2013F057F90023F9A2FB211C2013F01B
:102D100051F90023F8A2E7217E2013F04BF900239C
:102D2000F6A2FB217E2013F045F90023F5A2E7214E
:102D3000DC2013F03FF90023F0A2FB21DC2013F08C
:102D400039F90023F1A2E7214FF49D7013F032F915
:102D50000023EAA2FB214FF49D7013F02BF900230E
:102D6000ECA2E7214FF4CC7013F024F90023EBA27E
:102D7000FB214FF4CC7013F01DF96BE20023E8A2A5
:102D8000E7211C2013F016F90023E7A2FB211C20E9
:102D900013F010F90023E6A2E7217E2013F00AF9D0
:102DA0000023E5A2FB217E2013F004F90023E4A216
:102DB000E721DC2013F0FEF80023DFA2FB21DC205A
:102DC00013F0F8F80023E0A2E7214FF49D7013F010
:102DD000F1F80023D8A2FB214FF49D7000E010E031
:102DE00013F0E8F80023DAA2E7214FF4CC7013F0D7
:102DF000E1F80023D8A2FB214FF4CC7013F0DAF8ED
:102E000028E2012C2CD16FF07F40B4490860B4480F
:102E100048600023D2A2E721662013F0CBF80023FC
:102E2000D1A2FB21662013F0C5F80023D0A2E72130
:102E3000B62013F0BFF80023CFA2FB21B62013F079
:102E4000B9F80023CEA2E7214FF4D37013F0B2F803
:102E50000023CDA2FB214FF4D37013F0ABF8F9E1BE
:102E6000022C50D19E489D4948609E4890F8D5005C
:102E700020B300239CA2E7211C2013F09BF8002321
:102E80009BA2FB211C2013F095F80023A1A2E721AF
:102E90007E2013F08FF80023BDA2FB217E2013F0CB
:102EA00089F80023BCA2E721DC2013F083F800237B
:102EB000B7A2FB21DC2013F07DF8CBE1002398A220
:102EC000E7211C2013F076F8002397A2FB211C2099
:102ED00013F070F800239EA2E7217E2013F06AF819
:102EE00000239DA2FB217E2013F064F80023ACA2F6
:102EF000E721DC2013F05EF8002397A2FB21DC2001
:102F000013F058F8A6E1032C6CD17548734948605A
:102F1000744890F8D500002831D0002372A2E72130
:102F20001C2013F047F8002371A2FB211C2013F092
:102F300041F800236CA2E7217E2013F03BF8002328
:102F400093A2FB217E2013F035F8002392A2E72103
:102F5000DC2013F02FF800238DA2FB21DC2013F0DE
:102F600029F8002390A2E7214FF4FB7013F022F818
:102F700000238FA2FB21480013F01CF86AE1002314
:102F800067A2E7211C2013F015F8002366A2FB219D
:102F90001C2013F00FF8002361A2E7217E2013F01C
:102FA00009F800236CA2FB217E2013F003F8002314
:102FB0007BA2E721DC2012F0FDFF002366A2FB21AB
:102FC000DC2012F0F7FF00237BA2E7214FF4CC7046
:102FD00012F0F0FF00237AA2FB214FF4CC7012F024
:102FE000E9FF37E1042C50D13D483C4948603D4859
:102FF00090F8D50020B300233BA2E7211C2012F05B
:10300000D9FF00233AA2FB211C2012F0D3FF00239A
:1030100035A2E7217E2012F0CDFF00235CA2FB2128
:103020007E2012F0C7FF00235BA2E721DC2012F014
:10303000C1FF002356A2FB21DC2012F0BBFF09E1F7
:10304000002361A2E7211C2012F0B4FF00235CA240
:10305000FB211C2012F0AEFF00235DA2E7217E20A1
:1030600012F0A8FF00233EA2FB217E2012F0A2FF57
:10307000002359A2E721DC2012F09CFF002338A294
:10308000FB21DC2012F096FFE4E0052C24D114484B
:1030900012494860134890F8D50070B1002350A23F
:1030A000F1214FF49D7012F085FF00234DA2F12114
:1030B0004FF4CC7012F07EFFCCE000234BA2F12144
:1030C0004FF4987012F076FF00234BA2F1214FF4D9
:1030D000CC7012F06FFFBDE092E00000C80000204D
:1030E00038003100E80400204D4541530000000045
:1030F0004449535000000000424154005445535489
:103100000000000044594E41000000004C49535457
:10311000000000004C494D49540000005345540044
:10312000B2E2C1BF00000000CFD4CABE0000000060
:10313000B5E7B3D800000000B2E2CAD40000000036
:10314000B6AFCCAC00000000C1D0B1ED0000000073
:10315000BCABCFDE00000000C9E8D6C30000000011
:10316000CEC4BCFE00000000B9DCC0ED00000000D1
:10317000B1A3B4E600000000CAFDBEDD00000000FF
:10318000B8FCB6E00000000020322F320000000042
:10319000534554555000000020535953000000007F
:1031A000CFB5CDB3000000004649524D00000000ED
:1031B0005550444154450000B9CCBCFE000000000D
:1031C000C9FDBCB600000000CCF8D7AA0000000082
:1031D000B6C1C8A100000000B7A2CBCD000000001E
:1031E000524553004241434B00000000B2E2CAD4B2
:1031F000BDE1B9FB00000000B7B5BBD8000000007E
:10320000062C27D16FF07F401349086013484860AF
:10321000134890F8D50001280CD1002311A2F22107
:103220001C2012F0C7FE002310A2F2217E2012F013
:10323000C1FE0FE00A4890F8D50058B900230DA24E
:10324000F2211C2012F0B6FE00230CA2F2217E20F7
:1032500012F0B0FE10BD0000C800002038003100A0
:10326000E804002043414E43454C2000434F4E4666
:1032700049524D002020C8A1CFFB20002020C8B714
:10328000C8CF200011B581B06248007800285DD118
:10329000009057E09DF804100098401C814204D132
:1032A0004FF47F005C49486003E04FF050105A49EA
:1032B000486000980A281FD2009800EB8000800028
:1032C0001A3081B214235A22A02005F0DDFF5349A1
:1032D000009A51F8220000230722042105F0CAFBBE
:1032E000009800EB800080001A3081B201234C4A24
:1032F000A02012F05FFE22E000980A3800EB800068
:1033000080001A3081B214235A224FF4AF7005F0B6
:10331000BBFF4249009A51F82200002307220421F2
:1033200005F0A8FB00980A3800EB800080001A30F6
:1033300081B201233A4A4FF4AF7012F03BFE00987D
:10334000401C009000981028A4D33BE0314800783E
:10335000012837D10020009031E09DF8041000983A
:10336000401C814204D14FF47F002B49486003E0A8
:103370004FF0501028494860009800EB8000800012
:103380001A3081B214235A22A02005F07DFF234970
:10339000009A103251F8220000230722042105F080
:1033A00069FB009800EB800080001A3081B2012395
:1033B0001B4AA02012F0FEFD0098401C00900098CF
:1033C0000928CAD34FF050101349486000F0E2FAC0
:1033D0006FF07F401049086012484860124C02208C
:1033E000009013E00099C1EBC1010A190099C1EBEB
:1033F000011303EB4111202303EB410188B20023A9
:10340000F12112F0D7FD0098401C0090009805288B
:10341000E8D31CBD7E000020C8000020E406002088
:10342000140A002038003100B39B05087CB504461F
:10343000012C00D100E000200090009820B14FF452
:103440007F00F849486003E04FF05010F5494860AC
:1034500014235C221821762005F016FF6FF07F40C0
:10346000F0490860F04890F8D50060B9EE4890F84F
:103470008000C0EBC000ED49421800231A217620DD
:1034800012F098FD0BE0E84890F88000C0EBC00017
:10349000E749421800231A21762012F08BFD022CF6
:1034A00001D1012000E000200090009820B14FF4ED
:1034B0007F00DC49486003E04FF05010D949486074
:1034C00014235C222E21762005F0DEFE6FF07F4073
:1034D000D4490860D449D1F884000023072204218C
:1034E00005F0C8FA0023D34A3021762012F062FD9D
:1034F0000023D14A3021C82012F05CFD032C01D1F9
:10350000012000E000200090009820B14FF47F00DF
:10351000C449486003E04FF05010C249486014238A
:103520005C224421762005F0AFFE6FF07F40BD495C
:103530000860BD49D1F8880000230722042105F066
:1035400099FA0023BB4A4621762012F033FD00236E
:10355000B94A4621C82012F02DFD042C01D10120CA
:1035600000E000200090009820B14FF47F00AD49AA
:10357000486003E04FF05010AA49486014236422C9
:103580005A21762005F080FE6FF07F40A549086043
:10359000A549D1F8940000230522042105F06AFA18
:1035A0000023A44A5C21762012F004FD0023A24AE5
:1035B0001E325C21B22012F0FDFC052C01D101204D
:1035C00000E000200090009820B14FF47F00954962
:1035D000486003E04FF050109249486014235C2289
:1035E0001821900005F050FE6FF07F408D49086073
:1035F0008D4890F8D50068B98B4890F89000C0EBE2
:10360000C0008E49421800231A214FF4B87012F0FE
:10361000D1FC0CE0844890F89000C0EBC0008849D1
:10362000421800231A214FF4B87012F0C3FC062C84
:1036300001D1012000E000200090009820B14FF45B
:103640007F007849486003E04FF0501075494860AA
:10365000142370222E21C80005F016FE6FF07F4063
:10366000704908607049D1F88C00002308220121BC
:1036700005F000FA00236F4A30214FF4B87012F0C1
:1036800099FC00236C4A2A3230214FF4E57012F085
:1036900091FC072C01D1012000E00020009000984F
:1036A00020B14FF47F005F49486003E04FF05010B5
:1036B0005C4948601423702244214FF4B87005F02F
:1036C000E3FD6FF07F40574908605749D1F89C00EF
:1036D00000230822012105F0CDF90023554A462197
:1036E0004FF4B87012F066FC0023534A2A32462188
:1036F0004FF4E57012F05EFC082C01D1012000E0CF
:1037000000200090009820B14FF47F0045494860A8
:1037100003E04FF0501043494860142364225A21BB
:103720004FF4B87005F0B0FD6FF07F403D49086080
:103730003D49D1F8980000230522042105F09AF9AB
:1037400000233C4A5C21880012F034FC00233A4AF2
:103750001E325C214FF4D67012F02CFC394890F8E0
:103760006D01002877D124B1012C06D0052C6ED133
:103770002DE00020FFF7B0FA6CE000F00BF96FF0DD
:103780007F402849086030484860274890F8D500B5
:1037900008B1274D00E0254D0020019013E001996C
:1037A000C1EBC1014A190199C1EB011303EB4111AE
:1037B000202303EB410188B20023F12112F0FAFB30
:1037C0000198401C019001980228E8D342E000F0E3
:1037D000E1F86FF07F40134908601B4848601248C9
:1037E00090F8D50008B1164D00E0144D002001906E
:1037F00013E00199C1EBC1014A190199C1EB011311
:1038000003EB4111202303EB410188B20023F12196
:1038100012F0D0FB0198401C019001980328E8D3D6
:1038200018E018E0C8000020E8040020939C050878
:10383000119D0508140A0020FB950508E79C050862
:10384000FC9C0508D406002038003100FFE700F09A
:10385000A1F800BF0EE000F09DF86FF07F40064930
:10386000086006484860002305A2F1214FF4CC709F
:1038700012F0A0FB7CBD0000C80000203800310021
:10388000C8B7C8CF0000000070B5FEF7D9FE6FF0D2
:103890007F402449086024484860244890F8D500B7
:1038A00008B1234E00E0234E002306F1420204211A
:1038B000184612F07FFB6FF07F401A4908604FF006
:1038C00050104860194890F8D50008B91A4D00E02A
:1038D0001A4D002420E0042C0ED205EB041204EB58
:1038E000440000EBC4001A2303EB400081B2002324
:1038F000184612F05FFB0EE005EB0412201F00EBF0
:10390000400303EBC0001A2303EB400081B2002305
:10391000FA2012F04FFB641C082CDCD30020FFF7C8
:10392000DBF970BDC80000200352F300E80400205A
:1039300099970508A7960508FB9405087B95050847
:103940002DE9F84105468846144600261CE02078FB
:1039500000B91AE02078203800EB8000C00000EBAE
:103960008000C700F81707EB5070094901EBE00031
:10397000A919009088B228231A46414606F09CF9FE
:10398000641C06F11C0086B2E1E700BFBDE8F881C7
:103990003E130C0810B500243CE020482049486044
:1039A000A1000A31C4EB041202EB420201EB420116
:1039B00088B22B235A22E42105F066FC19481849E5
:1039C00048605E2204FB02F10B3188B201235A22C7
:1039D000E32105F059FCC4EB041101EB441164220E
:1039E00002EB410188B22C230122E32105F04CFCBB
:1039F00000200B494860C4EB041101EB4411642220
:103A000002EB4101491C88B22C230322E32105F07B
:103A10003BFC641C052CC0D310BD000038003100F5
:103A2000C80000206843690010B504467F4890F83C
:103A3000D50000287ED1012C0DD17D487D494860FC
:103A40004FF47F00086000237BA2CD214FF49170DA
:103A500012F0B0FAE9E0022C0ED14FF05010754987
:103A600048604FF47F000860002379A2CD214FF415
:103A70009B7012F09FFAD8E0032C0AD16C486D4974
:103A8000486014239622CD214FF49B7005F0FCFB77
:103A9000CBE0042C0BD14FF0501066494860142342
:103AA0009622CD214FF49B7005F0EEFBBDE0052C76
:103AB0000ED14FF050105F4948604FF47F0008600E
:103AC000002368A2CD214FF49B7012F073FAACE092
:103AD000062C0DD15648574948604FF47F000860C6
:103AE000002365A2CD214FF49B7012F063FA9CE095
:103AF000072C0ED14FF050104E4948604FF47F0014
:103B0000086000235CA2CD214FF49B7012F052FAA2
:103B10008BE0082C9ED14648464948604FF47F0010
:103B2000086000234AA2CD214FF49B7012F042FAA4
:103B30007BE0FFE7012C0CD13D483E4948604FF443
:103B40007F000860002351A2CD21AA2012F032FA92
:103B50006BE0022C0ED14FF05010364948604FF404
:103B60007F000860002351A2CD214FF48C7012F029
:103B700021FA5AE0032C0AD12D482E49486014231B
:103B80004FF48072CD21DA2005F07EFB4DE0042C4D
:103B90000AD14FF05010274948601423A201CD21CB
:103BA000DA2005F071FB40E0052C0ED14FF05010EB
:103BB000204948604FF47F000860002341A2CD21D6
:103BC0004FF48C7012F0F6F92FE0062C0DD1184846
:103BD000184948604FF47F000860002339A2CD21C6
:103BE0004FF48C7012F0E6F91FE0072C0ED14FF065
:103BF0005010104948604FF47F000860002331A244
:103C0000CD214FF48C7012F0D5F90EE0082C0CD1B8
:103C10000748084948604FF47F000860002323A24A
:103C2000CD214FF48C7012F0C5F910BDE8040020CE
:103C300065343400C8000020C7EBD3C3CAFDD7D613
:103C4000BCFCC5CCBBF2D0FDC5A5CAE4C8EB0000E6
:103C5000C7EBD3C3CAFDD7D6BCFCC5CCCAE4C8EBFE
:103C600000000000B0B4CFC2D0FDC5A5C7D0BBBB1B
:103C7000B2BDD6E800000000B0B4CFC2D0FDC5A5EB
:103C8000BFECCBD9D1A1D4F100000000496E707512
:103C9000742077697468206B6579626F6172642043
:103CA0006F7220656E636F6465722E00496E707569
:103CB000742077697468206B6579626F6172642E15
:103CC0000000000050726573732074686520656E93
:103CD000636F6465722E20200000000070B502F052
:103CE000BBFC6FF07F4023490860234848602348AD
:103CF00090F8D50008B1224E00E0224E002306F1D4
:103D000016020421184612F055F96FF07F40194948
:103D100008604FF0501048601B4D002424E0022C36
:103D200010D204EB840005EB400204EB440000EBEE
:103D3000C4001A2303EB400081B20023184612F09E
:103D400039F910E004EB840005EB4002A01E00EB03
:103D5000400303EBC0001A2303EB400081B20023B1
:103D6000FA2012F027F9641C032CD8D30020FEF7A8
:103D7000B3FF70BDC80000200352F300E804002028
:103D800099970508A79605088D9205087CB5054604
:103D9000012D00D100E000200090009820B14FF4E8
:103DA0007F006849486003E04FF050106549486063
:103DB00014235C221821582005F066FA6FF07F402A
:103DC000604908606049C86C00230522032104F0A3
:103DD00051FE00235D4A1A21582012F0EBF8022D03
:103DE00001D1012000E000200090009820B14FF4A4
:103DF0007F005449486003E04FF05010514948603B
:103E00001423682218214FF4A97005F03DFA6FF0D1
:103E10007F404C4908604C49486D0023052203212E
:103E200004F028FE0023494A1A214FF4A97012F029
:103E3000C1F8032D01D1012000E00020009000987E
:103E400020B14FF47F003F49486003E04FF050102D
:103E50003C49486014235C222E21582005F014FAB6
:103E60006FF07F40374908603749086D002305220D
:103E7000032104F0FFFD0023344A3021582012F0C2
:103E800099F825B1012D06D0022D58D12DE0002042
:103E9000FEF722FF54E0FFF77DFD6FF07F402949D8
:103EA00008602B484860284890F8D50008B1294C94
:103EB00000E0294C0020019013E00199C1EBC10101
:103EC0000A190199C1EB011303EB4111202303EB04
:103ED000410188B20023F12112F06CF80198401CD6
:103EE000019001980528E8D32AE0FFF753FD6FF011
:103EF0007F401449086016484860134890F8D50080
:103F000008B1164C00E0164C0020019013E0019916
:103F1000C1EBC1010A190199C1EB011303EB411176
:103F2000202303EB410188B20023F12112F042F873
:103F30000198401C019001980028E8D000E000BFE3
:103F400000BF7CBDC8000020E8040020140A002047
:103F500038003100519B0508579A0508E49D050873
:103F6000DD9D050870B502F07FFB6FF07F402C49A6
:103F700008602C4848602C4890F8D50008B12B4EBA
:103F800000E02B4E002306F184020421184612F0B3
:103F900011F86FF07F40224908604FF050104860E0
:103FA000214890F8D50008B1224D00E0224D0024B0
:103FB0002FE0062C11D24FF050101949486004EB45
:103FC000840005EB4002162304FB03F01A3081B293
:103FD0000023184611F0EEFF1AE0A01F022806D9B0
:103FE000082804D24FF050100D49486003E04FF00C
:103FF00050100B49486004EB840005EB4002A01F01
:10400000162358431A3081B20023FA2011F0D2FF50
:10401000641C0B2CCDD30320FEF75EFE70BD0000A8
:10402000C80000200352F300E80400209997050817
:10403000A7960508E99905087B99050810B502F0CF
:1040400015FFFFF7A7FC10BD30B595B0054603F08E
:10405000E3F801222946684601F03CF96C469DF8D8
:1040600000008DF8380001980F9002981090039886
:1040700011900498129005981390069814900F9838
:104080004FF47A71B0FBF1F00F900B9818B9002043
:10409000099008900A900F9815B030BD70B5FFF7E1
:1040A000CDFF6FF07F403D4908603D4848603D4886
:1040B00090F8D50008B13C4D00E03C4D002305F1DF
:1040C0006E020421184611F075FF6FF07F403349EE
:1040D00008604FF050104860002459E0032C2AD2A9
:1040E000304890F8D500012810D1C4EB0410304BB3
:1040F000C21804EB440000EBC4001A2303EB400099
:1041000081B20023184611F055FF40E0254890F891
:10411000D50030BBC4EB0410264BC21804EB44009E
:1041200000EBC4001A2303EB400081B200231846C1
:1041300011F040FF2BE01B4890F8D500012811D169
:10414000C4EB04101A4BC218E01E00EB400303EB53
:10415000C0001A2303EB400081B20023FA2011F0C3
:1041600029FF14E00F4890F8D50080B9C4EB041083
:10417000104BC218E01E00EB400303EBC0001A23F3
:1041800003EB400081B20023FA2011F013FF641CFE
:10419000062CA3D30520FEF79FFD70BDC8000020AC
:1041A0000352F300E804002099970508A796050834
:1041B000F79A05089D9A050810B5B048B0490860FF
:1041C0004FF050104860AF4890F8D500F0B9002388
:1041D000ADA25E214FF4967011F0ECFE0023ABA26D
:1041E0005E214FF4AF7011F0E5FEA94991F87D1002
:1041F000481C00230222194604F03CFC0023A54A77
:104200005E214FF4A17011F0D5FE1BE09D4890F89F
:10421000D500012816D100239FA25E214FF496708D
:1042200011F0C8FE9A4991F87D10481C0023022223
:10423000194604F01FFC0023964A5E214FF4A97032
:1042400011F0B8FE8F4890F8D50080B9904890F8EA
:104250007D108C48E430405CC0EBC00090494218AF
:1042600000235E214FF4C87011F0A4FE14E08548CD
:1042700090F8D50001280FD1854890F87D1081482D
:10428000E430405CC0EBC0008649421800235E2148
:104290004FF4C87011F08EFE7A4890F8D500E0B95E
:1042A000002381A272214FF4967011F083FE002347
:1042B0007FA288214FF4967011F07CFE00237EA22D
:1042C0009E214FF4967011F075FE00237CA2B4215C
:1042D0004FF4967011F06EFE20E06A4890F8D50019
:1042E00001281BD1002378A272214FF4967011F09F
:1042F00061FE002375A288214FF4967011F05AFEDA
:10430000002373A29E214FF4967011F053FE0023F8
:1043100070A2B4214FF4967011F04CFE594890F8F9
:10432000210038BB5A480068642806D200230722BF
:104330000421184604F09EFB06E05549002307229D
:104340000868042104F096FB5149002307220868FD
:10435000042104F08FFB00234E4A72214FF4B47005
:1043600011F028FE002358A272214FF4DC7011F0E6
:1043700021FE24E0434890F8210001281FD1444841
:104380000068642806D2002306220321184604F0A0
:1043900071FB06E03E49002306220868032104F071
:1043A00069FB00233B4A72214FF4B47011F002FE06
:1043B000002345A272214FF4DC7011F0FBFD31485F
:1043C00090F82000A8B93249002307224868042148
:1043D00004F050FB00232F4A88214FF4B47011F0F1
:1043E000E9FD00233DA288214FF4DC7011F0E2FDCD
:1043F00019E0244890F82000012814D12449002312
:1044000006224868032104F035FB0023214A882155
:104410004FF4B47011F0CEFD002330A288214FF488
:10442000DC7011F0C7FD1A4900230722C868032178
:1044300004F020FB0023174A9E214FF4B47011F0C2
:10444000B9FD002326A29E214FF4DC7011F0B2FDCD
:104450000F4900230422D1F88000012104F00AFB57
:1044600000230C4AB421480011F0A4FD00231DA232
:10447000B4214FF4DC7011F09DFD10BD00FFFF0072
:10448000C8000020E8040020B5DA0000B2BD00003A
:10449000D4060020140A0020537465700000000048
:1044A00036A205089FA20508B5E7D1B900000000B3
:1044B000B5E7C1F700000000B9A6C2CA00000000BD
:1044C000CAB1BCE400000000560000004900000032
:1044D0005000000054494D4500000000410000001C
:1044E00057000000730000002DE9F0410546012D42
:1044F00000D100E00020064626B14FF47F00FE49BF
:10450000486003E04FF05010FB49486014235C22E0
:104510001821762004F0B8FE6FF07F40F64908605D
:10452000F64991F8D60000230322194604F0A2FAB6
:104530000023F34A1A21762011F03CFD022D01D10F
:10454000012000E00020064626B14FF47F00EA4932
:10455000486003E04FF05010E749486014235C22A4
:104560002E21762004F090FE6FF07F40E249086033
:10457000E24890F8D50060B9E04890F8D700C0EB69
:10458000C000E049421800233021762011F012FDCE
:104590000BE0DA4890F8D700C0EBC000DA494218C7
:1045A00000233021762011F005FD032D01D10120DB
:1045B00000E00020064626B14FF47F00CE49486057
:1045C00003E04FF05010CC49486014235C22442192
:1045D000762004F059FEC949D1F8E00000230722F3
:1045E000042104F047FA6FF07F40C34908600023BC
:1045F000C34A4621762011F0DDFC0023C34A462140
:10460000C82011F0D7FC042D01D1012000E00020CA
:10461000064626B14FF47F00B749486003E04FF0EB
:104620005010B549486014235C221821900004F012
:104630002BFE6FF07F40B0490860B04890F8D5007D
:1046400068B9AE4890F8D900C0EBC000B049421834
:1046500000231A214FF4B87011F0ACFC0CE0A7480D
:1046600090F8D900C0EBC000AA49421800231A21D3
:104670004FF4B87011F09EFC052D01D1012000E02F
:104680000020064626B14FF47F009B49486003E0B6
:104690004FF050109849486014235C222E21C80026
:1046A00004F0F2FD6FF07F40934908609349D1F820
:1046B000DC0000230722042104F0DCF90023904AE7
:1046C00030214FF4B87011F075FC00238F4A30216F
:1046D0004FF4E17011F06EFC0D2D01D1012000E0CE
:1046E0000020064626B14FF47F008349486003E06E
:1046F0004FF050108049486014235C224421900000
:1047000004F0C2FD6FF07F407B4908607B4890F861
:10471000D50068B9794890F8D800C0EBC0007E4950
:104720004218002346214FF4B87011F043FC0CE00E
:10473000724890F8D800C0EBC000784942180023B6
:1047400046214FF4B87011F035FC062D01D101203F
:1047500000E00020064626B14FF47F00664948601D
:1047600003E04FF0501064494860102350225E214E
:10477000002004F089FD6FF07F405F4908605F48CA
:1047800090F8D500D8B9002365A25E21184611F033
:1047900011FC002363A25E21322011F00BFC624960
:1047A00091F87C10481C00230222194604F062F99B
:1047B0000023534A5E21162011F0FCFB19E04F48FC
:1047C00090F8D500012814D1002358A25E21184684
:1047D00011F0F0FB544991F87C10481C0023022290
:1047E000194604F047F90023454A5E21262011F0BE
:1047F000E1FB072D01D1012000E00020064626B193
:104800004FF47F003C49486003E04FF050103A49B4
:104810004860102350225E21642004F035FD3748A3
:1048200090F8D50078B9404890F87C103348E430CF
:10483000405CC0EBC0003F49421800235E21642069
:1048400011F0B8FB13E02D4890F8D50001280ED1E7
:10485000354890F87C102948E430405CC0EBC0003B
:104860003549421800235E21642011F0A3FB4FF06C
:104870005010214948602C4890F87C101F48E430C3
:10488000405C04287ED01D4890F8D500F0B9002384
:104890002AA27221184611F08DFB00232AA288213A
:1048A000184611F087FB002329A29E21184611F01B
:1048B00081FB002329A2B421184611F07BFB0023C1
:1048C00028A2CA21184611F075FB6AE00B4890F83F
:1048D000D500012865D1002324A27221184611F0C9
:1048E00069FB002323A28821184611F063FB0023F3
:1048F00022A29E21184646E0C8000020E8040020BD
:10490000140A00200CA2050821A20508019605083A
:10491000A19C0508D99C0508939C0508119D0508D4
:10492000B5DA0000B2BD0000D406002053746570F3
:104930000000000036A205089FA20508B8BAD4D826
:10494000B4F3D0A100000000CAB1BCE40000000034
:10495000B1C8BDCFC0E0D0CD00000000C9CFCFDED0
:1049600000000000CFC2CFDE000000004C4F4144E9
:104970000000000054696D6500000000436F6D7019
:104980000000000057E111F015FB0023F7A2B4214D
:10499000184611F00FFB0023F6A2CA21184611F0A9
:1049A00009FB122314227021C82004F06DFC12238D
:1049B0001422B221C82004F067FC12231422C8215B
:1049C000084604F061FCEC4890F87C10EB48405C31
:1049D00000EB4000EA4901EB400200237221C820AD
:1049E00011F0E8FAE44890F87C10E4486A30405C42
:1049F00000EB4000E34901EB40020023B421C82052
:104A000011F0D8FADC4890F87C10DC486A30405C41
:104A100000EB4000DB4901EB40020023CA21C82023
:104A200011F0C8FA0023D8A28821C82011F0C2FAD8
:104A3000082D01D1012000E00020064626B14FF4E8
:104A40007F00D249486003E04FF05010CF494860E2
:104A500014235C227021642004F016FC6FF07F4068
:104A6000CA490860C44890F87C10C448405C0228D9
:104A70000CD1C14991F87C20C049103151F8220075
:104A800000230722012103F0F5FF0BE0BA4991F85A
:104A90007C20BA49103151F8220000230822042159
:104AA00003F0E8FF0023BA4A7221642011F082FA71
:104AB000092D01D1012000E00020064626B14FF467
:104AC0007F00B249486003E04FF05010AF494860A2
:104AD00014235C228621642004F0D6FB6FF07F4013
:104AE000AA490860A44991F87C20A4494C3131F8C6
:104AF000120000230422012103F0BCFF0023A44A7A
:104B00008821642011F056FA0A2D01D1012000E01D
:104B10000020064626B14FF47F009C49486003E020
:104B20004FF050109949486014235C229C21642066
:104B300004F0AAFB6FF07F40944908608F48E43886
:104B400090F8D50078B98C4890F87C108B486A3082
:104B5000405CC0EBC0008F49421800239E216420B6
:104B600011F028FA0EE0844890F87C1083486A30EF
:104B7000405C00EBC0008849421800239E2164205D
:104B800011F018FA0B2D01D1012000E0002006469B
:104B900026B14FF47F007D49486003E04FF050108C
:104BA0007A49486014235C22B221642004F06CFB33
:104BB0006FF07F40754908606F4991F87C206F491C
:104BC0007C3151F8220000230722042103F052FF18
:104BD00000236F4AB421642011F0ECF90C2D01D1AF
:104BE000012000E00020064626B14FF47F0067490F
:104BF000486003E04FF050106449486014235C2281
:104C0000C821642004F040FB6FF07F405F490860DA
:104C1000594991F87C205949B83151F822000023B4
:104C20000722042103F026FF0023594ACA216420E9
:104C300011F0C0F99BE1504890F87C104F48405C5F
:104C40000428F7D14D48E43890F8D50018BB00236C
:104C5000AFF218327221184611F0ACF90023AFF20E
:104C600018328821184611F0A5F90023AFF220323E
:104C70009E21184611F09EF90023AFF22032B42194
:104C8000184611F097F90023AFF22832CA211846CE
:104C900011F090F926E03948E43890F8D500012861
:104CA00020D10023AFF23C327221184611F082F974
:104CB0000023AFF240328821184611F07BF900231F
:104CC000AFF248329E21184611F074F9002327A252
:104CD000B421184611F06EF9002326A2CA21184605
:104CE00011F068F9122314227021C82004F0CCFAC4
:104CF00012231422B221C82004F0C6FA122314226F
:104D0000C821084604F0C0FA00231FA28821C82049
:104D100011F050F9072D01D1012000E000200646D6
:104D200026B14FF47F001949486003E04FF050105E
:104D300016494860104991F87C201049103151F80B
:104D4000220000230722042103F094FE14235C2296
:104D50007021642004F098FA00230D4A7221642027
:104D600011F028F9082D19D1012018E04869676869
:104D7000000000004C6F7700D4060020CC05002016
:104D8000FB9505082B96050873000000C80000205D
:104D9000140A0020C2A2050824A305080020064624
:104DA00026B14FF47F00FA49486003E04FF05010FD
:104DB000F749486014235C227021642004F064FAEF
:104DC0006FF07F40F2490860F24991F87C20F24987
:104DD00051F8220000230722042103F04BFE002398
:104DE000EE4A7221642011F0E5F8092D01D101206D
:104DF00000E00020064626B14FF47F00E4494860F9
:104E000003E04FF05010E249486014235C228621F1
:104E1000642004F039FA6FF07F40DD490860DD4915
:104E200091F87C20DC493C3131F812000023042247
:104E3000012103F01FFE0023D84A8821642011F0CD
:104E4000B9F80A2D01D1012000E00020064626B164
:104E50004FF47F00CE49486003E04FF05010CC493A
:104E6000486014235C229C21642004F00DFA6FF04A
:104E70007F40C7490860C848F43890F8D50078B931
:104E8000C44890F87C10C4485A30405CC0EBC00065
:104E9000C349421800239E21642011F08BF80EE0D4
:104EA000BC4890F87C10BC485A30405C00EBC00015
:104EB000BC49421800239E21642011F07BF80B2D81
:104EC00001D1012000E00020064626B14FF47F000A
:104ED000AF49486003E04FF05010AD4948601423DB
:104EE0005C22B221642004F0CFF96FF07F40A84922
:104EF0000860A84991F87C20A7496C3151F822003C
:104F000000230722042103F0B5FD0023A34AB421A6
:104F1000642011F04FF80C2D01D1012000E0002099
:104F2000064626B14FF47F009949486003E04FF0F0
:104F300050109749486014235C22C821642004F073
:104F4000A3F96FF07F4092490860924991F87C2064
:104F50009149A83151F8220000230722042103F0CF
:104F600089FD00238D4ACA21642011F023F80D2DFC
:104F70001CD2DFE805F01B07141B15081016090AE0
:104F8000170B0C0000BF00BF00BF00BF00BF022016
:104F9000FEF74AFD0EE00520FEF746FD0AE000BFE1
:104FA00000BF00BF0720FEF73FFD03E00420FEF72F
:104FB0003BFD00BF00BF774890F86D01002870D11D
:104FC000FEF7E8FC7848007800286BD1072D59D00F
:104FD00005DC4DB1022D0BD0042D7AD12DE00A2D28
:104FE00079D00D2DF9D1AFE00520FDF775FE04E174
:104FF000FEF7D0FC6FF07F40654908606B48486061
:105000006548F43890F8D50008B1694F00E0694F61
:1050100000240FE0C4EBC401CA19C4EB041101EB76
:105020004411202303EB410188B20023F12110F049
:10503000C1FF641C032CEDD3DFE0FEF7ABFC6FF087
:105040007F4053490860594848605348F43890F805
:10505000D50008B1584F00E0584F00240FE0C4EBD2
:10506000C401CA19C4EB041101EB4411202303EB62
:10507000410188B20023F12110F09CFF641C022C36
:10508000EDD3BAE0FEF786FC6FF07F404049086040
:10509000464848604048F43890F8D50018B1484F69
:1050A00002E0D3E0AAE0474F00240FE0C4EBC401C4
:1050B000CA19C4EB041101EB4411202303EB410195
:1050C00088B20023F12110F075FF641C052CEDD38C
:1050D00093E091E0FFE7FEF75DFC6FF07F402C4925
:1050E0000860324848602C48F43890F8D500A8B1E0
:1050F000002410E004EBC4012A4BCA18C4EB0411CD
:1051000001EB4411202303EB410188B20023F1217C
:1051100010F050FF641C042CECD314E0002410E0C9
:10512000C4EBC4011E4BCA18C4EB041101EB4411BB
:10513000202303EB410188B20023F12110F03AFF54
:10514000641C042CECD358E0FEF724FC6FF07F4085
:105150000F490860154848600F48F43890F8D500AA
:10516000A8B1002410E0C4EBC401174BCA18C4EB6B
:10517000041101EB4411202303EB410188B2002309
:10518000F12110F017FF641C022CECD333E01DE07A
:10519000C8000020D4060020DC050020140A0020EE
:1051A000C2A2050824A305083300002038003100FE
:1051B00021A205080CA20508D99C0508A19C050898
:1051C0009FA2050836A20508119D0508002410E0DD
:1051D000C4EBC401264BCA18C4EB041101EB441103
:1051E000202303EB410188B20023F12110F0E2FEFD
:1051F000641C022CECD300E000BF36E01D480078B0
:10520000012832D1FEF7C6FB6FF07F401A490860D3
:105210001A4848601A4890F8D50008B1194F00E0C4
:10522000194F00240FE0C4EBC401CA19C4EB0411E8
:1052300001EB4411202303EB410188B20023F1214B
:1052400010F0B8FE641C052CEDD30EE0FEF7A2FBB7
:105250006FF07F40084908600848486000230BA2AF
:10526000F1214FF4CC7010F0A5FEBDE8F0810000F4
:10527000939C050833000020C8000020380031004E
:10528000E804002001A30508DEA20508C8B7C8CFBE
:105290000000000010B5054805494860962340F21B
:1052A000DF124C21002003F0EFFF10BD6534340005
:1052B000C800002010B5054805494860742340F235
:1052C000DF126E21002003F0DFFF10BD65343400D3
:1052D000C80000202DE9F04192B005460E46174661
:1052E00001201190F94800780D9001200B900020CA
:1052F0000A90099008900790029001900390019005
:105300000C9009E020200EA99DF8302088549DF8CB
:105310003000401CC0B20C909DF830000828F1DB32
:1053200000208DF840000FB1082400E00624AFE112
:10533000B8F1010F03D103F009FE0D9001E04FF029
:1053400001089DF8340000287ED001200B909DF8C4
:105350003400202879D2DFE800F0788291A0F2783A
:10536000CDBEAFDCF3F0EFEEED787F7E57331078F3
:1053700078EC78808178787878EB00200390119031
:105380009DF81C00A04218DA9DF82800A8B99DF8E5
:105390001C0000280CDD2E200EA99DF81C2088542E
:1053A0009DF81C0009909DF81C00401CC0B207909D
:1053B0009DF82800401CC0B20A90012004904CE1E6
:1053C00001200390002011909DF81C00A04218DAE3
:1053D0009DF82800A8B99DF81C0000280CDD2E209F
:1053E0000EA99DF81C2088549DF81C0009909DF87A
:1053F0001C00401CC0B207909DF82800401CC0B2A1
:105400000A900120049028E10220039000201190CE
:105410009DF81C00A0421BDA9DF82800C0B99DF839
:105420001C0000280CDD2E200EA99DF81C2088549D
:105430009DF81C0009909DF81C00401CC0B207900C
:105440009DF82800401C01E008E105E1C0B20A9087
:105450000120049001E100E1FFE0FEE0FDE09DF8A5
:105460001C00A04209DA31200EA99DF81C208854A6
:105470009DF81C00401CC0B20790EEE09DF81C0097
:10548000A04209DA32200EA99DF81C2088549DF80C
:105490001C00401CC0B20790DFE09DF81C00A04239
:1054A00009DA33200EA99DF81C2088549DF81C00B1
:1054B000401CC0B20790D0E09DF81C00A04209DA61
:1054C00034200EA99DF81C2088549DF81C00401C17
:1054D000C0B20790C1E09DF81C00A04209DA352057
:1054E0000EA99DF81C2088549DF81C00401CC0B2D9
:1054F0000790B2E09DF81C00A04209DA36200EA900
:105500009DF81C2088549DF81C00401CC0B20790D8
:10551000A3E09DF81C00A04209DA37200EA99DF8EF
:105520001C2088549DF81C00401CC0B2079094E0D9
:105530006EE06CE022E030E051E010E000E068E076
:105540009DF81C00A04209DA38200EA99DF81C2005
:1055500088549DF81C00401CC0B207907DE09DF867
:105560001C00A04209DA39200EA99DF81C2088549D
:105570009DF81C00401CC0B207906EE09DF81C0016
:10558000A04209DA30200EA99DF81C2088549DF80D
:105590001C00401CC0B207905FE09DF81C00A042B8
:1055A0001CDA9DF81C00002818DD9DF82800A8B919
:1055B0009DF81C0000280CDD2E200EA99DF81C2053
:1055C00088549DF81C0009909DF81C00401CC0B236
:1055D00007909DF82800401CC0B20A903DE09DF85D
:1055E0001C00002812DD9DF81C00401EC0B2079070
:1055F00020200EA99DF81C2088549DF824009DF8B9
:105600001C10884202D100200A90099025E024E075
:1056100023E00020039011909DF81C00A04218DAAE
:105620009DF82800A8B99DF81C0000280CDD2E204C
:105630000EA99DF81C2088549DF81C0009909DF827
:105640001C00401CC0B207909DF82800401CC0B24E
:105650000A900120049000E000BF00BF9DF82C00DC
:10566000B0B100200B906FF07F40194908604FF4F3
:105670007F004860B38810339AB271883088122353
:1056800003F002FE7188308800230EAA10F092FC0D
:105690009DF8440000287FF44BAE9DF81C000C9050
:1056A00009E030200EA99DF8302088549DF8300084
:1056B000401CC0B20C909DF830109DF82400401D95
:1056C0008142EEDB00200C903EE000007B000020D9
:1056D000C80000209DF83800302830DB9DF83800E5
:1056E00039282CDC0EA89DF83010405C302826DBD1
:1056F0000EA89DF83010405C392820DC9DF824006D
:105700009DF8301088420DDD019800EB80004000CC
:10571000019001990EA89DF83020805C3038084433
:1057200001900CE0019800EB80004000019001998D
:105730000EA89DF83020805C3038084401909DF818
:105740003000401CC0B20C909DF830109DF8240031
:10575000401D8142BEDB9DF8240002909DF80000B0
:105760002870019868600298A8600398E86004981F
:105770002861059868610698A86112B0BDE8F081BB
:105780002DE9F041074688466FF07F40FE490860EA
:105790004FF050104860FD4890F86B0150B9FC483C
:1057A00090F8D600052803DCF94890F8D6501DE0A3
:1057B00005251BE0F54890F86B0101280CD1F44851
:1057C00090F8D6000A2805DCF14890F8D600401F72
:1057D000C5B20BE0052509E0EC4890F86B01022802
:1057E00004D1EB4890F8D6000A38C5B2CA2340F27B
:1057F000DF125E21002003F047FD4FF050116FF0E3
:105800007F4004F09FF96FF07F40DF494860C5F1A9
:10581000040000EB400101EBC000CA21A1EB4000F5
:105820005D3883B201225E21002003F02DFDC5F119
:10583000040000EB400101EBC000CA21A1EB4000D5
:105840005D3883B201225E21282003F01DFDC5F1E1
:10585000040000EB400101EBC000CA21A1EB4000B5
:105860005D3883B201225E21782003F00DFD012412
:1058700015E0C5F1040101EB410202EBC101CA22AE
:10588000A2EB41015D398BB2642204FB02F101F10C
:10589000780001225E2103F0F7FC601CC4B2042CE6
:1058A000E7DB00240CE0162204FB02F000F15E01AD
:1058B000012340F2DF12002003F0E6FC601CC4B2BA
:1058C000A81C8442EFDB4FF05010AF494860B0484D
:1058D00090F8D500012826D10023AEA26121032033
:1058E00010F068FB0023ACA261213F2010F062FBA6
:1058F0000023ABA26121992010F05CFB0023A9A238
:105900006121FD2010F056FB0023A7A2612140F287
:10591000611010F04FFB0023A4A2612140F2B110EE
:1059200010F048FB29E09A4890F8D50028BB0023E6
:105930009FA26121032010F03DFB00239EA2612164
:105940003F2010F037FB00239DA26121992010F029
:1059500031FB00239CA26121FD2010F02BFB0023D2
:105960009BA2612140F2611010F024FB00239AA257
:10597000612140F2B11010F01DFBFEF70BF86FF043
:105980007F408149086096484860814890F8D5007A
:1059900008B1944E00E0944E00240FE0C4EBC40123
:1059A0008A19C4EB041101EB4411202303EB4100DD
:1059B0000023F12110F0FEFA601CC4B2052CEDDBCF
:1059C000002476E14FF050106F4948606F4991F81C
:1059D0006B1101EB81012144481C0023022219466E
:1059E00003F048F8162204FB02F000F177010023CF
:1059F0007E4A032010F0DEFA644890F86B0100EB59
:105A0000800003196248E430C05CC0EBC000784BF2
:105A1000C218162304FB03F000F1770100233520A0
:105A200010F0C8FA594890F86B0100EB800001199A
:105A300056488430405C6F4951F820005249086054
:105A4000524890F86B0100EB800001196A48405CF5
:105A5000C8B94E4991F86B1101EB81010A194B4904
:105A6000943151F8220000230722042103F002F8A8
:105A7000162204FB02F000F1770100235B4A7B2031
:105A800010F098FA22E0414890F86B0100EB80009A
:105A900001195948405C012818D13C4991F86B1113
:105AA00001EB81010A193949943151F82200002390
:105AB0000622032102F0DEFF162204FB02F000F1B1
:105AC00077010023494A7B2010F074FA2F4890F8A0
:105AD0006B0100EB800001192C488430405C474981
