:020000040804EE
:10000000C07F0120C101040829CD040869910408BA
:10001000F1CB040829140408DD6B0508000000007A
:1000200000000000000000000000000039F4040897
:100030007B1904080000000015D50408DD1305082D
:10004000DB010408DB010408DB01040895DF040878
:10005000DB010408DB010408DB010408DB01040800
:10006000DB01040851810408DB010408DB010408FA
:10007000DB010408DB010408DB010408DB010408E0
:10008000DB010408DB010408DB010408DB010408D0
:10009000DB010408DB010408DB010408DB010408C0
:1000A000DB010408DB010408DB010408DB010408B0
:1000B0000F160508DB010408DB010408DB01040856
:1000C000DB010408DB010408DB010408DB01040890
:1000D000DB010408CD2D0508DB010408452E0508C9
:1000E00039810408DB010408DB010408DB01040892
:1000F000DB010408DB010408DB010408DB01040860
:10010000DB010408DB010408DB010408DB0104084F
:10011000DB010408DB01040825160508DB010408DF
:10012000DB010408DB010408DB010408DB0104082F
:10013000DB010408DB010408DB010408DB0104081F
:10014000DB010408DB010408DB010408F5CD040829
:10015000DB010408DB010408DB010408DB010408FF
:10016000DB010408DB010408DB010408DB010408EF
:10017000DB010408DB010408DB010408DB010408DF
:10018000DB010408DB010408DB010408DB010408CF
:10019000DB010408DB010408DB010408DB010408BF
:1001A000DB010408DB010408DB010408DFF80CD0E4
:1001B00000F0F6FA0048004721A70508C07F01209B
:1001C0000648804706480047FEE7FEE7FEE7FEE7F1
:1001D000FEE7FEE7FEE7FEE7FEE7FEE7811405081F
:1001E000AD01040840EA01039B0703D009E008C9F8
:1001F000121F08C0042AFAD203E011F8013B00F8EC
:10020000013B521EF9D27047D2B201E000F8012B37
:10021000491EFBD270470022F6E710B513460A4686
:1002200004461946FFF7F0FF204610BD10B5002226
:1002300000E0521C835C8C5CA34201D1002BF8D1FE
:10024000D8B2E1B2401A10BD2DE9FE4F804681EAD6
:100250000300C00F0C46009021F0004123F0004540
:10026000B8EB0200A94105D24046214690461C4603
:100270000B46024623F00040104347D0270DC7F33A
:100280000A00C3F30A510290401A019040286BDA29
:10029000C3F3130040F4801B0098924620B1002362
:1002A000D2EB030A63EB0B0B01985946C0F14002F5
:1002B000504600F0CFF906460D4650465946019A81
:1002C00000F0E7F910EB08006141002487EA1152C1
:1002D00084EAE7731A4340D0009A62B3019A012A74
:1002E0004FEA075215DC001B61EB02014FF00042A0
:1002F00002EA0752CDE90042001C41F58011324666
:100300002B4600F0E7F903B0BDE8F08F40462146E8
:10031000F9E7001B61EB0201001C41F58013001896
:100320005B412018A2F5001747EB030140EAD570A6
:10033000B6196D4111E06D084FEA360645EAC07501
:100340004FEA0752001B61EB0201001C41F58011CE
:1003500049084FEA30000019514132462B4603B09C
:10036000BDE8F04F00F0A7B900980122400000233B
:10037000D0EB020263EBE073009821464FEAE07491
:10038000B8EB000061EB0401E9E783F000435BE7B1
:1003900081F0004158E72DE9FE4F81EA030404F0A3
:1003A000004421F0004100944FF0000B23F0004383
:1003B00050EA01045ED052EA03045BD0C3F30A544E
:1003C000C1F30A552C44A4F2F3340194A0FB025467
:1003D000C1F3130141F48011C3F3130343F48013F9
:1003E00001FB024400FB034E840A970A44EA81544D
:1003F00047EA8357A4FB076802958D0A05FB07852A
:100400004FEA932C04FB0C542705029D4FEA065833
:1004100047EA1637B5EB08056EEB070C870E920E10
:1004200047EA811742EA8312A7FB0201B6EB0B01F0
:1004300064EB00042B0D43EA0C335E1844EB1C50B4
:10044000DA465146E7FB0201C5F313044FEA0B33CA
:1004500043EA14534FEA0432019C43EA0603A4F131
:100460000C040294009CCDE900B400F033F903B011
:10047000BDE8F08F00200146F9E72DE9F04D81EA53
:10048000030404F0004B21F0004514464FF0000A2D
:1004900023F0004150EA050220D054EA01021DD0A9
:1004A000C5F30A570246C5F31303C1F31300C1F3A2
:1004B0000A5640F4801543F48013A7EB0608101B7E
:1004C000D64608F2FD3873EB050002D308F10108A7
:1004D00001E092185B41B8F1000F03DA00200146F9
:1004E000BDE8F08D00204FF48011064684460EE0F2
:1004F000171B73EB050705D3121B63EB05030643BC
:100500004CEA010C49084FEA300092185B4150EA6E
:100510000107EDD152EA030012D082EA040083EA17
:100520000501084305D0101BAB4106D20122002370
:1005300006E000224FF0004302E06FF0010253108A
:100540001AEB06004CEB085110EB0A0041EB0B01D3
:10055000BDE8F04D00F0AFB80EB5C10F80EAE07015
:100560000844CA07002140F233438DE80E000A46D2
:100570000B4600F0AFF803B000BD0EB540F23341BA
:1005800002910021CDE900110A460B4600F0A2F8C5
:1005900003B000BDC1F30A5210B5C1F3130140F21C
:1005A000FF3341F480119A4201DA002010BD40F27D
:1005B00033439A42A2F2334203DC524200F059F82C
:1005C00010BD904010BD000030B5041E71F1000454
:1005D00004DB4FF00044404264EB0101141E73F150
:1005E000000405DB1C464FF00043524263EB04035A
:1005F0008B4208BF824230BD30B5041E71F1000449
:1006000004DB4FF00044404264EB0101141E73F11F
:10061000000405DB1C464FF00043524263EB040329
:10062000994208BF904230BD30B50B4601460020CC
:100630002022012409E021FA02F59D4205D303FAA4
:1006400002F5491B04FA02F52844151EA2F1010225
:10065000F1DC30BD202A04DB203A00FA02F1002050
:1006600070479140C2F1200320FA03F319439040F0
:100670007047202A04DB203A21FA02F0002170475B
:1006800021FA02F3D040C2F12002914008431946FA
:100690007047202A06DBCB17203A41FA02F043EAE2
:1006A000E07306E041FA02F3D040C2F1200291402B
:1006B00008431946704710B5141E73F1000408DA98
:1006C000401C41F1000192185B411A4301D120F016
:1006D000010010BD2DE9F04D92469B4611B1B1FAD3
:1006E00081F202E0B0FA80F220329046FFF7B2FFCA
:1006F00004460F4640EA0A0041EA0B0153465A46B7
:10070000084313D0114653EA010019D0C8F1400242
:100710005046FFF7AEFF05460E4650465946424644
:10072000FFF798FF084305D0012004E02046394632
:10073000BDE8F08D0020054346EAE0762C433743C0
:100740000A986305E40AA0EB08000022FD0A44EAC7
:1007500047540A3002D500200146E9E70105101987
:100760006941DDE9084500196941BDE8F04DA2E79E
:1007700070B521F0004303430CD0C1F30A550024A7
:10078000D5EB040564EB0403D617AD1AB34102DBC5
:100790000020014670BD201841EB025170BD0000E1
:1007A000064C074D06E0E06840F0010394E80700BE
:1007B00098471034AC42F6D3FFF7FCFC00470F0813
:1007C00020470F082DE9F04D00231A461B1A8A41D5
:1007D00003DB00200146BDE8F08DC1F30A52C1F3EE
:1007E000130141F480154FF0000BD10702D100181E
:1007F0006D41521E0027044640F2FF11384601EBBE
:10080000620A3E468046024600204FF48011FFF700
:1008100030FFC2197141BB1846EB0100B4EB030C69
:1008200075EB000C04D3E41A65EB000517460E4681
:10083000241908F101006D4180463428E3DDF919DF
:1008400046EB0600091BA84103D24FF0FF321346C6
:1008500001E0002213461BEB070046EB0A51BDE8FE
:10086000F04DFFF728BF70B58C1810F8015B15F03C
:10087000070301D110F8013B2A1106D110F8012B12
:1008800003E010F8016B01F8016B5B1EF9D12B0737
:1008900005D40023521E0DD401F8013BFAE710F8ED
:1008A000013BCB1A921C03E013F8015B01F8015BDA
:1008B000521EF9D5A142D8D3002070BD0146487818
:1008C0000A7840EA0220704770B505460C46084891
:1008D0000560204600F00EF800BF054800680028BB
:1008E000FBD100214FF0804011F0F7F970BD0000FE
:1008F000300200203EB5044600214FF0804011F048
:10090000ECF900220121880711F02EFB022C02D104
:100910000B20019004E0012C02D142F6DF6001902F
:100920000520ADF800000020ADF80800ADF8020089
:1009300069464FF0804011F06DFB0121880711F0EE
:10094000C9F90121880711F0B6F901221146900773
:1009500011F00AFB0121880711F0BFF93EBD00002C
:1009600010B54FF480711448FFF755FC012012496F
:10097000087006204870002088700D20C870002084
:100980000871487188710D4890F85800C8710821A5
:10099000094808F0EBFB00120749087208210648D5
:1009A00008F0E4FB044948720A21034815F0E4FE0C
:1009B00001200349087010BDE62C0120A00500208D
:1009C000C801002070B504460D4659485949486091
:1009D0002CBB59480068642806D200230722042152
:1009E000184608F001FC06E0534900230722086876
:1009F000042108F0F9FB504900230722086804216C
:100A000008F0F2FB00234D4A8221502016F0B6FE7A
:100A100000234BA28221A02016F0B0FE1FE0012C83
:100A20001DD145480068642806D200230622032110
:100A3000184608F0D9FB06E03F4900230622086863
:100A4000032108F0D1FB00233C4A8221502016F0FC
:100A500095FE00233AA28221A02016F08FFE9DB9B8
:100A60003549002307224868042108F0BDFB002314
:100A7000324AA021502016F081FE002331A2A0218D
:100A8000084616F07BFE14E0012D12D12A490023FE
:100A900006224868032108F0A7FB0023274AA0216B
:100AA000502016F06BFE002326A2A021084616F067
:100AB00065FE214900230622C868032108F094FB43
:100AC00000231E4ABE21502016F058FE00231EA20D
:100AD000BE21A02016F052FE174900230722886885
:100AE000042108F081FB0023144A82214FF48C700A
:100AF00016F044FE002315A282214FF4B47016F0C4
:100B00003DFE0D4900230622886F194608F06CFB54
:100B100000230A4AA0214FF48C7016F02FFE002308
:100B20000BA2A0214FF4B47016F028FE70BD000097
:100B30006534340080010020A4070020E40A00206E
:100B4000560000004100000057000000A6B8000059
:100B50006D41480070B586B0002004900024002547
:100B60000126F8490870F84908704FF0501008F055
:100B7000E7FE002002F04CF8002003900EF0AEFEDD
:100B800001E1BDF81000401C80B20490EF480078ED
:100B900018B9204607F06CFBC5B2ED480078012873
:100BA00001D101262C466FF07F40EA490860EA48EF
:100BB000007838B10020E849087006F099FE00205E
:100BC000E6490870E6480078012804D10020E4498D
:100BD00008700DF0BDFDE3480078012805D1002024
:100BE000E04908700DF0CEFA0126012E03D120460F
:100BF00001F082FD0026D3480078012804D10DF0D1
:100C00008DFA0020CF490870D74890F86D0138B9A7
:100C1000D64A92F8201092F82100FFF7D3FE22E086
:100C2000D14890F86D0101281DD10BF0E3FF02F0CF
:100C300073FF6FF07F40C7490860CD4848600023CC
:100C4000CCA2F1214FF4CC7016F098FD0220C649D9
:100C500081F86D01C548B0F8DC01401CC349A1F81A
:100C6000DC0110F09DFBC548007870B1C4480078E5
:100C7000052805D10EF032FE0020C149087004E0BD
:100C8000BF480078401CBE490870BE484078012823
:100C900079D1BD4800780028FAD1BA488078002878
:100CA000F6D1012608F00CFD05909DF81400B74917
:100CB00008709DF81400002871D0A448007800281E
:100CC0006DD19DF814000E286AD00ADC0E2868D277
:100CD000DFE800F067F3F4F5ECEBF8F7F6F9FAFB70
:100CE000E4FD182874D008DCA0F10F000628EED22D
:100CF000DFE800F0FE665B4D31101C2869D004DC93
:100D0000192867D01A284CD1AAE01F2870D0422891
:100D1000F9D1DFE114B1012C1AD106E09C4800782A
:100D200010B906209B49087013E09948007870B903
:100D300000208E4981F858000EF0D0FD4FF0501081
:100D400008F0FEFD012001F063FF10F029FB00E038
:100D500000BF00BFFAE214B1012C15D100E014E08D
:100D60008B48007870B90220804981F858000EF055
:100D7000B5FD4FF0501008F0E3FD012001F048FFF1
:100D800010F00EFB01E0E1E200BF00BFDEE24CB973
:100D90007F48007810B916207E49087003E0D6E23B
:100DA00094E0D2E200BF00BFD0E234B978480078C6
:100DB00010B917207749087000E000BF00BFC5E2F6
:100DC000694890F86D01A0B92CB1012C0ED109E051
:100DD000BAE2B0E11DE06E48007810B90D206D490F
:100DE000087004E004206149487000E000BF0FE093
:100DF00092E15D4890F86C0150B900205A4981F8A1
:100E00006D014FF0501008F09BFD002001F000FF35
:100E10009CE2564890F8580058B9052C02DD201F76
:100E2000C4B21CE0032C1ADA002C18DD601EC4B218
:100E300015E04E4890F85800022810D1062C01D138
:100E400002240CE0052C01D1022408E0022C02D17E
:100E5000601EC4B203E0012C01D1601EC4B275E271
:100E6000424890F8580058B9052C04DA012C02DDEC
:100E7000201DC4B220E0022C1EDA601CC4B21BE0AC
:100E80003A4890F85800022816D1022C01D10624C5
:100E900012E0012C0ED102240EE018E044E114E02F
:100EA00012E010E00CE00CE00CE036E174E106E04A
:100EB00004E002E004B9012448E200BF00BF00BF23
:100EC00000BF00BF00BF00BF00BF00BF00BFA01E2B
:100ED00007287BD2DFE800F004607BFB95C5E000CB
:100EE0002B48007858BB214890F8580080B900E0A2
:100EF000F1E07620ADF804003020ADF806004C207B
:100F0000ADF8080001A805F05EF81849C86512E0C0
:100F1000164890F8580002280DD17620ADF804004C
:100F20003020ADF806005020ADF8080001A805F00B
:100F300092F80E4988670BF099FF0EF0CFFC10F085
:100F40002FFAC5E05500002057000020780000204F
:100F50007A010020800100205D0000206400002054
:100F60003D0000203E000020A4070020A005002036
:100F700038003100C8B7C8CF00000000C801002009
:100F80008000002070010020580100208300002014
:100F90007C00002058000020F8480078A8B9F848E4
:100FA00090F8580068B97620ADF804004620ADF8F6
:100FB00006004C20ADF8080001A805F004F8F0493F
:100FC00008660BF053FF10F0EBF981E07FE0EB488F
:100FD0000078A8B9EA4890F8580068B97620ADF8CA
:100FE00004005C20ADF806004C20ADF8080001A814
:100FF00004F0E9FFE24948660BF038FF10F0D0F941
:1010000066E0DE48007858BBDD4890F8580078B9B3
:101010004FF4B870ADF804003020ADF806004C2055
:10102000ADF8080001A805F0E2F8D549C86613E05C
:10103000D34890F8580002280ED14FF4B870ADF89C
:1010400004003020ADF806004C20ADF8080001A8DF
:1010500005F0CDF8CA49C8670BF008FF10F0A0F9F9
:1010600036E0C6480078B0B9C54890F8580070B965
:101070004FF4B870ADF804004620ADF806004C20DF
:10108000ADF8080001A805F0B2F8BD4908670BF0FB
:10109000EDFE10F085F91BE0B8480078B0B9B8480B
:1010A00090F8580070B94FF4B870ADF804005C20A7
:1010B000ADF806004C20ADF8080001A805F097F83F
:1010C000AF4948670BF0D2FE10F06AF900E000BFAC
:1010D00000BF3BE13AE1A948007890B90320A94953
:1010E000087010F073F90120A74908709FEDA70A56
:1010F000A74880ED1D0A0120A04908700EF0EEFB04
:1011000009E003209F49087000209C4908700EF0F8
:10111000E5FB10F053F919E118E19848007810B98F
:1011200012209C49087011E19448007810B90620FB
:10113000984908700AE1012C2DD1914890F8580087
:1011400090B98E48007830BB02208D4981F8580054
:101150000EF0C4FB4FF0501008F0F2FB012001F03C
:1011600057FD10F01DF916E0854890F85800022848
:1011700011D18248007870B90020814981F8580067
:101180000EF0ACFB4FF0501008F0DAFB012001F03C
:101190003FFD10F005F9D9E0A01E07287ED2DFE858
:1011A00000F004344ED0689AB5007448007848BB0B
:1011B000734890F8580070B97620ADF804003020DC
:1011C000ADF806004C20ADF8080001A804F0FBFEC5
:1011D0006B49C86512E06A4890F8580002280DD1A2
:1011E0007620ADF804003020ADF806005020ADF8B0
:1011F000080001A804F02FFF614988670BF036FE54
:101200000EF06CFB10F0CCF89CE05C480078A8B9BC
:101210005B4890F8580068B97620ADF80400462085
:10122000ADF806004C20ADF8080001A804F0CBFE94
:10123000534908660BF01AFE10F0B2F882E04F48EE
:101240000078A8B94E4890F8580068B97620ADF8F3
:1012500004005C20ADF806004C20ADF8080001A8A1
:1012600004F0B1FE464948660BF000FE10F098F815
:1012700068E04248007868BB414890F8580088B957
:101280004FF4B870ADF804003020ADF806004C20E3
:10129000ADF8080001A804F0AAFF00E051E03849C9
:1012A000C86613E0364890F8580002280ED14FF473
:1012B000B870ADF804003020ADF806004C20ADF851
:1012C000080001A804F093FF2D49C8670BF0CEFD7C
:1012D00010F066F836E029480078B0B9284890F850
:1012E000580070B94FF4B870ADF804004620ADF85E
:1012F00006004C20ADF8080001A804F078FF204952
:1013000008670BF0B3FD10F04BF81BE01B480078AA
:10131000B0B91B4890F8580070B94FF4B870ADF8E8
:1013200004005C20ADF806004C20ADF8080001A8D0
:1013300004F05DFF124948670BF098FD10F030F89B
:1013400000E000BF00BF01E000E000BF28E09DF822
:10135000140028B310480078012821D19DF814000A
:1013600016281BD10C480078012806D100200A4914
:1013700008700846007806F025FB10E07C0000208D
:10138000A00500207F0000203400002000000000A5
:10139000A4070020580000207800002000BF00BFF4
:1013A0000348007815283FF4ECAB06B070BD000090
:1013B0005800002010B54FF48061024807F052FD3C
:1013C00010BD00000008024010B54FF480610248D3
:1013D00007F04AFD10BD00000008024010B50446A9
:1013E000A21E0E480E4B1B68C1180E48FEF7FAFEEF
:1013F000A01EC1B20B4807F0B9FE0112A01E094A97
:101400001154C1B2104607F0B1FEC1B2601E054AC8
:1014100011542146104615F0AFF910BD720C002092
:101420006C000020700B002000BFFEE710B50446E2
:101430004FF480716748FEF7EEFE012065490870A1
:101440006548007810B90846847007E06248007863
:10145000012803D104F110005E498870A5205D4980
:1014600048705D48007800284BD1012C05D0022C33
:1014700003D0092C01D00A2C1BD1601E574951F80A
:101480002000000E5349C870601E544951F82000D6
:10149000000C50490871601E504931F82000000AC4
:1014A0004C494871601E4D4911F820004949887126
:1014B0007EE0601E494951F820000A21B0FBF1F09E
:1014C000000E4449C870601E444951F820000A21AA
:1014D000B0FBF1F0000C3F490871601E3F4951F824
:1014E00020000A21B0FBF1F0000A3A494871601E61
:1014F0003A4951F820000A21B0FBF1F035498871D2
:1015000056E035480078012852D1012C05D0022C34
:1015100003D0032C01D0042C1FD104F10F002F495C
:1015200051F82000000E2B49C87004F10F002B4920
:1015300051F82000000C2749087104F10F002749D9
:1015400031F82000000A2349487104F10F002349B3
:1015500011F820001F4988712AE004F10F001F498B
:1015600051F820000A21B0FBF1F0000E1949C870B3
:1015700004F10F00194951F820000A21B0FBF1F0E5
:10158000000C1449087104F10F00144951F82000AF
:101590000A21B0FBF1F0000A0E49487104F10F0076
:1015A0000E4951F820000A21B0FBF1F00949887179
:1015B0000721084807F0DAFD00120649C871072123
:1015C000044807F0D3FD034908720921014815F0CA
:1015D000D3F810BDE62C012086000020B4070020BF
:1015E00010B50121C8050CF095F800214FF400005A
:1015F0000CF090F810BD000001460020034A52682C
:101600000A400AB1012000E00020704700B002400B
:1016100070B50021002200230024344D2D68344E83
:101620003540324E356035462D68066835432F4EBD
:10163000356035466D6B25F00705756335466D6B76
:1016400046683543294E7563456835B9C568290232
:10165000058A2A04057D2B0621E04568012D05D168
:10166000C5682902058A2A04002318E04568022D6E
:1016700005D1C56869010569EA0200230FE04568E4
:10168000032D06D1C56869010569AA024569EB0306
:1016900005E0C568290105692A0245692B0341EA6D
:1016A0000205866835431D43104EB66B35430F4E19
:1016B000B5638569F56335462D6C6FF30D053564AB
:1016C00035462D6CC6693543084E3564858C2C042F
:1016D00035466D6C05F04045756435466D6C066A9F
:1016E00026433543014E756470BD000000B00240D2
:1016F000FCE0FCFF0348006840F00100014908607D
:101700007047000000B002400246094B9A4201D2E5
:10171000084801E00648103801F000531BB1064BA1
:101720000B40C36002E0044B0B4083607047000035
:1017300010640240006002407D0F7D0F0246094B9D
:101740009A4201D2084801E00648103801F00053DF
:101750001BB1064B0B40C36002E0044B0B4083609F
:101760007047000010640240006002407D0F7D0F52
:1017700021B1026842F00102026003E0026822F037
:101780000102026070470000016821F00101016060
:101790000021016041608160C160016121214161DE
:1017A0004A49884204D13D21484A103A91608CE070
:1017B00046491831884205D14FF47461434A103AC2
:1017C000916082E041493031884205D14FF4741173
:1017D0003E4A103A916078E03C494831884205D150
:1017E0004FF07461394A103A91606EE037496031C8
:1017F000884204D13649354A103AD16065E0334910
:101800007831884204D13349304A103AD1605CE0E3
:101810002E499031884204D12F492C4A103AD16088
:1018200053E02A49A831884205D14FF03D51274A5B
:10183000103AD16049E02949884204D13D21274A24
:10184000083A116041E025491831884205D14FF42A
:101850007461224A083A116037E0204930318842E9
:1018600005D14FF474111D4A083A11602DE01B494F
:101870004831884205D14FF07461184A083A116026
:1018800023E016496031884204D11149134A121FDE
:1018900011601AE011497831884204D10D490F4A8C
:1018A000121F116011E00D499031884204D10A499C
:1018B0000A4A121F116008E00849A831884204D181
:1018C0004FF03D51054A121F1160704710600240F1
:1018D0003D000020400F002000003D201064024029
:1018E000014600200A6802F001020AB1012000E06E
:1018F000002070470146486880B2704710B500224A
:101900000268134B1A40CC680B6823434C6923438D
:101910008C692343CC6923430C6A23434C6A2343D9
:101920008C6A23434C6B23438C6B23431A43026022
:10193000426922F00702D1E90B3423431A43426182
:101940000B6943604B6883608B68C36010BD000007
:101950003F801CF041607047002101604160816060
:10196000C160016141618161C16101624162816265
:10197000C1620163416381637047704710B586B0EF
:101980000446012108460BF0B5FE012110200BF0A2
:1019900011FF07220A21274807F038FA07220921F8
:1019A000244807F033FA00208DF8160001208DF846
:1019B000170002208DF814000002049002208DF818
:1019C000150004A91B4807F0D9F902208DF814006E
:1019D0004002049004A9174807F0D0F900940020B1
:1019E000ADF80400ADF80600ADF80800ADF80C0045
:1019F0000C20ADF80A0069460F4811F0D1FA0BF03F
:101A000094F9012240F224410B4811F0A3FA01217C
:101A1000094811F053FA01224021074811F05AFAFF
:101A200001228021044811F055FA00F007F806B0B1
:101A300010BD0000000002400010014000B591B050
:101A4000012188050BF056FE3848FFF79DFE02A8DD
:101A5000FFF782FF00BF3548FFF742FF0028FAD1A9
:101A60004FF00060029032480390324804904020CA
:101A700005900020069007904FF4806008900020A9
:101A800009900A900B904FF480300C9000200D903C
:101A900003200E9000200F90109002A92348FFF71A
:101AA0002DFF22487838FFF76FFE00BF1F487838B7
:101AB000FFF716FF0028F9D14FF0006002901C4894
:101AC00003901D480490002005904FF4807006900C
:101AD000002007904FF480600890002009900A9041
:101AE0000B904FF400300C9000200D9003200E90CE
:101AF00000200F90109002A90C487838FFF7FEFEE6
:101B00003A208DF804000D208DF8050000208DF896
:101B1000060001208DF8070001A80BF01BF9012138
:101B200002487838FFF724FE11B000BDB8640240C7
:101B300004100140E62F0120E62E01207CB504466A
:101B40006FF07F40F7490860012C01D1012000E0CF
:101B500000200090009820B14FF47F00F1494860C8
:101B600003E04FF05010EF494860EF49002307228F
:101B7000D1F8B800042107F037FB122368221A219C
:101B8000582007F011FF0023E84A1A21582015F0C9
:101B9000F5FD0023E64A1A21AA2015F0EFFD022CDC
:101BA00001D1012000E000200090009820B14FF406
:101BB0007F00DC49486003E04FF05010D94948608D
:101BC000D94900230722D1F8BC00042107F00CFBFF
:101BD000122368222E21582007F0E6FE0023D34A64
:101BE0003021582015F0CAFD0023D14A3021AA2007
:101BF00015F0C4FD032C01D1012000E0002000906D
:101C0000009820B14FF47F00C649486003E04FF0D0
:101C10005010C4494860C44900230722D1F8C000CD
:101C2000042107F0E1FA122368224621582007F028
:101C3000BBFE0023BD4A4621582015F09FFD00231E
:101C4000BB4A08324621AA2015F098FD042C01D188
:101C5000012000E000200090009820B14FF47F00A8
:101C6000B049486003E04FF05010AE494860AE49BB
:101C700000230722D1F8C400042107F0B5FA12238B
:101C80007A225A21582007F08FFE0023A74A5C21B0
:101C9000582015F073FD0023A54A08325C21AA20C4
:101CA00015F06CFD052C01D1012000E00020009012
:101CB000009820B14FF47F009A49486003E04FF04C
:101CC000501098494860984900230822D1F8C8006C
:101CD000042107F089FA12237A227021582007F094
:101CE00063FE0023914A7221582015F047FD00231E
:101CF0008F4A10327221B42015F040FD062C01D11C
:101D0000012000E000200090009820B14FF47F00F7
:101D10008449486003E04FF050108249486082498E
:101D200000230822D1F8CC00042107F05DFA122329
:101D30007A228621582007F037FE00237B4A88212B
:101D4000582015F01BFD0023794A10328821B42059
:101D500015F014FD072C01D1012000E000200090B7
:101D6000009820B14FF47F006E49486003E04FF0C7
:101D700050106C4948606C4890F8D50008B16D4D22
:101D800000E06D4D12237A2218214FF4A97007F05C
:101D90000BFE654890F8D000C0EBC000421900234C
:101DA0001A214FF4A97015F0E9FC082C01D101208B
:101DB00000E000200090009820B14FF47F005949C6
:101DC000486003E04FF0501056494860564890F87C
:101DD000D50008B1594D00E0594D12237A222E2129
:101DE0004FF4A97007F0E0FD4F4890F8D100C0EB28
:101DF000C0004219002330214FF4A97015F0BEFC39
:101E0000092C01D1012000E000200090009820B1B1
:101E10004FF47F004349486003E04FF050104149C0
:101E20004860414890F8D50008B1424D00E0424D6D
:101E300012237A2244214FF4A97007F0B5FD3A48E5
:101E400090F8D200C0EBC0004219002346214FF4A5
:101E5000A97015F093FC0A2C01D1012000E00020AC
:101E60000090009820B14FF47F002E49486003E0B5
:101E70004FF050102B4948602B4890F8D50008B11E
:101E80002C4D00E02C4D12237A225A214FF4A970D8
:101E900007F08AFD244890F8D300C0EBC000421937
:101EA00000235C214FF4A97015F068FC0B2C01D1C4
:101EB000012000E000200090009820B14FF47F0046
:101EC0001849486003E04FF0501016494860164822
:101ED00090F8D50008B1174D00E0174D12237A2273
:101EE00070214FF4A97007F05FFD0F4890F8D400FF
:101EF000C0EBC0004219002372214FF4A97015F005
:101F00003DFC072C22D2DFE804F01D04050607087B
:101F1000090000BF00BF00BF00BF00BF022001F0EA
:101F200045FE17E080010020A0050020E40A002003
:101F300058B90508C0B7050842B7050888B70508AD
:101F400050B70508042001F031FE03E0072001F03E
:101F50002DFE00BF00BF01F0DFFD0C2C64D2DFE8D6
:101F600004F0060A0B0C0D0E0F3810393A3B032013
:101F700000F006FF59E000BF00BF00BF00BF00BF78
:101F800053E06FF07F402A4908602A4848602A4899
:101F900090F8D50008B1294D00E0294D00200190AE
:101FA00013E00199C1EBC1014A190199C1EB011379
:101FB00003EB4111202303EB410188B20023F121FF
:101FC00015F0DCFB0198401C019001980228E8D331
:101FD0002BE000BF00BF00BF6FF07F4014490860D6
:101FE00014484860144890F8D50008B1154D00E039
:101FF000154D0020019013E00199C1EBC1014A1970
:102000000199C1EB011303EB4111202303EB4101C3
:1020100088B20023F12115F0B1FB0198401C01901A
:1020200001980228E8D300E000BF00BF7CBD00009B
:102030008001002038003100A005002088B7050885
:1020400050B70508C0B7050842B7050800B58DB000
:102050004FF0501007494860074808A102686846D9
:1020600015F002FC00236A463221022015F086FB9F
:102070000DB000BD8001002094000020B6C1C8A1B1
:10208000B3C9B9A62CCEC4BCFEB4F3D0A1CEAA2548
:1020900064D7D6BDDA2CC7EBB0B4B7A2CBCDCEC4D3
:1020A000BCFE00007CB504466FF07F40FE4908602E
:1020B000012C01D1012000E000200090009820B107
:1020C0004FF47F00F849486003E04FF05010F649A4
:1020D0004860F64890F8D50008B1F54D00E0F54DA0
:1020E000122368221A21582007F05EFCEF4800787E
:1020F000C0EBC000421900231A21582015F03EFB06
:10210000022C01D1012000E000200090009820B1B5
:102110004FF47F00E449486003E04FF05010E2497B
:102120004860E24890F8D50008B1E34D00E0E34D87
:10213000122368222E21582007F036FCDB4890F845
:102140002000C0EBC000421900233021582015F0B8
:1021500015FB032C01D1012000E000200090009825
:1021600020B14FF47F00D049486003E04FF0501099
:10217000CD494860CD4890F8D50008B1CE4D00E07B
:10218000CE4D122368224621582007F00DFCC74887
:1021900090F82100C0EBC0004219002346215820CE
:1021A00015F0ECFA042C01D1012000E00020009091
:1021B000009820B14FF47F00BB49486003E04FF026
:1021C0005010B9494860B949486A002307220421E0
:1021D00007F00AF812237A225A21582007F0E4FB6C
:1021E0000023B74A5C21582015F0C8FA0023B54AED
:1021F0005C21AA2015F0C2FA052C01D1012000E0D3
:1022000000200090009820B14FF47F00A64948605C
:1022100003E04FF05010A4494860A449886A0023A5
:102220000722042106F0E0FF12237A2270215820B1
:1022300007F0BAFB0023A24A7221582015F09EFA3B
:102240000023A04A7221AA2015F098FA062C01D189
:10225000012000E000200090009820B14FF47F00A2
:102260009149486003E04FF050108F4948608F4912
:10227000886C00230722042106F0B6FF12237A227D
:102280008621582007F090FB00238D4A8821582092
:1022900015F074FA00238CA28821AA2015F06EFA9A
:1022A000072C01D1012000E000200090009820B10F
:1022B0004FF47F007C49486003E04FF050107A49AA
:1022C00048607A48006BE0B17849086B0023062229
:1022D000194606F089FF12237A2218214FF4A970BB
:1022E00007F062FB0023764A1A214FF4A97015F01B
:1022F00045FA0023764A1A214FF4C77015F03EFACA
:1023000019E012237A2218214FF4A97007F04CFB30
:10231000664890F8D50038B900236EA21A214FF410
:10232000A97015F02BFA06E000236CA21A214FF4D5
:10233000A97015F023FA082C01D1012000E000203B
:102340000090009820B14FF47F005749486003E0A7
:102350004FF0501054494860544890F8D50008B1E7
:102360005F4D00E05F4D5149486B00230722042177
:1023700006F03AFF12237A222E214FF4A97007F0BB
:1023800013FB00234E4A30214FF4A97015F0F6F9E3
:1023900000234C4A083230214FF4D27015F0EEF988
:1023A000092C01D1012000E000200090009820B10C
:1023B0004FF47F003C49486003E04FF050103A4929
:1023C00048603A49886B00230722042106F00CFF7D
:1023D00012237A2244214FF4A97007F0E5FA002372
:1023E000374A46214FF4A97015F0C8F90023354A41
:1023F00046214FF4D27015F0C1F90A2C01D1012009
:1024000000E000200090009820B14FF47F002649A2
:10241000486003E04FF05010234948602349C86BDF
:1024200000230822042106F0DFFE12237A225A211B
:102430004FF4A97007F0B8FA0023214A5C214FF449
:10244000A97015F09BF900231E4A10325C214FF44D
:10245000D77015F093F90B2C01D1012000E000207A
:102460000090009820B14FF47F000F49486003E0CE
:102470004FF050100C4948600C49086C00230522AD
:10248000042106F0B1FE12237A2270214FF4A970C4
:1024900007F08AFA00230A4A72214FF4A97015F056
:1024A0006DF9002320E0000080010020A00500203D
:1024B000C0B7050842B7050814B8050806B80508EE
:1024C000E40A002058B9050820562F6D730000005B
:1024D000C2B00508B9D8B1D5000000004F4646008B
:1024E0005EB8050822B8050875A272214FF4D270B3
:1024F00015F044F90C2C01D1012000E000200090DF
:10250000009820B14FF47F006F49486003E04FF01E
:1025100050106D4948606D49486C00230522042124
:1025200006F062FE12237A2286214FF4A97007F08A
:102530003BFA0023664A88214FF4A97015F01EF972
:1025400000235FA288214FF4D27015F017F90D2CEB
:102550001AD2DFE804F019121314070809150A0B40
:102560000C0D0E0000BF00BF00BF00BF00BF00BFCA
:1025700000BF022001F01AFB0AE000BF00BF00BF4D
:10258000072001F013FB03E0042001F00FFB00BF64
:1025900000BF01F0C1FA0D2C7ED2DFE804F0070B7A
:1025A000335B85868788898A8B8C8D00022000F0BA
:1025B000E7FB83E06FF07F4043490860454848608F
:1025C000424890F8D50008B1434D00E0434D00204B
:1025D000019013E00199C1EBC1014A190199C1EBC6
:1025E000011303EB4111202303EB410188B20023C7
:1025F000F12115F0C3F80198401C019001980228C0
:10260000E8D35BE06FF07F402F49086031484860B5
:102610002E4890F8D50008B1314D00E0314D002032
:10262000019013E00199C1EBC1014A190199C1EB75
:10263000011303EB4111202303EB410188B2002376
:10264000F12115F09BF80198401C01900198022897
:10265000E8D333E06FF07F401B4908601D484860B5
:102660001A4890F8D50008B11D4D00E01D4D00201E
:10267000019015E00199C1EBC1014A190199C1EB23
:10268000011303EB4111202303EB410188B2002326
:10269000F12115F073F800E00FE00198401C019063
:1026A00001980228E6D309E000BF00BF00BF00BFC9
:1026B00000BF00BF00BF00BF00E000BF00BF7CBD87
:1026C00020412F6D7300000080010020A005002034
:1026D000E40A002038003100C0B7050842B70508F9
:1026E00014B8050806B8050810B504F03FFE01F05F
:1026F00013FA02F0F9FE10BD7CB50446FE4890F8CE
:102700005800002872D1012C01D1012000E00020E6
:102710000090009820B14FF47F00F849486003E032
:102720004FF05010F549486014235C2218217620A0
:1027300007F03AF96FF07F40F0490860EE4890F8F2
:10274000D50060B9EC4890F85800C0EBC000EC49E7
:10275000421800231A21762015F010F80BE0E64805
:1027600090F85800C0EBC000E649421800231A2137
:10277000762015F003F8022C01D1012000E00020A2
:102780000090009820B14FF47F00DC49486003E0DE
:102790004FF05010D949486014235C222E21762036
:1027A00007F002F96FF07F40D4490860D249C86D44
:1027B00000230722042106F017FD0023D24A30210E
:1027C000762014F0DBFF0023D04A3021C82014F01B
:1027D000D5FF032C01D1012000E0002000900098DB
:1027E00028B14FF47F00C549486004E0EFE04FF0A6
:1027F0005010C249486014235C224421762007F01F
:10280000D3F86FF07F40BD490860BB49086E0023D4
:102810000722042106F0E8FC0023BB4A462176206B
:1028200014F0ACFF0023B94A4621C82014F0A6FFDB
:10283000042C01D1012000E000200090009820B17C
:102840004FF47F00AD49486003E04FF05010AB49B2
:10285000486014235C225A21762007F0A5F86FF017
:102860007F40A6490860A449486E0023072204213E
:1028700006F0BAFC0023A44A5C21762014F07EFF07
:102880000023A24A5C21C82014F078FF062C01D155
:10289000012000E000200090009820B14FF47F005C
:1028A0009649486003E04FF0501094494860142363
:1028B0005C222E21C80007F077F86FF07F408F4927
:1028C00008608D49C86E00230722042106F08CFCA5
:1028D00000238D4A30214FF4B87014F04FFF0023CD
:1028E0008A4A921D30214FF4E17014F047FF072C03
:1028F00001D1012000E000200090009820B14FF4A9
:102900007F007E49486003E04FF050107B494860EB
:1029100014235C224421900007F046F86FF07F40BA
:10292000764908607449086F00230722042106F0E5
:102930005BFC0023744A46214FF4B87014F01EFF6C
:102940000023724A921D46214FF4E17014F016FFE5
:10295000082C01D1012000E000200090009820B157
:102960004FF47F006549486003E04FF05010634921
:10297000486014235C225A21900007F015F86FF08C
:102980007F405E4908605C49486F002307220421AC
:1029900006F02AFC00235C4A5C21880014F0EEFE5D
:1029A00000235A4A921D5C214FF4E17014F0E6FEB8
:1029B000012C03D1062001F0F9F8C0E01CB9032076
:1029C00001F0F4F8BBE0082001F0F0F8B7E04A4865
:1029D00090F858000228F0D1012C01D1012000E02C
:1029E00000200090009820B14FF47F0043494860D8
:1029F00003E04FF050104149486014235C22182135
:102A0000762006F0D1FF6FF07F403C4908603A48DD
:102A100090F8D50060B9384890F85800C0EBC00075
:102A20003749421800231A21762014F0A7FE0BE044
:102A3000314890F85800C0EBC000324942180023DA
:102A40001A21762014F09AFE022C01D1012000E018
:102A500000200090009820B14FF47F002749486083
:102A600003E04FF0501025494860142368222E21BE
:102A7000762006F099FF6FF07F40204908601E49DC
:102A8000886F00230722012106F0AEFB00231E4AB7
:102A90003021762014F072FE00231C4A0C323021C3
:102AA000C82014F06BFE062C01D1012000E00020AC
:102AB0000090009820B14FF47F001049486003E077
:102AC0004FF050100D49486014235C222E21C8009D
:102AD00006F06AFF6FF07F40084908600649C86F3A
:102AE00000230722042106F07FFB0023064A302141
:102AF0004FF4B8700CE00000A00500208001002019
:102B0000BDB605084DB60508E40A0020AAB00508C0
:102B100014F034FE0023354A30214FF4E17014F0F4
:102B20002DFE012C03D1062001F040F807E01CB96E
:102B3000032001F03BF802E0082001F037F82C48B0
:102B400090F86D01B0BB092C3DD2DFE804F0050917
:102B50003435363C37383900002000F011F933E0C5
:102B600000F0DAFF6FF07F40224908602248486099
:102B7000224890F8D50008B1214D00E0214D0020F9
:102B8000019013E00199C1EBC1014A190199C1EB10
:102B9000011303EB4111202303EB410188B2002311
:102BA000F12114F0EBFD0198401C019001980228DE
:102BB000E8D309E009E000BF00BF00BF00BF00BFCD
:102BC00000F0AAFF00E000BF0EE000F0A5FF6FF0EC
:102BD0007F40084908600848486000230AA2F121A4
:102BE0004FF4CC7014F0CAFD7CBD0000B0B00508F5
:102BF000A40700208001002038003100A00500203B
:102C00004DB6050838B60508C8B7C8CF00000000A3
:102C100070B50646FFF768FD6FF07F404E490860CB
:102C20004E4848604E4890F8D50008B14D4D00E040
:102C30004D4D002305F12C020421184614F09EFD91
:102C40006FF07F40444908604FF05010486044489E
:102C500090F85800F0BB00243AE0042C1BD2404806
:102C600090F8D50000EB400303EB00103F4B03EB63
:102C7000C00004EB440303EB0413C21804EB44004C
:102C800000EBC4001A2303EB400081B20023184676
:102C900014F074FD1BE0324890F8D50000EB4003BF
:102CA00003EB0010314B03EBC00004EB440303EBD8
:102CB0000413C218201F00EB400303EBC0001A23CB
:102CC00003EB400081B20023FA2014F057FD641C8E
:102CD000082C00E001E0C0D339E0214890F858000A
:102CE000022834D1002430E0042C16D21C4890F87D
:102CF000D50000EBC0001E4B03EB001000EB0412EC
:102D000004EB440000EBC4001A2303EB400081B243
:102D10000023184614F032FD16E0114890F8D50053
:102D200000EBC000124B03EB001000EB0412201F5D
:102D300000EB400303EBC0001A2303EB400081B219
:102D40000023FA2014F01AFD641C082CCCD316B909
:102D5000002000F015F870BD800100200352F30040
:102D6000A005002048B2050856B105085AAD05086F
:102D70008AAE050810B5032000F002F810BD00006F
:102D800010B5044600F0C8FE002C7CD16FF07F40E7
:102D9000FC490860FC484860FC4890F8D5000028D1
:102DA00040D00023FAA2E7211C2014F0E7FC002306
:102DB000F9A2FB211C2014F0E1FC0023F8A2E7217A
:102DC0007E2014F0DBFC0023F6A2FB217E2014F011
:102DD000D5FC0023F5A2E721DC2014F0CFFC002372
:102DE000F0A2FB21DC2014F0C9FC0023F1A2E721B2
:102DF0004FF49D7014F0C2FC0023EAA2FB214FF4B3
:102E00009D7014F0BBFC0023ECA2E7214FF4CC70C2
:102E100014F0B4FC0023EBA2FB214FF4CC7014F0AF
:102E2000ADFC6BE20023E8A2E7211C2014F0A6FC15
:102E30000023E7A2FB211C2014F0A0FC0023E6A243
:102E4000E7217E2014F09AFC0023E5A2FB217E20DE
:102E500014F094FC0023E4A2E721DC2014F08EFCA3
:102E60000023DFA2FB21DC2014F088FC0023E0A279
:102E7000E7214FF49D7014F081FC0023D8A2FB21C0
:102E80004FF49D7000E010E014F078FC0023DAA20B
:102E9000E7214FF4CC7014F071FC0023D8A2FB2181
:102EA0004FF4CC7014F06AFC28E2012C2CD16FF0A6
:102EB0007F40B4490860B44848600023D2A2E721AB
:102EC000662014F05BFC0023D1A2FB21662014F0E5
:102ED00055FC0023D0A2E721B62014F04FFC0023BC
:102EE000CFA2FB21B62014F049FC0023CEA2E7219B
:102EF0004FF4D37014F042FC0023CDA2FB214FF419
:102F0000D37014F03BFCF9E1022C50D19E489D494E
:102F100048609E4890F8D50020B300239CA2E7218A
:102F20001C2014F02BFC00239BA2FB211C2014F07E
:102F300025FC0023A1A2E7217E2014F01FFC002322
:102F4000BDA2FB217E2014F019FC0023BCA2E721C6
:102F5000DC2014F013FC0023B7A2FB21DC2014F0CA
:102F60000DFCCBE1002398A2E7211C2014F006FC05
:102F7000002397A2FB211C2014F000FC00239EA23A
:102F8000E7217E2014F0FAFB00239DA2FB217E2086
:102F900014F0F4FB0023ACA2E721DC2014F0EEFBDC
:102FA000002397A2FB21DC2014F0E8FBA6E1032C10
:102FB0006DD1754873494860744890F8D500002871
:102FC00032D0002372A2E7211C2014F0D7FB00238B
:102FD00071A2FB211C2014F0D1FB00236CA2E7217D
:102FE0007E2014F0CBFB002393A2FB217E2014F063
:102FF000C5FB002392A2E721DC2014F0BFFB0023D5
:103000008DA2FB21DC2014F0B9FB002390A2E72164
:103010004FF4CC7014F0B2FB00238FA2FB214FF4CD
:10302000CC7014F0ABFB69E1002367A2E7211C2000
:1030300014F0A4FB002366A2FB211C2014F09EFBCD
:10304000002361A2E7217E2014F098FB00236CA2EC
:10305000FB217E2014F092FB00237BA2E721DC20E1
:1030600014F08CFB002366A2FB21DC2014F086FB0D
:1030700000237BA2E7214FF4CC7014F07FFB0023E8
:1030800079A2FB214FF4CC7014F078FB36E1042CCC
:1030900050D13D483B4948603C4890F8D50020B3AA
:1030A00000233BA2E7211C2014F068FB00233AA276
:1030B000FB211C2014F062FB002335A2E7217E20B7
:1030C00014F05CFB00235CA2FB217E2014F056FB75
:1030D00000235BA2E721DC2014F050FB002356A262
:1030E000FB21DC2014F04AFB08E1002360A2E72169
:1030F0001C2014F043FB00235BA2FB211C2014F0D6
:103100003DFB00235CA2E7217E2014F037FB002367
:103110003DA2FB217E2014F031FB002358A2E721C1
:10312000DC2014F02BFB002337A2FB21DC2014F061
:1031300025FBE3E0052C24D11348124948601348CD
:1031400090F8D50070B100234FA2F1214FF49D708B
:1031500014F014FB00234DA2F1214FF4CC7014F0B5
:103160000DFBCBE000234BA2F1214FF4987014F03B
:1031700005FB00234AA2F1214FF4CC7014F0FEFAB3
:10318000BCE091E08001002038003100A005002063
:103190004D454153000000004449535000000000D9
:1031A00042415400544553540000000044594E41DC
:1031B000000000004C495354000000004C494D49A8
:1031C0005400000053455400B2E2C1BF00000000AB
:1031D000CFD4CABE00000000B5E7B3D8000000009D
:1031E000B2E2CAD400000000B6AFCCAC00000000D0
:1031F000C1D0B1ED00000000BCABCFDE000000008C
:10320000C9E8D6C300000000CEC4BCFE0000000028
:10321000B9DCC0ED00000000B1A3B4E6000000007E
:10322000CAFDBEDD00000000B8FCB6E000000000F2
:1032300020322F320000000053455455500000004A
:103240002053595300000000CFB5CDB3000000005B
:103250004649524D0000000055504441544500007D
:10326000B9CCBCFE00000000C9FDBCB600000000E7
:10327000CCF8D7AA00000000B6C1C8A10000000029
:10328000B7A2CBCD00000000524553004241434B52
:1032900000000000B2E2CAD4BDE1B9FB00000000AA
:1032A000B7B5BBD800000000062C27D16FF07F40D7
:1032B0001349086013484860134890F8D500012866
:1032C0000CD1002311A2F2211C2014F057FA002384
:1032D00010A2F2217E2014F051FA0FE00A4890F873
:1032E000D50058B900230DA2F2211C2014F046FA93
:1032F00000230CA2F2217E2014F040FA10BD000041
:103300008001002038003100A005002043414E43D9
:10331000454C2000434F4E4649524D002020C8A145
:10332000CFFB20002020C8B7C8CF200011B581B046
:103330009848007800287CD1009057E09DF8041050
:103340000098401C814204D14FF47F0092494860AC
:1033500003E04FF050109049486000980A281FD2AF
:10336000009800EB800080001A3081B214235A22AA
:10337000A02006F019FB8949009A51F82200002389
:103380000722042105F030FF009800EB8000800048
:103390001A3081B20123824AA02014F0EFF922E012
:1033A00000980A3800EB800080001A3081B21423A4
:1033B0005A224FF4AF7006F0F7FA7849009A51F8A4
:1033C000220000230722042105F00EFF00980A388E
:1033D00000EB800080001A3081B20123704A4FF464
:1033E000AF7014F0CBF90098401C009000981028A2
:1033F000A4D39DF80400112804D14FF47F0066493E
:10340000486003E04FF050106349486014235A228B
:1034100092214FF4AF7006F0C7FA624900230822E8
:10342000D1F8F401042105F0DFFE01235C4A92216A
:1034300000E04AE04FF4AF7014F0A0F99DF80400EA
:10344000122804D14FF47F005349486003E04FF045
:1034500050105149486014235A22A6214FF4AF70EE
:1034600006F0A2FA4F4900230822D1F8F8010421FE
:1034700005F0BAFE01234A4AA6214FF4AF7014F0BA
:103480007DF99DF80400132804D14FF47F004249D0
:10349000486003E04FF050103F49486014235A221F
:1034A000BA214FF4AF7006F07FFA3E49002308229C
:1034B000D1F8FC01042105F097FE0123384ABA2116
:1034C0004FF4AF7014F05AF93BE03248007801280D
:1034D00037D10020009031E09DF804100098401C86
:1034E000814204D14FF47F002B49486003E04FF044
:1034F000501029494860009800EB800080001A3085
:1035000081B214235A22A02006F04EFA2349009AD1
:10351000103251F8220000230722042105F064FE36
:10352000009800EB800080001A3081B201231C4A11
:10353000A02014F023F90098401C0090009809285E
:10354000CAD34FF050101449486000F0E5FA6FF00C
:103550007F401149086014484860144C02200090D4
:1035600013E00099C1EBC1010A190099C1EB0113E5
:1035700003EB4111202303EB410188B20023F12129
:1035800014F0FCF80098401C009000980528E8D33F
:103590001CBD00008600002080010020B407002030
:1035A000E40A0020A00500203800310062B60508BA
:1035B0007CB50446012C00D100E00020009000986A
:1035C00020B14FF47F00F849486003E04FF05010FD
:1035D000F549486014235C221821762006F0E4F9AE
:1035E0006FF07F40F0490860F04890F8D50060B96E
:1035F000EE4890F88000C0EBC000ED49421800236F
:103600001A21762014F0BAF80BE0E84890F8800010
:10361000C0EBC000E749421800231A21762014F0BD
:10362000ADF8022C01D1012000E0002000900098AC
:1036300020B14FF47F00DC49486003E04FF05010A8
:10364000D949486014235C222E21762006F0ACF97B
:103650006FF07F40D4490860D449D1F8840000233A
:103660000722042105F0C0FD0023D34A3021762033
:1036700014F084F80023D14A3021C82014F07EF8D9
:10368000032C01D1012000E000200090009820B11F
:103690004FF47F00C449486003E04FF05010C24926
:1036A000486014235C224421762006F07DF96FF0F7
:1036B0007F40BD490860BD49D1F88800002307223A
:1036C000042105F091FD0023BB4A4621762014F029
:1036D00055F80023B94A4621C82014F04FF8042CAD
:1036E00001D1012000E000200090009820B14FF4AB
:1036F0007F00AD49486003E04FF05010AA49486090
:10370000142364225A21762006F04EF96FF07F4090
:10371000A5490860A549D1F8940000230522042199
:1037200005F062FD0023A44A5C21762014F026F8FF
:103730000023A24A1E325C21B22014F01FF8052C8F
:1037400001D1012000E000200090009820B14FF44A
:103750007F009549486003E04FF05010924948605F
:1037600014235C221821900006F01EF96FF07F40B0
:103770008D4908608D4890F8D50068B98B4890F85D
:103780009000C0EBC0008E49421800231A214FF46C
:10379000B87013F0F3FF0CE0844890F89000C0EB91
:1037A000C0008849421800231A214FF4B87013F062
:1037B000E5FF062C01D1012000E0002000900098D8
:1037C00020B14FF47F007849486003E04FF050107B
:1037D00075494860142370222E21C80006F0E4F8D1
:1037E0006FF07F40704908607049D1F88C00002369
:1037F0000822012105F0F8FC00236F4A30214FF424
:10380000B87013F0BBFF00236C4A2A3230214FF40A
:10381000E57013F0B3FF072C01D1012000E0002078
:103820000090009820B14FF47F005F49486003E0AA
:103830004FF050105C4948601423702244214FF42B
:10384000B87006F0B1F86FF07F40574908605749EB
:10385000D1F89C0000230822012105F0C5FC0023BB
:10386000554A46214FF4B87013F088FF0023534A9D
:103870002A3246214FF4E57013F080FF082C01D165
:10388000012000E000200090009820B14FF47F005C
:103890004549486003E04FF0501043494860142305
:1038A00064225A214FF4B87006F07EF86FF07F4022
:1038B0003D4908603D49D1F89800002305220421C4
:1038C00005F092FC00233C4A5C21880013F056FF6F
:1038D00000233A4A1E325C214FF4D67013F04EFF9B
:1038E000394890F86D01002877D124B1012C06D019
:1038F000052C6ED12DE00020FFF742FA6CE000F0BD
:103900000BF96FF07F40284908603048486027482D
:1039100090F8D50008B1274D00E0254D002001901A
:1039200013E00199C1EBC1014A190199C1EB0113DF
:1039300003EB4111202303EB410188B20023F12165
:1039400013F01CFF0198401C019001980228E8D355
:1039500042E000F0E1F86FF07F40134908601B4837
:103960004860124890F8D50008B1164D00E0144D9B
:103970000020019013E00199C1EBC1014A1901999E
:10398000C1EB011303EB4111202303EB410188B28A
:103990000023F12113F0F2FE0198401C01900198E0
:1039A0000328E8D318E018E080010020A0050020DB
:1039B00042B70508C0B70508E40A0020AAB0050808
:1039C00096B70508ABB70508A407002038003100FA
:1039D000FFE700F0A1F800BF0EE000F09DF86FF0E7
:1039E0007F400649086006484860002305A2F1218F
:1039F0004FF4CC7013F0C2FE7CBD000080010020AB
:103A000038003100C8B7C8CF0000000070B5FEF71D
:103A10006BFE6FF07F4024490860244848602448CA
:103A200090F8D50008B1234E00E0234E002306F1A4
:103A300042020421184613F0A1FE6FF07F401A499C
:103A400008604FF050104860194890F8D50008B948
:103A50001A4D00E01A4D002420E0042C0ED205EB94
:103A6000041204EB440000EBC4001A2303EB4000F3
:103A700081B20023184613F081FE0EE005EB04121C
:103A8000201F00EB400303EBC0001A2303EB4000B0
:103A900081B20023FA2013F071FE641C082CDCD3E1
:103AA0000020FFF76DF970BD800100200352F30084
:103AB000A005002048B2050856B10508AAAF0508C0
:103AC0002AB005082DE9F841054688461446002627
:103AD0001CE0207800B91AE02078203800EB800044
:103AE000C00000EB8000C700F81707EB50700949D1
:103AF00001EBE000A919009088B228231A4641463C
:103B000006F06AFC641C06F11C0086B2E1E700BF07
:103B1000BDE8F881EC2F0C0810B500243CE02048EB
:103B200020494860A1000A31C4EB041202EB4202B2
:103B300001EB420188B22B235A22E42105F034FF25
:103B40001948184948605E2204FB02F10B3188B223
:103B500001235A22E32105F027FFC4EB041101EBF6
:103B60004411642202EB410188B22C230122E3219B
:103B700005F01AFF00200B494860C4EB041101EB6B
:103B80004411642202EB4101491C88B22C23032218
:103B9000E32105F009FF641C052CC0D310BD000013
:103BA00038003100800100206843690010B50446E8
:103BB000AB4890F8D50000287DD1012C0DD1A94843
:103BC000A94948604FF47F0008600023A7A2CD21D7
:103BD0004FF4917013F0D2FD40E1022C0ED14FF062
:103BE0005010A14948604FF47F0008600023A5A24F
:103BF000CD214FF49B7013F0C1FD2FE1032C0AD1AE
:103C000098489949486014239622CD214FF49B701F
:103C100005F0CAFE22E1042C0BD14FF0501092495E
:103C2000486014239622CD214FF49B7005F0BCFE12
:103C300014E1052C0ED14FF050108B4948604FF421
:103C40007F000860002394A2CD214FF49B7013F0F5
:103C500095FD03E1062C0DD18248834948604FF45D
:103C60007F000860002391A2CD214FF49B7013F0D8
:103C700085FDF3E0072C0ED14FF050107A494860D3
:103C80004FF47F000860002388A2CD214FF49B7081
:103C900013F074FDE2E0082C0ED1724872494860BE
:103CA0004FF47F000860002376A2CD214FF49B7073
:103CB00013F064FDD2E02AE0092C0DD169486A496D
:103CC00048604FF47F00086000237DA2CD214FF4AF
:103CD0009B7013F053FDC1E00A2C0CD1614862497E
:103CE00048604FF47F00086000237AA2CD210220B3
:103CF00013F044FDB2E00B2C8CD15A485A4948606D
:103D00001423F022CD21022005F04EFEA6E0012C66
:103D10000CD15448544948604FF47F000860002398
:103D200074A2CD21AA2013F029FD97E0022C0ED118
:103D30004FF050104C4948604FF47F00086000235A
:103D400074A2CD214FF48C7013F018FD86E0032C83
:103D50000AD144484449486014234FF48072CD216D
:103D6000DA2005F021FE79E0042C0AD14FF0501042
:103D70003D4948601423A201CD21DA2005F014FE4C
:103D80006CE0052C0ED14FF05010374948604FF4CD
:103D90007F000860002365A2CD214FF48C7013F0E2
:103DA000EDFC5BE0062C0DD12E482F4948604FF406
:103DB0007F00086000235DA2CD214FF48C7013F0CA
:103DC000DDFC4BE0072C0ED14FF050102649486027
:103DD0004FF47F000860002354A2CD214FF48C7073
:103DE00013F0CCFC3AE0082C0DD11E481E49486067
:103DF0004FF47F000860002346A2CD214FF48C7061
:103E000013F0BCFC2AE0092C0ED14FF050101649DB
:103E100048604FF47F00086000234AA2CD214FF490
:103E20008C7013F0ABFC19E00A2C0CD10D480E4934
:103E300048604FF47F000860002348A2CD21022093
:103E400013F09CFC0AE00B2C08D106480649486098
:103E50001423F022CD21022005F0A6FD10BD0000A4
:103E6000A00500206534340080010020C7EBD3C3D7
:103E7000CAFDD7D6BCFCC5CCBBF2D0FDC5A5CAE4F3
:103E8000C8EB0000C7EBD3C3CAFDD7D6BCFCC5CC7A
:103E9000CAE4C8EB00000000B0B4CFC2D0FDC5A595
:103EA000C7D0BBBBB2BDD6E800000000B0B4CFC2E3
:103EB000D0FDC5A5BFECCBD9D1A1D4F10000000045
:103EC000B5E7D1B9B3ACCFDED7D4B6AFBFAACABCC1
:103ED00000000000BDD3BDFCBCABCFDEB9A6C2CA9A
:103EE0002CBDABD4DA3135B7D6D6D3BAF3B9D8B105
:103EF000D5000000496E7075742077697468206B76
:103F00006579626F617264206F7220656E636F64A1
:103F100065722E00496E7075742077697468206B25
:103F20006579626F6172642E0000000050726573E3
:103F3000732074686520656E636F6465722E20203F
:103F4000000000004175746F2073746172742E203C
:103F500020202020202020200000000041707072CE
:103F60006F616368696E67206D617820706F776537
:103F7000722C7368757420646F776E20696E2031BF
:103F800035206D696E732E0070B502F0E3FD6FF0A1
:103F90007F402349086023484860234890F8D500B3
:103FA00008B1224E00E0224E002306F11602042141
:103FB000184613F0E3FB6FF07F40194908604FF09B
:103FC000501048601B4D002424E0022C10D204EB5A
:103FD000840005EB400204EB440000EBC4001A230C
:103FE00003EB400081B20023184613F0C7FB10E03A
:103FF00004EB840005EB4002A01E00EB400303EB42
:10400000C0001A2303EB400081B20023FA2013F012
:10401000B5FB641C032CD8D30020FEF7B1FE70BDA5
:10402000800100200352F300A005002048B20508DB
:1040300056B105083CAD050838B50446012C00D141
:1040400000E000200090009820B14FF47F0042492A
:10405000486003E04FF050103F49486014237E222F
:104060001821582005F0A0FC6FF07F403A49086005
:104070003A49C86C00230722042105F0B5F8002353
:10408000374A1A21582013F079FB0023354A1A21A8
:10409000C82013F073FB022C01D1012000E00020A6
:1040A0000090009820B14FF47F002B49486003E056
:1040B0004FF05010284948601423682218214FF40B
:1040C000A97005F071FC6FF07F4023490860234917
:1040D000486D00230722042105F086F80023204ABA
:1040E0001A214FF4A97013F049FB032C01D10120D0
:1040F00000E000200090009820B14FF47F001649A6
:10410000486003E04FF050101349486014237E22AA
:104110002E21582005F048FC6FF07F400E490860C2
:104120000E49086D00230722042105F05DF80023E5
:104130000B4A3021582013F021FB0023094A921F1B
:104140003021C82013F01AFB1CB90020FEF718FE1E
:1041500000E000BF00BF38BD80010020A0050020A6
:10416000E40A0020B0B0050870B502F0FBFC6FF067
:104170007F402C4908602C4848602C4890F8D500B6
:1041800008B12B4E00E02B4E002306F184020421DF
:10419000184613F0F3FA6FF07F40224908604FF0A1
:1041A00050104860214890F8D50008B1224D00E039
:1041B000224D00242FE0062C11D24FF05010194947
:1041C000486004EB840005EB4002162304FB03F077
:1041D0001A3081B20023184613F0D0FA1AE0A01F5B
:1041E000022806D9082804D24FF050100D49486023
:1041F00003E04FF050100B49486004EB840005EBDE
:104200004002A01F162358431A3081B20023FA201F
:1042100013F0B4FA641C0B2CCDD30320FEF7B0FDD1
:1042200070BD0000800100200352F300A0050020B3
:1042300048B2050856B1050898B405082AB405081F
:1042400010B503F093F8FFF767FC10BD30B595B0DB
:10425000054603F021FB01222946684601F054F986
:104260006C469DF800008DF8380001980F90029878
:104270001090039811900498129005981390069846
:1042800014900F984FF47A71B0FBF1F00F900B98E7
:1042900018B90020099008900A900F9815B030BD09
:1042A00070B5FFF7CDFF6FF07F403D4908603D4896
:1042B00048603D4890F8D50008B13C4D00E03C4DC9
:1042C000002305F16E020421184613F057FA6FF02F
:1042D0007F40334908604FF050104860002459E097
:1042E000032C2AD2304890F8D500012810D1C4EB15
:1042F0000410304BC21804EB440000EBC4001A2336
:1043000003EB400081B20023184613F037FA40E077
:10431000254890F8D50030BBC4EB0410264BC218DA
:1043200004EB440000EBC4001A2303EB400081B20D
:104330000023184613F022FA2BE01B4890F8D50012
:10434000012811D1C4EB04101A4BC218E01E00EB77
:10435000400303EBC0001A2303EB400081B20023AB
:10436000FA2013F00BFA14E00F4890F8D50080B94A
:10437000C4EB0410104BC218E01E00EB400303EB2B
:10438000C0001A2303EB400081B20023FA2013F08F
:10439000F5F9641C062CA3D30520FEF7F1FC70BDD3
:1043A000800100200352F300A005002048B2050858
:1043B00056B10508A6B505084CB5050810B5B048B6
:1043C000B04908604FF050104860AF4890F8D500F1
:1043D000F0B90023ADA25E214FF4967013F0CEF930
:1043E0000023ABA25E214FF4AF7013F0C7F9A949C7
:1043F00091F87D10481C00230222194604F0F4FEB7
:104400000023A54A5E214FF4A17013F0B7F91BE019
:104410009D4890F8D500012816D100239FA25E2167
:104420004FF4967013F0AAF99A4991F87D10481C40
:1044300000230222194604F0D7FE0023964A5E218B
:104440004FF4A97013F09AF98F4890F8D50080B90D
:10445000904890F87D108C48E430405CC0EBC00080
:104460009049421800235E214FF4C87013F086F97A
:1044700014E0854890F8D50001280FD1854890F8C0
:104480007D108148E430405CC0EBC0008649421892
:1044900000235E214FF4C87013F070F97A4890F849
:1044A000D500E0B9002381A272214FF4967013F079
:1044B00065F900237FA288214FF4967013F05EF90E
:1044C00000237EA29E214FF4967013F057F900232B
:1044D0007CA2B4214FF4967013F050F920E06A48A2
:1044E00090F8D50001281BD1002378A272214FF447
:1044F000967013F043F9002375A288214FF496704B
:1045000013F03CF9002373A29E214FF4967013F030
:1045100035F9002370A2B4214FF4967013F02EF9F0
:10452000594890F8210038BB5A480068642806D2E0
:10453000002307220421184604F056FE06E05549E0
:10454000002307220868042104F04EFE514900238D
:1045500007220868042104F047FE00234E4A722116
:104560004FF4B47013F00AF9002358A272214FF4EB
:10457000DC7013F003F924E0434890F8210001288F
:104580001FD144480068642806D200230622032174
:10459000184604F029FE06E03E490023062208687A
:1045A000032104F021FE00233B4A72214FF4B47032
:1045B00013F0E4F8002345A272214FF4DC7013F0ED
:1045C000DDF8314890F82000A8B9324900230722CD
:1045D0004868042104F008FE00232F4A88214FF484
:1045E000B47013F0CBF800233DA288214FF4DC70A7
:1045F00013F0C4F819E0244890F82000012814D1E1
:104600002449002306224868032104F0EDFD00231D
:10461000214A88214FF4B47013F0B0F8002330A27F
:1046200088214FF4DC7013F0A9F81A4900230722FF
:10463000C868032104F0D8FD0023174A9E214FF4D7
:10464000B47013F09BF8002326A29E214FF4DC7077
:1046500013F094F80F4900230522D1F880000121BE
:1046600004F0C2FD00230C4AB421480013F086F880
:1046700000231DA2B4214FF4DC7013F07FF810BDAD
:1046800000FFFF0080010020A0050020B5DA000037
:10469000B2BD0000A4070020E40A00205374657036
:1046A0000000000029BD050892BD0508B5E7D1B995
:1046B00000000000B5E7C1F700000000B9A6C2CABB
:1046C00000000000CAB1BCE4000000005600000079
:1046D000490000005000000054494D450000000012
:1046E0004100000057000000730000002DE9F04178
:1046F0000546012D00D100E00020064626B14FF40A
:104700007F00FE49486003E04FF05010FB494860CD
:1047100014235C221821762005F046F96FF07F40C3
:10472000F6490860F64991F8D6000023032219469D
:1047300004F05AFD0023F34A1A21762013F01EF8E4
:10474000022D01D1012000E00020064626B14FF4E1
:104750007F00EA49486003E04FF05010E7494860A5
:1047600014235C222E21762005F01EF96FF07F4085
:10477000E2490860E24890F8D50060B9E04890F856
:10478000D700C0EBC000E04942180023302176205A
:1047900012F0F4FF0BE0DA4890F8D700C0EBC0004D
:1047A000DA49421800233021762012F0E7FF032D6A
:1047B00001D1012000E00020064626B14FF47F0021
:1047C000CE49486003E04FF05010CC4948601423B4
:1047D0005C224421762005F0E7F8C949D1F8E000D1
:1047E00000230722042104F0FFFC6FF07F40C3493F
:1047F0000860C348D0F8E00060B10023C14A4621F8
:10480000762012F0BBFF0023C14A4621C82012F0D7
:10481000B5FF10E0BA4890F8D50030B90023BD4A82
:104820004621762012F0AAFF05E00023BA4A46216D
:10483000762012F0A3FF042D01D1012000E000201A
:10484000064626B14FF47F00AC49486003E04FF0C4
:104850005010AA49486014235C221821900005F0EA
:10486000A3F86FF07F40A5490860A54890F8D500EF
:1048700068B9A34890F8D900C0EBC000A749421816
:1048800000231A214FF4B87012F078FF0CE09C4816
:1048900090F8D900C0EBC000A149421800231A21AA
:1048A0004FF4B87012F06AFF052D01D1012000E02D
:1048B0000020064626B14FF47F009049486003E08F
:1048C0004FF050108D49486014235C222E21C800FF
:1048D00005F06AF86FF07F40884908608849D1F890
:1048E000DC0000230722042104F07EFC0023854A1B
:1048F00030214FF4B87012F041FF0023844A302178
:104900004FF4E17012F03AFF0D2D01D1012000E0CB
:104910000020064626B14FF47F007849486003E046
:104920004FF050107549486014235C2244219000D8
:1049300005F03AF86FF07F4070490860704890F8D1
:10494000D50068B96E4890F8D800C0EBC000714936
:104950004218002346214FF4B87012F00FFF0CE00C
:10496000674890F8D800C0EBC0006B49421800239C
:1049700046214FF4B87012F001FF062D01D101203D
:1049800000E00020064626B14FF47F005B494860F6
:1049900003E04FF0501059494860102350225E2127
:1049A000002005F001F86FF07F405449086054483A
:1049B00090F8D500D8B900235AA25E21184612F00B
:1049C000DDFE002358A25E21322012F0D7FE5749A7
:1049D00091F87C10481C00230222194604F004FCC4
:1049E0000023484A5E21162012F0C8FE19E0444810
:1049F00090F8D500012814D100234DA25E2118465D
:104A000012F0BCFE494991F87C10481C0023022298
:104A1000194604F0E9FB00233A4A5E21262012F0F1
:104A2000ADFE072D01D1012000E00020064626B191
:104A30004FF47F003149486003E04FF050102F4998
:104A40004860102350225E21642004F0ADFF2C4802
:104A500090F8D50078B9354890F87C102848E430B3
:104A6000405CC0EBC0003449421800235E21642042
:104A700012F084FE13E0224890F8D50001280ED1F0
:104A80002A4890F87C101E48E430405CC0EBC0001F
:104A90002A49421800235E21642012F06FFE4FF075
:104AA000501016494860214890F87C101448E430B2
:104AB000405C04287ED0124890F8D500E0B900236D
:104AC0001FA27221184612F059FE00231FA288214E
:104AD000184612F053FE00231EA29E21184612F023
:104AE0004DFE00231EA2B421184612F047FE0023FB
:104AF0001DA2CA2118463BE03DE0000080010020D5
:104B0000A0050020E40A0020FFBC050814BD05082C
:104B1000B0B0050842B70508C0B7050850B705088A
:104B200088B70508B5DA0000B2BD0000A407002070
:104B3000537465700000000029BD050892BD05088A
:104B4000B8BAD4D8B4F3D0A100000000CAB1BCE414
:104B500000000000B1C8BDCFC0E0D0CD0000000013
:104B6000C9CFCFDE00000000CFC2CFDE00000000C2
:104B700012F004FE24E0FE4890F8D50001281FD171
:104B80000023FCA27221184612F0F8FD0023FBA2BC
:104B90008821184612F0F2FD0023FAA29E21184641
:104BA00012F0ECFD0023F9A2B421184612F0E6FD44
:104BB000002300E04BE1F7A2CA21184612F0DEFD07
:104BC000122314227021C82004F0EEFE12231422B6
:104BD000B221C82004F0E8FE12231422C82108469E
:104BE00004F0E2FEEC4890F87C10E148E430405CD0
:104BF00000EB4000E94901EB400200237221C8208C
:104C000012F0BCFDE44890F87C10E548405C00EBF5
:104C10004000E44901EB40020023B421C82012F017
:104C2000ADFDDD4890F87C10DD48405C00EB4000B5
:104C3000DC4901EB40020023CA21C82012F09EFD8E
:104C40000023D9A28821C82012F098FD082D01D197
:104C5000012000E00020064626B14FF47F00D34932
:104C6000486003E04FF05010D049486014235C22A4
:104C70007021642004F098FE6FF07F40CB490860FB
:104C8000C54890F87C10C6486A38405C02280CD1B0
:104C9000C14991F87C20C2495A3951F822000023B9
:104CA0000722012104F0A0FA0BE0BB4991F87C2017
:104CB000BB495A3951F8220000230822042104F08C
:104CC00093FA0023BA4A7221642012F057FD092D8D
:104CD00001D1012000E00020064626B14FF47F00FC
:104CE000B249486003E04FF05010B04948601423C7
:104CF0005C228621642004F057FE6FF07F40AB49B0
:104D00000860A54991F87C20A5491E3931F81200A8
:104D100000230522012104F067FA0023A44A882118
:104D2000642012F02BFD0A2D01D1012000E00020AB
:104D3000064626B14FF47F009C49486003E04FF0DF
:104D400050109A49486014235C229C21642004F08E
:104D50002BFE6FF07F4095490860854890F8D5009C
:104D600070B98D4890F87C108D48405CC0EBC00055
:104D70009049421800239E21642012F0FFFC0DE0B0
:104D8000854890F87C108648405C00EBC0008A495A
:104D9000421800239E21642012F0F0FC0B2D01D15B
:104DA000012000E00020064626B14FF47F007F4935
:104DB000486003E04FF050107C49486014235C22A7
:104DC000B221642004F0F0FD6FF07F407749086065
:104DD000714991F87C207249123151F82200002368
:104DE0000722042104F000FA0023714AB421642050
:104DF00012F0C4FC0C2D01D1012000E00020064679
:104E000026B14FF47F006949486003E04FF050102D
:104E10006649486014235C22C821642004F0C4FD64
:104E20006FF07F40614908605B4991F87C205C49E4
:104E30004E3151F8220000230722042104F0D4F956
:104E400000235B4ACA21642012F098FCA6E1524874
:104E500090F87C1052486A38405C0428F6D14448E7
:104E600090F8D50018BB0023AFF22C3272211846FF
:104E700012F084FC0023AFF22C328821184612F085
:104E80007DFC0023AFF234329E21184612F076FCEE
:104E90000023AFF23432B421184612F06FFC002325
:104EA000AFF23C32CA21184612F068FC22E03048CA
:104EB00090F8D50001281DD100232EA2722118469A
:104EC00012F05CFC00232DA28821184612F056FC3B
:104ED00000232CA29E21184612F050FC00232BA286
:104EE000B421184612F04AFC00232AA2CA2118460F
:104EF00012F044FC122314227021C82004F054FD47
:104F000012231422B221C82004F04EFD12231422D1
:104F1000C821084604F048FD002323A28821C820A8
:104F200012F02CFC072D01D1012000E000200646E4
:104F300026B14FF47F001D49486003E04FF0501048
:104F40001A494860144991F87C2015495A3951F89A
:104F5000220000230722042104F046F914235C22D6
:104F60007021642004F020FD0023114A722125E005
:104F7000A00500204C4F41440000000054696D65BD
:104F800000000000436F6D70000000004869676812
:104F9000000000004C6F7700A4070020AAB00508AD
:104FA000EE060020DAB00508730000008001002042
:104FB000E40A0020B5BD050817BE0508642012F0FC
:104FC000DDFB082D01D1012000E00020064626B1BE
:104FD0004FF47F00FB49486003E04FF05010F9495F
:104FE000486014235C227021642004F0DDFC6FF023
:104FF0007F40F4490860F44991F87C20F34951F866
:10500000220000230722042104F0EEF80023F04AD6
:105010007221642012F0B2FB092D01D1012000E0C1
:105020000020064626B14FF47F00E649486003E0C1
:105030004FF05010E349486014235C22862164201D
:1050400004F0B2FC6FF07F40DE490860DE4991F861
:105050007C20DE493C3131F8120000230522012179
:1050600004F0C2F80023DA4A8821642012F086FB9B
:105070000A2D01D1012000E00020064626B14FF4A0
:105080007F00D049486003E04FF05010CD494860A0
:1050900014235C229C21642004F086FC6FF07F4086
:1050A000C8490860C948F43890F8D50078B9C648AE
:1050B00090F87C10C5485A30405CC0EBC000C54930
:1050C000421800239E21642012F058FB0EE0BE48D7
:1050D00090F87C10BD485A30405C00EBC000BE49DF
:1050E000421800239E21642012F048FB0B2D01D1B1
:1050F000012000E00020064626B14FF47F00B149B0
:10510000486003E04FF05010AE49486014235C2221
:10511000B221642004F048FC6FF07F40A949086088
:10512000A94991F87C20A9496C3151F8220000234B
:105130000722042104F058F80023A54AB421642072
:1051400012F01CFB0C2D01D1012000E000200646CE
:1051500026B14FF47F009B49486003E04FF05010A8
:105160009849486014235C22C821642004F01CFC88
:105170006FF07F4093490860934991F87C209349F0
:10518000A83151F8220000230722042104F02CF852
:1051900000238F4ACA21642012F0F0FA0D2D20D28C
:1051A000DFE805F01F07141B15081016090A170B76
:1051B0000C0000BF00BF00BF00BF00BF0220FEF711
:1051C000F5FC12E00520FEF7F1FC0EE000BF00BF89
:1051D00000BF0720FEF7EAFC00BF0920FEF7E6FC4F
:1051E00003E00420FEF7E2FC00BF00BF764890F821
:1051F0006D01002870D1FEF78FFC784800780028F8
:105200006BD1072D59D005DC4DB1022D0BD0042DEB
:105210007AD12DE00A2D79D00D2DF9D1AFE00520FE
:10522000FDF7AEFD04E1FEF777FC6FF07F406549C6
:1052300008606B4848606548F43890F8D50008B1BC
:10524000684F00E0684F00240FE0C4EBC401CA19A6
:10525000C4EB041101EB4411202303EB410188B29C
:105260000023F12112F08AFA641C032CEDD3DFE055
:10527000FEF752FC6FF07F40524908605848486082
:105280005248F43890F8D50008B1584F00E0584F14
:1052900000240FE0C4EBC401CA19C4EB041101EBF4
:1052A0004411202303EB410188B20023F12112F0C5
:1052B00065FA641C022CEDD3BAE0FEF72DFC6FF00A
:1052C0007F4040490860464848604048F43890F8BC
:1052D000D50018B1474F02E0D3E0AAE0464F0024C2
:1052E0000FE0C4EBC401CA19C4EB041101EB441173
:1052F000202303EB410188B20023F12112F03EFA92
:10530000641C052CEDD393E091E0FFE7FEF704FC6D
:105310006FF07F402B490860314848602B48F438D3
:1053200090F8D500A8B1002410E004EBC4012A4B8A
:10533000CA18C4EB041101EB4411202303EB410113
:1053400088B20023F12112F019FA641C042CECD36A
:1053500014E0002410E0C4EBC4011E4BCA18C4EBD7
:10536000041101EB4411202303EB410188B2002317
:10537000F12112F003FA641C042CECD358E0FEF780
:10538000CBFB6FF07F400F490860154848600F481D
:10539000F43890F8D50098B3002410E0C4EBC401B1
:1053A000164BCA18C4EB041101EB4411202303EB84
:1053B000410188B20023F12112F0E0F9641C022CB3
:1053C000ECD333E080010020A407002094060020E5
:1053D000E40A0020B5BD050817BE0508330000200B
:1053E0003800310014BD0508FFBC050888B7050862
:1053F00050B7050892BD050829BD0508C0B70508C6
:10540000FFE7002410E0C4EBC401264BCA18C4EB2C
:10541000041101EB4411202303EB410188B2002366
:10542000F12112F0ABF9641C022CECD300E000BFB8
:1054300036E01D480078012832D1FEF76DFB6FF091
:105440007F401A4908601A4848601A4890F8D50009
:1054500008B1194F00E0194F00240FE0C4EBC4015C
:10546000CA19C4EB041101EB4411202303EB4101E1
:1054700088B20023F12112F081F9641C052CEDD3D0
:105480000EE0FEF749FB6FF07F40084908600848CE
:10549000486000230AA2F1214FF4CC7012F06EF99B
:1054A000BDE8F08142B705083300002080010020EC
:1054B00038003100A0050020F4BD0508D1BD050865
:1054C000C8B7C8CF0000000010B5054805494860BE
:1054D000962340F2DF124C21002004F065FA10BD43
:1054E000653434008001002010B505480549486046
:1054F000742340F2DF126E21002004F055FA10BD33
:1055000065343400800100202DE9F04192B0054659
:105510000E46174601201190F74800780D900120A3
:105520000B9000200A90099008900790029001903B
:10553000039001900C9009E020200EA99DF83020E6
:1055400088549DF83000401CC0B20C909DF830008B
:105550000828F1DB00208DF840000FB1082400E09E
:105560000624C0E1B8F1010F03D104F0A9F80D90B1
:1055700001E04FF001089DF8340000287ED00120A2
:105580000B909DF834000D2879D00ADC0D2877D2D5
:10559000DFE800F07692A1B0F076DDCEBFF1EEED5F
:1055A000EC00142812D008DCA0F10E000628EED280
:1055B000DFE800F0F0667F7E532F19287AD01A2892
:1055C00079D01F2873D042285AD14BE10020039094
:1055D00011909DF81C00A04218DA9DF82800A8B987
:1055E0009DF81C0000280CDD2E200EA99DF81C2023
:1055F00088549DF81C0009909DF81C00401CC0B206
:1056000007909DF82800401CC0B20A900120049029
:105610004EE101200390002011909DF81C00A04253
:1056200018DA9DF82800A8B99DF81C0000280CDDA8
:105630002E200EA99DF81C2088549DF81C0009906E
:105640009DF81C00401CC0B207909DF82800401C2B
:10565000C0B20A90012004902AE1022003900020A9
:1056600011909DF81C00A0421CDA9DF82800C8B9D2
:105670009DF81C00002810DD2E2002E019E1B7E0A3
:1056800015E10EA99DF81C2088549DF81C00099076
:105690009DF81C00401CC0B207909DF82800401CDB
:1056A000C0B20A900120049002E103E003E0DAE0D6
:1056B000FEE0FDE0FCE0FBE09DF81C00A04209DA02
:1056C00031200EA99DF81C2088549DF81C00401C18
:1056D000C0B20790ECE09DF81C00A04209DA32202D
:1056E0000EA99DF81C2088549DF81C00401CC0B2D7
:1056F0000790DDE09DF81C00A04209DA33200EA9D6
:105700009DF81C2088549DF81C00401CC0B20790D6
:10571000CEE09DF81C00A04209DA34200EA99DF8C5
:105720001C2088549DF81C00401CC0B20790BFE0AC
:105730009DF81C00A04209DA35200EA99DF81C2016
:1057400088549DF81C00401CC0B20790B0E09DF842
:105750001C00A04209DA36200EA99DF81C208854AE
:105760009DF81C00401CC0B20790A1E062E021E05F
:1057700011E000E078E09DF81C00A04209DA372033
:105780000EA99DF81C2088549DF81C00401CC0B236
:1057900007908DE01DE09DF81C00A04209DA38203A
:1057A0000EA99DF81C2088549DF81C00401CC0B216
:1057B00007907DE09DF81C00A04209DA39200EA96F
:1057C0009DF81C2088549DF81C00401CC0B2079016
:1057D0006EE09DF81C00A04209DA30200EA99DF869
:1057E0001C2088549DF81C00401CC0B207905FE04C
:1057F0009DF81C00A0421CDA9DF81C00002818DD52
:105800009DF82800A8B99DF81C0000280CDD2E206A
:105810000EA99DF81C2088549DF81C0009909DF845
:105820001C00401CC0B207909DF82800401CC0B26C
:105830000A903DE09DF81C00002812DD9DF81C0038
:10584000401EC0B2079020200EA99DF81C2088544D
:105850009DF824009DF81C10884202D100200A9077
:10586000099025E024E023E00020039011909DF8AA
:105870001C00A04218DA9DF82800A8B99DF81C0069
:1058800000280CDD2E200EA99DF81C2088549DF8C0
:105890001C0009909DF81C00401CC0B207909DF8A8
:1058A0002800401CC0B20A900120049000E000BF14
:1058B00000BF9DF82C00B0B100200B906FF07F402E
:1058C0000E4908604FF47F004860B38810339AB2E5
:1058D00071883088122304F067F8718830880023BB
:1058E0000EAA11F04BFF9DF8440000287FF43AAE59
:1058F0009DF81C000C900DE083000020800100202A
:1059000030200EA99DF8302088549DF83000401CAE
:10591000C0B20C909DF830109DF82400401D8142CB
:10592000EEDB00200C9039E09DF83800302830DBA9
:105930009DF8380039282CDC0EA89DF83010405C0A
:10594000302826DB0EA89DF83010405C392820DC7A
:105950009DF824009DF8301088420DDD019800EB81
:1059600080004000019001990EA89DF83020805CD5
:105970003038084401900CE0019800EB80004000B2
:10598000019001990EA89DF83020805C30380844C1
:1059900001909DF83000401CC0B20C909DF8301072
:1059A0009DF82400401D8142BEDB9DF8240002903A
:1059B0009DF800002870019868600298A86003981C
:1059C000E86004982861059868610698A86112B09B
:1059D000BDE8F0812DE9F041074688466FF07F4031
:1059E000F64908604FF050104860F54890F86B0198
:1059F00050B9F44890F8D600052803DCF14890F837
:105A0000D6501DE005251BE0ED4890F86B010128FC
:105A10000CD1EC4890F8D6000A2805DCE94890F84B
:105A2000D600401FC5B20BE0052509E0E44890F818
:105A30006B01022804D1E34890F8D6000A38C5B2B9
:105A4000CA2340F2DF125E21002003F0ADFF4FF0C9
:105A500050116FF07F4004F005FC6FF07F40D74994
:105A60004860C5F1040000EB400101EBC000CA2111
:105A7000A1EB40005D3883B201225E21002003F0DB
:105A800093FFC5F1040000EB400101EBC000CA2107
:105A9000A1EB40005D3883B201225E21282003F093
:105AA00083FFC5F1040000EB400101EBC000CA21F7
:105AB000A1EB40005D3883B201225E21782003F023
:105AC00073FF012415E0C5F1040101EB410202EB73
:105AD000C101CA22A2EB41015D398BB2642204FBF1
