:020000040804EE
:10000000807F0120C1010408DDBD0408BD8C040807
:10001000A5BC0408B5130408B15A05080000000087
:10002000000000000000000000000000C5E404081B
:1000300007190408000000007DC6040845030508F0
:10004000DB010408DB010408DB010408FDD004081F
:10005000DB010408DB010408DB010408DB01040800
:10006000DB010408A57C0408DB010408DB010408AB
:10007000DB010408DB010408DB010408DB010408E0
:10008000DB010408DB010408DB010408DB010408D0
:10009000DB010408DB010408DB010408DB010408C0
:1000A000DB010408DB010408DB010408DB010408B0
:1000B00077050508DB010408DB010408DB010408FF
:1000C000DB010408DB010408DB010408DB01040890
:1000D000DB010408A11C0508DB010408191D050843
:1000E0008D7C0408DB010408DB010408DB01040843
:1000F000DB010408DB010408DB010408DB01040860
:10010000DB010408DB010408DB010408DB0104084F
:10011000DB010408DB0104088D050508DB01040888
:10012000DB010408DB010408DB010408DB0104082F
:10013000DB010408DB010408DB010408DB0104081F
:10014000DB010408DB010408DB010408A9BE040884
:10015000DB010408DB010408DB010408DB010408FF
:10016000DB010408DB010408DB010408DB010408EF
:10017000DB010408DB010408DB010408DB010408DF
:10018000DB010408DB010408DB010408DB010408CF
:10019000DB010408DB010408DB010408DB010408BF
:1001A000DB010408DB010408DB010408DFF80CD0E4
:1001B00000F0F6FA00480047E1940508807F01202E
:1001C0000648804706480047FEE7FEE7FEE7FEE7F1
:1001D000FEE7FEE7FEE7FEE7FEE7FEE7E9030508C8
:1001E000AD01040840EA01039B0703D009E008C9F8
:1001F000121F08C0042AFAD203E011F8013B00F8EC
:10020000013B521EF9D27047D2B201E000F8012B37
:10021000491EFBD270470022F6E710B513460A4686
:1002200004461946FFF7F0FF204610BD10B5002226
:1002300000E0521C835C8C5CA34201D1002BF8D1FE
:10024000D8B2E1B2401A10BD2DE9FE4F804681EAD6
:100250000300C00F0C46009021F0004123F0004540
:10026000B8EB0200A94105D24046214690461C4603
:100270000B46024623F00040104347D0270DC7F33A
:100280000A00C3F30A510290401A019040286BDA29
:10029000C3F3130040F4801B0098924620B1002362
:1002A000D2EB030A63EB0B0B01985946C0F14002F5
:1002B000504600F0CFF906460D4650465946019A81
:1002C00000F0E7F910EB08006141002487EA1152C1
:1002D00084EAE7731A4340D0009A62B3019A012A74
:1002E0004FEA075215DC001B61EB02014FF00042A0
:1002F00002EA0752CDE90042001C41F58011324666
:100300002B4600F0E7F903B0BDE8F08F40462146E8
:10031000F9E7001B61EB0201001C41F58013001896
:100320005B412018A2F5001747EB030140EAD570A6
:10033000B6196D4111E06D084FEA360645EAC07501
:100340004FEA0752001B61EB0201001C41F58011CE
:1003500049084FEA30000019514132462B4603B09C
:10036000BDE8F04F00F0A7B900980122400000233B
:10037000D0EB020263EBE073009821464FEAE07491
:10038000B8EB000061EB0401E9E783F000435BE7B1
:1003900081F0004158E72DE9FE4F81EA030404F0A3
:1003A000004421F0004100944FF0000B23F0004383
:1003B00050EA01045ED052EA03045BD0C3F30A544E
:1003C000C1F30A552C44A4F2F3340194A0FB025467
:1003D000C1F3130141F48011C3F3130343F48013F9
:1003E00001FB024400FB034E840A970A44EA81544D
:1003F00047EA8357A4FB076802958D0A05FB07852A
:100400004FEA932C04FB0C542705029D4FEA065833
:1004100047EA1637B5EB08056EEB070C870E920E10
:1004200047EA811742EA8312A7FB0201B6EB0B01F0
:1004300064EB00042B0D43EA0C335E1844EB1C50B4
:10044000DA465146E7FB0201C5F313044FEA0B33CA
:1004500043EA14534FEA0432019C43EA0603A4F131
:100460000C040294009CCDE900B400F033F903B011
:10047000BDE8F08F00200146F9E72DE9F04D81EA53
:10048000030404F0004B21F0004514464FF0000A2D
:1004900023F0004150EA050220D054EA01021DD0A9
:1004A000C5F30A570246C5F31303C1F31300C1F3A2
:1004B0000A5640F4801543F48013A7EB0608101B7E
:1004C000D64608F2FD3873EB050002D308F10108A7
:1004D00001E092185B41B8F1000F03DA00200146F9
:1004E000BDE8F08D00204FF48011064684460EE0F2
:1004F000171B73EB050705D3121B63EB05030643BC
:100500004CEA010C49084FEA300092185B4150EA6E
:100510000107EDD152EA030012D082EA040083EA17
:100520000501084305D0101BAB4106D20122002370
:1005300006E000224FF0004302E06FF0010253108A
:100540001AEB06004CEB085110EB0A0041EB0B01D3
:10055000BDE8F04D00F0AFB80EB5C10F80EAE07015
:100560000844CA07002140F233438DE80E000A46D2
:100570000B4600F0AFF803B000BD0EB540F23341BA
:1005800002910021CDE900110A460B4600F0A2F8C5
:1005900003B000BDC1F30A5210B5C1F3130140F21C
:1005A000FF3341F480119A4201DA002010BD40F27D
:1005B00033439A42A2F2334203DC524200F059F82C
:1005C00010BD904010BD000030B5041E71F1000454
:1005D00004DB4FF00044404264EB0101141E73F150
:1005E000000405DB1C464FF00043524263EB04035A
:1005F0008B4208BF824230BD30B5041E71F1000449
:1006000004DB4FF00044404264EB0101141E73F11F
:10061000000405DB1C464FF00043524263EB040329
:10062000994208BF904230BD30B50B4601460020CC
:100630002022012409E021FA02F59D4205D303FAA4
:1006400002F5491B04FA02F52844151EA2F1010225
:10065000F1DC30BD202A04DB203A00FA02F1002050
:1006600070479140C2F1200320FA03F319439040F0
:100670007047202A04DB203A21FA02F0002170475B
:1006800021FA02F3D040C2F12002914008431946FA
:100690007047202A06DBCB17203A41FA02F043EAE2
:1006A000E07306E041FA02F3D040C2F1200291402B
:1006B00008431946704710B5141E73F1000408DA98
:1006C000401C41F1000192185B411A4301D120F016
:1006D000010010BD2DE9F04D92469B4611B1B1FAD3
:1006E00081F202E0B0FA80F220329046FFF7B2FFCA
:1006F00004460F4640EA0A0041EA0B0153465A46B7
:10070000084313D0114653EA010019D0C8F1400242
:100710005046FFF7AEFF05460E4650465946424644
:10072000FFF798FF084305D0012004E02046394632
:10073000BDE8F08D0020054346EAE0762C433743C0
:100740000A986305E40AA0EB08000022FD0A44EAC7
:1007500047540A3002D500200146E9E70105101987
:100760006941DDE9084500196941BDE8F04DA2E79E
:1007700070B521F0004303430CD0C1F30A550024A7
:10078000D5EB040564EB0403D617AD1AB34102DBC5
:100790000020014670BD201841EB025170BD0000E1
:1007A000064C074D06E0E06840F0010394E80700BE
:1007B00098471034AC42F6D3FFF7FCFC28340F08FE
:1007C00048340F082DE9F04D00231A461B1A8A41C0
:1007D00003DB00200146BDE8F08DC1F30A52C1F3EE
:1007E000130141F480154FF0000BD10702D100181E
:1007F0006D41521E0027044640F2FF11384601EBBE
:10080000620A3E468046024600204FF48011FFF700
:1008100030FFC2197141BB1846EB0100B4EB030C69
:1008200075EB000C04D3E41A65EB000517460E4681
:10083000241908F101006D4180463428E3DDF919DF
:1008400046EB0600091BA84103D24FF0FF321346C6
:1008500001E0002213461BEB070046EB0A51BDE8FE
:10086000F04DFFF728BF70B58C1810F8015B15F03C
:10087000070301D110F8013B2A1106D110F8012B12
:1008800003E010F8016B01F8016B5B1EF9D12B0737
:1008900005D40023521E0DD401F8013BFAE710F8ED
:1008A000013BCB1A921C03E013F8015B01F8015BDA
:1008B000521EF9D5A142D8D3002070BD70B50546AF
:1008C0000C4608480560204600F00EF800BF0548B9
:1008D00000680028FBD100214FF0804010F0B1F9F2
:1008E00070BD0000FC0100203EB5044600214FF021
:1008F000804010F0A6F900220121880710F0E8FAE4
:10090000022C02D10B20019004E0012C02D142F60E
:10091000DF6001900520ADF800000020ADF8080070
:10092000ADF8020069464FF0804010F027FB01212E
:10093000880710F083F90121880710F070F901226F
:100940001146900710F0C4FA0121880710F079F9D8
:100950003EBD000010B54FF480711448FFF75BFCFA
:1009600001201249087006204870002088700D2070
:10097000C87000200871487188710D4890F85800BF
:10098000C8710821094808F09BF90012074908724C
:100990000821064808F094F9044948720A210348DE
:1009A00014F054FE01200349087010BDA22C012050
:1009B0006C0500209401002070B504460D4659488E
:1009C000594948602CBB59480068642806D2002366
:1009D00007220421184608F0B1F906E05349002324
:1009E00007220868042108F0A9F9504900230722CA
:1009F0000868042108F0A2F900234D4A8221502002
:100A000015F09AFD00234BA28221A02015F094FD41
:100A10001FE0012C1DD145480068642806D2002340
:100A200006220321184608F089F906E03F49002311
:100A300006220868032108F081F900233C4A82213C
:100A4000502015F079FD00233AA28221A02015F054
:100A500073FD9DB93549002307224868042108F039
:100A60006DF90023324AA021502015F065FD0023C6
:100A700031A2A021084615F05FFD14E0012D12D12E
:100A80002A49002306224868032108F057F9002369
:100A9000274AA021502015F04FFD002326A2A021B7
:100AA000084615F049FD214900230622C8680321A4
:100AB00008F044F900231E4ABE21502015F03CFDE9
:100AC00000231EA2BE21A02015F036FD17490023E9
:100AD00007228868042108F031F90023144A822192
:100AE0004FF48C7015F028FD002315A282214FF4DD
:100AF000B47015F021FD0D4900230622886F1946B8
:100B000008F01CF900230A4AA0214FF48C7015F05C
:100B100013FD00230BA2A0214FF4B47015F00CFDBF
:100B200070BD0000653434004C01002060070020D7
:100B3000A00A0020560000004100000057000000FD
:100B4000A6B800006D41480070B586B00020049042
:100B5000002400250126FC490870FC4908704FF06C
:100B6000501008F097FC002002F018F800200390C5
:100B70000DF02CFFCFE3BDF81000401C80B20490B4
:100B8000204607F01FF9C5B2F1480078012801D1CD
:100B900001262C466FF07F40EE490860EE48007851
:100BA00038B10020EC49087006F0A6FC0020EB49A3
:100BB0000870EB480078012804D10020E84908704B
:100BC0000CF00CFE012E03D1204601F05BFD002647
:100BD000DD480078012804D10CF054FB0020DA49EC
:100BE0000870E04890F86D0138B9DF4A92F820109B
:100BF00092F82100FFF7E0FE22E0DA4890F86D015C
:100C000001281DD10BF050F802F0DEFE6FF07F409E
:100C1000D0490860D54848600023D5A2F1214FF49F
:100C2000CC7015F089FC0220CE4981F86D01CE48C8
:100C3000B0F8DC01401CCC49A1F8DC010FF064FBEA
:100C4000CD48007870B1CD480078052805D10DF069
:100C5000BDFE0020C949087004E0C8480078401C67
:100C6000C6490870C6484078012875D1C548007843
:100C70000028FAD1C24880780028F6D1012608F071
:100C8000C9FA05909DF81400BF4908709DF814003A
:100C9000002861D09DF814000E2874D00ADC0E28BC
:100CA00072D2DFE800F071F2F3F4EBEAF7F6F5F850
:100CB000F9FAE3FC182868D008DCA0F10F00062838
:100CC000EED2DFE800F0FD66584D31101C286FD0E1
:100CD00004DC19286DD01A2856D1A9E01F2869D044
:100CE0004228F9D1DAE114B1012C1AD106E0A74863
:100CF000007810B90620A649087013E0A3480078D0
:100D000070B90020984981F858000DF05FFE4FF04F
:100D1000501008F0BFFB012001F040FF0FF0F4FA83
:100D200000E000BF00BFF5E214B1012C15D100E0D6
:100D300014E09648007870B902208B4981F8580079
:100D40000DF044FE4FF0501008F0A4FB012001F01C
:100D500025FF0FF0D9FA01E0DDE200BF00BFD9E2C4
:100D600034B98A48007810B916208949087000E023
:100D700000BF00BFCEE24CB98448007810B91720FC
:100D80008349087003E089E0C3E2C1E200BF00BF0D
:100D9000C0E2744890F86D0198B914B1012C0ED1DD
:100DA00009E07A48007810B90D207949087007E009
:100DB000A5E116E094E104206B49487000E000BF13
:100DC0000EE0684890F86C0150B90020654981F840
:100DD0006D014FF0501008F05DFB002001F0DEFEC9
:100DE00098E2614890F8580058B9052C02DD201FA0
:100DF000C4B21CE0032C1ADA002C18DD601EC4B249
:100E000015E0594890F85800022810D1062C01D15D
:100E100002240CE0052C01D1022408E0022C02D1AE
:100E2000601EC4B203E0012C01D1601EC4B271E2A5
:100E30004D4890F8580058B9052C04DA012C02DD11
:100E4000201DC4B220E0022C1EDA601CC4B21BE0DC
:100E5000454890F85800022816D1022C01D10624EA
:100E600012E0012C0ED102240EE018E040E114E063
:100E700012E010E00CE00CE00CE032E170E106E082
:100E800004E002E004B9012444E200BF00BF00BF57
:100E900000BF00BF00BF00BF00BF00BF00BFA01E5B
:100EA000072877D2DFE800F0043677F791C1DC003D
:100EB0003648007858BB2C4890F8580080B900E0BC
:100EC000EDE07620ADF804003020ADF806004C20AF
:100ED000ADF8080001A804F0A2FF2349C86512E09C
:100EE000214890F8580002280DD17620ADF8040072
:100EF0003020ADF806005020ADF8080001A804F03D
:100F0000D6FF194988670BF00BF80DF05FFD0FF065
:100F1000FBF9C1E01D480078A8B9134890F85800C3
:100F200068B97620ADF804004620ADF806004C20E4
:100F3000ADF8080001A804F072FF0B4908660AF03A
:100F4000EFFF0FF0E1F9A7E0550000205700002067
:100F5000460100204C0100205D00002064000020BC
:100F60003D000020600700206C05002038003100A3
:100F7000C8B7C8CF00000000940100208000002006
:100F80003C01002024010020830000207C00002080
:100F9000580000207FE0E3480078A8B9E24890F8C4
:100FA000580068B97620ADF804005C20ADF8060062
:100FB0004C20ADF8080001A804F031FFDA4948667A
:100FC0000AF0AEFF0FF0A0F966E0D648007858BBF3
:100FD000D54890F8580078B94FF4B870ADF80400CF
:100FE0003020ADF806004C20ADF8080001A805F04F
:100FF0002AF8CD49C86613E0CB4890F8580002287B
:101000000ED14FF4B870ADF804003020ADF80600F2
:101010004C20ADF8080001A805F015F8C249C867D2
:101020000AF07EFF0FF070F936E0BE480078B0B9E4
:10103000BD4890F8580070B94FF4B870ADF804008E
:101040004620ADF806004C20ADF8080001A804F0D9
:10105000FAFFB54908670AF063FF0FF055F91BE086
:10106000B0480078B0B9B04890F8580070B94FF463
:10107000B870ADF804005C20ADF806004C20ADF867
:10108000080001A804F0DFFFA74948670AF048FFFD
:101090000FF03AF900E000BF00BF3BE13AE1A148A0
:1010A000007890B90320A14908700FF043F901209E
:1010B0009F4908709FED9F0A9F4880ED1D0A0120FF
:1010C000984908700DF082FC09E0032097490870E8
:1010D0000020944908700DF079FC0FF023F919E114
:1010E00018E19048007810B912209449087011E175
:1010F0008C48007810B90620904908700AE1012C4C
:101100002DD1894890F8580090B98648007830BBB6
:101110000220854981F858000DF058FC4FF050101E
:1011200008F0B8F9012001F039FD0FF0EDF816E0F4
:101130007D4890F85800022811D17A48007870B99B
:101140000020794981F858000DF040FC4FF0501014
:1011500008F0A0F9012001F021FD0FF0D5F8D9E049
:10116000A01E07287ED2DFE800F004344ED0689A33
:10117000B5006C48007848BB6B4890F8580070B9CF
:101180007620ADF804003020ADF806004C20ADF814
:10119000080001A804F043FE6349C86512E06248F4
:1011A00090F8580002280DD17620ADF804003020C8
:1011B000ADF806005020ADF8080001A804F077FE55
:1011C000594988670AF0ACFE0DF000FC0FF09CF85E
:1011D0009CE054480078A8B9534890F8580068B982
:1011E0007620ADF804004620ADF806004C20ADF89E
:1011F000080001A804F013FE4B4908660AF090FEAF
:101200000FF082F882E047480078A8B9464890F885
:10121000580068B97620ADF804005C20ADF80600EF
:101220004C20ADF8080001A804F0F9FD3E494866DD
:101230000AF076FE0FF068F868E03A48007868BB7C
:10124000394890F8580088B94FF4B870ADF80400E8
:101250003020ADF806004C20ADF8080001A804F0DD
:10126000F2FE00E051E03049C86613E02E4890F8E5
:10127000580002280ED14FF4B870ADF804003020A9
:10128000ADF806004C20ADF8080001A804F0DBFE24
:101290002549C8670AF044FE0FF036F836E02148C9
:1012A0000078B0B9204890F8580070B94FF4B87081
:1012B000ADF804004620ADF806004C20ADF808005B
:1012C00001A804F0C0FE184908670AF029FE0FF0D3
:1012D0001BF81BE013480078B0B9134890F8580089
:1012E00070B94FF4B870ADF804005C20ADF806009A
:1012F0004C20ADF8080001A804F0A5FE0A49486793
:101300000AF00EFE0FF000F800E000BF00BF01E0A1
:1013100000E000BF00BF0948007815283FF42BAC5F
:1013200006B070BD7C0000206C0500207F0000200E
:10133000340000200000000060070020580000205A
:1013400010B54FF48061024807F036FB10BD000075
:101350000008024010B54FF48061024807F02EFBF0
:1013600010BD00000008024010B50446A21E0E4841
:101370000E4B1B68C1180E48FEF734FFA01EC1B209
:101380000B4807F09DFC0112A01E094A1154C1B27E
:10139000104607F095FCC1B2601E054A1154214663
:1013A000104614F053F910BD2E0C00206C000020E4
:1013B0002C0B002000BFFEE710B504464FF48071EF
:1013C0006748FEF728FF01206549087065480078E6
:1013D00010B90846847007E062480078012803D1FC
:1013E00004F110005E498870A5205D4948705D4891
:1013F000007800284BD1012C05D0022C03D0092CF9
:1014000001D00A2C1BD1601E574951F82000000E54
:101410005349C870601E544951F82000000C5049CF
:101420000871601E504931F82000000A4C4948718B
:10143000601E4D4911F82000494988717EE0601E08
:10144000494951F820000A21B0FBF1F0000E44494F
:10145000C870601E444951F820000A21B0FBF1F029
:10146000000C3F490871601E3F4951F820000A21D5
:10147000B0FBF1F0000A3A494871601E3A4951F850
:1014800020000A21B0FBF1F03549887156E035485B
:101490000078012852D1012C05D0022C03D0032C56
:1014A00001D0042C1FD104F10F002F4951F8200066
:1014B000000E2B49C87004F10F002B4951F8200091
:1014C000000C2749087104F10F00274931F820006A
:1014D000000A2349487104F10F00234911F8200044
:1014E0001F4988712AE004F10F001F4951F82000BC
:1014F0000A21B0FBF1F0000E1949C87004F10F0089
:10150000194951F820000A21B0FBF1F0000C1449F0
:10151000087104F10F00144951F820000A21B0FBB2
:10152000F1F0000A0E49487104F10F000E4951F81C
:1015300020000A21B0FBF1F0094988710721084811
:1015400007F0BEFB00120649C8710721044807F0E6
:10155000B7FB034908720921014814F077F810BD60
:10156000A22C0120860000207007002010B5012168
:10157000C8050BF083F900214FF400000BF07EF951
:1015800010BD000001460020034A52680A400AB11B
:10159000012000E00020704700B0024070B500213B
:1015A000002200230024344D2D68344E3540324E45
:1015B000356035462D68066835432F4E3560354613
:1015C0006D6B25F00705756335466D6B46683543D1
:1015D000294E7563456835B9C5682902058A2A040C
:1015E000057D2B0621E04568012D05D1C56829023E
:1015F000058A2A04002318E04568022D05D1C56834
:1016000069010569EA0200230FE04568032D06D150
:10161000C56869010569AA024569EB0305E0C5686B
:10162000290105692A0245692B0341EA02058668FA
:1016300035431D43104EB66B35430F4EB563856978
:10164000F56335462D6C6FF30D05356435462D6C0D
:10165000C6693543084E3564858C2C0435466D6C5F
:1016600005F04045756435466D6C066A2643354382
:10167000014E756470BD000000B00240FCE0FCFF4C
:101680000348006840F0010001490860704700000D
:1016900000B002400246094B9A4201D2084801E0DC
:1016A0000648103801F000531BB1064B0B40C360D5
:1016B00002E0044B0B40836070470000106402405E
:1016C000006002407D0F7D0F0246094B9A4201D215
:1016D000084801E00648103801F000531BB1064BE2
:1016E0000B40C36002E0044B0B4083607047000076
:1016F00010640240006002407D0F7D0F21B102683E
:1017000042F00102026003E0026822F0010202607E
:1017100070470000016821F00101016000210160B3
:1017200041608160C1600161212141614A49884273
:1017300004D13D21484A103A91608CE04649183165
:10174000884205D14FF47461434A103A916082E0B7
:1017500041493031884205D14FF474113E4A103A64
:10176000916078E03C494831884205D14FF074617E
:10177000394A103A91606EE037496031884204D1AD
:101780003649354A103AD16065E0334978318842AC
:1017900004D13349304A103AD1605CE02E4990318F
:1017A000884204D12F492C4A103AD16053E02A498B
:1017B000A831884205D14FF03D51274A103AD160F7
:1017C00049E02949884204D13D21274A083A11605D
:1017D00041E025491831884205D14FF47461224A0D
:1017E000083A116037E020493031884205D14FF482
:1017F00074111D4A083A11602DE01B494831884296
:1018000005D14FF07461184A083A116023E0164977
:101810006031884204D11149134A121F11601AE045
:1018200011497831884204D10D490F4A121F1160C5
:1018300011E00D499031884204D10A490A4A121F29
:10184000116008E00849A831884204D14FF03D51A9
:10185000054A121F11607047106002403D000020D1
:10186000400F002000003D2010640240014600208F
:101870000A6802F001020AB1012000E0002070476E
:101880000146486880B2704710B500220268134BC9
:101890001A40CC680B6823434C6923438C6923436B
:1018A000CC6923430C6A23434C6A23438C6A234349
:1018B0004C6B23438C6B23431A430260426922F032
:1018C0000702D1E90B3423431A4342610B69436099
:1018D0004B6883608B68C36010BD00003F801CF0C4
:1018E000416070470021016041608160C160016119
:1018F00041618161C161016241628162C1620163D2
:10190000416381637047704710B586B0044601217A
:1019100008460AF0A3FF012110200AF0FFFF07226A
:101920000A21274807F01CF807220921244807F05C
:1019300017F800208DF8160001208DF817000220FE
:101940008DF814000002049002208DF8150004A9FF
:101950001B4806F0BDFF02208DF8140040020490E1
:1019600004A9174806F0B4FF00940020ADF8040065
:10197000ADF80600ADF80800ADF80C000C20ADF88D
:101980000A0069460F4810F075FA0AF028FA012299
:1019900040F224410B4810F047FA0121094810F0A9
:1019A000F7F901224021074810F0FEF901228021B9
:1019B000044810F0F9F900F007F806B010BD000077
:1019C000000002400010014000B591B001218805DF
:1019D0000AF044FF3848FFF79DFE02A8FFF782FF98
:1019E00000BF3548FFF742FF0028FAD14FF00060F2
:1019F0000290324803903248049040200590002025
:101A0000069007904FF480600890002009900A909B
:101A10000B904FF480300C9000200D9003200E901E
:101A200000200F90109002A92348FFF72DFF2248B5
:101A30007838FFF76FFE00BF1F487838FFF716FFB2
:101A40000028F9D14FF0006002901C4803901D4817
:101A50000490002005904FF48070069000200790BD
:101A60004FF480600890002009900A900B904FF48A
:101A700000300C9000200D9003200E9000200F905D
:101A8000109002A90C487838FFF7FEFE3A208DF836
:101A900004000D208DF8050000208DF806000120BF
:101AA0008DF8070001A80AF0AFF901210248783843
:101AB000FFF724FE11B000BDB864024004100140DD
:101AC000A22F0120A22E01207CB504466FF07F409A
:101AD000F7490860012C01D1012000E000200090AE
:101AE000009820B14FF47F00F149486003E04FF0C7
:101AF0005010EF494860EF4900230722D1F8B800A1
:101B0000042107F01BF9122368221A21582007F03C
:101B1000F5FC0023E84A1A21582014F00DFD00239B
:101B2000E64A1A21AA2014F007FD022C01D1012057
:101B300000E000200090009820B14FF47F00DC49C5
:101B4000486003E04FF05010D9494860D94900235C
:101B50000722D1F8BC00042107F0F0F81223682214
:101B60002E21582007F0CAFC0023D34A30215820E8
:101B700014F0E2FC0023D14A3021AA2014F0DCFC4E
:101B8000032C01D1012000E000200090009820B13A
:101B90004FF47F00C649486003E04FF05010C4493D
:101BA0004860C44900230722D1F8C000042107F08F
:101BB000C5F8122368224621582007F09FFC002315
:101BC000BD4A4621582014F0B7FC0023BB4A083216
:101BD0004621AA2014F0B0FC042C01D1012000E021
:101BE00000200090009820B14FF47F00B049486079
:101BF00003E04FF05010AE494860AE490023072281
:101C0000D1F8C400042107F099F812237A225A214E
:101C1000582007F073FC0023A74A5C21582014F0D9
:101C20008BFC0023A54A08325C21AA2014F084FC16
:101C3000052C01D1012000E000200090009820B187
:101C40004FF47F009A49486003E04FF050109849E4
:101C50004860984900230822D1F8C800042107F001
:101C60006DF812237A227021582007F047FC0023D8
:101C7000914A7221582014F05FFC00238F4A1032E1
:101C80007221B42014F058FC062C01D1012000E090
:101C900000200090009820B14FF47F0084494860F4
:101CA00003E04FF050108249486082490023082227
:101CB000D1F8CC00042107F041F812237A228621C2
:101CC000582007F01BFC00237B4A8821582014F081
:101CD00033FC0023794A10328821B42014F02CFC04
:101CE000072C01D1012000E000200090009820B1D5
:101CF0004FF47F006E49486003E04FF050106C498C
:101D000048606C4890F8D50008B16D4D00E06D4D0D
:101D100012237A2218214FF4A97007F0EFFB6548CF
:101D200090F8D000C0EBC000421900231A214FF4F4
:101D3000A97014F001FC082C01D1012000E0002062
:101D40000090009820B14FF47F005949486003E0AB
:101D50004FF0501056494860564890F8D50008B1E9
:101D6000594D00E0594D12237A222E214FF4A970CB
:101D700007F0C4FB4F4890F8D100C0EBC0004219F7
:101D8000002330214FF4A97014F0D6FB092C01D1A7
:101D9000012000E000200090009820B14FF47F0067
:101DA0004349486003E04FF05010414948604148C2
:101DB00090F8D50008B1424D00E0424D12237A223E
:101DC00044214FF4A97007F099FB3A4890F8D200EB
:101DD000C0EBC0004219002346214FF4A97014F053
:101DE000ABFB0A2C01D1012000E0002000900098FC
:101DF00020B14FF47F002E49486003E04FF05010AF
:101E00002B4948602B4890F8D50008B12C4D00E0D4
:101E10002C4D12237A225A214FF4A97007F06EFB41
:101E2000244890F8D300C0EBC000421900235C2185
:101E30004FF4A97014F080FB0B2C01D1012000E0BD
:101E400000200090009820B14FF47F0018494860AE
:101E500003E04FF0501016494860164890F8D5003E
:101E600008B1174D00E0174D12237A2270214FF46C
:101E7000A97007F043FB0F4890F8D400C0EBC000F6
:101E80004219002372214FF4A97014F055FB072C5E
:101E900022D2DFE804F01D0405060708090000BF90
:101EA00000BF00BF00BF00BF022001F0D7FD17E058
:101EB0004C0100206C050020A00A0020D7A60508D0
:101EC0004DA50508CFA4050815A50508DDA405083E
:101ED000042001F0C3FD03E0072001F0BFFD00BFB7
:101EE00000BF01F071FD0C2C64D2DFE804F0060A9B
:101EF0000B0C0D0E0F3810393A3B032000F006FF93
:101F000059E000BF00BF00BF00BF00BF53E06FF04B
:101F10007F402A4908602A4848602A4890F8D5003E
:101F200008B1294D00E0294D0020019013E00199EE
:101F3000C1EBC1014A190199C1EB011303EB411136
:101F4000202303EB410188B20023F12114F0F4FABD
:101F50000198401C019001980228E8D32BE000BFB3
:101F600000BF00BF6FF07F4014490860144848600C
:101F7000144890F8D50008B1154D00E0154D00202B
:101F8000019013E00199C1EBC1014A190199C1EB1C
:101F9000011303EB4111202303EB410188B200231D
:101FA000F12114F0C9FA0198401C0190019802280F
:101FB000E8D300E000BF00BF7CBD00004C01002062
:101FC000380031006C05002015A50508DDA40508C2
:101FD0004DA50508CFA4050800B58DB04FF05010F1
:101FE00007494860074808A10268684614F01AFBD0
:101FF00000236A463221022014F09EFA0DB000BD83
:102000004C01002094000020B6C1C8A1B3C9B9A6F4
:102010002CCEC4BCFEB4F3D0A1CEAA2564D7D6BDC5
:10202000DA2CC7EBB0B4B7A2CBCDCEC4BCFE000057
:102030007CB504466FF07F40FE490860012C01D159
:10204000012000E000200090009820B14FF47F00B4
:10205000F849486003E04FF05010F6494860F648F0
:1020600090F8D50008B1F54D00E0F54D1223682237
:102070001A21582007F042FAEF480078C0EBC00060
:10208000421900231A21582014F056FA022C01D1CB
:10209000012000E000200090009820B14FF47F0064
:1020A000E449486003E04FF05010E2494860E248DC
:1020B00090F8D50008B1E34D00E0E34D122368220B
:1020C0002E21582007F01AFADB4890F82000C0EBC8
:1020D000C000421900233021582014F02DFA032C9F
:1020E00001D1012000E000200090009820B14FF4C1
:1020F0007F00D049486003E04FF05010CD49486060
:10210000CD4890F8D50008B1CE4D00E0CE4D122359
:1021100068224621582007F0F1F9C74890F82100BD
:10212000C0EBC000421900234621582014F004FAE5
:10213000042C01D1012000E000200090009820B183
:102140004FF47F00BB49486003E04FF05010B9499D
:102150004860B949486A00230722042106F0EEFDD1
:1021600012237A225A21582007F0C8F90023B74ACF
:102170005C21582014F0E0F90023B54A5C21AA2024
:1021800014F0DAF9052C01D1012000E000200090C4
:10219000009820B14FF47F00A649486003E04FF05B
:1021A0005010A4494860A449886A002307220421EA
:1021B00006F0C4FD12237A227021582007F09EF900
:1021C0000023A24A7221582014F0B6F90023A04A35
:1021D0007221AA2014F0B0F9062C01D1012000E0F0
:1021E00000200090009820B14FF47F009149486092
:1021F00003E04FF050108F4948608F49886C0023EE
:102200000722042106F09AFD12237A228621582003
:1022100007F074F900238D4A8821582014F08CF9B6
:1022200000238CA28821AA2014F086F9072C01D162
:10223000012000E000200090009820B14FF47F00C2
:102240007C49486003E04FF050107A4948607A4872
:10225000006BE0B17849086B00230622194606F0AE
:102260006DFD12237A2218214FF4A97007F046F968
:102270000023764A1A214FF4A97014F05DF9002367
:10228000764A1A214FF4C77014F056F919E0122358
:102290007A2218214FF4A97007F030F9664890F8B7
:1022A000D50038B900236EA21A214FF4A97014F09A
:1022B00043F906E000236CA21A214FF4A97014F030
:1022C0003BF9082C01D1012000E00020009000988B
:1022D00020B14FF47F005749486003E04FF05010A1
:1022E00054494860544890F8D50008B15F4D00E06B
:1022F0005F4D5149486B00230722042106F01EFD63
:1023000012237A222E214FF4A97007F0F7F8002348
:102310004E4A30214FF4A97014F00EF900234C4AB4
:10232000083230214FF4D27014F006F9092C01D193
:10233000012000E000200090009820B14FF47F00C1
:102340003C49486003E04FF050103A4948603A4930
:10235000886B00230722042106F0F0FC12237A2266
:1023600044214FF4A97007F0C9F80023374A4621E9
:102370004FF4A97014F0E0F80023354A46214FF4D9
:10238000D27014F0D9F80A2C01D1012000E000200D
:102390000090009820B14FF47F002649486003E088
:1023A0004FF05010234948602349C86B002308228E
:1023B000042106F0C3FC12237A225A214FF4A9709B
:1023C00007F09CF80023214A5C214FF4A97014F017
:1023D000B3F800231E4A10325C214FF4D77014F07A
:1023E000ABF80B2C01D1012000E0002000900098F8
:1023F00020B14FF47F000F49486003E04FF05010C8
:102400000C4948600C49086C00230522042106F0A1
:1024100095FC12237A2270214FF4A97007F06EF810
:1024200000230A4A72214FF4A97014F085F80023A2
:1024300020E000004C0100206C0500204DA505089F
:10244000CFA4050893A5050885A50508A00A0020C6
:10245000D7A6050820562F6D730000004F9E050873
:10246000B9D8B1D5000000004F464600DDA50508EB
:10247000A1A5050875A272214FF4D27014F05CF882
:102480000C2C01D1012000E000200090009820B128
:102490004FF47F006F49486003E04FF050106D49E2
:1024A00048606D49486C00230522042106F046FC73
:1024B00012237A2286214FF4A97007F01FF8002317
:1024C000664A88214FF4A97014F036F800235FA201
:1024D00088214FF4D27014F02FF80D2C1AD2DFE8B7
:1024E00004F019121314070809150A0B0C0D0E003D
:1024F00000BF00BF00BF00BF00BF00BF00BF022081
:1025000001F0ACFA0AE000BF00BF00BF072001F0F5
:10251000A5FA03E0042001F0A1FA00BF00BF01F01A
:1025200053FA0D2C7ED2DFE804F0070B335B85866F
:102530008788898A8B8C8D00022000F0E7FB83E07E
:102540006FF07F404349086045484860424890F832
:10255000D50008B1434D00E0434D0020019013E049
:102560000199C1EBC1014A190199C1EB011303EBB8
:102570004111202303EB410188B20023F12113F024
:10258000DBFF0198401C019001980228E8D35BE032
:102590006FF07F402F490860314848602E4890F81E
:1025A000D50008B1314D00E0314D0020019013E01D
:1025B0000199C1EBC1014A190199C1EB011303EB68
:1025C0004111202303EB410188B20023F12113F0D4
:1025D000B3FF0198401C019001980228E8D333E032
:1025E0006FF07F401B4908601D4848601A4890F80A
:1025F000D50008B11D4D00E01D4D0020019015E0F3
:102600000199C1EBC1014A190199C1EB011303EB17
:102610004111202303EB410188B20023F12113F083
:102620008BFF00E00FE00198401C01900198022808
:10263000E6D309E000BF00BF00BF00BF00BF00BF7E
:1026400000BF00BF00E000BF00BF7CBD20412F6D78
:10265000730000004C0100206C050020A00A00203F
:10266000380031004DA50508CFA4050893A505083D
:1026700085A5050810B504F0F3FC01F0A5F902F0FA
:102680007DFE10BD7CB50446FE4890F85800002839
:1026900072D1012C01D1012000E0002000900098AF
:1026A00020B14FF47F00F849486003E04FF050102C
:1026B000F549486014235C221821762006F01EFF9D
:1026C0006FF07F40F0490860EE4890F8D50060B99F
:1026D000EC4890F85800C0EBC000EC4942180023C9
:1026E0001A21762013F028FF0BE0E64890F85800F6
:1026F000C0EBC000E649421800231A21762013F0EF
:102700001BFF022C01D1012000E000200090009866
:1027100020B14FF47F00DC49486003E04FF05010D7
:10272000D949486014235C222E21762006F0E6FE6B
:102730006FF07F40D4490860D249C86D002307225A
:10274000042106F0FBFA0023D24A3021762013F050
:10275000F3FE0023D04A3021C82013F0EDFE032CF5
:1027600001D1012000E000200090009828B14FF432
:102770007F00C549486004E0EFE04FF05010C249C7
:10278000486014235C224421762006F0B7FE6FF0E7
:102790007F40BD490860BB49086E00230722042121
:1027A00006F0CCFA0023BB4A4621762013F0C4FE83
:1027B0000023B94A4621C82013F0BEFE042C01D1E3
:1027C000012000E000200090009820B14FF47F002D
:1027D000AD49486003E04FF05010AB494860142306
:1027E0005C225A21762006F089FE6FF07F40A649D0
:1027F0000860A449486E00230722042106F09EFACF
:102800000023A44A5C21762013F096FE0023A24AFE
:102810005C21C82013F090FE062C01D1012000E0BD
:1028200000200090009820B14FF47F009649486046
:1028300003E04FF050109449486014235C222E218D
:10284000C80006F05BFE6FF07F408F4908608D493D
:10285000C86E00230722042106F070FA00238D4A77
:1028600030214FF4B87013F067FE00238A4A921D9E
:1028700030214FF4E17013F05FFE072C01D10120ED
:1028800000E000200090009820B14FF47F007E49C6
:10289000486003E04FF050107B49486014235C22ED
:1028A0004421900006F02AFE6FF07F4076490860D0
:1028B0007449086F00230722042106F03FFA002321
:1028C000744A46214FF4B87013F036FE0023724A62
:1028D000921D46214FF4E17013F02EFE082C01D119
:1028E000012000E000200090009820B14FF47F000C
:1028F0006549486003E04FF0501063494860142375
:102900005C225A21900006F0F9FD6FF07F405E498D
:1029100008605C49486F00230722042106F00EFA84
:1029200000235C4A5C21880013F006FE00235A4A0B
:10293000921D5C214FF4E17013F0FEFD012C03D1D8
:10294000062001F08BF8C0E01CB9032001F086F8E6
:10295000BBE0082001F082F8B7E04A4890F8580040
:102960000228F0D1012C01D1012000E000200090CC
:10297000009820B14FF47F004349486003E04FF0D6
:1029800050104149486014235C221821762006F03B
:10299000B5FD6FF07F403C4908603A4890F8D5009B
:1029A00060B9384890F85800C0EBC0003749421869
:1029B00000231A21762013F0BFFD0BE0314890F878
:1029C0005800C0EBC0003249421800231A2176207B
:1029D00013F0B2FD022C01D1012000E00020009094
:1029E000009820B14FF47F002749486003E04FF082
:1029F000501025494860142368222E21762006F0C5
:102A00007DFD6FF07F40204908601E49886F0023DC
:102A10000722012106F092F900231E4A3021762078
:102A200013F08AFD00231C4A0C323021C82013F019
:102A300083FD062C01D1012000E0002000900098C9
:102A400020B14FF47F001049486003E04FF0501070
:102A50000D49486014235C222E21C80006F04EFD6B
:102A60006FF07F40084908600649C86F00230722BD
:102A7000042106F063F90023064A30214FF4B870B0
:102A80000CE000006C0500204C0100204AA4050861
:102A9000DAA30508A00A0020379E050813F04CFDB4
:102AA0000023354A30214FF4E17013F045FD012C2D
:102AB00003D1062000F0D2FF07E01CB9032000F08C
:102AC000CDFF02E0082000F0C9FF2C4890F86D010E
:102AD000B0BB092C3DD2DFE804F005093435363CA3
:102AE00037383900002000F011F933E000F06CFFB6
:102AF0006FF07F402249086022484860224890F8E1
:102B0000D50008B1214D00E0214D0020019013E0D7
:102B10000199C1EBC1014A190199C1EB011303EB02
:102B20004111202303EB410188B20023F12113F06E
:102B300003FD0198401C019001980228E8D309E0A8
:102B400009E000BF00BF00BF00BF00BF00F03CFFB6
:102B500000E000BF0EE000F037FF6FF07F40084953
:102B600008600848486000230AA2F1214FF4CC70A5
:102B700013F0E2FC7CBD00003D9E050860070020CC
:102B80004C010020380031006C050020DAA3050854
:102B9000C5A30508C8B7C8CF0000000070B5064639
:102BA000FFF768FD6FF07F404E4908604E4848606F
:102BB0004E4890F8D50008B14D4D00E04D4D002332
:102BC00005F12C020421184613F0B6FC6FF07F408B
:102BD000444908604FF050104860444890F858004D
:102BE000F0BB00243AE0042C1BD2404890F8D500FA
:102BF00000EB400303EB00103F4B03EBC00004EB82
:102C0000440303EB0413C21804EB440000EBC400BC
:102C10001A2303EB400081B20023184613F08CFC0A
:102C20001BE0324890F8D50000EB400303EB0010A6
:102C3000314B03EBC00004EB440303EB0413C21855
:102C4000201F00EB400303EBC0001A2303EB4000FE
:102C500081B20023FA2013F06FFC641C082C00E002
:102C600001E0C0D339E0214890F85800022834D15F
:102C7000002430E0042C16D21C4890F8D50000EB5C
:102C8000C0001E4B03EB001000EB041204EB4400E9
:102C900000EBC4001A2303EB400081B20023184666
:102CA00013F04AFC16E0114890F8D50000EBC00084
:102CB000124B03EB001000EB0412201F00EB40034B
:102CC00003EBC0001A2303EB400081B20023FA207B
:102CD00013F032FC641C082CCCD316B9002000F091
:102CE00015F870BD4C0100200352F3006C05002064
:102CF000D59F0508E39E0508E79A0508179C050877
:102D000010B5032000F002F810BD000010B5044615
:102D100000F05AFE002C7CD16FF07F40FC49086027
:102D2000FC484860FC4890F8D500002840D00023BB
:102D3000FAA2E7211C2013F0FFFB0023F9A2FB21DC
:102D40001C2013F0F9FB0023F8A2E7217E2013F0EA
:102D5000F3FB0023F6A2FB217E2013F0EDFB002302
:102D6000F5A2E721DC2013F0E7FB0023F0A2FB2112
:102D7000DC2013F0E1FB0023F1A2E7214FF49D706A
:102D800013F0DAFB0023EAA2FB214FF49D7013F04D
:102D9000D3FB0023ECA2E7214FF4CC7013F0CCFB63
:102DA0000023EBA2FB214FF4CC7013F0C5FB6BE2C8
:102DB0000023E8A2E7211C2013F0BEFB0023E7A2BA
:102DC000FB211C2013F0B8FB0023E6A2E7217E20A4
:102DD00013F0B2FB0023E5A2FB217E2013F0ACFB35
:102DE0000023E4A2E721DC2013F0A6FB0023DFA2EE
:102DF000FB21DC2013F0A0FB0023E0A2E7214FF42D
:102E00009D7013F099FB0023D8A2FB214FF49D7015
:102E100000E010E013F090FB0023DAA2E7214FF46A
:102E2000CC7013F089FB0023D8A2FB214FF4CC70A7
:102E300013F082FB28E2012C2CD16FF07F40B449C3
:102E40000860B44848600023D2A2E721662013F04E
:102E500073FB0023D1A2FB21662013F06DFB00233E
:102E6000D0A2E721B62013F067FB0023CFA2FB21FD
:102E7000B62013F061FB0023CEA2E7214FF4D370FC
:102E800013F05AFB0023CDA2FB214FF4D37013F0B3
:102E900053FBF9E1022C50D19E489D4948609E4861
:102EA00090F8D50020B300239CA2E7211C2013F04A
:102EB00043FB00239BA2FB211C2013F03DFB0023BE
:102EC000A1A2E7217E2013F037FB0023BDA2FB2146
:102ED0007E2013F031FB0023BCA2E721DC2013F09D
:102EE0002BFB0023B7A2FB21DC2013F025FBCBE159
:102EF000002398A2E7211C2013F01EFB002397A2B9
:102F0000FB211C2013F018FB00239EA2E7217E204A
:102F100013F012FB00239DA2FB217E2013F00CFB7B
:102F20000023ACA2E721DC2013F006FB002397A2CC
:102F3000FB21DC2013F000FBA6E1032C6CD17548CB
:102F400073494860744890F8D500002831D00023B8
:102F500072A2E7211C2013F0EFFA002371A2FB21DB
:102F60001C2013F0E9FA00236CA2E7217E2013F065
:102F7000E3FA002393A2FB217E2013F0DDFA002365
:102F800092A2E721DC2013F0D7FA00238DA2FB21C7
:102F9000DC2013F0D1FA002390A2E7214FF4FB705C
:102FA00013F0CAFA00238FA2FB21480013F0C4FAE1
:102FB0006AE1002367A2E7211C2013F0BDFA002379
:102FC00066A2FB211C2013F0B7FA002361A2E721BF
:102FD0007E2013F0B1FA00236CA2FB217E2013F0B7
:102FE000ABFA00237BA2E721DC2013F0A5FA002333
:102FF00066A2FB21DC2013F09FFA00237BA2E721CD
:103000004FF4CC7013F098FA00237AA2FB214FF40E
:10301000CC7013F091FA37E1042C50D13D483C4973
:1030200048603D4890F8D50020B300233BA2E7213B
:103030001C2013F081FA00233AA2FB211C2013F07C
:103040007BFA002335A2E7217E2013F075FA0023D6
:103050005CA2FB217E2013F06FFA00235BA2E72124
:10306000DC2013F069FA002356A2FB21DC2013F0C8
:1030700063FA09E1002361A2E7211C2013F05CFA46
:1030800000235CA2FB211C2013F056FA00235DA252
:10309000E7217E2013F050FA00233EA2FB217E2080
:1030A00013F04AFA002359A2E721DC2013F044FA76
:1030B000002338A2FB21DC2013F03EFAE4E0052CCB
:1030C00024D1144812494860134890F8D50070B1D3
:1030D000002350A2F1214FF49D7013F02DFA00232C
:1030E0004DA2F1214FF4CC7013F026FACCE000236E
:1030F0004BA2F1214FF4987013F01EFA00234BA25B
:10310000F1214FF4CC7013F017FABDE092E000000B
:103110004C010020380031006C0500204D45415322
:103120000000000044495350000000004241540098
:10313000544553540000000044594E410000000023
:103140004C495354000000004C494D4954000000C4
:1031500053455400B2E2C1BF00000000CFD4CABE44
:1031600000000000B5E7B3D800000000B2E2CAD406
:1031700000000000B6AFCCAC00000000C1D0B1ED43
:1031800000000000BCABCFDE00000000C9E8D6C3E1
:1031900000000000CEC4BCFE00000000B9DCC0EDA1
:1031A00000000000B1A3B4E600000000CAFDBEDDCF
:1031B00000000000B8FCB6E00000000020322F3212
:1031C000000000005345545550000000205359534F
:1031D00000000000CFB5CDB3000000004649524DBD
:1031E000000000005550444154450000B9CCBCFEDD
:1031F00000000000C9FDBCB600000000CCF8D7AA52
:1032000000000000B6C1C8A100000000B7A2CBCDED
:1032100000000000524553004241434B00000000B3
:10322000B2E2CAD4BDE1B9FB00000000B7B5BBD81B
:1032300000000000062C27D16FF07F401349086082
:1032400013484860134890F8D50001280CD100239A
:1032500011A2F2211C2013F06FF9002310A2F22119
:103260007E2013F069F90FE00A4890F8D50058B9AC
:1032700000230DA2F2211C2013F05EF900230CA202
:10328000F2217E2013F058F910BD00004C010020FF
:10329000380031006C05002043414E43454C20006E
:1032A000434F4E4649524D002020C8A1CFFB20007D
:1032B0002020C8B7C8CF200011B581B0624800787F
:1032C00000285DD1009057E09DF804100098401C44
:1032D000814204D14FF47F005C49486003E04FF025
:1032E00050105A49486000980A281FD2009800EBF5
:1032F000800080001A3081B214235A22A02006F0E8
:10330000FDF85349009A51F82200002307220421B6
:1033100005F014FD009800EB800080001A3081B2A7
:1033200001234C4AA02013F007F922E000980A3844
:1033300000EB800080001A3081B214235A224FF42F
:10334000AF7006F0DBF84249009A51F822000023E2
:103350000722042105F0F2FC00980A3800EB8000F7
:1033600080001A3081B201233A4A4FF4AF7013F053
:10337000E3F80098401C009000981028A4D33BE08C
:1033800031480078012837D10020009031E09DF8C5
:1033900004100098401C814204D14FF47F002B4957
:1033A000486003E04FF0501028494860009800EB57
:1033B000800080001A3081B214235A22A02006F027
:1033C0009DF82349009A103251F822000023072269
:1033D000042105F0B3FC009800EB800080001A3057
:1033E00081B201231B4AA02013F0A6F80098401CCC
:1033F000009000980928CAD34FF050101349486034
:1034000000F0E2FA6FF07F4010490860124848600F
:10341000124C0220009013E00099C1EBC1010A197F
:103420000099C1EB011303EB4111202303EB410190
:1034300088B20023F12113F07FF80098401C00901F
:1034400000980528E8D31CBD860000204C01002010
:1034500070070020A00A002038003100EFA3050803
:103460007CB50446012C00D100E0002000900098BB
:1034700020B14FF47F00F849486003E04FF050104E
:10348000F549486014235C221821762006F036F8AE
:103490006FF07F40F0490860F04890F8D50060B9BF
:1034A000EE4890F88000C0EBC000ED4942180023C0
:1034B0001A21762013F040F80BE0E84890F88000DD
:1034C000C0EBC000E749421800231A21762013F010
:1034D00033F8022C01D1012000E000200090009878
:1034E00020B14FF47F00DC49486003E04FF05010FA
:1034F000D949486014235C222E21762005F0FEFF76
:103500006FF07F40D4490860D449D1F8840000238B
:103510000722042105F012FC0023D34A3021762033
:1035200013F00AF80023D14A3021C82013F004F820
:10353000032C01D1012000E000200090009820B170
:103540004FF47F00C449486003E04FF05010C24977
:10355000486014235C224421762005F0CFFF6FF0F1
:103560007F40BD490860BD49D1F88800002307228B
:10357000042105F0E3FB0023BB4A4621762012F02C
:10358000DBFF0023B94A4621C82012F0D5FF042CE6
:1035900001D1012000E000200090009820B14FF4FC
:1035A0007F00AD49486003E04FF05010AA494860E1
:1035B000142364225A21762005F0A0FF6FF07F408B
:1035C000A5490860A549D1F89400002305220421EB
:1035D00005F0B4FB0023A44A5C21762012F0ACFF76
:1035E0000023A24A1E325C21B22012F0A5FF052C56
:1035F00001D1012000E000200090009820B14FF49C
:103600007F009549486003E04FF0501092494860B0
:1036100014235C221821900005F070FF6FF07F40AA
:103620008D4908608D4890F8D50068B98B4890F8AE
:103630009000C0EBC0008E49421800231A214FF4BD
:10364000B87012F079FF0CE0844890F89000C0EB5D
:10365000C0008849421800231A214FF4B87012F0B4
:103660006BFF062C01D1012000E0002000900098A3
:1036700020B14FF47F007849486003E04FF05010CC
:1036800075494860142370222E21C80005F036FFCA
:103690006FF07F40704908607049D1F88C000023BA
:1036A0000822012105F04AFB00236F4A30214FF424
:1036B000B87012F041FF00236C4A2A3230214FF4D7
:1036C000E57012F039FF072C01D1012000E0002045
:1036D0000090009820B14FF47F005F49486003E0FC
:1036E0004FF050105C4948601423702244214FF47D
:1036F000B87005F003FF6FF07F40574908605749E5
:10370000D1F89C0000230822012105F017FB0023BB
:10371000554A46214FF4B87012F00EFF0023534A69
:103720002A3246214FF4E57012F006FF082C01D131
:10373000012000E000200090009820B14FF47F00AD
:103740004549486003E04FF0501043494860142356
:1037500064225A214FF4B87005F0D0FE6FF07F401C
:103760003D4908603D49D1F8980000230522042115
:1037700005F0E4FA00233C4A5C21880012F0DCFEEC
:1037800000233A4A1E325C214FF4D67012F0D4FE68
:10379000394890F86D01002877D124B1012C06D06A
:1037A000052C6ED12DE00020FFF7B0FA6CE000F0A0
:1037B0000BF96FF07F40284908603048486027487F
:1037C00090F8D50008B1274D00E0254D002001906C
:1037D00013E00199C1EBC1014A190199C1EB011331
:1037E00003EB4111202303EB410188B20023F121B7
:1037F00012F0A2FE0198401C019001980228E8D323
:1038000042E000F0E1F86FF07F40134908601B4888
:103810004860124890F8D50008B1164D00E0144DEC
:103820000020019013E00199C1EBC1014A190199EF
:10383000C1EB011303EB4111202303EB410188B2DB
:103840000023F12112F078FE0198401C01900198AC
:103850000328E8D318E018E04C0100206C05002094
:10386000CFA405084DA50508A00A0020379E05082D
:1038700023A5050838A50508600700203800310099
:10388000FFE700F0A1F800BF0EE000F09DF86FF038
:103890007F400649086006484860002305A2F121E0
:1038A0004FF4CC7012F048FE7CBD00004C010020AB
:1038B00038003100C8B7C8CF0000000070B5FEF76F
:1038C000D9FE6FF07F4024490860244848602448AE
:1038D00090F8D50008B1234E00E0234E002306F1F6
:1038E00042020421184612F027FE6FF07F401A4969
:1038F00008604FF050104860194890F8D50008B99A
:103900001A4D00E01A4D002420E0042C0ED205EBE5
:10391000041204EB440000EBC4001A2303EB400044
:1039200081B20023184612F007FE0EE005EB0412E8
:10393000201F00EB400303EBC0001A2303EB400001
:1039400081B20023FA2012F0F7FD641C082CDCD3AE
:103950000020FFF7DBF970BD4C0100200352F3009B
:103960006C050020D59F0508E39E0508379D0508D6
:10397000B79D05082DE9F8410546884614460026FE
:103980001CE0207800B91AE02078203800EB800095
:10399000C00000EB8000C700F81707EB5070094922
:1039A00001EBE000A919009088B228231A4641468D
:1039B00006F0BCFA641C06F11C0086B2E1E700BF09
:1039C000BDE8F881121D0C0810B500243CE0204829
:1039D00020494860A1000A31C4EB041202EB420204
:1039E00001EB420188B22B235A22E42105F086FD27
:1039F0001948184948605E2204FB02F10B3188B275
:103A000001235A22E32105F079FDC4EB041101EBF7
:103A10004411642202EB410188B22C230122E321EC
:103A200005F06CFD00200B494860C4EB041101EB6C
:103A30004411642202EB4101491C88B22C23032269
:103A4000E32105F05BFD641C052CC0D310BD000014
:103A5000380031004C0100206843690010B504466D
:103A6000AA4890F8D50000287DD1012C0DD1A84896
:103A7000A84948604FF47F0008600023A6A2CD212A
:103A80004FF4917012F058FD3FE1022C0ED14FF02F
:103A90005010A04948604FF47F0008600023A4A2A2
:103AA000CD214FF49B7012F047FD2EE1032C0AD17B
:103AB00097489849486014239622CD214FF49B7073
:103AC00005F01CFD21E1042C0BD14FF05010914961
:103AD000486014239622CD214FF49B7005F00EFD13
:103AE00013E1052C0ED14FF050108A4948604FF475
:103AF0007F000860002393A2CD214FF49B7012F049
:103B00001BFD02E1062C0DD18148824948604FF42B
:103B10007F000860002390A2CD214FF49B7012F02B
:103B20000BFDF2E0072C0ED14FF0501079494860A0
:103B30004FF47F000860002387A2CD214FF49B70D3
:103B400012F0FAFCE1E0082C0ED17148714948608E
:103B50004FF47F000860002375A2CD214FF49B70C5
:103B600012F0EAFCD1E02AE0092C0DD1684869493D
:103B700048604FF47F00086000237CA2CD214FF401
:103B80009B7012F0D9FCC0E00A2C0CD1604861494E
:103B900048604FF47F000860002379A2CD21022005
:103BA00012F0CAFCB1E00B2C8CD15948594948603D
:103BB0001423F022CD21022005F0A0FCA5E0012C69
:103BC0000CD15348534948604FF47F0008600023EC
:103BD00073A2CD21AA2012F0AFFC96E0022C0ED1E8
:103BE0004FF050104B4948604FF47F0008600023AD
:103BF00073A2CD214FF48C7012F09EFC85E0032C53
:103C00000AD143484349486014234FF48072CD21C0
:103C1000DA2005F073FC78E0042C0AD14FF0501044
:103C20003C4948601423A201CD21DA2005F066FC4E
:103C30006BE0052C0ED14FF05010364948604FF420
:103C40007F000860002364A2CD214FF48C7012F035
:103C500073FC5AE0062C0DD12D482E4948604FF4D4
:103C60007F00086000235CA2CD214FF48C7012F01D
:103C700063FC4AE0072C0ED14FF0501025494860F4
:103C80004FF47F000860002353A2CD214FF48C70C5
:103C900012F052FC39E0082C0DD11D481D49486036
:103CA0004FF47F000860002345A2CD214FF48C70B3
:103CB00012F042FC29E0092C0DD115481549486045
:103CC0004FF47F000860002349A2CD214FF49B7080
:103CD00012F032FC19E00A2C0CD10D480D49486055
:103CE0004FF47F000860002347A2CD21022012F08C
:103CF00023FC0AE00B2C08D1054806494860142330
:103D0000F022CD21022005F0F9FB10BD6C0500204A
:103D1000653434004C010020C7EBD3C3CAFDD7D6AD
:103D2000BCFCC5CCBBF2D0FDC5A5CAE4C8EB000005
:103D3000C7EBD3C3CAFDD7D6BCFCC5CCCAE4C8EB1D
:103D400000000000B0B4CFC2D0FDC5A5C7D0BBBB3A
:103D5000B2BDD6E800000000B0B4CFC2D0FDC5A50A
:103D6000BFECCBD9D1A1D4F100000000B5E7D1B9A7
:103D7000B3ACCFDED7D4B6AFBFAACABC0000000038
:103D8000BDD3BDFCBCABCFDEB9A6C2CA2CBDABD483
:103D9000DA3135B7D6D6D3BAF3B9D8B1D5000000E9
:103DA000496E7075742077697468206B6579626FED
:103DB000617264206F7220656E636F6465722E009D
:103DC000496E7075742077697468206B6579626FCD
:103DD0006172642E00000000507265737320746875
:103DE0006520656E636F6465722E20200000000000
:103DF0004175746F2073746172742E20202020200E
:103E00002020202000000000417070726F61636804
:103E1000696E67206D617820706F7765722C7368AA
:103E2000757420646F776E20696E203135206D695E
:103E30006E732E0070B502F0D5FC6FF07F40234901
:103E4000086023484860234890F8D50008B1224E06
:103E500000E0224E002306F116020421184612F05B
:103E60006BFB6FF07F40194908604FF050104860BD
:103E70001B4D002424E0022C10D204EB840005EB3F
:103E8000400204EB440000EBC4001A2303EB4000A3
:103E900081B20023184612F04FFB10E004EB8400BF
:103EA00005EB4002A01E00EB400303EBC0001A2309
:103EB00003EB400081B20023FA2012F03DFB641CAA
:103EC000032CD8D30020FEF721FF70BD4C01002049
:103ED0000352F3006C050020D59F0508E39E0508FA
:103EE000C99A050838B50446012C00D100E000202D
:103EF0000090009820B14FF47F004249486003E0F1
:103F00004FF050103F49486014237E22182158205A
:103F100005F0F4FA6FF07F403A4908603A49C86CFE
:103F200000230722042104F009FF0023374A1A2145
:103F3000582012F001FB0023354A1A21C82012F044
:103F4000FBFA022C01D1012000E000200090009833
:103F500020B14FF47F002B49486003E04FF0501030
:103F6000284948601423682218214FF4A97005F0ED
:103F7000C5FA6FF07F40234908602349486D00234C
:103F80000722042104F0DAFE0023204A1A214FF40C
:103F9000A97012F0D1FA032C01D1012000E0002019
:103FA0000090009820B14FF47F001649486003E06C
:103FB0004FF050101349486014237E222E215820C0
:103FC00005F09CFA6FF07F400E4908600E49086DBD
:103FD00000230722042104F0B1FE00230B4A302104
:103FE000582012F0A9FA0023094A921F3021C82054
:103FF00012F0A2FA1CB90020FEF788FE00E000BF14
:1040000000BF38BD4C0100206C050020A00A002034
:104010003D9E050870B502F0EDFB6FF07F402C4926
:1040200008602C4848602C4890F8D50008B12B4E09
:1040300000E02B4E002306F184020421184612F002
:104040007BFA6FF07F40224908604FF050104860C3
:10405000214890F8D50008B1224D00E0224D0024FF
:104060002FE0062C11D24FF050101949486004EB94
:10407000840005EB4002162304FB03F01A3081B2E2
:104080000023184612F058FA1AE0A01F022806D999
:10409000082804D24FF050100D49486003E04FF05B
:1040A00050100B49486004EB840005EB4002A01F50
:1040B000162358431A3081B20023FA2012F03CFA3A
:1040C000641C0B2CCDD30320FEF720FE70BD000036
:1040D0004C0100200352F3006C050020D59F050819
:1040E000E39E050825A20508B7A1050810B502F052
:1040F000B7FFFFF769FC10BD30B595B0054603F07A
:10410000CFF901222946684601F048F96C469DF82E
:1041100000008DF8380001980F90029810900398D5
:1041200011900498129005981390069814900F9887
:104130004FF47A71B0FBF1F00F900B9818B9002092
:10414000099008900A900F9815B030BD70B5FFF730
:10415000CDFF6FF07F403D4908603D4848603D48D5
:1041600090F8D50008B13C4D00E03C4D002305F12E
:104170006E020421184612F0DFF96FF07F403349D8
:1041800008604FF050104860002459E0032C2AD2F8
:10419000304890F8D500012810D1C4EB0410304B02
:1041A000C21804EB440000EBC4001A2303EB4000E8
:1041B00081B20023184612F0BFF940E0254890F87C
:1041C000D50030BBC4EB0410264BC21804EB4400EE
:1041D00000EBC4001A2303EB400081B20023184611
:1041E00012F0AAF92BE01B4890F8D500012811D154
:1041F000C4EB04101A4BC218E01E00EB400303EBA3
:10420000C0001A2303EB400081B20023FA2012F011
:1042100093F914E00F4890F8D50080B9C4EB04106E
:10422000104BC218E01E00EB400303EBC0001A2342
:1042300003EB400081B20023FA2012F07DF9641CE8
:10424000062CA3D30520FEF761FD70BD4C010020B4
:104250000352F3006C050020D59F0508E39E050876
:1042600033A30508D9A2050810B5B048B0490860C5
:104270004FF050104860AF4890F8D500F0B90023D7
:10428000ADA25E214FF4967012F056F90023ABA256
:104290005E214FF4AF7012F04FF9A94991F87D10EB
:1042A000481C00230222194604F048FD0023A54AB9
:1042B0005E214FF4A17012F03FF91BE09D4890F889
:1042C000D500012816D100239FA25E214FF49670DD
:1042D00012F032F99A4991F87D10481C002302220D
:1042E000194604F02BFD0023964A5E214FF4A97075
:1042F00012F022F98F4890F8D50080B9904890F8D4
:104300007D108C48E430405CC0EBC00090494218FE
:1043100000235E214FF4C87012F00EF914E08548B6
:1043200090F8D50001280FD1854890F87D1081487C
:10433000E430405CC0EBC0008649421800235E2197
:104340004FF4C87012F0F8F87A4890F8D500E0B948
:10435000002381A272214FF4967012F0EDF8002331
:104360007FA288214FF4967012F0E6F800237EA217
:104370009E214FF4967012F0DFF800237CA2B42146
:104380004FF4967012F0D8F820E06A4890F8D50003
:1043900001281BD1002378A272214FF4967012F0ED
:1043A000CBF8002375A288214FF4967012F0C4F860
:1043B000002373A29E214FF4967012F0BDF80023E3
:1043C00070A2B4214FF4967012F0B6F8594890F8E4
:1043D000210038BB5A480068642806D2002307220F
:1043E0000421184604F0AAFC06E0554900230722E0
:1043F0000868042104F0A2FC514900230722086840
:10440000042104F09BFC00234E4A72214FF4B47047
:1044100012F092F8002358A272214FF4DC7012F0CF
:104420008BF824E0434890F8210001281FD144482C
:104430000068642806D2002306220321184604F0EF
:104440007DFC06E03E49002306220868032104F0B3
:1044500075FC00233B4A72214FF4B47012F06CF8E3
:10446000002345A272214FF4DC7012F065F8314848
:1044700090F82000A8B93249002307224868042197
:1044800004F05CFC00232F4A88214FF4B47012F032
:1044900053F800233DA288214FF4DC7012F04CF851
:1044A00019E0244890F82000012814D12449002361
:1044B00006224868032104F041FC0023214A882198
:1044C0004FF4B47012F038F8002330A288214FF472
:1044D000DC7012F031F81A4900230722C868032162
:1044E00004F02CFC0023174A9E214FF4B47012F004
:1044F00023F8002326A29E214FF4DC7012F01CF852
:104500000F4900230522D1F88000012104F016FC98
:1045100000230C4AB421480012F00EF800231DA21B
:10452000B4214FF4DC7012F007F810BD00FFFF005B
:104530004C0100206C050020B5DA0000B2BD00007F
:1045400060070020A00A002053746570000000007E
:1045500072AA0508DBAA0508B5E7D1B9000000007A
:10456000B5E7C1F700000000B9A6C2CA000000000C
:10457000CAB1BCE400000000560000004900000081
:104580005000000054494D4500000000410000006B
:1045900057000000730000002DE9F0410546012D91
:1045A00000D100E00020064626B14FF47F00F94913
:1045B000486003E04FF05010F649486014235C2235
:1045C0001821762004F09AFF6FF07F40F1490860CF
:1045D000F14991F8D60000230322194604F0AEFBFE
:1045E0000023EE4A1A21762011F0A6FF022D01D1F8
:1045F000012000E00020064626B14FF47F00E54987
:10460000486003E04FF05010E249486014235C22F8
:104610002E21762004F072FF6FF07F40DD490860A4
:10462000DD4890F8D50060B9DB4890F8D700C0EBC2
:10463000C000DB49421800233021762011F07CFFB6
:104640000BE0D54890F8D700C0EBC000D549421820
:1046500000233021762011F06FFF032D01D10120BE
:1046600000E00020064626B14FF47F00C9494860AB
:1046700003E04FF05010C749486014235C224421E6
:10468000762004F03BFFC449D1F8E0000023072264
:10469000042104F053FB6FF07F40BE490860BE4820
:1046A000D0F8E00060B10023BC4A4621762011F02A
:1046B00043FF0023BC4A4621C82011F03DFF05E01E
:1046C0000023BA4A4621762011F036FF042D01D18D
:1046D000012000E00020064626B14FF47F00AD49DE
:1046E000486003E04FF05010AA49486014235C2250
:1046F0001821900004F002FF6FF07F40A549086088
:10470000A54890F8D50068B9A34890F8D900C0EB47
:10471000C000A749421800231A214FF4B87011F0C5
:104720000BFF0CE09C4890F8D900C0EBC000A149F9
:10473000421800231A214FF4B87011F0FDFE052D28
:1047400001D1012000E00020064626B14FF47F0091
:104750009049486003E04FF050108E4948601423A0
:104760005C222E21C80004F0C9FE6FF07F40894909
:1047700008608949D1F8DC0000230722042104F0F5
:10478000DDFA0023854A30214FF4B87011F0D4FED1
:104790000023854A30214FF4E17011F0CDFE0D2D3C
:1047A00001D1012000E00020064626B14FF47F0031
:1047B0007849486003E04FF0501076494860142370
:1047C0005C224421900004F099FE6FF07F40714913
:1047D0000860714890F8D50068B96F4890F8D80023
:1047E000C0EBC00071494218002346214FF4B87055
:1047F00011F0A2FE0CE0684890F8D800C0EBC000B1
:104800006D494218002346214FF4B87011F094FE10
:10481000062D01D1012000E00020064626B14FF40C
:104820007F005C49486003E04FF0501059494860F0
:10483000102350225E21002004F060FE6FF07F40C4
:1048400054490860544890F8D500D8B900235BA2B9
:104850005E21184611F070FE002359A25E2132201D
:1048600011F06AFE574991F87C10481C002302227F
:10487000194604F063FA0023484A5E21162011F01D
:104880005BFE19E0444890F8D500012814D10023BC
:104890004DA25E21184611F04FFE4A4991F87C1056
:1048A000481C00230222194604F048FA00233B4A20
:1048B0005E21262011F040FE072D01D1012000E0ED
:1048C0000020064626B14FF47F003249486003E0DD
:1048D0004FF050102F494860102350225E21642071
:1048E00004F00CFE2C4890F8D50078B9354890F8C3
:1048F0007C102948E430405CC0EBC00034494218C9
:1049000000235E21642011F017FE13E0224890F886
:10491000D50001280ED12B4890F87C101E48E430B9
:10492000405CC0EBC0002B49421800235E2164208C
:1049300011F002FE4FF0501016494860214890F8DF
:104940007C101548E430405C04287DD0124890F873
:10495000D500F0B9002320A27221184611F0ECFD19
:10496000002320A28821184611F0E6FD00231FA293
:104970009E21184611F0E0FD00231FA2B421184625
:1049800011F0DAFD00231EA2CA21184611F0D4FD51
:104990005FE039E04C0100206C050020A00A0020F7
:1049A00048AA05085DAA05083D9E0508CFA405088C
:1049B000DDA4050815A505084DA50508B5DA000014
:1049C000B2BD000060070020537465700000000055
:1049D00072AA0508DBAA0508B8BAD4D8B4F3D0A1E6
:1049E00000000000CAB1BCE400000000B1C8BDCFA7
:1049F000C0E0D0CD00000000C9CFCFDE0000000035
:104A0000CFC2CFDE00000000FE4890F8D50001289C
:104A10001FD10023FCA27221184611F08DFD002346
:104A2000FBA28821184611F087FD0023FAA29E21DF
:104A3000184611F081FD0023F9A2B421184611F0A7
:104A40007BFD0023F8A200E04AE1CA21184611F0DC
:104A500073FD122314227021C82004F04FFD12238D
:104A60001422B221C82004F049FD12231422C821C7
:104A7000084604F043FDED4890F87C10E148E4302E
:104A8000405C00EB4000EA4901EB40020023722148
:104A9000C82011F051FDE54890F87C10E548405CD5
:104AA00000EB4000E44901EB40020023B421C820A0
:104AB00011F042FDDD4890F87C10DE48405C00EBD0
:104AC0004000DD4901EB40020023CA21C82011F05B
:104AD00033FD0023D9A28821C82011F02DFD082D17
:104AE00001D1012000E00020064626B14FF47F00EE
:104AF000D349486003E04FF05010D1494860142377
:104B00005C227021642004F0F9FC6FF07F40CC49F6
:104B10000860C64890F87C10C6486A38405C022895
:104B20000CD1C24991F87C20C2495A3951F822006F
:104B300000230722012104F001F90BE0BB4991F8A1
:104B40007C20BC495A3951F8220000230822042154
:104B500004F0F4F80023BB4A7221642011F0ECFC4D
:104B6000092D01D1012000E00020064626B14FF4B6
:104B70007F00B349486003E04FF05010B0494860EF
:104B800014235C228621642004F0B8FC6FF07F407F
:104B9000AB490860A54991F87C20A6491E3931F837
:104BA000120000230522012104F0C8F80023A54AC1
:104BB0008821642011F0C0FC0A2D01D1012000E001
:104BC0000020064626B14FF47F009D49486003E06F
:104BD0004FF050109A49486014235C229C216420B5
:104BE00004F08CFC6FF07F4095490860854890F890
:104BF000D50070B98D4890F87C108E48405CC0EBB1
:104C0000C0009149421800239E21642011F094FCB9
:104C10000DE0864890F87C108648405C00EBC000B0
:104C20008A49421800239E21642011F085FC0B2D37
:104C300001D1012000E00020064626B14FF47F009C
:104C40007F49486003E04FF050107D4948601423CD
:104C50005C22B221642004F051FC6FF07F4078495F
:104C60000860724991F87C207249123151F8220093
:104C700000230722042104F061F80023714AB421C3
:104C8000642011F059FC0C2D01D1012000E000201E
:104C9000064626B14FF47F006949486003E04FF0B3
:104CA00050106749486014235C22C821642004F036
:104CB00025FC6FF07F40624908605C4991F87C20D8
:104CC0005C494E3151F8220000230722042104F0F0
:104CD00035F800235B4ACA21642011F02DFCA6E1BF
:104CE000524890F87C1053486A38405C0428F6D14A
:104CF000444890F8D50018BB0023AFF2243272214B
:104D0000184611F019FC0023AFF22832882118460A
:104D100011F012FC0023AFF22C329E21184611F044
:104D20000BFC0023AFF23032B421184611F004FC22
:104D30000023AFF23432CA21184611F0FDFB22E005
:104D4000304890F8D50001281DD100232EA27221F1
:104D5000184611F0F1FB00232DA28821184611F00E
:104D6000EBFB00232CA29E21184611F0E5FB00234B
:104D70002BA2B421184611F0DFFB00232AA2CA217E
:104D8000184611F0D9FB122314227021C82004F018
:104D9000B5FB12231422B221C82004F0AFFB12236A
:104DA0001422C821084604F0A9FB002323A288216D
:104DB000C82011F0C1FB072D01D1012000E0002027
:104DC000064626B14FF47F001D49486003E04FF0CE
:104DD00050101B494860154991F87C2015495A39F3
:104DE00051F8220000230722042103F0A7FF142317
:104DF0005C227021642004F081FB0023114A72219F
:104E0000642025E06C0500204C4F41440000000068
:104E100054696D6500000000436F6D700000000074
:104E200048696768000000004C6F77006007002049
:104E3000379E0508BA060020679E0508730000002B
:104E40004C010020A00A0020FEAA050860AB05085E
:104E500011F072FB082D01D1012000E00020064670
:104E600026B14FF47F00FC49486003E04FF050103A
:104E7000F949486014235C227021642004F03EFB51
:104E80006FF07F40F4490860F44991F87C20F449C0
:104E900051F8220000230722042103F04FFF0023D2
:104EA000F04A7221642011F047FB092D01D1012045
:104EB00000E00020064626B14FF47F00E649486036
:104EC00003E04FF05010E449486014235C2286212F
:104ED000642004F013FB6FF07F40DF490860DF4976
:104EE00091F87C20DE493C3131F812000023052284
:104EF000012103F023FF0023DA4A8821642011F006
:104F00001BFB0A2D01D1012000E00020064626B13E
:104F10004FF47F00D049486003E04FF05010CE4975
:104F2000486014235C229C21642004F0E7FA6FF0AF
:104F30007F40C9490860CA48F43890F8D50078B96C
:104F4000C64890F87C10C6485A30405CC0EBC000A0
:104F5000C549421800239E21642011F0EDFA0EE0AD
:104F6000BE4890F87C10BE485A30405C00EBC00050
:104F7000BE49421800239E21642011F0DDFA0B2D5A
:104F800001D1012000E00020064626B14FF47F0049
:104F9000B149486003E04FF05010AF494860142316
:104FA0005C22B221642004F0A9FA6FF07F40AA4984
:104FB0000860AA4991F87C20A9496C3151F8220077
:104FC00000230722042103F0B9FE0023A54AB421DF
:104FD000642011F0B1FA0C2D01D1012000E0002075
:104FE000064626B14FF47F009B49486003E04FF02E
:104FF00050109949486014235C22C821642004F0B1
:105000007DFA6FF07F4094490860944991F87C20C4
:105010009349A83151F8220000230722042103F00C
:105020008DFE00238F4ACA21642011F085FA0D2DD0
:1050300020D2DFE805F01F07141B15081016090A17
:10504000170B0C0000BF00BF00BF00BF00BF022055
:10505000FEF704FD12E00520FEF700FD0EE000BFA4
:1050600000BF00BF0720FEF7F9FC00BF0920FEF7D4
:10507000F5FC03E00420FEF7F1FC00BF00BF774819
:1050800090F86D01002870D1FEF79EFC78480078FA
:1050900000286BD1072D59D005DC4DB1022D0BD066
:1050A000042D7AD12DE00A2D79D00D2DF9D1AFE064
:1050B0000520FDF72BFE04E1FEF786FC6FF07F4034
:1050C000654908606B4848606548F43890F8D50039
:1050D00008B1694F00E0694F00240FE0C4EBC40140
:1050E000CA19C4EB041101EB4411202303EB410165
:1050F00088B20023F12111F01FFA641C032CEDD3B8
:10510000DFE0FEF761FC6FF07F40534908605948CB
:1051100048605348F43890F8D50008B1584F00E083
:10512000584F00240FE0C4EBC401CA19C4EB0411AA
:1051300001EB4411202303EB410188B20023F1214C
:1051400011F0FAF9641C022CEDD3BAE0FEF73CFC36
:105150006FF07F4040490860464848604048F43856
:1051600090F8D50018B1484F02E0D3E0AAE0474FCD
:1051700000240FE0C4EBC401CA19C4EB041101EB15
:105180004411202303EB410188B20023F12111F0E7
:10519000D3F9641C052CEDD393E091E0FFE7FEF713
:1051A00013FC6FF07F402C490860324848602C485F
:1051B000F43890F8D500A8B1002410E004EBC40145
:1051C0002A4BCA18C4EB041101EB4411202303EB52
:1051D000410188B20023F12111F0AEF9641C042CC6
:1051E000ECD314E0002410E0C4EBC4011E4BCA1839
:1051F000C4EB041101EB4411202303EB410188B2FD
:105200000023F12111F098F9641C042CECD358E030
:10521000FEF7DAFB6FF07F400F49086015484860E1
:105220000F48F43890F8D500A8B1002410E0C4EB82
:10523000C401174BCA18C4EB041101EB441120231D
:1052400003EB410188B20023F12111F075F9641CD0
:10525000022CECD333E01DE04C010020600700205D
:1052600060060020A00A0020FEAA050860AB050821
:1052700033000020380031005DAA050848AA05085F
:1052800015A50508DDA40508DBAA050872AA05080E
:105290004DA50508002410E0C4EBC401264BCA1834
:1052A000C4EB041101EB4411202303EB410188B24C
:1052B0000023F12111F040F9641C022CECD300E032
:1052C00000BF36E01D480078012832D1FEF77CFB94
:1052D0006FF07F401A4908601A4848601A4890F8F1
:1052E000D50008B1194F00E0194F00240FE0C4EBBE
:1052F000C401CA19C4EB041101EB4411202303EBD0
:10530000410188B20023F12111F016F9641C052C2B
:10531000EDD30EE0FEF758FB6FF07F4008490860C0
:105320000848486000230BA2F1214FF4CC7011F023
:1053300003F9BDE8F0810000CFA405083300002088
:105340004C010020380031006C0500203DAB050801
:105350001AAB0508C8B7C8CF0000000010B5054853
:1053600005494860962340F2DF124C21002004F0EA
:10537000C5F810BD653434004C01002010B5054857
:1053800005494860742340F2DF126E21002004F0CA
:10539000B5F810BD653434004C0100202DE9F04112
:1053A00092B005460E46174601201190F748007846
:1053B0000D9001200B9000200A9009900890079012
:1053C00002900190039001900C9009E020200EA91A
:1053D0009DF8302088549DF83000401CC0B20C90DD
:1053E0009DF830000828F1DB00208DF840000FB157
:1053F000082400E00624C0E1B8F1010F03D103F056
:1054000009FF0D9001E04FF001089DF834000028DD
:105410007ED001200B909DF834000D2879D00ADC55
:105420000D2877D2DFE800F07692A1B0F076DDCEDD
:10543000BFF1EEEDEC00142812D008DCA0F10E0054
:105440000628EED2DFE800F0F0667F7E532F1928A1
:105450007AD01A2879D01F2873D042285AD14BE12C
:105460000020039011909DF81C00A04218DA9DF8CE
:105470002800A8B99DF81C0000280CDD2E200EA9DC
:105480009DF81C2088549DF81C0009909DF81C0074
:10549000401CC0B207909DF82800401CC0B20A9082
:1054A000012004904EE101200390002011909DF80E
:1054B0001C00A04218DA9DF82800A8B99DF81C002D
:1054C00000280CDD2E200EA99DF81C2088549DF884
:1054D0001C0009909DF81C00401CC0B207909DF86C
:1054E0002800401CC0B20A90012004902AE102204A
:1054F0000390002011909DF81C00A0421CDA9DF83A
:105500002800C8B99DF81C00002810DD2E2002E0FC
:1055100019E1B7E015E10EA99DF81C2088549DF80B
:105520001C0009909DF81C00401CC0B207909DF81B
:105530002800401CC0B20A900120049002E103E060
:1055400003E0DAE0FEE0FDE0FCE0FBE09DF81C009B
:10555000A04209DA31200EA99DF81C2088549DF83C
:105560001C00401CC0B20790ECE09DF81C00A0425B
:1055700009DA32200EA99DF81C2088549DF81C00E1
:10558000401CC0B20790DDE09DF81C00A04209DA83
:1055900033200EA99DF81C2088549DF81C00401C47
:1055A000C0B20790CEE09DF81C00A04209DA34207A
:1055B0000EA99DF81C2088549DF81C00401CC0B208
:1055C0000790BFE09DF81C00A04209DA35200EA923
:1055D0009DF81C2088549DF81C00401CC0B2079008
:1055E000B0E09DF81C00A04209DA36200EA99DF813
:1055F0001C2088549DF81C00401CC0B20790A1E0FC
:1056000062E021E011E000E078E09DF81C00A0429B
:1056100009DA37200EA99DF81C2088549DF81C003B
:10562000401CC0B207908DE01DE09DF81C00A04218
:1056300009DA38200EA99DF81C2088549DF81C001A
:10564000401CC0B207907DE09DF81C00A04209DA22
:1056500039200EA99DF81C2088549DF81C00401C80
:10566000C0B207906EE09DF81C00A04209DA30201D
:105670000EA99DF81C2088549DF81C00401CC0B247
:1056800007905FE09DF81C00A0421CDA9DF81C000A
:10569000002818DD9DF82800A8B99DF81C000028F6
:1056A0000CDD2E200EA99DF81C2088549DF81C00AE
:1056B00009909DF81C00401CC0B207909DF828007E
:1056C000401CC0B20A903DE09DF81C00002812DD8D
:1056D0009DF81C00401EC0B2079020200EA99DF826
:1056E0001C2088549DF824009DF81C10884202D18B
:1056F00000200A90099025E024E023E00020039098
:1057000011909DF81C00A04218DA9DF82800A8B955
:105710009DF81C0000280CDD2E200EA99DF81C20F1
:1057200088549DF81C0009909DF81C00401CC0B2D4
:1057300007909DF82800401CC0B20A9001200490F8
:1057400000E000BF00BF9DF82C00B0B100200B901E
:105750006FF07F400E4908604FF47F004860B388C7
:1057600010339AB271883088122303F0C7FE718813
:10577000308800230EAA10F0DFFE9DF844000028B8
:105780007FF43AAE9DF81C000C900DE083000020E1
:105790004C01002030200EA99DF8302088549DF83F
:1057A0003000401CC0B20C909DF830109DF82400D1
:1057B000401D8142EEDB00200C9039E09DF838005E
:1057C000302830DB9DF8380039282CDC0EA89DF8F5
:1057D0003010405C302826DB0EA89DF83010405C6D
:1057E000392820DC9DF824009DF8301088420DDD1A
:1057F000019800EB80004000019001990EA89DF8EF
:105800003020805C3038084401900CE0019800EBB7
:1058100080004000019001990EA89DF83020805C26
:105820003038084401909DF83000401CC0B20C9004
:105830009DF830109DF82400401D8142BEDB9DF88C
:10584000240002909DF8000028700198686002987A
:10585000A8600398E8600498286105986861069834
:10586000A86112B0BDE8F0812DE9F04107468846F5
:105870006FF07F40FE4908604FF050104860FD48CF
:1058800090F86B0150B9FC4890F8D600052803DC6D
:10589000F94890F8D6501DE005251BE0F54890F832
:1058A0006B0101280CD1F44890F8D6000A2805DCD9
:1058B000F14890F8D600401FC5B20BE0052509E07D
:1058C000EC4890F86B01022804D1EB4890F8D60020
:1058D0000A38C5B2CA2340F2DF125E21002003F06D
:1058E0000DFE4FF050116FF07F4004F065FA6FF03D
:1058F0007F40DF494860C5F1040000EB400101EB47
:10590000C000CA21A1EB40005D3883B201225E21B4
:10591000002003F0F3FDC5F1040000EB400101EBB2
:10592000C000CA21A1EB40005D3883B201225E2194
:10593000282003F0E3FDC5F1040000EB400101EB7A
:10594000C000CA21A1EB40005D3883B201225E2174
:10595000782003F0D3FD012415E0C5F1040101EB2B
:10596000410202EBC101CA22A2EB41015D398BB2B7
:10597000642204FB02F101F1780001225E2103F0B0
:10598000BDFD601CC4B2042CE7DB00240CE0162231
:1059900004FB02F000F15E01012340F2DF1200205F
:1059A00003F0ACFD601CC4B2A81C8442EFDB4FF0D6
:1059B0005010AF494860B04890F8D500012826D172
:1059C0000023AEA26121032010F0B6FD0023ACA29B
:1059D00061213F2010F0B0FD0023ABA2612199208E
:1059E00010F0AAFD0023A9A26121FD2010F0A4FD62
:1059F0000023A7A2612140F2611010F09DFD002359
:105A0000A4A2612140F2B11010F096FD29E09A485D
:105A100090F8D50028BB00239FA26121032010F03D
:105A20008BFD00239EA261213F2010F085FD002305
:105A30009DA26121992010F07FFD00239CA261218D
:105A4000FD2010F079FD00239BA2612140F261103E
:105A500010F072FD00239AA2612140F2B11010F003
:105A60006BFDFDF7B1FF6FF07F40814908609648FC
:105A70004860814890F8D50008B1944E00E0944EFB
:105A800000240FE0C4EBC4018A19C4EB041101EB3C
:105A90004411202303EB41000023F12110F04CFDC1
:105AA000601CC4B2052CEDDB002476E14FF05010F1
:105AB0006F4948606F4991F86B1101EB81012144F6
:105AC000481C00230222194603F038F9162204FB71
:105AD00002F000F1770100237E4A032010F02CFD34
