:020000040800F2
:1000000008690020C1010008D58A0008E9670008D6
:10001000718A0008AD0E0008EDD90008000000004C
:10002000000000000000000000000000ADA8000873
:10003000B5100008000000001D8C000891B80008F1
:10004000DB010008DB010008DB0100085197000814
:10005000DB010008DB010008DB010008DB01000810
:10006000DB010008ED5C0008DB010008DB01000893
:10007000DB010008DB010008DB010008DB010008F0
:10008000DB010008DB010008DB010008DB010008E0
:10009000DB010008DB010008DB010008DB010008D0
:1000A000DB010008DB010008DB010008DB010008C0
:1000B000F7BA0008DB010008DB010008DB010008DB
:1000C000DB010008DB010008DB010008DB010008A0
:1000D000DB01000805C50008DB010008DB010008A2
:1000E000D55C0008DB010008DB010008DB0100082B
:1000F000DB010008DB010008DB010008DB01000870
:10010000DB010008DB010008DB010008DB0100085F
:10011000DB010008DB0100080DBB0008DB01000863
:10012000DB010008DB010008DB010008DB0100083F
:10013000DB010008DB010008DB010008DB0100082F
:10014000DB010008DB010008DB010008DB0100081F
:10015000DB010008DB010008DB010008DB0100080F
:10016000DB010008DB010008DB010008DB010008FF
:10017000DB010008A58B0008DB010008DB0100089B
:10018000DB010008DB010008DB010008DB010008DF
:10019000DB010008DB010008DB010008DB010008CF
:1001A000DB010008DB010008DB010008DFF80CD0F0
:1001B00000F0F6FA0048004751F8000808690020EE
:1001C0000648804706480047FEE7FEE7FEE7FEE7F1
:1001D000FEE7FEE7FEE7FEE7FEE7FEE76DB9000893
:1001E000AD01000840EA01039B0703D009E008C9FC
:1001F000121F08C0042AFAD203E011F8013B00F8EC
:10020000013B521EF9D27047D2B201E000F8012B37
:10021000491EFBD270470022F6E710B513460A4686
:1002200004461946FFF7F0FF204610BD10B5002226
:1002300000E0521C835C8C5CA34201D1002BF8D1FE
:10024000D8B2E1B2401A10BD2DE9FE4F804681EAD6
:100250000300C00F0C46009021F0004123F0004540
:10026000B8EB0200A94105D24046214690461C4603
:100270000B46024623F00040104347D0270DC7F33A
:100280000A00C3F30A510290401A019040286BDA29
:10029000C3F3130040F4801B0098924620B1002362
:1002A000D2EB030A63EB0B0B01985946C0F14002F5
:1002B000504600F0CFF906460D4650465946019A81
:1002C00000F0E7F910EB08006141002487EA1152C1
:1002D00084EAE7731A4340D0009A62B3019A012A74
:1002E0004FEA075215DC001B61EB02014FF00042A0
:1002F00002EA0752CDE90042001C41F58011324666
:100300002B4600F0E7F903B0BDE8F08F40462146E8
:10031000F9E7001B61EB0201001C41F58013001896
:100320005B412018A2F5001747EB030140EAD570A6
:10033000B6196D4111E06D084FEA360645EAC07501
:100340004FEA0752001B61EB0201001C41F58011CE
:1003500049084FEA30000019514132462B4603B09C
:10036000BDE8F04F00F0A7B900980122400000233B
:10037000D0EB020263EBE073009821464FEAE07491
:10038000B8EB000061EB0401E9E783F000435BE7B1
:1003900081F0004158E72DE9FE4F81EA030404F0A3
:1003A000004421F0004100944FF0000B23F0004383
:1003B00050EA01045ED052EA03045BD0C3F30A544E
:1003C000C1F30A552C44A4F2F3340194A0FB025467
:1003D000C1F3130141F48011C3F3130343F48013F9
:1003E00001FB024400FB034E840A970A44EA81544D
:1003F00047EA8357A4FB076802958D0A05FB07852A
:100400004FEA932C04FB0C542705029D4FEA065833
:1004100047EA1637B5EB08056EEB070C870E920E10
:1004200047EA811742EA8312A7FB0201B6EB0B01F0
:1004300064EB00042B0D43EA0C335E1844EB1C50B4
:10044000DA465146E7FB0201C5F313044FEA0B33CA
:1004500043EA14534FEA0432019C43EA0603A4F131
:100460000C040294009CCDE900B400F033F903B011
:10047000BDE8F08F00200146F9E72DE9F04D81EA53
:10048000030404F0004B21F0004514464FF0000A2D
:1004900023F0004150EA050220D054EA01021DD0A9
:1004A000C5F30A570246C5F31303C1F31300C1F3A2
:1004B0000A5640F4801543F48013A7EB0608101B7E
:1004C000D64608F2FD3873EB050002D308F10108A7
:1004D00001E092185B41B8F1000F03DA00200146F9
:1004E000BDE8F08D00204FF48011064684460EE0F2
:1004F000171B73EB050705D3121B63EB05030643BC
:100500004CEA010C49084FEA300092185B4150EA6E
:100510000107EDD152EA030012D082EA040083EA17
:100520000501084305D0101BAB4106D20122002370
:1005300006E000224FF0004302E06FF0010253108A
:100540001AEB06004CEB085110EB0A0041EB0B01D3
:10055000BDE8F04D00F0AFB80EB5C10F80EAE07015
:100560000844CA07002140F233438DE80E000A46D2
:100570000B4600F0AFF803B000BD0EB540F23341BA
:1005800002910021CDE900110A460B4600F0A2F8C5
:1005900003B000BDC1F30A5210B5C1F3130140F21C
:1005A000FF3341F480119A4201DA002010BD40F27D
:1005B00033439A42A2F2334203DC524200F059F82C
:1005C00010BD904010BD000030B5041E71F1000454
:1005D00004DB4FF00044404264EB0101141E73F150
:1005E000000405DB1C464FF00043524263EB04035A
:1005F0008B4208BF824230BD30B5041E71F1000449
:1006000004DB4FF00044404264EB0101141E73F11F
:10061000000405DB1C464FF00043524263EB040329
:10062000994208BF904230BD30B50B4601460020CC
:100630002022012409E021FA02F59D4205D303FAA4
:1006400002F5491B04FA02F52844151EA2F1010225
:10065000F1DC30BD202A04DB203A00FA02F1002050
:1006600070479140C2F1200320FA03F319439040F0
:100670007047202A04DB203A21FA02F0002170475B
:1006800021FA02F3D040C2F12002914008431946FA
:100690007047202A06DBCB17203A41FA02F043EAE2
:1006A000E07306E041FA02F3D040C2F1200291402B
:1006B00008431946704710B5141E73F1000408DA98
:1006C000401C41F1000192185B411A4301D120F016
:1006D000010010BD2DE9F04D92469B4611B1B1FAD3
:1006E00081F202E0B0FA80F220329046FFF7B2FFCA
:1006F00004460F4640EA0A0041EA0B0153465A46B7
:10070000084313D0114653EA010019D0C8F1400242
:100710005046FFF7AEFF05460E4650465946424644
:10072000FFF798FF084305D0012004E02046394632
:10073000BDE8F08D0020054346EAE0762C433743C0
:100740000A986305E40AA0EB08000022FD0A44EAC7
:1007500047540A3002D500200146E9E70105101987
:100760006941DDE9084500196941BDE8F04DA2E79E
:1007700070B521F0004303430CD0C1F30A550024A7
:10078000D5EB040564EB0403D617AD1AB34102DBC5
:100790000020014670BD201841EB025170BD0000E1
:1007A000064C074D06E0E06840F0010394E80700BE
:1007B00098471034AC42F6D3FFF7FCFCA0E40108E4
:1007C000C0E401082DE9F04D00231A461B1A8A41A6
:1007D00003DB00200146BDE8F08DC1F30A52C1F3EE
:1007E000130141F480154FF0000BD10702D100181E
:1007F0006D41521E0027044640F2FF11384601EBBE
:10080000620A3E468046024600204FF48011FFF700
:1008100030FFC2197141BB1846EB0100B4EB030C69
:1008200075EB000C04D3E41A65EB000517460E4681
:10083000241908F101006D4180463428E3DDF919DF
:1008400046EB0600091BA84103D24FF0FF321346C6
:1008500001E0002213461BEB070046EB0A51BDE8FE
:10086000F04DFFF728BF70B58C1810F8015B15F03C
:10087000070301D110F8013B2A1106D110F8012B12
:1008800003E010F8016B01F8016B5B1EF9D12B0737
:1008900005D40023521E0DD401F8013BFAE710F8ED
:1008A000013BCB1A921C03E013F8015B01F8015BDA
:1008B000521EF9D5A142D8D3002070BD70B50546AF
:1008C0000C4608480560204600F00EF800BF0548B9
:1008D00000680028FBD100214FF080400BF021FA86
:1008E00070BD0000740100203EB5044600214FF0A9
:1008F00080400BF016FA0022012188070BF058FB0C
:10090000022C02D10B20019004E0012C02D142F60E
:10091000DF6001900520ADF800000020ADF8080070
:10092000ADF8020069464FF080400BF097FB0121C3
:1009300088070BF0F3F9012188070BF0E0F9012299
:10094000114690070BF034FB012188070BF0E9F901
:100950003EBD000010B5C8211448FFF75CFC012023
:100960001249087006204870002088700D20C87059
:1009700000200871487188710D4890F85800C871BE
:1009800008210A4805F032FF0012084908720821C0
:10099000064805F02BFF054948720A2103480DF06F
:1009A00027F801200349087010BD00000C22002028
:1009B000241300202C01002070B504460D464A483F
:1009C0004A4948609CB94A49002307220868042123
:1009D00005F04AFF0023474A822150200DF02CFCED
:1009E000002345A28221A0200DF026FC14E0012C5A
:1009F00012D13F49002306220868032105F034FF85
:100A000000233C4A822150200DF016FC00233AA21C
:100A10008221A0200DF010FC9DB93549002307224A
:100A20004868042105F020FF0023324AA02150200D
:100A30000DF002FC002331A2A02108460DF0FCFBC2
:100A400014E0012D12D12A4900230622486803210F
:100A500005F00AFF0023274AA02150200DF0ECFBEF
:100A6000002326A2A02108460DF0E6FB2049002322
:100A70000522C868032105F0F7FE00231D4ABE21A8
:100A800050200DF0D9FB00231DA2BE21A0200DF0A7
:100A9000D3FB1749002305228868032105F0E4FEF3
:100AA0000023144A82214FF48C700DF0C5FB002303
:100AB00014A282214FF4B4700DF0BEFB0C49002348
:100AC0000622886B194605F0CFFE0023094AA021B3
:100AD0004FF48C700DF0B0FB00230BA2A0214FF45B
:100AE000B4700DF0A9FB70BD65343400E400002043
:100AF000481700202021002056000000410000007F
:100B000057000000A6B800004148000030B585B08D
:100B100000200390002401254FF0501006F08CFABD
:100B2000002001F0ABFC0020029094E1BDF80C0025
:100B3000401C80B20390204605F07AF96FF07F40A8
:100B4000C8490860C848007838B10020C649087014
:100B500004F0B2FD0020C5490870012D03D12046E4
:100B600001F0C8F90025C24A92F8201092F821003D
:100B7000FFF722FFBF4840780128D6D1BE48007851
:100B80000028D2D1BB4880780028CED1012506F0BC
:100B9000E9F804909DF810000028C6D09DF81000D8
:100BA00020287CD2DFE800F07BEFEEED7BECEBEA77
:100BB000E9E8E7E67BE5E4E3E2E1E0F3107B7BDEF6
:100BC0007BDDDC7B7B7B7BDB092C69D2DFE804F0FF
:100BD000050A1A4358DC709BB10000240620A7497F
:100BE0000870D2E00020A24981F85800FFF7B2FE59
:100BF0004FF0501006F020FA012001F03FFC0AF0FF
:100C000029FEC2E09A4890F8580070B97620ADF8F5
:100C100000003020ADF802004C20ADF8040068461A
:100C200003F0F8FE9249C86512E0914890F8580028
:100C300001280DD17620ADF800003020ADF802007B
:100C40004C20ADF80400684603F0E4FE884988674C
:100C50000AF000FE99E0864890F8580068B97620BE
:100C6000ADF800004620ADF802004C20ADF80400BD
:100C7000684603F0CFFE7E4908660AF0EBFD84E08B
:100C80007B4890F8580080B97620ADF800005C20D1
:100C9000ADF802004C20ADF80400684601E0D5E054
:100CA00072E003F0B7FE724948660AF0D3FD6CE0CB
:100CB0006F4890F8580078B94FF4B870ADF800005C
:100CC0003020ADF802004C20ADF80400684603F077
:100CD000A1FE6749C86613E0654890F858000128EE
:100CE0000ED14FF4B870ADF800003020ADF802001E
:100CF0004C20ADF80400684603F08CFE5C49C867E0
:100D00000AF0A8FD41E05A4890F8580070B94FF435
:100D1000B870ADF800004620ADF802004C20ADF8E8
:100D20000400684603F076FE514908670AF092FD18
:100D30002BE04F4890F8580070B94FF4B870ADF8F8
:100D400000005C20ADF802004C20ADF804006846BD
:100D500003F060FE464948670AF07CFD15E070E04C
:100D600049E041E059E012E029E02FE033E055E0AE
:100D700051E051E04EE04CE04AE046E046E046E01B
:100D800060E041E03FE03DE000BF00BF62E014B141
:100D9000012C11D100E010E00120354981F8580004
:100DA000FFF7D8FD4FF0501006F046F9012001F092
:100DB00065FB0AF04FFD00E000BF00BF4AE01CB930
:100DC00016202E49087000BF00BF43E004B900E0C0
:100DD00000BF00BF3EE0012C03D10420244948702D
:100DE00000E000BF00BF35E0012C01DA082401E07B
:100DF000601EC4B22EE0072C01DD002401E0601C5F
:100E0000C4B227E000BF00BF00BF00BF00BF00BFEB
:100E100000BF00BF00BF00BF1CE01BE01848007807
:100E200038B90120164908700846007807F0C2FE5C
:100E300006E00020124908700846007807F0BAFE64
:100E400008E007E012200D49087003E006200B4976
:100E5000087000BF00BF0948007815283FF466AE4F
:100E600005B030BDE4000020720000209600002094
:100E700024130020D4000020BC0000204F000020DC
:100E8000AA00002010B54FF48061024805F084FCF0
:100E900010BD00000008024010B54FF48061024808
:100EA00005F07CFC10BD00000008024000BFFEE71A
:100EB00010B50446C8213348FFF7ADF90120314988
:100EC000087008468470A5204870012C05D0022CBB
:100ED00003D0062C01D0072C1BD1601E2A4951F8E3
:100EE0002000000E2749C870601E274951F82000D5
:100EF000000C24490871601E234931F82000000AC3
:100F000020494871601E204911F820001D49887150
:100F100026E0601E1C4951F820000A21B0FBF1F0C8
:100F2000000E1849C870601E174951F820000A21A8
:100F3000B0FBF1F0000C13490871601E124951F822
:100F400020000A21B0FBF1F0000A0E494871601E32
:100F50000D4951F820000A21B0FBF1F009498871D0
:100F60000721084805F042FC00120649C871072114
:100F7000044805F03BFC03490872092101480CF0C4
:100F800037FD10BD0C2200205817002010B501219C
:100F9000C80507F023FF00214FF4000007F01EFFF3
:100FA00010BD000001460020034A52680A400AB101
:100FB000012000E00020704700B0024070B5002121
:100FC000002200230024344D2D68344E3540324E2B
:100FD000356035462D68066835432F4E35603546F9
:100FE0006D6B25F00705756335466D6B46683543B7
:100FF000294E7563456835B9C5682902058A2A04F2
:10100000057D2B0621E04568012D05D1C568290223
:10101000058A2A04002318E04568022D05D1C56819
:1010200069010569EA0200230FE04568032D06D136
:10103000C56869010569AA024569EB0305E0C56851
:10104000290105692A0245692B0341EA02058668E0
:1010500035431D43104EB66B35430F4EB56385695E
:10106000F56335462D6C6FF30D05356435462D6CF3
:10107000C6693543084E3564858C2C0435466D6C45
:1010800005F04045756435466D6C066A2643354368
:10109000014E756470BD000000B00240FCE0FCFF32
:1010A0000348006840F001000149086070470000F3
:1010B00000B002407047000010B586B00446012120
:1010C000084607F07BFE0121102007F0C7FE07222B
:1010D0000A21214805F034FB072209211E4805F0AA
:1010E0002FFB00208DF8160001208DF8170002203C
:1010F0008DF814000002049002208DF8150004A958
:10110000154805F0D5FA02208DF81400400204902D
:1011100004A9114805F0CCFA00940020ADF80400B1
:10112000ADF80600ADF80800ADF80C000C20ADF8E5
:101130000A00694609480BF049FB07F0CCFC012284
:1011400040F2255105480BF01CFB012103480BF030
:101150005CFA06B010BD0000000002400010014023
:101160001CB54FF40050009000208DF804000C20B6
:101170008DF8050000208DF80600684604F00EFE8C
:101180001CBD00007CB50446012C00D100E000200D
:101190000090009820B14FF47F00FA49486003E0C6
:1011A0004FF05010F7494860F74900230722D1F863
:1011B000B800042105F058FB122368221A21582098
:1011C00005F06EFF0023F14A1A2158200DF034F883
:1011D0000023EF4A1A21AA200DF02EF8022C01D18B
:1011E000012000E000200090009820B14FF47F0023
:1011F000E449486003E04FF05010E2494860E2499A
:1012000000230722D1F8BC00042105F02DFB122396
:1012100068222E21582005F043FF0023DB4A3021AD
:1012200058200DF009F80023D94A3021AA200DF0EA
:1012300003F8032C01D1012000E000200090009869
:1012400020B14FF47F00CF49486003E04FF05010C9
:10125000CC494860CC4900230722D1F8C0000421C2
:1012600005F002FB122368224621582005F018FFE2
:101270000023C64A462158200CF0DEFF0023C44A52
:1012800008324621AA200CF0D7FF042C01D10120FE
:1012900000E000200090009820B14FF47F00B94991
:1012A000486003E04FF05010B6494860B64900234B
:1012B0000722D1F8C400042105F0D6FA12237A22BD
:1012C0005A21582005F0ECFE0023B04A5C2158203A
:1012D0000CF0B2FF0023AE4A08325C21AA200CF0C9
:1012E000ABFF052C01D1012000E000200090009808
:1012F00020B14FF47F00A349486003E04FF0501045
:10130000A0494860A04900230722D1F8C800042161
:1013100005F0AAFA12237A227021582005F0C0FEA7
:1013200000239A4A722158200CF086FF0023984A25
:1013300010327221AA200CF07FFF062C01D101206F
:1013400000E000200090009820B14FF47F008D490C
:10135000486003E04FF050108A4948608A490023F2
:101360000722D1F8CC00042105F07EFA12237A225C
:101370008621582005F094FE0023844A88215820B5
:101380000CF05AFF0023824A10328821AA200CF068
:1013900053FF072C01D1012000E0002000900098AD
:1013A00020B14FF47F007749486003E04FF05010C0
:1013B00074494860744890F8D50008B1754D00E054
:1013C000754D12237A2218214FF4A97005F068FE9A
:1013D0006D4890F8D000C0EBC000421900231A21DC
:1013E0004FF4A9700CF028FF082C01D1012000E077
:1013F00000200090009820B14FF47F0061494860C0
:1014000003E04FF050105F4948605F4890F8D50006
:1014100008B1604D00E0604D12237A222E214FF476
:10142000A97005F03DFE584890F8D100C0EBC0000F
:101430004219002330214FF4A9700CF0FDFE092C55
:1014400001D1012000E000200090009820B14FF46D
:101450007F004C49486003E04FF050104949486014
:10146000494890F8D50008B14A4D00E04A4D122392
:101470007A2244214FF4A97005F012FE424890F8F8
:10148000D200C0EBC0004219002346214FF4A970DE
:101490000CF0D2FE0A2C01D1012000E000200090C7
:1014A000009820B14FF47F003649486003E04FF0C8
:1014B000501034494860344890F8D50008B1354D93
:1014C00000E0354D12237A225A214FF4A97005F01D
:1014D000E7FD2D4890F8D300C0EBC000421900236F
:1014E0005C214FF4A9700CF0A7FE0B2C01D1012058
:1014F00000E000200090009820B14FF47F002149C7
:10150000486003E04FF050101E4948601E4890F8B4
:10151000D50008B11F4D00E01F4D12237A22702123
:101520004FF4A97005F0BCFD174890F8D400C0EB4B
:10153000C0004219002372214FF4A9700CF07CFE08
:1015400001F0A8FC0C2C76D2DFE804F0060A0B0CA4
:101550000D0E0F48494A4B4C022001F021F86BE078
:1015600000BF00BF00BF00BF00BF6FF07F40054954
:1015700008600A484860044890F8D50090B1084DCA
:1015800011E00000E40000202413002020210020AE
:1015900053070108F3050108B405010838003100BC
:1015A0009C060108254D0020019013E00199C1EB34
:1015B000C1014A190199C1EB011303EB4111202329
:1015C00003EB410188B20023F1210CF035FE0198B4
:1015D000401C019001980028E8D02DE000BF00BF1A
:1015E00000BF00BF6FF07F40154908601548486094
:1015F000154890F8D50008B1144D00E0144D0020B6
:10160000019013E00199C1EBC1014A190199C1EBA5
:10161000011303EB4111202303EB410188B20023A6
:10162000F1210CF009FE0198401C0190019802285C
:10163000E8D301E0FFE700BF00BF7CBD95060108CD
:10164000E40000203800310024130020F3050108D5
:10165000B40501087CB50546012D00D100E000204D
:101660000090009820B14FF47F00FE49486003E0ED
:101670004FF05010FB494860FB4890F8F80108B162
:10168000FA4C00E0FA4C122368221A21582005F087
:1016900007FDF8480078C0EBC000021900231A21AA
:1016A00058200CF0C9FD022D01D1012000E00020DE
:1016B0000090009820B14FF47F00EA49486003E0B1
:1016C0004FF05010E7494860E74890F8F80108B13A
:1016D000E94C00E0E94C122368222E21582005F045
:1016E000DFFCE44890F82000C0EBC00002190023A2
:1016F000302158200CF0A0FD032D01D1012000E085
:1017000000200090009820B14FF47F00D549486038
:1017100003E04FF05010D3494860D34890F8F801E7
:1017200008B1D54C00E0D54C122368224621582040
:1017300005F0B6FCCF4890F82100C0EBC0000219BC
:101740000023462158200CF077FD042D01D1012003
:1017500000E000200090009820B14FF47F00C149C4
:10176000486003E04FF05010BE494860C149486AE4
:1017700000230722042105F077F812237A225A2148
:10178000582005F08DFC0023BD4A5C2158200CF048
:1017900053FD0023BB4A5C21AA200CF04DFD052D12
:1017A00001D1012000E000200090009820B14FF40A
:1017B0007F00AC49486003E04FF05010A9494860F1
:1017C000AC49886A00230722042105F04DF8122352
:1017D0007A227021582005F063FC0023A84A722168
:1017E00058200CF029FD0023A64A7221AA200CF0F3
:1017F00023FD062D01D1012000E00020009000987B
:1018000020B14FF47F009749486003E04FF050103B
:10181000944948609749886C00230722042105F009
:1018200023F812237A228621582005F039FC002360
:10183000934A882158200CF0FFFC002392A28821B3
:10184000AA200CF0F9FC072D01D1012000E00020B6
:101850000090009820B14FF47F008249486003E077
:101860004FF050107F4948608249086B00230622E0
:10187000194604F0F9FF12237A2218214FF4A970B7
:1018800005F00EFC00237E4A1A214FF4A9700CF0DB
:10189000D3FC00237B4A0C321A214FF4C7700CF0A2
:1018A000CBFC082D01D1012000E000200090009821
:1018B00020B14FF47F006B49486003E04FF05010B7
:1018C00068494860684890F8F80108B1704C00E039
:1018D000704C6849486B00230722042104F0C4FFC0
:1018E00012237A222E214FF4A97005F0D9FB002390
:1018F000634A30214FF4A9700CF09EFC0023614A2A
:10190000083230214FF4D2700CF096FC092D01D131
:10191000012000E000200090009820B14FF47F00EB
:101920005049486003E04FF050104E49486051491B
:10193000886B00230722042104F096FF12237A22E9
:1019400044214FF4A97005F0ABFB00234C4A46211B
:101950004FF4A9700CF070FC00234A4A46214FF462
:10196000D2700CF069FC0A2D01D1012000E00020AA
:101970000090009820B14FF47F003A49486003E09E
:101980004FF05010374948603A49C86B002307228E
:10199000042104F069FF12237A225A214FF4A9701E
:1019A00005F07EFB0023364A5C214FF4A9700CF051
:1019B00043FC0023334A10325C214FF4D2700CF008
:1019C0003BFC0B2D01D1012000E00020009000988D
:1019D00020B14FF47F002349486003E04FF05010DE
:1019E000204948602349086C00230522042104F0A3
:1019F0003BFF12237A2270214FF4A97005F050FBAF
:101A000000231F4A72214FF4A9700CF015FC00232B
:101A100021A272214FF4D2700CF00EFC0C2D01D1DA
:101A2000012000E000200090009820B14FF47F00DA
:101A30000C49486003E04FF050100A4948600D49D6
:101A4000486C00230522042104F00EFF12237A22A1
:101A500086214FF4A97005F023FB0023084A882152
:101A60001EE00000E400002008150020F305010836
:101A7000B4050108241300200F060108010601081F
:101A8000202100205307010820562F6D730000000D
:101A9000590601081D06010820412F6D7300000042
:101AA0004FF4A9700CF0C8FB0023AFF21402882198
:101AB0004FF4D2700CF0C0FB01F0ECF90D2D7CD28C
:101AC000DFE805F0070B335B85ADD5FDFCFBFAF9CC
:101AD000F800022000F064FDEDE16FF07F40F7496F
:101AE0000860F7484860F74890F8F80108B1F64CEC
:101AF00000E0F64C0020019013E00199C1EBC10118
:101B00000A190199C1EB011303EB4111202303EBE7
:101B1000410188B20023F1210CF08EFB0198401C9A
:101B2000019001980228E8D3C5E16FF07F40E349B6
:101B30000860E3484860E34890F8F80108B1E44CD5
:101B400000E0E44C0020019013E00199C1EBC101D9
:101B50000A190199C1EB011303EB4111202303EB97
:101B6000410188B20023F1210CF066FB0198401C72
:101B7000019001980228E8D39DE16FF07F40CF49A2
:101B80000860CF484860CF4890F8F80108B1D04CC1
:101B900000E0D04C0020019015E00199C1EBC1019B
:101BA0000A190199C1EB011303EB4111202303EB47
:101BB000410188B20023F12100E07BE10CF03CFB05
:101BC0000198401C019001980228E6D373E16FF060
:101BD0007F40BA490860BA484860BA4890F8F801AE
:101BE00008B1BD4C00E0BD4C0020019013E001990C
:101BF000C1EBC1010A190199C1EB011303EB4111BA
:101C0000202303EB410188B20023F1210CF014FBE7
:101C10000198401C019001980028E8D04BE16FF03A
:101C20007F40A6490860A6484860A64890F8F80199
:101C300008B1A54C00E0A54C0020019013E00199EB
:101C4000C1EBC1010A190199C1EB011303EB411169
:101C5000202303EB410188B20023F1210CF0ECFAC0
:101C60000198401C019001980228E8D323E16FF00D
:101C70007F409249086092484860924890F8F80185
:101C800008B1954C00E0954C002001901AE00199B4
:101C9000C1EBC1010A190199C1EB011303EB411119
:101CA000202303EB410188B20023F1210CF0C4FA98
:101CB000019805E0D6E0ADE084E05BE030E005E0CF
:101CC000401C019001980028E1D0F4E06FF07F40C3
:101CD0007A4908607A4848607A4890F8F80108B173
:101CE0007F4E00E07E4E0020019015E0019901EB4F
:101CF000410303EBC1018A190199C1EB011303EB05
:101D00004111202303EB410188B20023F1210CF0A3
:101D100093FA0198401C019001980528E6D3CAE087
:101D200001F0B8F86FF07F4064490860644848608B
:101D3000644890F8F80108B1674C00E0674C002057
:101D4000019013E00199C1EBC1010A190199C1EB9E
:101D5000011303EB4111202303EB410188B200235F
:101D6000F1210CF069FA0198401C019001980028BB
:101D7000E8D0A0E06FF07F405049086050484860CC
:101D8000504890F8F80108B1534C00E0534C002043
:101D9000019013E00199C1EBC1010A190199C1EB4E
:101DA000011303EB4111202303EB410188B200230F
:101DB000F1210CF041FA0198401C01900198002893
:101DC000E8D078E06FF07F403C4908603C484860CC
:101DD0003C4890F8F80108B13F4C00E03F4C00202F
:101DE000019013E00199C1EBC1010A190199C1EBFE
:101DF000011303EB4111202303EB410188B20023BF
:101E0000F1210CF019FA0198401C0190019800286A
:101E1000E8D050E06FF07F402849086028484860CB
:101E2000284890F8F80108B12B4C00E02B4C00201A
:101E3000019013E00199C1EBC1010A190199C1EBAD
:101E4000011303EB4111202303EB410188B200236E
:101E5000F1210CF0F1F90198401C01900198002843
:101E6000E8D028E06FF07F401449086014484860CB
:101E7000144890F8F80108B1174C00E0174C002006
:101E8000019013E00199C1EBC1010A190199C1EB5D
:101E9000011303EB4111202303EB410188B200231E
:101EA000F1210CF0C9F90198401C0190019800281B
:101EB000E8D000E000BF00BF7CBD0000E4000020CF
:101EC0003800310008150020F3050108B4050108A9
:101ED0000F060108010601089C0601089506010885
:101EE0007707010810B503F07FFB00F0D3FF02F085
:101EF00055F910BD7CB50446FE4890F858000028FE
:101F00007ED1012C01D1012000E00020009000983A
:101F100020B14FF47F00F849486003E04FF05010C3
:101F2000F549486014235C221821762005F0B8F8A2
:101F30006FF07F40F0490860EE4890F85800C0EB21
:101F4000C000EE49421800231A2176200CF074F9E3
:101F5000022C01D1012000E000200090009820B167
:101F60004FF47F00E449486003E04FF05010E2492D
:101F7000486014235C222E21762005F091F86FF042
:101F80007F40DD490860DB49C86D0023072204213A
:101F900004F06AFC0023DA4A302176200CF04CF978
:101FA0000023D84A3021C8200CF046F9032C01D177
:101FB000012000E000200090009820B14FF47F0045
:101FC000CD49486003E04FF05010CB4948601423DE
:101FD0005C224421762005F063F86FF07F40C6490B
:101FE0000860C449086E00230722042104F03CFC69
:101FF0000023C34A462176200CF01EF9002300E09E
:10200000F7E0C04A4621C8200CF016F9042C01D193
:10201000012000E000200090009820B14FF47F00E4
:10202000B549486003E04FF05010B34948601423AD
:102030005C225A21762005F033F86FF07F40AE49DC
:102040000860AC49486E00230722042104F00CFC10
:102050000023AB4A5C2176200CF0EEF80023A94A5D
:102060005C21C8200CF0E8F8052C01D1012000E02B
:1020700000200090009820B14FF47F009E494860F6
:1020800003E04FF050109C49486014235C22182153
:10209000900005F005F86FF07F409749086095497A
:1020A00091F8680000230222194604F0DDFB0023AA
:1020B000934A1A214FF4B8700CF0BEF80023914AED
:1020C00018321A214FF4D6700CF0B6F8062C01D154
:1020D000012000E000200090009820B14FF47F0024
:1020E0008549486003E04FF050108349486014234D
:1020F0005C222E21C80004F0D3FF6FF07F407E49A0
:1021000008607C49C86E00230722042104F0ACFB60
:1021100000237B4A30214FF4B8700CF08DF8002377
:10212000784A921D30214FF4E1700CF085F8072CAD
:1021300001D1012000E000200090009820B14FF470
:102140007F006D49486003E04FF050106A494860D5
:1021500014235C224421900004F0A2FF6FF07F4022
:10216000654908606349086F00230722042104F0D1
:102170007BFB0023624A46214FF4B8700CF05CF8F8
:102180000023604A921D46214FF4E1700CF054F890
:10219000082C01D1012000E000200090009820B11F
:1021A0004FF47F005449486003E04FF0501052490B
:1021B000486014235C225A21900004F071FF6FF0F4
:1021C0007F404D4908604B49486F00230722042196
:1021D00004F04AFB00234A4A5C2188000CF02CF8EA
:1021E0000023484A921D5C214FF4E1700CF024F862
:1021F000C6E0404890F858000128F9D1012C00D1E0
:1022000000E000200090009820B14FF47F003A4990
:10221000486003E04FF050103749486014235C22B7
:102220001821762004F03CFF6FF07F4032490860AF
:10223000304890F85800C0EBC000304942180023E5
:102240001A2176200BF0F8FF022C01D1012000E0CA
:1022500000200090009820B14FF47F00264948608C
:1022600003E04FF050102449486014235C222E21D3
:10227000762004F015FF6FF07F401F4908601D496C
:10228000886F00230722042104F0EEFA00231C4A81
:10229000302176200BF0D0FF00231A4A3021C820CD
:1022A0000BF0CAFF052C01D1012000E000200090B6
:1022B000009820B14FF47F000F49486003E04FF0D1
:1022C00050100D49486014235C221821900004F03E
:1022D000E7FE6FF07F4008490860064991F8680002
:1022E00000230222194604F0BFFA0023044A1A21EF
:1022F0000AE0000024130020E40000203605010855
:1023000020210020F3FF00084FF4B8700BF094FF79
:102310000023504A1A214FF4D6700BF08DFF062C83
:1023200001D1012000E000200090009820B14FF47E
:102330007F004949486003E04FF05010464948602B
:1023400014235C222E21C80004F0AAFE6FF07F4007
:10235000414908604149C86F00230722042104F065
:1023600083FA00233E4A30214FF4B8700BF064FF2B
:102370000023384A123A30214FF4E1700BF05CFF31
:10238000092C63D2DFE804F00509333435623637AF
:102390003800002000F004F959E000F07BFD6FF0F8
:1023A0007F402D4908602F4848602F4890F8F80179
:1023B00008B12E4D00E02E4D0020019013E0019950
:1023C000C1EBC1014A190199C1EB011303EB4111A2
:1023D000202303EB410188B20023F1210BF02CFFF5
:1023E0000198401C019001980228E8D32FE000BF1B
:1023F00000BF00BF00BF00BF00F04CFD6FF07F408A
:102400001549086017484860174890F8F80108B166
:10241000184D00E0184D0020019013E00199C1EB28
:10242000C1014A190199C1EB011303EB41112023AA
:1024300003EB410188B20023F1210BF0FDFE01986E
:10244000401C019001980028E8D000E000BF00BFC8
:102450007CBD00000B000108E400002024130020D4
:10246000202100203800310008150020B1040108A7
:10247000CD0401089C060108950601082DE9F041EC
:102480000746FFF72FFD6FF07F403A4908603A4852
:1024900048603A4890F8F80108B1394E00E0394EEA
:1024A000002306F12C02042118460BF0C5FE6FF044
:1024B0007F40304908604FF050104860324890F833
:1024C000580030BB314D002420E0042C0ED205EB27
:1024D000041204EB440000EBC4001A2303EB400099
:1024E00081B2002318460BF0A7FE0EE005EB0412A4
:1024F000201F00EB400303EBC0001A2303EB400056
:1025000081B20023FA200BF097FE641C082CDCD368
:102510002AE01D4890F85800012825D11C4D0024C0
:1025200020E0042C0ED205EB041204EB440000EB77
:10253000C4001A2303EB400081B2002318460BF0BD
:102540007BFE0EE005EB0412201F00EB400303EBC3
:10255000C0001A2303EB400081B20023FA200BF0E5
:102560006BFE641C082CDCD317B9002000F018F8AF
:10257000BDE8F081E40000200352F30008150020BC
:102580006D0101087B0001082413002073FE000880
:10259000F3FE000810B5002000F002F810BD0000A6
:1025A00010B5044600F076FC002C7CD16FF07F4023
:1025B0009549086095484860954890F8F8010028CA
:1025C00040D0002393A2E7211C200BF035FE00230E
:1025D00092A2FB211C200BF02FFE002391A2E721E9
:1025E0007E200BF029FE00238FA2FB217E200BF022
:1025F00023FE00238EA2E721DC200BF01DFE00232A
:1026000089A2FB21DC200BF017FE00238AA2E72120
:102610004FF49D700BF010FE002383A2FB214FF4BA
:102620009D700BF009FE002385A2E7214FF4CC70CA
:102630000BF002FE002384A2FB214FF4CC700BF0C0
:10264000FBFDDFE0002381A2E7211C200BF0F4FD5D
:10265000002380A2FB211C200BF0EEFD00237FA2B3
:10266000E7217E200BF0E8FD00237EA2FB217E20E7
:102670000BF0E2FD00237DA2E721DC200BF0DCFD66
:10268000002378A2FB21DC200BF0D6FD002379A2E9
:10269000E7214FF49D700BF0CFFD002371A2FB21C9
:1026A0004FF49D7000E010E00BF0C6FD002373A214
:1026B000E7214FF4CC700BF0BFFD002371A2FB218A
:1026C0004FF4CC700BF0B8FD9CE0012C2CD16FF0D6
:1026D0007F404D4908604D48486000236BA2E721C8
:1026E00066200BF0A9FD00236AA2FB2166200BF0F7
:1026F000A3FD002369A2E721B6200BF09DFD002376
:1027000068A2FB21B6200BF097FD002367A2E7210A
:102710004FF4D3700BF090FD002366A2FB214FF421
:10272000D3700BF089FD6DE0022C6BD1384890F826
:10273000F801002834D0002336A2E7217E200BF0D8
:102740007BFD002335A2FB217E200BF075FD0023CD
:1027500030A2E721DC200BF06FFD002357A2FB2104
:10276000DC200BF069FD002356A2E7214FF49D7099
:102770000BF062FD002351A2FB214FF49D700BF082
:102780005BFD002351A2E7214FF4CC700BF054FD08
:1027900000234FA2FB214FF4CC700BF04DFD31E034
:1027A00000232AA2E7211C200BF046FD002329A2CA
:1027B000FB211C200BF040FD002324A2E7217E20FA
:1027C0000BF03AFD00232FA2FB217E200BF034FDFD
:1027D000002341A2E721DC200BF02EFD002329A2DB
:1027E000FB21DC200BF028FD00233BA2E7214FF466
:1027F0009D700BF021FD002339A2FB214FF49D7049
:102800000BF01AFD10BD0000E4000020380031007C
:10281000081500204D454153000000004449535025
:102820000000000042415400544553540000000091
:102830002044594E410000004C4953540000000010
:102840004C494D495400000053455400B2E2C1BF09
:1028500000000000CFD4CABE00000000B5E7B3D826
:1028600000000000B2E2CAD400000000B6AFCCAC59
:1028700000000000C1D0B1ED00000000BCABCFDE15
:1028800000000000C9E8D6C300000000CEC4BCFEB2
:1028900000000000B9DCC0ED00000000B1A3B4E608
:1028A00000000000CAFDBEDD00000000B8FCB6E07C
:1028B0000000000020322F32000000005345545524
:1028C000500000002053595300000000535953009A
:1028D000494E464F00000000CFB5CDB300000000C8
:1028E000D0C5CFA20000000011B581B0002000903B
:1028F00030E09DF804100098401C814204D14FF450
:102900007F002A49486003E04FF050102749486093
:10291000009800EB800080001A3081B214235A2204
:10292000A02004F0BDFB2249009A51F822000023A8
:102930000722042103F098FF009800EB800080003C
:102940001A3081B201231B4AA0200BF075FC0098BD
:10295000401C009000980A28CBD34FF05010134928
:10296000486000F097FA6FF07F4010490860124805
:102970004860124C0220009013E00099C1EBC101A5
:102980000A190099C1EB011303EB4111202303EB5A
:10299000410188B20023F1210BF04EFC0098401C4D
:1029A000009000980528E8D31CBD0000E40000203A
:1029B000581700202021002038003100DB040108D6
:1029C0007CB50446012C00D100E000200090009866
:1029D00020B14FF47F00E749486003E04FF050100A
:1029E000E449486014235C221821762004F058FB47
:1029F0006FF07F40DF490860DF4890F88000C0EB4F
:102A0000C000DE49421800231A2176200BF014FC86
:102A1000022C01D1012000E000200090009820B19C
:102A20004FF47F00D349486003E04FF05010D14984
:102A3000486014235C222E21762004F031FB6FF0D5
:102A40007F40CC490860CC49D1F88400002305229E
:102A5000032103F009FF0023C94A302176200BF03F
:102A6000EBFB0023C74A3021B2200BF0E5FB032C1F
:102A700001D1012000E000200090009820B14FF427
:102A80007F00BC49486003E04FF05010B9494860EE
:102A900014235C224421762004F002FB6FF07F4077
:102AA000B4490860B449D1F8880000230522032105
:102AB00003F0DAFE0023B24A462176200BF0BCFB7D
:102AC0000023B04A4621B2200BF0B6FB042C01D102
:102AD000012000E000200090009820B14FF47F001A
:102AE000A449486003E04FF05010A2494860142305
:102AF0005C225A21762004F0D3FA6FF07F409D4982
:102B000008609D49D1F88C0000230522042103F0C0
:102B1000ABFE00239A4A5C2176200BF08DFB00234C
:102B2000984A1E325C21B2200BF086FB052C01D1A5
:102B3000012000E000200090009820B14FF47F00B9
:102B40008C49486003E04FF050108A4948601423D4
:102B50005C221821900004F0A3FA6FF07F408549B1
:102B60000860854991F8900000230222194603F07D
:102B70007BFE814890F89000C0EBC000824942186B
:102B800000231A214FF4B8700BF056FB062C01D12C
:102B9000012000E000200090009820B14FF47F0059
:102BA0007449486003E04FF05010724948601423A4
:102BB0005C222E21C80004F073FA6FF07F406D494B
:102BC00008606D49D1F8940000230522032103F029
:102BD0004BFE00236A4A30214FF4B8700BF02CFBF7
:102BE0000023684A30214FF4D6700BF025FB072CE8
:102BF00001D1012000E000200090009820B14FF4A6
:102C00007F005C49486003E04FF05010594948602C
:102C100014235C224421900004F042FA6FF07F40BC
:102C2000544908605449D1F8980000230522032133
:102C300003F01AFE0023524A46214FF4B8700BF0FD
:102C4000FBFA00234F4A46214FF4D6700BF0F4FAFA
:102C5000082C01D1012000E000200090009820B154
:102C60004FF47F004349486003E04FF05010414962
:102C7000486014235C225A21900004F011FA6FF08E
:102C80007F403C4908603C49D1F89C000023052264
:102C9000042103F0E9FD0023394A5C2188000BF090
:102CA000CBFA0023374A1E325C214FF4D6700BF06A
:102CB000C3FA24B1012C06D0052C58D12DE00020F8
:102CC000FFF76EFC54E000F0E5F86FF07F40294913
:102CD00008602E4848602E4890F8F80108B12D4D44
:102CE00000E0264D0020019013E00199C1EBC101E5
:102CF0004A190199C1EB011303EB4111202303EBA6
:102D0000410188B20023F1210BF096FA0198401C92
:102D1000019001980228E8D32AE000F0BBF86FF098
:102D20007F401449086019484860194890F8F80134
:102D300008B1154D00E0144D0020019013E00199F9
:102D4000C1EBC1014A190199C1EB011303EB411118
:102D5000202303EB410188B20023F1210BF06CFA30
:102D60000198401C019001980328E8D300E000BFBF
:102D700000BF7CBDE400002024130020B40501083E
:102D800020210020F3FF0008DE0501083800310093
:102D900008150020F305010870B5FFF7A3F86FF0E0
:102DA0007F402149086021484860214890F8F80197
:102DB00008B1204E00E0204E002306F1420204211B
:102DC00018460BF039FA6FF07F40174908604FF052
:102DD00050104860194D002420E0042C0ED205EB61
:102DE000041204EB440000EBC4001A2303EB400080
:102DF00081B2002318460BF01FFA0EE005EB041217
:102E0000201F00EB400303EBC0001A2303EB40003C
:102E100081B20023FA200BF00FFA641C082CDCD3DB
:102E20000020FFF7BDFB70BDE40000200352F3005B
:102E3000081500206D0101087B00010873FF0008E0
:102E40002DE9F84105468846144600261CE0207806
:102E500000B91AE02078203800EB8000C00000EBB9
:102E60008000C700F81707EB5070094901EBE0003C
:102E7000A919009088B228231A46414604F024FD7F
:102E8000641C06F11C0086B2E1E700BFBDE8F881D2
:102E90008E7A010810B500243CE0204820494860A3
:102EA000A1000A31C4EB041202EB420201EB420121
:102EB00088B22B235A22E42104F0F2F81948184969
:102EC00048605E2204FB02F10B3188B201235A22D2
:102ED000E32104F0E5F8C4EB041101EB4411642292
:102EE00002EB410188B22C230122E32104F0D8F83F
:102EF00000200B494860C4EB041101EB441164222B
:102F000002EB4101491C88B22C230322E32104F087
:102F1000C7F8641C052CC0D310BD00003800310078
:102F2000E40000206843690070B502F00BF96FF00F
:102F30007F402349086023484860234890F8F801FF
:102F400008B1224E00E0224E002306F116020421B1
:102F500018460BF071F96FF07F40194908604FF087
:102F6000501048601B4D002424E0022C10D204EBCA
:102F7000840005EB400204EB440000EBC4001A237C
:102F800003EB400081B2002318460BF055F910E026
:102F900004EB840005EB4002A01E00EB400303EBB2
:102FA000C0001A2303EB400081B20023FA200BF08B
:102FB00043F9641C032CD8D30020FFF7F1FA70BD4D
:102FC000E40000200352F300081500206D01010801
:102FD0007B00010855FE00087CB50546012D00D197
:102FE00000E000200090009820B14FF47F00684975
:102FF000486003E04FF050106549486014235C229C
:103000001821582004F04CF86FF07F4060490860A8
:103010006049C86C00230522032103F025FC00232E
:103020005D4A1A2158200BF007F9022D01D1012029
:1030300000E000200090009820B14FF47F00544938
:10304000486003E04FF05010514948601423682253
:1030500018214FF4A97004F023F86FF07F404C4919
:1030600008604C49486D00230522032103F0FCFB56
:103070000023494A1A214FF4A9700BF0DDF8032D03
:1030800001D1012000E000200090009820B14FF411
:103090007F003F49486003E04FF050103C494860D2
:1030A00014235C222E21582003F0FAFF6FF07F409A
:1030B000374908603749086D00230522032103F0D2
:1030C000D3FB0023344A302158200BF0B5F825B14A
:1030D000012D06D0022D58D12DE00020FFF760FA17
:1030E00054E0FFF7D7FE6FF07F40294908602B4876
:1030F00048602B4890F8F80108B12A4C00E02A4CAF
:103100000020019013E00199C1EBC1010A19019956
:10311000C1EB011303EB4111202303EB410188B202
:103120000023F1210BF088F80198401C01900198D0
:103130000528E8D32AE0FFF7ADFE6FF07F40144981
:10314000086016484860164890F8F80108B1174C16
:1031500000E0174C0020019013E00199C1EBC10180
:103160000A190199C1EB011303EB4111202303EB71
:10317000410188B20023F1210BF05EF80198401C58
:10318000019001980028E8D000E000BF00BF7CBD9E
:10319000E40000202413002020210020380031000A
:1031A00008150020B1040108F90301089C06010874
:1031B0009506010870B501F0CDFF6FF07F402C49F6
:1031C00008602C4848602C4890F8F80108B12B4E54
:1031D00000E02B4E002306F16E02042118460BF08E
:1031E0002BF86FF07F40224908604FF05010486084
:1031F000214890F8F80108B1224D00E0214D00244B
:103200002FE0062C11D24FF050101949486004EB02
:10321000840005EB4002162304FB03F01A3081B250
:10322000002318460BF008F81AE0A01F022806D960
:10323000082804D24FF050100D49486003E04FF0C9
:1032400050100B49486004EB840005EB4002A01FBE
:10325000162358431A3081B20023FA200AF0ECFFFB
:10326000641C0B2CCDD30020FFF79AF970BD000031
:10327000E40000200352F300081500206D0101084E
:103280007B000108D702010810B502F0ADF9FFF785
:1032900001FE10BD30B595B0054602F0EFF90122F0
:1032A0002946684600F08AFF6C469DF800008DF8BC
:1032B000380001980F90029810900398119004988C
:1032C000129005981390069814900F984FF47A7105
:1032D000B0FBF1F00F900B9818B9002009900890FE
:1032E0000A900F9815B030BD70B5FFF7CDFF6FF0A5
:1032F0007F403D4908603D4848603D4890F8F801EE
:1033000008B13C4D00E03C4D002305F16E02042164
:1033100018460AF091FF6FF07F40334908604FF084
:1033200050104860002459E0032C2AD2334890F80A
:10333000D500012810D1C4EB0410314BC21804EBA6
:10334000440000EBC4001A2303EB400081B20023C9
:1033500018460AF071FF40E0284890F8D50030BBCD
:10336000C4EB0410274BC21804EB440000EBC4006C
:103370001A2303EB400081B2002318460AF05CFFD9
:103380002BE01E4890F8D500012811D1C4EB0410A1
:103390001B4BC218E01E00EB400303EBC0001A23D6
:1033A00003EB400081B20023FA200AF045FF14E04D
:1033B000124890F8D50080B9C4EB0410114BC21824
:1033C000E01E00EB400303EBC0001A2303EB4000B8
:1033D00081B20023FA200AF02FFF641C052CA3D32E
:1033E0000020FFF7DDF870BDE40000200352F30079
:1033F000081500206D0101087B000108241300203E
:10340000750401082A04010810B58C488C4908602D
:103410004FF0501048608B4890F8D500F0B9002369
:1034200089A25E214FF496700AF006FF002387A25E
:103430005E214FF4AF700AF0FFFE854991F83D1010
:10344000481C00230222194603F00EFA0023814A89
:103450005E214FF4A1700AF0EFFE1BE0794890F86E
:10346000D500012816D100237BA25E214FF496706F
:103470000AF0E2FE764991F83D10481C0023022232
:10348000194603F0F1F90023724A5E214FF4A97046
:103490000AF0D2FE6B4890F8D500E0B9002370A284
:1034A00072214FF496700AF0C7FE00236EA28821A5
:1034B0004FF496700AF0C0FE00236DA29E214FF4D7
:1034C00096700AF0B9FE00236BA2B4214FF49670F7
:1034D0000AF0B2FE20E05B4890F8D50001281BD12D
:1034E000002367A272214FF496700AF0A5FE002314
:1034F00064A288214FF496700AF09EFE002362A217
:103500009E214FF496700AF097FE00235FA2B4212B
:103510004FF496700AF090FE4A4890F82100A8B93E
:103520004B49002307220868042103F09DF900237A
:10353000484A72214FF4B4700AF07EFE002350A274
:1035400072214FF4DC700AF077FE19E03D4890F8E4
:103550002100012814D13E490023062208680321D6
:1035600003F082F900233B4A72214FF4B4700AF051
:1035700063FE002342A272214FF4DC700AF05CFE6D
:10358000304890F82000A8B9314900230722486844
:10359000042103F069F900232E4A88214FF4B47006
:1035A0000AF04AFE00233BA288214FF4DC700AF0A7
:1035B00043FE19E0234890F82000012814D1244943
:1035C000002306224868032103F04EF90023214A14
:1035D00088214FF4B4700AF02FFE00232DA2882119
:1035E0004FF4DC700AF028FE194900230722C8684E
:1035F000032103F039F90023164A9E214FF4B470D9
:103600000AF01AFE002324A29E214FF4DC700AF077
:1036100013FE0F4900230422086C012103F024F952
:1036200000230C4AB42148000AF006FE00231BA226
:10363000B4214FF4DC700AF0FFFD10BD00FFFF0065
:10364000E400002024130020B5DA0000B2BD000021
:1036500048170020202100205374657000000000EE
:10366000B5E7D1B900000000B5E7C1F700000000E0
:10367000B9A6C2CA00000000CAB1BCE40000000044
:1036800056000000490000005000000054494D451C
:10369000000000004100000057000000730000001F
:1036A0002DE9F0410546012D00D100E0002007463C
:1036B00027B14FF47F00F849486003E04FF0501005
:1036C000F549486014235C221821762003F0E8FCB9
:1036D0006FF07F40F0490860F04991F8D600002370
:1036E0000322194603F0C0F80023ED4A1A21762080
:1036F0000AF0A2FD022D01D1012000E000200746C2
:1037000027B14FF47F00E449486003E04FF05010C8
:10371000E149486014235C222E21762003F0C0FC8E
:103720006FF07F40DC490860DC4890F8D700C0EBC0
:10373000C000DC4942180023302176200AF07CFDCD
:10374000032D01D1012000E00020074627B14FF4EE
:103750007F00D149486003E04FF05010CE494860E7
:1037600014235C224421762003F09AFC6FF07F4002
:10377000C9490860C94890F8D800C0EBC000CA49E0
:1037800042180023462176200AF056FD042D01D16F
:10379000012000E00020074627B14FF47F00BE491A
:1037A000486003E04FF05010BB49486014235C228E
:1037B0001821900003F074FC6FF07F40B649086058
:1037C000B64890F8D900C0EBC000B84942180023B1
:1037D0001A214FF4B8700AF02FFD052D01D10120F8
:1037E00000E00020074627B14FF47F00AA49486057
:1037F00003E04FF05010A849486014235C222E21AA
:10380000C80003F04DFC6FF07F40A3490860A34956
:10381000D1F8DC0000230722042103F025F800235F
:103820009F4A30214FF4B8700AF006FD0023A04AE9
:1038300030214FF4E1700AF0FFFC6FF07F409649B1
:1038400008604FF050104860CA23FA225C21002023
:1038500003F052FD914890F8D500D8B9002395A205
:103860005E2118460AF0E8FC002393A25E21322074
:103870000AF0E2FC914991F83C10481C0023022216
:10388000194602F0F1FF0023854A5E2116200AF056
:10389000D3FC19E0814890F8D500012814D1002309
:1038A00087A25E2118460AF0C7FC844991F83C10B3
:1038B000481C00230222194602F0D6FF0023784A52
:1038C0005E2126200AF0B8FC062D01D1012000E07F
:1038D0000020074627B14FF47F006F49486003E09E
:1038E0004FF050106C494860102350225E21642034
:1038F00003F0D6FB694890F8D50078B96F4890F886
:103900003C106648E030405CC0EBC0006E49421895
:1039100000235E2164200AF08FFC13E05F4890F8DA
:10392000D50001280ED1654890F83C105B48E03086
:10393000405CC0EBC0006549421800235E21642052
:103940000AF07AFC4FF05010534948605B4890F8F9
:103950003C105248E030405C04286ED04F4890F84C
:10396000D500F0B900235AA2722118460AF064FC6F
:1039700000235AA2882118460AF05EFC002359A2AF
:103980009E2118460AF058FC002359A2B42118467B
:103990000AF052FC002358A2CA2118460AF04CFC37
:1039A00022E03E4890F8D50001281DD1002354A202
:1039B000722118460AF040FC002353A288211846C1
:1039C0000AF03AFC002352A2882118460AF034FC7F
:1039D000002351A2882118460AF02EFC002350A291
:1039E000882118460AF028FC122314227021C820CE
:1039F00003F056FB314890F83C102848E030405C1A
:103A000000EB40002A49891F01EB4002002372218C
:103A1000C8200AF011FC002342A28821C8200AF025
:103A20000BFC072D01D1012000E0002007462FB13B
:103A30004FF47F001849486004E016E14FF0501041
:103A40001549486014235C227021642003F028FB90
:103A50006FF07F4010490860184991F83C200F49E9
:103A6000F03151F8220000230722042102F0FCFE6D
:103A700000230B4A722164200AF0DEFB082D01D1DD
:103A8000012000E00020074627B14FF47F000249E3
:103A900048604DE048E00000E400002024130020CE
:103AA00020210020AE0A0108B4050108C205010862
:103AB000F9FF0008B5DA0000B2BD00004817002089
:103AC0005374657000000000CA0A0108090B010860
:103AD000B8BAD4D8B4F3D0A100000000CAB1BCE495
:103AE00000000000B1C8BDCFC0E0D0CD0000000094
:103AF000C9CFCFDE00000000CFC2CFDE0000000043
:103B00004C4F41440000000054696D650000000006
:103B1000436F6D7000000000486967680000000096
:103B20004C6F7700730000004FF05010FE49486062
:103B300014235C228621642003F0B2FA6FF07F40E8
:103B4000F9490860F94991F83C20F94931F8120027
:103B500000230422012102F087FE0023F54A882178
:103B600064200AF069FB092D01D1012000E000204A
:103B7000074627B14FF47F00EB49486003E04FF060
:103B80005010E949486014235C229C21642003F012
:103B900087FA6FF07F40E4490860E44890F83C10F1
:103BA000E3481E30405CC0EBC000E34942180023EC
:103BB0009E2164200AF040FB0A2D01D1012000E083
:103BC0000020074627B14FF47F00D749486003E043
:103BD0004FF05010D449486014235C22B221642075
:103BE00003F05EFA6FF07F40CF490860CF4991F84B
:103BF0003C20CF49303151F8220000230722042114
:103C000002F032FE0023CB4AB42164200AF014FBF8
:103C10000B2D01D1012000E00020074627B14FF411
:103C20007F00C149486003E04FF05010BE49486032
:103C300014235C22C821642003F032FA6FF07F4025
:103C4000B9490860B94991F83C20B9496C3151F83B
:103C5000220000230722042102F006FE0023B54AB9
:103C6000CA2164200AF0E8FA6CE1B04890F83C10F0
:103C7000AF484C38405C0428F6D1B04890F8D500E5
:103C800018BB0023AFF2B812722118460AF0D4FA1A
:103C90000023AFF2B812882118460AF0CDFA0023AB
:103CA000AFF2C0129E2118460AF0C6FA0023AFF206
:103CB000C012B42118460AF0BFFA0023AFF2C812AE
:103CC000CA2118460AF0B8FA27E09C4890F8D500B7
:103CD000012822D10023AFF2D812722118460AF02F
:103CE000ABFA0023AFF2E012882118460AF0A4FADA
:103CF0000023AFF2E412882118460AF09DFA00234F
:103D0000AFF2EC12882118460AF096FA0023AFF2BF
:103D1000F012882118460AF08FFA1223142270211B
:103D2000C82003F0BDF90023AFF208228821C82083
:103D30000AF082FA062D01D1012000E0002007469A
:103D400027B14FF47F007849486003E04FF05010EE
:103D500075494860754991F83C2075493C3951F8DE
:103D6000220000230722042102F07EFD8423AA22E0
:103D70007021642003F0C0FA00236E4A722164208F
:103D80000AF05AFA072D01D1012000E00020074671
:103D900027B14FF47F006449486003E04FF05010B2
:103DA00061494860614991F83C20614931F812004D
:103DB00000230422012102F057FD9A23AA22862122
:103DC000642003F099FA00235A4A882164200AF0FB
:103DD00033FA082D01D1012000E00020074627B169
:103DE0004FF47F005049486003E04FF050104E49B7
:103DF000486014235C228621642003F051F96FF09F
:103E00007F4049490860494991F83C20484931F8C8
:103E1000120000230422012102F026FD0023454A5E
:103E2000882164200AF008FA092D01D1012000E060
:103E30000020074627B14FF47F003B49486003E06C
:103E40004FF050103849486014235C229C216420B4
:103E500003F026F96FF07F4033490860334890F84B
:103E60003C1033481E30405CC0EBC0003249421861
:103E700000239E2164200AF0DFF90A2D01D10120E0
:103E800000E00020074627B14FF47F002649486034
:103E900003E04FF050102449486014235C22B22103
:103EA000642003F0FDF86FF07F401F4908601F4950
:103EB00091F83C201E49303151F82200002307229E
:103EC000042102F0D1FC00231A4AB42164200AF034
:103ED000B3F90B2D01D1012000E00020074627B1E6
:103EE0004FF47F001049486003E04FF050100E4936
:103EF000486014235C22C821642003F0D1F86FF0DD
:103F00007F4009490860094991F83C2008496C3113
:103F100051F8220000230722042102F0A5FC00230F
:103F2000044ACA2164200BE0E40000204817002066
:103F300050140020202100202C0B01082413002005
:103F40000AF07AF9FEF7A6FF7C48007800287DD1B8
:103F50000C2D7CD2DFE805F0060AC633570B7E0C29
:103F60000DA20E0F0020FEF71BFBBCE000BF00BF40
:103F700000BF00BF00BFFEF78DFF6FF07F407049AC
:103F8000086070484860704890F8F80108B16F4EBA
:103F900000E06F4E00240FE0C4EBC4018A19C4EBAB
:103FA000041101EB4411202303EB410188B20023EB
:103FB000F1210AF041F9641C002CEDD093E0FEF7EA
:103FC00069FF6FF07F405E4908605E4848605E4868
:103FD00090F8F80108B15F4E00E05F4E00240FE05A
:103FE000C4EBC4018A19C4EB041101EB4411202372
:103FF00003EB410188B20023F1210AF01DF9641C92
:10400000022CEDD36FE0FEF745FF6FF07F404C4987
:1040100008604C4848604C4890F8F80108B14F4E91
:1040200000E04F4E00240FE0C4EBC4018A19C4EB3A
:10403000041101EB4411202303EB410188B200235A
:10404000F1210AF0F9F8641C022C01E04CE049E08F
:10405000EAD348E0FEF71EFF6FF07F403849086062
:1040600038484860384890F8F80108B13D4E00E003
:104070003D4E00240FE0C4EBC4018A19C4EB0411C7
:1040800001EB4411202303EB410188B20023F1210D
:104090000AF0D2F8641C052CEDD324E0FEF7FAFEFA
:1040A0006FF07F402649086026484860264890F80F
:1040B000F80108B12D4E00E02D4E00240FE0C4EBB6
:1040C000C4018A19C4EB041101EB4411202303EB52
:1040D000410188B20023F1210AF0AEF8641C042CDF
:1040E000EDD300E000BF26E014480078012822D17B
:1040F000FEF7D0FE6FF07F4011490860114848601C
:10410000114890F8F80108B11A4E00E01A4E002448
:104110000FE0C4EBC4018A19C4EB041101EB441194
:10412000202303EB410188B20023F1210AF084F837
:10413000641C052CEDD3BDE8F081000033000020A5
:10414000E400002038003100081500209C0601081A
:1041500095060108F3050108B4050108D00501081A
:10416000C2050108090B0108CA0A01088E0B0108E3
:104170002C0B01086B0B0108480B010810B5054812
:1041800005494860962340F2DF124C21002002F0DE
:1041900087FF10BD65343400E400002010B50548E9
:1041A00005494860742340F2DF126E21002002F0BE
:1041B00077FF10BD65343400E4000020F0B593B003
:1041C00005460E461746012012900C9000200B90D9
:1041D0000A900990089003900290049002900D902C
:1041E00009E020200FA99DF8342088549DF8340060
:1041F000401CC0B20D909DF834000828F1DB00206F
:104200008DF844000FB1082400E0062485E102F097
:10421000A9FD0E909DF8380000287DD001200C905B
:104220009DF83800202878D2DFE800F0778291A04E
:104230007777CDBEAFDCF2F0EFEEED777F7E5733D0
:10424000107777EC77808177777777EB0020049091
:1042500012909DF82000A04218DA9DF82C00A8B911
:104260009DF8200000280CDD2E200FA99DF82020AD
:1042700088549DF820000A909DF82000401CC0B290
:1042800008909DF82C00401CC0B20B9001200590B6
:1042900028E101200490002012909DF82000A04207
:1042A00018DA9DF82C00A8B99DF8200000280CDD34
:1042B0002E200FA99DF8202088549DF820000A90F8
:1042C0009DF82000401CC0B208909DF82C00401CB6
:1042D000C0B20B900120059004E102200490002060
:1042E00012909DF82000A0421BDA9DF82C00C0B966
:1042F0009DF8200000280CDD2E200FA99DF820201D
:1043000088549DF820000A909DF82000401CC0B2FF
:1043100008909DF82C0001E0E5E0E2E0401CC0B20E
:104320000B9001200590DDE0DCE0DBE0DAE0D9E095
:104330009DF82000A04209DA31200FA99DF8202025
:1043400088549DF82000401CC0B20890CAE09DF837
:104350002000A04209DA32200FA99DF820208854BD
:104360009DF82000401CC0B20890BBE09DF82000E2
:10437000A04209DA33200FA99DF8202088549DF827
:104380002000401CC0B20890ACE09DF82000A04284
:1043900009DA34200FA99DF8202088549DF82000C8
:1043A000401CC0B208909DE09DF82000A04209DAB0
:1043B00035200FA99DF8202088549DF82000401C2E
:1043C000C0B208908EE09DF82000A04209DA3620A5
:1043D0000FA99DF8202088549DF82000401CC0B2F1
:1043E00008907FE09DF82000A04209DA37200FA94D
:1043F0009DF8202088549DF82000401CC0B20890F1
:1044000070E06DE06BE021E02FE050E00FE0FFE7AF
:104410009DF82000A04209DA38200FA99DF820203D
:1044200088549DF82000401CC0B208905AE09DF8C6
:104430002000A04209DA39200FA99DF820208854D5
:104440009DF82000401CC0B208904BE09DF8200071
:10445000A04209DA30200FA99DF8202088549DF849
:104460002000401CC0B208903CE09DF82000A04213
:104470001CDA9DF82000002818DD9DF82C00A8B952
:104480009DF8200000280CDD2E200FA99DF820208B
:1044900088549DF820000A909DF82000401CC0B26E
:1044A00008909DF82C00401CC0B20B901AE09DF8BB
:1044B0002000002812DD9DF82000401EC0B20890A8
:1044C00020200FA99DF8202088549DF828009DF8F1
:1044D0002010884202D100200B900A9002E001E0F7
:1044E00000E000BF00BF9DF83000B0B100200C908C
:1044F0006FF07F40424908604FF47F004860B38806
:1045000010339AB271883088122302F0C9FD718885
:10451000308800230FAA09F08FFE9DF8480000287C
:104520007FF475AE9DF820000D9009E030200FA9B2
:104530009DF8342088549DF83400401CC0B20D9082
:104540009DF834109DF82800401D8142EEDB0020CC
:104550000D9039E09DF83C00302830DB9DF83C00A0
:1045600039282CDC0FA89DF83410405C302826DB5D
:104570000FA89DF83410405C392820DC9DF82800F5
:104580009DF8341088420DDD029800EB8000400059
:10459000029002990FA89DF83420805C30380844BE
:1045A00002900CE0029800EB80004000029002991B
:1045B0000FA89DF83420805C3038084402909DF8A4
:1045C0003400401CC0B20D909DF834109DF82800B6
:1045D000401D8142BEDB9DF8280003909DF8040039
:1045E0002870029868600398A8600498E8600598AD
:1045F0002861069868610798A86113B0F0BD0000B3
:10460000E400002070B505466FF07F40DD4908608A
:104610004FF050104860CA2340F2DF125E210020A4
:1046200002F03EFD4FF050116FF07F4003F092F822
:104630006FF07F40D3494860C5F1040000EB4001B2
:1046400001EBC000CA21A1EB40005D3883B201221A
:104650005E21002002F024FDC5F1040000EB4001C2
:1046600001EBC000CA21A1EB40005D3883B20122FA
:104670005E21282002F014FDC5F1040000EB40018A
:1046800001EBC000CA21A1EB40005D3883B20122DA
:104690005E21782002F004FD012415E0C5F104013B
:1046A00001EB410202EBC101CA22A2EB41015D39DB
:1046B0008BB2642204FB02F101F1780001225E2139
:1046C00002F0EEFC601CC4B2042CE7DB00240CE01A
:1046D000162204FB02F000F15E01012340F2DF121A
:1046E000002002F0DDFC601CC4B2A81C8442EFDB99
:1046F0004FF05010A3494860A34890F8D500012816
:1047000026D10023A1A25E21032009F095FD0023FC
:104710009FA249212B2009F08FFD00239EA2492151
:10472000532009F089FD00239DA24921B72009F0FB
:1047300083FD00239CA2492140F21B1009F07CFD5F
:1047400000239BA2492140F27F1009F075FD29E06A
:104750008D4890F8D50028BB002397A26121032043
:1047600009F06AFD002396A261213F2009F064FD53
:10477000002395A26121992009F05EFD002394A2F7
:104780006121FD2009F058FD002393A2612140F230
:10479000611009F051FD002391A2612140F2B11096
:1047A00009F04AFDFEF776FB6FF07F40754908601F
:1047B0008D4848608D4890F8F80108B18C4E00E0B3
:1047C0008C4E00240FE0C4EBC4018A19C4EB041121
:1047D00001EB4411202303EB41000023F12109F0F8
:1047E0002BFD601CC4B2052CEDDB0024C2E04FF0B1
:1047F000501064494860002302221946601C02F0F0
:1048000033F8162204FB02F000F1770100237A4A04
:10481000032009F011FD5C48E030005DC0EBC000F2
:10482000764BC218162304FB03F000F17701002336
:10483000352009F001FD7248005D724951F82000F1
:10484000504908606E48C430005D98B96C49103119
:1048500051F8240000230722042102F005F8162253
:1048600004FB02F000F177010023634A7B2009F08A
:10487000E3FC17E06248C430005D012812D16049B2
:10488000103151F8240000230622032101F0ECFF2F
:10489000162204FB02F000F177010023564A7B2028
:1048A00009F0CAFC5648005D574951F820003549C7
:1048B00008605348D330005D98B951494C3151F8E4
:1048C000240000230722042101F0CEFF162204FB5E
:1048D00002F000F177010023474ADF2009F0ACFC29
:1048E00017E04748D330005D012812D144494C31CC
:1048F00051F8240000230622032101F0B5FF1622FF
:1049000004FB02F000F1770100233B4ADF2009F0AD
:1049100093FC3B48005D3D4951F82000194908606F
:104920003749883151F8240000230722032101F080
:104930009BFF162204FB02F000F1770100232E4AB0
:1049400040F2431009F078FC6FF07F400D49086099
:104950002B48005DC0EBC0002D4BC218162304FB92
:1049600003F000F17701002340F2A71009F064FC86
:10497000601CC4B2044890F8D600A0423FF737AF9D
:1049800070BD0000E4000020241300204E4F000002
:104990004D4F44450000000050415241310000009D
:1049A0005041524132000000524553310000000096
:1049B0005245533200000000D0F2BAC5000000009A
:1049C000CFEEC4BF00000000B5E7D1B90000000081
:1049D000B5E7C1F700000000B9A6C2CA0000000098
:1049E000BDE1B9FB000000003800310008150020CF
:1049F0006B0B0108480B010820210020CA0A01089E
:104A00008C17002078FD000868FD000888FD00086C
:104A1000ED0A010830B595B0054600F02FFE0122E1
:104A200029466846FFF7CAFB6C469DF800008DF8E2
:104A3000380001980F9002981090039811900498F4
:104A4000129005981390069814900B9818B90020AE
:104A5000099008900A900F9815B030BD30B595B008
:104A6000054600F00BFE012229466846FFF7A6FB2B
:104A70006C469DF800008DF8380001980F90029860
:104A8000109003981190049812900598139006982E
:104A900014900F9842F21071B0FBF1F00F900B9848
:104AA00018B90020099008900A900F9815B030BDF1
:104AB00010B500240FE0601C00EB400202EBC000C8
:104AC0001A2202EB4000801E81B2012364225A2088
:104AD00002F0E6FA641C072CEDD310BD70B500F0AF
:104AE0004BF86FF07F401D4908601D4848601D4825
:104AF00090F8F80108B11C4E00E01C4E002306F1AE
:104B0000B0020421184609F097FB6FF07F4013496B
:104B100008604FF050104860124890F8F80108B152
:104B2000134D00E0134D00240EE004EB440000EBB5
:104B3000C4004219162304FB03F01A3081B200238B
:104B4000184609F079FB641C082CEED36FF07F4007
:104B500002494860FFF7ACFF70BD0000E400002090
:104B60000352F300081500206D0101087B000108C5
:104B700006080108AE07010810B500F035FDFEF784
:104B800089F910BD7FB5044600208DF80700012C7F
:104B900001D1012000E000200290029820B14FF4E2
:104BA0007F00F849486003E04FF05010F549486035
:104BB000F54890F8F80108B1F44D00E0F44D1223E7
:104BC00066221A215A2002F06BFAEF4890F8F4019D
:104BD000C0EBC000421900231C215A2009F02CFB15
:104BE000022C01D1012000E000200290029820B1A7
:104BF0004FF47F00E349486003E04FF05010E14973
:104C000048601223662230215A2002F049FADE4819
:104C100090F8F501C0EBC000DE49421800233221B4
:104C20005A2009F009FB032C01D1012000E00020EB
:104C30000290029820B14FF47F00D249486003E00F
:104C40004FF05010CF494860CF4890F8F80108B1B4
:104C5000CE4D00E0CE4D1223662246215A2002F0AE
:104C60001FFAC94890F8F601C0EBC00042190023B2
:104C700048215A2009F0E0FA042C01D1012000E07B
:104C800000200290029820B14FF47F00BD49486097
:104C900003E04FF05010BB494860BB4890F8F80162
:104CA00008B1BA4D00E0BA4D122366225C215A20A9
:104CB00002F0F6F9B44890F8F701C0EBC0004219D1
:104CC00000235E215A2009F0B7FA052C01D10120FA
:104CD00000E000200290029820B14FF47F00A94923
:104CE000486003E04FF05010A64948601223662246
:104CF00072215A2002F0D4F9A34890F8F801A6498D
:104D000001EBC002002374215A2009F095FA01A991
:104D1000002004F045FB6946002004F007FB062C48
:104D200001D1012000E000200290029820B14FF450
:104D30007F009449486003E04FF05010914948606B
:104D400012231A4688215A2002F0AAF99DF803205E
:104D500092A1934809F0E6FA0023914A8A215A2049
:104D600009F06AFA4FF050108649486000238DA27E
:104D70008A216E2009F060FA072C01D1012000E0A1
:104D800000200290029820B14FF47F007D494860D6
:104D900003E04FF050107B49486012231A468821E7
:104DA000782002F07DF99DF801207CA17C4809F073
:104DB000B9FA00237A4A8A21782009F03DFA4FF0A7
:104DC000501070494860002376A28A218C2009F097
:104DD00033FA082C01D1012000E000200290029853
:104DE00020B14FF47F006749486003E04FF0501056
:104DF0006449486012231A468821982002F050F92D
:104E00009DF8022065A1664809F08CFA0023644AE7
:104E10008A21982009F010FA092C01D1012000E024
:104E200000200290029820B14FF47F00554948605D
:104E300003E04FF050105349486012231A469E2158
:104E40005A2002F02DF99DF8042054A1544809F08D
:104E500069FA0023524AA0215A2009F0EDF94FF0D7
:104E600050104849486000234FA2A0216E2009F04D
:104E7000E3F90A2C01D1012000E000200290029801
:104E800020B14FF47F003F49486003E04FF05010DD
:104E90003C49486012231A469E21782002F000F90E
:104EA0009DF805203DA13E4809F03CFA00233C4A0C
:104EB000A021782009F0C0F94FF050103149486026
:104EC000002339A2A0218C2009F0B6F90B2C01D1C6
:104ED000012000E000200290029820B14FF47F00F2
:104EE0002849486003E04FF05010264948601223DB
:104EF0001A469E21982002F0D3F89DF8062027A19B
:104F0000274809F00FFA0023254AA021982009F02C
:104F100093F90C2C01D1012000E0002002900298AE
:104F200020B14FF47F001749486003E04FF0501064
:104F30001449486012236622B4215A2002F0B0F8C6
:104F400000231A4AB6215A2009F076F9FDF7A2FF8C
:104F50006FF07F400B490860154848600C2C7DD2EB
:104F6000DFE804F00609446084A6C1C2C3C4C5C614
:104F7000FDF710FBD8E0044890F8F801D0B1034DDC
:104F800019E00000E400002008150020F3050108E6
:104F9000B40501085E08010896080108253264007E
:104FA000202100202D0000003A0000000117002001
:104FB000380031005D4D0020039013E00399C1EBF0
:104FC000C1014A190399C1EB011303EB41112023DD
:104FD00003EB410188B20023F12109F02DF9039878
:104FE000401C039003980228E8D39DE00020039022
:104FF00014E00399C1EBC1014D4BCA180399C1EBF1
:10500000011303EB4111202303EB410188B200237C
:10501000F12109F011F90398401C03900398052829
:10502000E7D381E0434890F8F80108B1424D00E031
:105030003E4D0020039015E00399C1EBC1014A19D0
:105040000399C1EB011303EB4111202303EB410151
:1050500088B20023F12109F0EFF800E063E0039843
:10506000401C039003980228E6D35DE0314890F895
:10507000F80108B1304D00E02C4D0020039013E002
:105080000399C1EBC1014A190399C1EB011303EB69
:105090004111202303EB410188B20023F12109F0E3
:1050A000CBF80398401C039003980228E8D33BE018
:1050B0000020039013E02149039B01EBC302194632
:1050C000C3EB011303EB4111202303EB410188B231
:1050D0000023F12109F0B0F80398401C03900398D5
:1050E0000228E8D320E000BF00BF00BF00BF00BF20
:1050F0000020039013E01249039B01EBC302194601
:10510000C3EB011303EB4111202303EB410188B2F0
:105110000023F12109F090F80398401C03900398B4
:105120000228E8D300E000BF00BF7FBDB40501083E
:105130005E08010808150020F3050108960801081B
:10514000A608010810B500F04FFAFDF7A3FEFFF71F
:1051500015F810BD10B500F047FAFDF79BFE10BD25
:1051600070B5FFF7EFFF6FF07F40264908602648D3
:105170004860264890F8F80108B1254E00E0254E19
:10518000002332460421184609F056F86FF07F409C
:105190001C4908604FF0501048601C4890F8F80116
:1051A00008B11D4D00E01D4D002424E0022C10D25A
:1051B00004EB840005EB400204EB440000EBC40068
:1051C0001A2303EB400081B20023184609F034F89B
:1051D00010E004EB840005EB4002E01E00EB40030E
:1051E00003EBC0001A2303EB400081B20023FA2036
:1051F00009F022F8641C002CD8D00020FDF7D0F96B
:1052000070BD0000E40000200352F30008150020E8
:105210006D0101087B0001081700010841FE00082C
:1052200070B5FFF797FF6FF07F4030490860304856
:105230004860304890F8F80108B12F4E00E02F4E3A
:10524000002306F158020421184608F0F5FF6FF01C
:105250007F40264908604FF050104860254890F87C
:10526000F80108B1264D00E0264D002438E0062C58
:105270001AD2022C06D9082C04D24FF050101B4928
:10528000486003E04FF050101849486004EB840078
:1052900005EB4002162304FB03F01A3081B2002311
:1052A000184608F0C9FF1AE0A01F022806D90828EE
:1052B00004D24FF050100D49486003E04FF05010F9
:1052C0000A49486004EB840005EB4002A01F162346
:1052D00058431A3081B20023FA2008F0ADFF641C55
:1052E0000C2CC4D30020FDF75BF970BDE400002056
:1052F0000352F300081500206D0101087B0001082E
:10530000450301085F0201087CB50546A8484078BE
:1053100004280FDA4FF05010A6494860A44840789E
:1053200000EB8000A44901EB400200231A21FA207F
:1053300008F082FFA14890F8F80108B1A04C00E005
:10534000A04C012D01D1012000E000200090009828
:1053500020B14FF47F009749486003E04FF05010B0
:105360009449486014235C221821582001F098FECB
:105370006FF07F408F4908608D484078C0EBC000D7
:10538000021900231A21582008F056FF022D01D1DE
:10539000012000E000200090009820B14FF47F0031
:1053A0008449486003E04FF050108249486014235C
:1053B0006A2218214FF4A87001F072FE009838B3E9
:1053C00081487C4948608148007805280EDA7F4989
:1053D000097801EB81014FF4D172A2EB410188B24F
:1053E000022308222A2101F05BFE0DE077490978AB
:1053F00001EB81014FF4CC72A2EB410188B2022390
:1054000008222A2101F04CFE4FF47F0069494860D0
:105410006FF07F40674908606548407838B9644953
:10542000886800230722042101F01EFA22E0604868
:105430004078012807D15E494868002307220421EB
:1054400001F012FA16E05A484078022807D158496C
:10545000C86800230722042101F006FA0AE0544834
:105460004078032806D15249086900230722042105
:1054700001F0FAF90023564A1A214FF4A97008F0F6
:10548000DBFE4B484078534901EB800200231A2190
:105490004FF4D27008F0D0FE4D480078202807D194
:1054A0004B484078202803D105204B49087016E06E
:1054B00047480078202807D145484078202803D065
:1054C0000620454908700AE041480078202806D0A7
:1054D0003F484078202802D007203F49087025B176
:1054E000012D06D0022D60D135E00020FDF758F8DF
:1054F0005CE0FDF7CFFC6FF07F402E490860374835
:1055000048602E4890F8F80108B12D4C00E02D4C71
:105510000020019013E00199C1EBC1010A19019922
:10552000C1EB011303EB4111202303EB410188B2CE
:105530000023F12108F080FE0198401C01900198A1
:105540000428E8D3002304F12A02F1214FF4CC709F
:1055500008F072FE2AE0FDF79DFC6FF07F401549D0
:1055600008601E484860154890F8F80108B11C4CC6
:1055700000E01C4C0020019013E00199C1EBC10137
:105580000A190199C1EB011303EB4111202303EB2D
:10559000410188B20023F12108F04EFE0198401C21
:1055A000019001980028E8D000E000BF00BF7CBD5A
:1055B00024130020E40000205300010808150020F7
:1055C000B1040108F903010800FFFF00AB0000204F
:1055D0002021002067070108AC00002038003100BE
:1055E0009C0601089506010810B505480549486064
:1055F0001623AA220021084601F052FD10BD00002A
:105600000352F300E400002010B500F031F86FF011
:105610007F4013490860134848600023124A042160
:10562000184608F009FE6FF07F400D4908604FF002
:105630005010486000240FE004EB840000EBC4002D
:105640000A4BC21804EB840080001A3081B2002398
:10565000184608F0F1FD641C0A2CEDD310BD0000C3
:10566000E40000200352F300E9000108BFFD000838
:1056700010B5FFF7B9FFFDF70DFC10BD10B5FDF734
:1056800009FC094C09480A4948606FF07F400860EE
:105690000848407800EB400004EB40020023F12171
:1056A000202008F0C9FD10BDF3FF000838003100CC
:1056B000E40000202413002000B58FB00EA90020C4
:1056C00003F06EFE0DA9002003F030FE9DF83A00B5
:1056D0009DF839109DF838209DF83630CDE900321C
:1056E000CDE902109DF835309DF837200BA105A8B3
:1056F00008F018FE4FF0501012494860002305AA28
:105700000421FA2008F098FD132205A90E48FAF7A3
:1057100069FD09200C49C8740FB000BD3230253036
:105720002E32642D25302E32642D25302E32642009
:1057300025302E32643A25302E32643A25302E320E
:1057400064000000E40000203D03002070B5044622
:105750000D462A482A49486094B92A49002307225D
:105760000868042101F080F8274A78215020FDF7CD
:1057700067FB26A278214FF49B70FDF761FB13E0D5
:10578000012C11D11F49002306220868032101F0D2
:105790006BF81D4A78215020FDF752FB1BA278219F
:1057A0004FF49B70FDF74CFB95B916490023072277
:1057B0004868042101F058F8134AB4215020FDF73D
:1057C0003FFB13A2B4214FF49B70FDF739FB13E0AC
:1057D000012D11D10B49002306224868032101F055
:1057E00043F8094AB4215020FDF72AFB08A2B4214E
:1057F0004FF49B70FDF724FB70BD0000653434004E
:10580000E40000204817002020210020560000005E
:105810004100000030B591B000200F900024012518
:105820004FF0501001F008FCF24800788DF80800A5
:10583000F04840788DF80900EE4880788DF80A002D
:10584000EC48C0788DF80B00EA4800798DF80C0020
:10585000E84840798DF80D00E64880798DF80E0013
:10586000E448C0798DF80F00E248007A8DF8100006
:10587000E048407A8DF81100DE48807A8DF81200F9
:10588000DC48C07A8DF81300DA48007B8DF81400EC
:10589000D848407B8DF81500D648807B8DF81600DF
:1058A000D448C07B8DF81700D248007C8DF81800D2
:1058B000D048407C8DF81900CE48807C8DF81A00C5
:1058C000CC48C07C8DF81B00CA48007D8DF81C00B8
:1058D000C848417D8DF81D10817D8DF81E10C17D59
:1058E0008DF81F10017E02A80176C248417E02A8F1
:1058F0004176C048817E02A88176BE48C17E02A85A
:10590000C176BC48017F02A80177BA48407F8DF874
:105910002500B848807F8DF82600B648C17F02A8D0
:10592000C177B44890F820108DF8281090F8211015
:105930008DF8291090F822108DF82A1090F8231075
:105940008DF82B1090F824108DF82C1090F825105D
:105950008DF82D1090F826108DF82E1090F8270055
:105960008DF82F00A34890F828008DF83000A1484A
:1059700090F829108DF8311090F82A108DF8321017
:1059800090F82B108DF8331090F82C108DF83410FF
:1059900090F82D008DF83500964890F82E108DF86F
:1059A0003610002094490870FDF7F6F900200E909B
:1059B00084E1BDF83C00401C80B20F90204600F00E
:1059C00037FA6FF07F408D4908608D48007838B114
:1059D00000208B490870FFF76FFE0020894908708E
:1059E000012D03D12046FCF7EBFF00258648007807
:1059F000012804D100208449087004F0BBF97E48D6
:105A00000078012804D103F049FF00207A4908708A
:105A10007E4A92F8201092F82100FFF797FE7C480A
:105A200040780128C4D17B4800780028C0D178484C
:105A300080780028BCD1012501F094F910909DF8E0
:105A400040000028B4D09DF8400020287ED2DFE836
:105A500000F07DF2F1F07DEFEEEDECEBEAE97DE8B0
:105A6000E77DBBB6AA93107D7DE67DC4FA7D7D7D82
:105A70007DD0092C7DD2DFE804F0050A0F203142E9
:105A800047586B00002406206349087072E000202C
:105A90005E4981F880006DE04FF4A970ADF8000018
:105AA0001A20ADF802004C20ADF804006846FEF75D
:105AB000B1FF5649C1F884005CE04FF4A970ADF81D
:105AC00000003420ADF802004C20ADF80400684618
:105AD000FEF7A0FF4D49C1F884004BE04FF4A970D8
