:020000040804EE
:10000000007F0120C1010408B9BB0408B18A0408BB
:1000100081BA0408B5130408855B050800000000D8
:100020000000000000000000000000004DE6040891
:1000300007190408000000004DC80408A1040508C1
:10004000DB010408DB010408DB010408CDD204084D
:10005000DB010408DB010408DB010408DB01040800
:10006000DB010408997A0408DB010408DB010408B9
:10007000DB010408DB010408DB010408DB010408E0
:10008000DB010408DB010408DB010408DB010408D0
:10009000DB010408DB010408DB010408DB010408C0
:1000A000DB010408DB010408DB010408DB010408B0
:1000B000D3060508DB010408DB010408DB010408A2
:1000C000DB010408DB010408DB010408DB01040890
:1000D000DB010408751D0508DB010408ED1D05089A
:1000E000817A0408DB010408DB010408DB01040851
:1000F000DB010408DB010408DB010408DB01040860
:10010000DB010408DB010408DB010408DB0104084F
:10011000DB010408DB010408E9060508DB0104082B
:10012000DB010408DB010408DB010408DB0104082F
:10013000DB010408DB010408DB010408DB0104081F
:10014000DB010408DB010408DB01040885BC0408AA
:10015000DB010408DB010408DB010408DB010408FF
:10016000DB010408DB010408DB010408DB010408EF
:10017000DB010408DB010408DB010408DB010408DF
:10018000DB010408DB010408DB010408DB010408CF
:10019000DB010408DB010408DB010408DB010408BF
:1001A000DB010408DB010408DB010408DFF80CD0E4
:1001B00000F0F6FA00480047B1950508007F0120DD
:1001C0000648804706480047FEE7FEE7FEE7FEE7F1
:1001D000FEE7FEE7FEE7FEE7FEE7FEE7450505086A
:1001E000AD01040840EA01039B0703D009E008C9F8
:1001F000121F08C0042AFAD203E011F8013B00F8EC
:10020000013B521EF9D27047D2B201E000F8012B37
:10021000491EFBD270470022F6E710B513460A4686
:1002200004461946FFF7F0FF204610BD10B5002226
:1002300000E0521C835C8C5CA34201D1002BF8D1FE
:10024000D8B2E1B2401A10BD2DE9FE4F804681EAD6
:100250000300C00F0C46009021F0004123F0004540
:10026000B8EB0200A94105D24046214690461C4603
:100270000B46024623F00040104347D0270DC7F33A
:100280000A00C3F30A510290401A019040286BDA29
:10029000C3F3130040F4801B0098924620B1002362
:1002A000D2EB030A63EB0B0B01985946C0F14002F5
:1002B000504600F0B7F906460D4650465946019A99
:1002C00000F0CFF910EB08006141002487EA1152D9
:1002D00084EAE7731A4340D0009A62B3019A012A74
:1002E0004FEA075215DC001B61EB02014FF00042A0
:1002F00002EA0752CDE90042001C41F58011324666
:100300002B4600F0CFF903B0BDE8F08F4046214600
:10031000F9E7001B61EB0201001C41F58013001896
:100320005B412018A2F5001747EB030140EAD570A6
:10033000B6196D4111E06D084FEA360645EAC07501
:100340004FEA0752001B61EB0201001C41F58011CE
:1003500049084FEA30000019514132462B4603B09C
:10036000BDE8F04F00F08FB9009801224000002353
:10037000D0EB020263EBE073009821464FEAE07491
:10038000B8EB000061EB0401E9E783F000435BE7B1
:1003900081F0004158E72DE9FE4F81EA030404F0A3
:1003A000004421F0004100944FF0000B23F0004383
:1003B00050EA01045ED052EA03045BD0C3F30A544E
:1003C000C1F30A552C44A4F2F3340194A0FB025467
:1003D000C1F3130141F48011C3F3130343F48013F9
:1003E00001FB024400FB034E840A970A44EA81544D
:1003F00047EA8357A4FB076802958D0A05FB07852A
:100400004FEA932C04FB0C542705029D4FEA065833
:1004100047EA1637B5EB08056EEB070C870E920E10
:1004200047EA811742EA8312A7FB0201B6EB0B01F0
:1004300064EB00042B0D43EA0C335E1844EB1C50B4
:10044000DA465146E7FB0201C5F313044FEA0B33CA
:1004500043EA14534FEA0432019C43EA0603A4F131
:100460000C040294009CCDE900B400F01BF903B029
:10047000BDE8F08F00200146F9E72DE9F04D81EA53
:10048000030404F0004B21F0004514464FF0000A2D
:1004900023F0004150EA050220D054EA01021DD0A9
:1004A000C5F30A570246C5F31303C1F31300C1F3A2
:1004B0000A5640F4801543F48013A7EB0608101B7E
:1004C000D64608F2FD3873EB050002D308F10108A7
:1004D00001E092185B41B8F1000F03DA00200146F9
:1004E000BDE8F08D00204FF48011064684460EE0F2
:1004F000171B73EB050705D3121B63EB05030643BC
:100500004CEA010C49084FEA300092185B4150EA6E
:100510000107EDD152EA030012D082EA040083EA17
:100520000501084305D0101BAB4106D20122002370
:1005300006E000224FF0004302E06FF0010253108A
:100540001AEB06004CEB085110EB0A0041EB0B01D3
:10055000BDE8F04D00F097B80EB5C10F80EAE0702D
:100560000844CA07002140F233438DE80E000A46D2
:100570000B4600F097F803B000BD0EB540F23341D2
:1005800002910021CDE900110A460B4600F08AF8DD
:1005900003B000BDC1F30A5210B5C1F3130140F21C
:1005A000FF3341F480119A4201DA002010BD40F27D
:1005B00033439A42A2F2334203DC524200F041F844
:1005C00010BD904010BD000030B5041E71F1000454
:1005D00004DB4FF00044404264EB0101141E73F150
:1005E000000405DB1C464FF00043524263EB04035A
:1005F0008B4208BF824230BD30B50B460146002019
:100600002022012409E021FA02F59D4205D303FAD4
:1006100002F5491B04FA02F52844151EA2F1010255
:10062000F1DC30BD202A04DB203A00FA02F1002080
:1006300070479140C2F1200320FA03F31943904020
:100640007047202A04DB203A21FA02F0002170478B
:1006500021FA02F3D040C2F120029140084319462A
:100660007047202A06DBCB17203A41FA02F043EA12
:10067000E07306E041FA02F3D040C2F1200291405B
:1006800008431946704710B5141E73F1000408DAC8
:10069000401C41F1000192185B411A4301D120F046
:1006A000010010BD2DE9F04D92469B4611B1B1FA03
:1006B00081F202E0B0FA80F220329046FFF7B2FFFA
:1006C00004460F4640EA0A0041EA0B0153465A46E7
:1006D000084313D0114653EA010019D0C8F1400273
:1006E0005046FFF7AEFF05460E4650465946424675
:1006F000FFF798FF084305D0012004E02046394663
:10070000BDE8F08D0020054346EAE0762C433743F0
:100710000A986305E40AA0EB08000022FD0A44EAF7
:1007200047540A3002D500200146E9E701051019B7
:100730006941DDE9084500196941BDE8F04DA2E7CE
:1007400070B521F0004303430CD0C1F30A550024D7
:10075000D5EB040564EB0403D617AD1AB34102DBF5
:100760000020014670BD201841EB025170BD000011
:1007700030B5041E71F1000404DB4FF00044404228
:1007800064EB0101141E73F1000405DB1C464FF0FD
:100790000043524263EB0403994208BF904230BDCC
:1007A000064C074D06E0E06840F0010394E80700BE
:1007B00098471034AC42F6D3FFF7FCFC60330F08C7
:1007C00080330F082DE9F04D00231A461B1A8A4189
:1007D00003DB00200146BDE8F08DC1F30A52C1F3EE
:1007E000130141F480154FF0000BD10702D100181E
:1007F0006D41521E0027044640F2FF11384601EBBE
:10080000620A3E468046024600204FF48011FFF700
:1008100018FFC2197141BB1846EB0100B4EB030C81
:1008200075EB000C04D3E41A65EB000517460E4681
:10083000241908F101006D4180463428E3DDF919DF
:1008400046EB0600091BA84103D24FF0FF321346C6
:1008500001E0002213461BEB070046EB0A51BDE8FE
:10086000F04DFFF710BF70B58C1810F8015B15F054
:10087000070301D110F8013B2A1106D110F8012B12
:1008800003E010F8016B01F8016B5B1EF9D12B0737
:1008900005D40023521E0DD401F8013BFAE710F8ED
:1008A000013BCB1A921C03E013F8015B01F8015BDA
:1008B000521EF9D5A142D8D3002070BD70B50546AF
:1008C0000C4608480560204600F00EF800BF0548B9
:1008D00000680028FBD100214FF0804010F043FA5F
:1008E00070BD0000800100203EB5044600214FF09D
:1008F000804010F038FA00220121880710F07AFBBE
:10090000022C02D10B20019004E0012C02D142F60E
:10091000DF6001900520ADF800000020ADF8080070
:10092000ADF8020069464FF0804010F0B9FB01219C
:10093000880710F015FA0121880710F002FA012249
:100940001146900710F056FB0121880710F00BFAB2
:100950003EBD000010B54FF480711448FFF75BFCFA
:1009600001201249087006204870002088700D2070
:10097000C87000200871487188710D4890F85800BF
:10098000C8710821094808F095F800120749087253
:100990000821064808F08EF8044948720A210348E5
:1009A00014F0BEFE01200349087010BD262C012062
:1009B000F00400201801002070B504460D46594887
:1009C000594948602CBB59480068642806D2002366
:1009D00007220421184608F0ABF806E0534900232B
:1009E00007220868042108F0A3F8504900230722D1
:1009F0000868042108F09CF800234D4A8221502009
:100A000015F004FE00234BA28221A02015F0FEFD6C
:100A10001FE0012C1DD145480068642806D2002340
:100A200006220321184608F083F806E03F49002318
:100A300006220868032108F07BF800233C4A822143
:100A4000502015F0E3FD00233AA28221A02015F0EA
:100A5000DDFD9DB93549002307224868042108F0CF
:100A600067F80023324AA021502015F0CFFD002363
:100A700031A2A021084615F0C9FD14E0012D12D1C4
:100A80002A49002306224868032108F051F8002370
:100A9000274AA021502015F0B9FD002326A2A0214D
:100AA000084615F0B3FD214900230622C86803213A
:100AB00008F03EF800231E4ABE21502015F0A6FD86
:100AC00000231EA2BE21A02015F0A0FD174900237F
:100AD00007228868042108F02BF80023144A822199
:100AE0004FF48C7015F092FD002315A282214FF473
:100AF000B47015F08BFD0D4900230622886F19464E
:100B000008F016F800230A4AA0214FF48C7015F063
:100B10007DFD00230BA2A0214FF4B47015F076FDEB
:100B200070BD000065343400D0000020E4060020D1
:100B3000240A002056000000410000005700000079
:100B4000A6B800006D41480070B586B00020049042
:100B5000002400250126FC490870FC4908704FF06C
:100B6000501008F0BBFB002002F018F800200390A2
:100B70000DF0F0FFCFE3BDF81000401C80B20490F0
:100B8000204607F019F8C5B2F1480078012801D1D4
:100B900001262C466FF07F40EE490860EE48007851
:100BA00038B10020EC49087006F09EFB0020EB49AC
:100BB0000870EB480078012804D10020E84908704B
:100BC0000CF0D6FE012E03D1204601F05BFD00267D
:100BD000DD480078012804D10CF01EFC0020DA4921
:100BE0000870E04890F86D0138B9DF4A92F820109B
:100BF00092F82100FFF7E0FE22E0DA4890F86D015C
:100C000001281DD10AF03EFF02F0DEFE6FF07F40AA
:100C1000D0490860D54848600023D5A2F1214FF49F
:100C2000CC7015F0F3FC0220CE4981F86D01CE485E
:100C3000B0F8DC01401CCC49A1F8DC010FF012FC3B
:100C4000CD48007870B1CD480078052805D10DF069
:100C500081FF0020C949087004E0C8480078401CA2
:100C6000C6490870C6484078012875D1C548007843
:100C70000028FAD1C24880780028F6D1012608F071
:100C8000C3F905909DF81400BF4908709DF8140041
:100C9000002861D09DF814000E2874D00ADC0E28BC
:100CA00072D2DFE800F071F2F3F4EBEAF7F6F5F850
:100CB000F9FAE3FC182868D008DCA0F10F00062838
:100CC000EED2DFE800F0FD66584D31101C286FD0E1
:100CD00004DC19286DD01A2856D1A9E01F2869D044
:100CE0004228F9D1DAE114B1012C1AD106E0A74863
:100CF000007810B90620A649087013E0A3480078D0
:100D000070B90020984981F858000DF023FF4FF08A
:100D1000501008F0E3FA012001F040FF0FF0A2FBB1
:100D200000E000BF00BFF5E214B1012C15D100E0D6
:100D300014E09648007870B902208B4981F8580079
:100D40000DF008FF4FF0501008F0C8FA012001F034
:100D500025FF0FF087FB01E0DDE200BF00BFD9E215
:100D600034B98A48007810B916208949087000E023
:100D700000BF00BFCEE24CB98448007810B91720FC
:100D80008349087003E089E0C3E2C1E200BF00BF0D
:100D9000C0E2744890F86D0198B914B1012C0ED1DD
:100DA00009E07A48007810B90D207949087007E009
:100DB000A5E116E094E104206B49487000E000BF13
:100DC0000EE0684890F86C0150B90020654981F840
:100DD0006D014FF0501008F081FA002001F0DEFEA6
:100DE00098E2614890F8580058B9052C02DD201FA0
:100DF000C4B21CE0032C1ADA002C18DD601EC4B249
:100E000015E0594890F85800022810D1062C01D15D
:100E100002240CE0052C01D1022408E0022C02D1AE
:100E2000601EC4B203E0012C01D1601EC4B271E2A5
:100E30004D4890F8580058B9052C04DA012C02DD11
:100E4000201DC4B220E0022C1EDA601CC4B21BE0DC
:100E5000454890F85800022816D1022C01D10624EA
:100E600012E0012C0ED102240EE018E040E114E063
:100E700012E010E00CE00CE00CE032E170E106E082
:100E800004E002E004B9012444E200BF00BF00BF57
:100E900000BF00BF00BF00BF00BF00BF00BFA01E5B
:100EA000072877D2DFE800F0043677F791C1DC003D
:100EB0003648007858BB2C4890F8580080B900E0BC
:100EC000EDE07620ADF804003020ADF806004C20AF
:100ED000ADF8080001A804F004FF2349C86512E03A
:100EE000214890F8580002280DD17620ADF8040072
:100EF0003020ADF806005020ADF8080001A804F03D
:100F000038FF194988670AF0F9FE0DF023FE0FF04B
:100F1000A9FAC1E01D480078A8B9134890F8580014
:100F200068B97620ADF804004620ADF806004C20E4
:100F3000ADF8080001A804F0D4FE0B4908660AF0D9
:100F4000DDFE0FF08FFAA7E05500002057000020CB
:100F5000CA000020D00000205D00002064000020B6
:100F60003D000020E4060020F0040020380031009D
:100F7000C8B7C8CF00000000180100208000002082
:100F8000C0000020A8000020830000207C0000207A
:100F9000580000207FE0E3480078A8B9E24890F8C4
:100FA000580068B97620ADF804005C20ADF8060062
:100FB0004C20ADF8080001A804F093FEDA49486619
:100FC0000AF09CFE0FF04EFA66E0D648007858BB57
:100FD000D54890F8580078B94FF4B870ADF80400CF
:100FE0003020ADF806004C20ADF8080001A804F050
:100FF0008CFFCD49C86613E0CB4890F85800022812
:101000000ED14FF4B870ADF804003020ADF80600F2
:101010004C20ADF8080001A804F077FFC249C8676A
:101020000AF06CFE0FF01EFA36E0BE480078B0B948
:10103000BD4890F8580070B94FF4B870ADF804008E
:101040004620ADF806004C20ADF8080001A804F0D9
:101050005CFFB54908670AF051FE0FF003FA1BE088
:10106000B0480078B0B9B04890F8580070B94FF463
:10107000B870ADF804005C20ADF806004C20ADF867
:10108000080001A804F041FFA74948670AF036FEAE
:101090000FF0E8F900E000BF00BF3BE13AE1A148F2
:1010A000007890B90320A14908700FF0F1F90120F0
:1010B0009F4908709FED9F0A9F4880ED1D0A0120FF
:1010C000984908700DF046FD09E003209749087023
:1010D0000020944908700DF03DFD0FF0D1F919E1A1
:1010E00018E19048007810B912209449087011E175
:1010F0008C48007810B90620904908700AE1012C4C
:101100002DD1894890F8580090B98648007830BBB6
:101110000220854981F858000DF01CFD4FF0501059
:1011200008F0DCF8012001F039FD0FF09BF916E022
:101130007D4890F85800022811D17A48007870B99B
:101140000020794981F858000DF004FD4FF050104F
:1011500008F0C4F8012001F021FD0FF083F9D9E077
:10116000A01E07287ED2DFE800F004344ED0689A33
:10117000B5006C48007848BB6B4890F8580070B9CF
:101180007620ADF804003020ADF806004C20ADF814
:10119000080001A804F0A5FD6349C86512E0624893
:1011A00090F8580002280DD17620ADF804003020C8
:1011B000ADF806005020ADF8080001A804F0D9FDF4
:1011C000594988670AF09AFD0DF0C4FC0FF04AF9FE
:1011D0009CE054480078A8B9534890F8580068B982
:1011E0007620ADF804004620ADF806004C20ADF89E
:1011F000080001A804F075FD4B4908660AF07EFD61
:101200000FF030F982E047480078A8B9464890F8D6
:10121000580068B97620ADF804005C20ADF80600EF
:101220004C20ADF8080001A804F05BFD3E4948667B
:101230000AF064FD0FF016F968E03A48007868BBE0
:10124000394890F8580088B94FF4B870ADF80400E8
:101250003020ADF806004C20ADF8080001A804F0DD
:1012600054FE00E051E03049C86613E02E4890F883
:10127000580002280ED14FF4B870ADF804003020A9
:10128000ADF806004C20ADF8080001A804F03DFEC2
:101290002549C8670AF032FD0FF0E4F836E021482E
:1012A0000078B0B9204890F8580070B94FF4B87081
:1012B000ADF804004620ADF806004C20ADF808005B
:1012C00001A804F022FE184908670AF017FD0FF084
:1012D000C9F81BE013480078B0B9134890F85800DB
:1012E00070B94FF4B870ADF804005C20ADF806009A
:1012F0004C20ADF8080001A804F007FE0A49486731
:101300000AF0FCFC0FF0AEF800E000BF00BF01E007
:1013100000E000BF00BF0948007815283FF42BAC5F
:1013200006B070BD7C000020F00400207F0000208B
:101330003400002000000000E406002058000020D7
:1013400010B54FF48061024807F030FA10BD00007C
:101350000008024010B54FF48061024807F028FAF7
:1013600010BD00000008024010B50446A21E0E4841
:101370000E4B1B68C1180E48FEF734FFA01EC1B209
:101380000B4807F097FB0112A01E094A1154C1B285
:10139000104607F08FFBC1B2601E054A115421466A
:1013A000104614F0BDF910BDB20B00206C000020F7
:1013B000B00A002000BFFEE710B504464FF480716C
:1013C0006748FEF728FF01206549087065480078E6
:1013D00010B90846847007E062480078012803D1FC
:1013E00004F110005E498870A5205D4948705D4891
:1013F000007800284BD1012C05D0022C03D0092CF9
:1014000001D00A2C1BD1601E574951F82000000E54
:101410005349C870601E544951F82000000C5049CF
:101420000871601E504931F82000000A4C4948718B
:10143000601E4D4911F82000494988717EE0601E08
:10144000494951F820000A21B0FBF1F0000E44494F
:10145000C870601E444951F820000A21B0FBF1F029
:10146000000C3F490871601E3F4951F820000A21D5
:10147000B0FBF1F0000A3A494871601E3A4951F850
:1014800020000A21B0FBF1F03549887156E035485B
:101490000078012852D1012C05D0022C03D0032C56
:1014A00001D0042C1FD104F10F002F4951F8200066
:1014B000000E2B49C87004F10F002B4951F8200091
:1014C000000C2749087104F10F00274931F820006A
:1014D000000A2349487104F10F00234911F8200044
:1014E0001F4988712AE004F10F001F4951F82000BC
:1014F0000A21B0FBF1F0000E1949C87004F10F0089
:10150000194951F820000A21B0FBF1F0000C1449F0
:10151000087104F10F00144951F820000A21B0FBB2
:10152000F1F0000A0E49487104F10F000E4951F81C
:1015300020000A21B0FBF1F0094988710721084811
:1015400007F0B8FA00120649C8710721044807F0ED
:10155000B1FA034908720921014814F0E1F810BDFD
:10156000262C012086000020F406002010B5012161
:10157000C8050BF06BFA00214FF400000BF066FA7F
:1015800010BD000001460020034A52680A400AB11B
:10159000012000E00020704700B0024070B500213B
:1015A000002200230024344D2D68344E3540324E45
:1015B000356035462D68066835432F4E3560354613
:1015C0006D6B25F00705756335466D6B46683543D1
:1015D000294E7563456835B9C5682902058A2A040C
:1015E000057D2B0621E04568012D05D1C56829023E
:1015F000058A2A04002318E04568022D05D1C56834
:1016000069010569EA0200230FE04568032D06D150
:10161000C56869010569AA024569EB0305E0C5686B
:10162000290105692A0245692B0341EA02058668FA
:1016300035431D43104EB66B35430F4EB563856978
:10164000F56335462D6C6FF30D05356435462D6C0D
:10165000C6693543084E3564858C2C0435466D6C5F
:1016600005F04045756435466D6C066A2643354382
:10167000014E756470BD000000B00240FCE0FCFF4C
:101680000348006840F0010001490860704700000D
:1016900000B002400246094B9A4201D2084801E0DC
:1016A0000648103801F000531BB1064B0B40C360D5
:1016B00002E0044B0B40836070470000106402405E
:1016C000006002407D0F7D0F0246094B9A4201D215
:1016D000084801E00648103801F000531BB1064BE2
:1016E0000B40C36002E0044B0B4083607047000076
:1016F00010640240006002407D0F7D0F21B102683E
:1017000042F00102026003E0026822F0010202607E
:1017100070470000016821F00101016000210160B3
:1017200041608160C1600161212141614A49884273
:1017300004D13D21484A103A91608CE04649183165
:10174000884205D14FF47461434A103A916082E0B7
:1017500041493031884205D14FF474113E4A103A64
:10176000916078E03C494831884205D14FF074617E
:10177000394A103A91606EE037496031884204D1AD
:101780003649354A103AD16065E0334978318842AC
:1017900004D13349304A103AD1605CE02E4990318F
:1017A000884204D12F492C4A103AD16053E02A498B
:1017B000A831884205D14FF03D51274A103AD160F7
:1017C00049E02949884204D13D21274A083A11605D
:1017D00041E025491831884205D14FF47461224A0D
:1017E000083A116037E020493031884205D14FF482
:1017F00074111D4A083A11602DE01B494831884296
:1018000005D14FF07461184A083A116023E0164977
:101810006031884204D11149134A121F11601AE045
:1018200011497831884204D10D490F4A121F1160C5
:1018300011E00D499031884204D10A490A4A121F29
:10184000116008E00849A831884204D14FF03D51A9
:10185000054A121F11607047106002403D000020D1
:10186000400F002000003D2010640240014600208F
:101870000A6802F001020AB1012000E0002070476E
:101880000146486880B2704710B500220268134BC9
:101890001A40CC680B6823434C6923438C6923436B
:1018A000CC6923430C6A23434C6A23438C6A234349
:1018B0004C6B23438C6B23431A430260426922F032
:1018C0000702D1E90B3423431A4342610B69436099
:1018D0004B6883608B68C36010BD00003F801CF0C4
:1018E000416070470021016041608160C160016119
:1018F00041618161C161016241628162C1620163D2
:10190000416381637047704710B586B0044601217A
:1019100008460BF08BF8012110200BF0E7F80722A6
:101920000A21274806F016FF07220921244806F05D
:1019300011FF00208DF8160001208DF817000220FD
:101940008DF814000002049002208DF8150004A9FF
:101950001B4806F0B7FE02208DF8140040020490E8
:1019600004A9174806F0AEFE00940020ADF804006C
:10197000ADF80600ADF80800ADF80C000C20ADF88D
:101980000A0069460F4810F0DFFA0AF016F9012242
:1019900040F224410B4810F0B1FA0121094810F03F
:1019A00061FA01224021074810F068FA01228021E3
:1019B000044810F063FA00F007F806B010BD00000C
:1019C000000002400010014000B591B001218805DF
:1019D0000BF02CF83848FFF79DFE02A8FFF782FFB6
:1019E00000BF3548FFF742FF0028FAD14FF00060F2
:1019F0000290324803903248049040200590002025
:101A0000069007904FF480600890002009900A909B
:101A10000B904FF480300C9000200D9003200E901E
:101A200000200F90109002A92348FFF72DFF2248B5
:101A30007838FFF76FFE00BF1F487838FFF716FFB2
:101A40000028F9D14FF0006002901C4803901D4817
:101A50000490002005904FF48070069000200790BD
:101A60004FF480600890002009900A900B904FF48A
:101A700000300C9000200D9003200E9000200F905D
:101A8000109002A90C487838FFF7FEFE3A208DF836
:101A900004000D208DF8050000208DF806000120BF
:101AA0008DF8070001A80AF09DF801210248783856
:101AB000FFF724FE11B000BDB864024004100140DD
:101AC000262F0120262E01207CB504466FF07F4092
:101AD000F7490860012C01D1012000E000200090AE
:101AE000009820B14FF47F00F149486003E04FF0C7
:101AF0005010EF494860EF4900230722D1F8B800A1
:101B0000042107F015F8122368221A21582007F043
:101B100019FC0023E84A1A21582014F077FD00230D
:101B2000E64A1A21AA2014F071FD022C01D10120ED
:101B300000E000200090009820B14FF47F00DC49C5
:101B4000486003E04FF05010D9494860D94900235C
:101B50000722D1F8BC00042106F0EAFF1223682214
:101B60002E21582007F0EEFB0023D34A30215820C5
:101B700014F04CFD0023D14A3021AA2014F046FD78
:101B8000032C01D1012000E000200090009820B13A
:101B90004FF47F00C649486003E04FF05010C4493D
:101BA0004860C44900230722D1F8C000042106F090
:101BB000BFFF122368224621582007F0C3FB0023F1
:101BC000BD4A4621582014F021FD0023BB4A0832AB
:101BD0004621AA2014F01AFD042C01D1012000E0B6
:101BE00000200090009820B14FF47F00B049486079
:101BF00003E04FF05010AE494860AE490023072281
:101C0000D1F8C400042106F093FF12237A225A214E
:101C1000582007F097FB0023A74A5C21582014F0B6
:101C2000F5FC0023A54A08325C21AA2014F0EEFC42
:101C3000052C01D1012000E000200090009820B187
:101C40004FF47F009A49486003E04FF050109849E4
:101C50004860984900230822D1F8C800042106F002
:101C600067FF12237A227021582007F06BFB0023B4
:101C7000914A7221582014F0C9FC00238F4A103277
:101C80007221B42014F0C2FC062C01D1012000E026
:101C900000200090009820B14FF47F0084494860F4
:101CA00003E04FF050108249486082490023082227
:101CB000D1F8CC00042106F03BFF12237A228621C2
:101CC000582007F03FFB00237B4A8821582014F05E
:101CD0009DFC0023794A10328821B42014F096FC30
:101CE000072C01D1012000E000200090009820B1D5
:101CF0004FF47F006E49486003E04FF050106C498C
:101D000048606C4890F8D50008B16D4D00E06D4D0D
:101D100012237A2218214FF4A97007F013FB6548AB
:101D200090F8D000C0EBC000421900231A214FF4F4
:101D3000A97014F06BFC082C01D1012000E00020F8
:101D40000090009820B14FF47F005949486003E0AB
:101D50004FF0501056494860564890F8D50008B1E9
:101D6000594D00E0594D12237A222E214FF4A970CB
:101D700007F0E8FA4F4890F8D100C0EBC0004219D4
:101D8000002330214FF4A97014F040FC092C01D13C
:101D9000012000E000200090009820B14FF47F0067
:101DA0004349486003E04FF05010414948604148C2
:101DB00090F8D50008B1424D00E0424D12237A223E
:101DC00044214FF4A97007F0BDFA3A4890F8D200C8
:101DD000C0EBC0004219002346214FF4A97014F053
:101DE00015FC0A2C01D1012000E000200090009891
:101DF00020B14FF47F002E49486003E04FF05010AF
:101E00002B4948602B4890F8D50008B12C4D00E0D4
:101E10002C4D12237A225A214FF4A97007F092FA1E
:101E2000244890F8D300C0EBC000421900235C2185
:101E30004FF4A97014F0EAFB0B2C01D1012000E053
:101E400000200090009820B14FF47F0018494860AE
:101E500003E04FF0501016494860164890F8D5003E
:101E600008B1174D00E0174D12237A2270214FF46C
:101E7000A97007F067FA0F4890F8D400C0EBC000D3
:101E80004219002372214FF4A97014F0BFFB072CF4
:101E900022D2DFE804F01D0405060708090000BF90
:101EA00000BF00BF00BF00BF022001F0D7FD17E058
:101EB000D0000020F0040020240A0020A7A7050875
:101EC0001DA605089FA50508E5A50508ADA50508FB
:101ED000042001F0C3FD03E0072001F0BFFD00BFB7
:101EE00000BF01F071FD0C2C64D2DFE804F0060A9B
:101EF0000B0C0D0E0F3810393A3B032000F006FF93
:101F000059E000BF00BF00BF00BF00BF53E06FF04B
:101F10007F402A4908602A4848602A4890F8D5003E
:101F200008B1294D00E0294D0020019013E00199EE
:101F3000C1EBC1014A190199C1EB011303EB411136
:101F4000202303EB410188B20023F12114F05EFB52
:101F50000198401C019001980228E8D32BE000BFB3
:101F600000BF00BF6FF07F4014490860144848600C
:101F7000144890F8D50008B1154D00E0154D00202B
:101F8000019013E00199C1EBC1014A190199C1EB1C
:101F9000011303EB4111202303EB410188B200231D
:101FA000F12114F033FB0198401C019001980228A4
:101FB000E8D300E000BF00BF7CBD0000D0000020DF
:101FC00038003100F0040020E5A50508ADA505089E
:101FD0001DA605089FA5050800B58DB04FF050104F
:101FE00007494860074808A10268684614F084FB66
:101FF00000236A463221022014F008FB0DB000BD18
:10200000D000002094000020B6C1C8A1B3C9B9A671
:102010002CCEC4BCFEB4F3D0A1CEAA2564D7D6BDC5
:10202000DA2CC7EBB0B4B7A2CBCDCEC4BCFE000057
:102030007CB504466FF07F40FE490860012C01D159
:10204000012000E000200090009820B14FF47F00B4
:10205000F849486003E04FF05010F6494860F648F0
:1020600090F8D50008B1F54D00E0F54D1223682237
:102070001A21582007F066F9EF480078C0EBC0003D
:10208000421900231A21582014F0C0FA022C01D161
:10209000012000E000200090009820B14FF47F0064
:1020A000E449486003E04FF05010E2494860E248DC
:1020B00090F8D50008B1E34D00E0E34D122368220B
:1020C0002E21582007F03EF9DB4890F82000C0EBA5
:1020D000C000421900233021582014F097FA032C35
:1020E00001D1012000E000200090009820B14FF4C1
:1020F0007F00D049486003E04FF05010CD49486060
:10210000CD4890F8D50008B1CE4D00E0CE4D122359
:1021100068224621582007F015F9C74890F8210099
:10212000C0EBC000421900234621582014F06EFA7B
:10213000042C01D1012000E000200090009820B183
:102140004FF47F00BB49486003E04FF05010B9499D
:102150004860B949486A00230722042106F0E8FCD8
:1021600012237A225A21582007F0ECF80023B74AAC
:102170005C21582014F04AFA0023B54A5C21AA20B9
:1021800014F044FA052C01D1012000E00020009059
:10219000009820B14FF47F00A649486003E04FF05B
:1021A0005010A4494860A449886A002307220421EA
:1021B00006F0BEFC12237A227021582007F0C2F8E4
:1021C0000023A24A7221582014F020FA0023A04ACA
:1021D0007221AA2014F01AFA062C01D1012000E085
:1021E00000200090009820B14FF47F009149486092
:1021F00003E04FF050108F4948608F49886C0023EE
:102200000722042106F094FC12237A22862158200A
:1022100007F098F800238D4A8821582014F0F6F929
:1022200000238CA28821AA2014F0F0F9072C01D1F8
:10223000012000E000200090009820B14FF47F00C2
:102240007C49486003E04FF050107A4948607A4872
:10225000006BE0B17849086B00230622194606F0AE
:1022600067FC12237A2218214FF4A97007F06AF84C
:102270000023764A1A214FF4A97014F0C7F90023FD
:10228000764A1A214FF4C77014F0C0F919E01223EE
:102290007A2218214FF4A97007F054F8664890F894
:1022A000D50038B900236EA21A214FF4A97014F09A
:1022B000ADF906E000236CA21A214FF4A97014F0C6
:1022C000A5F9082C01D1012000E000200090009821
:1022D00020B14FF47F005749486003E04FF05010A1
:1022E00054494860544890F8D50008B15F4D00E06B
:1022F0005F4D5149486B00230722042106F018FC6A
:1023000012237A222E214FF4A97007F01BF8002324
:102310004E4A30214FF4A97014F078F900234C4A4A
:10232000083230214FF4D27014F070F9092C01D129
:10233000012000E000200090009820B14FF47F00C1
:102340003C49486003E04FF050103A4948603A4930
:10235000886B00230722042106F0EAFB12237A226D
:1023600044214FF4A97006F0EDFF0023374A4621BF
:102370004FF4A97014F04AF90023354A46214FF46E
:10238000D27014F043F90A2C01D1012000E00020A2
:102390000090009820B14FF47F002649486003E088
:1023A0004FF05010234948602349C86B002308228E
:1023B000042106F0BDFB12237A225A214FF4A970A2
:1023C00006F0C0FF0023214A5C214FF4A97014F0ED
:1023D0001DF900231E4A10325C214FF4D77014F00F
:1023E00015F90B2C01D1012000E00020009000988D
:1023F00020B14FF47F000F49486003E04FF05010C8
:102400000C4948600C49086C00230522042106F0A1
:102410008FFB12237A2270214FF4A97006F092FFED
:1024200000230A4A72214FF4A97014F0EFF8002338
:1024300020E00000D0000020F00400201DA60508C8
:102440009FA5050863A6050855A60508240A0020CF
:10245000A7A7050820562F6D730000001F9F0508D1
:10246000B9D8B1D5000000004F464600ADA605081A
:1024700071A6050875A272214FF4D27014F0C6F847
:102480000C2C01D1012000E000200090009820B128
:102490004FF47F006F49486003E04FF050106D49E2
:1024A00048606D49486C00230522042106F040FB7A
:1024B00012237A2286214FF4A97006F043FF0023ED
:1024C000664A88214FF4A97014F0A0F800235FA297
:1024D00088214FF4D27014F099F80D2C1AD2DFE84D
:1024E00004F019121314070809150A0B0C0D0E003D
:1024F00000BF00BF00BF00BF00BF00BF00BF022081
:1025000001F0ACFA0AE000BF00BF00BF072001F0F5
:10251000A5FA03E0042001F0A1FA00BF00BF01F01A
:1025200053FA0D2C7ED2DFE804F0070B335B85866F
:102530008788898A8B8C8D00022000F0E7FB83E07E
:102540006FF07F404349086045484860424890F832
:10255000D50008B1434D00E0434D0020019013E049
:102560000199C1EBC1014A190199C1EB011303EBB8
:102570004111202303EB410188B20023F12114F023
:1025800045F80198401C019001980228E8D35BE0CF
:102590006FF07F402F490860314848602E4890F81E
:1025A000D50008B1314D00E0314D0020019013E01D
:1025B0000199C1EBC1014A190199C1EB011303EB68
:1025C0004111202303EB410188B20023F12114F0D3
:1025D0001DF80198401C019001980228E8D333E0CF
:1025E0006FF07F401B4908601D4848601A4890F80A
:1025F000D50008B11D4D00E01D4D0020019015E0F3
:102600000199C1EBC1014A190199C1EB011303EB17
:102610004111202303EB410188B20023F12113F083
:10262000F5FF00E00FE00198401C0190019802289E
:10263000E6D309E000BF00BF00BF00BF00BF00BF7E
:1026400000BF00BF00E000BF00BF7CBD20412F6D78
:1026500073000000D0000020F0040020240A0020B5
:10266000380031001DA605089FA5050863A60508CA
:1026700055A6050810B504F035FC01F0A5F902F0E7
:10268000DFFD10BD7CB50446FE4890F858000028D8
:1026900072D1012C01D1012000E0002000900098AF
:1026A00020B14FF47F00F849486003E04FF050102C
:1026B000F549486014235C221821762006F042FE7A
:1026C0006FF07F40F0490860EE4890F8D50060B99F
:1026D000EC4890F85800C0EBC000EC4942180023C9
:1026E0001A21762013F092FF0BE0E64890F858008C
:1026F000C0EBC000E649421800231A21762013F0EF
:1027000085FF022C01D1012000E0002000900098FC
:1027100020B14FF47F00DC49486003E04FF05010D7
:10272000D949486014235C222E21762006F00AFE47
:102730006FF07F40D4490860D249C86D002307225A
:10274000042106F0F5F90023D24A3021762013F057
:102750005DFF0023D04A3021C82013F057FF032C1F
:1027600001D1012000E000200090009828B14FF432
:102770007F00C549486004E0EFE04FF05010C249C7
:10278000486014235C224421762006F0DBFD6FF0C4
:102790007F40BD490860BB49086E00230722042121
:1027A00006F0C6F90023BB4A4621762013F02EFF1F
:1027B0000023B94A4621C82013F028FF042C01D178
:1027C000012000E000200090009820B14FF47F002D
:1027D000AD49486003E04FF05010AB494860142306
:1027E0005C225A21762006F0ADFD6FF07F40A649AD
:1027F0000860A449486E00230722042106F098F9D6
:102800000023A44A5C21762013F000FF0023A24A93
:102810005C21C82013F0FAFE062C01D1012000E053
:1028200000200090009820B14FF47F009649486046
:1028300003E04FF050109449486014235C222E218D
:10284000C80006F07FFD6FF07F408F4908608D491A
:10285000C86E00230722042106F06AF900238D4A7E
:1028600030214FF4B87013F0D1FE00238A4A921D34
:1028700030214FF4E17013F0C9FE072C01D1012083
:1028800000E000200090009820B14FF47F007E49C6
:10289000486003E04FF050107B49486014235C22ED
:1028A0004421900006F04EFD6FF07F4076490860AD
:1028B0007449086F00230722042106F039F9002328
:1028C000744A46214FF4B87013F0A0FE0023724AF8
:1028D000921D46214FF4E17013F098FE082C01D1AF
:1028E000012000E000200090009820B14FF47F000C
:1028F0006549486003E04FF0501063494860142375
:102900005C225A21900006F01DFD6FF07F405E4969
:1029100008605C49486F00230722042106F008F98B
:1029200000235C4A5C21880013F070FE00235A4AA1
:10293000921D5C214FF4E17013F068FE012C03D16D
:10294000062001F08BF8C0E01CB9032001F086F8E6
:10295000BBE0082001F082F8B7E04A4890F8580040
:102960000228F0D1012C01D1012000E000200090CC
:10297000009820B14FF47F004349486003E04FF0D6
:1029800050104149486014235C221821762006F03B
:10299000D9FC6FF07F403C4908603A4890F8D50078
:1029A00060B9384890F85800C0EBC0003749421869
:1029B00000231A21762013F029FE0BE0314890F80D
:1029C0005800C0EBC0003249421800231A2176207B
:1029D00013F01CFE022C01D1012000E00020009029
:1029E000009820B14FF47F002749486003E04FF082
:1029F000501025494860142368222E21762006F0C5
:102A0000A1FC6FF07F40204908601E49886F0023B9
:102A10000722012106F08CF800231E4A302176207F
:102A200013F0F4FD00231C4A0C323021C82013F0AF
:102A3000EDFD062C01D1012000E00020009000985F
:102A400020B14FF47F001049486003E04FF0501070
:102A50000D49486014235C222E21C80006F072FC48
:102A60006FF07F40084908600649C86F00230722BD
:102A7000042106F05DF80023064A30214FF4B870B7
:102A80000CE00000F0040020D00000201AA505088A
:102A9000AAA40508240A0020079F050813F0B6FD24
:102AA0000023354A30214FF4E17013F0AFFD012CC3
:102AB00003D1062000F0D2FF07E01CB9032000F08C
:102AC000CDFF02E0082000F0C9FF2C4890F86D010E
:102AD000B0BB092C3DD2DFE804F005093435363CA3
:102AE00037383900002000F011F933E000F06CFFB6
:102AF0006FF07F402249086022484860224890F8E1
:102B0000D50008B1214D00E0214D0020019013E0D7
:102B10000199C1EBC1014A190199C1EB011303EB02
:102B20004111202303EB410188B20023F12113F06E
:102B30006DFD0198401C019001980228E8D309E03E
:102B400009E000BF00BF00BF00BF00BF00F03CFFB6
:102B500000E000BF0EE000F037FF6FF07F40084953
:102B600008600848486000230AA2F1214FF4CC70A5
:102B700013F04CFD7CBD00000D9F0508E40600200D
:102B8000D000002038003100F0040020AAA405087D
:102B900095A40508C8B7C8CF0000000070B5064668
:102BA000FFF768FD6FF07F404E4908604E4848606F
:102BB0004E4890F8D50008B14D4D00E04D4D002332
:102BC00005F12C020421184613F020FD6FF07F4020
:102BD000444908604FF050104860444890F858004D
:102BE000F0BB00243AE0042C1BD2404890F8D500FA
:102BF00000EB400303EB00103F4B03EBC00004EB82
:102C0000440303EB0413C21804EB440000EBC400BC
:102C10001A2303EB400081B20023184613F0F6FCA0
:102C20001BE0324890F8D50000EB400303EB0010A6
:102C3000314B03EBC00004EB440303EB0413C21855
:102C4000201F00EB400303EBC0001A2303EB4000FE
:102C500081B20023FA2013F0D9FC641C082C00E098
:102C600001E0C0D339E0214890F85800022834D15F
:102C7000002430E0042C16D21C4890F8D50000EB5C
:102C8000C0001E4B03EB001000EB041204EB4400E9
:102C900000EBC4001A2303EB400081B20023184666
:102CA00013F0B4FC16E0114890F8D50000EBC0001A
:102CB000124B03EB001000EB0412201F00EB40034B
:102CC00003EBC0001A2303EB400081B20023FA207B
:102CD00013F09CFC641C082CCCD316B9002000F027
:102CE00015F870BDD00000200352F300F00400205E
:102CF000A5A00508B39F0508B79B0508E79C050834
:102D000010B5032000F002F810BD000010B5044615
:102D100000F05AFE002C7CD16FF07F40FC49086027
:102D2000FC484860FC4890F8D500002840D00023BB
:102D3000FAA2E7211C2013F069FC0023F9A2FB2171
:102D40001C2013F063FC0023F8A2E7217E2013F07F
:102D50005DFC0023F6A2FB217E2013F057FC00232C
:102D6000F5A2E721DC2013F051FC0023F0A2FB21A7
:102D7000DC2013F04BFC0023F1A2E7214FF49D70FF
:102D800013F044FC0023EAA2FB214FF49D7013F0E2
:102D90003DFC0023ECA2E7214FF4CC7013F036FC8D
:102DA0000023EBA2FB214FF4CC7013F02FFC6BE25D
:102DB0000023E8A2E7211C2013F028FC0023E7A24F
:102DC000FB211C2013F022FC0023E6A2E7217E2039
:102DD00013F01CFC0023E5A2FB217E2013F016FC5F
:102DE0000023E4A2E721DC2013F010FC0023DFA283
:102DF000FB21DC2013F00AFC0023E0A2E7214FF4C2
:102E00009D7013F003FC0023D8A2FB214FF49D70AA
:102E100000E010E013F0FAFB0023DAA2E7214FF400
:102E2000CC7013F0F3FB0023D8A2FB214FF4CC703D
:102E300013F0ECFB28E2012C2CD16FF07F40B44959
:102E40000860B44848600023D2A2E721662013F04E
:102E5000DDFB0023D1A2FB21662013F0D7FB00236A
:102E6000D0A2E721B62013F0D1FB0023CFA2FB2193
:102E7000B62013F0CBFB0023CEA2E7214FF4D37092
:102E800013F0C4FB0023CDA2FB214FF4D37013F049
:102E9000BDFBF9E1022C50D19E489D4948609E48F7
:102EA00090F8D50020B300239CA2E7211C2013F04A
:102EB000ADFB00239BA2FB211C2013F0A7FB0023EA
:102EC000A1A2E7217E2013F0A1FB0023BDA2FB21DC
:102ED0007E2013F09BFB0023BCA2E721DC2013F033
:102EE00095FB0023B7A2FB21DC2013F08FFBCBE185
:102EF000002398A2E7211C2013F088FB002397A24F
:102F0000FB211C2013F082FB00239EA2E7217E20E0
:102F100013F07CFB00239DA2FB217E2013F076FBA7
:102F20000023ACA2E721DC2013F070FB002397A262
:102F3000FB21DC2013F06AFBA6E1032C6CD1754861
:102F400073494860744890F8D500002831D00023B8
:102F500072A2E7211C2013F059FB002371A2FB2170
:102F60001C2013F053FB00236CA2E7217E2013F0FA
:102F70004DFB002393A2FB217E2013F047FB00238F
:102F800092A2E721DC2013F041FB00238DA2FB215C
:102F9000DC2013F03BFB002390A2E7214FF4FB70F1
:102FA00013F034FB00238FA2FB21480013F02EFB0B
:102FB0006AE1002367A2E7211C2013F027FB00230E
:102FC00066A2FB211C2013F021FB002361A2E72154
:102FD0007E2013F01BFB00236CA2FB217E2013F04C
:102FE00015FB00237BA2E721DC2013F00FFB00235D
:102FF00066A2FB21DC2013F009FB00237BA2E72162
:103000004FF4CC7013F002FB00237AA2FB214FF4A3
:10301000CC7013F0FBFA37E1042C50D13D483C4909
:1030200048603D4890F8D50020B300233BA2E7213B
:103030001C2013F0EBFA00233AA2FB211C2013F012
:10304000E5FA002335A2E7217E2013F0DFFA002302
:103050005CA2FB217E2013F0D9FA00235BA2E721BA
:10306000DC2013F0D3FA002356A2FB21DC2013F05E
:10307000CDFA09E1002361A2E7211C2013F0C6FA72
:1030800000235CA2FB211C2013F0C0FA00235DA2E8
:10309000E7217E2013F0BAFA00233EA2FB217E2016
:1030A00013F0B4FA002359A2E721DC2013F0AEFAA2
:1030B000002338A2FB21DC2013F0A8FAE4E0052C61
:1030C00024D1144812494860134890F8D50070B1D3
:1030D000002350A2F1214FF49D7013F097FA0023C2
:1030E0004DA2F1214FF4CC7013F090FACCE0002304
:1030F0004BA2F1214FF4987013F088FA00234BA2F1
:10310000F1214FF4CC7013F081FABDE092E00000A1
:10311000D000002038003100F00400204D4541531C
:103120000000000044495350000000004241540098
:10313000544553540000000044594E410000000023
:103140004C495354000000004C494D4954000000C4
:1031500053455400B2E2C1BF00000000CFD4CABE44
:1031600000000000B5E7B3D800000000B2E2CAD406
:1031700000000000B6AFCCAC00000000C1D0B1ED43
:1031800000000000BCABCFDE00000000C9E8D6C3E1
:1031900000000000CEC4BCFE00000000B9DCC0EDA1
:1031A00000000000B1A3B4E600000000CAFDBEDDCF
:1031B00000000000B8FCB6E00000000020322F3212
:1031C000000000005345545550000000205359534F
:1031D00000000000CFB5CDB3000000004649524DBD
:1031E000000000005550444154450000B9CCBCFEDD
:1031F00000000000C9FDBCB600000000CCF8D7AA52
:1032000000000000B6C1C8A100000000B7A2CBCDED
:1032100000000000524553004241434B00000000B3
:10322000B2E2CAD4BDE1B9FB00000000B7B5BBD81B
:1032300000000000062C27D16FF07F401349086082
:1032400013484860134890F8D50001280CD100239A
:1032500011A2F2211C2013F0D9F9002310A2F221AF
:103260007E2013F0D3F90FE00A4890F8D50058B942
:1032700000230DA2F2211C2013F0C8F900230CA298
:10328000F2217E2013F0C2F910BD0000D000002012
:1032900038003100F004002043414E43454C2000EB
:1032A000434F4E4649524D002020C8A1CFFB20007D
:1032B0002020C8B7C8CF200011B581B0624800787F
:1032C00000285DD1009057E09DF804100098401C44
:1032D000814204D14FF47F005C49486003E04FF025
:1032E00050105A49486000980A281FD2009800EBF5
:1032F000800080001A3081B214235A22A02006F0E8
:1033000021F85349009A51F8220000230722042192
:1033100005F00EFC009800EB800080001A3081B2AE
:1033200001234C4AA02013F071F922E000980A38DA
:1033300000EB800080001A3081B214235A224FF42F
:10334000AF7005F0FFFF4249009A51F822000023B8
:103350000722042105F0ECFB00980A3800EB8000FE
:1033600080001A3081B201233A4A4FF4AF7013F053
:103370004DF90098401C009000981028A4D33BE021
:1033800031480078012837D10020009031E09DF8C5
:1033900004100098401C814204D14FF47F002B4957
:1033A000486003E04FF0501028494860009800EB57
:1033B000800080001A3081B214235A22A02005F028
:1033C000C1FF2349009A103251F82200002307223E
:1033D000042105F0ADFB009800EB800080001A305E
:1033E00081B201231B4AA02013F010F90098401C61
:1033F000009000980928CAD34FF050101349486034
:1034000000F0E2FA6FF07F4010490860124848600F
:10341000124C0220009013E00099C1EBC1010A197F
:103420000099C1EB011303EB4111202303EB410190
:1034300088B20023F12113F0E9F80098401C0090B5
:1034400000980528E8D31CBD86000020D00000208D
:10345000F4060020240A002038003100BFA405082B
:103460007CB50446012C00D100E0002000900098BB
:1034700020B14FF47F00F849486003E04FF050104E
:10348000F549486014235C221821762005F05AFF84
:103490006FF07F40F0490860F04890F8D50060B9BF
:1034A000EE4890F88000C0EBC000ED4942180023C0
:1034B0001A21762013F0AAF80BE0E84890F8800073
:1034C000C0EBC000E749421800231A21762013F010
:1034D0009DF8022C01D1012000E00020009000980E
:1034E00020B14FF47F00DC49486003E04FF05010FA
:1034F000D949486014235C222E21762005F022FF52
:103500006FF07F40D4490860D449D1F8840000238B
:103510000722042105F00CFB0023D34A302176203A
:1035200013F074F80023D14A3021C82013F06EF84C
:10353000032C01D1012000E000200090009820B170
:103540004FF47F00C449486003E04FF05010C24977
:10355000486014235C224421762005F0F3FE6FF0CE
:103560007F40BD490860BD49D1F88800002307228B
:10357000042105F0DDFA0023BB4A4621762013F032
:1035800045F80023B94A4621C82013F03FF8042C1F
:1035900001D1012000E000200090009820B14FF4FC
:1035A0007F00AD49486003E04FF05010AA494860E1
:1035B000142364225A21762005F0C4FE6FF07F4068
:1035C000A5490860A549D1F89400002305220421EB
:1035D00005F0AEFA0023A44A5C21762013F016F819
:1035E0000023A24A1E325C21B22013F00FF8052CF2
:1035F00001D1012000E000200090009820B14FF49C
:103600007F009549486003E04FF0501092494860B0
:1036100014235C221821900005F094FE6FF07F4087
:103620008D4908608D4890F8D50068B98B4890F8AE
:103630009000C0EBC0008E49421800231A214FF4BD
:10364000B87012F0E3FF0CE0844890F89000C0EBF3
:10365000C0008849421800231A214FF4B87012F0B4
:10366000D5FF062C01D1012000E000200090009839
:1036700020B14FF47F007849486003E04FF05010CC
:1036800075494860142370222E21C80005F05AFEA7
:103690006FF07F40704908607049D1F88C000023BA
:1036A0000822012105F044FA00236F4A30214FF42B
:1036B000B87012F0ABFF00236C4A2A3230214FF46D
:1036C000E57012F0A3FF072C01D1012000E00020DB
:1036D0000090009820B14FF47F005F49486003E0FC
:1036E0004FF050105C4948601423702244214FF47D
:1036F000B87005F027FE6FF07F40574908605749C2
:10370000D1F89C0000230822012105F011FA0023C2
:10371000554A46214FF4B87012F078FF0023534AFF
:103720002A3246214FF4E57012F070FF082C01D1C7
:10373000012000E000200090009820B14FF47F00AD
:103740004549486003E04FF0501043494860142356
:1037500064225A214FF4B87005F0F4FD6FF07F40F9
:103760003D4908603D49D1F8980000230522042115
:1037700005F0DEF900233C4A5C21880012F046FF88
:1037800000233A4A1E325C214FF4D67012F03EFFFD
:10379000394890F86D01002877D124B1012C06D06A
:1037A000052C6ED12DE00020FFF7B0FA6CE000F0A0
:1037B0000BF96FF07F40284908603048486027487F
:1037C00090F8D50008B1274D00E0254D002001906C
:1037D00013E00199C1EBC1014A190199C1EB011331
:1037E00003EB4111202303EB410188B20023F121B7
:1037F00012F00CFF0198401C019001980228E8D3B8
:1038000042E000F0E1F86FF07F40134908601B4888
:103810004860124890F8D50008B1164D00E0144DEC
:103820000020019013E00199C1EBC1014A190199EF
:10383000C1EB011303EB4111202303EB410188B2DB
:103840000023F12112F0E2FE0198401C0190019842
:103850000328E8D318E018E0D0000020F00400208E
:103860009FA505081DA60508240A0020079F050836
:10387000F3A5050808A60508E40600203800310075
:10388000FFE700F0A1F800BF0EE000F09DF86FF038
:103890007F400649086006484860002305A2F121E0
:1038A0004FF4CC7012F0B2FE7CBD0000D0000020BE
:1038B00038003100C8B7C8CF0000000070B5FEF76F
:1038C000D9FE6FF07F4024490860244848602448AE
:1038D00090F8D50008B1234E00E0234E002306F1F6
:1038E00042020421184612F091FE6FF07F401A49FF
:1038F00008604FF050104860194890F8D50008B99A
:103900001A4D00E01A4D002420E0042C0ED205EBE5
:10391000041204EB440000EBC4001A2303EB400044
:1039200081B20023184612F071FE0EE005EB04127E
:10393000201F00EB400303EBC0001A2303EB400001
:1039400081B20023FA2012F061FE641C082CDCD343
:103950000020FFF7DBF970BDD00000200352F30018
:10396000F0040020A5A00508B39F0508079E0508E0
:10397000879E05082DE9F84105468846144600262D
:103980001CE0207800B91AE02078203800EB800095
:10399000C00000EB8000C700F81707EB5070094922
:1039A00001EBE000A919009088B228231A4641468D
:1039B00006F0E0F9641C06F11C0086B2E1E700BFE6
:1039C000BDE8F8814A1C0C0810B500243CE02048F2
:1039D00020494860A1000A31C4EB041202EB420204
:1039E00001EB420188B22B235A22E42105F0AAFC04
:1039F0001948184948605E2204FB02F10B3188B275
:103A000001235A22E32105F09DFCC4EB041101EBD4
:103A10004411642202EB410188B22C230122E321EC
:103A200005F090FC00200B494860C4EB041101EB49
:103A30004411642202EB4101491C88B22C23032269
:103A4000E32105F07FFC641C052CC0D310BD0000F1
:103A500038003100D00000206843690010B50446EA
:103A60007F4890F8D50000287ED1012C0DD17D48EB
:103A70007D4948604FF47F00086000237BA2CD2180
:103A80004FF4917012F0C2FDE9E0022C0ED14FF01C
:103A90005010754948604FF47F000860002379A2F8
:103AA000CD214FF49B7012F0B1FDD8E0032C0AD168
:103AB0006C486D49486014239622CD214FF49B70C9
:103AC00005F040FCCBE0042C0BD14FF050106649C0
:103AD000486014239622CD214FF49B7005F032FCF0
:103AE000BDE0052C0ED14FF050105F4948604FF4F7
:103AF0007F000860002368A2CD214FF49B7012F074
:103B000085FDACE0062C0DD15648574948604FF46E
:103B10007F000860002365A2CD214FF49B7012F056
:103B200075FD9CE0072C0ED14FF050104E494860B7
:103B30004FF47F00086000235CA2CD214FF49B70FE
:103B400012F064FD8BE0082C9ED14648464948603F
:103B50004FF47F00086000234AA2CD214FF49B70F0
:103B600012F054FD7BE0FFE7012C0CD13D483E49AB
:103B700048604FF47F000860002351A2CD21AA20A5
:103B800012F044FD6BE0022C0ED14FF0501036497C
:103B900048604FF47F000860002351A2CD214FF40C
:103BA0008C7012F033FD5AE0032C0AD12D482E49B7
:103BB000486014234FF48072CD21DA2005F0C2FB57
:103BC0004DE0042C0AD14FF05010274948601423CF
:103BD000A201CD21DA2005F0B5FB40E0052C0ED185
:103BE0004FF05010204948604FF47F0008600023D8
:103BF00041A2CD214FF48C7012F008FD2FE0062C6D
:103C00000DD11848184948604FF47F000860002320
:103C100039A2CD214FF48C7012F0F8FC1FE0072C74
:103C20000ED14FF05010104948604FF47F000860EB
:103C3000002331A2CD214FF48C7012F0E7FC0EE08E
:103C4000082C0CD10748084948604FF47F000860F1
:103C5000002323A2CD214FF48C7012F0D7FC10BDAD
:103C6000F004002065343400D0000020C7EBD3C33B
:103C7000CAFDD7D6BCFCC5CCBBF2D0FDC5A5CAE4F5
:103C8000C8EB0000C7EBD3C3CAFDD7D6BCFCC5CC7C
:103C9000CAE4C8EB00000000B0B4CFC2D0FDC5A597
:103CA000C7D0BBBBB2BDD6E800000000B0B4CFC2E5
:103CB000D0FDC5A5BFECCBD9D1A1D4F10000000047
:103CC000496E7075742077697468206B6579626FCE
:103CD000617264206F7220656E636F6465722E007E
:103CE000496E7075742077697468206B6579626FAE
:103CF0006172642E00000000507265737320746856
:103D00006520656E636F6465722E202000000000E0
:103D100070B502F0C9FC6FF07F402349086023486A
:103D20004860234890F8D50008B1224E00E0224EAA
:103D3000002306F116020421184612F067FC6FF00A
:103D40007F40194908604FF0501048601B4D002417
:103D500024E0022C10D204EB840005EB400204EBBB
:103D6000440000EBC4001A2303EB400081B200239F
:103D7000184612F04BFC10E004EB840005EB400207
:103D8000A01E00EB400303EBC0001A2303EB40002E
:103D900081B20023FA2012F039FC641C032CD8D322
:103DA0000020FEF7B3FF70BDD00000200352F300E7
:103DB000F0040020A5A00508B39F0508999B0508FD
:103DC00038B50446012C00D100E000200090009896
:103DD00020B14FF47F004249486003E04FF050109B
:103DE0003F49486014237E221821582005F0AAFA82
:103DF0006FF07F403A4908603A49C86C00230722B7
:103E0000042104F095FE0023374A1A21582012F0AD
:103E1000FDFB0023354A1A21C82012F0F7FB022CC3
:103E200001D1012000E000200090009820B14FF463
:103E30007F002B49486003E04FF05010284948604C
:103E40001423682218214FF4A97005F07BFA6FF053
:103E50007F40234908602349486D0023072204213D
:103E600004F066FE0023204A1A214FF4A97012F0D4
:103E7000CDFB032C01D1012000E000200090009830
:103E800020B14FF47F001649486003E04FF0501016
:103E90001349486014237E222E21582005F052FA3F
:103EA0006FF07F400E4908600E49086D002307221D
:103EB000042104F03DFE00230B4A3021582012F06B
:103EC000A5FB0023094A921F3021C82012F09EFB57
:103ED0001CB90020FEF71AFF00E000BF00BF38BD8C
:103EE000D0000020F0040020240A00200D9F0508C7
:103EF00070B502F0E1FB6FF07F402C4908602C4860
:103F000048602C4890F8D50008B12B4E00E02B4EAD
:103F1000002306F184020421184612F077FB6FF0AB
:103F20007F40224908604FF050104860214890F8C7
:103F3000D50008B1224D00E0224D00242FE0062CD0
:103F400011D24FF050101949486004EB840005EB82
:103F50004002162304FB03F01A3081B200231846F6
:103F600012F054FB1AE0A01F022806D9082804D238
:103F70004FF050100D49486003E04FF050100B49CE
:103F8000486004EB840005EB4002A01F1623584351
:103F90001A3081B20023FA2012F038FB641C0B2C7B
:103FA000CDD30320FEF7B2FE70BD0000D00000208C
:103FB0000352F300F0040020A5A00508B39F0508F4
:103FC000F5A2050887A2050810B502F08BFFFFF7E0
:103FD000FBFC10BD30B595B0054603F059F9012240
:103FE0002946684601F03CF96C469DF800008DF8C2
:103FF000380001980F90029810900398119004983F
:10400000129005981390069814900F984FF47A71B7
:10401000B0FBF1F00F900B9818B9002009900890B0
:104020000A900F9815B030BD70B5FFF7CDFF6FF057
:104030007F403D4908603D4848603D4890F8D500C4
:1040400008B13C4D00E03C4D002305F16E02042117
:10405000184612F0DBFA6FF07F40334908604FF0EA
:1040600050104860002459E0032C2AD2304890F8C0
:10407000D500012810D1C4EB0410304BC21804EB5A
:10408000440000EBC4001A2303EB400081B200237C
:10409000184612F0BBFA40E0254890F8D50030BB36
:1040A000C4EB0410264BC21804EB440000EBC40020
:1040B0001A2303EB400081B20023184612F0A6FA3F
:1040C0002BE01B4890F8D500012811D1C4EB041057
:1040D0001A4BC218E01E00EB400303EBC0001A238A
:1040E00003EB400081B20023FA2012F08FFA14E0B3
:1040F0000F4890F8D50080B9C4EB0410104BC218DB
:10410000E01E00EB400303EBC0001A2303EB40006A
:1041100081B20023FA2012F079FA641C062CA3D392
:104120000520FEF7F3FD70BDD00000200352F30020
:10413000F0040020A5A00508B39F050803A4050806
:10414000A9A3050810B5B048B04908604FF0501059
:104150004860AF4890F8D500F0B90023ADA25E21C9
:104160004FF4967012F052FA0023ABA25E214FF486
:10417000AF7012F04BFAA94991F87D10481C00234A
:104180000222194604F0D4FC0023A54A5E214FF414
:10419000A17012F03BFA1BE09D4890F8D500012871
:1041A00016D100239FA25E214FF4967012F02EFAD2
:1041B0009A4991F87D10481C00230222194604F008
:1041C000B7FC0023964A5E214FF4A97012F01EFA44
:1041D0008F4890F8D50080B9904890F87D108C48B1
:1041E000E430405CC0EBC0009049421800235E21DF
:1041F0004FF4C87012F00AFA14E0854890F8D50020
:1042000001280FD1854890F87D108148E430405C4A
:10421000C0EBC0008649421800235E214FF4C870ED
:1042200012F0F4F97A4890F8D500E0B9002381A2A1
:1042300072214FF4967012F0E9F900237FA28821D1
:104240004FF4967012F0E2F900237EA29E214FF403
:10425000967012F0DBF900237CA2B4214FF4967023
:1042600012F0D4F920E06A4890F8D50001281BD15B
:10427000002378A272214FF4967012F0C7F9002340
:1042800075A288214FF4967012F0C0F9002373A232
:104290009E214FF4967012F0B9F9002370A2B42158
:1042A0004FF4967012F0B2F9594890F8210038BBDB
:1042B0005A480068642806D20023072204211846C1
:1042C00004F036FC06E05549002307220868042163
:1042D00004F02EFC5149002307220868042104F051
:1042E00027FC00234E4A72214FF4B47012F08EF96D
:1042F000002358A272214FF4DC7012F087F924E0F9
:10430000434890F8210001281FD1444800686428E0
:1043100006D2002306220321184604F009FC06E019
:104320003E49002306220868032104F001FC002313
:104330003B4A72214FF4B47012F068F9002345A291
:1043400072214FF4DC7012F061F9314890F82000CE
:10435000A8B93249002307224868042104F0E8FB89
:1043600000232F4A88214FF4B47012F04FF9002334
:104370003DA288214FF4DC7012F048F919E024487E
:1043800090F82000012814D124490023062248680F
:10439000032104F0CDFB0023214A88214FF4B4709F
:1043A00012F034F9002330A288214FF4DC7012F0AF
:1043B0002DF91A4900230722C868032104F0B8FB2D
:1043C0000023174A9E214FF4B47012F01FF9002306
:1043D00026A29E214FF4DC7012F018F90F49002339
:1043E0000422D1F88000012104F0A2FB00230C4A32
:1043F000B421480012F00AF900231DA2B4214FF4A1
:10440000DC7012F003F910BD00FFFF00D0000020A7
:10441000F0040020B5DA0000B2BD0000E406002080
:10442000240A0020537465700000000042AB0508A8
:10443000ABAB0508B5E7D1B900000000B5E7C1F79F
:1044400000000000B9A6C2CA00000000CAB1BCE466
:10445000000000005600000049000000500000006D
:1044600054494D4500000000410000005700000085
:10447000730000002DE9F0410546012D00D100E058
:104480000020064626B14FF47F00FE49486003E055
:104490004FF05010FB49486014235C22182176200D
:1044A00004F050FF6FF07F40F6490860F64991F83C
:1044B000D60000230322194604F03AFB0023F34AF6
:1044C0001A21762012F0A2F8022D01D1012000E07D
:1044D0000020064626B14FF47F00EA49486003E019
:1044E0004FF05010E749486014235C222E217620BB
:1044F00004F028FF6FF07F40E2490860E24890F83E
:10450000D50060B9E04890F8D700C0EBC000E049A2
:10451000421800233021762012F078F80BE0DA48B8
:1045200090F8D700C0EBC000DA49421800233021D0
:10453000762012F06BF8032D01D1012000E000205D
:10454000064626B14FF47F00CE49486003E04FF0A5
:104550005010CC49486014235C224421762004F09A
:10456000F1FEC949D1F8E00000230722042104F03C
:10457000DFFA6FF07F40C34908600023C34A462139
:10458000762012F043F80023C34A4621C82012F0D7
:104590003DF8042D01D1012000E00020064626B19F
:1045A0004FF47F00B749486003E04FF05010B54921
:1045B000486014235C221821900004F0C3FE6FF0C1
:1045C0007F40B0490860B04890F8D50068B9AE485F
:1045D00090F8D900C0EBC000B049421800231A215E
:1045E0004FF4B87012F012F80CE0A74890F8D90018
:1045F000C0EBC000AA49421800231A214FF4B8703A
:1046000012F004F8052D01D1012000E0002006463B
:1046100026B14FF47F009B49486003E04FF05010F3
:104620009849486014235C222E21C80004F08AFEB9
:104630006FF07F40934908609349D1F8DC00002374
:104640000722042104F074FA0023904A30214FF429
:10465000B87011F0DBFF00238F4A30214FF4E17076
:1046600011F0D4FF0D2D01D1012000E000200646FD
:1046700026B14FF47F008349486003E04FF05010AB
:104680008049486014235C224421900004F05AFEC3
:104690006FF07F407B4908607B4890F8D50068B98F
:1046A000794890F8D800C0EBC0007E49421800233A
:1046B00046214FF4B87011F0A9FF0CE0724890F851
:1046C000D800C0EBC00078494218002346214FF4BF
:1046D000B87011F09BFF062D01D1012000E00020F1
:1046E000064626B14FF47F006649486003E04FF06C
:1046F000501064494860102350225E21002004F0CD
:1047000021FE6FF07F405F4908605F4890F8D50058
:10471000D8B9002365A25E21184611F077FF002367
:1047200063A25E21322011F071FF624991F87C1082
:10473000481C00230222194604F0FAF90023534AC8
:104740005E21162011F062FF19E04F4890F8D50065
:10475000012814D1002358A25E21184611F056FFFB
:10476000544991F87C10481C00230222194604F099
:10477000DFF90023454A5E21262011F047FF072D6F
:1047800001D1012000E00020064626B14FF47F0051
:104790003C49486003E04FF050103A49486010230C
:1047A00050225E21642004F0CDFD374890F8D500FA
:1047B00078B9404890F87C103348E430405CC0EB56
:1047C000C0003F49421800235E21642011F01EFF03
:1047D00013E02D4890F8D50001280ED1354890F807
:1047E0007C102948E430405CC0EBC00035494218D9
:1047F00000235E21642011F009FF4FF05010214981
:1048000048602C4890F87C101F48E430405C042835
:104810007ED01D4890F8D500F0B900232AA272215D
:10482000184611F0F3FE00232AA28821184611F041
:10483000EDFE002329A29E21184611F0E7FE002379
:1048400029A2B421184611F0E1FE002328A2CA21B2
:10485000184611F0DBFE6AE00B4890F8D5000128FD
:1048600065D1002324A27221184611F0CFFE002347
:1048700023A28821184611F0C9FE002322A29E21FE
:10488000184646E0D0000020F0040020240A002052
:1048900018AB05082DAB05080D9F0508ADA505084B
:1048A000E5A505089FA505081DA60508B5DA0000C1
:1048B000B2BD0000E40600205374657000000000E3
:1048C00042AB0508ABAB0508B8BAD4D8B4F3D0A155
:1048D00000000000CAB1BCE400000000B1C8BDCFB8
:1048E000C0E0D0CD00000000C9CFCFDE0000000046
:1048F000CFC2CFDE000000004C4F4144000000005A
:1049000054696D6500000000436F6D700000000089
:1049100057E111F07BFE0023F7A2B421184611F0F5
:1049200075FE0023F6A2CA21184611F06FFE12236D
:1049300014227021C82004F005FD12231422B22194
:10494000C82004F0FFFC12231422C821084604F0FA
:10495000F9FCEC4890F87C10EB48405C00EB400020
:10496000EA4901EB400200237221C82011F04EFEFB
:10497000E44890F87C10E4486A30405C00EB40006A
:10498000E34901EB40020023B421C82011F03EFEB0
:10499000DC4890F87C10DC486A30405C00EB40005A
:1049A000DB4901EB40020023CA21C82011F02EFE92
:1049B0000023D8A28821C82011F028FE082D01D19B
:1049C000012000E00020064626B14FF47F00D249C6
:1049D000486003E04FF05010CF49486014235C2238
:1049E0007021642004F0AEFC6FF07F40CA4908607B
:1049F000C44890F87C10C448405C02280CD1C149DE
:104A000091F87C20C049103151F822000023072280
:104A1000012104F08DF80BE0BA4991F87C20BA49E5
:104A2000103151F8220000230822042104F080F8FC
:104A30000023BA4A7221642011F0E8FD092D01D14A
:104A4000012000E00020064626B14FF47F00B24965
:104A5000486003E04FF05010AF49486014235C22D7
:104A60008621642004F06EFC6FF07F40AA49086044
:104A7000A44991F87C20A4494C3131F8120000235C
:104A80000422012104F054F80023A44A8821642060
:104A900011F0BCFD0A2D01D1012000E000200646E6
:104AA00026B14FF47F009C49486003E04FF050105E
:104AB0009949486014235C229C21642004F042FC44
:104AC0006FF07F40944908608F48E43890F8D50033
:104AD00078B98C4890F87C108B486A30405CC0EB09
:104AE000C0008F49421800239E21642011F08EFDE2
:104AF0000EE0844890F87C1083486A30405C00EBFC
:104B0000C0008849421800239E21642011F07EFDD8
:104B10000B2D01D1012000E00020064626B14FF404
:104B20007F007D49486003E04FF050107A494860AB
:104B300014235C22B221642004F004FC6FF07F4057
:104B4000754908606F4991F87C206F497C3151F8B4
:104B5000220000230722042103F0EAFF00236F4A0A
:104B6000B421642011F052FD0C2D01D1012000E090
:104B70000020064626B14FF47F006749486003E0F5
:104B80004FF050106449486014235C22C82164200F
:104B900004F0D8FB6FF07F405F490860594991F8F5
:104BA0007C205949B83151F8220000230722042102
:104BB00003F0BEFF0023594ACA21642011F026FDEC
:104BC0009BE1504890F87C104F48405C0428F7D196
:104BD0004D48E43890F8D50018BB0023AFF21832E6
:104BE0007221184611F012FD0023AFF2183288210D
:104BF000184611F00BFD0023AFF220329E2118461B
:104C000011F004FD0023AFF22032B421184611F058
:104C1000FDFC0023AFF22832CA21184611F0F6FC41
:104C200026E03948E43890F8D500012820D1002347
:104C3000AFF23C327221184611F0E8FC0023AFF2CB
:104C400040328821184611F0E1FC0023AFF24832CF
:104C50009E21184611F0DAFC002327A2B421184641
:104C600011F0D4FC002326A2CA21184611F0CEFC74
:104C7000122314227021C82004F064FB1223142292
:104C8000B221C82004F05EFB12231422C82108467A
:104C900004F058FB00231FA28821C82011F0B6FCA5
:104CA000072D01D1012000E00020064626B14FF477
:104CB0007F001949486003E04FF0501016494860E2
:104CC000104991F87C201049103151F8220000233E
:104CD0000722042103F02CFF14235C22702164209E
:104CE00004F030FB00230D4A7221642011F08EFC89
:104CF000082D19D1012018E04869676800000000FC
:104D00004C6F7700E4060020D4050020079F0508BB
:104D1000379F050873000000D0000020240A0020FF
:104D2000CEAB050830AC05080020064626B14FF48E
:104D30007F00FA49486003E04FF05010F74948609F
:104D400014235C227021642004F0FCFA6FF07F4091
:104D5000F2490860F24991F87C20F24951F82200AA
:104D600000230722042103F0E3FE0023EE4A722110
:104D7000642011F04BFC092D01D1012000E000203E
:104D8000064626B14FF47F00E449486003E04FF047
:104D90005010E249486014235C228621642004F00C
:104DA000D1FA6FF07F40DD490860DD4991F87C2041
:104DB000DC493C3131F8120000230422012103F0C8
:104DC000B7FE0023D84A8821642011F01FFC0A2D69
:104DD00001D1012000E00020064626B14FF47F00FB
:104DE000CE49486003E04FF05010CC49486014238E
:104DF0005C229C21642004F0A5FA6FF07F40C74933
:104E00000860C848F43890F8D50078B9C44890F8DC
:104E10007C10C4485A30405CC0EBC000C349421803
:104E200000239E21642011F0F1FB0EE0BC4890F8B5
:104E30007C10BC485A30405C00EBC000BC494218B2
:104E400000239E21642011F0E1FB0B2D01D10120F4
:104E500000E00020064626B14FF47F00AF494860CD
:104E600003E04FF05010AD49486014235C22B2219A
:104E7000642004F067FA6FF07F40A8490860A849F1
:104E800091F87C20A7496C3151F8220000230722B9
:104E9000042103F04DFE0023A34AB421642011F045
:104EA000B5FB0C2D01D1012000E00020064626B103
:104EB0004FF47F009949486003E04FF05010974944
:104EC000486014235C22C821642004F03BFA6FF090
:104ED0007F4092490860924991F87C209149A8311D
:104EE00051F8220000230722042103F021FE0023B1
:104EF0008D4ACA21642011F089FB0D2D1CD2DFE8F8
:104F000005F01B07141B15081016090A170B0C00D7
:104F100000BF00BF00BF00BF00BF0220FEF79EFD24
:104F20000EE00520FEF79AFD0AE000BF00BF00BFBB
:104F30000720FEF793FD03E00420FEF78FFD00BF7E
:104F400000BF774890F86D01002870D1FEF73CFD56
:104F50007848007800286BD1072D59D005DC4DB179
:104F6000022D0BD0042D7AD12DE00A2D79D00D2DF4
:104F7000F9D1AFE00520FDF7C9FE04E1FEF724FDFD
:104F80006FF07F40654908606B4848606548F438B9
:104F900090F8D50008B1694F00E0694F00240FE098
:104FA000C4EBC401CA19C4EB041101EB4411202362
:104FB00003EB410188B20023F12111F027FB641CAF
:104FC000032CEDD3DFE0FEF7FFFC6FF07F40534989
:104FD0000860594848605348F43890F8D50008B143
:104FE000584F00E0584F00240FE0C4EBC401CA1929
:104FF000C4EB041101EB4411202303EB410188B2FF
:105000000023F12111F002FB641C022CEDD3BAE065
:10501000FEF7DAFC6FF07F40404908604648486080
:105020004048F43890F8D50018B1484F02E0D3E07A
:10503000AAE0474F00240FE0C4EBC401CA19C4EB37
:10504000041101EB4411202303EB410188B200233A
:10505000F12111F0DBFA641C052CEDD393E091E013
:10506000FFE7FEF7B1FC6FF07F402C490860324843
:1050700048602C48F43890F8D500A8B1002410E01E
:1050800004EBC4012A4BCA18C4EB041101EB441110
:10509000202303EB410188B20023F12111F0B6FA7D
:1050A000641C042CECD314E0002410E0C4EBC40115
:1050B0001E4BCA18C4EB041101EB4411202303EB6F
:1050C000410188B20023F12111F0A0FA641C042CE4
:1050D000ECD358E0FEF778FC6FF07F400F49086092
:1050E000154848600F48F43890F8D500A8B100245E
:1050F00010E0C4EBC401174BCA18C4EB041101EB58
:105100004411202303EB410188B20023F12111F067
:105110007DFA641C022CECD333E01DE0D0000020AB
:10512000E4060020E4050020240A0020CEAB050898
:1051300030AC050833000020380031002DAB0508E5
:1051400018AB0508E5A50508ADA50508ABAB050836
:1051500042AB05081DA60508002410E0C4EBC401FD
:10516000264BCA18C4EB041101EB4411202303EBB6
:10517000410188B20023F12111F048FA641C022C8D
:10518000ECD300E000BF36E01D480078012832D1A2
:10519000FEF71AFC6FF07F401A4908601A48486011
:1051A0001A4890F8D50008B1194F00E0194F0024B3
:1051B0000FE0C4EBC401CA19C4EB041101EB4411A4
:1051C000202303EB410188B20023F12111F01EFAE4
:1051D000641C052CEDD30EE0FEF7F6FB6FF07F406C
:1051E000084908600848486000230BA2F1214FF4E9
:1051F000CC7011F00BFABDE8F08100009FA5050806
:1052000033000020D000002038003100F0040020DE
:105210000DAC0508EAAB0508C8B7C8CF0000000010
:1052200010B5054805494860962340F2DF124C212D
:10523000002004F087F810BD65343400D000002051
:1052400010B5054805494860742340F2DF126E210D
:10525000002004F077F810BD65343400D000002041
:105260002DE9F04192B005460E46174601201190F7
:10527000F74800780D9001200B9000200A900990CB
:105280000890079002900190039001900C9009E023
:1052900020200EA99DF8302088549DF83000401C35
:1052A000C0B20C909DF830000828F1DB00208DF88A
:1052B00040000FB1082400E00624C0E1B8F1010F5E
:1052C00003D103F0A1FE0D9001E04FF001089DF81D
:1052D000340000287ED001200B909DF834000D286A
:1052E00079D00ADC0D2877D2DFE800F07692A1B001
:1052F000F076DDCEBFF1EEEDEC00142812D008DC24
:10530000A0F10E000628EED2DFE800F0F0667F7E06
:10531000532F19287AD01A2879D01F2873D0422801
:105320005AD14BE10020039011909DF81C00A0423F
:1053300018DA9DF82800A8B99DF81C0000280CDD9B
:105340002E200EA99DF81C2088549DF81C00099061
:105350009DF81C00401CC0B207909DF82800401C1E
:10536000C0B20A90012004904EE101200390002079
:1053700011909DF81C00A04218DA9DF82800A8B9E9
:105380009DF81C0000280CDD2E200EA99DF81C2085
:1053900088549DF81C0009909DF81C00401CC0B268
:1053A00007909DF82800401CC0B20A90012004908C
:1053B0002AE102200390002011909DF81C00A042D9
:1053C0001CDA9DF82800C8B99DF81C00002810DDE3
:1053D0002E2002E019E1B7E015E10EA99DF81C208E
:1053E00088549DF81C0009909DF81C00401CC0B218
:1053F00007909DF82800401CC0B20A90012004903C
:1054000002E103E003E0DAE0FEE0FDE0FCE0FBE0C7
:105410009DF81C00A04209DA31200EA99DF81C203D
:1054200088549DF81C00401CC0B20790ECE09DF829
:105430001C00A04209DA32200EA99DF81C208854D5
:105440009DF81C00401CC0B20790DDE09DF81C00D8
:10545000A04209DA33200EA99DF81C2088549DF83B
:105460001C00401CC0B20790CEE09DF81C00A0427A
:1054700009DA34200EA99DF81C2088549DF81C00E0
:10548000401CC0B20790BFE09DF81C00A04209DAA2
:1054900035200EA99DF81C2088549DF81C00401C46
:1054A000C0B20790B0E09DF81C00A04209DA362097
:1054B0000EA99DF81C2088549DF81C00401CC0B209
:1054C0000790A1E062E021E011E000E078E09DF8C3
:1054D0001C00A04209DA37200EA99DF81C20885430
:1054E0009DF81C00401CC0B207908DE01DE09DF8A7
:1054F0001C00A04209DA38200EA99DF81C2088540F
:105500009DF81C00401CC0B207907DE09DF81C0077
:10551000A04209DA39200EA99DF81C2088549DF874
:105520001C00401CC0B207906EE09DF81C00A04219
:1055300009DA30200EA99DF81C2088549DF81C0023
:10554000401CC0B207905FE09DF81C00A0421CDA2E
:105550009DF81C00002818DD9DF82800A8B99DF8CA
:105560001C0000280CDD2E200EA99DF81C2088545C
:105570009DF81C0009909DF81C00401CC0B20790CB
:105580009DF82800401CC0B20A903DE09DF81C0028
:10559000002812DD9DF81C00401EC0B2079020209C
:1055A0000EA99DF81C2088549DF824009DF81C101D
:1055B000884202D100200A90099025E024E023E0EF
:1055C0000020039011909DF81C00A04218DA9DF86D
:1055D0002800A8B99DF81C0000280CDD2E200EA97B
:1055E0009DF81C2088549DF81C0009909DF81C0013
:1055F000401CC0B207909DF82800401CC0B20A9021
:105600000120049000E000BF00BF9DF82C00B0B165
:1056100000200B906FF07F400E4908604FF47F0030
:105620004860B38810339AB271883088122303F02F
:1056300089FE7188308800230EAA10F0E7FF9DF8DC
:10564000440000287FF43AAE9DF81C000C900DE059
:1056500083000020D000002030200EA99DF83020CB
:1056600088549DF83000401CC0B20C909DF830105A
:105670009DF82400401D8142EEDB00200C9039E0B3
:105680009DF83800302830DB9DF8380039282CDCB4
:105690000EA89DF83010405C302826DB0EA89DF83F
:1056A0003010405C392820DC9DF824009DF8301033
:1056B00088420DDD019800EB8000400001900199C7
:1056C0000EA89DF83020805C3038084401900CE032
:1056D000019800EB80004000019001990EA89DF810
:1056E0003020805C3038084401909DF83000401C28
:1056F000C0B20C909DF830109DF82400401D8142EE
:10570000BEDB9DF8240002909DF8000028700198EF
:1057100068600298A8600398E8600498286105987A
:1057200068610698A86112B0BDE8F0812DE9F041EA
:10573000074688466FF07F40FE4908604FF05010E2
:105740004860FD4890F86B0150B9FC4890F8D600CD
:10575000052803DCF94890F8D6501DE005251BE02C
:10576000F54890F86B0101280CD1F44890F8D60068
:105770000A2805DCF14890F8D600401FC5B20BE0BE
:10578000052509E0EC4890F86B01022804D1EB48AC
:1057900090F8D6000A38C5B2CA2340F2DF125E2163
:1057A000002003F0CFFD4FF050116FF07F4004F068
:1057B00027FA6FF07F40DF494860C5F1040000EB35
:1057C000400101EBC000CA21A1EB40005D3883B26B
:1057D00001225E21002003F0B5FDC5F1040000EBBD
:1057E000400101EBC000CA21A1EB40005D3883B24B
:1057F00001225E21282003F0A5FDC5F1040000EB85
:10580000400101EBC000CA21A1EB40005D3883B22A
:1058100001225E21782003F095FD012415E0C5F1F9
:10582000040101EB410202EBC101CA22A2EB4101DA
:105830005D398BB2642204FB02F101F17800012290
:105840005E2103F07FFD601CC4B2042CE7DB002462
:105850000CE0162204FB02F000F15E01012340F28D
:10586000DF12002003F06EFD601CC4B2A81C84424D
:10587000EFDB4FF05010AF494860B04890F8D500CA
:10588000012826D10023AEA26121032010F0BEFE24
:105890000023ACA261213F2010F0B8FE0023ABA290
:1058A0006121992010F0B2FE0023A9A26121FD2000
:1058B00010F0ACFE0023A7A2612140F2611010F0AD
:1058C000A5FE0023A4A2612140F2B11010F09EFEBB
:1058D00029E09A4890F8D50028BB00239FA26121B7
:1058E000032010F093FE00239EA261213F2010F0C0
:1058F0008DFE00239DA26121992010F087FE0023D8
:105900009CA26121FD2010F081FE00239BA2612159
:1059100040F2611010F07AFE00239AA2612140F259
:10592000B11010F073FEFEF74FF86FF07F40814921
:10593000086096484860814890F8D50008B1944EB8
:1059400000E0944E00240FE0C4EBC4018A19C4EBBC
:10595000041101EB4411202303EB41000023F1214A
:1059600010F054FE601CC4B2052CEDDB002476E17F
:105970004FF050106F4948606F4991F86B1101EB7F
:1059800081012144481C00230222194603F0D0F86B
:10599000162204FB02F000F1770100237E4A032067
:1059A00010F034FE644890F86B0100EB800003199E
:1059B0006248E430C05CC0EBC000784BC2181623CC
:1059C00004FB03F000F177010023352010F01EFEE8
:1059D000594890F86B0100EB80000119564884305B
:1059E000405C6F4951F8200052490860524890F8D5
:1059F0006B0100EB800001196A48405CC8B94E4950
:105A000091F86B1101EB81010A194B49943151F85E
:105A1000220000230722042103F08AF8162204FB47
:105A200002F000F1770100235B4A7B2010F0EEFDCD
:105A300022E0414890F86B0100EB800001195948C1
:105A4000405C012818D13C4991F86B1101EB8101B0
:105A50000A193949943151F8220000230622032102
:105A600003F066F8162204FB02F000F17701002330
:105A7000494A7B2010F0CAFD2F4890F86B0100EBDB
:105A8000800001192C488430405C474951F82000BF
:105A900028490860284890F86B0100EB8000011944
:105AA00040480F30405CC8B9234991F86B1101EBB5
:105AB00081010A193B49783951F822000023072255
:105AC000042103F035F8162204FB02F000F17701FF
:105AD0000023314ADF2010F099FD23E0164890F8AA
